{
	"TA_fix/Modular Testing/PlayerCardRenderer.sol": {
		"PlayerCardRenderer": {
			"abi": [
				{
					"inputs": [
						{
							"components": [
								{
									"internalType": "string",
									"name": "nickname",
									"type": "string"
								},
								{
									"internalType": "string",
									"name": "lane",
									"type": "string"
								},
								{
									"internalType": "uint64",
									"name": "games",
									"type": "uint64"
								},
								{
									"internalType": "uint64",
									"name": "kills",
									"type": "uint64"
								},
								{
									"internalType": "uint64",
									"name": "deaths",
									"type": "uint64"
								},
								{
									"internalType": "uint64",
									"name": "assists",
									"type": "uint64"
								}
							],
							"internalType": "struct PlayerData",
							"name": "d",
							"type": "tuple"
						},
						{
							"internalType": "string",
							"name": "kdaStr",
							"type": "string"
						},
						{
							"internalType": "string",
							"name": "labelColor",
							"type": "string"
						}
					],
					"name": "_getStatsRows",
					"outputs": [
						{
							"internalType": "string",
							"name": "",
							"type": "string"
						}
					],
					"stateMutability": "pure",
					"type": "function"
				},
				{
					"inputs": [],
					"name": "getBackgroundLayer",
					"outputs": [
						{
							"internalType": "string",
							"name": "",
							"type": "string"
						}
					],
					"stateMutability": "pure",
					"type": "function"
				},
				{
					"inputs": [],
					"name": "getPixelArtLayer",
					"outputs": [
						{
							"internalType": "string",
							"name": "",
							"type": "string"
						}
					],
					"stateMutability": "pure",
					"type": "function"
				},
				{
					"inputs": [
						{
							"components": [
								{
									"internalType": "string",
									"name": "nickname",
									"type": "string"
								},
								{
									"internalType": "string",
									"name": "lane",
									"type": "string"
								},
								{
									"internalType": "uint64",
									"name": "games",
									"type": "uint64"
								},
								{
									"internalType": "uint64",
									"name": "kills",
									"type": "uint64"
								},
								{
									"internalType": "uint64",
									"name": "deaths",
									"type": "uint64"
								},
								{
									"internalType": "uint64",
									"name": "assists",
									"type": "uint64"
								}
							],
							"internalType": "struct PlayerData",
							"name": "d",
							"type": "tuple"
						},
						{
							"internalType": "string",
							"name": "kdaStr",
							"type": "string"
						}
					],
					"name": "getStatsLayer",
					"outputs": [
						{
							"internalType": "string",
							"name": "",
							"type": "string"
						}
					],
					"stateMutability": "pure",
					"type": "function"
				}
			],
			"devdoc": {
				"kind": "dev",
				"methods": {},
				"version": 1
			},
			"evm": {
				"assembly": "    /* \"TA_fix/Modular Testing/PlayerCardRenderer.sol\":722:6555  contract PlayerCardRenderer {... */\n  mstore(0x40, 0x80)\n  callvalue\n  dup1\n  iszero\n  tag_1\n  jumpi\n  revert(0x00, 0x00)\ntag_1:\n  pop\n  dataSize(sub_0)\n  dup1\n  dataOffset(sub_0)\n  0x00\n  codecopy\n  0x00\n  return\nstop\n\nsub_0: assembly {\n        /* \"TA_fix/Modular Testing/PlayerCardRenderer.sol\":722:6555  contract PlayerCardRenderer {... */\n      mstore(0x40, 0x80)\n      callvalue\n      dup1\n      iszero\n      tag_1\n      jumpi\n      revert(0x00, 0x00)\n    tag_1:\n      pop\n      jumpi(tag_2, lt(calldatasize, 0x04))\n      shr(0xe0, calldataload(0x00))\n      dup1\n      0x0f02ed11\n      eq\n      tag_3\n      jumpi\n      dup1\n      0x4deea5ab\n      eq\n      tag_4\n      jumpi\n      dup1\n      0xc440354f\n      eq\n      tag_5\n      jumpi\n      dup1\n      0xfe22a5dc\n      eq\n      tag_6\n      jumpi\n    tag_2:\n      revert(0x00, 0x00)\n        /* \"TA_fix/Modular Testing/PlayerCardRenderer.sol\":3724:4466  function getStatsLayer(... */\n    tag_3:\n      tag_7\n      tag_8\n      calldatasize\n      0x04\n      tag_9\n      jump\t// in\n    tag_8:\n      tag_10\n      jump\t// in\n    tag_7:\n      mload(0x40)\n      tag_11\n      swap2\n      swap1\n      tag_12\n      jump\t// in\n    tag_11:\n      mload(0x40)\n      dup1\n      swap2\n      sub\n      swap1\n      return\n        /* \"TA_fix/Modular Testing/PlayerCardRenderer.sol\":4474:6552  function _getStatsRows(... */\n    tag_4:\n      tag_7\n      tag_14\n      calldatasize\n      0x04\n      tag_15\n      jump\t// in\n    tag_14:\n      tag_16\n      jump\t// in\n        /* \"TA_fix/Modular Testing/PlayerCardRenderer.sol\":791:1420  function getBackgroundLayer() public pure returns (string memory) {... */\n    tag_5:\n      tag_7\n      tag_19\n      jump\t// in\n        /* \"TA_fix/Modular Testing/PlayerCardRenderer.sol\":1428:3716  function getPixelArtLayer() public pure returns (string memory) {... */\n    tag_6:\n      tag_7\n      tag_22\n      jump\t// in\n        /* \"TA_fix/Modular Testing/PlayerCardRenderer.sol\":3724:4466  function getStatsLayer(... */\n    tag_10:\n        /* \"TA_fix/Modular Testing/PlayerCardRenderer.sol\":3862:3898  string memory labelColor = \"#3498db\" */\n      0x40\n      dup1\n      mload\n      dup1\n      dup3\n      add\n      swap1\n      swap2\n      mstore\n      0x07\n      dup2\n      mstore\n      shl(0xc9, 0x11999a1c9c3231)\n      0x20\n      dup3\n      add\n      mstore\n        /* \"TA_fix/Modular Testing/PlayerCardRenderer.sol\":4242:4252  d.nickname */\n      dup3\n      mload\n        /* \"TA_fix/Modular Testing/PlayerCardRenderer.sol\":3836:3849  string memory */\n      0x60\n      swap2\n        /* \"TA_fix/Modular Testing/PlayerCardRenderer.sol\":3862:3898  string memory labelColor = \"#3498db\" */\n      swap1\n      dup2\n      swap1\n        /* \"TA_fix/Modular Testing/PlayerCardRenderer.sol\":4390:4426  _getStatsRows(d, kdaStr, labelColor) */\n      tag_25\n        /* \"TA_fix/Modular Testing/PlayerCardRenderer.sol\":4242:4243  d */\n      dup7\n        /* \"TA_fix/Modular Testing/PlayerCardRenderer.sol\":4407:4413  kdaStr */\n      dup7\n        /* \"TA_fix/Modular Testing/PlayerCardRenderer.sol\":3862:3898  string memory labelColor = \"#3498db\" */\n      dup5\n        /* \"TA_fix/Modular Testing/PlayerCardRenderer.sol\":4390:4403  _getStatsRows */\n      tag_16\n        /* \"TA_fix/Modular Testing/PlayerCardRenderer.sol\":4390:4426  _getStatsRows(d, kdaStr, labelColor) */\n      jump\t// in\n    tag_25:\n        /* \"TA_fix/Modular Testing/PlayerCardRenderer.sol\":3916:4458  string.concat(... */\n      add(0x20, mload(0x40))\n      tag_26\n      swap4\n      swap3\n      swap2\n      swap1\n      tag_27\n      jump\t// in\n    tag_26:\n      mload(0x40)\n      0x20\n      dup2\n      dup4\n      sub\n      sub\n      dup2\n      mstore\n      swap1\n      0x40\n      mstore\n        /* \"TA_fix/Modular Testing/PlayerCardRenderer.sol\":3909:4458  return string.concat(... */\n      swap2\n      pop\n      pop\n        /* \"TA_fix/Modular Testing/PlayerCardRenderer.sol\":3724:4466  function getStatsLayer(... */\n      swap3\n      swap2\n      pop\n      pop\n      jump\t// out\n        /* \"TA_fix/Modular Testing/PlayerCardRenderer.sol\":4474:6552  function _getStatsRows(... */\n    tag_16:\n        /* \"TA_fix/Modular Testing/PlayerCardRenderer.sol\":4621:4634  string memory */\n      0x60\n        /* \"TA_fix/Modular Testing/PlayerCardRenderer.sol\":4647:4666  string memory part1 */\n      0x00\n        /* \"TA_fix/Modular Testing/PlayerCardRenderer.sol\":4729:4739  labelColor */\n      dup3\n        /* \"TA_fix/Modular Testing/PlayerCardRenderer.sol\":4912:4913  d */\n      dup6\n        /* \"TA_fix/Modular Testing/PlayerCardRenderer.sol\":4912:4918  d.lane */\n      0x20\n      add\n      mload\n        /* \"TA_fix/Modular Testing/PlayerCardRenderer.sol\":4976:4986  labelColor */\n      dup5\n        /* \"TA_fix/Modular Testing/PlayerCardRenderer.sol\":5159:5186  uint256(d.games).toString() */\n      tag_29\n        /* \"TA_fix/Modular Testing/PlayerCardRenderer.sol\":5167:5168  d */\n      dup9\n        /* \"TA_fix/Modular Testing/PlayerCardRenderer.sol\":5167:5174  d.games */\n      0x40\n      add\n      mload\n      sub(shl(0x40, 0x01), 0x01)\n        /* \"TA_fix/Modular Testing/PlayerCardRenderer.sol\":5159:5175  uint256(d.games) */\n      and\n        /* \"TA_fix/Modular Testing/PlayerCardRenderer.sol\":5159:5184  uint256(d.games).toString */\n      tag_30\n        /* \"TA_fix/Modular Testing/PlayerCardRenderer.sol\":5159:5186  uint256(d.games).toString() */\n      jump\t// in\n    tag_29:\n        /* \"TA_fix/Modular Testing/PlayerCardRenderer.sol\":4669:5208  string.concat(... */\n      add(0x20, mload(0x40))\n      tag_31\n      swap5\n      swap4\n      swap3\n      swap2\n      swap1\n      tag_32\n      jump\t// in\n    tag_31:\n      mload(0x40)\n      0x20\n      dup2\n      dup4\n      sub\n      sub\n      dup2\n      mstore\n      swap1\n      0x40\n      mstore\n        /* \"TA_fix/Modular Testing/PlayerCardRenderer.sol\":4647:5208  string memory part1 = string.concat(... */\n      swap1\n      pop\n        /* \"TA_fix/Modular Testing/PlayerCardRenderer.sol\":5219:5238  string memory part2 */\n      0x00\n        /* \"TA_fix/Modular Testing/PlayerCardRenderer.sol\":5301:5311  labelColor */\n      dup4\n        /* \"TA_fix/Modular Testing/PlayerCardRenderer.sol\":5484:5511  uint256(d.kills).toString() */\n      tag_33\n        /* \"TA_fix/Modular Testing/PlayerCardRenderer.sol\":5492:5493  d */\n      dup8\n        /* \"TA_fix/Modular Testing/PlayerCardRenderer.sol\":5492:5499  d.kills */\n      0x60\n      add\n      mload\n      sub(shl(0x40, 0x01), 0x01)\n        /* \"TA_fix/Modular Testing/PlayerCardRenderer.sol\":5484:5500  uint256(d.kills) */\n      and\n        /* \"TA_fix/Modular Testing/PlayerCardRenderer.sol\":5484:5509  uint256(d.kills).toString */\n      tag_30\n        /* \"TA_fix/Modular Testing/PlayerCardRenderer.sol\":5484:5511  uint256(d.kills).toString() */\n      jump\t// in\n    tag_33:\n        /* \"TA_fix/Modular Testing/PlayerCardRenderer.sol\":5569:5579  labelColor */\n      dup6\n        /* \"TA_fix/Modular Testing/PlayerCardRenderer.sol\":5752:5780  uint256(d.deaths).toString() */\n      tag_34\n        /* \"TA_fix/Modular Testing/PlayerCardRenderer.sol\":5760:5761  d */\n      dup10\n        /* \"TA_fix/Modular Testing/PlayerCardRenderer.sol\":5760:5768  d.deaths */\n      0x80\n      add\n      mload\n      sub(shl(0x40, 0x01), 0x01)\n        /* \"TA_fix/Modular Testing/PlayerCardRenderer.sol\":5752:5769  uint256(d.deaths) */\n      and\n        /* \"TA_fix/Modular Testing/PlayerCardRenderer.sol\":5752:5778  uint256(d.deaths).toString */\n      tag_30\n        /* \"TA_fix/Modular Testing/PlayerCardRenderer.sol\":5752:5780  uint256(d.deaths).toString() */\n      jump\t// in\n    tag_34:\n        /* \"TA_fix/Modular Testing/PlayerCardRenderer.sol\":5241:5802  string.concat(... */\n      add(0x20, mload(0x40))\n      tag_35\n      swap5\n      swap4\n      swap3\n      swap2\n      swap1\n      tag_36\n      jump\t// in\n    tag_35:\n      mload(0x40)\n      0x20\n      dup2\n      dup4\n      sub\n      sub\n      dup2\n      mstore\n      swap1\n      0x40\n      mstore\n        /* \"TA_fix/Modular Testing/PlayerCardRenderer.sol\":5219:5802  string memory part2 = string.concat(... */\n      swap1\n      pop\n        /* \"TA_fix/Modular Testing/PlayerCardRenderer.sol\":5813:5832  string memory part3 */\n      0x00\n        /* \"TA_fix/Modular Testing/PlayerCardRenderer.sol\":5895:5905  labelColor */\n      dup5\n        /* \"TA_fix/Modular Testing/PlayerCardRenderer.sol\":6078:6107  uint256(d.assists).toString() */\n      tag_37\n        /* \"TA_fix/Modular Testing/PlayerCardRenderer.sol\":6086:6087  d */\n      dup9\n        /* \"TA_fix/Modular Testing/PlayerCardRenderer.sol\":6086:6095  d.assists */\n      0xa0\n      add\n      mload\n      sub(shl(0x40, 0x01), 0x01)\n        /* \"TA_fix/Modular Testing/PlayerCardRenderer.sol\":6078:6096  uint256(d.assists) */\n      and\n        /* \"TA_fix/Modular Testing/PlayerCardRenderer.sol\":6078:6105  uint256(d.assists).toString */\n      tag_30\n        /* \"TA_fix/Modular Testing/PlayerCardRenderer.sol\":6078:6107  uint256(d.assists).toString() */\n      jump\t// in\n    tag_37:\n        /* \"TA_fix/Modular Testing/PlayerCardRenderer.sol\":6165:6175  labelColor */\n      dup7\n        /* \"TA_fix/Modular Testing/PlayerCardRenderer.sol\":6348:6354  kdaStr */\n      dup9\n        /* \"TA_fix/Modular Testing/PlayerCardRenderer.sol\":5835:6490  string.concat(... */\n      add(0x20, mload(0x40))\n      tag_38\n      swap5\n      swap4\n      swap3\n      swap2\n      swap1\n      tag_39\n      jump\t// in\n    tag_38:\n      mload(0x40)\n      0x20\n      dup2\n      dup4\n      sub\n      sub\n      dup2\n      mstore\n      swap1\n      0x40\n      mstore\n        /* \"TA_fix/Modular Testing/PlayerCardRenderer.sol\":5813:6490  string memory part3 = string.concat(... */\n      swap1\n      pop\n        /* \"TA_fix/Modular Testing/PlayerCardRenderer.sol\":6524:6529  part1 */\n      dup3\n        /* \"TA_fix/Modular Testing/PlayerCardRenderer.sol\":6531:6536  part2 */\n      dup3\n        /* \"TA_fix/Modular Testing/PlayerCardRenderer.sol\":6538:6543  part3 */\n      dup3\n        /* \"TA_fix/Modular Testing/PlayerCardRenderer.sol\":6510:6544  string.concat(part1, part2, part3) */\n      add(0x20, mload(0x40))\n      tag_40\n      swap4\n      swap3\n      swap2\n      swap1\n      tag_41\n      jump\t// in\n    tag_40:\n      mload(0x40)\n      0x20\n      dup2\n      dup4\n      sub\n      sub\n      dup2\n      mstore\n      swap1\n      0x40\n      mstore\n        /* \"TA_fix/Modular Testing/PlayerCardRenderer.sol\":6503:6544  return string.concat(part1, part2, part3) */\n      swap4\n      pop\n      pop\n      pop\n      pop\n        /* \"TA_fix/Modular Testing/PlayerCardRenderer.sol\":4474:6552  function _getStatsRows(... */\n      swap4\n      swap3\n      pop\n      pop\n      pop\n      jump\t// out\n        /* \"TA_fix/Modular Testing/PlayerCardRenderer.sol\":791:1420  function getBackgroundLayer() public pure returns (string memory) {... */\n    tag_19:\n        /* \"TA_fix/Modular Testing/PlayerCardRenderer.sol\":842:855  string memory */\n      0x60\n        /* \"TA_fix/Modular Testing/PlayerCardRenderer.sol\":875:1412  string.concat(... */\n      add(0x20, mload(0x40))\n      tag_43\n      swap1\n      tag_44\n      jump\t// in\n    tag_43:\n      mload(0x40)\n      0x20\n      dup2\n      dup4\n      sub\n      sub\n      dup2\n      mstore\n      swap1\n      0x40\n      mstore\n        /* \"TA_fix/Modular Testing/PlayerCardRenderer.sol\":868:1412  return string.concat(... */\n      swap1\n      pop\n        /* \"TA_fix/Modular Testing/PlayerCardRenderer.sol\":791:1420  function getBackgroundLayer() public pure returns (string memory) {... */\n      swap1\n      jump\t// out\n        /* \"TA_fix/Modular Testing/PlayerCardRenderer.sol\":1428:3716  function getPixelArtLayer() public pure returns (string memory) {... */\n    tag_22:\n        /* \"TA_fix/Modular Testing/PlayerCardRenderer.sol\":1477:1490  string memory */\n      0x60\n        /* \"TA_fix/Modular Testing/PlayerCardRenderer.sol\":1503:3708  return '<svg x=\"10\" y=\"30\" width=\"140\" height=\"380\" viewBox=\"0 0 32 32\" shape-rendering=\"crispEdges\"><g transform=\"translate(32, 0) scale(-1, 1)\"><path fill=\"#000000\" d=\"M11 2h10v1H11z M9 3h2v1H9z M21 3h2v1H21z M8 4h1v1H8z M23 4h1v1H23z M8 5h1v1H8z M24 5h1v1H24z M8 6h1v1H8z M24 6h1v1H24z M8 7h1v1H8z M24 7h1v1H24z M8 8h1v1H8z M24 8h1v1H24z M9 9h1v1H9z M24 9h1v1H24z M9 10h1v1H9z M23 10h1v1H23z M9 11h1v1H9z M12 11h2v1H12z M18 11h2v1H18z M23 11h1v1H23z M9 12h1v1H9z M23 12h1v1H23z M10 13h1v1H10z M22 13h1v1H22z M10 14h1v1H10z M22 14h1v1H22z M10 15h1v1H10z M22 15h1v1H22z M11 16h1v1H11z M21 16h1v1H21z M11 17h1v1H11z M21 17h1v1H21z M12 18h1v1H12z M20 18h1v1H20z M12 19h1v1H12z M20 19h1v1H20z M11 20h1v1H11z M21 20h1v1H21z M9 21h2v1H9z M22 21h2v1H22z M7 22h2v1H7z M24 22h2v1H24z M6 23h1v1H6z M26 23h1v1H26z M5 24h1v1H5z M27 24h1v1H27z M4 25h1v1H4z M28 25h1v1H28z M3 26h1v1H3z M29 26h1v1H29z M3 27h1v1H3z M29 27h1v1H29z M3 28h1v1H3z M29 28h1v1H29z M3 29h1v1H3z M29 29h1v1H29z M3 30h1v1H3z M29 30h1v1H29z M3 31h27v1H3z\" /><path fill=\"#000000\" d=\"M11 3h10v1H11z M9 4h14v1H9z M9 5h15v1H9z M9 6h15v1H9z M9 7h15v1H9z M9 8h3v1H9z M20 8h4v1H20z M10 9h2v1H10z M22 9h2v1H22z M10 10h1v1H10z M22 10h1v1H22z\" /><path fill=\"#e4b590\" d=\"M12 8h8v1H12z M12 9h10v1H12z M11 10h11v1H11z M10 11h2v1H10z M14 11h4v1H14z M20 11h3v1H20z M10 12h13v1H10z M11 13h4v1H11z M17 13h5v1H17z M11 14h11v1H11z M11 15h3v1H11z M18 15h4v1H18z M12 16h9v1H12z M12 17h9v1H12z M13 18h7v1H13z\" /><path fill=\"#c59473\" d=\"M15 13h2v1H15z M13 19h7v1H13z M14 20h5v1H14z\" /><path fill=\"#bd6a4f\" d=\"M14 15h4v1H14z\" /><path fill=\"#ffffff\" d=\"M12 20h2v1H12z M19 20h2v1H19z M11 21h3v1H11z M19 21h3v1H19z M9 22h4v1H9z M20 22h4v1H20z M7 23h5v1H7z M21 23h5v1H21z M6 24h5v1H6z M22 24h5v1H22z M5 25h5v1H5z M13 25h2v1H13z M16 25h2v1H16z M19 25h2v1H19z M23 25h5v1H23z M4 26h5v1H4z M24 26h5v1H24z M4 27h4v1H4z M25 27h4v1H25z M4 28h4v1H4z M25 28h4v1H25z M4 29h4v1H4z M25 29h4v1H25z M6 30h2v1H6z M25 30h2v1H25z\" /><path fill=\"#ef8115\" d=\"M14 21h5v1H14z M13 22h7v1H13z M12 23h9v1H12z M11 24h11v1H11z M10 25h3v1H10z M15 25h1v1H15z M18 25h1v1H18z M21 25h2v1H21z M9 26h15v1H9z M8 27h17v1H8z M8 28h17v1H8z M8 29h17v1H8z M4 30h2v1H4z M8 30h17v1H8z M27 30h2v1H27z\" /></g></svg>' */\n      mload(0x40)\n      dup1\n      0x08c0\n      add\n      0x40\n      mstore\n      dup1\n      0x0894\n      dup2\n      mstore\n      0x20\n      add\n      data_f6a221b9c27ad5ad19c881255f24cda3c72a751e5f17ceda563cf12c5d6df94a\n      0x0894\n      swap2\n      codecopy\n      swap1\n      pop\n        /* \"TA_fix/Modular Testing/PlayerCardRenderer.sol\":1428:3716  function getPixelArtLayer() public pure returns (string memory) {... */\n      swap1\n      jump\t// out\n        /* \"@openzeppelin/contracts/utils/Strings.sol\":1251:1885  function toString(uint256 value) internal pure returns (string memory) {... */\n    tag_30:\n        /* \"@openzeppelin/contracts/utils/Strings.sol\":1307:1320  string memory */\n      0x60\n        /* \"@openzeppelin/contracts/utils/Strings.sol\":1356:1370  uint256 length */\n      0x00\n        /* \"@openzeppelin/contracts/utils/Strings.sol\":1373:1390  Math.log10(value) */\n      tag_47\n        /* \"@openzeppelin/contracts/utils/Strings.sol\":1384:1389  value */\n      dup4\n        /* \"@openzeppelin/contracts/utils/Strings.sol\":1373:1383  Math.log10 */\n      tag_48\n        /* \"@openzeppelin/contracts/utils/Strings.sol\":1373:1390  Math.log10(value) */\n      jump\t// in\n    tag_47:\n        /* \"@openzeppelin/contracts/utils/Strings.sol\":1393:1394  1 */\n      0x01\n        /* \"@openzeppelin/contracts/utils/Strings.sol\":1373:1394  Math.log10(value) + 1 */\n      add\n        /* \"@openzeppelin/contracts/utils/Strings.sol\":1356:1394  uint256 length = Math.log10(value) + 1 */\n      swap1\n      pop\n        /* \"@openzeppelin/contracts/utils/Strings.sol\":1408:1428  string memory buffer */\n      0x00\n        /* \"@openzeppelin/contracts/utils/Strings.sol\":1442:1448  length */\n      dup2\n      sub(shl(0x40, 0x01), 0x01)\n        /* \"@openzeppelin/contracts/utils/Strings.sol\":1431:1449  new string(length) */\n      dup2\n      gt\n      iszero\n      tag_50\n      jumpi\n      tag_50\n      tag_51\n      jump\t// in\n    tag_50:\n      mload(0x40)\n      swap1\n      dup1\n      dup3\n      mstore\n      dup1\n      0x1f\n      add\n      not(0x1f)\n      and\n      0x20\n      add\n      dup3\n      add\n      0x40\n      mstore\n      dup1\n      iszero\n      tag_52\n      jumpi\n      0x20\n      dup3\n      add\n      dup2\n      dup1\n      calldatasize\n      dup4\n      calldatacopy\n      add\n      swap1\n      pop\n    tag_52:\n      pop\n        /* \"@openzeppelin/contracts/utils/Strings.sol\":1408:1449  string memory buffer = new string(length) */\n      swap1\n      pop\n        /* \"@openzeppelin/contracts/utils/Strings.sol\":1538:1568  add(add(buffer, 0x20), length) */\n      dup2\n      dup2\n      add\n        /* \"@openzeppelin/contracts/utils/Strings.sol\":1554:1558  0x20 */\n      0x20\n        /* \"@openzeppelin/contracts/utils/Strings.sol\":1538:1568  add(add(buffer, 0x20), length) */\n      add\n        /* \"@openzeppelin/contracts/utils/Strings.sol\":1595:1842  while (true) {... */\n    tag_53:\n      not(0x00)\n        /* \"@openzeppelin/contracts/utils/Strings.sol\":1626:1631  ptr-- */\n      add\n      shl(0x81, 0x181899199a1a9b1b9c1cb0b131b232b3)\n        /* \"@openzeppelin/contracts/utils/Strings.sol\":1725:1727  10 */\n      0x0a\n        /* \"@openzeppelin/contracts/utils/Strings.sol\":1714:1728  mod(value, 10) */\n      dup7\n      mod\n        /* \"@openzeppelin/contracts/utils/Strings.sol\":1709:1741  byte(mod(value, 10), HEX_DIGITS) */\n      byte\n        /* \"@openzeppelin/contracts/utils/Strings.sol\":1626:1631  ptr-- */\n      dup2\n        /* \"@openzeppelin/contracts/utils/Strings.sol\":1696:1742  mstore8(ptr, byte(mod(value, 10), HEX_DIGITS)) */\n      mstore8\n        /* \"@openzeppelin/contracts/utils/Strings.sol\":1786:1788  10 */\n      0x0a\n        /* \"@openzeppelin/contracts/utils/Strings.sol\":1777:1788  value /= 10 */\n      dup6\n      div\n      swap5\n      pop\n        /* \"@openzeppelin/contracts/utils/Strings.sol\":1806:1827  if (value == 0) break */\n      dup5\n        /* \"@openzeppelin/contracts/utils/Strings.sol\":1595:1842  while (true) {... */\n      tag_53\n        /* \"@openzeppelin/contracts/utils/Strings.sol\":1806:1827  if (value == 0) break */\n      jumpi\n      pop\n        /* \"@openzeppelin/contracts/utils/Strings.sol\":1862:1868  buffer */\n      swap4\n        /* \"@openzeppelin/contracts/utils/Strings.sol\":1251:1885  function toString(uint256 value) internal pure returns (string memory) {... */\n      swap3\n      pop\n      pop\n      pop\n      jump\t// out\n        /* \"@openzeppelin/contracts/utils/math/Math.sol\":29471:30387  function log10(uint256 value) internal pure returns (uint256) {... */\n    tag_48:\n        /* \"@openzeppelin/contracts/utils/math/Math.sol\":29524:29531  uint256 */\n      0x00\n      dup1\n      shl(0x40, 0x184f03e93ff9f4daa797ed6e38ed64bf6a1f01)\n        /* \"@openzeppelin/contracts/utils/math/Math.sol\":29599:29616  value >= 10 ** 64 */\n      dup4\n      lt\n        /* \"@openzeppelin/contracts/utils/math/Math.sol\":29595:29698  if (value >= 10 ** 64) {... */\n      tag_60\n      jumpi\n      shl(0x40, 0x184f03e93ff9f4daa797ed6e38ed64bf6a1f01)\n        /* \"@openzeppelin/contracts/utils/math/Math.sol\":29636:29653  value /= 10 ** 64 */\n      dup4\n      div\n      swap3\n      pop\n        /* \"@openzeppelin/contracts/utils/math/Math.sol\":29681:29683  64 */\n      0x40\n        /* \"@openzeppelin/contracts/utils/math/Math.sol\":29671:29683  result += 64 */\n      add\n        /* \"@openzeppelin/contracts/utils/math/Math.sol\":29595:29698  if (value >= 10 ** 64) {... */\n    tag_60:\n        /* \"@openzeppelin/contracts/utils/math/Math.sol\":29724:29732  10 ** 32 */\n      0x04ee2d6d415b85acef8100000000\n        /* \"@openzeppelin/contracts/utils/math/Math.sol\":29715:29720  value */\n      dup4\n        /* \"@openzeppelin/contracts/utils/math/Math.sol\":29715:29732  value >= 10 ** 32 */\n      lt\n        /* \"@openzeppelin/contracts/utils/math/Math.sol\":29711:29814  if (value >= 10 ** 32) {... */\n      tag_63\n      jumpi\n        /* \"@openzeppelin/contracts/utils/math/Math.sol\":29761:29769  10 ** 32 */\n      0x04ee2d6d415b85acef8100000000\n        /* \"@openzeppelin/contracts/utils/math/Math.sol\":29752:29769  value /= 10 ** 32 */\n      dup4\n      div\n      swap3\n      pop\n        /* \"@openzeppelin/contracts/utils/math/Math.sol\":29797:29799  32 */\n      0x20\n        /* \"@openzeppelin/contracts/utils/math/Math.sol\":29787:29799  result += 32 */\n      add\n        /* \"@openzeppelin/contracts/utils/math/Math.sol\":29711:29814  if (value >= 10 ** 32) {... */\n    tag_63:\n        /* \"@openzeppelin/contracts/utils/math/Math.sol\":29840:29848  10 ** 16 */\n      0x2386f26fc10000\n        /* \"@openzeppelin/contracts/utils/math/Math.sol\":29831:29836  value */\n      dup4\n        /* \"@openzeppelin/contracts/utils/math/Math.sol\":29831:29848  value >= 10 ** 16 */\n      lt\n        /* \"@openzeppelin/contracts/utils/math/Math.sol\":29827:29930  if (value >= 10 ** 16) {... */\n      tag_66\n      jumpi\n        /* \"@openzeppelin/contracts/utils/math/Math.sol\":29877:29885  10 ** 16 */\n      0x2386f26fc10000\n        /* \"@openzeppelin/contracts/utils/math/Math.sol\":29868:29885  value /= 10 ** 16 */\n      dup4\n      div\n      swap3\n      pop\n        /* \"@openzeppelin/contracts/utils/math/Math.sol\":29913:29915  16 */\n      0x10\n        /* \"@openzeppelin/contracts/utils/math/Math.sol\":29903:29915  result += 16 */\n      add\n        /* \"@openzeppelin/contracts/utils/math/Math.sol\":29827:29930  if (value >= 10 ** 16) {... */\n    tag_66:\n        /* \"@openzeppelin/contracts/utils/math/Math.sol\":29956:29963  10 ** 8 */\n      0x05f5e100\n        /* \"@openzeppelin/contracts/utils/math/Math.sol\":29947:29952  value */\n      dup4\n        /* \"@openzeppelin/contracts/utils/math/Math.sol\":29947:29963  value >= 10 ** 8 */\n      lt\n        /* \"@openzeppelin/contracts/utils/math/Math.sol\":29943:30043  if (value >= 10 ** 8) {... */\n      tag_69\n      jumpi\n        /* \"@openzeppelin/contracts/utils/math/Math.sol\":29992:29999  10 ** 8 */\n      0x05f5e100\n        /* \"@openzeppelin/contracts/utils/math/Math.sol\":29983:29999  value /= 10 ** 8 */\n      dup4\n      div\n      swap3\n      pop\n        /* \"@openzeppelin/contracts/utils/math/Math.sol\":30027:30028  8 */\n      0x08\n        /* \"@openzeppelin/contracts/utils/math/Math.sol\":30017:30028  result += 8 */\n      add\n        /* \"@openzeppelin/contracts/utils/math/Math.sol\":29943:30043  if (value >= 10 ** 8) {... */\n    tag_69:\n        /* \"@openzeppelin/contracts/utils/math/Math.sol\":30069:30076  10 ** 4 */\n      0x2710\n        /* \"@openzeppelin/contracts/utils/math/Math.sol\":30060:30065  value */\n      dup4\n        /* \"@openzeppelin/contracts/utils/math/Math.sol\":30060:30076  value >= 10 ** 4 */\n      lt\n        /* \"@openzeppelin/contracts/utils/math/Math.sol\":30056:30156  if (value >= 10 ** 4) {... */\n      tag_72\n      jumpi\n        /* \"@openzeppelin/contracts/utils/math/Math.sol\":30105:30112  10 ** 4 */\n      0x2710\n        /* \"@openzeppelin/contracts/utils/math/Math.sol\":30096:30112  value /= 10 ** 4 */\n      dup4\n      div\n      swap3\n      pop\n        /* \"@openzeppelin/contracts/utils/math/Math.sol\":30140:30141  4 */\n      0x04\n        /* \"@openzeppelin/contracts/utils/math/Math.sol\":30130:30141  result += 4 */\n      add\n        /* \"@openzeppelin/contracts/utils/math/Math.sol\":30056:30156  if (value >= 10 ** 4) {... */\n    tag_72:\n        /* \"@openzeppelin/contracts/utils/math/Math.sol\":30182:30189  10 ** 2 */\n      0x64\n        /* \"@openzeppelin/contracts/utils/math/Math.sol\":30173:30178  value */\n      dup4\n        /* \"@openzeppelin/contracts/utils/math/Math.sol\":30173:30189  value >= 10 ** 2 */\n      lt\n        /* \"@openzeppelin/contracts/utils/math/Math.sol\":30169:30269  if (value >= 10 ** 2) {... */\n      tag_75\n      jumpi\n        /* \"@openzeppelin/contracts/utils/math/Math.sol\":30218:30225  10 ** 2 */\n      0x64\n        /* \"@openzeppelin/contracts/utils/math/Math.sol\":30209:30225  value /= 10 ** 2 */\n      dup4\n      div\n      swap3\n      pop\n        /* \"@openzeppelin/contracts/utils/math/Math.sol\":30253:30254  2 */\n      0x02\n        /* \"@openzeppelin/contracts/utils/math/Math.sol\":30243:30254  result += 2 */\n      add\n        /* \"@openzeppelin/contracts/utils/math/Math.sol\":30169:30269  if (value >= 10 ** 2) {... */\n    tag_75:\n        /* \"@openzeppelin/contracts/utils/math/Math.sol\":30295:30302  10 ** 1 */\n      0x0a\n        /* \"@openzeppelin/contracts/utils/math/Math.sol\":30286:30291  value */\n      dup4\n        /* \"@openzeppelin/contracts/utils/math/Math.sol\":30286:30302  value >= 10 ** 1 */\n      lt\n        /* \"@openzeppelin/contracts/utils/math/Math.sol\":30282:30348  if (value >= 10 ** 1) {... */\n      tag_78\n      jumpi\n        /* \"@openzeppelin/contracts/utils/math/Math.sol\":30332:30333  1 */\n      0x01\n        /* \"@openzeppelin/contracts/utils/math/Math.sol\":30322:30333  result += 1 */\n      add\n        /* \"@openzeppelin/contracts/utils/math/Math.sol\":30282:30348  if (value >= 10 ** 1) {... */\n    tag_78:\n        /* \"@openzeppelin/contracts/utils/math/Math.sol\":30374:30380  result */\n      swap3\n        /* \"@openzeppelin/contracts/utils/math/Math.sol\":29471:30387  function log10(uint256 value) internal pure returns (uint256) {... */\n      swap2\n      pop\n      pop\n      jump\t// out\n        /* \"#utility.yul\":14:141   */\n    tag_51:\n        /* \"#utility.yul\":75:85   */\n      0x4e487b71\n        /* \"#utility.yul\":70:73   */\n      0xe0\n        /* \"#utility.yul\":66:86   */\n      shl\n        /* \"#utility.yul\":63:64   */\n      0x00\n        /* \"#utility.yul\":56:87   */\n      mstore\n        /* \"#utility.yul\":106:110   */\n      0x41\n        /* \"#utility.yul\":103:104   */\n      0x04\n        /* \"#utility.yul\":96:111   */\n      mstore\n        /* \"#utility.yul\":130:134   */\n      0x24\n        /* \"#utility.yul\":127:128   */\n      0x00\n        /* \"#utility.yul\":120:135   */\n      revert\n        /* \"#utility.yul\":146:394   */\n    tag_79:\n        /* \"#utility.yul\":213:215   */\n      0x40\n        /* \"#utility.yul\":207:216   */\n      mload\n        /* \"#utility.yul\":255:259   */\n      0xc0\n        /* \"#utility.yul\":243:260   */\n      dup2\n      add\n      sub(shl(0x40, 0x01), 0x01)\n        /* \"#utility.yul\":275:309   */\n      dup2\n      gt\n        /* \"#utility.yul\":311:333   */\n      dup3\n      dup3\n      lt\n        /* \"#utility.yul\":272:334   */\n      or\n        /* \"#utility.yul\":269:357   */\n      iszero\n      tag_95\n      jumpi\n        /* \"#utility.yul\":337:355   */\n      tag_95\n      tag_51\n      jump\t// in\n    tag_95:\n        /* \"#utility.yul\":373:375   */\n      0x40\n        /* \"#utility.yul\":366:388   */\n      mstore\n        /* \"#utility.yul\":146:394   */\n      swap1\n      jump\t// out\n        /* \"#utility.yul\":399:1145   */\n    tag_80:\n        /* \"#utility.yul\":442:447   */\n      0x00\n        /* \"#utility.yul\":495:498   */\n      dup3\n        /* \"#utility.yul\":488:492   */\n      0x1f\n        /* \"#utility.yul\":480:486   */\n      dup4\n        /* \"#utility.yul\":476:493   */\n      add\n        /* \"#utility.yul\":472:499   */\n      slt\n        /* \"#utility.yul\":462:517   */\n      tag_97\n      jumpi\n        /* \"#utility.yul\":513:514   */\n      0x00\n        /* \"#utility.yul\":510:511   */\n      0x00\n        /* \"#utility.yul\":503:515   */\n      revert\n        /* \"#utility.yul\":462:517   */\n    tag_97:\n        /* \"#utility.yul\":553:559   */\n      dup2\n        /* \"#utility.yul\":540:560   */\n      calldataload\n      sub(shl(0x40, 0x01), 0x01)\n        /* \"#utility.yul\":575:581   */\n      dup2\n        /* \"#utility.yul\":572:602   */\n      gt\n        /* \"#utility.yul\":569:625   */\n      iszero\n      tag_99\n      jumpi\n        /* \"#utility.yul\":605:623   */\n      tag_99\n      tag_51\n      jump\t// in\n    tag_99:\n        /* \"#utility.yul\":674:676   */\n      0x40\n        /* \"#utility.yul\":668:677   */\n      mload\n        /* \"#utility.yul\":766:768   */\n      0x1f\n        /* \"#utility.yul\":728:745   */\n      dup3\n      add\n      not(0x1f)\n        /* \"#utility.yul\":724:755   */\n      swap1\n      dup2\n      and\n        /* \"#utility.yul\":757:759   */\n      0x3f\n        /* \"#utility.yul\":720:760   */\n      add\n        /* \"#utility.yul\":716:770   */\n      and\n        /* \"#utility.yul\":704:771   */\n      dup2\n      add\n      sub(shl(0x40, 0x01), 0x01)\n        /* \"#utility.yul\":786:820   */\n      dup2\n      gt\n        /* \"#utility.yul\":822:844   */\n      dup3\n      dup3\n      lt\n        /* \"#utility.yul\":783:845   */\n      or\n        /* \"#utility.yul\":780:868   */\n      iszero\n      tag_101\n      jumpi\n        /* \"#utility.yul\":848:866   */\n      tag_101\n      tag_51\n      jump\t// in\n    tag_101:\n        /* \"#utility.yul\":884:886   */\n      0x40\n        /* \"#utility.yul\":877:899   */\n      mstore\n        /* \"#utility.yul\":908:930   */\n      dup2\n      dup2\n      mstore\n        /* \"#utility.yul\":949:968   */\n      dup4\n      dup3\n      add\n        /* \"#utility.yul\":970:974   */\n      0x20\n        /* \"#utility.yul\":945:975   */\n      add\n        /* \"#utility.yul\":942:981   */\n      dup6\n      lt\n        /* \"#utility.yul\":939:998   */\n      iszero\n      tag_102\n      jumpi\n        /* \"#utility.yul\":994:995   */\n      0x00\n        /* \"#utility.yul\":991:992   */\n      0x00\n        /* \"#utility.yul\":984:996   */\n      revert\n        /* \"#utility.yul\":939:998   */\n    tag_102:\n        /* \"#utility.yul\":1058:1064   */\n      dup2\n        /* \"#utility.yul\":1051:1055   */\n      0x20\n        /* \"#utility.yul\":1043:1049   */\n      dup6\n        /* \"#utility.yul\":1039:1056   */\n      add\n        /* \"#utility.yul\":1032:1036   */\n      0x20\n        /* \"#utility.yul\":1024:1030   */\n      dup4\n        /* \"#utility.yul\":1020:1037   */\n      add\n        /* \"#utility.yul\":1007:1065   */\n      calldatacopy\n        /* \"#utility.yul\":1113:1114   */\n      0x00\n        /* \"#utility.yul\":1085:1104   */\n      swap2\n      dup2\n      add\n        /* \"#utility.yul\":1106:1110   */\n      0x20\n        /* \"#utility.yul\":1081:1111   */\n      add\n        /* \"#utility.yul\":1074:1115   */\n      swap2\n      swap1\n      swap2\n      mstore\n        /* \"#utility.yul\":1089:1095   */\n      swap4\n        /* \"#utility.yul\":399:1145   */\n      swap3\n      pop\n      pop\n      pop\n      jump\t// out\n        /* \"#utility.yul\":1150:1321   */\n    tag_81:\n        /* \"#utility.yul\":1217:1237   */\n      dup1\n      calldataload\n      sub(shl(0x40, 0x01), 0x01)\n        /* \"#utility.yul\":1266:1296   */\n      dup2\n      and\n        /* \"#utility.yul\":1256:1297   */\n      dup2\n      eq\n        /* \"#utility.yul\":1246:1315   */\n      tag_104\n      jumpi\n        /* \"#utility.yul\":1311:1312   */\n      0x00\n        /* \"#utility.yul\":1308:1309   */\n      0x00\n        /* \"#utility.yul\":1301:1313   */\n      revert\n        /* \"#utility.yul\":1246:1315   */\n    tag_104:\n        /* \"#utility.yul\":1150:1321   */\n      swap2\n      swap1\n      pop\n      jump\t// out\n        /* \"#utility.yul\":1326:2152   */\n    tag_82:\n        /* \"#utility.yul\":1383:1388   */\n      0x00\n        /* \"#utility.yul\":1431:1435   */\n      0xc0\n        /* \"#utility.yul\":1419:1428   */\n      dup3\n        /* \"#utility.yul\":1414:1417   */\n      dup5\n        /* \"#utility.yul\":1410:1429   */\n      sub\n        /* \"#utility.yul\":1406:1436   */\n      slt\n        /* \"#utility.yul\":1403:1453   */\n      iszero\n      tag_106\n      jumpi\n        /* \"#utility.yul\":1449:1450   */\n      0x00\n        /* \"#utility.yul\":1446:1447   */\n      0x00\n        /* \"#utility.yul\":1439:1451   */\n      revert\n        /* \"#utility.yul\":1403:1453   */\n    tag_106:\n        /* \"#utility.yul\":1471:1488   */\n      tag_107\n      tag_79\n      jump\t// in\n    tag_107:\n        /* \"#utility.yul\":1462:1488   */\n      swap1\n      pop\n        /* \"#utility.yul\":1524:1533   */\n      dup2\n        /* \"#utility.yul\":1511:1534   */\n      calldataload\n      sub(shl(0x40, 0x01), 0x01)\n        /* \"#utility.yul\":1549:1555   */\n      dup2\n        /* \"#utility.yul\":1546:1576   */\n      gt\n        /* \"#utility.yul\":1543:1593   */\n      iszero\n      tag_108\n      jumpi\n        /* \"#utility.yul\":1589:1590   */\n      0x00\n        /* \"#utility.yul\":1586:1587   */\n      0x00\n        /* \"#utility.yul\":1579:1591   */\n      revert\n        /* \"#utility.yul\":1543:1593   */\n    tag_108:\n        /* \"#utility.yul\":1616:1662   */\n      tag_109\n        /* \"#utility.yul\":1658:1661   */\n      dup5\n        /* \"#utility.yul\":1649:1655   */\n      dup3\n        /* \"#utility.yul\":1638:1647   */\n      dup6\n        /* \"#utility.yul\":1634:1656   */\n      add\n        /* \"#utility.yul\":1616:1662   */\n      tag_80\n      jump\t// in\n    tag_109:\n        /* \"#utility.yul\":1609:1614   */\n      dup3\n        /* \"#utility.yul\":1602:1663   */\n      mstore\n      pop\n        /* \"#utility.yul\":1716:1718   */\n      0x20\n        /* \"#utility.yul\":1705:1714   */\n      dup3\n        /* \"#utility.yul\":1701:1719   */\n      add\n        /* \"#utility.yul\":1688:1720   */\n      calldataload\n      sub(shl(0x40, 0x01), 0x01)\n        /* \"#utility.yul\":1735:1743   */\n      dup2\n        /* \"#utility.yul\":1732:1764   */\n      gt\n        /* \"#utility.yul\":1729:1781   */\n      iszero\n      tag_110\n      jumpi\n        /* \"#utility.yul\":1777:1778   */\n      0x00\n        /* \"#utility.yul\":1774:1775   */\n      0x00\n        /* \"#utility.yul\":1767:1779   */\n      revert\n        /* \"#utility.yul\":1729:1781   */\n    tag_110:\n        /* \"#utility.yul\":1813:1861   */\n      tag_111\n        /* \"#utility.yul\":1857:1860   */\n      dup5\n        /* \"#utility.yul\":1846:1854   */\n      dup3\n        /* \"#utility.yul\":1835:1844   */\n      dup6\n        /* \"#utility.yul\":1831:1855   */\n      add\n        /* \"#utility.yul\":1813:1861   */\n      tag_80\n      jump\t// in\n    tag_111:\n        /* \"#utility.yul\":1808:1810   */\n      0x20\n        /* \"#utility.yul\":1801:1806   */\n      dup4\n        /* \"#utility.yul\":1797:1811   */\n      add\n        /* \"#utility.yul\":1790:1862   */\n      mstore\n      pop\n        /* \"#utility.yul\":1894:1931   */\n      tag_112\n        /* \"#utility.yul\":1927:1929   */\n      0x40\n        /* \"#utility.yul\":1916:1925   */\n      dup4\n        /* \"#utility.yul\":1912:1930   */\n      add\n        /* \"#utility.yul\":1894:1931   */\n      tag_81\n      jump\t// in\n    tag_112:\n        /* \"#utility.yul\":1889:1891   */\n      0x40\n        /* \"#utility.yul\":1882:1887   */\n      dup3\n        /* \"#utility.yul\":1878:1892   */\n      add\n        /* \"#utility.yul\":1871:1932   */\n      mstore\n        /* \"#utility.yul\":1964:2001   */\n      tag_113\n        /* \"#utility.yul\":1997:1999   */\n      0x60\n        /* \"#utility.yul\":1986:1995   */\n      dup4\n        /* \"#utility.yul\":1982:2000   */\n      add\n        /* \"#utility.yul\":1964:2001   */\n      tag_81\n      jump\t// in\n    tag_113:\n        /* \"#utility.yul\":1959:1961   */\n      0x60\n        /* \"#utility.yul\":1952:1957   */\n      dup3\n        /* \"#utility.yul\":1948:1962   */\n      add\n        /* \"#utility.yul\":1941:2002   */\n      mstore\n        /* \"#utility.yul\":2035:2073   */\n      tag_114\n        /* \"#utility.yul\":2068:2071   */\n      0x80\n        /* \"#utility.yul\":2057:2066   */\n      dup4\n        /* \"#utility.yul\":2053:2072   */\n      add\n        /* \"#utility.yul\":2035:2073   */\n      tag_81\n      jump\t// in\n    tag_114:\n        /* \"#utility.yul\":2029:2032   */\n      0x80\n        /* \"#utility.yul\":2022:2027   */\n      dup3\n        /* \"#utility.yul\":2018:2033   */\n      add\n        /* \"#utility.yul\":2011:2074   */\n      mstore\n        /* \"#utility.yul\":2107:2145   */\n      tag_115\n        /* \"#utility.yul\":2140:2143   */\n      0xa0\n        /* \"#utility.yul\":2129:2138   */\n      dup4\n        /* \"#utility.yul\":2125:2144   */\n      add\n        /* \"#utility.yul\":2107:2145   */\n      tag_81\n      jump\t// in\n    tag_115:\n        /* \"#utility.yul\":2101:2104   */\n      0xa0\n        /* \"#utility.yul\":2094:2099   */\n      dup3\n        /* \"#utility.yul\":2090:2105   */\n      add\n        /* \"#utility.yul\":2083:2146   */\n      mstore\n        /* \"#utility.yul\":1326:2152   */\n      swap3\n      swap2\n      pop\n      pop\n      jump\t// out\n        /* \"#utility.yul\":2157:2724   */\n    tag_9:\n        /* \"#utility.yul\":2263:2269   */\n      0x00\n        /* \"#utility.yul\":2271:2277   */\n      0x00\n        /* \"#utility.yul\":2324:2326   */\n      0x40\n        /* \"#utility.yul\":2312:2321   */\n      dup4\n        /* \"#utility.yul\":2303:2310   */\n      dup6\n        /* \"#utility.yul\":2299:2322   */\n      sub\n        /* \"#utility.yul\":2295:2327   */\n      slt\n        /* \"#utility.yul\":2292:2344   */\n      iszero\n      tag_117\n      jumpi\n        /* \"#utility.yul\":2340:2341   */\n      0x00\n        /* \"#utility.yul\":2337:2338   */\n      0x00\n        /* \"#utility.yul\":2330:2342   */\n      revert\n        /* \"#utility.yul\":2292:2344   */\n    tag_117:\n        /* \"#utility.yul\":2380:2389   */\n      dup3\n        /* \"#utility.yul\":2367:2390   */\n      calldataload\n      sub(shl(0x40, 0x01), 0x01)\n        /* \"#utility.yul\":2405:2411   */\n      dup2\n        /* \"#utility.yul\":2402:2432   */\n      gt\n        /* \"#utility.yul\":2399:2449   */\n      iszero\n      tag_118\n      jumpi\n        /* \"#utility.yul\":2445:2446   */\n      0x00\n        /* \"#utility.yul\":2442:2443   */\n      0x00\n        /* \"#utility.yul\":2435:2447   */\n      revert\n        /* \"#utility.yul\":2399:2449   */\n    tag_118:\n        /* \"#utility.yul\":2468:2529   */\n      tag_119\n        /* \"#utility.yul\":2521:2528   */\n      dup6\n        /* \"#utility.yul\":2512:2518   */\n      dup3\n        /* \"#utility.yul\":2501:2510   */\n      dup7\n        /* \"#utility.yul\":2497:2519   */\n      add\n        /* \"#utility.yul\":2468:2529   */\n      tag_82\n      jump\t// in\n    tag_119:\n        /* \"#utility.yul\":2458:2529   */\n      swap3\n      pop\n      pop\n        /* \"#utility.yul\":2582:2584   */\n      0x20\n        /* \"#utility.yul\":2571:2580   */\n      dup4\n        /* \"#utility.yul\":2567:2585   */\n      add\n        /* \"#utility.yul\":2554:2586   */\n      calldataload\n      sub(shl(0x40, 0x01), 0x01)\n        /* \"#utility.yul\":2601:2609   */\n      dup2\n        /* \"#utility.yul\":2598:2630   */\n      gt\n        /* \"#utility.yul\":2595:2647   */\n      iszero\n      tag_120\n      jumpi\n        /* \"#utility.yul\":2643:2644   */\n      0x00\n        /* \"#utility.yul\":2640:2641   */\n      0x00\n        /* \"#utility.yul\":2633:2645   */\n      revert\n        /* \"#utility.yul\":2595:2647   */\n    tag_120:\n        /* \"#utility.yul\":2666:2718   */\n      tag_121\n        /* \"#utility.yul\":2710:2717   */\n      dup6\n        /* \"#utility.yul\":2699:2707   */\n      dup3\n        /* \"#utility.yul\":2688:2697   */\n      dup7\n        /* \"#utility.yul\":2684:2708   */\n      add\n        /* \"#utility.yul\":2666:2718   */\n      tag_80\n      jump\t// in\n    tag_121:\n        /* \"#utility.yul\":2656:2718   */\n      swap2\n      pop\n      pop\n        /* \"#utility.yul\":2157:2724   */\n      swap3\n      pop\n      swap3\n      swap1\n      pop\n      jump\t// out\n        /* \"#utility.yul\":2729:3147   */\n    tag_12:\n        /* \"#utility.yul\":2878:2880   */\n      0x20\n        /* \"#utility.yul\":2867:2876   */\n      dup2\n        /* \"#utility.yul\":2860:2881   */\n      mstore\n        /* \"#utility.yul\":2841:2845   */\n      0x00\n        /* \"#utility.yul\":2910:2916   */\n      dup3\n        /* \"#utility.yul\":2904:2917   */\n      mload\n        /* \"#utility.yul\":2953:2959   */\n      dup1\n        /* \"#utility.yul\":2948:2950   */\n      0x20\n        /* \"#utility.yul\":2937:2946   */\n      dup5\n        /* \"#utility.yul\":2933:2951   */\n      add\n        /* \"#utility.yul\":2926:2960   */\n      mstore\n        /* \"#utility.yul\":3012:3018   */\n      dup1\n        /* \"#utility.yul\":3007:3009   */\n      0x20\n        /* \"#utility.yul\":2999:3005   */\n      dup6\n        /* \"#utility.yul\":2995:3010   */\n      add\n        /* \"#utility.yul\":2990:2992   */\n      0x40\n        /* \"#utility.yul\":2979:2988   */\n      dup6\n        /* \"#utility.yul\":2975:2993   */\n      add\n        /* \"#utility.yul\":2969:3019   */\n      mcopy\n        /* \"#utility.yul\":3068:3069   */\n      0x00\n        /* \"#utility.yul\":3063:3065   */\n      0x40\n        /* \"#utility.yul\":3054:3060   */\n      dup3\n        /* \"#utility.yul\":3043:3052   */\n      dup6\n        /* \"#utility.yul\":3039:3061   */\n      add\n        /* \"#utility.yul\":3035:3066   */\n      add\n        /* \"#utility.yul\":3028:3070   */\n      mstore\n        /* \"#utility.yul\":3138:3140   */\n      0x40\n        /* \"#utility.yul\":3131:3133   */\n      0x1f\n        /* \"#utility.yul\":3127:3134   */\n      not\n        /* \"#utility.yul\":3122:3124   */\n      0x1f\n        /* \"#utility.yul\":3114:3120   */\n      dup4\n        /* \"#utility.yul\":3110:3125   */\n      add\n        /* \"#utility.yul\":3106:3135   */\n      and\n        /* \"#utility.yul\":3095:3104   */\n      dup5\n        /* \"#utility.yul\":3091:3136   */\n      add\n        /* \"#utility.yul\":3087:3141   */\n      add\n        /* \"#utility.yul\":3079:3141   */\n      swap2\n      pop\n      pop\n        /* \"#utility.yul\":2729:3147   */\n      swap3\n      swap2\n      pop\n      pop\n      jump\t// out\n        /* \"#utility.yul\":3152:3935   */\n    tag_15:\n        /* \"#utility.yul\":3277:3283   */\n      0x00\n        /* \"#utility.yul\":3285:3291   */\n      0x00\n        /* \"#utility.yul\":3293:3299   */\n      0x00\n        /* \"#utility.yul\":3346:3348   */\n      0x60\n        /* \"#utility.yul\":3334:3343   */\n      dup5\n        /* \"#utility.yul\":3325:3332   */\n      dup7\n        /* \"#utility.yul\":3321:3344   */\n      sub\n        /* \"#utility.yul\":3317:3349   */\n      slt\n        /* \"#utility.yul\":3314:3366   */\n      iszero\n      tag_124\n      jumpi\n        /* \"#utility.yul\":3362:3363   */\n      0x00\n        /* \"#utility.yul\":3359:3360   */\n      0x00\n        /* \"#utility.yul\":3352:3364   */\n      revert\n        /* \"#utility.yul\":3314:3366   */\n    tag_124:\n        /* \"#utility.yul\":3402:3411   */\n      dup4\n        /* \"#utility.yul\":3389:3412   */\n      calldataload\n      sub(shl(0x40, 0x01), 0x01)\n        /* \"#utility.yul\":3427:3433   */\n      dup2\n        /* \"#utility.yul\":3424:3454   */\n      gt\n        /* \"#utility.yul\":3421:3471   */\n      iszero\n      tag_125\n      jumpi\n        /* \"#utility.yul\":3467:3468   */\n      0x00\n        /* \"#utility.yul\":3464:3465   */\n      0x00\n        /* \"#utility.yul\":3457:3469   */\n      revert\n        /* \"#utility.yul\":3421:3471   */\n    tag_125:\n        /* \"#utility.yul\":3490:3551   */\n      tag_126\n        /* \"#utility.yul\":3543:3550   */\n      dup7\n        /* \"#utility.yul\":3534:3540   */\n      dup3\n        /* \"#utility.yul\":3523:3532   */\n      dup8\n        /* \"#utility.yul\":3519:3541   */\n      add\n        /* \"#utility.yul\":3490:3551   */\n      tag_82\n      jump\t// in\n    tag_126:\n        /* \"#utility.yul\":3480:3551   */\n      swap4\n      pop\n      pop\n        /* \"#utility.yul\":3604:3606   */\n      0x20\n        /* \"#utility.yul\":3593:3602   */\n      dup5\n        /* \"#utility.yul\":3589:3607   */\n      add\n        /* \"#utility.yul\":3576:3608   */\n      calldataload\n      sub(shl(0x40, 0x01), 0x01)\n        /* \"#utility.yul\":3623:3631   */\n      dup2\n        /* \"#utility.yul\":3620:3652   */\n      gt\n        /* \"#utility.yul\":3617:3669   */\n      iszero\n      tag_127\n      jumpi\n        /* \"#utility.yul\":3665:3666   */\n      0x00\n        /* \"#utility.yul\":3662:3663   */\n      0x00\n        /* \"#utility.yul\":3655:3667   */\n      revert\n        /* \"#utility.yul\":3617:3669   */\n    tag_127:\n        /* \"#utility.yul\":3688:3740   */\n      tag_128\n        /* \"#utility.yul\":3732:3739   */\n      dup7\n        /* \"#utility.yul\":3721:3729   */\n      dup3\n        /* \"#utility.yul\":3710:3719   */\n      dup8\n        /* \"#utility.yul\":3706:3730   */\n      add\n        /* \"#utility.yul\":3688:3740   */\n      tag_80\n      jump\t// in\n    tag_128:\n        /* \"#utility.yul\":3678:3740   */\n      swap3\n      pop\n      pop\n        /* \"#utility.yul\":3793:3795   */\n      0x40\n        /* \"#utility.yul\":3782:3791   */\n      dup5\n        /* \"#utility.yul\":3778:3796   */\n      add\n        /* \"#utility.yul\":3765:3797   */\n      calldataload\n      sub(shl(0x40, 0x01), 0x01)\n        /* \"#utility.yul\":3812:3820   */\n      dup2\n        /* \"#utility.yul\":3809:3841   */\n      gt\n        /* \"#utility.yul\":3806:3858   */\n      iszero\n      tag_129\n      jumpi\n        /* \"#utility.yul\":3854:3855   */\n      0x00\n        /* \"#utility.yul\":3851:3852   */\n      0x00\n        /* \"#utility.yul\":3844:3856   */\n      revert\n        /* \"#utility.yul\":3806:3858   */\n    tag_129:\n        /* \"#utility.yul\":3877:3929   */\n      tag_130\n        /* \"#utility.yul\":3921:3928   */\n      dup7\n        /* \"#utility.yul\":3910:3918   */\n      dup3\n        /* \"#utility.yul\":3899:3908   */\n      dup8\n        /* \"#utility.yul\":3895:3919   */\n      add\n        /* \"#utility.yul\":3877:3929   */\n      tag_80\n      jump\t// in\n    tag_130:\n        /* \"#utility.yul\":3867:3929   */\n      swap2\n      pop\n      pop\n        /* \"#utility.yul\":3152:3935   */\n      swap3\n      pop\n      swap3\n      pop\n      swap3\n      jump\t// out\n        /* \"#utility.yul\":3940:4152   */\n    tag_83:\n        /* \"#utility.yul\":3982:3985   */\n      0x00\n        /* \"#utility.yul\":4020:4025   */\n      dup2\n        /* \"#utility.yul\":4014:4026   */\n      mload\n        /* \"#utility.yul\":4064:4070   */\n      dup1\n        /* \"#utility.yul\":4057:4061   */\n      0x20\n        /* \"#utility.yul\":4050:4055   */\n      dup5\n        /* \"#utility.yul\":4046:4062   */\n      add\n        /* \"#utility.yul\":4041:4044   */\n      dup6\n        /* \"#utility.yul\":4035:4071   */\n      mcopy\n        /* \"#utility.yul\":4126:4127   */\n      0x00\n        /* \"#utility.yul\":4090:4106   */\n      swap4\n      add\n        /* \"#utility.yul\":4115:4128   */\n      swap3\n      dup4\n      mstore\n      pop\n        /* \"#utility.yul\":4090:4106   */\n      swap1\n      swap2\n        /* \"#utility.yul\":3940:4152   */\n      swap1\n      pop\n      jump\t// out\n        /* \"#utility.yul\":4312:6641   */\n    tag_27:\n        /* \"#utility.yul\":5244:5310   */\n      0x3c67207472616e73666f726d3d227472616e736c617465283138302c20393529\n        /* \"#utility.yul\":5239:5242   */\n      dup2\n        /* \"#utility.yul\":5232:5311   */\n      mstore\n        /* \"#utility.yul\":5341:5407   */\n      0x222073686170652d72656e646572696e673d2263726973704564676573223e00\n        /* \"#utility.yul\":5336:5338   */\n      0x20\n        /* \"#utility.yul\":5331:5334   */\n      dup3\n        /* \"#utility.yul\":5327:5339   */\n      add\n        /* \"#utility.yul\":5320:5408   */\n      mstore\n        /* \"#utility.yul\":5438:5504   */\n      0x3c7465787420783d222d33302220793d223230222066696c6c3d220000000000\n        /* \"#utility.yul\":5433:5435   */\n      0x3f\n        /* \"#utility.yul\":5428:5431   */\n      dup3\n        /* \"#utility.yul\":5424:5436   */\n      add\n        /* \"#utility.yul\":5417:5505   */\n      mstore\n        /* \"#utility.yul\":5214:5217   */\n      0x00\n        /* \"#utility.yul\":5524:5563   */\n      tag_135\n        /* \"#utility.yul\":5559:5561   */\n      0x5a\n        /* \"#utility.yul\":5554:5557   */\n      dup4\n        /* \"#utility.yul\":5550:5562   */\n      add\n        /* \"#utility.yul\":5542:5548   */\n      dup7\n        /* \"#utility.yul\":5524:5563   */\n      tag_83\n      jump\t// in\n    tag_135:\n      mload(0x00)\n      codecopy(0x00, data_e6fe246f9dcee0b298783ca314179e6a4586eb9ee23de4d22ec3b8353f55257a, 0x20)\n      mload(0x00)\n      swap1\n      0x00\n      mstore\n        /* \"#utility.yul\":5579:5581   */\n      dup2\n        /* \"#utility.yul\":5572:5650   */\n      mstore\n        /* \"#utility.yul\":5679:5745   */\n      0x6e6f7370616365223e504c41594552204e414d453a3c2f746578743e00000000\n        /* \"#utility.yul\":5674:5676   */\n      0x20\n        /* \"#utility.yul\":5670:5672   */\n      dup3\n        /* \"#utility.yul\":5666:5677   */\n      add\n        /* \"#utility.yul\":5659:5746   */\n      mstore\n        /* \"#utility.yul\":5775:5841   */\n      0x3c7465787420783d222d33302220793d223436222066696c6c3d222365636630\n        /* \"#utility.yul\":5770:5772   */\n      0x3c\n        /* \"#utility.yul\":5766:5768   */\n      dup3\n        /* \"#utility.yul\":5762:5773   */\n      add\n        /* \"#utility.yul\":5755:5842   */\n      mstore\n        /* \"#utility.yul\":5871:5937   */\n      0x66312220666f6e742d73697a653d2232302220666f6e742d7765696768743d22\n        /* \"#utility.yul\":5866:5868   */\n      0x5c\n        /* \"#utility.yul\":5862:5864   */\n      dup3\n        /* \"#utility.yul\":5858:5869   */\n      add\n        /* \"#utility.yul\":5851:5938   */\n      mstore\n        /* \"#utility.yul\":5968:6034   */\n      0x626f6c642220666f6e742d66616d696c793d226d6f6e6f7370616365223e0000\n        /* \"#utility.yul\":5962:5965   */\n      0x7c\n        /* \"#utility.yul\":5958:5960   */\n      dup3\n        /* \"#utility.yul\":5954:5966   */\n      add\n        /* \"#utility.yul\":5947:6035   */\n      mstore\n        /* \"#utility.yul\":6057:6096   */\n      tag_136\n        /* \"#utility.yul\":6091:6094   */\n      0x9a\n        /* \"#utility.yul\":6087:6089   */\n      dup3\n        /* \"#utility.yul\":6083:6095   */\n      add\n        /* \"#utility.yul\":6075:6081   */\n      dup7\n        /* \"#utility.yul\":6057:6096   */\n      tag_83\n      jump\t// in\n    tag_136:\n      shl(0xc9, 0x1e17ba32bc3a1f)\n        /* \"#utility.yul\":6105:6129   */\n      dup2\n      mstore\n        /* \"#utility.yul\":6210:6276   */\n      0x3c6c696e652078313d222d3235222079313d223638222078323d223132302220\n        /* \"#utility.yul\":6162:6163   */\n      0x07\n        /* \"#utility.yul\":6151:6164   */\n      dup3\n      add\n        /* \"#utility.yul\":6196:6277   */\n      swap1\n      dup2\n      mstore\n        /* \"#utility.yul\":6309:6375   */\n      0x79323d22363822207374726f6b653d222335353522207374726f6b652d776964\n        /* \"#utility.yul\":6293:6307   */\n      0x27\n      dup4\n      add\n        /* \"#utility.yul\":6286:6376   */\n      mstore\n        /* \"#utility.yul\":6408:6474   */\n      0x74683d223322207374726f6b652d6461736861727261793d22382c36222f3e00\n        /* \"#utility.yul\":6392:6406   */\n      0x47\n      dup4\n      add\n        /* \"#utility.yul\":6385:6475   */\n      mstore\n        /* \"#utility.yul\":6151:6164   */\n      swap2\n      pop\n        /* \"#utility.yul\":6493:6507   */\n      0x66\n      add\n        /* \"#utility.yul\":6529:6561   */\n      tag_137\n        /* \"#utility.yul\":6493:6507   */\n      dup2\n        /* \"#utility.yul\":6547:6553   */\n      dup7\n        /* \"#utility.yul\":6529:6561   */\n      tag_83\n      jump\t// in\n    tag_137:\n        /* \"#utility.yul\":6516:6561   */\n      swap2\n      pop\n      pop\n        /* \"#utility.yul\":6570:6606   */\n      tag_138\n        /* \"#utility.yul\":6600:6605   */\n      dup2\n      shl(0xe1, 0x1e17b39f)\n        /* \"#utility.yul\":4286:4305   */\n      swap1\n      mstore\n        /* \"#utility.yul\":4236:4307   */\n      jump\n        /* \"#utility.yul\":6570:6606   */\n    tag_138:\n        /* \"#utility.yul\":6633:6634   */\n      0x04\n        /* \"#utility.yul\":6622:6635   */\n      add\n      swap6\n        /* \"#utility.yul\":4312:6641   */\n      swap5\n      pop\n      pop\n      pop\n      pop\n      pop\n      jump\t// out\n        /* \"#utility.yul\":7023:9297   */\n    tag_32:\n        /* \"#utility.yul\":8094:8160   */\n      0x3c7465787420783d222d33302220793d22393222202066696c6c3d2200000000\n        /* \"#utility.yul\":8089:8092   */\n      dup2\n        /* \"#utility.yul\":8082:8161   */\n      mstore\n        /* \"#utility.yul\":8064:8067   */\n      0x00\n        /* \"#utility.yul\":8180:8219   */\n      tag_141\n        /* \"#utility.yul\":8215:8217   */\n      0x1c\n        /* \"#utility.yul\":8210:8213   */\n      dup4\n        /* \"#utility.yul\":8206:8218   */\n      add\n        /* \"#utility.yul\":8198:8204   */\n      dup8\n        /* \"#utility.yul\":8180:8219   */\n      tag_83\n      jump\t// in\n    tag_141:\n      mload(0x00)\n      codecopy(0x00, data_e6fe246f9dcee0b298783ca314179e6a4586eb9ee23de4d22ec3b8353f55257a, 0x20)\n      mload(0x00)\n      swap1\n      0x00\n      mstore\n        /* \"#utility.yul\":8235:8237   */\n      dup2\n        /* \"#utility.yul\":8228:8306   */\n      mstore\n        /* \"#utility.yul\":8335:8401   */\n      0x6e6f7370616365223e4c414e452020203a3c2f746578743e0000000000000000\n        /* \"#utility.yul\":8330:8332   */\n      0x20\n        /* \"#utility.yul\":8326:8328   */\n      dup3\n        /* \"#utility.yul\":8322:8333   */\n      add\n        /* \"#utility.yul\":8315:8402   */\n      mstore\n        /* \"#utility.yul\":8431:8497   */\n      0x3c7465787420783d223132302220793d22393222202066696c6c3d2223656366\n        /* \"#utility.yul\":8426:8428   */\n      0x38\n        /* \"#utility.yul\":8422:8424   */\n      dup3\n        /* \"#utility.yul\":8418:8429   */\n      add\n        /* \"#utility.yul\":8411:8498   */\n      mstore\n      mload(0x00)\n      codecopy(0x00, data_774ec03ae407a1d782b5d28c833beee3eea59fdce5e02f3cb7d9e361f2653297, 0x20)\n      mload(0x00)\n      swap1\n      0x00\n      mstore\n        /* \"#utility.yul\":8522:8524   */\n      0x58\n        /* \"#utility.yul\":8518:8520   */\n      dup3\n        /* \"#utility.yul\":8514:8525   */\n      add\n        /* \"#utility.yul\":8507:8594   */\n      mstore\n      mload(0x00)\n      codecopy(0x00, data_1767160dd7e6eb47ecce47975354797c5eb79e6fed43d4da70af5d37e8c33bf1, 0x20)\n      mload(0x00)\n      swap1\n      0x00\n      mstore\n        /* \"#utility.yul\":8618:8621   */\n      0x78\n        /* \"#utility.yul\":8614:8616   */\n      dup3\n        /* \"#utility.yul\":8610:8622   */\n      add\n        /* \"#utility.yul\":8603:8691   */\n      mstore\n        /* \"#utility.yul\":8713:8752   */\n      tag_142\n        /* \"#utility.yul\":8747:8750   */\n      0x96\n        /* \"#utility.yul\":8743:8745   */\n      dup3\n        /* \"#utility.yul\":8739:8751   */\n      add\n        /* \"#utility.yul\":8731:8737   */\n      dup8\n        /* \"#utility.yul\":8713:8752   */\n      tag_83\n      jump\t// in\n    tag_142:\n        /* \"#utility.yul\":8700:8752   */\n      swap1\n      pop\n      shl(0xc9, 0x1e17ba32bc3a1f)\n        /* \"#utility.yul\":8768:8773   */\n      dup2\n        /* \"#utility.yul\":8761:8785   */\n      mstore\n        /* \"#utility.yul\":8816:8882   */\n      0x3c7465787420783d222d33302220793d22313136222066696c6c3d2200000000\n        /* \"#utility.yul\":8812:8813   */\n      0x07\n        /* \"#utility.yul\":8805:8810   */\n      dup3\n        /* \"#utility.yul\":8801:8814   */\n      add\n        /* \"#utility.yul\":8794:8883   */\n      mstore\n        /* \"#utility.yul\":8902:8943   */\n      tag_143\n        /* \"#utility.yul\":8939:8941   */\n      0x23\n        /* \"#utility.yul\":8932:8937   */\n      dup3\n        /* \"#utility.yul\":8928:8942   */\n      add\n        /* \"#utility.yul\":8920:8926   */\n      dup7\n        /* \"#utility.yul\":8902:8943   */\n      tag_83\n      jump\t// in\n    tag_143:\n      mload(0x00)\n      codecopy(0x00, data_e6fe246f9dcee0b298783ca314179e6a4586eb9ee23de4d22ec3b8353f55257a, 0x20)\n      mload(0x00)\n      swap1\n      0x00\n      mstore\n        /* \"#utility.yul\":8952:9030   */\n      dup2\n      mstore\n        /* \"#utility.yul\":9059:9125   */\n      0x6e6f7370616365223e47414d455320203a3c2f746578743e0000000000000000\n        /* \"#utility.yul\":9054:9056   */\n      0x20\n        /* \"#utility.yul\":9046:9057   */\n      dup3\n      add\n        /* \"#utility.yul\":9039:9126   */\n      mstore\n        /* \"#utility.yul\":6723:6789   */\n      0x3c7465787420783d223132302220793d22313136222066696c6c3d2223656366\n        /* \"#utility.yul\":9212:9214   */\n      0x38\n        /* \"#utility.yul\":9204:9215   */\n      dup3\n      add\n        /* \"#utility.yul\":6711:6790   */\n      mstore\n      mload(0x00)\n      codecopy(0x00, data_774ec03ae407a1d782b5d28c833beee3eea59fdce5e02f3cb7d9e361f2653297, 0x20)\n      mload(0x00)\n      swap1\n      0x00\n      mstore\n        /* \"#utility.yul\":6806:6818   */\n      0x58\n      dup3\n      add\n        /* \"#utility.yul\":6799:6887   */\n      mstore\n      mload(0x00)\n      codecopy(0x00, data_1767160dd7e6eb47ecce47975354797c5eb79e6fed43d4da70af5d37e8c33bf1, 0x20)\n      mload(0x00)\n      swap1\n      0x00\n      mstore\n        /* \"#utility.yul\":6903:6915   */\n      0x78\n      dup3\n      add\n        /* \"#utility.yul\":6896:6984   */\n      mstore\n        /* \"#utility.yul\":8892:8943   */\n      swap1\n      pop\n        /* \"#utility.yul\":9148:9217   */\n      tag_144\n        /* \"#utility.yul\":7000:7012   */\n      0x96\n      dup3\n      add\n        /* \"#utility.yul\":9174:9216   */\n    tag_145:\n        /* \"#utility.yul\":9166:9172   */\n      dup6\n        /* \"#utility.yul\":9148:9217   */\n      tag_83\n      jump\t// in\n    tag_144:\n      shl(0xc9, 0x1e17ba32bc3a1f)\n        /* \"#utility.yul\":4207:4229   */\n      dup2\n      mstore\n        /* \"#utility.yul\":9289:9290   */\n      0x07\n        /* \"#utility.yul\":9278:9291   */\n      add\n      swap8\n      swap7\n      pop\n      pop\n      pop\n      pop\n      pop\n      pop\n      pop\n        /* \"#utility.yul\":7023:9297   */\n      jump\t// out\n        /* \"#utility.yul\":9679:11953   */\n    tag_36:\n        /* \"#utility.yul\":10750:10816   */\n      0x3c7465787420783d222d33302220793d22313430222066696c6c3d2200000000\n        /* \"#utility.yul\":10745:10748   */\n      dup2\n        /* \"#utility.yul\":10738:10817   */\n      mstore\n        /* \"#utility.yul\":10720:10723   */\n      0x00\n        /* \"#utility.yul\":10836:10875   */\n      tag_149\n        /* \"#utility.yul\":10871:10873   */\n      0x1c\n        /* \"#utility.yul\":10866:10869   */\n      dup4\n        /* \"#utility.yul\":10862:10874   */\n      add\n        /* \"#utility.yul\":10854:10860   */\n      dup8\n        /* \"#utility.yul\":10836:10875   */\n      tag_83\n      jump\t// in\n    tag_149:\n      mload(0x00)\n      codecopy(0x00, data_e6fe246f9dcee0b298783ca314179e6a4586eb9ee23de4d22ec3b8353f55257a, 0x20)\n      mload(0x00)\n      swap1\n      0x00\n      mstore\n        /* \"#utility.yul\":10891:10893   */\n      dup2\n        /* \"#utility.yul\":10884:10962   */\n      mstore\n        /* \"#utility.yul\":10991:11057   */\n      0x6e6f7370616365223e4b494c4c5320203a3c2f746578743e0000000000000000\n        /* \"#utility.yul\":10986:10988   */\n      0x20\n        /* \"#utility.yul\":10982:10984   */\n      dup3\n        /* \"#utility.yul\":10978:10989   */\n      add\n        /* \"#utility.yul\":10971:11058   */\n      mstore\n        /* \"#utility.yul\":11087:11153   */\n      0x3c7465787420783d223132302220793d22313430222066696c6c3d2223656366\n        /* \"#utility.yul\":11082:11084   */\n      0x38\n        /* \"#utility.yul\":11078:11080   */\n      dup3\n        /* \"#utility.yul\":11074:11085   */\n      add\n        /* \"#utility.yul\":11067:11154   */\n      mstore\n      mload(0x00)\n      codecopy(0x00, data_774ec03ae407a1d782b5d28c833beee3eea59fdce5e02f3cb7d9e361f2653297, 0x20)\n      mload(0x00)\n      swap1\n      0x00\n      mstore\n        /* \"#utility.yul\":11178:11180   */\n      0x58\n        /* \"#utility.yul\":11174:11176   */\n      dup3\n        /* \"#utility.yul\":11170:11181   */\n      add\n        /* \"#utility.yul\":11163:11250   */\n      mstore\n      mload(0x00)\n      codecopy(0x00, data_1767160dd7e6eb47ecce47975354797c5eb79e6fed43d4da70af5d37e8c33bf1, 0x20)\n      mload(0x00)\n      swap1\n      0x00\n      mstore\n        /* \"#utility.yul\":11274:11277   */\n      0x78\n        /* \"#utility.yul\":11270:11272   */\n      dup3\n        /* \"#utility.yul\":11266:11278   */\n      add\n        /* \"#utility.yul\":11259:11347   */\n      mstore\n        /* \"#utility.yul\":11369:11408   */\n      tag_150\n        /* \"#utility.yul\":11403:11406   */\n      0x96\n        /* \"#utility.yul\":11399:11401   */\n      dup3\n        /* \"#utility.yul\":11395:11407   */\n      add\n        /* \"#utility.yul\":11387:11393   */\n      dup8\n        /* \"#utility.yul\":11369:11408   */\n      tag_83\n      jump\t// in\n    tag_150:\n        /* \"#utility.yul\":11356:11408   */\n      swap1\n      pop\n      shl(0xc9, 0x1e17ba32bc3a1f)\n        /* \"#utility.yul\":11424:11429   */\n      dup2\n        /* \"#utility.yul\":11417:11441   */\n      mstore\n        /* \"#utility.yul\":11472:11538   */\n      0x3c7465787420783d222d33302220793d22313634222066696c6c3d2200000000\n        /* \"#utility.yul\":11468:11469   */\n      0x07\n        /* \"#utility.yul\":11461:11466   */\n      dup3\n        /* \"#utility.yul\":11457:11470   */\n      add\n        /* \"#utility.yul\":11450:11539   */\n      mstore\n        /* \"#utility.yul\":11558:11599   */\n      tag_151\n        /* \"#utility.yul\":11595:11597   */\n      0x23\n        /* \"#utility.yul\":11588:11593   */\n      dup3\n        /* \"#utility.yul\":11584:11598   */\n      add\n        /* \"#utility.yul\":11576:11582   */\n      dup7\n        /* \"#utility.yul\":11558:11599   */\n      tag_83\n      jump\t// in\n    tag_151:\n      mload(0x00)\n      codecopy(0x00, data_e6fe246f9dcee0b298783ca314179e6a4586eb9ee23de4d22ec3b8353f55257a, 0x20)\n      mload(0x00)\n      swap1\n      0x00\n      mstore\n        /* \"#utility.yul\":11608:11686   */\n      dup2\n      mstore\n        /* \"#utility.yul\":11715:11781   */\n      0x6e6f7370616365223e444541544853203a3c2f746578743e0000000000000000\n        /* \"#utility.yul\":11710:11712   */\n      0x20\n        /* \"#utility.yul\":11702:11713   */\n      dup3\n      add\n        /* \"#utility.yul\":11695:11782   */\n      mstore\n        /* \"#utility.yul\":9379:9445   */\n      0x3c7465787420783d223132302220793d22313634222066696c6c3d2223656366\n        /* \"#utility.yul\":11868:11870   */\n      0x38\n        /* \"#utility.yul\":11860:11871   */\n      dup3\n      add\n        /* \"#utility.yul\":9367:9446   */\n      mstore\n      mload(0x00)\n      codecopy(0x00, data_774ec03ae407a1d782b5d28c833beee3eea59fdce5e02f3cb7d9e361f2653297, 0x20)\n      mload(0x00)\n      swap1\n      0x00\n      mstore\n        /* \"#utility.yul\":9462:9474   */\n      0x58\n      dup3\n      add\n        /* \"#utility.yul\":9455:9543   */\n      mstore\n      mload(0x00)\n      codecopy(0x00, data_1767160dd7e6eb47ecce47975354797c5eb79e6fed43d4da70af5d37e8c33bf1, 0x20)\n      mload(0x00)\n      swap1\n      0x00\n      mstore\n        /* \"#utility.yul\":9559:9571   */\n      0x78\n      dup3\n      add\n        /* \"#utility.yul\":9552:9640   */\n      mstore\n        /* \"#utility.yul\":11548:11599   */\n      swap1\n      pop\n        /* \"#utility.yul\":11804:11873   */\n      tag_144\n        /* \"#utility.yul\":9656:9668   */\n      0x96\n      dup3\n      add\n        /* \"#utility.yul\":11830:11872   */\n      tag_145\n        /* \"#utility.yul\":9302:9674   */\n      jump\n        /* \"#utility.yul\":12746:15210   */\n    tag_39:\n        /* \"#utility.yul\":13918:13984   */\n      0x3c7465787420783d222d33302220793d22313838222066696c6c3d2200000000\n        /* \"#utility.yul\":13913:13916   */\n      dup2\n        /* \"#utility.yul\":13906:13985   */\n      mstore\n        /* \"#utility.yul\":13888:13891   */\n      0x00\n        /* \"#utility.yul\":14004:14043   */\n      tag_158\n        /* \"#utility.yul\":14039:14041   */\n      0x1c\n        /* \"#utility.yul\":14034:14037   */\n      dup4\n        /* \"#utility.yul\":14030:14042   */\n      add\n        /* \"#utility.yul\":14022:14028   */\n      dup8\n        /* \"#utility.yul\":14004:14043   */\n      tag_83\n      jump\t// in\n    tag_158:\n      mload(0x00)\n      codecopy(0x00, data_e6fe246f9dcee0b298783ca314179e6a4586eb9ee23de4d22ec3b8353f55257a, 0x20)\n      mload(0x00)\n      swap1\n      0x00\n      mstore\n        /* \"#utility.yul\":14059:14061   */\n      dup2\n        /* \"#utility.yul\":14052:14130   */\n      mstore\n        /* \"#utility.yul\":14159:14225   */\n      0x6e6f7370616365223e415353495354533a3c2f746578743e0000000000000000\n        /* \"#utility.yul\":14154:14156   */\n      0x20\n        /* \"#utility.yul\":14150:14152   */\n      dup3\n        /* \"#utility.yul\":14146:14157   */\n      add\n        /* \"#utility.yul\":14139:14226   */\n      mstore\n        /* \"#utility.yul\":14255:14321   */\n      0x3c7465787420783d223132302220793d22313838222066696c6c3d2223656366\n        /* \"#utility.yul\":14250:14252   */\n      0x38\n        /* \"#utility.yul\":14246:14248   */\n      dup3\n        /* \"#utility.yul\":14242:14253   */\n      add\n        /* \"#utility.yul\":14235:14322   */\n      mstore\n      mload(0x00)\n      codecopy(0x00, data_774ec03ae407a1d782b5d28c833beee3eea59fdce5e02f3cb7d9e361f2653297, 0x20)\n      mload(0x00)\n      swap1\n      0x00\n      mstore\n        /* \"#utility.yul\":14346:14348   */\n      0x58\n        /* \"#utility.yul\":14342:14344   */\n      dup3\n        /* \"#utility.yul\":14338:14349   */\n      add\n        /* \"#utility.yul\":14331:14418   */\n      mstore\n      mload(0x00)\n      codecopy(0x00, data_1767160dd7e6eb47ecce47975354797c5eb79e6fed43d4da70af5d37e8c33bf1, 0x20)\n      mload(0x00)\n      swap1\n      0x00\n      mstore\n        /* \"#utility.yul\":14442:14445   */\n      0x78\n        /* \"#utility.yul\":14438:14440   */\n      dup3\n        /* \"#utility.yul\":14434:14446   */\n      add\n        /* \"#utility.yul\":14427:14515   */\n      mstore\n        /* \"#utility.yul\":14537:14576   */\n      tag_159\n        /* \"#utility.yul\":14571:14574   */\n      0x96\n        /* \"#utility.yul\":14567:14569   */\n      dup3\n        /* \"#utility.yul\":14563:14575   */\n      add\n        /* \"#utility.yul\":14555:14561   */\n      dup8\n        /* \"#utility.yul\":14537:14576   */\n      tag_83\n      jump\t// in\n    tag_159:\n        /* \"#utility.yul\":14524:14576   */\n      swap1\n      pop\n      shl(0xc9, 0x1e17ba32bc3a1f)\n        /* \"#utility.yul\":14592:14597   */\n      dup2\n        /* \"#utility.yul\":14585:14609   */\n      mstore\n        /* \"#utility.yul\":14640:14706   */\n      0x3c7465787420783d222d33302220793d22323132222066696c6c3d2200000000\n        /* \"#utility.yul\":14636:14637   */\n      0x07\n        /* \"#utility.yul\":14629:14634   */\n      dup3\n        /* \"#utility.yul\":14625:14638   */\n      add\n        /* \"#utility.yul\":14618:14707   */\n      mstore\n        /* \"#utility.yul\":14729:14770   */\n      tag_160\n        /* \"#utility.yul\":14766:14768   */\n      0x23\n        /* \"#utility.yul\":14759:14764   */\n      dup3\n        /* \"#utility.yul\":14755:14769   */\n      add\n        /* \"#utility.yul\":14747:14753   */\n      dup7\n        /* \"#utility.yul\":14729:14770   */\n      tag_83\n      jump\t// in\n    tag_160:\n      mload(0x00)\n      codecopy(0x00, data_e6fe246f9dcee0b298783ca314179e6a4586eb9ee23de4d22ec3b8353f55257a, 0x20)\n      mload(0x00)\n      swap1\n      0x00\n      mstore\n        /* \"#utility.yul\":14802:14883   */\n      dup2\n      mstore\n        /* \"#utility.yul\":14915:14981   */\n      0x6e6f7370616365223e4b4441202020203a3c2f746578743e0000000000000000\n        /* \"#utility.yul\":14910:14912   */\n      0x20\n        /* \"#utility.yul\":14899:14913   */\n      dup3\n      add\n        /* \"#utility.yul\":14892:14982   */\n      mstore\n        /* \"#utility.yul\":14716:14770   */\n      swap1\n      pop\n        /* \"#utility.yul\":15011:15013   */\n      0x38\n        /* \"#utility.yul\":15000:15014   */\n      dup2\n      add\n        /* \"#utility.yul\":15036:15099   */\n      tag_161\n        /* \"#utility.yul\":15062:15098   */\n      tag_162\n        /* \"#utility.yul\":15000:15014   */\n      dup3\n        /* \"#utility.yul\":12035:12101   */\n      0x3c7465787420783d223132302220793d22323132222066696c6c3d2223656366\n        /* \"#utility.yul\":12023:12102   */\n      dup2\n      mstore\n      mload(0x00)\n      codecopy(0x00, data_774ec03ae407a1d782b5d28c833beee3eea59fdce5e02f3cb7d9e361f2653297, 0x20)\n      mload(0x00)\n      swap1\n      0x00\n      mstore\n        /* \"#utility.yul\":12127:12129   */\n      0x20\n        /* \"#utility.yul\":12118:12130   */\n      dup3\n      add\n        /* \"#utility.yul\":12111:12199   */\n      mstore\n      mload(0x00)\n      codecopy(0x00, data_1767160dd7e6eb47ecce47975354797c5eb79e6fed43d4da70af5d37e8c33bf1, 0x20)\n      mload(0x00)\n      swap1\n      0x00\n      mstore\n        /* \"#utility.yul\":12224:12226   */\n      0x40\n        /* \"#utility.yul\":12215:12227   */\n      dup3\n      add\n        /* \"#utility.yul\":12208:12296   */\n      mstore\n        /* \"#utility.yul\":12321:12323   */\n      0x5e\n        /* \"#utility.yul\":12312:12324   */\n      add\n      swap1\n        /* \"#utility.yul\":11958:12330   */\n      jump\n        /* \"#utility.yul\":15062:15098   */\n    tag_162:\n        /* \"#utility.yul\":15054:15060   */\n      dup7\n        /* \"#utility.yul\":15036:15099   */\n      tag_83\n      jump\t// in\n    tag_161:\n        /* \"#utility.yul\":15023:15099   */\n      swap2\n      pop\n      pop\n        /* \"#utility.yul\":15108:15144   */\n      tag_163\n        /* \"#utility.yul\":15138:15143   */\n      dup2\n      shl(0xc9, 0x1e17ba32bc3a1f)\n        /* \"#utility.yul\":4207:4229   */\n      swap1\n      mstore\n        /* \"#utility.yul\":4157:4231   */\n      jump\n        /* \"#utility.yul\":15108:15144   */\n    tag_163:\n        /* \"#utility.yul\":12412:12478   */\n      0x3c6c696e652078313d222d3330222079313d22323238222078323d2231323022\n        /* \"#utility.yul\":15201:15202   */\n      0x07\n        /* \"#utility.yul\":15190:15203   */\n      dup3\n      add\n        /* \"#utility.yul\":12400:12479   */\n      mstore\n        /* \"#utility.yul\":12509:12575   */\n      0x2079323d2232323822207374726f6b653d222335353522207374726f6b652d77\n        /* \"#utility.yul\":12495:12507   */\n      0x27\n      dup3\n      add\n        /* \"#utility.yul\":12488:12576   */\n      mstore\n        /* \"#utility.yul\":12606:12672   */\n      0x696474683d223322207374726f6b652d6461736861727261793d22382c36222f\n        /* \"#utility.yul\":12592:12604   */\n      0x47\n      dup3\n      add\n        /* \"#utility.yul\":12585:12673   */\n      mstore\n      shl(0xf9, 0x1f)\n        /* \"#utility.yul\":12689:12701   */\n      0x67\n      dup3\n      add\n        /* \"#utility.yul\":12682:12707   */\n      mstore\n        /* \"#utility.yul\":12723:12735   */\n      0x68\n      add\n      swap7\n        /* \"#utility.yul\":15153:15204   */\n      swap6\n      pop\n      pop\n      pop\n      pop\n      pop\n      pop\n        /* \"#utility.yul\":12746:15210   */\n      jump\t// out\n        /* \"#utility.yul\":15215:15557   */\n    tag_41:\n        /* \"#utility.yul\":15442:15445   */\n      0x00\n        /* \"#utility.yul\":15467:15551   */\n      tag_166\n        /* \"#utility.yul\":15493:15550   */\n      tag_167\n        /* \"#utility.yul\":15519:15549   */\n      tag_162\n        /* \"#utility.yul\":15545:15548   */\n      dup5\n        /* \"#utility.yul\":15537:15543   */\n      dup9\n        /* \"#utility.yul\":15519:15549   */\n      tag_83\n      jump\t// in\n        /* \"#utility.yul\":15493:15550   */\n    tag_167:\n        /* \"#utility.yul\":15485:15491   */\n      dup5\n        /* \"#utility.yul\":15467:15551   */\n      tag_83\n      jump\t// in\n    tag_166:\n        /* \"#utility.yul\":15460:15551   */\n      swap6\n        /* \"#utility.yul\":15215:15557   */\n      swap5\n      pop\n      pop\n      pop\n      pop\n      pop\n      jump\t// out\n        /* \"#utility.yul\":15905:17725   */\n    tag_44:\n        /* \"#utility.yul\":16523:16589   */\n      0x3c7265637420783d22302220793d2230222077696474683d2233323022206865\n        /* \"#utility.yul\":16511:16590   */\n      dup2\n      mstore\n        /* \"#utility.yul\":16620:16686   */\n      0x696768743d22343030222066696c6c3d2223306231303165222f3e0000000000\n        /* \"#utility.yul\":16615:16617   */\n      0x20\n        /* \"#utility.yul\":16606:16618   */\n      dup3\n      add\n        /* \"#utility.yul\":16599:16687   */\n      mstore\n        /* \"#utility.yul\":16717:16783   */\n      0x3c7265637420783d22382220793d2238222077696474683d2233303422206865\n        /* \"#utility.yul\":16712:16714   */\n      0x3b\n        /* \"#utility.yul\":16703:16715   */\n      dup3\n      add\n        /* \"#utility.yul\":16696:16784   */\n      dup2\n      swap1\n      mstore\n        /* \"#utility.yul\":16814:16880   */\n      0x696768743d22333834222066696c6c3d2223313431653333222f3e0000000000\n        /* \"#utility.yul\":16809:16811   */\n      0x5b\n        /* \"#utility.yul\":16800:16812   */\n      dup4\n      add\n        /* \"#utility.yul\":16793:16881   */\n      mstore\n        /* \"#utility.yul\":16906:16909   */\n      0x76\n        /* \"#utility.yul\":16897:16910   */\n      dup3\n      add\n        /* \"#utility.yul\":16890:16979   */\n      mstore\n        /* \"#utility.yul\":17010:17076   */\n      0x696768743d22333834222066696c6c3d226e6f6e6522207374726f6b653d2223\n        /* \"#utility.yul\":17004:17007   */\n      0x96\n        /* \"#utility.yul\":16995:17008   */\n      dup3\n      add\n        /* \"#utility.yul\":16988:17077   */\n      mstore\n        /* \"#utility.yul\":17108:17174   */\n      0x30306630666622207374726f6b652d77696474683d22312e35222072783d2232\n        /* \"#utility.yul\":17102:17105   */\n      0xb6\n        /* \"#utility.yul\":17093:17106   */\n      dup3\n      add\n        /* \"#utility.yul\":17086:17175   */\n      mstore\n      shl(0xe9, 0x11179f)\n        /* \"#utility.yul\":17200:17203   */\n      0xd6\n        /* \"#utility.yul\":17191:17204   */\n      dup3\n      add\n        /* \"#utility.yul\":17184:17224   */\n      mstore\n        /* \"#utility.yul\":17255:17321   */\n      0x3c7465787420783d223136302220793d223336222066696c6c3d222330306630\n        /* \"#utility.yul\":17249:17252   */\n      0xd9\n        /* \"#utility.yul\":17240:17253   */\n      dup3\n      add\n        /* \"#utility.yul\":17233:17322   */\n      mstore\n        /* \"#utility.yul\":17353:17419   */\n      0x66662220666f6e742d73697a653d2231362220746578742d616e63686f723d22\n        /* \"#utility.yul\":17347:17350   */\n      0xf9\n        /* \"#utility.yul\":17338:17351   */\n      dup3\n      add\n        /* \"#utility.yul\":17331:17420   */\n      mstore\n        /* \"#utility.yul\":17451:17517   */\n      0x6d6964646c652220666f6e742d7765696768743d22626f6c642220666f6e742d\n        /* \"#utility.yul\":17445:17448   */\n      0x0119\n        /* \"#utility.yul\":17436:17449   */\n      dup3\n      add\n        /* \"#utility.yul\":17429:17518   */\n      mstore\n        /* \"#utility.yul\":17549:17615   */\n      0x66616d696c793d226d6f6e6f7370616365223e4d504c20504c41594552204341\n        /* \"#utility.yul\":17543:17546   */\n      0x0139\n        /* \"#utility.yul\":17534:17547   */\n      dup3\n      add\n        /* \"#utility.yul\":17527:17616   */\n      mstore\n      shl(0xb9, 0x29221e17ba32bc3a1f)\n        /* \"#utility.yul\":17641:17644   */\n      0x0159\n        /* \"#utility.yul\":17632:17645   */\n      dup3\n      add\n        /* \"#utility.yul\":17625:17659   */\n      mstore\n        /* \"#utility.yul\":15639:15705   */\n      0x3c6c696e652078313d223230222079313d223530222078323d22333030222079\n        /* \"#utility.yul\":17714:17717   */\n      0x0162\n        /* \"#utility.yul\":17705:17718   */\n      dup3\n      add\n        /* \"#utility.yul\":15627:15706   */\n      mstore\n        /* \"#utility.yul\":15736:15802   */\n      0x323d22353022207374726f6b653d222330306630666622207374726f6b652d77\n        /* \"#utility.yul\":15722:15734   */\n      0x0182\n      dup3\n      add\n        /* \"#utility.yul\":15715:15803   */\n      mstore\n      shl(0xb1, 0x34b23a341e911911179f)\n        /* \"#utility.yul\":15819:15831   */\n      0x01a2\n      dup3\n      add\n        /* \"#utility.yul\":15812:15866   */\n      mstore\n      0x00\n        /* \"#utility.yul\":15882:15894   */\n      0x01ac\n      dup3\n      add\n        /* \"#utility.yul\":17675:17719   */\n      tag_78\n        /* \"#utility.yul\":15562:15900   */\n      jump\n    stop\n    data_1767160dd7e6eb47ecce47975354797c5eb79e6fed43d4da70af5d37e8c33bf1 22656e642220666f6e742d66616d696c793d226d6f6e6f7370616365223e0000\n    data_774ec03ae407a1d782b5d28c833beee3eea59fdce5e02f3cb7d9e361f2653297 3066312220666f6e742d73697a653d2231332220746578742d616e63686f723d\n    data_e6fe246f9dcee0b298783ca314179e6a4586eb9ee23de4d22ec3b8353f55257a 2220666f6e742d73697a653d2231332220666f6e742d66616d696c793d226d6f\n    data_f6a221b9c27ad5ad19c881255f24cda3c72a751e5f17ceda563cf12c5d6df94a 3c73766720783d2231302220793d223330222077696474683d2231343022206865696768743d22333830222076696577426f783d22302030203332203332222073686170652d72656e646572696e673d2263726973704564676573223e3c67207472616e73666f726d3d227472616e736c6174652833322c203029207363616c65282d312c203129223e3c706174682066696c6c3d22233030303030302220643d224d3131203268313076314831317a204d3920336832763148397a204d32312033683276314832317a204d3820346831763148387a204d32332034683176314832337a204d3820356831763148387a204d32342035683176314832347a204d3820366831763148387a204d32342036683176314832347a204d3820376831763148387a204d32342037683176314832347a204d3820386831763148387a204d32342038683176314832347a204d3920396831763148397a204d32342039683176314832347a204d392031306831763148397a204d3233203130683176314832337a204d392031316831763148397a204d3132203131683276314831327a204d3138203131683276314831387a204d3233203131683176314832337a204d392031326831763148397a204d3233203132683176314832337a204d3130203133683176314831307a204d3232203133683176314832327a204d3130203134683176314831307a204d3232203134683176314832327a204d3130203135683176314831307a204d3232203135683176314832327a204d3131203136683176314831317a204d3231203136683176314832317a204d3131203137683176314831317a204d3231203137683176314832317a204d3132203138683176314831327a204d3230203138683176314832307a204d3132203139683176314831327a204d3230203139683176314832307a204d3131203230683176314831317a204d3231203230683176314832317a204d392032316832763148397a204d3232203231683276314832327a204d372032326832763148377a204d3234203232683276314832347a204d362032336831763148367a204d3236203233683176314832367a204d352032346831763148357a204d3237203234683176314832377a204d342032356831763148347a204d3238203235683176314832387a204d332032366831763148337a204d3239203236683176314832397a204d332032376831763148337a204d3239203237683176314832397a204d332032386831763148337a204d3239203238683176314832397a204d332032396831763148337a204d3239203239683176314832397a204d332033306831763148337a204d3239203330683176314832397a204d33203331683237763148337a22202f3e3c706174682066696c6c3d22233030303030302220643d224d3131203368313076314831317a204d392034683134763148397a204d392035683135763148397a204d392036683135763148397a204d392037683135763148397a204d3920386833763148397a204d32302038683476314832307a204d31302039683276314831307a204d32322039683276314832327a204d3130203130683176314831307a204d3232203130683176314832327a22202f3e3c706174682066696c6c3d22236534623539302220643d224d31322038683876314831327a204d3132203968313076314831327a204d313120313068313176314831317a204d3130203131683276314831307a204d3134203131683476314831347a204d3230203131683376314832307a204d313020313268313376314831307a204d3131203133683476314831317a204d3137203133683576314831377a204d313120313468313176314831317a204d3131203135683376314831317a204d3138203135683476314831387a204d3132203136683976314831327a204d3132203137683976314831327a204d3133203138683776314831337a22202f3e3c706174682066696c6c3d22236335393437332220643d224d3135203133683276314831357a204d3133203139683776314831337a204d3134203230683576314831347a22202f3e3c706174682066696c6c3d22236264366134662220643d224d3134203135683476314831347a22202f3e3c706174682066696c6c3d22236666666666662220643d224d3132203230683276314831327a204d3139203230683276314831397a204d3131203231683376314831317a204d3139203231683376314831397a204d392032326834763148397a204d3230203232683476314832307a204d372032336835763148377a204d3231203233683576314832317a204d362032346835763148367a204d3232203234683576314832327a204d352032356835763148357a204d3133203235683276314831337a204d3136203235683276314831367a204d3139203235683276314831397a204d3233203235683576314832337a204d342032366835763148347a204d3234203236683576314832347a204d342032376834763148347a204d3235203237683476314832357a204d342032386834763148347a204d3235203238683476314832357a204d342032396834763148347a204d3235203239683476314832357a204d362033306832763148367a204d3235203330683276314832357a22202f3e3c706174682066696c6c3d22236566383131352220643d224d3134203231683576314831347a204d3133203232683776314831337a204d3132203233683976314831327a204d313120323468313176314831317a204d3130203235683376314831307a204d3135203235683176314831357a204d3138203235683176314831387a204d3231203235683276314832317a204d39203236683135763148397a204d38203237683137763148387a204d38203238683137763148387a204d38203239683137763148387a204d342033306832763148347a204d38203330683137763148387a204d3237203330683276314832377a22202f3e3c2f673e3c2f7376673e\n\n    auxdata: 0xa26469706673582212206c94bdffdf753da72142178e4a84fbb1d3b12b371ac498113adfbfaf0202d7fc64736f6c634300081e0033\n}\n",
				"bytecode": {
					"linkReferences": {},
					"object": "6080604052348015600e575f5ffd5b506119288061001c5f395ff3fe608060405234801561000f575f5ffd5b506004361061004a575f3560e01c80630f02ed111461004e5780634deea5ab14610077578063c440354f1461008a578063fe22a5dc14610092575b5f5ffd5b61006161005c36600461053b565b61009a565b60405161006e919061059e565b60405180910390f35b6100616100853660046105d3565b6100f5565b6100616101fa565b61006161021f565b60408051808201909152600781526611999a1c9c323160c91b602082015282516060919081906100cb8686846100f5565b6040516020016100dd93929190610675565b60405160208183030381529060405291505092915050565b60605f8285602001518461011588604001516001600160401b0316610242565b6040516020016101289493929190610856565b60405160208183030381529060405290505f8361015187606001516001600160401b0316610242565b8561016889608001516001600160401b0316610242565b60405160200161017b9493929190610a05565b60405160208183030381529060405290505f846101a48860a001516001600160401b0316610242565b86886040516020016101b99493929190610b97565b60405160208183030381529060405290508282826040516020016101df93929190610dd0565b60405160208183030381529060405293505050509392505050565b606060405160200161020b90610df0565b604051602081830303815290604052905090565b6060604051806108c00160405280610894815260200161105f6108949139905090565b60605f61024e836102d1565b60010190505f816001600160401b0381111561026c5761026c6103a9565b6040519080825280601f01601f191660200182016040528015610296576020820181803683370190505b5090508181016020015b5f19016f181899199a1a9b1b9c1cb0b131b232b360811b600a86061a8153600a85049450846102a057509392505050565b5f8072184f03e93ff9f4daa797ed6e38ed64bf6a1f0160401b831061030f5772184f03e93ff9f4daa797ed6e38ed64bf6a1f0160401b830492506040015b6d04ee2d6d415b85acef8100000000831061033b576d04ee2d6d415b85acef8100000000830492506020015b662386f26fc10000831061035957662386f26fc10000830492506010015b6305f5e1008310610371576305f5e100830492506008015b612710831061038557612710830492506004015b60648310610397576064830492506002015b600a83106103a3576001015b92915050565b634e487b7160e01b5f52604160045260245ffd5b60405160c081016001600160401b03811182821017156103df576103df6103a9565b60405290565b5f82601f8301126103f4575f5ffd5b81356001600160401b0381111561040d5761040d6103a9565b604051601f8201601f19908116603f011681016001600160401b038111828210171561043b5761043b6103a9565b604052818152838201602001851015610452575f5ffd5b816020850160208301375f918101602001919091529392505050565b80356001600160401b0381168114610484575f5ffd5b919050565b5f60c08284031215610499575f5ffd5b6104a16103bd565b905081356001600160401b038111156104b8575f5ffd5b6104c4848285016103e5565b82525060208201356001600160401b038111156104df575f5ffd5b6104eb848285016103e5565b6020830152506104fd6040830161046e565b604082015261050e6060830161046e565b606082015261051f6080830161046e565b608082015261053060a0830161046e565b60a082015292915050565b5f5f6040838503121561054c575f5ffd5b82356001600160401b03811115610561575f5ffd5b61056d85828601610489565b92505060208301356001600160401b03811115610588575f5ffd5b610594858286016103e5565b9150509250929050565b602081525f82518060208401528060208501604085015e5f604082850101526040601f19601f83011684010191505092915050565b5f5f5f606084860312156105e5575f5ffd5b83356001600160401b038111156105fa575f5ffd5b61060686828701610489565b93505060208401356001600160401b03811115610621575f5ffd5b61062d868287016103e5565b92505060408401356001600160401b03811115610648575f5ffd5b610654868287016103e5565b9150509250925092565b5f81518060208401855e5f93019283525090919050565b7f3c67207472616e73666f726d3d227472616e736c617465283138302c2039352981527f222073686170652d72656e646572696e673d2263726973704564676573223e0060208201527f3c7465787420783d222d33302220793d223230222066696c6c3d220000000000603f8201525f6106f2605a83018661065e565b5f51602061103f5f395f51905f5281527f6e6f7370616365223e504c41594552204e414d453a3c2f746578743e0000000060208201527f3c7465787420783d222d33302220793d223436222066696c6c3d222365636630603c8201527f66312220666f6e742d73697a653d2232302220666f6e742d7765696768743d22605c8201527f626f6c642220666f6e742d66616d696c793d226d6f6e6f7370616365223e0000607c8201526107a7609a82018661065e565b661e17ba32bc3a1f60c91b81527f3c6c696e652078313d222d3235222079313d223638222078323d223132302220600782019081527f79323d22363822207374726f6b653d222335353522207374726f6b652d77696460278301527f74683d223322207374726f6b652d6461736861727261793d22382c36222f3e0060478301529150606601610837818661065e565b91505061084a81631e17b39f60e11b9052565b60040195945050505050565b7f3c7465787420783d222d33302220793d22393222202066696c6c3d220000000081525f610887601c83018761065e565b5f51602061103f5f395f51905f5281527f6e6f7370616365223e4c414e452020203a3c2f746578743e000000000000000060208201527f3c7465787420783d223132302220793d22393222202066696c6c3d222365636660388201525f51602061101f5f395f51905f5260588201525f516020610fff5f395f51905f526078820152610916609682018761065e565b9050661e17ba32bc3a1f60c91b81527f3c7465787420783d222d33302220793d22313136222066696c6c3d22000000006007820152610958602382018661065e565b5f51602061103f5f395f51905f5281527f6e6f7370616365223e47414d455320203a3c2f746578743e000000000000000060208201527f3c7465787420783d223132302220793d22313136222066696c6c3d222365636660388201525f51602061101f5f395f51905f5260588201525f516020610fff5f395f51905f52607882015290506109ea609682015b8561065e565b661e17ba32bc3a1f60c91b8152600701979650505050505050565b7f3c7465787420783d222d33302220793d22313430222066696c6c3d220000000081525f610a36601c83018761065e565b5f51602061103f5f395f51905f5281527f6e6f7370616365223e4b494c4c5320203a3c2f746578743e000000000000000060208201527f3c7465787420783d223132302220793d22313430222066696c6c3d222365636660388201525f51602061101f5f395f51905f5260588201525f516020610fff5f395f51905f526078820152610ac5609682018761065e565b9050661e17ba32bc3a1f60c91b81527f3c7465787420783d222d33302220793d22313634222066696c6c3d22000000006007820152610b07602382018661065e565b5f51602061103f5f395f51905f5281527f6e6f7370616365223e444541544853203a3c2f746578743e000000000000000060208201527f3c7465787420783d223132302220793d22313634222066696c6c3d222365636660388201525f51602061101f5f395f51905f5260588201525f516020610fff5f395f51905f52607882015290506109ea609682016109e4565b7f3c7465787420783d222d33302220793d22313838222066696c6c3d220000000081525f610bc8601c83018761065e565b5f51602061103f5f395f51905f5281527f6e6f7370616365223e415353495354533a3c2f746578743e000000000000000060208201527f3c7465787420783d223132302220793d22313838222066696c6c3d222365636660388201525f51602061101f5f395f51905f5260588201525f516020610fff5f395f51905f526078820152610c57609682018761065e565b9050661e17ba32bc3a1f60c91b81527f3c7465787420783d222d33302220793d22323132222066696c6c3d22000000006007820152610c99602382018661065e565b5f51602061103f5f395f51905f5281527f6e6f7370616365223e4b4441202020203a3c2f746578743e00000000000000006020820152905060388101610d31610d2b827f3c7465787420783d223132302220793d22323132222066696c6c3d222365636681525f51602061101f5f395f51905f5260208201525f516020610fff5f395f51905f526040820152605e0190565b8661065e565b915050610d4781661e17ba32bc3a1f60c91b9052565b7f3c6c696e652078313d222d3330222079313d22323238222078323d223132302260078201527f2079323d2232323822207374726f6b653d222335353522207374726f6b652d7760278201527f696474683d223322207374726f6b652d6461736861727261793d22382c36222f6047820152601f60f91b60678201526068019695505050505050565b5f610de7610de1610d2b848861065e565b8461065e565b95945050505050565b7f3c7265637420783d22302220793d2230222077696474683d223332302220686581527f696768743d22343030222066696c6c3d2223306231303165222f3e000000000060208201527f3c7265637420783d22382220793d2238222077696474683d2233303422206865603b82018190527f696768743d22333834222066696c6c3d2223313431653333222f3e0000000000605b83015260768201527f696768743d22333834222066696c6c3d226e6f6e6522207374726f6b653d222360968201527f30306630666622207374726f6b652d77696474683d22312e35222072783d223260b68201526211179f60e91b60d68201527f3c7465787420783d223136302220793d223336222066696c6c3d22233030663060d98201527f66662220666f6e742d73697a653d2231362220746578742d616e63686f723d2260f98201527f6d6964646c652220666f6e742d7765696768743d22626f6c642220666f6e742d6101198201527f66616d696c793d226d6f6e6f7370616365223e4d504c20504c415945522043416101398201526829221e17ba32bc3a1f60b91b6101598201527f3c6c696e652078313d223230222079313d223530222078323d223330302220796101628201527f323d22353022207374726f6b653d222330306630666622207374726f6b652d776101828201526934b23a341e911911179f60b11b6101a28201525f6101ac82016103a356fe22656e642220666f6e742d66616d696c793d226d6f6e6f7370616365223e00003066312220666f6e742d73697a653d2231332220746578742d616e63686f723d2220666f6e742d73697a653d2231332220666f6e742d66616d696c793d226d6f3c73766720783d2231302220793d223330222077696474683d2231343022206865696768743d22333830222076696577426f783d22302030203332203332222073686170652d72656e646572696e673d2263726973704564676573223e3c67207472616e73666f726d3d227472616e736c6174652833322c203029207363616c65282d312c203129223e3c706174682066696c6c3d22233030303030302220643d224d3131203268313076314831317a204d3920336832763148397a204d32312033683276314832317a204d3820346831763148387a204d32332034683176314832337a204d3820356831763148387a204d32342035683176314832347a204d3820366831763148387a204d32342036683176314832347a204d3820376831763148387a204d32342037683176314832347a204d3820386831763148387a204d32342038683176314832347a204d3920396831763148397a204d32342039683176314832347a204d392031306831763148397a204d3233203130683176314832337a204d392031316831763148397a204d3132203131683276314831327a204d3138203131683276314831387a204d3233203131683176314832337a204d392031326831763148397a204d3233203132683176314832337a204d3130203133683176314831307a204d3232203133683176314832327a204d3130203134683176314831307a204d3232203134683176314832327a204d3130203135683176314831307a204d3232203135683176314832327a204d3131203136683176314831317a204d3231203136683176314832317a204d3131203137683176314831317a204d3231203137683176314832317a204d3132203138683176314831327a204d3230203138683176314832307a204d3132203139683176314831327a204d3230203139683176314832307a204d3131203230683176314831317a204d3231203230683176314832317a204d392032316832763148397a204d3232203231683276314832327a204d372032326832763148377a204d3234203232683276314832347a204d362032336831763148367a204d3236203233683176314832367a204d352032346831763148357a204d3237203234683176314832377a204d342032356831763148347a204d3238203235683176314832387a204d332032366831763148337a204d3239203236683176314832397a204d332032376831763148337a204d3239203237683176314832397a204d332032386831763148337a204d3239203238683176314832397a204d332032396831763148337a204d3239203239683176314832397a204d332033306831763148337a204d3239203330683176314832397a204d33203331683237763148337a22202f3e3c706174682066696c6c3d22233030303030302220643d224d3131203368313076314831317a204d392034683134763148397a204d392035683135763148397a204d392036683135763148397a204d392037683135763148397a204d3920386833763148397a204d32302038683476314832307a204d31302039683276314831307a204d32322039683276314832327a204d3130203130683176314831307a204d3232203130683176314832327a22202f3e3c706174682066696c6c3d22236534623539302220643d224d31322038683876314831327a204d3132203968313076314831327a204d313120313068313176314831317a204d3130203131683276314831307a204d3134203131683476314831347a204d3230203131683376314832307a204d313020313268313376314831307a204d3131203133683476314831317a204d3137203133683576314831377a204d313120313468313176314831317a204d3131203135683376314831317a204d3138203135683476314831387a204d3132203136683976314831327a204d3132203137683976314831327a204d3133203138683776314831337a22202f3e3c706174682066696c6c3d22236335393437332220643d224d3135203133683276314831357a204d3133203139683776314831337a204d3134203230683576314831347a22202f3e3c706174682066696c6c3d22236264366134662220643d224d3134203135683476314831347a22202f3e3c706174682066696c6c3d22236666666666662220643d224d3132203230683276314831327a204d3139203230683276314831397a204d3131203231683376314831317a204d3139203231683376314831397a204d392032326834763148397a204d3230203232683476314832307a204d372032336835763148377a204d3231203233683576314832317a204d362032346835763148367a204d3232203234683576314832327a204d352032356835763148357a204d3133203235683276314831337a204d3136203235683276314831367a204d3139203235683276314831397a204d3233203235683576314832337a204d342032366835763148347a204d3234203236683576314832347a204d342032376834763148347a204d3235203237683476314832357a204d342032386834763148347a204d3235203238683476314832357a204d342032396834763148347a204d3235203239683476314832357a204d362033306832763148367a204d3235203330683276314832357a22202f3e3c706174682066696c6c3d22236566383131352220643d224d3134203231683576314831347a204d3133203232683776314831337a204d3132203233683976314831327a204d313120323468313176314831317a204d3130203235683376314831307a204d3135203235683176314831357a204d3138203235683176314831387a204d3231203235683276314832317a204d39203236683135763148397a204d38203237683137763148387a204d38203238683137763148387a204d38203239683137763148387a204d342033306832763148347a204d38203330683137763148387a204d3237203330683276314832377a22202f3e3c2f673e3c2f7376673ea26469706673582212206c94bdffdf753da72142178e4a84fbb1d3b12b371ac498113adfbfaf0202d7fc64736f6c634300081e0033",
					"opcodes": "PUSH1 0x80 PUSH1 0x40 MSTORE CALLVALUE DUP1 ISZERO PUSH1 0xE JUMPI PUSH0 PUSH0 REVERT JUMPDEST POP PUSH2 0x1928 DUP1 PUSH2 0x1C PUSH0 CODECOPY PUSH0 RETURN INVALID PUSH1 0x80 PUSH1 0x40 MSTORE CALLVALUE DUP1 ISZERO PUSH2 0xF JUMPI PUSH0 PUSH0 REVERT JUMPDEST POP PUSH1 0x4 CALLDATASIZE LT PUSH2 0x4A JUMPI PUSH0 CALLDATALOAD PUSH1 0xE0 SHR DUP1 PUSH4 0xF02ED11 EQ PUSH2 0x4E JUMPI DUP1 PUSH4 0x4DEEA5AB EQ PUSH2 0x77 JUMPI DUP1 PUSH4 0xC440354F EQ PUSH2 0x8A JUMPI DUP1 PUSH4 0xFE22A5DC EQ PUSH2 0x92 JUMPI JUMPDEST PUSH0 PUSH0 REVERT JUMPDEST PUSH2 0x61 PUSH2 0x5C CALLDATASIZE PUSH1 0x4 PUSH2 0x53B JUMP JUMPDEST PUSH2 0x9A JUMP JUMPDEST PUSH1 0x40 MLOAD PUSH2 0x6E SWAP2 SWAP1 PUSH2 0x59E JUMP JUMPDEST PUSH1 0x40 MLOAD DUP1 SWAP2 SUB SWAP1 RETURN JUMPDEST PUSH2 0x61 PUSH2 0x85 CALLDATASIZE PUSH1 0x4 PUSH2 0x5D3 JUMP JUMPDEST PUSH2 0xF5 JUMP JUMPDEST PUSH2 0x61 PUSH2 0x1FA JUMP JUMPDEST PUSH2 0x61 PUSH2 0x21F JUMP JUMPDEST PUSH1 0x40 DUP1 MLOAD DUP1 DUP3 ADD SWAP1 SWAP2 MSTORE PUSH1 0x7 DUP2 MSTORE PUSH7 0x11999A1C9C3231 PUSH1 0xC9 SHL PUSH1 0x20 DUP3 ADD MSTORE DUP3 MLOAD PUSH1 0x60 SWAP2 SWAP1 DUP2 SWAP1 PUSH2 0xCB DUP7 DUP7 DUP5 PUSH2 0xF5 JUMP JUMPDEST PUSH1 0x40 MLOAD PUSH1 0x20 ADD PUSH2 0xDD SWAP4 SWAP3 SWAP2 SWAP1 PUSH2 0x675 JUMP JUMPDEST PUSH1 0x40 MLOAD PUSH1 0x20 DUP2 DUP4 SUB SUB DUP2 MSTORE SWAP1 PUSH1 0x40 MSTORE SWAP2 POP POP SWAP3 SWAP2 POP POP JUMP JUMPDEST PUSH1 0x60 PUSH0 DUP3 DUP6 PUSH1 0x20 ADD MLOAD DUP5 PUSH2 0x115 DUP9 PUSH1 0x40 ADD MLOAD PUSH1 0x1 PUSH1 0x1 PUSH1 0x40 SHL SUB AND PUSH2 0x242 JUMP JUMPDEST PUSH1 0x40 MLOAD PUSH1 0x20 ADD PUSH2 0x128 SWAP5 SWAP4 SWAP3 SWAP2 SWAP1 PUSH2 0x856 JUMP JUMPDEST PUSH1 0x40 MLOAD PUSH1 0x20 DUP2 DUP4 SUB SUB DUP2 MSTORE SWAP1 PUSH1 0x40 MSTORE SWAP1 POP PUSH0 DUP4 PUSH2 0x151 DUP8 PUSH1 0x60 ADD MLOAD PUSH1 0x1 PUSH1 0x1 PUSH1 0x40 SHL SUB AND PUSH2 0x242 JUMP JUMPDEST DUP6 PUSH2 0x168 DUP10 PUSH1 0x80 ADD MLOAD PUSH1 0x1 PUSH1 0x1 PUSH1 0x40 SHL SUB AND PUSH2 0x242 JUMP JUMPDEST PUSH1 0x40 MLOAD PUSH1 0x20 ADD PUSH2 0x17B SWAP5 SWAP4 SWAP3 SWAP2 SWAP1 PUSH2 0xA05 JUMP JUMPDEST PUSH1 0x40 MLOAD PUSH1 0x20 DUP2 DUP4 SUB SUB DUP2 MSTORE SWAP1 PUSH1 0x40 MSTORE SWAP1 POP PUSH0 DUP5 PUSH2 0x1A4 DUP9 PUSH1 0xA0 ADD MLOAD PUSH1 0x1 PUSH1 0x1 PUSH1 0x40 SHL SUB AND PUSH2 0x242 JUMP JUMPDEST DUP7 DUP9 PUSH1 0x40 MLOAD PUSH1 0x20 ADD PUSH2 0x1B9 SWAP5 SWAP4 SWAP3 SWAP2 SWAP1 PUSH2 0xB97 JUMP JUMPDEST PUSH1 0x40 MLOAD PUSH1 0x20 DUP2 DUP4 SUB SUB DUP2 MSTORE SWAP1 PUSH1 0x40 MSTORE SWAP1 POP DUP3 DUP3 DUP3 PUSH1 0x40 MLOAD PUSH1 0x20 ADD PUSH2 0x1DF SWAP4 SWAP3 SWAP2 SWAP1 PUSH2 0xDD0 JUMP JUMPDEST PUSH1 0x40 MLOAD PUSH1 0x20 DUP2 DUP4 SUB SUB DUP2 MSTORE SWAP1 PUSH1 0x40 MSTORE SWAP4 POP POP POP POP SWAP4 SWAP3 POP POP POP JUMP JUMPDEST PUSH1 0x60 PUSH1 0x40 MLOAD PUSH1 0x20 ADD PUSH2 0x20B SWAP1 PUSH2 0xDF0 JUMP JUMPDEST PUSH1 0x40 MLOAD PUSH1 0x20 DUP2 DUP4 SUB SUB DUP2 MSTORE SWAP1 PUSH1 0x40 MSTORE SWAP1 POP SWAP1 JUMP JUMPDEST PUSH1 0x60 PUSH1 0x40 MLOAD DUP1 PUSH2 0x8C0 ADD PUSH1 0x40 MSTORE DUP1 PUSH2 0x894 DUP2 MSTORE PUSH1 0x20 ADD PUSH2 0x105F PUSH2 0x894 SWAP2 CODECOPY SWAP1 POP SWAP1 JUMP JUMPDEST PUSH1 0x60 PUSH0 PUSH2 0x24E DUP4 PUSH2 0x2D1 JUMP JUMPDEST PUSH1 0x1 ADD SWAP1 POP PUSH0 DUP2 PUSH1 0x1 PUSH1 0x1 PUSH1 0x40 SHL SUB DUP2 GT ISZERO PUSH2 0x26C JUMPI PUSH2 0x26C PUSH2 0x3A9 JUMP JUMPDEST PUSH1 0x40 MLOAD SWAP1 DUP1 DUP3 MSTORE DUP1 PUSH1 0x1F ADD PUSH1 0x1F NOT AND PUSH1 0x20 ADD DUP3 ADD PUSH1 0x40 MSTORE DUP1 ISZERO PUSH2 0x296 JUMPI PUSH1 0x20 DUP3 ADD DUP2 DUP1 CALLDATASIZE DUP4 CALLDATACOPY ADD SWAP1 POP JUMPDEST POP SWAP1 POP DUP2 DUP2 ADD PUSH1 0x20 ADD JUMPDEST PUSH0 NOT ADD PUSH16 0x181899199A1A9B1B9C1CB0B131B232B3 PUSH1 0x81 SHL PUSH1 0xA DUP7 MOD BYTE DUP2 MSTORE8 PUSH1 0xA DUP6 DIV SWAP5 POP DUP5 PUSH2 0x2A0 JUMPI POP SWAP4 SWAP3 POP POP POP JUMP JUMPDEST PUSH0 DUP1 PUSH19 0x184F03E93FF9F4DAA797ED6E38ED64BF6A1F01 PUSH1 0x40 SHL DUP4 LT PUSH2 0x30F JUMPI PUSH19 0x184F03E93FF9F4DAA797ED6E38ED64BF6A1F01 PUSH1 0x40 SHL DUP4 DIV SWAP3 POP PUSH1 0x40 ADD JUMPDEST PUSH14 0x4EE2D6D415B85ACEF8100000000 DUP4 LT PUSH2 0x33B JUMPI PUSH14 0x4EE2D6D415B85ACEF8100000000 DUP4 DIV SWAP3 POP PUSH1 0x20 ADD JUMPDEST PUSH7 0x2386F26FC10000 DUP4 LT PUSH2 0x359 JUMPI PUSH7 0x2386F26FC10000 DUP4 DIV SWAP3 POP PUSH1 0x10 ADD JUMPDEST PUSH4 0x5F5E100 DUP4 LT PUSH2 0x371 JUMPI PUSH4 0x5F5E100 DUP4 DIV SWAP3 POP PUSH1 0x8 ADD JUMPDEST PUSH2 0x2710 DUP4 LT PUSH2 0x385 JUMPI PUSH2 0x2710 DUP4 DIV SWAP3 POP PUSH1 0x4 ADD JUMPDEST PUSH1 0x64 DUP4 LT PUSH2 0x397 JUMPI PUSH1 0x64 DUP4 DIV SWAP3 POP PUSH1 0x2 ADD JUMPDEST PUSH1 0xA DUP4 LT PUSH2 0x3A3 JUMPI PUSH1 0x1 ADD JUMPDEST SWAP3 SWAP2 POP POP JUMP JUMPDEST PUSH4 0x4E487B71 PUSH1 0xE0 SHL PUSH0 MSTORE PUSH1 0x41 PUSH1 0x4 MSTORE PUSH1 0x24 PUSH0 REVERT JUMPDEST PUSH1 0x40 MLOAD PUSH1 0xC0 DUP2 ADD PUSH1 0x1 PUSH1 0x1 PUSH1 0x40 SHL SUB DUP2 GT DUP3 DUP3 LT OR ISZERO PUSH2 0x3DF JUMPI PUSH2 0x3DF PUSH2 0x3A9 JUMP JUMPDEST PUSH1 0x40 MSTORE SWAP1 JUMP JUMPDEST PUSH0 DUP3 PUSH1 0x1F DUP4 ADD SLT PUSH2 0x3F4 JUMPI PUSH0 PUSH0 REVERT JUMPDEST DUP2 CALLDATALOAD PUSH1 0x1 PUSH1 0x1 PUSH1 0x40 SHL SUB DUP2 GT ISZERO PUSH2 0x40D JUMPI PUSH2 0x40D PUSH2 0x3A9 JUMP JUMPDEST PUSH1 0x40 MLOAD PUSH1 0x1F DUP3 ADD PUSH1 0x1F NOT SWAP1 DUP2 AND PUSH1 0x3F ADD AND DUP2 ADD PUSH1 0x1 PUSH1 0x1 PUSH1 0x40 SHL SUB DUP2 GT DUP3 DUP3 LT OR ISZERO PUSH2 0x43B JUMPI PUSH2 0x43B PUSH2 0x3A9 JUMP JUMPDEST PUSH1 0x40 MSTORE DUP2 DUP2 MSTORE DUP4 DUP3 ADD PUSH1 0x20 ADD DUP6 LT ISZERO PUSH2 0x452 JUMPI PUSH0 PUSH0 REVERT JUMPDEST DUP2 PUSH1 0x20 DUP6 ADD PUSH1 0x20 DUP4 ADD CALLDATACOPY PUSH0 SWAP2 DUP2 ADD PUSH1 0x20 ADD SWAP2 SWAP1 SWAP2 MSTORE SWAP4 SWAP3 POP POP POP JUMP JUMPDEST DUP1 CALLDATALOAD PUSH1 0x1 PUSH1 0x1 PUSH1 0x40 SHL SUB DUP2 AND DUP2 EQ PUSH2 0x484 JUMPI PUSH0 PUSH0 REVERT JUMPDEST SWAP2 SWAP1 POP JUMP JUMPDEST PUSH0 PUSH1 0xC0 DUP3 DUP5 SUB SLT ISZERO PUSH2 0x499 JUMPI PUSH0 PUSH0 REVERT JUMPDEST PUSH2 0x4A1 PUSH2 0x3BD JUMP JUMPDEST SWAP1 POP DUP2 CALLDATALOAD PUSH1 0x1 PUSH1 0x1 PUSH1 0x40 SHL SUB DUP2 GT ISZERO PUSH2 0x4B8 JUMPI PUSH0 PUSH0 REVERT JUMPDEST PUSH2 0x4C4 DUP5 DUP3 DUP6 ADD PUSH2 0x3E5 JUMP JUMPDEST DUP3 MSTORE POP PUSH1 0x20 DUP3 ADD CALLDATALOAD PUSH1 0x1 PUSH1 0x1 PUSH1 0x40 SHL SUB DUP2 GT ISZERO PUSH2 0x4DF JUMPI PUSH0 PUSH0 REVERT JUMPDEST PUSH2 0x4EB DUP5 DUP3 DUP6 ADD PUSH2 0x3E5 JUMP JUMPDEST PUSH1 0x20 DUP4 ADD MSTORE POP PUSH2 0x4FD PUSH1 0x40 DUP4 ADD PUSH2 0x46E JUMP JUMPDEST PUSH1 0x40 DUP3 ADD MSTORE PUSH2 0x50E PUSH1 0x60 DUP4 ADD PUSH2 0x46E JUMP JUMPDEST PUSH1 0x60 DUP3 ADD MSTORE PUSH2 0x51F PUSH1 0x80 DUP4 ADD PUSH2 0x46E JUMP JUMPDEST PUSH1 0x80 DUP3 ADD MSTORE PUSH2 0x530 PUSH1 0xA0 DUP4 ADD PUSH2 0x46E JUMP JUMPDEST PUSH1 0xA0 DUP3 ADD MSTORE SWAP3 SWAP2 POP POP JUMP JUMPDEST PUSH0 PUSH0 PUSH1 0x40 DUP4 DUP6 SUB SLT ISZERO PUSH2 0x54C JUMPI PUSH0 PUSH0 REVERT JUMPDEST DUP3 CALLDATALOAD PUSH1 0x1 PUSH1 0x1 PUSH1 0x40 SHL SUB DUP2 GT ISZERO PUSH2 0x561 JUMPI PUSH0 PUSH0 REVERT JUMPDEST PUSH2 0x56D DUP6 DUP3 DUP7 ADD PUSH2 0x489 JUMP JUMPDEST SWAP3 POP POP PUSH1 0x20 DUP4 ADD CALLDATALOAD PUSH1 0x1 PUSH1 0x1 PUSH1 0x40 SHL SUB DUP2 GT ISZERO PUSH2 0x588 JUMPI PUSH0 PUSH0 REVERT JUMPDEST PUSH2 0x594 DUP6 DUP3 DUP7 ADD PUSH2 0x3E5 JUMP JUMPDEST SWAP2 POP POP SWAP3 POP SWAP3 SWAP1 POP JUMP JUMPDEST PUSH1 0x20 DUP2 MSTORE PUSH0 DUP3 MLOAD DUP1 PUSH1 0x20 DUP5 ADD MSTORE DUP1 PUSH1 0x20 DUP6 ADD PUSH1 0x40 DUP6 ADD MCOPY PUSH0 PUSH1 0x40 DUP3 DUP6 ADD ADD MSTORE PUSH1 0x40 PUSH1 0x1F NOT PUSH1 0x1F DUP4 ADD AND DUP5 ADD ADD SWAP2 POP POP SWAP3 SWAP2 POP POP JUMP JUMPDEST PUSH0 PUSH0 PUSH0 PUSH1 0x60 DUP5 DUP7 SUB SLT ISZERO PUSH2 0x5E5 JUMPI PUSH0 PUSH0 REVERT JUMPDEST DUP4 CALLDATALOAD PUSH1 0x1 PUSH1 0x1 PUSH1 0x40 SHL SUB DUP2 GT ISZERO PUSH2 0x5FA JUMPI PUSH0 PUSH0 REVERT JUMPDEST PUSH2 0x606 DUP7 DUP3 DUP8 ADD PUSH2 0x489 JUMP JUMPDEST SWAP4 POP POP PUSH1 0x20 DUP5 ADD CALLDATALOAD PUSH1 0x1 PUSH1 0x1 PUSH1 0x40 SHL SUB DUP2 GT ISZERO PUSH2 0x621 JUMPI PUSH0 PUSH0 REVERT JUMPDEST PUSH2 0x62D DUP7 DUP3 DUP8 ADD PUSH2 0x3E5 JUMP JUMPDEST SWAP3 POP POP PUSH1 0x40 DUP5 ADD CALLDATALOAD PUSH1 0x1 PUSH1 0x1 PUSH1 0x40 SHL SUB DUP2 GT ISZERO PUSH2 0x648 JUMPI PUSH0 PUSH0 REVERT JUMPDEST PUSH2 0x654 DUP7 DUP3 DUP8 ADD PUSH2 0x3E5 JUMP JUMPDEST SWAP2 POP POP SWAP3 POP SWAP3 POP SWAP3 JUMP JUMPDEST PUSH0 DUP2 MLOAD DUP1 PUSH1 0x20 DUP5 ADD DUP6 MCOPY PUSH0 SWAP4 ADD SWAP3 DUP4 MSTORE POP SWAP1 SWAP2 SWAP1 POP JUMP JUMPDEST PUSH32 0x3C67207472616E73666F726D3D227472616E736C617465283138302C20393529 DUP2 MSTORE PUSH32 0x222073686170652D72656E646572696E673D2263726973704564676573223E00 PUSH1 0x20 DUP3 ADD MSTORE PUSH32 0x3C7465787420783D222D33302220793D223230222066696C6C3D220000000000 PUSH1 0x3F DUP3 ADD MSTORE PUSH0 PUSH2 0x6F2 PUSH1 0x5A DUP4 ADD DUP7 PUSH2 0x65E JUMP JUMPDEST PUSH0 MLOAD PUSH1 0x20 PUSH2 0x103F PUSH0 CODECOPY PUSH0 MLOAD SWAP1 PUSH0 MSTORE DUP2 MSTORE PUSH32 0x6E6F7370616365223E504C41594552204E414D453A3C2F746578743E00000000 PUSH1 0x20 DUP3 ADD MSTORE PUSH32 0x3C7465787420783D222D33302220793D223436222066696C6C3D222365636630 PUSH1 0x3C DUP3 ADD MSTORE PUSH32 0x66312220666F6E742D73697A653D2232302220666F6E742D7765696768743D22 PUSH1 0x5C DUP3 ADD MSTORE PUSH32 0x626F6C642220666F6E742D66616D696C793D226D6F6E6F7370616365223E0000 PUSH1 0x7C DUP3 ADD MSTORE PUSH2 0x7A7 PUSH1 0x9A DUP3 ADD DUP7 PUSH2 0x65E JUMP JUMPDEST PUSH7 0x1E17BA32BC3A1F PUSH1 0xC9 SHL DUP2 MSTORE PUSH32 0x3C6C696E652078313D222D3235222079313D223638222078323D223132302220 PUSH1 0x7 DUP3 ADD SWAP1 DUP2 MSTORE PUSH32 0x79323D22363822207374726F6B653D222335353522207374726F6B652D776964 PUSH1 0x27 DUP4 ADD MSTORE PUSH32 0x74683D223322207374726F6B652D6461736861727261793D22382C36222F3E00 PUSH1 0x47 DUP4 ADD MSTORE SWAP2 POP PUSH1 0x66 ADD PUSH2 0x837 DUP2 DUP7 PUSH2 0x65E JUMP JUMPDEST SWAP2 POP POP PUSH2 0x84A DUP2 PUSH4 0x1E17B39F PUSH1 0xE1 SHL SWAP1 MSTORE JUMP JUMPDEST PUSH1 0x4 ADD SWAP6 SWAP5 POP POP POP POP POP JUMP JUMPDEST PUSH32 0x3C7465787420783D222D33302220793D22393222202066696C6C3D2200000000 DUP2 MSTORE PUSH0 PUSH2 0x887 PUSH1 0x1C DUP4 ADD DUP8 PUSH2 0x65E JUMP JUMPDEST PUSH0 MLOAD PUSH1 0x20 PUSH2 0x103F PUSH0 CODECOPY PUSH0 MLOAD SWAP1 PUSH0 MSTORE DUP2 MSTORE PUSH32 0x6E6F7370616365223E4C414E452020203A3C2F746578743E0000000000000000 PUSH1 0x20 DUP3 ADD MSTORE PUSH32 0x3C7465787420783D223132302220793D22393222202066696C6C3D2223656366 PUSH1 0x38 DUP3 ADD MSTORE PUSH0 MLOAD PUSH1 0x20 PUSH2 0x101F PUSH0 CODECOPY PUSH0 MLOAD SWAP1 PUSH0 MSTORE PUSH1 0x58 DUP3 ADD MSTORE PUSH0 MLOAD PUSH1 0x20 PUSH2 0xFFF PUSH0 CODECOPY PUSH0 MLOAD SWAP1 PUSH0 MSTORE PUSH1 0x78 DUP3 ADD MSTORE PUSH2 0x916 PUSH1 0x96 DUP3 ADD DUP8 PUSH2 0x65E JUMP JUMPDEST SWAP1 POP PUSH7 0x1E17BA32BC3A1F PUSH1 0xC9 SHL DUP2 MSTORE PUSH32 0x3C7465787420783D222D33302220793D22313136222066696C6C3D2200000000 PUSH1 0x7 DUP3 ADD MSTORE PUSH2 0x958 PUSH1 0x23 DUP3 ADD DUP7 PUSH2 0x65E JUMP JUMPDEST PUSH0 MLOAD PUSH1 0x20 PUSH2 0x103F PUSH0 CODECOPY PUSH0 MLOAD SWAP1 PUSH0 MSTORE DUP2 MSTORE PUSH32 0x6E6F7370616365223E47414D455320203A3C2F746578743E0000000000000000 PUSH1 0x20 DUP3 ADD MSTORE PUSH32 0x3C7465787420783D223132302220793D22313136222066696C6C3D2223656366 PUSH1 0x38 DUP3 ADD MSTORE PUSH0 MLOAD PUSH1 0x20 PUSH2 0x101F PUSH0 CODECOPY PUSH0 MLOAD SWAP1 PUSH0 MSTORE PUSH1 0x58 DUP3 ADD MSTORE PUSH0 MLOAD PUSH1 0x20 PUSH2 0xFFF PUSH0 CODECOPY PUSH0 MLOAD SWAP1 PUSH0 MSTORE PUSH1 0x78 DUP3 ADD MSTORE SWAP1 POP PUSH2 0x9EA PUSH1 0x96 DUP3 ADD JUMPDEST DUP6 PUSH2 0x65E JUMP JUMPDEST PUSH7 0x1E17BA32BC3A1F PUSH1 0xC9 SHL DUP2 MSTORE PUSH1 0x7 ADD SWAP8 SWAP7 POP POP POP POP POP POP POP JUMP JUMPDEST PUSH32 0x3C7465787420783D222D33302220793D22313430222066696C6C3D2200000000 DUP2 MSTORE PUSH0 PUSH2 0xA36 PUSH1 0x1C DUP4 ADD DUP8 PUSH2 0x65E JUMP JUMPDEST PUSH0 MLOAD PUSH1 0x20 PUSH2 0x103F PUSH0 CODECOPY PUSH0 MLOAD SWAP1 PUSH0 MSTORE DUP2 MSTORE PUSH32 0x6E6F7370616365223E4B494C4C5320203A3C2F746578743E0000000000000000 PUSH1 0x20 DUP3 ADD MSTORE PUSH32 0x3C7465787420783D223132302220793D22313430222066696C6C3D2223656366 PUSH1 0x38 DUP3 ADD MSTORE PUSH0 MLOAD PUSH1 0x20 PUSH2 0x101F PUSH0 CODECOPY PUSH0 MLOAD SWAP1 PUSH0 MSTORE PUSH1 0x58 DUP3 ADD MSTORE PUSH0 MLOAD PUSH1 0x20 PUSH2 0xFFF PUSH0 CODECOPY PUSH0 MLOAD SWAP1 PUSH0 MSTORE PUSH1 0x78 DUP3 ADD MSTORE PUSH2 0xAC5 PUSH1 0x96 DUP3 ADD DUP8 PUSH2 0x65E JUMP JUMPDEST SWAP1 POP PUSH7 0x1E17BA32BC3A1F PUSH1 0xC9 SHL DUP2 MSTORE PUSH32 0x3C7465787420783D222D33302220793D22313634222066696C6C3D2200000000 PUSH1 0x7 DUP3 ADD MSTORE PUSH2 0xB07 PUSH1 0x23 DUP3 ADD DUP7 PUSH2 0x65E JUMP JUMPDEST PUSH0 MLOAD PUSH1 0x20 PUSH2 0x103F PUSH0 CODECOPY PUSH0 MLOAD SWAP1 PUSH0 MSTORE DUP2 MSTORE PUSH32 0x6E6F7370616365223E444541544853203A3C2F746578743E0000000000000000 PUSH1 0x20 DUP3 ADD MSTORE PUSH32 0x3C7465787420783D223132302220793D22313634222066696C6C3D2223656366 PUSH1 0x38 DUP3 ADD MSTORE PUSH0 MLOAD PUSH1 0x20 PUSH2 0x101F PUSH0 CODECOPY PUSH0 MLOAD SWAP1 PUSH0 MSTORE PUSH1 0x58 DUP3 ADD MSTORE PUSH0 MLOAD PUSH1 0x20 PUSH2 0xFFF PUSH0 CODECOPY PUSH0 MLOAD SWAP1 PUSH0 MSTORE PUSH1 0x78 DUP3 ADD MSTORE SWAP1 POP PUSH2 0x9EA PUSH1 0x96 DUP3 ADD PUSH2 0x9E4 JUMP JUMPDEST PUSH32 0x3C7465787420783D222D33302220793D22313838222066696C6C3D2200000000 DUP2 MSTORE PUSH0 PUSH2 0xBC8 PUSH1 0x1C DUP4 ADD DUP8 PUSH2 0x65E JUMP JUMPDEST PUSH0 MLOAD PUSH1 0x20 PUSH2 0x103F PUSH0 CODECOPY PUSH0 MLOAD SWAP1 PUSH0 MSTORE DUP2 MSTORE PUSH32 0x6E6F7370616365223E415353495354533A3C2F746578743E0000000000000000 PUSH1 0x20 DUP3 ADD MSTORE PUSH32 0x3C7465787420783D223132302220793D22313838222066696C6C3D2223656366 PUSH1 0x38 DUP3 ADD MSTORE PUSH0 MLOAD PUSH1 0x20 PUSH2 0x101F PUSH0 CODECOPY PUSH0 MLOAD SWAP1 PUSH0 MSTORE PUSH1 0x58 DUP3 ADD MSTORE PUSH0 MLOAD PUSH1 0x20 PUSH2 0xFFF PUSH0 CODECOPY PUSH0 MLOAD SWAP1 PUSH0 MSTORE PUSH1 0x78 DUP3 ADD MSTORE PUSH2 0xC57 PUSH1 0x96 DUP3 ADD DUP8 PUSH2 0x65E JUMP JUMPDEST SWAP1 POP PUSH7 0x1E17BA32BC3A1F PUSH1 0xC9 SHL DUP2 MSTORE PUSH32 0x3C7465787420783D222D33302220793D22323132222066696C6C3D2200000000 PUSH1 0x7 DUP3 ADD MSTORE PUSH2 0xC99 PUSH1 0x23 DUP3 ADD DUP7 PUSH2 0x65E JUMP JUMPDEST PUSH0 MLOAD PUSH1 0x20 PUSH2 0x103F PUSH0 CODECOPY PUSH0 MLOAD SWAP1 PUSH0 MSTORE DUP2 MSTORE PUSH32 0x6E6F7370616365223E4B4441202020203A3C2F746578743E0000000000000000 PUSH1 0x20 DUP3 ADD MSTORE SWAP1 POP PUSH1 0x38 DUP2 ADD PUSH2 0xD31 PUSH2 0xD2B DUP3 PUSH32 0x3C7465787420783D223132302220793D22323132222066696C6C3D2223656366 DUP2 MSTORE PUSH0 MLOAD PUSH1 0x20 PUSH2 0x101F PUSH0 CODECOPY PUSH0 MLOAD SWAP1 PUSH0 MSTORE PUSH1 0x20 DUP3 ADD MSTORE PUSH0 MLOAD PUSH1 0x20 PUSH2 0xFFF PUSH0 CODECOPY PUSH0 MLOAD SWAP1 PUSH0 MSTORE PUSH1 0x40 DUP3 ADD MSTORE PUSH1 0x5E ADD SWAP1 JUMP JUMPDEST DUP7 PUSH2 0x65E JUMP JUMPDEST SWAP2 POP POP PUSH2 0xD47 DUP2 PUSH7 0x1E17BA32BC3A1F PUSH1 0xC9 SHL SWAP1 MSTORE JUMP JUMPDEST PUSH32 0x3C6C696E652078313D222D3330222079313D22323238222078323D2231323022 PUSH1 0x7 DUP3 ADD MSTORE PUSH32 0x2079323D2232323822207374726F6B653D222335353522207374726F6B652D77 PUSH1 0x27 DUP3 ADD MSTORE PUSH32 0x696474683D223322207374726F6B652D6461736861727261793D22382C36222F PUSH1 0x47 DUP3 ADD MSTORE PUSH1 0x1F PUSH1 0xF9 SHL PUSH1 0x67 DUP3 ADD MSTORE PUSH1 0x68 ADD SWAP7 SWAP6 POP POP POP POP POP POP JUMP JUMPDEST PUSH0 PUSH2 0xDE7 PUSH2 0xDE1 PUSH2 0xD2B DUP5 DUP9 PUSH2 0x65E JUMP JUMPDEST DUP5 PUSH2 0x65E JUMP JUMPDEST SWAP6 SWAP5 POP POP POP POP POP JUMP JUMPDEST PUSH32 0x3C7265637420783D22302220793D2230222077696474683D2233323022206865 DUP2 MSTORE PUSH32 0x696768743D22343030222066696C6C3D2223306231303165222F3E0000000000 PUSH1 0x20 DUP3 ADD MSTORE PUSH32 0x3C7265637420783D22382220793D2238222077696474683D2233303422206865 PUSH1 0x3B DUP3 ADD DUP2 SWAP1 MSTORE PUSH32 0x696768743D22333834222066696C6C3D2223313431653333222F3E0000000000 PUSH1 0x5B DUP4 ADD MSTORE PUSH1 0x76 DUP3 ADD MSTORE PUSH32 0x696768743D22333834222066696C6C3D226E6F6E6522207374726F6B653D2223 PUSH1 0x96 DUP3 ADD MSTORE PUSH32 0x30306630666622207374726F6B652D77696474683D22312E35222072783D2232 PUSH1 0xB6 DUP3 ADD MSTORE PUSH3 0x11179F PUSH1 0xE9 SHL PUSH1 0xD6 DUP3 ADD MSTORE PUSH32 0x3C7465787420783D223136302220793D223336222066696C6C3D222330306630 PUSH1 0xD9 DUP3 ADD MSTORE PUSH32 0x66662220666F6E742D73697A653D2231362220746578742D616E63686F723D22 PUSH1 0xF9 DUP3 ADD MSTORE PUSH32 0x6D6964646C652220666F6E742D7765696768743D22626F6C642220666F6E742D PUSH2 0x119 DUP3 ADD MSTORE PUSH32 0x66616D696C793D226D6F6E6F7370616365223E4D504C20504C41594552204341 PUSH2 0x139 DUP3 ADD MSTORE PUSH9 0x29221E17BA32BC3A1F PUSH1 0xB9 SHL PUSH2 0x159 DUP3 ADD MSTORE PUSH32 0x3C6C696E652078313D223230222079313D223530222078323D22333030222079 PUSH2 0x162 DUP3 ADD MSTORE PUSH32 0x323D22353022207374726F6B653D222330306630666622207374726F6B652D77 PUSH2 0x182 DUP3 ADD MSTORE PUSH10 0x34B23A341E911911179F PUSH1 0xB1 SHL PUSH2 0x1A2 DUP3 ADD MSTORE PUSH0 PUSH2 0x1AC DUP3 ADD PUSH2 0x3A3 JUMP INVALID 0x22 PUSH6 0x6E642220666F PUSH15 0x742D66616D696C793D226D6F6E6F73 PUSH17 0x616365223E00003066312220666F6E742D PUSH20 0x697A653D2231332220746578742D616E63686F72 RETURNDATASIZE 0x22 KECCAK256 PUSH7 0x6F6E742D73697A PUSH6 0x3D2231332220 PUSH7 0x6F6E742D66616D PUSH10 0x6C793D226D6F3C737667 KECCAK256 PUSH25 0x3D2231302220793D223330222077696474683D223134302220 PUSH9 0x65696768743D223338 ADDRESS 0x22 KECCAK256 PUSH23 0x696577426F783D22302030203332203332222073686170 PUSH6 0x2D72656E6465 PUSH19 0x696E673D2263726973704564676573223E3C67 KECCAK256 PUSH21 0x72616E73666F726D3D227472616E736C6174652833 ORIGIN 0x2C KECCAK256 ADDRESS 0x29 KECCAK256 PUSH20 0x63616C65282D312C203129223E3C706174682066 PUSH10 0x6C6C3D22233030303030 ADDRESS 0x22 KECCAK256 PUSH5 0x3D224D3131 KECCAK256 ORIGIN PUSH9 0x313076314831317A20 0x4D CODECOPY KECCAK256 CALLER PUSH9 0x32763148397A204D32 BALANCE KECCAK256 CALLER PUSH9 0x3276314832317A204D CODESIZE KECCAK256 CALLVALUE PUSH9 0x31763148387A204D32 CALLER KECCAK256 CALLVALUE PUSH9 0x3176314832337A204D CODESIZE KECCAK256 CALLDATALOAD PUSH9 0x31763148387A204D32 CALLVALUE KECCAK256 CALLDATALOAD PUSH9 0x3176314832347A204D CODESIZE KECCAK256 CALLDATASIZE PUSH9 0x31763148387A204D32 CALLVALUE KECCAK256 CALLDATASIZE PUSH9 0x3176314832347A204D CODESIZE KECCAK256 CALLDATACOPY PUSH9 0x31763148387A204D32 CALLVALUE KECCAK256 CALLDATACOPY PUSH9 0x3176314832347A204D CODESIZE KECCAK256 CODESIZE PUSH9 0x31763148387A204D32 CALLVALUE KECCAK256 CODESIZE PUSH9 0x3176314832347A204D CODECOPY KECCAK256 CODECOPY PUSH9 0x31763148397A204D32 CALLVALUE KECCAK256 CODECOPY PUSH9 0x3176314832347A204D CODECOPY KECCAK256 BALANCE ADDRESS PUSH9 0x31763148397A204D32 CALLER KECCAK256 BALANCE ADDRESS PUSH9 0x3176314832337A204D CODECOPY KECCAK256 BALANCE BALANCE PUSH9 0x31763148397A204D31 ORIGIN KECCAK256 BALANCE BALANCE PUSH9 0x3276314831327A204D BALANCE CODESIZE KECCAK256 BALANCE BALANCE PUSH9 0x3276314831387A204D ORIGIN CALLER KECCAK256 BALANCE BALANCE PUSH9 0x3176314832337A204D CODECOPY KECCAK256 BALANCE ORIGIN PUSH9 0x31763148397A204D32 CALLER KECCAK256 BALANCE ORIGIN PUSH9 0x3176314832337A204D BALANCE ADDRESS KECCAK256 BALANCE CALLER PUSH9 0x3176314831307A204D ORIGIN ORIGIN KECCAK256 BALANCE CALLER PUSH9 0x3176314832327A204D BALANCE ADDRESS KECCAK256 BALANCE CALLVALUE PUSH9 0x3176314831307A204D ORIGIN ORIGIN KECCAK256 BALANCE CALLVALUE PUSH9 0x3176314832327A204D BALANCE ADDRESS KECCAK256 BALANCE CALLDATALOAD PUSH9 0x3176314831307A204D ORIGIN ORIGIN KECCAK256 BALANCE CALLDATALOAD PUSH9 0x3176314832327A204D BALANCE BALANCE KECCAK256 BALANCE CALLDATASIZE PUSH9 0x3176314831317A204D ORIGIN BALANCE KECCAK256 BALANCE CALLDATASIZE PUSH9 0x3176314832317A204D BALANCE BALANCE KECCAK256 BALANCE CALLDATACOPY PUSH9 0x3176314831317A204D ORIGIN BALANCE KECCAK256 BALANCE CALLDATACOPY PUSH9 0x3176314832317A204D BALANCE ORIGIN KECCAK256 BALANCE CODESIZE PUSH9 0x3176314831327A204D ORIGIN ADDRESS KECCAK256 BALANCE CODESIZE PUSH9 0x3176314832307A204D BALANCE ORIGIN KECCAK256 BALANCE CODECOPY PUSH9 0x3176314831327A204D ORIGIN ADDRESS KECCAK256 BALANCE CODECOPY PUSH9 0x3176314832307A204D BALANCE BALANCE KECCAK256 ORIGIN ADDRESS PUSH9 0x3176314831317A204D ORIGIN BALANCE KECCAK256 ORIGIN ADDRESS PUSH9 0x3176314832317A204D CODECOPY KECCAK256 ORIGIN BALANCE PUSH9 0x32763148397A204D32 ORIGIN KECCAK256 ORIGIN BALANCE PUSH9 0x3276314832327A204D CALLDATACOPY KECCAK256 ORIGIN ORIGIN PUSH9 0x32763148377A204D32 CALLVALUE KECCAK256 ORIGIN ORIGIN PUSH9 0x3276314832347A204D CALLDATASIZE KECCAK256 ORIGIN CALLER PUSH9 0x31763148367A204D32 CALLDATASIZE KECCAK256 ORIGIN CALLER PUSH9 0x3176314832367A204D CALLDATALOAD KECCAK256 ORIGIN CALLVALUE PUSH9 0x31763148357A204D32 CALLDATACOPY KECCAK256 ORIGIN CALLVALUE PUSH9 0x3176314832377A204D CALLVALUE KECCAK256 ORIGIN CALLDATALOAD PUSH9 0x31763148347A204D32 CODESIZE KECCAK256 ORIGIN CALLDATALOAD PUSH9 0x3176314832387A204D CALLER KECCAK256 ORIGIN CALLDATASIZE PUSH9 0x31763148337A204D32 CODECOPY KECCAK256 ORIGIN CALLDATASIZE PUSH9 0x3176314832397A204D CALLER KECCAK256 ORIGIN CALLDATACOPY PUSH9 0x31763148337A204D32 CODECOPY KECCAK256 ORIGIN CALLDATACOPY PUSH9 0x3176314832397A204D CALLER KECCAK256 ORIGIN CODESIZE PUSH9 0x31763148337A204D32 CODECOPY KECCAK256 ORIGIN CODESIZE PUSH9 0x3176314832397A204D CALLER KECCAK256 ORIGIN CODECOPY PUSH9 0x31763148337A204D32 CODECOPY KECCAK256 ORIGIN CODECOPY PUSH9 0x3176314832397A204D CALLER KECCAK256 CALLER ADDRESS PUSH9 0x31763148337A204D32 CODECOPY KECCAK256 CALLER ADDRESS PUSH9 0x3176314832397A204D CALLER KECCAK256 CALLER BALANCE PUSH9 0x3237763148337A2220 0x2F RETURNDATACOPY EXTCODECOPY PUSH17 0x6174682066696C6C3D2223303030303030 0x22 KECCAK256 PUSH5 0x3D224D3131 KECCAK256 CALLER PUSH9 0x313076314831317A20 0x4D CODECOPY KECCAK256 CALLVALUE PUSH9 0x3134763148397A204D CODECOPY KECCAK256 CALLDATALOAD PUSH9 0x3135763148397A204D CODECOPY KECCAK256 CALLDATASIZE PUSH9 0x3135763148397A204D CODECOPY KECCAK256 CALLDATACOPY PUSH9 0x3135763148397A204D CODECOPY KECCAK256 CODESIZE PUSH9 0x33763148397A204D32 ADDRESS KECCAK256 CODESIZE PUSH9 0x3476314832307A204D BALANCE ADDRESS KECCAK256 CODECOPY PUSH9 0x3276314831307A204D ORIGIN ORIGIN KECCAK256 CODECOPY PUSH9 0x3276314832327A204D BALANCE ADDRESS KECCAK256 BALANCE ADDRESS PUSH9 0x3176314831307A204D ORIGIN ORIGIN KECCAK256 BALANCE ADDRESS PUSH9 0x3176314832327A2220 0x2F RETURNDATACOPY EXTCODECOPY PUSH17 0x6174682066696C6C3D2223653462353930 0x22 KECCAK256 PUSH5 0x3D224D3132 KECCAK256 CODESIZE PUSH9 0x3876314831327A204D BALANCE ORIGIN KECCAK256 CODECOPY PUSH9 0x313076314831327A20 0x4D BALANCE BALANCE KECCAK256 BALANCE ADDRESS PUSH9 0x313176314831317A20 0x4D BALANCE ADDRESS KECCAK256 BALANCE BALANCE PUSH9 0x3276314831307A204D BALANCE CALLVALUE KECCAK256 BALANCE BALANCE PUSH9 0x3476314831347A204D ORIGIN ADDRESS KECCAK256 BALANCE BALANCE PUSH9 0x3376314832307A204D BALANCE ADDRESS KECCAK256 BALANCE ORIGIN PUSH9 0x313376314831307A20 0x4D BALANCE BALANCE KECCAK256 BALANCE CALLER PUSH9 0x3476314831317A204D BALANCE CALLDATACOPY KECCAK256 BALANCE CALLER PUSH9 0x3576314831377A204D BALANCE BALANCE KECCAK256 BALANCE CALLVALUE PUSH9 0x313176314831317A20 0x4D BALANCE BALANCE KECCAK256 BALANCE CALLDATALOAD PUSH9 0x3376314831317A204D BALANCE CODESIZE KECCAK256 BALANCE CALLDATALOAD PUSH9 0x3476314831387A204D BALANCE ORIGIN KECCAK256 BALANCE CALLDATASIZE PUSH9 0x3976314831327A204D BALANCE ORIGIN KECCAK256 BALANCE CALLDATACOPY PUSH9 0x3976314831327A204D BALANCE CALLER KECCAK256 BALANCE CODESIZE PUSH9 0x3776314831337A2220 0x2F RETURNDATACOPY EXTCODECOPY PUSH17 0x6174682066696C6C3D2223633539343733 0x22 KECCAK256 PUSH5 0x3D224D3135 KECCAK256 BALANCE CALLER PUSH9 0x3276314831357A204D BALANCE CALLER KECCAK256 BALANCE CODECOPY PUSH9 0x3776314831337A204D BALANCE CALLVALUE KECCAK256 ORIGIN ADDRESS PUSH9 0x3576314831347A2220 0x2F RETURNDATACOPY EXTCODECOPY PUSH17 0x6174682066696C6C3D2223626436613466 0x22 KECCAK256 PUSH5 0x3D224D3134 KECCAK256 BALANCE CALLDATALOAD PUSH9 0x3476314831347A2220 0x2F RETURNDATACOPY EXTCODECOPY PUSH17 0x6174682066696C6C3D2223666666666666 0x22 KECCAK256 PUSH5 0x3D224D3132 KECCAK256 ORIGIN ADDRESS PUSH9 0x3276314831327A204D BALANCE CODECOPY KECCAK256 ORIGIN ADDRESS PUSH9 0x3276314831397A204D BALANCE BALANCE KECCAK256 ORIGIN BALANCE PUSH9 0x3376314831317A204D BALANCE CODECOPY KECCAK256 ORIGIN BALANCE PUSH9 0x3376314831397A204D CODECOPY KECCAK256 ORIGIN ORIGIN PUSH9 0x34763148397A204D32 ADDRESS KECCAK256 ORIGIN ORIGIN PUSH9 0x3476314832307A204D CALLDATACOPY KECCAK256 ORIGIN CALLER PUSH9 0x35763148377A204D32 BALANCE KECCAK256 ORIGIN CALLER PUSH9 0x3576314832317A204D CALLDATASIZE KECCAK256 ORIGIN CALLVALUE PUSH9 0x35763148367A204D32 ORIGIN KECCAK256 ORIGIN CALLVALUE PUSH9 0x3576314832327A204D CALLDATALOAD KECCAK256 ORIGIN CALLDATALOAD PUSH9 0x35763148357A204D31 CALLER KECCAK256 ORIGIN CALLDATALOAD PUSH9 0x3276314831337A204D BALANCE CALLDATASIZE KECCAK256 ORIGIN CALLDATALOAD PUSH9 0x3276314831367A204D BALANCE CODECOPY KECCAK256 ORIGIN CALLDATALOAD PUSH9 0x3276314831397A204D ORIGIN CALLER KECCAK256 ORIGIN CALLDATALOAD PUSH9 0x3576314832337A204D CALLVALUE KECCAK256 ORIGIN CALLDATASIZE PUSH9 0x35763148347A204D32 CALLVALUE KECCAK256 ORIGIN CALLDATASIZE PUSH9 0x3576314832347A204D CALLVALUE KECCAK256 ORIGIN CALLDATACOPY PUSH9 0x34763148347A204D32 CALLDATALOAD KECCAK256 ORIGIN CALLDATACOPY PUSH9 0x3476314832357A204D CALLVALUE KECCAK256 ORIGIN CODESIZE PUSH9 0x34763148347A204D32 CALLDATALOAD KECCAK256 ORIGIN CODESIZE PUSH9 0x3476314832357A204D CALLVALUE KECCAK256 ORIGIN CODECOPY PUSH9 0x34763148347A204D32 CALLDATALOAD KECCAK256 ORIGIN CODECOPY PUSH9 0x3476314832357A204D CALLDATASIZE KECCAK256 CALLER ADDRESS PUSH9 0x32763148367A204D32 CALLDATALOAD KECCAK256 CALLER ADDRESS PUSH9 0x3276314832357A2220 0x2F RETURNDATACOPY EXTCODECOPY PUSH17 0x6174682066696C6C3D2223656638313135 0x22 KECCAK256 PUSH5 0x3D224D3134 KECCAK256 ORIGIN BALANCE PUSH9 0x3576314831347A204D BALANCE CALLER KECCAK256 ORIGIN ORIGIN PUSH9 0x3776314831337A204D BALANCE ORIGIN KECCAK256 ORIGIN CALLER PUSH9 0x3976314831327A204D BALANCE BALANCE KECCAK256 ORIGIN CALLVALUE PUSH9 0x313176314831317A20 0x4D BALANCE ADDRESS KECCAK256 ORIGIN CALLDATALOAD PUSH9 0x3376314831307A204D BALANCE CALLDATALOAD KECCAK256 ORIGIN CALLDATALOAD PUSH9 0x3176314831357A204D BALANCE CODESIZE KECCAK256 ORIGIN CALLDATALOAD PUSH9 0x3176314831387A204D ORIGIN BALANCE KECCAK256 ORIGIN CALLDATALOAD PUSH9 0x3276314832317A204D CODECOPY KECCAK256 ORIGIN CALLDATASIZE PUSH9 0x3135763148397A204D CODESIZE KECCAK256 ORIGIN CALLDATACOPY PUSH9 0x3137763148387A204D CODESIZE KECCAK256 ORIGIN CODESIZE PUSH9 0x3137763148387A204D CODESIZE KECCAK256 ORIGIN CODECOPY PUSH9 0x3137763148387A204D CALLVALUE KECCAK256 CALLER ADDRESS PUSH9 0x32763148347A204D38 KECCAK256 CALLER ADDRESS PUSH9 0x3137763148387A204D ORIGIN CALLDATACOPY KECCAK256 CALLER ADDRESS PUSH9 0x3276314832377A2220 0x2F RETURNDATACOPY EXTCODECOPY 0x2F PUSH8 0x3E3C2F7376673EA2 PUSH5 0x6970667358 0x22 SLT KECCAK256 PUSH13 0x94BDFFDF753DA72142178E4A84 EXTSTATICCALL 0xB1 0xD3 0xB1 0x2B CALLDATACOPY BYTE 0xC4 SWAP9 GT GASPRICE 0xDF 0xBF 0xAF MUL MUL 0xD7 0xFC PUSH5 0x736F6C6343 STOP ADDMOD 0x1E STOP CALLER "
				},
				"gasEstimates": {
					"creation": {
						"codeDepositCost": "1288000",
						"executionCost": "1340",
						"totalCost": "1289340"
					},
					"external": {
						"_getStatsRows((string,string,uint64,uint64,uint64,uint64),string,string)": "infinite",
						"getBackgroundLayer()": "infinite",
						"getPixelArtLayer()": "infinite",
						"getStatsLayer((string,string,uint64,uint64,uint64,uint64),string)": "infinite"
					}
				},
				"methodIdentifiers": {
					"_getStatsRows((string,string,uint64,uint64,uint64,uint64),string,string)": "4deea5ab",
					"getBackgroundLayer()": "c440354f",
					"getPixelArtLayer()": "fe22a5dc",
					"getStatsLayer((string,string,uint64,uint64,uint64,uint64),string)": "0f02ed11"
				}
			},
			"storageLayout": {
				"storage": [],
				"types": null
			},
			"userdoc": {
				"kind": "user",
				"methods": {},
				"version": 1
			}
		}
	}
}