{
	"data": {
		"bytecode": {
			"linkReferences": {},
			"object": "60a06040523461041657614d8f6020813803918261001c8161041a565b93849283398101031261041657516001600160401b03811690819003610416576009546001600160a01b031690610053604061041a565b91600f83526e13541308141b185e595c8810d85c99608a1b602084015261007a604061041a565b60058152644d504c504360d81b602082015283519092906001600160401b03811161032a575f54600181811c9116801561040c575b602082101461030c57601f81116103aa575b50602094601f8211600114610349579481929394955f9261033e575b50508160011b915f199060031b1c1916175f555b82516001600160401b03811161032a57600154600181811c91168015610320575b602082101461030c57601f81116102a9575b506020601f821160011461024657819293945f9261023b575b50508160011b915f199060031b1c1916176001555b33156102285760078054336001600160a01b0319821681179092556040519391906001600160a01b03167f8be0079c531659141344cd1fd0a4f28419497f9722a3daafe3b4186f6b6457e05f80a3608052600980546001600160a01b03191673b83e47c2bc239b3bf370bc41e1459a34b41238d01790557f66756e2d657468657265756d2d7365706f6c69612d3100000000000000000000600a5562015180600e55600b80546001600160401b03191691909117905542600d5561494f908161044082396080518181816107be0152613ffe0152f35b631e4fbdf760e01b5f525f60045260245ffd5b015190505f8061013d565b601f1982169060015f52805f20915f5b81811061029157509583600195969710610279575b505050811b01600155610152565b01515f1960f88460031b161c191690555f808061026b565b9192602060018192868b015181550194019201610256565b60015f527fb10e2d527612073b26eecdfd717e6a320cf44b4afac2b0732d9fcbe2b7fa0cf6601f830160051c81019160208410610302575b601f0160051c01905b8181106102f75750610124565b5f81556001016102ea565b90915081906102e1565b634e487b7160e01b5f52602260045260245ffd5b90607f1690610112565b634e487b7160e01b5f52604160045260245ffd5b015190505f806100dd565b601f198216955f8052805f20915f5b8881106103925750836001959697981061037a575b505050811b015f556100f1565b01515f1960f88460031b161c191690555f808061036d565b91926020600181928685015181550194019201610358565b5f80527f290decd9548b62a8d60345a988386fc84ba6bc95484008f6362f93160ef3e563601f830160051c81019160208410610402575b601f0160051c01905b8181106103f757506100c1565b5f81556001016103ea565b90915081906103e1565b90607f16906100af565b5f80fd5b6040519190601f01601f191682016001600160401b0381118382101761032a5760405256fe60806040526004361015610011575f80fd5b5f3560e01c8062b467671461022357806301ffc9a71461021e57806306fdde0314610219578063081812fc14610214578063095ea7b31461020f57806309c1ba2e1461020a5780630ca761751461020557806313c601771461020057806320457fb6146101fb57806322e817e2146101f657806323b872dd146101f15780632839b78f146101ec5780633f3b3b27146101e757806342842e0e146101e25780634585e33b146101dd5780636352211e146101d857806368015a4b146101d35780636dcee4ca146101ce5780636e04ff0d146101c957806370a08231146101c4578063715018a6146101bf5780638da5cb5b146101ba578063947a36fb146101b557806394881476146101b057806395d89b41146101ab578063a22cb465146101a6578063b4cfae44146101a1578063b88d4fde1461019c578063c87b56dd14610197578063e049d70914610192578063e985e9c51461018d578063eca81d42146101885763f2fde38b14610183575f80fd5b61156d565b6114ad565b611451565b611435565b6112f6565b6112a2565b611205565b611137565b611092565b611075565b611058565b611030565b610fd5565b610f84565b610f21565b610f02565b610ed8565b610ea8565b610e59565b610dd5565b610db8565b610d72565b610d5b565b610cb6565b610c87565b610c58565b61076a565b610744565b61063d565b6105d5565b6104fe565b61043d565b610316565b634e487b7160e01b5f52604160045260245ffd5b60c081019081106001600160401b0382111761025757604052565b610228565b60e081019081106001600160401b0382111761025757604052565b604081019081106001600160401b0382111761025757604052565b90601f801991011681019081106001600160401b0382111761025757604052565b6001600160401b03811161025757601f01601f191660200190565b81601f82011215610312576020813591016102e8826102b3565b926102f66040519485610292565b8284528282011161031257815f92602092838601378301015290565b5f80fd5b34610312576020366003190112610312576004356001600160401b038111610312576103469036906004016102ce565b61034e6120a9565b80516001600160401b038111610257576103728161036d600c54610acb565b6115f3565b602091601f82116001146103b0576103a0925f91836103a5575b50508160011b915f199060031b1c19161790565b600c55005b015190505f8061038c565b600c5f52601f198216927fdf6966c971051c3d54ec59162606531493a51404a002842f56009d7e5cf4a8c7915f5b858110610413575083600195106103fb575b505050811b01600c55005b01515f1960f88460031b161c191690555f80806103f0565b919260206001819286850151815501940192016103de565b6001600160e01b031981160361031257565b346103125760203660031901126103125760043561045a8161042b565b63ffffffff60e01b16632483248360e11b8114908115610483575b506040519015158152602090f35b6380ac58cd60e01b8114915081156104b5575b81156104a4575b505f610475565b6301ffc9a760e01b1490505f61049d565b635b5e139f60e01b81149150610496565b805180835260209291819084018484015e5f828201840152601f01601f1916010190565b9060206104fb9281815201906104c6565b90565b34610312575f366003190112610312576040515f5f5461051d81610acb565b80845290600181169081156105b15750600114610555575b6105518361054581850382610292565b604051918291826104ea565b0390f35b5f8080527f290decd9548b62a8d60345a988386fc84ba6bc95484008f6362f93160ef3e563939250905b80821061059757509091508101602001610545610535565b91926001816020925483858801015201910190929161057f565b60ff191660208086019190915291151560051b840190910191506105459050610535565b34610312576020366003190112610312576004356105f2816120d0565b505f526004602052602060018060a01b0360405f205416604051908152f35b600435906001600160a01b038216820361031257565b602435906001600160a01b038216820361031257565b3461031257604036600319011261031257610656610611565b60243590610663826120d0565b33151580610731575b806106f3575b6106e0576106de926106bf9181906001600160a01b0385811691167f8c5be1e5ebec7d5bd14f71427d1e84f3dd0314c0f7b2291e5b200ac8c7c3b9255f80a45f52600460205260405f2090565b80546001600160a01b0319166001600160a01b03909216919091179055565b005b63a9fbf51f60e01b5f523360045260245ffd5b5060ff610729336107148460018060a01b03165f52600560205260405f2090565b9060018060a01b03165f5260205260405f2090565b541615610672565b506001600160a01b03811633141561066c565b34610312575f3660031901126103125760206001600160401b03600b5416604051908152f35b34610312576060366003190112610312576004356024356001600160401b0381116103125761079d9036906004016102ce565b6044356001600160401b038111610312576107bc9036906004016102ce565b7f00000000000000000000000000000000000000000000000000000000000000006001600160a01b03163303610abc5761080f61080b610804855f52601260205260405f2090565b5460ff1690565b1590565b610aa8578051610a87575061096d61093d61089e610849610838865f52601160205260405f2090565b549460208082518301019101612104565b61088e6001600160401b038216600261086a885f52601060205260405f2090565b0180546001600160c01b031660c09290921b6001600160c01b031916919091179055565b6108ea6108aa61089e8360401c90565b6001600160401b031690565b60026108be885f52601060205260405f2090565b01805467ffffffffffffffff60801b191660809290921b67ffffffffffffffff60801b16919091179055565b6109376108fa61089e8360801c90565b600261090e885f52601060205260405f2090565b019067ffffffffffffffff60401b82549160401b169067ffffffffffffffff60401b1916179055565b60c01c90565b6002610951845f52601060205260405f2090565b01906001600160401b03166001600160401b0319825416179055565b61098c610982835f52601260205260405f2090565b805460ff19169055565b5f828152601160205260408120557f9f86cfe46669ecf4ca86f93ef7ffc30082e4a755d2ee82226e1d556fd63407ee6109d56109d0835f52601060205260405f2090565b6118f3565b60408101516001600160401b0316610a5e6109fa60608401516001600160401b031690565b91610a2360a0610a1460808701516001600160401b031690565b9501516001600160401b031690565b60405194859442938691936001600160401b036080948180949998978160a088019b1687521660208601521660408401521660608201520152565b0390a27f85e1543bf2f84fe80c6badbce3648c8539ad1df4d2b3d822938ca0538be727e65f80a2005b604051631de77ff960e11b8152908190610aa490600483016104ea565b0390fd5b63f6a8d1c960e01b5f52600483905260245ffd5b63c6829f8360e01b5f5260045ffd5b90600182811c92168015610af9575b6020831014610ae557565b634e487b7160e01b5f52602260045260245ffd5b91607f1691610ada565b604051905f82600c5491610b1683610acb565b8083529260018116908115610b9b5750600114610b3c575b610b3a92500383610292565b565b50600c5f90815290917fdf6966c971051c3d54ec59162606531493a51404a002842f56009d7e5cf4a8c75b818310610b7f575050906020610b3a92820101610b2e565b6020919350806001915483858901015201910190918492610b67565b60209250610b3a94915060ff191682840152151560051b820101610b2e565b9060405191825f825492610bcd84610acb565b8084529360018116908115610c365750600114610bf2575b50610b3a92500383610292565b90505f9291925260205f20905f915b818310610c1a575050906020610b3a928201015f610be5565b6020919350806001915483858901015201910190918492610c01565b905060209250610b3a94915060ff191682840152151560051b8201015f610be5565b34610312575f36600319011261031257610551610c73610b03565b6040519182916020835260208301906104c6565b34610312576020366003190112610312576004355f526012602052602060ff60405f2054166040519015158152f35b3461031257604036600319011261031257602435600435610cd56120a9565b610e108110610d09576008548015610cfa57610cf2908310611751565b600e55600f55005b63d31b331d60e01b5f5260045ffd5b6304d5a70960e41b5f52600452610e1060245260445ffd5b6060906003190112610312576004356001600160a01b038116810361031257906024356001600160a01b0381168103610312579060443590565b34610312576106de610d6c36610d21565b91611794565b34610312576020366003190112610312576106de600435610d916120a9565b610d9e6008548210611751565b805f526010602052610db260405f20610bba565b90612187565b34610312575f366003190112610312576020600d54604051908152f35b34610312576106de610de636610d21565b9060405192610df6602085610292565b5f8452610e04838383611794565b33613a06565b906020600319830112610312576004356001600160401b0381116103125782602382011215610312578060040135926001600160401b0384116103125760248483010111610312576024019190565b3461031257610e6736610e0a565b5050600d544203428111610ea357600e5410610e7f57005b42600d556106de600f54610db2610e9e825f52601060205260405f2090565b610bba565b6118c2565b34610312576020366003190112610312576020610ec66004356120d0565b6040516001600160a01b039091168152f35b34610312576020366003190112610312576004355f526011602052602060405f2054604051908152f35b3461031257602036600319011261031257610551610c73600435611b18565b3461031257610f2f36610e0a565b5050600d544203428111610ea357600e541080610f77575b60405190610f56602083610292565b5f8252610551604051928392151583526040602084015260408301906104c6565b50600f5460085411610f47565b34610312576020366003190112610312576001600160a01b03610fa5610611565b168015610fc2575f526003602052602060405f2054604051908152f35b6322718ad960e21b5f525f60045260245ffd5b34610312575f36600319011261031257610fed6120a9565b600780546001600160a01b031981169091555f906001600160a01b03167f8be0079c531659141344cd1fd0a4f28419497f9722a3daafe3b4186f6b6457e08280a3005b34610312575f366003190112610312576007546040516001600160a01b039091168152602090f35b34610312575f366003190112610312576020600e54604051908152f35b34610312575f366003190112610312576020600f54604051908152f35b34610312575f366003190112610312576040515f6001546110b281610acb565b80845290600181169081156105b157506001146110d9576105518361054581850382610292565b60015f9081527fb10e2d527612073b26eecdfd717e6a320cf44b4afac2b0732d9fcbe2b7fa0cf6939250905b80821061111d57509091508101602001610545610535565b919260018160209254838588010152019101909291611105565b3461031257604036600319011261031257611150610611565b60243580151581036103125733156111f2576001600160a01b0382169182156111df578161119c6111ad92335f52600560205260405f209060018060a01b03165f5260205260405f2090565b9060ff801983541691151516179055565b604051901515815233907f17307eab39ab6107e8899845ad3d59bd9653f200f220920489ca2b5937696c3190602090a3005b82630b61174360e31b5f5260045260245ffd5b63a9fbf51f60e01b5f525f60045260245ffd5b34610312576020366003190112610312576004355f52601060205261126260405f2061123081610bba565b906001600160401b03611270600261124a60018501610bba565b9301549260405195869560c0875260c08701906104c6565b9085820360208701526104c6565b918180821616604085015281808260401c1616606085015281808260801c1616608085015260c01c1660a08301520390f35b34610312576080366003190112610312576112bb610611565b6112c3610627565b90604435606435926001600160401b038411610312576112ea6106de9436906004016102ce565b92610e04838383611794565b3461031257602036600319011261031257600435805f52601060205260405f2090604051916113248361023c565b61132d81610bba565b835261133b60018201610bba565b90602084019182526002015460408401906001600160401b0381168252606085018160401c6001600160401b0316815260808601918060801c6001600160401b03166113909084906001600160401b03169052565b60c01c60a08701908152926113a486611b18565b6113ad90614093565b956113b7906122ab565b9651945190516113cf906001600160401b03166122ab565b91516113e3906001600160401b03166122ab565b92516113f7906001600160401b03166122ab565b935161140b906001600160401b03166122ab565b9461141597611bea565b61141e90614093565b61142790611e90565b6040516105518192826104ea565b34610312575f366003190112610312576020604051610e108152f35b3461031257604036600319011261031257602060ff6114a1611471610611565b611479610627565b6001600160a01b039182165f9081526005865260408082209290931681526020919091522090565b54166040519015158152f35b34610312576060366003190112610312576114c6610611565b6024356001600160401b038111610312576114e59036906004016102ce565b604435916001600160401b0383116103125761155561150b61155a9436906004016102ce565b926115146120a9565b60085493604051916115258361023c565b825260208201525f60408201525f60608201525f60808201525f60a0820152835f52601060205260405f20611ece565b613aa0565b6106de61156860085461209b565b600855565b3461031257602036600319011261031257611586610611565b61158e6120a9565b6001600160a01b031680156115e057600780546001600160a01b0319811683179091556001600160a01b03167f8be0079c531659141344cd1fd0a4f28419497f9722a3daafe3b4186f6b6457e05f80a3005b631e4fbdf760e01b5f525f60045260245ffd5b601f81116115ff575050565b600c5f5260205f20906020601f840160051c83019310611639575b601f0160051c01905b81811061162e575050565b5f8155600101611623565b909150819061161a565b601f821161165057505050565b5f5260205f20906020601f840160051c83019310611688575b601f0160051c01905b81811061167d575050565b5f8155600101611672565b9091508190611669565b91909182516001600160401b038111610257576116b9816116b38454610acb565b84611643565b6020601f82116001146116ec5781906116e89394955f926103a55750508160011b915f199060031b1c19161790565b9055565b601f198216906116ff845f5260205f2090565b915f5b81811061173957509583600195969710611721575b505050811b019055565b01515f1960f88460031b161c191690555f8080611717565b9192602060018192868b015181550194019201611702565b1561175857565b60405162461bcd60e51b8152602060048201526014602482015273151bdad95b881251081d1a59185ac81d985b1a5960621b6044820152606490fd5b9091906001600160a01b038316801561189b575f8381526002602052604090205483906001600160a01b0316913361188b575b6001600160a01b0383169561180c908761185f575b6001600160a01b0381165f908152600360205260409020600181540190556106bf845f52600260205260405f2090565b857fddf252ad1be2c89b69c2b068fc378daa952ba7f163c4a11628f55a4df523b3ef5f80a4506001600160a01b031680830361184757505050565b6364283d7b60e01b5f5260045260245260445260645ffd5b61186884613b8d565b6001600160a01b0385165f90815260036020526040902080545f190190556117dc565b611896823385613baf565b6117c7565b633250574960e11b5f525f60045260245ffd5b604051906118bd602083610292565b5f8252565b634e487b7160e01b5f52601160045260245ffd5b601f19810191908211610ea357565b5f19810191908211610ea357565b906040516119008161023c565b60a06001600160401b036002839561191781610bba565b855261192560018201610bba565b602086015201548181166040850152818160401c166060850152818160801c16608085015260c01c16910152565b9060028201809211610ea357565b9060208201809211610ea357565b91908201809211610ea357565b90606482029180830460641490151715610ea357565b600281901b91906001600160fe1b03811603610ea357565b908160011b9180830460021490151715610ea357565b81156119ca570490565b634e487b7160e01b5f52601260045260245ffd5b805191908290602001825e015f815290565b610b3a90611a1c611a0e9493600160405196879460208601906119de565b601760f91b815201906119de565b03601f198101845283610292565b600690611afd611ae69594611af7610b3a956004604051998a967f3c7376672077696474683d2233323022206865696768743d223430302220766960208901527f6577426f783d2230203020333230203430302220786d6c6e733d22687474703a60408901527f2f2f7777772e77332e6f72672f323030302f737667223e00000000000000000060608901527f3c672073686170652d72656e646572696e673d2263726973704564676573223e607789015260978801906119de565b631e17b39f60e11b815201906119de565b906119de565b651e17b9bb339f60d11b815203601919810185520183610292565b5f5260106020526104fb611b2e60405f206118f3565b60808101516001600160401b031680611bde5750611bbd611b9a60015b6001600160401b03611b92611b8d611b7061089e60608901516001600160401b031690565b611b8761089e60a08a01516001600160401b031690565b9061196f565b61197c565b9116906119c0565b611bb7611baa611baf6064840482565b6122ab565b926064900690565b906119f0565b90611bd8611bc9612401565b92611bd261261d565b9261328e565b91611a2a565b611b9a611bbd91611b4b565b959391979694929097604051988997737b226e616d65223a20224d504c2043617264202360601b60208a015260348901611c23916119de565b6201116160ed1b81527f226465736372697074696f6e223a20224b6172747520644e4654204d504c2e2060038201527402932b73232b91027b716aa343296a3363c9711161605d1b60238201526038016e2261747472696275746573223a205b60881b81527f7b2274726169745f74797065223a20224e69636b6e616d65222c202276616c75600f8201526432911d101160d91b602f820152603401611cc8916119de565b62089f4b60ea1b81527f7b2274726169745f74797065223a20224c616e65222c202276616c7565223a206003820152601160f91b6023820152602401611d0d916119de565b62089f4b60ea1b81527f7b2274726169745f74797065223a202247616d6573222c202276616c7565223a6003820152600160fd1b6023820152602401611d52916119de565b611f4b60f21b81527f7b2274726169745f74797065223a20224b696c6c73222c202276616c7565223a6002820152600160fd1b6022820152602301611d96916119de565b611f4b60f21b81527f7b2274726169745f74797065223a2022446561746873222c202276616c75652260028201526101d160f51b6022820152602401611ddb916119de565b611f4b60f21b81527f7b2274726169745f74797065223a202241737369737473222c202276616c75656002820152620111d160ed1b6022820152602501611e21916119de565b607d60f81b81526202e96160ed1b60018201527f22696d616765223a2022646174613a696d6167652f7376672b786d6c3b626173600482015263194d8d0b60e21b6024820152602801611e73916119de565b61227d60f01b815203601d1981018352600201610b3a9083610292565b90610b3a611a1c926040519384917f646174613a6170706c69636174696f6e2f6a736f6e3b6261736536342c0000006020840152603d8301906119de565b919080519283516001600160401b03811161025757611ef1816116b38454610acb565b6020601f82116001146120265761200692611f2b8360a094600294610b3a999a5f926103a55750508160011b915f199060031b1c19161790565b81555b611f3f602086015160018301611692565b0192611f75611f5860408301516001600160401b031690565b855467ffffffffffffffff19166001600160401b03909116178555565b611fb9611f8c60608301516001600160401b031690565b85546fffffffffffffffff0000000000000000191660409190911b67ffffffffffffffff60401b16178555565b611ff8611fd060808301516001600160401b031690565b855467ffffffffffffffff60801b191660809190911b67ffffffffffffffff60801b16178555565b01516001600160401b031690565b81546001600160c01b031660c09190911b6001600160c01b031916179055565b601f19821695612039845f5260205f2090565b965f5b818110612083575083610b3a9798600294612006979460a0976001951061206b575b505050811b018155611f2e565b01515f1960f88460031b161c191690555f808061205e565b8383015189556001909801976020938401930161203c565b5f198114610ea35760010190565b6007546001600160a01b031633036120bd57565b63118cdaa760e01b5f523360045260245ffd5b5f818152600260205260409020546001600160a01b03169081156120f2575090565b637e27328960e01b5f5260045260245ffd5b90816020910312610312575190565b604080519091906121248382610292565b6001815291601f1901825f5b82811061213c57505050565b806060602080938501015201612130565b634e487b7160e01b5f52603260045260245ffd5b80511561216e5760200190565b61214d565b805182101561216e5760209160051b010190565b9061227492917f36c447ad99df7457c4f3d38dad77da717d67a685e3ed93297fefc4601d9beb2561223b6122266040516121c08161025c565b5f81525f60208201525f604082015260608082015260606080820152606060a0820152606060c08201526121fb6121f5610b03565b826141b2565b612221612206612113565b8761221082612161565b5261221a81612161565b5082613c87565b613ddf565b600b546001600160401b0316600a5491613fa8565b94859383612251865f52601160205260405f2090565b55610545612267865f52601260205260405f2090565b805460ff19166001179055565b0390a3565b90612283826102b3565b6122906040519182610292565b82815280926122a1601f19916102b3565b0190602036910137565b805f9172184f03e93ff9f4daa797ed6e38ed64bf6a1f0160401b8210156123de575b806d04ee2d6d415b85acef8100000000600a9210156123c2575b662386f26fc100008110156123ad575b6305f5e10081101561239b575b61271081101561238b575b606481101561237c575b1015612371575b61235c602161233160018501612279565b938401015b5f1901916f181899199a1a9b1b9c1cb0b131b232b360811b600a82061a8353600a900490565b801561236c5761235c9091612336565b505090565b600190910190612320565b60029060649004930192612319565b600490612710900493019261230f565b6008906305f5e1009004930192612304565b601090662386f26fc1000090049301926122f7565b6020906d04ee2d6d415b85acef810000000090049301926122e7565b506040915072184f03e93ff9f4daa797ed6e38ed64bf6a1f0160401b81046122cd565b604080517f3c7265637420783d22302220793d2230222077696474683d223332302220686560208201527f696768743d22343030222066696c6c3d2223306231303165222f3e0000000000918101919091527f3c7265637420783d22382220793d2238222077696474683d2233303422206865605b82018190527f696768743d22333834222066696c6c3d2223313431653333222f3e0000000000607b83015260968201527f696768743d22333834222066696c6c3d226e6f6e6522207374726f6b653d222360b68201527f30306630666622207374726f6b652d77696474683d22312e35222072783d223260d68201526211179f60e91b60f68201527f3c7465787420783d223136302220793d223336222066696c6c3d22233030663060f98201527f66662220666f6e742d73697a653d2231362220746578742d616e63686f723d226101198201527f6d6964646c652220666f6e742d7765696768743d22626f6c642220666f6e742d6101398201527f66616d696c793d226d6f6e6f7370616365223e4d504c20504c415945522043416101598201526829221e17ba32bc3a1f60b91b6101798201527f3c6c696e652078313d223230222079313d223530222078323d223330302220796101828201527f323d22353022207374726f6b653d222330306630666622207374726f6b652d776101a28201526934b23a341e911911179f60b11b6101c282015290610b3a826101cc8101611a1c565b6040519061262d6108c083610292565b61089482527f3c73766720783d2231302220793d223330222077696474683d2231343022206860208301527f65696768743d22333830222076696577426f783d22302030203332203332222060408301527f73686170652d72656e646572696e673d2263726973704564676573223e3c672060608301527f7472616e73666f726d3d227472616e736c6174652833322c203029207363616c60808301527f65282d312c203129223e3c706174682066696c6c3d222330303030303022206460a08301527f3d224d3131203268313076314831317a204d3920336832763148397a204d323160c08301527f2033683276314832317a204d3820346831763148387a204d323320346831763160e08301527f4832337a204d3820356831763148387a204d32342035683176314832347a204d6101008301527f3820366831763148387a204d32342036683176314832347a204d3820376831766101208301527f3148387a204d32342037683176314832347a204d3820386831763148387a204d6101408301527f32342038683176314832347a204d3920396831763148397a204d3234203968316101608301527f76314832347a204d392031306831763148397a204d32332031306831763148326101808301527f337a204d392031316831763148397a204d3132203131683276314831327a204d6101a08301527f3138203131683276314831387a204d3233203131683176314832337a204d39206101c08301527f31326831763148397a204d3233203132683176314832337a204d3130203133686101e08301527f3176314831307a204d3232203133683176314832327a204d31302031346831766102008301527f314831307a204d3232203134683176314832327a204d313020313568317631486102208301527f31307a204d3232203135683176314832327a204d3131203136683176314831316102408301527f7a204d3231203136683176314832317a204d3131203137683176314831317a206102608301527f4d3231203137683176314832317a204d3132203138683176314831327a204d326102808301527f30203138683176314832307a204d3132203139683176314831327a204d3230206102a08301527f3139683176314832307a204d3131203230683176314831317a204d32312032306102c08301527f683176314832317a204d392032316832763148397a204d3232203231683276316102e08301527f4832327a204d372032326832763148377a204d3234203232683276314832347a6103008301527f204d362032336831763148367a204d3236203233683176314832367a204d35206103208301527f32346831763148357a204d3237203234683176314832377a204d3420323568316103408301527f763148347a204d3238203235683176314832387a204d332032366831763148336103608301527f7a204d3239203236683176314832397a204d332032376831763148337a204d326103808301527f39203237683176314832397a204d332032386831763148337a204d32392032386103a08301527f683176314832397a204d332032396831763148337a204d3239203239683176316103c08301527f4832397a204d332033306831763148337a204d3239203330683176314832397a6103e08301527f204d33203331683237763148337a22202f3e3c706174682066696c6c3d2223306104008301527f30303030302220643d224d3131203368313076314831317a204d3920346831346104208301527f763148397a204d392035683135763148397a204d392036683135763148397a206104408301527f4d392037683135763148397a204d3920386833763148397a204d3230203868346104608301527f76314832307a204d31302039683276314831307a204d323220396832763148326104808301527f327a204d3130203130683176314831307a204d3232203130683176314832327a6104a08301527f22202f3e3c706174682066696c6c3d22236534623539302220643d224d3132206104c08301527f38683876314831327a204d3132203968313076314831327a204d3131203130686104e08301527f313176314831317a204d3130203131683276314831307a204d313420313168346105008301527f76314831347a204d3230203131683376314832307a204d3130203132683133766105208301527f314831307a204d3131203133683476314831317a204d313720313368357631486105408301527f31377a204d313120313468313176314831317a204d31312031356833763148316105608301527f317a204d3138203135683476314831387a204d3132203136683976314831327a6105808301527f204d3132203137683976314831327a204d3133203138683776314831337a22206105a08301527f2f3e3c706174682066696c6c3d22236335393437332220643d224d31352031336105c08301527f683276314831357a204d3133203139683776314831337a204d313420323068356105e08301527f76314831347a22202f3e3c706174682066696c6c3d22236264366134662220646106008301527f3d224d3134203135683476314831347a22202f3e3c706174682066696c6c3d226106208301527f236666666666662220643d224d3132203230683276314831327a204d313920326106408301527f30683276314831397a204d3131203231683376314831317a204d3139203231686106608301527f3376314831397a204d392032326834763148397a204d323020323268347631486106808301527f32307a204d372032336835763148377a204d3231203233683576314832317a206106a08301527f4d362032346835763148367a204d3232203234683576314832327a204d3520326106c08301527f356835763148357a204d3133203235683276314831337a204d313620323568326106e08301527f76314831367a204d3139203235683276314831397a204d3233203235683576316107008301527f4832337a204d342032366835763148347a204d3234203236683576314832347a6107208301527f204d342032376834763148347a204d3235203237683476314832357a204d34206107408301527f32386834763148347a204d3235203238683476314832357a204d3420323968346107608301527f763148347a204d3235203239683476314832357a204d362033306832763148366107808301527f7a204d3235203330683276314832357a22202f3e3c706174682066696c6c3d226107a08301527f236566383131352220643d224d3134203231683576314831347a204d313320326107c08301527f32683776314831337a204d3132203233683976314831327a204d3131203234686107e08301527f313176314831317a204d3130203235683376314831307a204d313520323568316108008301527f76314831357a204d3138203235683176314831387a204d3231203235683276316108208301527f4832317a204d39203236683135763148397a204d38203237683137763148387a6108408301527f204d38203238683137763148387a204d38203239683137763148387a204d34206108608301527f33306832763148347a204d38203330683137763148387a204d32372033306832610880830152733b18a4191bbd1110179f1e17b39f1e17b9bb339f60611b6108a0830152565b6004906132756131429594611af760076131f1610b3a97609a6040519b8c987f3c67207472616e73666f726d3d227472616e736c617465283138302c2039352960208b01527f222073686170652d72656e646572696e673d2263726973704564676573223e0060408b01527f3c7465787420783d222d33302220793d223230222066696c6c3d220000000000605f8b0152607a8a01906119de565b5f5160206148fa5f395f51905f5281527f6e6f7370616365223e504c41594552204e414d453a3c2f746578743e0000000060208201527f3c7465787420783d222d33302220793d223436222066696c6c3d222365636630603c8201527f66312220666f6e742d73697a653d2232302220666f6e742d7765696768743d22605c8201527f626f6c642220666f6e742d66616d696c793d226d6f6e6f7370616365223e0000607c82015201906119de565b661e17ba32bc3a1f60c91b815201605f907f3c6c696e652078313d222d3235222079313d223638222078323d22313230222081527f79323d22363822207374726f6b653d222335353522207374726f6b652d77696460208201527f74683d223322207374726f6b652d6461736861727261793d22382c36222f3e0060408201520190565b631e17b39f60e11b815203601b19810185520183610292565b6040519161329d604084610292565b60078352602083016611999a1c9c323160c91b905281519060208301519060408401516001600160401b03166132d2906122ab565b9360608101516001600160401b03166132ea906122ab565b9060808101516001600160401b0316613302906122ab565b9060a001516001600160401b0316613319906122ab565b916040519687956020870161334d907f3c7465787420783d222d33302220793d22393222202066696c6c3d22000000009052565b61335a603c88018b6119de565b5f5160206148fa5f395f51905f5281527f6e6f7370616365223e4c414e452020203a3c2f746578743e000000000000000060208201526038017f3c7465787420783d223132302220793d22393222202066696c6c3d222365636681525f5160206148da5f395f51905f5260208201525f5160206148ba5f395f51905f526040820152605e016133e8916119de565b661e17ba32bc3a1f60c91b81527f3c7465787420783d222d33302220793d22313136222066696c6c3d22000000006007820152602301613428908a6119de565b5f5160206148fa5f395f51905f5281527f6e6f7370616365223e47414d455320203a3c2f746578743e000000000000000060208201526038017f3c7465787420783d223132302220793d22313136222066696c6c3d222365636681525f5160206148da5f395f51905f5260208201525f5160206148ba5f395f51905f526040820152605e016134b6916119de565b661e17ba32bc3a1f60c91b81527f3c7465787420783d222d33302220793d22313430222066696c6c3d220000000060078201526023016134f690896119de565b5f5160206148fa5f395f51905f5281527f6e6f7370616365223e4b494c4c5320203a3c2f746578743e000000000000000060208201526038017f3c7465787420783d223132302220793d22313430222066696c6c3d222365636681525f5160206148da5f395f51905f5260208201525f5160206148ba5f395f51905f526040820152605e01613584916119de565b661e17ba32bc3a1f60c91b81527f3c7465787420783d222d33302220793d22313634222066696c6c3d220000000060078201526023016135c490886119de565b5f5160206148fa5f395f51905f5281527f6e6f7370616365223e444541544853203a3c2f746578743e000000000000000060208201526038017f3c7465787420783d223132302220793d22313634222066696c6c3d222365636681525f5160206148da5f395f51905f5260208201525f5160206148ba5f395f51905f526040820152605e01613652916119de565b661e17ba32bc3a1f60c91b81527f3c7465787420783d222d33302220793d22313838222066696c6c3d2200000000600782015260230161369290876119de565b5f5160206148fa5f395f51905f5281527f6e6f7370616365223e415353495354533a3c2f746578743e000000000000000060208201526038017f3c7465787420783d223132302220793d22313838222066696c6c3d222365636681525f5160206148da5f395f51905f5260208201525f5160206148ba5f395f51905f526040820152605e01613720916119de565b661e17ba32bc3a1f60c91b81527f3c7465787420783d222d33302220793d22323132222066696c6c3d2200000000600782015260230161376090866119de565b5f5160206148fa5f395f51905f5281527f6e6f7370616365223e4b4441202020203a3c2f746578743e000000000000000060208201526038017f3c7465787420783d223132302220793d22323132222066696c6c3d222365636681525f5160206148da5f395f51905f5260208201525f5160206148ba5f395f51905f526040820152605e016137ee916119de565b661e17ba32bc3a1f60c91b81527f3c6c696e652078313d222d3330222079313d22323238222078323d223132302260078201527f2079323d2232323822207374726f6b653d222335353522207374726f6b652d7760278201527f696474683d223322207374726f6b652d6461736861727261793d22382c36222f6047820152601f60f91b606782015260680103601f198101835261388c9083610292565b6104fb926130a7565b9081602091031261031257516104fb8161042b565b6001600160a01b0391821681529116602082015260408101919091526080606082018190526104fb929101906104c6565b6040513d5f823e3d90fd5b3d15613910573d906138f7826102b3565b916139056040519384610292565b82523d5f602084013e565b606090565b9092833b613924575b50505050565b604051630a85bd0160e11b81529260209284928392613948925f90600486016138aa565b03815f6001600160a01b0387165af15f91816139d5575b50613999575061396d6138e6565b805191908261399257633250574960e11b5f526001600160a01b03821660045260245ffd5b6020915001fd5b6001600160e01b03191663757a42ff60e11b016139ba57505f80808061391e565b633250574960e11b5f526001600160a01b031660045260245ffd5b6139f891925060203d6020116139ff575b6139f08183610292565b810190613895565b905f61395f565b503d6139e6565b939193843b613a17575b5050505050565b613a386020936040519586948594630a85bd0160e11b8652600486016138aa565b03815f6001600160a01b0387165af15f9181613a7f575b50613a5d575061396d6138e6565b6001600160e01b03191663757a42ff60e11b016139ba57505f80808080613a10565b613a9991925060203d6020116139ff576139f08183610292565b905f613a4f565b9060405190613ab0602083610292565b5f82526001600160a01b038316801561189b575f828152600260205260409020546001600160a01b031680151591839083613b61575b6001600160a01b0387165f90815260036020526040902060018154019055613b1a876106bf845f52600260205260405f2090565b827fddf252ad1be2c89b69c2b068fc378daa952ba7f163c4a11628f55a4df523b3ef5f80a450613b4e57610b3a9233613915565b6339e3563760e11b5f525f60045260245ffd5b613b6a82613b8d565b6001600160a01b0383165f90815260036020526040902080545f19019055613ae6565b613b9f905f52600460205260405f2090565b80546001600160a01b0319169055565b909190613bcd6001600160a01b0384168015159081613c1557501590565b613bd657505050565b6001600160a01b0316613bf557637e27328960e01b5f5260045260245ffd5b63177e802f60e01b5f526001600160a01b0390911660045260245260445ffd5b6001600160a01b03841680821492508215613c55575b508115613c3757501590565b5f858152600460205260409020546001600160a01b03161415919050565b9091505f52600560205260ff613c7e8660405f209060018060a01b03165f5260205260405f2090565b5416905f613c2b565b815115613c945760a00152565b63fe936cb760e01b5f5260045ffd5b60405190613cb2604083610292565b600c82526b31b7b232a637b1b0ba34b7b760a11b6020830152565b634e487b7160e01b5f52602160045260245ffd5b60031115613ceb57565b613ccd565b60405190613cff604083610292565b60088252676c616e677561676560c01b6020830152565b60011115613ceb57565b60405190613d2f604083610292565b6006825265736f7572636560d01b6020830152565b60405190613d53604083610292565b60048252636172677360e01b6020830152565b60405190613d75604083610292565b600f82526e39b2b1b932ba39a637b1b0ba34b7b760891b6020830152565b60405190613da2604083610292565b60078252667365637265747360c81b6020830152565b60405190613dc7604083610292565b600982526862797465734172677360b81b6020830152565b613de76141f0565b90613df9613df3613ca3565b83614220565b613e168151613e0781613ce1565b613e1081613ce1565b83614309565b613e21613df3613cf0565b613e3b6040820151613e3281613d16565b613e1081613d16565b613e46613df3613d20565b613e54606082015183614220565b60a08101805151613f50575b506080810190815151613ed3575b60c0915001805151613e81575b50515190565b91613e8d613df3613db8565b613e9682614336565b5f5b83518051821015613ec05790613eba613eb382600194612173565b518561437a565b01613e98565b50509150613ecd81614358565b5f613e7b565b602081018051613ee281613ce1565b613eeb81613ce1565b15613f415760c092613f24613f3c92613f0b613f05613d66565b88614220565b51613f1581613ce1565b613f1e81613ce1565b86614309565b613f35613f2f613d93565b86614220565b518461437a565b613e6e565b63a80d31f760e01b5f5260045ffd5b92613f62613f5c613d44565b84614220565b613f6b83614336565b5f5b84518051821015613f955790613f8f613f8882600194612173565b5186614220565b01613f6d565b50509250613fa282614358565b5f613e60565b916020916001600160401b0391613fe1604051958694859463230e93b160e11b865216600485015260a0602485015260a48401906104c6565b60016044840152620493e06064840152608483019190915203815f7f00000000000000000000000000000000000000000000000000000000000000006001600160a01b03165af190811561408e575f9161405f575b50807f1131472297a800fee664d1d89cfa8f7676ff07189ecc53f80bbb5f4969099db85f80a290565b614081915060203d602011614087575b6140798183610292565b810190612104565b5f614036565b503d61406f565b6138db565b908151156141a8576140b76140b26140ab8451611953565b6003900490565b611992565b90604051917f4142434445464748494a4b4c4d4e4f505152535455565758595a616263646566601f527f6768696a6b6c6d6e6f707172737475767778797a303132333435363738392b2f603f52602083018480518101602081018051915f82525b80891061416c57506020959697509060039291525106806001146141575760021461414a575b50808452830101604052565b603d905f1901535f61413e565b50603d90815f1982015360011901535f61413e565b939760036004910198603f8a51818160121c165183538181600c1c16516001840153818160061c16516002840153165160038201530193614118565b90506104fb6118ae565b8151156141c8575f808252604082015260600152565b6322ce3edd60e01b5f5260045ffd5b604051906141e482610277565b5f602083606081520152565b6040516141fc81610277565b5f6142056141d7565b80835261421b6101006020850192848452614413565b505290565b81516142719291906001600160401b03166017811161427457815161425c916142569061424f60605b60ff1690565b1760ff1690565b90614593565b505b51906142686141d7565b508051916147fd565b50565b60ff81116142a157815161429b919061429390601860605b1790614593565b50825161477d565b5061425e565b61ffff81116142c657815161429b91906142be906019606061428c565b508251614704565b63ffffffff81116142ed57815161429b91906142e590601a606061428c565b50825161468b565b815161429b919061430190601b606061428c565b50825161460d565b90610b3a916143188151614523565b5060405191602083015260208252614331604083610292565b61437a565b602090614345609f8251614593565b500180519060018201809211610ea35752565b60209061436760ff8251614593565b500180515f19810191908211610ea35752565b81516142719291906001600160401b0316601781116143a757815161425c916142569061424f6040614249565b60ff81116143c357815161429b9190614293906018604061428c565b61ffff81116143e057815161429b91906142be906019604061428c565b63ffffffff81116143ff57815161429b91906142e590601a604061428c565b815161429b919061430190601b604061428c565b9061441c6141d7565b50601f81168061444a575b50806020830152604051908183525f825281016020019081106103125760405290565b60200360208111610ea3578101809111610ea3575f614427565b9061446d6141d7565b5080516144786141d7565b5061448682518211156147f6565b82515191614494828461196f565b906020850151821161450c575b602091855183815196820101958211614504575b505001905b60208110156144de575f19906020036101000a019081199051169082511617905290565b90916144f96144f36144ff9285518152611961565b93611961565b916118d6565b6144ba565b525f806144b5565b61451e614518836119aa565b866148a2565b6144a1565b61452b6141d7565b508051516001810190818111610ea3576020830151811015614564575b60c26020845192830101538051821161456057505090565b5290565b8160011b82810460021483151715610ea35761458d9061458685519186614413565b5084614464565b50614548565b9061459c6141d7565b508151516001810191828211610ea35760208401518210156145cf575b6020845192830101538051821161456057505090565b8260011b83810460021484151715610ea3576145f8906145f186519187614413565b5085614464565b506145b9565b601f8111610ea3576101000a90565b906146166141d7565b50815151806008019182600811610ea35760208401518311614663575b61464561464060086145fe565b6118e5565b90600885519384010191198251161790528051821161456057505090565b8260011b83810460021484151715610ea357614685906145f186519187614413565b50614633565b906146946141d7565b50815151806004019182600411610ea357602084015183116146dc575b6146be61464060046145fe565b90600485519384010191198251161790528051821161456057505090565b8260011b83810460021484151715610ea3576146fe906145f186519187614413565b506146b1565b9061470d6141d7565b50815151806002019182600211610ea35760208401518311614755575b61473761464060026145fe565b90600285519384010191198251161790528051821161456057505090565b8260011b83810460021484151715610ea357614777906145f186519187614413565b5061472a565b906147866141d7565b50815151806001019182600111610ea357602084015183116147ce575b6147b061464060016145fe565b90600185519384010191198251161790528051821161456057505090565b8260011b83810460021484151715610ea3576147f0906145f186519187614413565b506147a3565b1561031257565b916148066141d7565b5061481482518211156147f6565b602083515192614824838561196f565b82860151811161488b575b855183815196820101958211614883575b505001905b6020811015614869575f19906020036101000a019081199051169082511617905290565b90916144f96144f361487e9285518152611961565b614845565b525f80614840565b61489d614897826119aa565b876148a2565b61482f565b90614271916148b381519282614413565b5061446456fe22656e642220666f6e742d66616d696c793d226d6f6e6f7370616365223e00003066312220666f6e742d73697a653d2231332220746578742d616e63686f723d2220666f6e742d73697a653d2231332220666f6e742d66616d696c793d226d6fa26469706673582212209c5d783353613468bb2480484d4d772728c4e95c578e42be5e22ef702fd277c464736f6c634300081e0033",
			"opcodes": "PUSH1 0xA0 PUSH1 0x40 MSTORE CALLVALUE PUSH2 0x416 JUMPI PUSH2 0x4D8F PUSH1 0x20 DUP2 CODESIZE SUB SWAP2 DUP3 PUSH2 0x1C DUP2 PUSH2 0x41A JUMP JUMPDEST SWAP4 DUP5 SWAP3 DUP4 CODECOPY DUP2 ADD SUB SLT PUSH2 0x416 JUMPI MLOAD PUSH1 0x1 PUSH1 0x1 PUSH1 0x40 SHL SUB DUP2 AND SWAP1 DUP2 SWAP1 SUB PUSH2 0x416 JUMPI PUSH1 0x9 SLOAD PUSH1 0x1 PUSH1 0x1 PUSH1 0xA0 SHL SUB AND SWAP1 PUSH2 0x53 PUSH1 0x40 PUSH2 0x41A JUMP JUMPDEST SWAP2 PUSH1 0xF DUP4 MSTORE PUSH15 0x13541308141B185E595C8810D85C99 PUSH1 0x8A SHL PUSH1 0x20 DUP5 ADD MSTORE PUSH2 0x7A PUSH1 0x40 PUSH2 0x41A JUMP JUMPDEST PUSH1 0x5 DUP2 MSTORE PUSH5 0x4D504C5043 PUSH1 0xD8 SHL PUSH1 0x20 DUP3 ADD MSTORE DUP4 MLOAD SWAP1 SWAP3 SWAP1 PUSH1 0x1 PUSH1 0x1 PUSH1 0x40 SHL SUB DUP2 GT PUSH2 0x32A JUMPI PUSH0 SLOAD PUSH1 0x1 DUP2 DUP2 SHR SWAP2 AND DUP1 ISZERO PUSH2 0x40C JUMPI JUMPDEST PUSH1 0x20 DUP3 LT EQ PUSH2 0x30C JUMPI PUSH1 0x1F DUP2 GT PUSH2 0x3AA JUMPI JUMPDEST POP PUSH1 0x20 SWAP5 PUSH1 0x1F DUP3 GT PUSH1 0x1 EQ PUSH2 0x349 JUMPI SWAP5 DUP2 SWAP3 SWAP4 SWAP5 SWAP6 PUSH0 SWAP3 PUSH2 0x33E JUMPI JUMPDEST POP POP DUP2 PUSH1 0x1 SHL SWAP2 PUSH0 NOT SWAP1 PUSH1 0x3 SHL SHR NOT AND OR PUSH0 SSTORE JUMPDEST DUP3 MLOAD PUSH1 0x1 PUSH1 0x1 PUSH1 0x40 SHL SUB DUP2 GT PUSH2 0x32A JUMPI PUSH1 0x1 SLOAD PUSH1 0x1 DUP2 DUP2 SHR SWAP2 AND DUP1 ISZERO PUSH2 0x320 JUMPI JUMPDEST PUSH1 0x20 DUP3 LT EQ PUSH2 0x30C JUMPI PUSH1 0x1F DUP2 GT PUSH2 0x2A9 JUMPI JUMPDEST POP PUSH1 0x20 PUSH1 0x1F DUP3 GT PUSH1 0x1 EQ PUSH2 0x246 JUMPI DUP2 SWAP3 SWAP4 SWAP5 PUSH0 SWAP3 PUSH2 0x23B JUMPI JUMPDEST POP POP DUP2 PUSH1 0x1 SHL SWAP2 PUSH0 NOT SWAP1 PUSH1 0x3 SHL SHR NOT AND OR PUSH1 0x1 SSTORE JUMPDEST CALLER ISZERO PUSH2 0x228 JUMPI PUSH1 0x7 DUP1 SLOAD CALLER PUSH1 0x1 PUSH1 0x1 PUSH1 0xA0 SHL SUB NOT DUP3 AND DUP2 OR SWAP1 SWAP3 SSTORE PUSH1 0x40 MLOAD SWAP4 SWAP2 SWAP1 PUSH1 0x1 PUSH1 0x1 PUSH1 0xA0 SHL SUB AND PUSH32 0x8BE0079C531659141344CD1FD0A4F28419497F9722A3DAAFE3B4186F6B6457E0 PUSH0 DUP1 LOG3 PUSH1 0x80 MSTORE PUSH1 0x9 DUP1 SLOAD PUSH1 0x1 PUSH1 0x1 PUSH1 0xA0 SHL SUB NOT AND PUSH20 0xB83E47C2BC239B3BF370BC41E1459A34B41238D0 OR SWAP1 SSTORE PUSH32 0x66756E2D657468657265756D2D7365706F6C69612D3100000000000000000000 PUSH1 0xA SSTORE PUSH3 0x15180 PUSH1 0xE SSTORE PUSH1 0xB DUP1 SLOAD PUSH1 0x1 PUSH1 0x1 PUSH1 0x40 SHL SUB NOT AND SWAP2 SWAP1 SWAP2 OR SWAP1 SSTORE TIMESTAMP PUSH1 0xD SSTORE PUSH2 0x494F SWAP1 DUP2 PUSH2 0x440 DUP3 CODECOPY PUSH1 0x80 MLOAD DUP2 DUP2 DUP2 PUSH2 0x7BE ADD MSTORE PUSH2 0x3FFE ADD MSTORE RETURN JUMPDEST PUSH4 0x1E4FBDF7 PUSH1 0xE0 SHL PUSH0 MSTORE PUSH0 PUSH1 0x4 MSTORE PUSH1 0x24 PUSH0 REVERT JUMPDEST ADD MLOAD SWAP1 POP PUSH0 DUP1 PUSH2 0x13D JUMP JUMPDEST PUSH1 0x1F NOT DUP3 AND SWAP1 PUSH1 0x1 PUSH0 MSTORE DUP1 PUSH0 KECCAK256 SWAP2 PUSH0 JUMPDEST DUP2 DUP2 LT PUSH2 0x291 JUMPI POP SWAP6 DUP4 PUSH1 0x1 SWAP6 SWAP7 SWAP8 LT PUSH2 0x279 JUMPI JUMPDEST POP POP POP DUP2 SHL ADD PUSH1 0x1 SSTORE PUSH2 0x152 JUMP JUMPDEST ADD MLOAD PUSH0 NOT PUSH1 0xF8 DUP5 PUSH1 0x3 SHL AND SHR NOT AND SWAP1 SSTORE PUSH0 DUP1 DUP1 PUSH2 0x26B JUMP JUMPDEST SWAP2 SWAP3 PUSH1 0x20 PUSH1 0x1 DUP2 SWAP3 DUP7 DUP12 ADD MLOAD DUP2 SSTORE ADD SWAP5 ADD SWAP3 ADD PUSH2 0x256 JUMP JUMPDEST PUSH1 0x1 PUSH0 MSTORE PUSH32 0xB10E2D527612073B26EECDFD717E6A320CF44B4AFAC2B0732D9FCBE2B7FA0CF6 PUSH1 0x1F DUP4 ADD PUSH1 0x5 SHR DUP2 ADD SWAP2 PUSH1 0x20 DUP5 LT PUSH2 0x302 JUMPI JUMPDEST PUSH1 0x1F ADD PUSH1 0x5 SHR ADD SWAP1 JUMPDEST DUP2 DUP2 LT PUSH2 0x2F7 JUMPI POP PUSH2 0x124 JUMP JUMPDEST PUSH0 DUP2 SSTORE PUSH1 0x1 ADD PUSH2 0x2EA JUMP JUMPDEST SWAP1 SWAP2 POP DUP2 SWAP1 PUSH2 0x2E1 JUMP JUMPDEST PUSH4 0x4E487B71 PUSH1 0xE0 SHL PUSH0 MSTORE PUSH1 0x22 PUSH1 0x4 MSTORE PUSH1 0x24 PUSH0 REVERT JUMPDEST SWAP1 PUSH1 0x7F AND SWAP1 PUSH2 0x112 JUMP JUMPDEST PUSH4 0x4E487B71 PUSH1 0xE0 SHL PUSH0 MSTORE PUSH1 0x41 PUSH1 0x4 MSTORE PUSH1 0x24 PUSH0 REVERT JUMPDEST ADD MLOAD SWAP1 POP PUSH0 DUP1 PUSH2 0xDD JUMP JUMPDEST PUSH1 0x1F NOT DUP3 AND SWAP6 PUSH0 DUP1 MSTORE DUP1 PUSH0 KECCAK256 SWAP2 PUSH0 JUMPDEST DUP9 DUP2 LT PUSH2 0x392 JUMPI POP DUP4 PUSH1 0x1 SWAP6 SWAP7 SWAP8 SWAP9 LT PUSH2 0x37A JUMPI JUMPDEST POP POP POP DUP2 SHL ADD PUSH0 SSTORE PUSH2 0xF1 JUMP JUMPDEST ADD MLOAD PUSH0 NOT PUSH1 0xF8 DUP5 PUSH1 0x3 SHL AND SHR NOT AND SWAP1 SSTORE PUSH0 DUP1 DUP1 PUSH2 0x36D JUMP JUMPDEST SWAP2 SWAP3 PUSH1 0x20 PUSH1 0x1 DUP2 SWAP3 DUP7 DUP6 ADD MLOAD DUP2 SSTORE ADD SWAP5 ADD SWAP3 ADD PUSH2 0x358 JUMP JUMPDEST PUSH0 DUP1 MSTORE PUSH32 0x290DECD9548B62A8D60345A988386FC84BA6BC95484008F6362F93160EF3E563 PUSH1 0x1F DUP4 ADD PUSH1 0x5 SHR DUP2 ADD SWAP2 PUSH1 0x20 DUP5 LT PUSH2 0x402 JUMPI JUMPDEST PUSH1 0x1F ADD PUSH1 0x5 SHR ADD SWAP1 JUMPDEST DUP2 DUP2 LT PUSH2 0x3F7 JUMPI POP PUSH2 0xC1 JUMP JUMPDEST PUSH0 DUP2 SSTORE PUSH1 0x1 ADD PUSH2 0x3EA JUMP JUMPDEST SWAP1 SWAP2 POP DUP2 SWAP1 PUSH2 0x3E1 JUMP JUMPDEST SWAP1 PUSH1 0x7F AND SWAP1 PUSH2 0xAF JUMP JUMPDEST PUSH0 DUP1 REVERT JUMPDEST PUSH1 0x40 MLOAD SWAP2 SWAP1 PUSH1 0x1F ADD PUSH1 0x1F NOT AND DUP3 ADD PUSH1 0x1 PUSH1 0x1 PUSH1 0x40 SHL SUB DUP2 GT DUP4 DUP3 LT OR PUSH2 0x32A JUMPI PUSH1 0x40 MSTORE JUMP INVALID PUSH1 0x80 PUSH1 0x40 MSTORE PUSH1 0x4 CALLDATASIZE LT ISZERO PUSH2 0x11 JUMPI PUSH0 DUP1 REVERT JUMPDEST PUSH0 CALLDATALOAD PUSH1 0xE0 SHR DUP1 PUSH3 0xB46767 EQ PUSH2 0x223 JUMPI DUP1 PUSH4 0x1FFC9A7 EQ PUSH2 0x21E JUMPI DUP1 PUSH4 0x6FDDE03 EQ PUSH2 0x219 JUMPI DUP1 PUSH4 0x81812FC EQ PUSH2 0x214 JUMPI DUP1 PUSH4 0x95EA7B3 EQ PUSH2 0x20F JUMPI DUP1 PUSH4 0x9C1BA2E EQ PUSH2 0x20A JUMPI DUP1 PUSH4 0xCA76175 EQ PUSH2 0x205 JUMPI DUP1 PUSH4 0x13C60177 EQ PUSH2 0x200 JUMPI DUP1 PUSH4 0x20457FB6 EQ PUSH2 0x1FB JUMPI DUP1 PUSH4 0x22E817E2 EQ PUSH2 0x1F6 JUMPI DUP1 PUSH4 0x23B872DD EQ PUSH2 0x1F1 JUMPI DUP1 PUSH4 0x2839B78F EQ PUSH2 0x1EC JUMPI DUP1 PUSH4 0x3F3B3B27 EQ PUSH2 0x1E7 JUMPI DUP1 PUSH4 0x42842E0E EQ PUSH2 0x1E2 JUMPI DUP1 PUSH4 0x4585E33B EQ PUSH2 0x1DD JUMPI DUP1 PUSH4 0x6352211E EQ PUSH2 0x1D8 JUMPI DUP1 PUSH4 0x68015A4B EQ PUSH2 0x1D3 JUMPI DUP1 PUSH4 0x6DCEE4CA EQ PUSH2 0x1CE JUMPI DUP1 PUSH4 0x6E04FF0D EQ PUSH2 0x1C9 JUMPI DUP1 PUSH4 0x70A08231 EQ PUSH2 0x1C4 JUMPI DUP1 PUSH4 0x715018A6 EQ PUSH2 0x1BF JUMPI DUP1 PUSH4 0x8DA5CB5B EQ PUSH2 0x1BA JUMPI DUP1 PUSH4 0x947A36FB EQ PUSH2 0x1B5 JUMPI DUP1 PUSH4 0x94881476 EQ PUSH2 0x1B0 JUMPI DUP1 PUSH4 0x95D89B41 EQ PUSH2 0x1AB JUMPI DUP1 PUSH4 0xA22CB465 EQ PUSH2 0x1A6 JUMPI DUP1 PUSH4 0xB4CFAE44 EQ PUSH2 0x1A1 JUMPI DUP1 PUSH4 0xB88D4FDE EQ PUSH2 0x19C JUMPI DUP1 PUSH4 0xC87B56DD EQ PUSH2 0x197 JUMPI DUP1 PUSH4 0xE049D709 EQ PUSH2 0x192 JUMPI DUP1 PUSH4 0xE985E9C5 EQ PUSH2 0x18D JUMPI DUP1 PUSH4 0xECA81D42 EQ PUSH2 0x188 JUMPI PUSH4 0xF2FDE38B EQ PUSH2 0x183 JUMPI PUSH0 DUP1 REVERT JUMPDEST PUSH2 0x156D JUMP JUMPDEST PUSH2 0x14AD JUMP JUMPDEST PUSH2 0x1451 JUMP JUMPDEST PUSH2 0x1435 JUMP JUMPDEST PUSH2 0x12F6 JUMP JUMPDEST PUSH2 0x12A2 JUMP JUMPDEST PUSH2 0x1205 JUMP JUMPDEST PUSH2 0x1137 JUMP JUMPDEST PUSH2 0x1092 JUMP JUMPDEST PUSH2 0x1075 JUMP JUMPDEST PUSH2 0x1058 JUMP JUMPDEST PUSH2 0x1030 JUMP JUMPDEST PUSH2 0xFD5 JUMP JUMPDEST PUSH2 0xF84 JUMP JUMPDEST PUSH2 0xF21 JUMP JUMPDEST PUSH2 0xF02 JUMP JUMPDEST PUSH2 0xED8 JUMP JUMPDEST PUSH2 0xEA8 JUMP JUMPDEST PUSH2 0xE59 JUMP JUMPDEST PUSH2 0xDD5 JUMP JUMPDEST PUSH2 0xDB8 JUMP JUMPDEST PUSH2 0xD72 JUMP JUMPDEST PUSH2 0xD5B JUMP JUMPDEST PUSH2 0xCB6 JUMP JUMPDEST PUSH2 0xC87 JUMP JUMPDEST PUSH2 0xC58 JUMP JUMPDEST PUSH2 0x76A JUMP JUMPDEST PUSH2 0x744 JUMP JUMPDEST PUSH2 0x63D JUMP JUMPDEST PUSH2 0x5D5 JUMP JUMPDEST PUSH2 0x4FE JUMP JUMPDEST PUSH2 0x43D JUMP JUMPDEST PUSH2 0x316 JUMP JUMPDEST PUSH4 0x4E487B71 PUSH1 0xE0 SHL PUSH0 MSTORE PUSH1 0x41 PUSH1 0x4 MSTORE PUSH1 0x24 PUSH0 REVERT JUMPDEST PUSH1 0xC0 DUP2 ADD SWAP1 DUP2 LT PUSH1 0x1 PUSH1 0x1 PUSH1 0x40 SHL SUB DUP3 GT OR PUSH2 0x257 JUMPI PUSH1 0x40 MSTORE JUMP JUMPDEST PUSH2 0x228 JUMP JUMPDEST PUSH1 0xE0 DUP2 ADD SWAP1 DUP2 LT PUSH1 0x1 PUSH1 0x1 PUSH1 0x40 SHL SUB DUP3 GT OR PUSH2 0x257 JUMPI PUSH1 0x40 MSTORE JUMP JUMPDEST PUSH1 0x40 DUP2 ADD SWAP1 DUP2 LT PUSH1 0x1 PUSH1 0x1 PUSH1 0x40 SHL SUB DUP3 GT OR PUSH2 0x257 JUMPI PUSH1 0x40 MSTORE JUMP JUMPDEST SWAP1 PUSH1 0x1F DUP1 NOT SWAP2 ADD AND DUP2 ADD SWAP1 DUP2 LT PUSH1 0x1 PUSH1 0x1 PUSH1 0x40 SHL SUB DUP3 GT OR PUSH2 0x257 JUMPI PUSH1 0x40 MSTORE JUMP JUMPDEST PUSH1 0x1 PUSH1 0x1 PUSH1 0x40 SHL SUB DUP2 GT PUSH2 0x257 JUMPI PUSH1 0x1F ADD PUSH1 0x1F NOT AND PUSH1 0x20 ADD SWAP1 JUMP JUMPDEST DUP2 PUSH1 0x1F DUP3 ADD SLT ISZERO PUSH2 0x312 JUMPI PUSH1 0x20 DUP2 CALLDATALOAD SWAP2 ADD PUSH2 0x2E8 DUP3 PUSH2 0x2B3 JUMP JUMPDEST SWAP3 PUSH2 0x2F6 PUSH1 0x40 MLOAD SWAP5 DUP6 PUSH2 0x292 JUMP JUMPDEST DUP3 DUP5 MSTORE DUP3 DUP3 ADD GT PUSH2 0x312 JUMPI DUP2 PUSH0 SWAP3 PUSH1 0x20 SWAP3 DUP4 DUP7 ADD CALLDATACOPY DUP4 ADD ADD MSTORE SWAP1 JUMP JUMPDEST PUSH0 DUP1 REVERT JUMPDEST CALLVALUE PUSH2 0x312 JUMPI PUSH1 0x20 CALLDATASIZE PUSH1 0x3 NOT ADD SLT PUSH2 0x312 JUMPI PUSH1 0x4 CALLDATALOAD PUSH1 0x1 PUSH1 0x1 PUSH1 0x40 SHL SUB DUP2 GT PUSH2 0x312 JUMPI PUSH2 0x346 SWAP1 CALLDATASIZE SWAP1 PUSH1 0x4 ADD PUSH2 0x2CE JUMP JUMPDEST PUSH2 0x34E PUSH2 0x20A9 JUMP JUMPDEST DUP1 MLOAD PUSH1 0x1 PUSH1 0x1 PUSH1 0x40 SHL SUB DUP2 GT PUSH2 0x257 JUMPI PUSH2 0x372 DUP2 PUSH2 0x36D PUSH1 0xC SLOAD PUSH2 0xACB JUMP JUMPDEST PUSH2 0x15F3 JUMP JUMPDEST PUSH1 0x20 SWAP2 PUSH1 0x1F DUP3 GT PUSH1 0x1 EQ PUSH2 0x3B0 JUMPI PUSH2 0x3A0 SWAP3 PUSH0 SWAP2 DUP4 PUSH2 0x3A5 JUMPI JUMPDEST POP POP DUP2 PUSH1 0x1 SHL SWAP2 PUSH0 NOT SWAP1 PUSH1 0x3 SHL SHR NOT AND OR SWAP1 JUMP JUMPDEST PUSH1 0xC SSTORE STOP JUMPDEST ADD MLOAD SWAP1 POP PUSH0 DUP1 PUSH2 0x38C JUMP JUMPDEST PUSH1 0xC PUSH0 MSTORE PUSH1 0x1F NOT DUP3 AND SWAP3 PUSH32 0xDF6966C971051C3D54EC59162606531493A51404A002842F56009D7E5CF4A8C7 SWAP2 PUSH0 JUMPDEST DUP6 DUP2 LT PUSH2 0x413 JUMPI POP DUP4 PUSH1 0x1 SWAP6 LT PUSH2 0x3FB JUMPI JUMPDEST POP POP POP DUP2 SHL ADD PUSH1 0xC SSTORE STOP JUMPDEST ADD MLOAD PUSH0 NOT PUSH1 0xF8 DUP5 PUSH1 0x3 SHL AND SHR NOT AND SWAP1 SSTORE PUSH0 DUP1 DUP1 PUSH2 0x3F0 JUMP JUMPDEST SWAP2 SWAP3 PUSH1 0x20 PUSH1 0x1 DUP2 SWAP3 DUP7 DUP6 ADD MLOAD DUP2 SSTORE ADD SWAP5 ADD SWAP3 ADD PUSH2 0x3DE JUMP JUMPDEST PUSH1 0x1 PUSH1 0x1 PUSH1 0xE0 SHL SUB NOT DUP2 AND SUB PUSH2 0x312 JUMPI JUMP JUMPDEST CALLVALUE PUSH2 0x312 JUMPI PUSH1 0x20 CALLDATASIZE PUSH1 0x3 NOT ADD SLT PUSH2 0x312 JUMPI PUSH1 0x4 CALLDATALOAD PUSH2 0x45A DUP2 PUSH2 0x42B JUMP JUMPDEST PUSH4 0xFFFFFFFF PUSH1 0xE0 SHL AND PUSH4 0x24832483 PUSH1 0xE1 SHL DUP2 EQ SWAP1 DUP2 ISZERO PUSH2 0x483 JUMPI JUMPDEST POP PUSH1 0x40 MLOAD SWAP1 ISZERO ISZERO DUP2 MSTORE PUSH1 0x20 SWAP1 RETURN JUMPDEST PUSH4 0x80AC58CD PUSH1 0xE0 SHL DUP2 EQ SWAP2 POP DUP2 ISZERO PUSH2 0x4B5 JUMPI JUMPDEST DUP2 ISZERO PUSH2 0x4A4 JUMPI JUMPDEST POP PUSH0 PUSH2 0x475 JUMP JUMPDEST PUSH4 0x1FFC9A7 PUSH1 0xE0 SHL EQ SWAP1 POP PUSH0 PUSH2 0x49D JUMP JUMPDEST PUSH4 0x5B5E139F PUSH1 0xE0 SHL DUP2 EQ SWAP2 POP PUSH2 0x496 JUMP JUMPDEST DUP1 MLOAD DUP1 DUP4 MSTORE PUSH1 0x20 SWAP3 SWAP2 DUP2 SWAP1 DUP5 ADD DUP5 DUP5 ADD MCOPY PUSH0 DUP3 DUP3 ADD DUP5 ADD MSTORE PUSH1 0x1F ADD PUSH1 0x1F NOT AND ADD ADD SWAP1 JUMP JUMPDEST SWAP1 PUSH1 0x20 PUSH2 0x4FB SWAP3 DUP2 DUP2 MSTORE ADD SWAP1 PUSH2 0x4C6 JUMP JUMPDEST SWAP1 JUMP JUMPDEST CALLVALUE PUSH2 0x312 JUMPI PUSH0 CALLDATASIZE PUSH1 0x3 NOT ADD SLT PUSH2 0x312 JUMPI PUSH1 0x40 MLOAD PUSH0 PUSH0 SLOAD PUSH2 0x51D DUP2 PUSH2 0xACB JUMP JUMPDEST DUP1 DUP5 MSTORE SWAP1 PUSH1 0x1 DUP2 AND SWAP1 DUP2 ISZERO PUSH2 0x5B1 JUMPI POP PUSH1 0x1 EQ PUSH2 0x555 JUMPI JUMPDEST PUSH2 0x551 DUP4 PUSH2 0x545 DUP2 DUP6 SUB DUP3 PUSH2 0x292 JUMP JUMPDEST PUSH1 0x40 MLOAD SWAP2 DUP3 SWAP2 DUP3 PUSH2 0x4EA JUMP JUMPDEST SUB SWAP1 RETURN JUMPDEST PUSH0 DUP1 DUP1 MSTORE PUSH32 0x290DECD9548B62A8D60345A988386FC84BA6BC95484008F6362F93160EF3E563 SWAP4 SWAP3 POP SWAP1 JUMPDEST DUP1 DUP3 LT PUSH2 0x597 JUMPI POP SWAP1 SWAP2 POP DUP2 ADD PUSH1 0x20 ADD PUSH2 0x545 PUSH2 0x535 JUMP JUMPDEST SWAP2 SWAP3 PUSH1 0x1 DUP2 PUSH1 0x20 SWAP3 SLOAD DUP4 DUP6 DUP9 ADD ADD MSTORE ADD SWAP2 ADD SWAP1 SWAP3 SWAP2 PUSH2 0x57F JUMP JUMPDEST PUSH1 0xFF NOT AND PUSH1 0x20 DUP1 DUP7 ADD SWAP2 SWAP1 SWAP2 MSTORE SWAP2 ISZERO ISZERO PUSH1 0x5 SHL DUP5 ADD SWAP1 SWAP2 ADD SWAP2 POP PUSH2 0x545 SWAP1 POP PUSH2 0x535 JUMP JUMPDEST CALLVALUE PUSH2 0x312 JUMPI PUSH1 0x20 CALLDATASIZE PUSH1 0x3 NOT ADD SLT PUSH2 0x312 JUMPI PUSH1 0x4 CALLDATALOAD PUSH2 0x5F2 DUP2 PUSH2 0x20D0 JUMP JUMPDEST POP PUSH0 MSTORE PUSH1 0x4 PUSH1 0x20 MSTORE PUSH1 0x20 PUSH1 0x1 DUP1 PUSH1 0xA0 SHL SUB PUSH1 0x40 PUSH0 KECCAK256 SLOAD AND PUSH1 0x40 MLOAD SWAP1 DUP2 MSTORE RETURN JUMPDEST PUSH1 0x4 CALLDATALOAD SWAP1 PUSH1 0x1 PUSH1 0x1 PUSH1 0xA0 SHL SUB DUP3 AND DUP3 SUB PUSH2 0x312 JUMPI JUMP JUMPDEST PUSH1 0x24 CALLDATALOAD SWAP1 PUSH1 0x1 PUSH1 0x1 PUSH1 0xA0 SHL SUB DUP3 AND DUP3 SUB PUSH2 0x312 JUMPI JUMP JUMPDEST CALLVALUE PUSH2 0x312 JUMPI PUSH1 0x40 CALLDATASIZE PUSH1 0x3 NOT ADD SLT PUSH2 0x312 JUMPI PUSH2 0x656 PUSH2 0x611 JUMP JUMPDEST PUSH1 0x24 CALLDATALOAD SWAP1 PUSH2 0x663 DUP3 PUSH2 0x20D0 JUMP JUMPDEST CALLER ISZERO ISZERO DUP1 PUSH2 0x731 JUMPI JUMPDEST DUP1 PUSH2 0x6F3 JUMPI JUMPDEST PUSH2 0x6E0 JUMPI PUSH2 0x6DE SWAP3 PUSH2 0x6BF SWAP2 DUP2 SWAP1 PUSH1 0x1 PUSH1 0x1 PUSH1 0xA0 SHL SUB DUP6 DUP2 AND SWAP2 AND PUSH32 0x8C5BE1E5EBEC7D5BD14F71427D1E84F3DD0314C0F7B2291E5B200AC8C7C3B925 PUSH0 DUP1 LOG4 PUSH0 MSTORE PUSH1 0x4 PUSH1 0x20 MSTORE PUSH1 0x40 PUSH0 KECCAK256 SWAP1 JUMP JUMPDEST DUP1 SLOAD PUSH1 0x1 PUSH1 0x1 PUSH1 0xA0 SHL SUB NOT AND PUSH1 0x1 PUSH1 0x1 PUSH1 0xA0 SHL SUB SWAP1 SWAP3 AND SWAP2 SWAP1 SWAP2 OR SWAP1 SSTORE JUMP JUMPDEST STOP JUMPDEST PUSH4 0xA9FBF51F PUSH1 0xE0 SHL PUSH0 MSTORE CALLER PUSH1 0x4 MSTORE PUSH1 0x24 PUSH0 REVERT JUMPDEST POP PUSH1 0xFF PUSH2 0x729 CALLER PUSH2 0x714 DUP5 PUSH1 0x1 DUP1 PUSH1 0xA0 SHL SUB AND PUSH0 MSTORE PUSH1 0x5 PUSH1 0x20 MSTORE PUSH1 0x40 PUSH0 KECCAK256 SWAP1 JUMP JUMPDEST SWAP1 PUSH1 0x1 DUP1 PUSH1 0xA0 SHL SUB AND PUSH0 MSTORE PUSH1 0x20 MSTORE PUSH1 0x40 PUSH0 KECCAK256 SWAP1 JUMP JUMPDEST SLOAD AND ISZERO PUSH2 0x672 JUMP JUMPDEST POP PUSH1 0x1 PUSH1 0x1 PUSH1 0xA0 SHL SUB DUP2 AND CALLER EQ ISZERO PUSH2 0x66C JUMP JUMPDEST CALLVALUE PUSH2 0x312 JUMPI PUSH0 CALLDATASIZE PUSH1 0x3 NOT ADD SLT PUSH2 0x312 JUMPI PUSH1 0x20 PUSH1 0x1 PUSH1 0x1 PUSH1 0x40 SHL SUB PUSH1 0xB SLOAD AND PUSH1 0x40 MLOAD SWAP1 DUP2 MSTORE RETURN JUMPDEST CALLVALUE PUSH2 0x312 JUMPI PUSH1 0x60 CALLDATASIZE PUSH1 0x3 NOT ADD SLT PUSH2 0x312 JUMPI PUSH1 0x4 CALLDATALOAD PUSH1 0x24 CALLDATALOAD PUSH1 0x1 PUSH1 0x1 PUSH1 0x40 SHL SUB DUP2 GT PUSH2 0x312 JUMPI PUSH2 0x79D SWAP1 CALLDATASIZE SWAP1 PUSH1 0x4 ADD PUSH2 0x2CE JUMP JUMPDEST PUSH1 0x44 CALLDATALOAD PUSH1 0x1 PUSH1 0x1 PUSH1 0x40 SHL SUB DUP2 GT PUSH2 0x312 JUMPI PUSH2 0x7BC SWAP1 CALLDATASIZE SWAP1 PUSH1 0x4 ADD PUSH2 0x2CE JUMP JUMPDEST PUSH32 0x0 PUSH1 0x1 PUSH1 0x1 PUSH1 0xA0 SHL SUB AND CALLER SUB PUSH2 0xABC JUMPI PUSH2 0x80F PUSH2 0x80B PUSH2 0x804 DUP6 PUSH0 MSTORE PUSH1 0x12 PUSH1 0x20 MSTORE PUSH1 0x40 PUSH0 KECCAK256 SWAP1 JUMP JUMPDEST SLOAD PUSH1 0xFF AND SWAP1 JUMP JUMPDEST ISZERO SWAP1 JUMP JUMPDEST PUSH2 0xAA8 JUMPI DUP1 MLOAD PUSH2 0xA87 JUMPI POP PUSH2 0x96D PUSH2 0x93D PUSH2 0x89E PUSH2 0x849 PUSH2 0x838 DUP7 PUSH0 MSTORE PUSH1 0x11 PUSH1 0x20 MSTORE PUSH1 0x40 PUSH0 KECCAK256 SWAP1 JUMP JUMPDEST SLOAD SWAP5 PUSH1 0x20 DUP1 DUP3 MLOAD DUP4 ADD ADD SWAP2 ADD PUSH2 0x2104 JUMP JUMPDEST PUSH2 0x88E PUSH1 0x1 PUSH1 0x1 PUSH1 0x40 SHL SUB DUP3 AND PUSH1 0x2 PUSH2 0x86A DUP9 PUSH0 MSTORE PUSH1 0x10 PUSH1 0x20 MSTORE PUSH1 0x40 PUSH0 KECCAK256 SWAP1 JUMP JUMPDEST ADD DUP1 SLOAD PUSH1 0x1 PUSH1 0x1 PUSH1 0xC0 SHL SUB AND PUSH1 0xC0 SWAP3 SWAP1 SWAP3 SHL PUSH1 0x1 PUSH1 0x1 PUSH1 0xC0 SHL SUB NOT AND SWAP2 SWAP1 SWAP2 OR SWAP1 SSTORE JUMP JUMPDEST PUSH2 0x8EA PUSH2 0x8AA PUSH2 0x89E DUP4 PUSH1 0x40 SHR SWAP1 JUMP JUMPDEST PUSH1 0x1 PUSH1 0x1 PUSH1 0x40 SHL SUB AND SWAP1 JUMP JUMPDEST PUSH1 0x2 PUSH2 0x8BE DUP9 PUSH0 MSTORE PUSH1 0x10 PUSH1 0x20 MSTORE PUSH1 0x40 PUSH0 KECCAK256 SWAP1 JUMP JUMPDEST ADD DUP1 SLOAD PUSH8 0xFFFFFFFFFFFFFFFF PUSH1 0x80 SHL NOT AND PUSH1 0x80 SWAP3 SWAP1 SWAP3 SHL PUSH8 0xFFFFFFFFFFFFFFFF PUSH1 0x80 SHL AND SWAP2 SWAP1 SWAP2 OR SWAP1 SSTORE JUMP JUMPDEST PUSH2 0x937 PUSH2 0x8FA PUSH2 0x89E DUP4 PUSH1 0x80 SHR SWAP1 JUMP JUMPDEST PUSH1 0x2 PUSH2 0x90E DUP9 PUSH0 MSTORE PUSH1 0x10 PUSH1 0x20 MSTORE PUSH1 0x40 PUSH0 KECCAK256 SWAP1 JUMP JUMPDEST ADD SWAP1 PUSH8 0xFFFFFFFFFFFFFFFF PUSH1 0x40 SHL DUP3 SLOAD SWAP2 PUSH1 0x40 SHL AND SWAP1 PUSH8 0xFFFFFFFFFFFFFFFF PUSH1 0x40 SHL NOT AND OR SWAP1 SSTORE JUMP JUMPDEST PUSH1 0xC0 SHR SWAP1 JUMP JUMPDEST PUSH1 0x2 PUSH2 0x951 DUP5 PUSH0 MSTORE PUSH1 0x10 PUSH1 0x20 MSTORE PUSH1 0x40 PUSH0 KECCAK256 SWAP1 JUMP JUMPDEST ADD SWAP1 PUSH1 0x1 PUSH1 0x1 PUSH1 0x40 SHL SUB AND PUSH1 0x1 PUSH1 0x1 PUSH1 0x40 SHL SUB NOT DUP3 SLOAD AND OR SWAP1 SSTORE JUMP JUMPDEST PUSH2 0x98C PUSH2 0x982 DUP4 PUSH0 MSTORE PUSH1 0x12 PUSH1 0x20 MSTORE PUSH1 0x40 PUSH0 KECCAK256 SWAP1 JUMP JUMPDEST DUP1 SLOAD PUSH1 0xFF NOT AND SWAP1 SSTORE JUMP JUMPDEST PUSH0 DUP3 DUP2 MSTORE PUSH1 0x11 PUSH1 0x20 MSTORE PUSH1 0x40 DUP2 KECCAK256 SSTORE PUSH32 0x9F86CFE46669ECF4CA86F93EF7FFC30082E4A755D2EE82226E1D556FD63407EE PUSH2 0x9D5 PUSH2 0x9D0 DUP4 PUSH0 MSTORE PUSH1 0x10 PUSH1 0x20 MSTORE PUSH1 0x40 PUSH0 KECCAK256 SWAP1 JUMP JUMPDEST PUSH2 0x18F3 JUMP JUMPDEST PUSH1 0x40 DUP2 ADD MLOAD PUSH1 0x1 PUSH1 0x1 PUSH1 0x40 SHL SUB AND PUSH2 0xA5E PUSH2 0x9FA PUSH1 0x60 DUP5 ADD MLOAD PUSH1 0x1 PUSH1 0x1 PUSH1 0x40 SHL SUB AND SWAP1 JUMP JUMPDEST SWAP2 PUSH2 0xA23 PUSH1 0xA0 PUSH2 0xA14 PUSH1 0x80 DUP8 ADD MLOAD PUSH1 0x1 PUSH1 0x1 PUSH1 0x40 SHL SUB AND SWAP1 JUMP JUMPDEST SWAP6 ADD MLOAD PUSH1 0x1 PUSH1 0x1 PUSH1 0x40 SHL SUB AND SWAP1 JUMP JUMPDEST PUSH1 0x40 MLOAD SWAP5 DUP6 SWAP5 TIMESTAMP SWAP4 DUP7 SWAP2 SWAP4 PUSH1 0x1 PUSH1 0x1 PUSH1 0x40 SHL SUB PUSH1 0x80 SWAP5 DUP2 DUP1 SWAP5 SWAP10 SWAP9 SWAP8 DUP2 PUSH1 0xA0 DUP9 ADD SWAP12 AND DUP8 MSTORE AND PUSH1 0x20 DUP7 ADD MSTORE AND PUSH1 0x40 DUP5 ADD MSTORE AND PUSH1 0x60 DUP3 ADD MSTORE ADD MSTORE JUMP JUMPDEST SUB SWAP1 LOG2 PUSH32 0x85E1543BF2F84FE80C6BADBCE3648C8539AD1DF4D2B3D822938CA0538BE727E6 PUSH0 DUP1 LOG2 STOP JUMPDEST PUSH1 0x40 MLOAD PUSH4 0x1DE77FF9 PUSH1 0xE1 SHL DUP2 MSTORE SWAP1 DUP2 SWAP1 PUSH2 0xAA4 SWAP1 PUSH1 0x4 DUP4 ADD PUSH2 0x4EA JUMP JUMPDEST SUB SWAP1 REVERT JUMPDEST PUSH4 0xF6A8D1C9 PUSH1 0xE0 SHL PUSH0 MSTORE PUSH1 0x4 DUP4 SWAP1 MSTORE PUSH1 0x24 PUSH0 REVERT JUMPDEST PUSH4 0xC6829F83 PUSH1 0xE0 SHL PUSH0 MSTORE PUSH1 0x4 PUSH0 REVERT JUMPDEST SWAP1 PUSH1 0x1 DUP3 DUP2 SHR SWAP3 AND DUP1 ISZERO PUSH2 0xAF9 JUMPI JUMPDEST PUSH1 0x20 DUP4 LT EQ PUSH2 0xAE5 JUMPI JUMP JUMPDEST PUSH4 0x4E487B71 PUSH1 0xE0 SHL PUSH0 MSTORE PUSH1 0x22 PUSH1 0x4 MSTORE PUSH1 0x24 PUSH0 REVERT JUMPDEST SWAP2 PUSH1 0x7F AND SWAP2 PUSH2 0xADA JUMP JUMPDEST PUSH1 0x40 MLOAD SWAP1 PUSH0 DUP3 PUSH1 0xC SLOAD SWAP2 PUSH2 0xB16 DUP4 PUSH2 0xACB JUMP JUMPDEST DUP1 DUP4 MSTORE SWAP3 PUSH1 0x1 DUP2 AND SWAP1 DUP2 ISZERO PUSH2 0xB9B JUMPI POP PUSH1 0x1 EQ PUSH2 0xB3C JUMPI JUMPDEST PUSH2 0xB3A SWAP3 POP SUB DUP4 PUSH2 0x292 JUMP JUMPDEST JUMP JUMPDEST POP PUSH1 0xC PUSH0 SWAP1 DUP2 MSTORE SWAP1 SWAP2 PUSH32 0xDF6966C971051C3D54EC59162606531493A51404A002842F56009D7E5CF4A8C7 JUMPDEST DUP2 DUP4 LT PUSH2 0xB7F JUMPI POP POP SWAP1 PUSH1 0x20 PUSH2 0xB3A SWAP3 DUP3 ADD ADD PUSH2 0xB2E JUMP JUMPDEST PUSH1 0x20 SWAP2 SWAP4 POP DUP1 PUSH1 0x1 SWAP2 SLOAD DUP4 DUP6 DUP10 ADD ADD MSTORE ADD SWAP2 ADD SWAP1 SWAP2 DUP5 SWAP3 PUSH2 0xB67 JUMP JUMPDEST PUSH1 0x20 SWAP3 POP PUSH2 0xB3A SWAP5 SWAP2 POP PUSH1 0xFF NOT AND DUP3 DUP5 ADD MSTORE ISZERO ISZERO PUSH1 0x5 SHL DUP3 ADD ADD PUSH2 0xB2E JUMP JUMPDEST SWAP1 PUSH1 0x40 MLOAD SWAP2 DUP3 PUSH0 DUP3 SLOAD SWAP3 PUSH2 0xBCD DUP5 PUSH2 0xACB JUMP JUMPDEST DUP1 DUP5 MSTORE SWAP4 PUSH1 0x1 DUP2 AND SWAP1 DUP2 ISZERO PUSH2 0xC36 JUMPI POP PUSH1 0x1 EQ PUSH2 0xBF2 JUMPI JUMPDEST POP PUSH2 0xB3A SWAP3 POP SUB DUP4 PUSH2 0x292 JUMP JUMPDEST SWAP1 POP PUSH0 SWAP3 SWAP2 SWAP3 MSTORE PUSH1 0x20 PUSH0 KECCAK256 SWAP1 PUSH0 SWAP2 JUMPDEST DUP2 DUP4 LT PUSH2 0xC1A JUMPI POP POP SWAP1 PUSH1 0x20 PUSH2 0xB3A SWAP3 DUP3 ADD ADD PUSH0 PUSH2 0xBE5 JUMP JUMPDEST PUSH1 0x20 SWAP2 SWAP4 POP DUP1 PUSH1 0x1 SWAP2 SLOAD DUP4 DUP6 DUP10 ADD ADD MSTORE ADD SWAP2 ADD SWAP1 SWAP2 DUP5 SWAP3 PUSH2 0xC01 JUMP JUMPDEST SWAP1 POP PUSH1 0x20 SWAP3 POP PUSH2 0xB3A SWAP5 SWAP2 POP PUSH1 0xFF NOT AND DUP3 DUP5 ADD MSTORE ISZERO ISZERO PUSH1 0x5 SHL DUP3 ADD ADD PUSH0 PUSH2 0xBE5 JUMP JUMPDEST CALLVALUE PUSH2 0x312 JUMPI PUSH0 CALLDATASIZE PUSH1 0x3 NOT ADD SLT PUSH2 0x312 JUMPI PUSH2 0x551 PUSH2 0xC73 PUSH2 0xB03 JUMP JUMPDEST PUSH1 0x40 MLOAD SWAP2 DUP3 SWAP2 PUSH1 0x20 DUP4 MSTORE PUSH1 0x20 DUP4 ADD SWAP1 PUSH2 0x4C6 JUMP JUMPDEST CALLVALUE PUSH2 0x312 JUMPI PUSH1 0x20 CALLDATASIZE PUSH1 0x3 NOT ADD SLT PUSH2 0x312 JUMPI PUSH1 0x4 CALLDATALOAD PUSH0 MSTORE PUSH1 0x12 PUSH1 0x20 MSTORE PUSH1 0x20 PUSH1 0xFF PUSH1 0x40 PUSH0 KECCAK256 SLOAD AND PUSH1 0x40 MLOAD SWAP1 ISZERO ISZERO DUP2 MSTORE RETURN JUMPDEST CALLVALUE PUSH2 0x312 JUMPI PUSH1 0x40 CALLDATASIZE PUSH1 0x3 NOT ADD SLT PUSH2 0x312 JUMPI PUSH1 0x24 CALLDATALOAD PUSH1 0x4 CALLDATALOAD PUSH2 0xCD5 PUSH2 0x20A9 JUMP JUMPDEST PUSH2 0xE10 DUP2 LT PUSH2 0xD09 JUMPI PUSH1 0x8 SLOAD DUP1 ISZERO PUSH2 0xCFA JUMPI PUSH2 0xCF2 SWAP1 DUP4 LT PUSH2 0x1751 JUMP JUMPDEST PUSH1 0xE SSTORE PUSH1 0xF SSTORE STOP JUMPDEST PUSH4 0xD31B331D PUSH1 0xE0 SHL PUSH0 MSTORE PUSH1 0x4 PUSH0 REVERT JUMPDEST PUSH4 0x4D5A709 PUSH1 0xE4 SHL PUSH0 MSTORE PUSH1 0x4 MSTORE PUSH2 0xE10 PUSH1 0x24 MSTORE PUSH1 0x44 PUSH0 REVERT JUMPDEST PUSH1 0x60 SWAP1 PUSH1 0x3 NOT ADD SLT PUSH2 0x312 JUMPI PUSH1 0x4 CALLDATALOAD PUSH1 0x1 PUSH1 0x1 PUSH1 0xA0 SHL SUB DUP2 AND DUP2 SUB PUSH2 0x312 JUMPI SWAP1 PUSH1 0x24 CALLDATALOAD PUSH1 0x1 PUSH1 0x1 PUSH1 0xA0 SHL SUB DUP2 AND DUP2 SUB PUSH2 0x312 JUMPI SWAP1 PUSH1 0x44 CALLDATALOAD SWAP1 JUMP JUMPDEST CALLVALUE PUSH2 0x312 JUMPI PUSH2 0x6DE PUSH2 0xD6C CALLDATASIZE PUSH2 0xD21 JUMP JUMPDEST SWAP2 PUSH2 0x1794 JUMP JUMPDEST CALLVALUE PUSH2 0x312 JUMPI PUSH1 0x20 CALLDATASIZE PUSH1 0x3 NOT ADD SLT PUSH2 0x312 JUMPI PUSH2 0x6DE PUSH1 0x4 CALLDATALOAD PUSH2 0xD91 PUSH2 0x20A9 JUMP JUMPDEST PUSH2 0xD9E PUSH1 0x8 SLOAD DUP3 LT PUSH2 0x1751 JUMP JUMPDEST DUP1 PUSH0 MSTORE PUSH1 0x10 PUSH1 0x20 MSTORE PUSH2 0xDB2 PUSH1 0x40 PUSH0 KECCAK256 PUSH2 0xBBA JUMP JUMPDEST SWAP1 PUSH2 0x2187 JUMP JUMPDEST CALLVALUE PUSH2 0x312 JUMPI PUSH0 CALLDATASIZE PUSH1 0x3 NOT ADD SLT PUSH2 0x312 JUMPI PUSH1 0x20 PUSH1 0xD SLOAD PUSH1 0x40 MLOAD SWAP1 DUP2 MSTORE RETURN JUMPDEST CALLVALUE PUSH2 0x312 JUMPI PUSH2 0x6DE PUSH2 0xDE6 CALLDATASIZE PUSH2 0xD21 JUMP JUMPDEST SWAP1 PUSH1 0x40 MLOAD SWAP3 PUSH2 0xDF6 PUSH1 0x20 DUP6 PUSH2 0x292 JUMP JUMPDEST PUSH0 DUP5 MSTORE PUSH2 0xE04 DUP4 DUP4 DUP4 PUSH2 0x1794 JUMP JUMPDEST CALLER PUSH2 0x3A06 JUMP JUMPDEST SWAP1 PUSH1 0x20 PUSH1 0x3 NOT DUP4 ADD SLT PUSH2 0x312 JUMPI PUSH1 0x4 CALLDATALOAD PUSH1 0x1 PUSH1 0x1 PUSH1 0x40 SHL SUB DUP2 GT PUSH2 0x312 JUMPI DUP3 PUSH1 0x23 DUP3 ADD SLT ISZERO PUSH2 0x312 JUMPI DUP1 PUSH1 0x4 ADD CALLDATALOAD SWAP3 PUSH1 0x1 PUSH1 0x1 PUSH1 0x40 SHL SUB DUP5 GT PUSH2 0x312 JUMPI PUSH1 0x24 DUP5 DUP4 ADD ADD GT PUSH2 0x312 JUMPI PUSH1 0x24 ADD SWAP2 SWAP1 JUMP JUMPDEST CALLVALUE PUSH2 0x312 JUMPI PUSH2 0xE67 CALLDATASIZE PUSH2 0xE0A JUMP JUMPDEST POP POP PUSH1 0xD SLOAD TIMESTAMP SUB TIMESTAMP DUP2 GT PUSH2 0xEA3 JUMPI PUSH1 0xE SLOAD LT PUSH2 0xE7F JUMPI STOP JUMPDEST TIMESTAMP PUSH1 0xD SSTORE PUSH2 0x6DE PUSH1 0xF SLOAD PUSH2 0xDB2 PUSH2 0xE9E DUP3 PUSH0 MSTORE PUSH1 0x10 PUSH1 0x20 MSTORE PUSH1 0x40 PUSH0 KECCAK256 SWAP1 JUMP JUMPDEST PUSH2 0xBBA JUMP JUMPDEST PUSH2 0x18C2 JUMP JUMPDEST CALLVALUE PUSH2 0x312 JUMPI PUSH1 0x20 CALLDATASIZE PUSH1 0x3 NOT ADD SLT PUSH2 0x312 JUMPI PUSH1 0x20 PUSH2 0xEC6 PUSH1 0x4 CALLDATALOAD PUSH2 0x20D0 JUMP JUMPDEST PUSH1 0x40 MLOAD PUSH1 0x1 PUSH1 0x1 PUSH1 0xA0 SHL SUB SWAP1 SWAP2 AND DUP2 MSTORE RETURN JUMPDEST CALLVALUE PUSH2 0x312 JUMPI PUSH1 0x20 CALLDATASIZE PUSH1 0x3 NOT ADD SLT PUSH2 0x312 JUMPI PUSH1 0x4 CALLDATALOAD PUSH0 MSTORE PUSH1 0x11 PUSH1 0x20 MSTORE PUSH1 0x20 PUSH1 0x40 PUSH0 KECCAK256 SLOAD PUSH1 0x40 MLOAD SWAP1 DUP2 MSTORE RETURN JUMPDEST CALLVALUE PUSH2 0x312 JUMPI PUSH1 0x20 CALLDATASIZE PUSH1 0x3 NOT ADD SLT PUSH2 0x312 JUMPI PUSH2 0x551 PUSH2 0xC73 PUSH1 0x4 CALLDATALOAD PUSH2 0x1B18 JUMP JUMPDEST CALLVALUE PUSH2 0x312 JUMPI PUSH2 0xF2F CALLDATASIZE PUSH2 0xE0A JUMP JUMPDEST POP POP PUSH1 0xD SLOAD TIMESTAMP SUB TIMESTAMP DUP2 GT PUSH2 0xEA3 JUMPI PUSH1 0xE SLOAD LT DUP1 PUSH2 0xF77 JUMPI JUMPDEST PUSH1 0x40 MLOAD SWAP1 PUSH2 0xF56 PUSH1 0x20 DUP4 PUSH2 0x292 JUMP JUMPDEST PUSH0 DUP3 MSTORE PUSH2 0x551 PUSH1 0x40 MLOAD SWAP3 DUP4 SWAP3 ISZERO ISZERO DUP4 MSTORE PUSH1 0x40 PUSH1 0x20 DUP5 ADD MSTORE PUSH1 0x40 DUP4 ADD SWAP1 PUSH2 0x4C6 JUMP JUMPDEST POP PUSH1 0xF SLOAD PUSH1 0x8 SLOAD GT PUSH2 0xF47 JUMP JUMPDEST CALLVALUE PUSH2 0x312 JUMPI PUSH1 0x20 CALLDATASIZE PUSH1 0x3 NOT ADD SLT PUSH2 0x312 JUMPI PUSH1 0x1 PUSH1 0x1 PUSH1 0xA0 SHL SUB PUSH2 0xFA5 PUSH2 0x611 JUMP JUMPDEST AND DUP1 ISZERO PUSH2 0xFC2 JUMPI PUSH0 MSTORE PUSH1 0x3 PUSH1 0x20 MSTORE PUSH1 0x20 PUSH1 0x40 PUSH0 KECCAK256 SLOAD PUSH1 0x40 MLOAD SWAP1 DUP2 MSTORE RETURN JUMPDEST PUSH4 0x22718AD9 PUSH1 0xE2 SHL PUSH0 MSTORE PUSH0 PUSH1 0x4 MSTORE PUSH1 0x24 PUSH0 REVERT JUMPDEST CALLVALUE PUSH2 0x312 JUMPI PUSH0 CALLDATASIZE PUSH1 0x3 NOT ADD SLT PUSH2 0x312 JUMPI PUSH2 0xFED PUSH2 0x20A9 JUMP JUMPDEST PUSH1 0x7 DUP1 SLOAD PUSH1 0x1 PUSH1 0x1 PUSH1 0xA0 SHL SUB NOT DUP2 AND SWAP1 SWAP2 SSTORE PUSH0 SWAP1 PUSH1 0x1 PUSH1 0x1 PUSH1 0xA0 SHL SUB AND PUSH32 0x8BE0079C531659141344CD1FD0A4F28419497F9722A3DAAFE3B4186F6B6457E0 DUP3 DUP1 LOG3 STOP JUMPDEST CALLVALUE PUSH2 0x312 JUMPI PUSH0 CALLDATASIZE PUSH1 0x3 NOT ADD SLT PUSH2 0x312 JUMPI PUSH1 0x7 SLOAD PUSH1 0x40 MLOAD PUSH1 0x1 PUSH1 0x1 PUSH1 0xA0 SHL SUB SWAP1 SWAP2 AND DUP2 MSTORE PUSH1 0x20 SWAP1 RETURN JUMPDEST CALLVALUE PUSH2 0x312 JUMPI PUSH0 CALLDATASIZE PUSH1 0x3 NOT ADD SLT PUSH2 0x312 JUMPI PUSH1 0x20 PUSH1 0xE SLOAD PUSH1 0x40 MLOAD SWAP1 DUP2 MSTORE RETURN JUMPDEST CALLVALUE PUSH2 0x312 JUMPI PUSH0 CALLDATASIZE PUSH1 0x3 NOT ADD SLT PUSH2 0x312 JUMPI PUSH1 0x20 PUSH1 0xF SLOAD PUSH1 0x40 MLOAD SWAP1 DUP2 MSTORE RETURN JUMPDEST CALLVALUE PUSH2 0x312 JUMPI PUSH0 CALLDATASIZE PUSH1 0x3 NOT ADD SLT PUSH2 0x312 JUMPI PUSH1 0x40 MLOAD PUSH0 PUSH1 0x1 SLOAD PUSH2 0x10B2 DUP2 PUSH2 0xACB JUMP JUMPDEST DUP1 DUP5 MSTORE SWAP1 PUSH1 0x1 DUP2 AND SWAP1 DUP2 ISZERO PUSH2 0x5B1 JUMPI POP PUSH1 0x1 EQ PUSH2 0x10D9 JUMPI PUSH2 0x551 DUP4 PUSH2 0x545 DUP2 DUP6 SUB DUP3 PUSH2 0x292 JUMP JUMPDEST PUSH1 0x1 PUSH0 SWAP1 DUP2 MSTORE PUSH32 0xB10E2D527612073B26EECDFD717E6A320CF44B4AFAC2B0732D9FCBE2B7FA0CF6 SWAP4 SWAP3 POP SWAP1 JUMPDEST DUP1 DUP3 LT PUSH2 0x111D JUMPI POP SWAP1 SWAP2 POP DUP2 ADD PUSH1 0x20 ADD PUSH2 0x545 PUSH2 0x535 JUMP JUMPDEST SWAP2 SWAP3 PUSH1 0x1 DUP2 PUSH1 0x20 SWAP3 SLOAD DUP4 DUP6 DUP9 ADD ADD MSTORE ADD SWAP2 ADD SWAP1 SWAP3 SWAP2 PUSH2 0x1105 JUMP JUMPDEST CALLVALUE PUSH2 0x312 JUMPI PUSH1 0x40 CALLDATASIZE PUSH1 0x3 NOT ADD SLT PUSH2 0x312 JUMPI PUSH2 0x1150 PUSH2 0x611 JUMP JUMPDEST PUSH1 0x24 CALLDATALOAD DUP1 ISZERO ISZERO DUP2 SUB PUSH2 0x312 JUMPI CALLER ISZERO PUSH2 0x11F2 JUMPI PUSH1 0x1 PUSH1 0x1 PUSH1 0xA0 SHL SUB DUP3 AND SWAP2 DUP3 ISZERO PUSH2 0x11DF JUMPI DUP2 PUSH2 0x119C PUSH2 0x11AD SWAP3 CALLER PUSH0 MSTORE PUSH1 0x5 PUSH1 0x20 MSTORE PUSH1 0x40 PUSH0 KECCAK256 SWAP1 PUSH1 0x1 DUP1 PUSH1 0xA0 SHL SUB AND PUSH0 MSTORE PUSH1 0x20 MSTORE PUSH1 0x40 PUSH0 KECCAK256 SWAP1 JUMP JUMPDEST SWAP1 PUSH1 0xFF DUP1 NOT DUP4 SLOAD AND SWAP2 ISZERO ISZERO AND OR SWAP1 SSTORE JUMP JUMPDEST PUSH1 0x40 MLOAD SWAP1 ISZERO ISZERO DUP2 MSTORE CALLER SWAP1 PUSH32 0x17307EAB39AB6107E8899845AD3D59BD9653F200F220920489CA2B5937696C31 SWAP1 PUSH1 0x20 SWAP1 LOG3 STOP JUMPDEST DUP3 PUSH4 0xB611743 PUSH1 0xE3 SHL PUSH0 MSTORE PUSH1 0x4 MSTORE PUSH1 0x24 PUSH0 REVERT JUMPDEST PUSH4 0xA9FBF51F PUSH1 0xE0 SHL PUSH0 MSTORE PUSH0 PUSH1 0x4 MSTORE PUSH1 0x24 PUSH0 REVERT JUMPDEST CALLVALUE PUSH2 0x312 JUMPI PUSH1 0x20 CALLDATASIZE PUSH1 0x3 NOT ADD SLT PUSH2 0x312 JUMPI PUSH1 0x4 CALLDATALOAD PUSH0 MSTORE PUSH1 0x10 PUSH1 0x20 MSTORE PUSH2 0x1262 PUSH1 0x40 PUSH0 KECCAK256 PUSH2 0x1230 DUP2 PUSH2 0xBBA JUMP JUMPDEST SWAP1 PUSH1 0x1 PUSH1 0x1 PUSH1 0x40 SHL SUB PUSH2 0x1270 PUSH1 0x2 PUSH2 0x124A PUSH1 0x1 DUP6 ADD PUSH2 0xBBA JUMP JUMPDEST SWAP4 ADD SLOAD SWAP3 PUSH1 0x40 MLOAD SWAP6 DUP7 SWAP6 PUSH1 0xC0 DUP8 MSTORE PUSH1 0xC0 DUP8 ADD SWAP1 PUSH2 0x4C6 JUMP JUMPDEST SWAP1 DUP6 DUP3 SUB PUSH1 0x20 DUP8 ADD MSTORE PUSH2 0x4C6 JUMP JUMPDEST SWAP2 DUP2 DUP1 DUP3 AND AND PUSH1 0x40 DUP6 ADD MSTORE DUP2 DUP1 DUP3 PUSH1 0x40 SHR AND AND PUSH1 0x60 DUP6 ADD MSTORE DUP2 DUP1 DUP3 PUSH1 0x80 SHR AND AND PUSH1 0x80 DUP6 ADD MSTORE PUSH1 0xC0 SHR AND PUSH1 0xA0 DUP4 ADD MSTORE SUB SWAP1 RETURN JUMPDEST CALLVALUE PUSH2 0x312 JUMPI PUSH1 0x80 CALLDATASIZE PUSH1 0x3 NOT ADD SLT PUSH2 0x312 JUMPI PUSH2 0x12BB PUSH2 0x611 JUMP JUMPDEST PUSH2 0x12C3 PUSH2 0x627 JUMP JUMPDEST SWAP1 PUSH1 0x44 CALLDATALOAD PUSH1 0x64 CALLDATALOAD SWAP3 PUSH1 0x1 PUSH1 0x1 PUSH1 0x40 SHL SUB DUP5 GT PUSH2 0x312 JUMPI PUSH2 0x12EA PUSH2 0x6DE SWAP5 CALLDATASIZE SWAP1 PUSH1 0x4 ADD PUSH2 0x2CE JUMP JUMPDEST SWAP3 PUSH2 0xE04 DUP4 DUP4 DUP4 PUSH2 0x1794 JUMP JUMPDEST CALLVALUE PUSH2 0x312 JUMPI PUSH1 0x20 CALLDATASIZE PUSH1 0x3 NOT ADD SLT PUSH2 0x312 JUMPI PUSH1 0x4 CALLDATALOAD DUP1 PUSH0 MSTORE PUSH1 0x10 PUSH1 0x20 MSTORE PUSH1 0x40 PUSH0 KECCAK256 SWAP1 PUSH1 0x40 MLOAD SWAP2 PUSH2 0x1324 DUP4 PUSH2 0x23C JUMP JUMPDEST PUSH2 0x132D DUP2 PUSH2 0xBBA JUMP JUMPDEST DUP4 MSTORE PUSH2 0x133B PUSH1 0x1 DUP3 ADD PUSH2 0xBBA JUMP JUMPDEST SWAP1 PUSH1 0x20 DUP5 ADD SWAP2 DUP3 MSTORE PUSH1 0x2 ADD SLOAD PUSH1 0x40 DUP5 ADD SWAP1 PUSH1 0x1 PUSH1 0x1 PUSH1 0x40 SHL SUB DUP2 AND DUP3 MSTORE PUSH1 0x60 DUP6 ADD DUP2 PUSH1 0x40 SHR PUSH1 0x1 PUSH1 0x1 PUSH1 0x40 SHL SUB AND DUP2 MSTORE PUSH1 0x80 DUP7 ADD SWAP2 DUP1 PUSH1 0x80 SHR PUSH1 0x1 PUSH1 0x1 PUSH1 0x40 SHL SUB AND PUSH2 0x1390 SWAP1 DUP5 SWAP1 PUSH1 0x1 PUSH1 0x1 PUSH1 0x40 SHL SUB AND SWAP1 MSTORE JUMP JUMPDEST PUSH1 0xC0 SHR PUSH1 0xA0 DUP8 ADD SWAP1 DUP2 MSTORE SWAP3 PUSH2 0x13A4 DUP7 PUSH2 0x1B18 JUMP JUMPDEST PUSH2 0x13AD SWAP1 PUSH2 0x4093 JUMP JUMPDEST SWAP6 PUSH2 0x13B7 SWAP1 PUSH2 0x22AB JUMP JUMPDEST SWAP7 MLOAD SWAP5 MLOAD SWAP1 MLOAD PUSH2 0x13CF SWAP1 PUSH1 0x1 PUSH1 0x1 PUSH1 0x40 SHL SUB AND PUSH2 0x22AB JUMP JUMPDEST SWAP2 MLOAD PUSH2 0x13E3 SWAP1 PUSH1 0x1 PUSH1 0x1 PUSH1 0x40 SHL SUB AND PUSH2 0x22AB JUMP JUMPDEST SWAP3 MLOAD PUSH2 0x13F7 SWAP1 PUSH1 0x1 PUSH1 0x1 PUSH1 0x40 SHL SUB AND PUSH2 0x22AB JUMP JUMPDEST SWAP4 MLOAD PUSH2 0x140B SWAP1 PUSH1 0x1 PUSH1 0x1 PUSH1 0x40 SHL SUB AND PUSH2 0x22AB JUMP JUMPDEST SWAP5 PUSH2 0x1415 SWAP8 PUSH2 0x1BEA JUMP JUMPDEST PUSH2 0x141E SWAP1 PUSH2 0x4093 JUMP JUMPDEST PUSH2 0x1427 SWAP1 PUSH2 0x1E90 JUMP JUMPDEST PUSH1 0x40 MLOAD PUSH2 0x551 DUP2 SWAP3 DUP3 PUSH2 0x4EA JUMP JUMPDEST CALLVALUE PUSH2 0x312 JUMPI PUSH0 CALLDATASIZE PUSH1 0x3 NOT ADD SLT PUSH2 0x312 JUMPI PUSH1 0x20 PUSH1 0x40 MLOAD PUSH2 0xE10 DUP2 MSTORE RETURN JUMPDEST CALLVALUE PUSH2 0x312 JUMPI PUSH1 0x40 CALLDATASIZE PUSH1 0x3 NOT ADD SLT PUSH2 0x312 JUMPI PUSH1 0x20 PUSH1 0xFF PUSH2 0x14A1 PUSH2 0x1471 PUSH2 0x611 JUMP JUMPDEST PUSH2 0x1479 PUSH2 0x627 JUMP JUMPDEST PUSH1 0x1 PUSH1 0x1 PUSH1 0xA0 SHL SUB SWAP2 DUP3 AND PUSH0 SWAP1 DUP2 MSTORE PUSH1 0x5 DUP7 MSTORE PUSH1 0x40 DUP1 DUP3 KECCAK256 SWAP3 SWAP1 SWAP4 AND DUP2 MSTORE PUSH1 0x20 SWAP2 SWAP1 SWAP2 MSTORE KECCAK256 SWAP1 JUMP JUMPDEST SLOAD AND PUSH1 0x40 MLOAD SWAP1 ISZERO ISZERO DUP2 MSTORE RETURN JUMPDEST CALLVALUE PUSH2 0x312 JUMPI PUSH1 0x60 CALLDATASIZE PUSH1 0x3 NOT ADD SLT PUSH2 0x312 JUMPI PUSH2 0x14C6 PUSH2 0x611 JUMP JUMPDEST PUSH1 0x24 CALLDATALOAD PUSH1 0x1 PUSH1 0x1 PUSH1 0x40 SHL SUB DUP2 GT PUSH2 0x312 JUMPI PUSH2 0x14E5 SWAP1 CALLDATASIZE SWAP1 PUSH1 0x4 ADD PUSH2 0x2CE JUMP JUMPDEST PUSH1 0x44 CALLDATALOAD SWAP2 PUSH1 0x1 PUSH1 0x1 PUSH1 0x40 SHL SUB DUP4 GT PUSH2 0x312 JUMPI PUSH2 0x1555 PUSH2 0x150B PUSH2 0x155A SWAP5 CALLDATASIZE SWAP1 PUSH1 0x4 ADD PUSH2 0x2CE JUMP JUMPDEST SWAP3 PUSH2 0x1514 PUSH2 0x20A9 JUMP JUMPDEST PUSH1 0x8 SLOAD SWAP4 PUSH1 0x40 MLOAD SWAP2 PUSH2 0x1525 DUP4 PUSH2 0x23C JUMP JUMPDEST DUP3 MSTORE PUSH1 0x20 DUP3 ADD MSTORE PUSH0 PUSH1 0x40 DUP3 ADD MSTORE PUSH0 PUSH1 0x60 DUP3 ADD MSTORE PUSH0 PUSH1 0x80 DUP3 ADD MSTORE PUSH0 PUSH1 0xA0 DUP3 ADD MSTORE DUP4 PUSH0 MSTORE PUSH1 0x10 PUSH1 0x20 MSTORE PUSH1 0x40 PUSH0 KECCAK256 PUSH2 0x1ECE JUMP JUMPDEST PUSH2 0x3AA0 JUMP JUMPDEST PUSH2 0x6DE PUSH2 0x1568 PUSH1 0x8 SLOAD PUSH2 0x209B JUMP JUMPDEST PUSH1 0x8 SSTORE JUMP JUMPDEST CALLVALUE PUSH2 0x312 JUMPI PUSH1 0x20 CALLDATASIZE PUSH1 0x3 NOT ADD SLT PUSH2 0x312 JUMPI PUSH2 0x1586 PUSH2 0x611 JUMP JUMPDEST PUSH2 0x158E PUSH2 0x20A9 JUMP JUMPDEST PUSH1 0x1 PUSH1 0x1 PUSH1 0xA0 SHL SUB AND DUP1 ISZERO PUSH2 0x15E0 JUMPI PUSH1 0x7 DUP1 SLOAD PUSH1 0x1 PUSH1 0x1 PUSH1 0xA0 SHL SUB NOT DUP2 AND DUP4 OR SWAP1 SWAP2 SSTORE PUSH1 0x1 PUSH1 0x1 PUSH1 0xA0 SHL SUB AND PUSH32 0x8BE0079C531659141344CD1FD0A4F28419497F9722A3DAAFE3B4186F6B6457E0 PUSH0 DUP1 LOG3 STOP JUMPDEST PUSH4 0x1E4FBDF7 PUSH1 0xE0 SHL PUSH0 MSTORE PUSH0 PUSH1 0x4 MSTORE PUSH1 0x24 PUSH0 REVERT JUMPDEST PUSH1 0x1F DUP2 GT PUSH2 0x15FF JUMPI POP POP JUMP JUMPDEST PUSH1 0xC PUSH0 MSTORE PUSH1 0x20 PUSH0 KECCAK256 SWAP1 PUSH1 0x20 PUSH1 0x1F DUP5 ADD PUSH1 0x5 SHR DUP4 ADD SWAP4 LT PUSH2 0x1639 JUMPI JUMPDEST PUSH1 0x1F ADD PUSH1 0x5 SHR ADD SWAP1 JUMPDEST DUP2 DUP2 LT PUSH2 0x162E JUMPI POP POP JUMP JUMPDEST PUSH0 DUP2 SSTORE PUSH1 0x1 ADD PUSH2 0x1623 JUMP JUMPDEST SWAP1 SWAP2 POP DUP2 SWAP1 PUSH2 0x161A JUMP JUMPDEST PUSH1 0x1F DUP3 GT PUSH2 0x1650 JUMPI POP POP POP JUMP JUMPDEST PUSH0 MSTORE PUSH1 0x20 PUSH0 KECCAK256 SWAP1 PUSH1 0x20 PUSH1 0x1F DUP5 ADD PUSH1 0x5 SHR DUP4 ADD SWAP4 LT PUSH2 0x1688 JUMPI JUMPDEST PUSH1 0x1F ADD PUSH1 0x5 SHR ADD SWAP1 JUMPDEST DUP2 DUP2 LT PUSH2 0x167D JUMPI POP POP JUMP JUMPDEST PUSH0 DUP2 SSTORE PUSH1 0x1 ADD PUSH2 0x1672 JUMP JUMPDEST SWAP1 SWAP2 POP DUP2 SWAP1 PUSH2 0x1669 JUMP JUMPDEST SWAP2 SWAP1 SWAP2 DUP3 MLOAD PUSH1 0x1 PUSH1 0x1 PUSH1 0x40 SHL SUB DUP2 GT PUSH2 0x257 JUMPI PUSH2 0x16B9 DUP2 PUSH2 0x16B3 DUP5 SLOAD PUSH2 0xACB JUMP JUMPDEST DUP5 PUSH2 0x1643 JUMP JUMPDEST PUSH1 0x20 PUSH1 0x1F DUP3 GT PUSH1 0x1 EQ PUSH2 0x16EC JUMPI DUP2 SWAP1 PUSH2 0x16E8 SWAP4 SWAP5 SWAP6 PUSH0 SWAP3 PUSH2 0x3A5 JUMPI POP POP DUP2 PUSH1 0x1 SHL SWAP2 PUSH0 NOT SWAP1 PUSH1 0x3 SHL SHR NOT AND OR SWAP1 JUMP JUMPDEST SWAP1 SSTORE JUMP JUMPDEST PUSH1 0x1F NOT DUP3 AND SWAP1 PUSH2 0x16FF DUP5 PUSH0 MSTORE PUSH1 0x20 PUSH0 KECCAK256 SWAP1 JUMP JUMPDEST SWAP2 PUSH0 JUMPDEST DUP2 DUP2 LT PUSH2 0x1739 JUMPI POP SWAP6 DUP4 PUSH1 0x1 SWAP6 SWAP7 SWAP8 LT PUSH2 0x1721 JUMPI JUMPDEST POP POP POP DUP2 SHL ADD SWAP1 SSTORE JUMP JUMPDEST ADD MLOAD PUSH0 NOT PUSH1 0xF8 DUP5 PUSH1 0x3 SHL AND SHR NOT AND SWAP1 SSTORE PUSH0 DUP1 DUP1 PUSH2 0x1717 JUMP JUMPDEST SWAP2 SWAP3 PUSH1 0x20 PUSH1 0x1 DUP2 SWAP3 DUP7 DUP12 ADD MLOAD DUP2 SSTORE ADD SWAP5 ADD SWAP3 ADD PUSH2 0x1702 JUMP JUMPDEST ISZERO PUSH2 0x1758 JUMPI JUMP JUMPDEST PUSH1 0x40 MLOAD PUSH3 0x461BCD PUSH1 0xE5 SHL DUP2 MSTORE PUSH1 0x20 PUSH1 0x4 DUP3 ADD MSTORE PUSH1 0x14 PUSH1 0x24 DUP3 ADD MSTORE PUSH20 0x151BDAD95B881251081D1A59185AC81D985B1A59 PUSH1 0x62 SHL PUSH1 0x44 DUP3 ADD MSTORE PUSH1 0x64 SWAP1 REVERT JUMPDEST SWAP1 SWAP2 SWAP1 PUSH1 0x1 PUSH1 0x1 PUSH1 0xA0 SHL SUB DUP4 AND DUP1 ISZERO PUSH2 0x189B JUMPI PUSH0 DUP4 DUP2 MSTORE PUSH1 0x2 PUSH1 0x20 MSTORE PUSH1 0x40 SWAP1 KECCAK256 SLOAD DUP4 SWAP1 PUSH1 0x1 PUSH1 0x1 PUSH1 0xA0 SHL SUB AND SWAP2 CALLER PUSH2 0x188B JUMPI JUMPDEST PUSH1 0x1 PUSH1 0x1 PUSH1 0xA0 SHL SUB DUP4 AND SWAP6 PUSH2 0x180C SWAP1 DUP8 PUSH2 0x185F JUMPI JUMPDEST PUSH1 0x1 PUSH1 0x1 PUSH1 0xA0 SHL SUB DUP2 AND PUSH0 SWAP1 DUP2 MSTORE PUSH1 0x3 PUSH1 0x20 MSTORE PUSH1 0x40 SWAP1 KECCAK256 PUSH1 0x1 DUP2 SLOAD ADD SWAP1 SSTORE PUSH2 0x6BF DUP5 PUSH0 MSTORE PUSH1 0x2 PUSH1 0x20 MSTORE PUSH1 0x40 PUSH0 KECCAK256 SWAP1 JUMP JUMPDEST DUP6 PUSH32 0xDDF252AD1BE2C89B69C2B068FC378DAA952BA7F163C4A11628F55A4DF523B3EF PUSH0 DUP1 LOG4 POP PUSH1 0x1 PUSH1 0x1 PUSH1 0xA0 SHL SUB AND DUP1 DUP4 SUB PUSH2 0x1847 JUMPI POP POP POP JUMP JUMPDEST PUSH4 0x64283D7B PUSH1 0xE0 SHL PUSH0 MSTORE PUSH1 0x4 MSTORE PUSH1 0x24 MSTORE PUSH1 0x44 MSTORE PUSH1 0x64 PUSH0 REVERT JUMPDEST PUSH2 0x1868 DUP5 PUSH2 0x3B8D JUMP JUMPDEST PUSH1 0x1 PUSH1 0x1 PUSH1 0xA0 SHL SUB DUP6 AND PUSH0 SWAP1 DUP2 MSTORE PUSH1 0x3 PUSH1 0x20 MSTORE PUSH1 0x40 SWAP1 KECCAK256 DUP1 SLOAD PUSH0 NOT ADD SWAP1 SSTORE PUSH2 0x17DC JUMP JUMPDEST PUSH2 0x1896 DUP3 CALLER DUP6 PUSH2 0x3BAF JUMP JUMPDEST PUSH2 0x17C7 JUMP JUMPDEST PUSH4 0x32505749 PUSH1 0xE1 SHL PUSH0 MSTORE PUSH0 PUSH1 0x4 MSTORE PUSH1 0x24 PUSH0 REVERT JUMPDEST PUSH1 0x40 MLOAD SWAP1 PUSH2 0x18BD PUSH1 0x20 DUP4 PUSH2 0x292 JUMP JUMPDEST PUSH0 DUP3 MSTORE JUMP JUMPDEST PUSH4 0x4E487B71 PUSH1 0xE0 SHL PUSH0 MSTORE PUSH1 0x11 PUSH1 0x4 MSTORE PUSH1 0x24 PUSH0 REVERT JUMPDEST PUSH1 0x1F NOT DUP2 ADD SWAP2 SWAP1 DUP3 GT PUSH2 0xEA3 JUMPI JUMP JUMPDEST PUSH0 NOT DUP2 ADD SWAP2 SWAP1 DUP3 GT PUSH2 0xEA3 JUMPI JUMP JUMPDEST SWAP1 PUSH1 0x40 MLOAD PUSH2 0x1900 DUP2 PUSH2 0x23C JUMP JUMPDEST PUSH1 0xA0 PUSH1 0x1 PUSH1 0x1 PUSH1 0x40 SHL SUB PUSH1 0x2 DUP4 SWAP6 PUSH2 0x1917 DUP2 PUSH2 0xBBA JUMP JUMPDEST DUP6 MSTORE PUSH2 0x1925 PUSH1 0x1 DUP3 ADD PUSH2 0xBBA JUMP JUMPDEST PUSH1 0x20 DUP7 ADD MSTORE ADD SLOAD DUP2 DUP2 AND PUSH1 0x40 DUP6 ADD MSTORE DUP2 DUP2 PUSH1 0x40 SHR AND PUSH1 0x60 DUP6 ADD MSTORE DUP2 DUP2 PUSH1 0x80 SHR AND PUSH1 0x80 DUP6 ADD MSTORE PUSH1 0xC0 SHR AND SWAP2 ADD MSTORE JUMP JUMPDEST SWAP1 PUSH1 0x2 DUP3 ADD DUP1 SWAP3 GT PUSH2 0xEA3 JUMPI JUMP JUMPDEST SWAP1 PUSH1 0x20 DUP3 ADD DUP1 SWAP3 GT PUSH2 0xEA3 JUMPI JUMP JUMPDEST SWAP2 SWAP1 DUP3 ADD DUP1 SWAP3 GT PUSH2 0xEA3 JUMPI JUMP JUMPDEST SWAP1 PUSH1 0x64 DUP3 MUL SWAP2 DUP1 DUP4 DIV PUSH1 0x64 EQ SWAP1 ISZERO OR ISZERO PUSH2 0xEA3 JUMPI JUMP JUMPDEST PUSH1 0x2 DUP2 SWAP1 SHL SWAP2 SWAP1 PUSH1 0x1 PUSH1 0x1 PUSH1 0xFE SHL SUB DUP2 AND SUB PUSH2 0xEA3 JUMPI JUMP JUMPDEST SWAP1 DUP2 PUSH1 0x1 SHL SWAP2 DUP1 DUP4 DIV PUSH1 0x2 EQ SWAP1 ISZERO OR ISZERO PUSH2 0xEA3 JUMPI JUMP JUMPDEST DUP2 ISZERO PUSH2 0x19CA JUMPI DIV SWAP1 JUMP JUMPDEST PUSH4 0x4E487B71 PUSH1 0xE0 SHL PUSH0 MSTORE PUSH1 0x12 PUSH1 0x4 MSTORE PUSH1 0x24 PUSH0 REVERT JUMPDEST DUP1 MLOAD SWAP2 SWAP1 DUP3 SWAP1 PUSH1 0x20 ADD DUP3 MCOPY ADD PUSH0 DUP2 MSTORE SWAP1 JUMP JUMPDEST PUSH2 0xB3A SWAP1 PUSH2 0x1A1C PUSH2 0x1A0E SWAP5 SWAP4 PUSH1 0x1 PUSH1 0x40 MLOAD SWAP7 DUP8 SWAP5 PUSH1 0x20 DUP7 ADD SWAP1 PUSH2 0x19DE JUMP JUMPDEST PUSH1 0x17 PUSH1 0xF9 SHL DUP2 MSTORE ADD SWAP1 PUSH2 0x19DE JUMP JUMPDEST SUB PUSH1 0x1F NOT DUP2 ADD DUP5 MSTORE DUP4 PUSH2 0x292 JUMP JUMPDEST PUSH1 0x6 SWAP1 PUSH2 0x1AFD PUSH2 0x1AE6 SWAP6 SWAP5 PUSH2 0x1AF7 PUSH2 0xB3A SWAP6 PUSH1 0x4 PUSH1 0x40 MLOAD SWAP10 DUP11 SWAP7 PUSH32 0x3C7376672077696474683D2233323022206865696768743D2234303022207669 PUSH1 0x20 DUP10 ADD MSTORE PUSH32 0x6577426F783D2230203020333230203430302220786D6C6E733D22687474703A PUSH1 0x40 DUP10 ADD MSTORE PUSH32 0x2F2F7777772E77332E6F72672F323030302F737667223E000000000000000000 PUSH1 0x60 DUP10 ADD MSTORE PUSH32 0x3C672073686170652D72656E646572696E673D2263726973704564676573223E PUSH1 0x77 DUP10 ADD MSTORE PUSH1 0x97 DUP9 ADD SWAP1 PUSH2 0x19DE JUMP JUMPDEST PUSH4 0x1E17B39F PUSH1 0xE1 SHL DUP2 MSTORE ADD SWAP1 PUSH2 0x19DE JUMP JUMPDEST SWAP1 PUSH2 0x19DE JUMP JUMPDEST PUSH6 0x1E17B9BB339F PUSH1 0xD1 SHL DUP2 MSTORE SUB PUSH1 0x19 NOT DUP2 ADD DUP6 MSTORE ADD DUP4 PUSH2 0x292 JUMP JUMPDEST PUSH0 MSTORE PUSH1 0x10 PUSH1 0x20 MSTORE PUSH2 0x4FB PUSH2 0x1B2E PUSH1 0x40 PUSH0 KECCAK256 PUSH2 0x18F3 JUMP JUMPDEST PUSH1 0x80 DUP2 ADD MLOAD PUSH1 0x1 PUSH1 0x1 PUSH1 0x40 SHL SUB AND DUP1 PUSH2 0x1BDE JUMPI POP PUSH2 0x1BBD PUSH2 0x1B9A PUSH1 0x1 JUMPDEST PUSH1 0x1 PUSH1 0x1 PUSH1 0x40 SHL SUB PUSH2 0x1B92 PUSH2 0x1B8D PUSH2 0x1B70 PUSH2 0x89E PUSH1 0x60 DUP10 ADD MLOAD PUSH1 0x1 PUSH1 0x1 PUSH1 0x40 SHL SUB AND SWAP1 JUMP JUMPDEST PUSH2 0x1B87 PUSH2 0x89E PUSH1 0xA0 DUP11 ADD MLOAD PUSH1 0x1 PUSH1 0x1 PUSH1 0x40 SHL SUB AND SWAP1 JUMP JUMPDEST SWAP1 PUSH2 0x196F JUMP JUMPDEST PUSH2 0x197C JUMP JUMPDEST SWAP2 AND SWAP1 PUSH2 0x19C0 JUMP JUMPDEST PUSH2 0x1BB7 PUSH2 0x1BAA PUSH2 0x1BAF PUSH1 0x64 DUP5 DIV DUP3 JUMP JUMPDEST PUSH2 0x22AB JUMP JUMPDEST SWAP3 PUSH1 0x64 SWAP1 MOD SWAP1 JUMP JUMPDEST SWAP1 PUSH2 0x19F0 JUMP JUMPDEST SWAP1 PUSH2 0x1BD8 PUSH2 0x1BC9 PUSH2 0x2401 JUMP JUMPDEST SWAP3 PUSH2 0x1BD2 PUSH2 0x261D JUMP JUMPDEST SWAP3 PUSH2 0x328E JUMP JUMPDEST SWAP2 PUSH2 0x1A2A JUMP JUMPDEST PUSH2 0x1B9A PUSH2 0x1BBD SWAP2 PUSH2 0x1B4B JUMP JUMPDEST SWAP6 SWAP4 SWAP2 SWAP8 SWAP7 SWAP5 SWAP3 SWAP1 SWAP8 PUSH1 0x40 MLOAD SWAP9 DUP10 SWAP8 PUSH20 0x7B226E616D65223A20224D504C20436172642023 PUSH1 0x60 SHL PUSH1 0x20 DUP11 ADD MSTORE PUSH1 0x34 DUP10 ADD PUSH2 0x1C23 SWAP2 PUSH2 0x19DE JUMP JUMPDEST PUSH3 0x11161 PUSH1 0xED SHL DUP2 MSTORE PUSH32 0x226465736372697074696F6E223A20224B6172747520644E4654204D504C2E20 PUSH1 0x3 DUP3 ADD MSTORE PUSH21 0x2932B73232B91027B716AA343296A3363C9711161 PUSH1 0x5D SHL PUSH1 0x23 DUP3 ADD MSTORE PUSH1 0x38 ADD PUSH15 0x2261747472696275746573223A205B PUSH1 0x88 SHL DUP2 MSTORE PUSH32 0x7B2274726169745F74797065223A20224E69636B6E616D65222C202276616C75 PUSH1 0xF DUP3 ADD MSTORE PUSH5 0x32911D1011 PUSH1 0xD9 SHL PUSH1 0x2F DUP3 ADD MSTORE PUSH1 0x34 ADD PUSH2 0x1CC8 SWAP2 PUSH2 0x19DE JUMP JUMPDEST PUSH3 0x89F4B PUSH1 0xEA SHL DUP2 MSTORE PUSH32 0x7B2274726169745F74797065223A20224C616E65222C202276616C7565223A20 PUSH1 0x3 DUP3 ADD MSTORE PUSH1 0x11 PUSH1 0xF9 SHL PUSH1 0x23 DUP3 ADD MSTORE PUSH1 0x24 ADD PUSH2 0x1D0D SWAP2 PUSH2 0x19DE JUMP JUMPDEST PUSH3 0x89F4B PUSH1 0xEA SHL DUP2 MSTORE PUSH32 0x7B2274726169745F74797065223A202247616D6573222C202276616C7565223A PUSH1 0x3 DUP3 ADD MSTORE PUSH1 0x1 PUSH1 0xFD SHL PUSH1 0x23 DUP3 ADD MSTORE PUSH1 0x24 ADD PUSH2 0x1D52 SWAP2 PUSH2 0x19DE JUMP JUMPDEST PUSH2 0x1F4B PUSH1 0xF2 SHL DUP2 MSTORE PUSH32 0x7B2274726169745F74797065223A20224B696C6C73222C202276616C7565223A PUSH1 0x2 DUP3 ADD MSTORE PUSH1 0x1 PUSH1 0xFD SHL PUSH1 0x22 DUP3 ADD MSTORE PUSH1 0x23 ADD PUSH2 0x1D96 SWAP2 PUSH2 0x19DE JUMP JUMPDEST PUSH2 0x1F4B PUSH1 0xF2 SHL DUP2 MSTORE PUSH32 0x7B2274726169745F74797065223A2022446561746873222C202276616C756522 PUSH1 0x2 DUP3 ADD MSTORE PUSH2 0x1D1 PUSH1 0xF5 SHL PUSH1 0x22 DUP3 ADD MSTORE PUSH1 0x24 ADD PUSH2 0x1DDB SWAP2 PUSH2 0x19DE JUMP JUMPDEST PUSH2 0x1F4B PUSH1 0xF2 SHL DUP2 MSTORE PUSH32 0x7B2274726169745F74797065223A202241737369737473222C202276616C7565 PUSH1 0x2 DUP3 ADD MSTORE PUSH3 0x111D1 PUSH1 0xED SHL PUSH1 0x22 DUP3 ADD MSTORE PUSH1 0x25 ADD PUSH2 0x1E21 SWAP2 PUSH2 0x19DE JUMP JUMPDEST PUSH1 0x7D PUSH1 0xF8 SHL DUP2 MSTORE PUSH3 0x2E961 PUSH1 0xED SHL PUSH1 0x1 DUP3 ADD MSTORE PUSH32 0x22696D616765223A2022646174613A696D6167652F7376672B786D6C3B626173 PUSH1 0x4 DUP3 ADD MSTORE PUSH4 0x194D8D0B PUSH1 0xE2 SHL PUSH1 0x24 DUP3 ADD MSTORE PUSH1 0x28 ADD PUSH2 0x1E73 SWAP2 PUSH2 0x19DE JUMP JUMPDEST PUSH2 0x227D PUSH1 0xF0 SHL DUP2 MSTORE SUB PUSH1 0x1D NOT DUP2 ADD DUP4 MSTORE PUSH1 0x2 ADD PUSH2 0xB3A SWAP1 DUP4 PUSH2 0x292 JUMP JUMPDEST SWAP1 PUSH2 0xB3A PUSH2 0x1A1C SWAP3 PUSH1 0x40 MLOAD SWAP4 DUP5 SWAP2 PUSH32 0x646174613A6170706C69636174696F6E2F6A736F6E3B6261736536342C000000 PUSH1 0x20 DUP5 ADD MSTORE PUSH1 0x3D DUP4 ADD SWAP1 PUSH2 0x19DE JUMP JUMPDEST SWAP2 SWAP1 DUP1 MLOAD SWAP3 DUP4 MLOAD PUSH1 0x1 PUSH1 0x1 PUSH1 0x40 SHL SUB DUP2 GT PUSH2 0x257 JUMPI PUSH2 0x1EF1 DUP2 PUSH2 0x16B3 DUP5 SLOAD PUSH2 0xACB JUMP JUMPDEST PUSH1 0x20 PUSH1 0x1F DUP3 GT PUSH1 0x1 EQ PUSH2 0x2026 JUMPI PUSH2 0x2006 SWAP3 PUSH2 0x1F2B DUP4 PUSH1 0xA0 SWAP5 PUSH1 0x2 SWAP5 PUSH2 0xB3A SWAP10 SWAP11 PUSH0 SWAP3 PUSH2 0x3A5 JUMPI POP POP DUP2 PUSH1 0x1 SHL SWAP2 PUSH0 NOT SWAP1 PUSH1 0x3 SHL SHR NOT AND OR SWAP1 JUMP JUMPDEST DUP2 SSTORE JUMPDEST PUSH2 0x1F3F PUSH1 0x20 DUP7 ADD MLOAD PUSH1 0x1 DUP4 ADD PUSH2 0x1692 JUMP JUMPDEST ADD SWAP3 PUSH2 0x1F75 PUSH2 0x1F58 PUSH1 0x40 DUP4 ADD MLOAD PUSH1 0x1 PUSH1 0x1 PUSH1 0x40 SHL SUB AND SWAP1 JUMP JUMPDEST DUP6 SLOAD PUSH8 0xFFFFFFFFFFFFFFFF NOT AND PUSH1 0x1 PUSH1 0x1 PUSH1 0x40 SHL SUB SWAP1 SWAP2 AND OR DUP6 SSTORE JUMP JUMPDEST PUSH2 0x1FB9 PUSH2 0x1F8C PUSH1 0x60 DUP4 ADD MLOAD PUSH1 0x1 PUSH1 0x1 PUSH1 0x40 SHL SUB AND SWAP1 JUMP JUMPDEST DUP6 SLOAD PUSH16 0xFFFFFFFFFFFFFFFF0000000000000000 NOT AND PUSH1 0x40 SWAP2 SWAP1 SWAP2 SHL PUSH8 0xFFFFFFFFFFFFFFFF PUSH1 0x40 SHL AND OR DUP6 SSTORE JUMP JUMPDEST PUSH2 0x1FF8 PUSH2 0x1FD0 PUSH1 0x80 DUP4 ADD MLOAD PUSH1 0x1 PUSH1 0x1 PUSH1 0x40 SHL SUB AND SWAP1 JUMP JUMPDEST DUP6 SLOAD PUSH8 0xFFFFFFFFFFFFFFFF PUSH1 0x80 SHL NOT AND PUSH1 0x80 SWAP2 SWAP1 SWAP2 SHL PUSH8 0xFFFFFFFFFFFFFFFF PUSH1 0x80 SHL AND OR DUP6 SSTORE JUMP JUMPDEST ADD MLOAD PUSH1 0x1 PUSH1 0x1 PUSH1 0x40 SHL SUB AND SWAP1 JUMP JUMPDEST DUP2 SLOAD PUSH1 0x1 PUSH1 0x1 PUSH1 0xC0 SHL SUB AND PUSH1 0xC0 SWAP2 SWAP1 SWAP2 SHL PUSH1 0x1 PUSH1 0x1 PUSH1 0xC0 SHL SUB NOT AND OR SWAP1 SSTORE JUMP JUMPDEST PUSH1 0x1F NOT DUP3 AND SWAP6 PUSH2 0x2039 DUP5 PUSH0 MSTORE PUSH1 0x20 PUSH0 KECCAK256 SWAP1 JUMP JUMPDEST SWAP7 PUSH0 JUMPDEST DUP2 DUP2 LT PUSH2 0x2083 JUMPI POP DUP4 PUSH2 0xB3A SWAP8 SWAP9 PUSH1 0x2 SWAP5 PUSH2 0x2006 SWAP8 SWAP5 PUSH1 0xA0 SWAP8 PUSH1 0x1 SWAP6 LT PUSH2 0x206B JUMPI JUMPDEST POP POP POP DUP2 SHL ADD DUP2 SSTORE PUSH2 0x1F2E JUMP JUMPDEST ADD MLOAD PUSH0 NOT PUSH1 0xF8 DUP5 PUSH1 0x3 SHL AND SHR NOT AND SWAP1 SSTORE PUSH0 DUP1 DUP1 PUSH2 0x205E JUMP JUMPDEST DUP4 DUP4 ADD MLOAD DUP10 SSTORE PUSH1 0x1 SWAP1 SWAP9 ADD SWAP8 PUSH1 0x20 SWAP4 DUP5 ADD SWAP4 ADD PUSH2 0x203C JUMP JUMPDEST PUSH0 NOT DUP2 EQ PUSH2 0xEA3 JUMPI PUSH1 0x1 ADD SWAP1 JUMP JUMPDEST PUSH1 0x7 SLOAD PUSH1 0x1 PUSH1 0x1 PUSH1 0xA0 SHL SUB AND CALLER SUB PUSH2 0x20BD JUMPI JUMP JUMPDEST PUSH4 0x118CDAA7 PUSH1 0xE0 SHL PUSH0 MSTORE CALLER PUSH1 0x4 MSTORE PUSH1 0x24 PUSH0 REVERT JUMPDEST PUSH0 DUP2 DUP2 MSTORE PUSH1 0x2 PUSH1 0x20 MSTORE PUSH1 0x40 SWAP1 KECCAK256 SLOAD PUSH1 0x1 PUSH1 0x1 PUSH1 0xA0 SHL SUB AND SWAP1 DUP2 ISZERO PUSH2 0x20F2 JUMPI POP SWAP1 JUMP JUMPDEST PUSH4 0x7E273289 PUSH1 0xE0 SHL PUSH0 MSTORE PUSH1 0x4 MSTORE PUSH1 0x24 PUSH0 REVERT JUMPDEST SWAP1 DUP2 PUSH1 0x20 SWAP2 SUB SLT PUSH2 0x312 JUMPI MLOAD SWAP1 JUMP JUMPDEST PUSH1 0x40 DUP1 MLOAD SWAP1 SWAP2 SWAP1 PUSH2 0x2124 DUP4 DUP3 PUSH2 0x292 JUMP JUMPDEST PUSH1 0x1 DUP2 MSTORE SWAP2 PUSH1 0x1F NOT ADD DUP3 PUSH0 JUMPDEST DUP3 DUP2 LT PUSH2 0x213C JUMPI POP POP POP JUMP JUMPDEST DUP1 PUSH1 0x60 PUSH1 0x20 DUP1 SWAP4 DUP6 ADD ADD MSTORE ADD PUSH2 0x2130 JUMP JUMPDEST PUSH4 0x4E487B71 PUSH1 0xE0 SHL PUSH0 MSTORE PUSH1 0x32 PUSH1 0x4 MSTORE PUSH1 0x24 PUSH0 REVERT JUMPDEST DUP1 MLOAD ISZERO PUSH2 0x216E JUMPI PUSH1 0x20 ADD SWAP1 JUMP JUMPDEST PUSH2 0x214D JUMP JUMPDEST DUP1 MLOAD DUP3 LT ISZERO PUSH2 0x216E JUMPI PUSH1 0x20 SWAP2 PUSH1 0x5 SHL ADD ADD SWAP1 JUMP JUMPDEST SWAP1 PUSH2 0x2274 SWAP3 SWAP2 PUSH32 0x36C447AD99DF7457C4F3D38DAD77DA717D67A685E3ED93297FEFC4601D9BEB25 PUSH2 0x223B PUSH2 0x2226 PUSH1 0x40 MLOAD PUSH2 0x21C0 DUP2 PUSH2 0x25C JUMP JUMPDEST PUSH0 DUP2 MSTORE PUSH0 PUSH1 0x20 DUP3 ADD MSTORE PUSH0 PUSH1 0x40 DUP3 ADD MSTORE PUSH1 0x60 DUP1 DUP3 ADD MSTORE PUSH1 0x60 PUSH1 0x80 DUP3 ADD MSTORE PUSH1 0x60 PUSH1 0xA0 DUP3 ADD MSTORE PUSH1 0x60 PUSH1 0xC0 DUP3 ADD MSTORE PUSH2 0x21FB PUSH2 0x21F5 PUSH2 0xB03 JUMP JUMPDEST DUP3 PUSH2 0x41B2 JUMP JUMPDEST PUSH2 0x2221 PUSH2 0x2206 PUSH2 0x2113 JUMP JUMPDEST DUP8 PUSH2 0x2210 DUP3 PUSH2 0x2161 JUMP JUMPDEST MSTORE PUSH2 0x221A DUP2 PUSH2 0x2161 JUMP JUMPDEST POP DUP3 PUSH2 0x3C87 JUMP JUMPDEST PUSH2 0x3DDF JUMP JUMPDEST PUSH1 0xB SLOAD PUSH1 0x1 PUSH1 0x1 PUSH1 0x40 SHL SUB AND PUSH1 0xA SLOAD SWAP2 PUSH2 0x3FA8 JUMP JUMPDEST SWAP5 DUP6 SWAP4 DUP4 PUSH2 0x2251 DUP7 PUSH0 MSTORE PUSH1 0x11 PUSH1 0x20 MSTORE PUSH1 0x40 PUSH0 KECCAK256 SWAP1 JUMP JUMPDEST SSTORE PUSH2 0x545 PUSH2 0x2267 DUP7 PUSH0 MSTORE PUSH1 0x12 PUSH1 0x20 MSTORE PUSH1 0x40 PUSH0 KECCAK256 SWAP1 JUMP JUMPDEST DUP1 SLOAD PUSH1 0xFF NOT AND PUSH1 0x1 OR SWAP1 SSTORE JUMP JUMPDEST SUB SWAP1 LOG3 JUMP JUMPDEST SWAP1 PUSH2 0x2283 DUP3 PUSH2 0x2B3 JUMP JUMPDEST PUSH2 0x2290 PUSH1 0x40 MLOAD SWAP2 DUP3 PUSH2 0x292 JUMP JUMPDEST DUP3 DUP2 MSTORE DUP1 SWAP3 PUSH2 0x22A1 PUSH1 0x1F NOT SWAP2 PUSH2 0x2B3 JUMP JUMPDEST ADD SWAP1 PUSH1 0x20 CALLDATASIZE SWAP2 ADD CALLDATACOPY JUMP JUMPDEST DUP1 PUSH0 SWAP2 PUSH19 0x184F03E93FF9F4DAA797ED6E38ED64BF6A1F01 PUSH1 0x40 SHL DUP3 LT ISZERO PUSH2 0x23DE JUMPI JUMPDEST DUP1 PUSH14 0x4EE2D6D415B85ACEF8100000000 PUSH1 0xA SWAP3 LT ISZERO PUSH2 0x23C2 JUMPI JUMPDEST PUSH7 0x2386F26FC10000 DUP2 LT ISZERO PUSH2 0x23AD JUMPI JUMPDEST PUSH4 0x5F5E100 DUP2 LT ISZERO PUSH2 0x239B JUMPI JUMPDEST PUSH2 0x2710 DUP2 LT ISZERO PUSH2 0x238B JUMPI JUMPDEST PUSH1 0x64 DUP2 LT ISZERO PUSH2 0x237C JUMPI JUMPDEST LT ISZERO PUSH2 0x2371 JUMPI JUMPDEST PUSH2 0x235C PUSH1 0x21 PUSH2 0x2331 PUSH1 0x1 DUP6 ADD PUSH2 0x2279 JUMP JUMPDEST SWAP4 DUP5 ADD ADD JUMPDEST PUSH0 NOT ADD SWAP2 PUSH16 0x181899199A1A9B1B9C1CB0B131B232B3 PUSH1 0x81 SHL PUSH1 0xA DUP3 MOD BYTE DUP4 MSTORE8 PUSH1 0xA SWAP1 DIV SWAP1 JUMP JUMPDEST DUP1 ISZERO PUSH2 0x236C JUMPI PUSH2 0x235C SWAP1 SWAP2 PUSH2 0x2336 JUMP JUMPDEST POP POP SWAP1 JUMP JUMPDEST PUSH1 0x1 SWAP1 SWAP2 ADD SWAP1 PUSH2 0x2320 JUMP JUMPDEST PUSH1 0x2 SWAP1 PUSH1 0x64 SWAP1 DIV SWAP4 ADD SWAP3 PUSH2 0x2319 JUMP JUMPDEST PUSH1 0x4 SWAP1 PUSH2 0x2710 SWAP1 DIV SWAP4 ADD SWAP3 PUSH2 0x230F JUMP JUMPDEST PUSH1 0x8 SWAP1 PUSH4 0x5F5E100 SWAP1 DIV SWAP4 ADD SWAP3 PUSH2 0x2304 JUMP JUMPDEST PUSH1 0x10 SWAP1 PUSH7 0x2386F26FC10000 SWAP1 DIV SWAP4 ADD SWAP3 PUSH2 0x22F7 JUMP JUMPDEST PUSH1 0x20 SWAP1 PUSH14 0x4EE2D6D415B85ACEF8100000000 SWAP1 DIV SWAP4 ADD SWAP3 PUSH2 0x22E7 JUMP JUMPDEST POP PUSH1 0x40 SWAP2 POP PUSH19 0x184F03E93FF9F4DAA797ED6E38ED64BF6A1F01 PUSH1 0x40 SHL DUP2 DIV PUSH2 0x22CD JUMP JUMPDEST PUSH1 0x40 DUP1 MLOAD PUSH32 0x3C7265637420783D22302220793D2230222077696474683D2233323022206865 PUSH1 0x20 DUP3 ADD MSTORE PUSH32 0x696768743D22343030222066696C6C3D2223306231303165222F3E0000000000 SWAP2 DUP2 ADD SWAP2 SWAP1 SWAP2 MSTORE PUSH32 0x3C7265637420783D22382220793D2238222077696474683D2233303422206865 PUSH1 0x5B DUP3 ADD DUP2 SWAP1 MSTORE PUSH32 0x696768743D22333834222066696C6C3D2223313431653333222F3E0000000000 PUSH1 0x7B DUP4 ADD MSTORE PUSH1 0x96 DUP3 ADD MSTORE PUSH32 0x696768743D22333834222066696C6C3D226E6F6E6522207374726F6B653D2223 PUSH1 0xB6 DUP3 ADD MSTORE PUSH32 0x30306630666622207374726F6B652D77696474683D22312E35222072783D2232 PUSH1 0xD6 DUP3 ADD MSTORE PUSH3 0x11179F PUSH1 0xE9 SHL PUSH1 0xF6 DUP3 ADD MSTORE PUSH32 0x3C7465787420783D223136302220793D223336222066696C6C3D222330306630 PUSH1 0xF9 DUP3 ADD MSTORE PUSH32 0x66662220666F6E742D73697A653D2231362220746578742D616E63686F723D22 PUSH2 0x119 DUP3 ADD MSTORE PUSH32 0x6D6964646C652220666F6E742D7765696768743D22626F6C642220666F6E742D PUSH2 0x139 DUP3 ADD MSTORE PUSH32 0x66616D696C793D226D6F6E6F7370616365223E4D504C20504C41594552204341 PUSH2 0x159 DUP3 ADD MSTORE PUSH9 0x29221E17BA32BC3A1F PUSH1 0xB9 SHL PUSH2 0x179 DUP3 ADD MSTORE PUSH32 0x3C6C696E652078313D223230222079313D223530222078323D22333030222079 PUSH2 0x182 DUP3 ADD MSTORE PUSH32 0x323D22353022207374726F6B653D222330306630666622207374726F6B652D77 PUSH2 0x1A2 DUP3 ADD MSTORE PUSH10 0x34B23A341E911911179F PUSH1 0xB1 SHL PUSH2 0x1C2 DUP3 ADD MSTORE SWAP1 PUSH2 0xB3A DUP3 PUSH2 0x1CC DUP2 ADD PUSH2 0x1A1C JUMP JUMPDEST PUSH1 0x40 MLOAD SWAP1 PUSH2 0x262D PUSH2 0x8C0 DUP4 PUSH2 0x292 JUMP JUMPDEST PUSH2 0x894 DUP3 MSTORE PUSH32 0x3C73766720783D2231302220793D223330222077696474683D22313430222068 PUSH1 0x20 DUP4 ADD MSTORE PUSH32 0x65696768743D22333830222076696577426F783D223020302033322033322220 PUSH1 0x40 DUP4 ADD MSTORE PUSH32 0x73686170652D72656E646572696E673D2263726973704564676573223E3C6720 PUSH1 0x60 DUP4 ADD MSTORE PUSH32 0x7472616E73666F726D3D227472616E736C6174652833322C203029207363616C PUSH1 0x80 DUP4 ADD MSTORE PUSH32 0x65282D312C203129223E3C706174682066696C6C3D2223303030303030222064 PUSH1 0xA0 DUP4 ADD MSTORE PUSH32 0x3D224D3131203268313076314831317A204D3920336832763148397A204D3231 PUSH1 0xC0 DUP4 ADD MSTORE PUSH32 0x2033683276314832317A204D3820346831763148387A204D3233203468317631 PUSH1 0xE0 DUP4 ADD MSTORE PUSH32 0x4832337A204D3820356831763148387A204D32342035683176314832347A204D PUSH2 0x100 DUP4 ADD MSTORE PUSH32 0x3820366831763148387A204D32342036683176314832347A204D382037683176 PUSH2 0x120 DUP4 ADD MSTORE PUSH32 0x3148387A204D32342037683176314832347A204D3820386831763148387A204D PUSH2 0x140 DUP4 ADD MSTORE PUSH32 0x32342038683176314832347A204D3920396831763148397A204D323420396831 PUSH2 0x160 DUP4 ADD MSTORE PUSH32 0x76314832347A204D392031306831763148397A204D3233203130683176314832 PUSH2 0x180 DUP4 ADD MSTORE PUSH32 0x337A204D392031316831763148397A204D3132203131683276314831327A204D PUSH2 0x1A0 DUP4 ADD MSTORE PUSH32 0x3138203131683276314831387A204D3233203131683176314832337A204D3920 PUSH2 0x1C0 DUP4 ADD MSTORE PUSH32 0x31326831763148397A204D3233203132683176314832337A204D313020313368 PUSH2 0x1E0 DUP4 ADD MSTORE PUSH32 0x3176314831307A204D3232203133683176314832327A204D3130203134683176 PUSH2 0x200 DUP4 ADD MSTORE PUSH32 0x314831307A204D3232203134683176314832327A204D31302031356831763148 PUSH2 0x220 DUP4 ADD MSTORE PUSH32 0x31307A204D3232203135683176314832327A204D313120313668317631483131 PUSH2 0x240 DUP4 ADD MSTORE PUSH32 0x7A204D3231203136683176314832317A204D3131203137683176314831317A20 PUSH2 0x260 DUP4 ADD MSTORE PUSH32 0x4D3231203137683176314832317A204D3132203138683176314831327A204D32 PUSH2 0x280 DUP4 ADD MSTORE PUSH32 0x30203138683176314832307A204D3132203139683176314831327A204D323020 PUSH2 0x2A0 DUP4 ADD MSTORE PUSH32 0x3139683176314832307A204D3131203230683176314831317A204D3231203230 PUSH2 0x2C0 DUP4 ADD MSTORE PUSH32 0x683176314832317A204D392032316832763148397A204D323220323168327631 PUSH2 0x2E0 DUP4 ADD MSTORE PUSH32 0x4832327A204D372032326832763148377A204D3234203232683276314832347A PUSH2 0x300 DUP4 ADD MSTORE PUSH32 0x204D362032336831763148367A204D3236203233683176314832367A204D3520 PUSH2 0x320 DUP4 ADD MSTORE PUSH32 0x32346831763148357A204D3237203234683176314832377A204D342032356831 PUSH2 0x340 DUP4 ADD MSTORE PUSH32 0x763148347A204D3238203235683176314832387A204D33203236683176314833 PUSH2 0x360 DUP4 ADD MSTORE PUSH32 0x7A204D3239203236683176314832397A204D332032376831763148337A204D32 PUSH2 0x380 DUP4 ADD MSTORE PUSH32 0x39203237683176314832397A204D332032386831763148337A204D3239203238 PUSH2 0x3A0 DUP4 ADD MSTORE PUSH32 0x683176314832397A204D332032396831763148337A204D323920323968317631 PUSH2 0x3C0 DUP4 ADD MSTORE PUSH32 0x4832397A204D332033306831763148337A204D3239203330683176314832397A PUSH2 0x3E0 DUP4 ADD MSTORE PUSH32 0x204D33203331683237763148337A22202F3E3C706174682066696C6C3D222330 PUSH2 0x400 DUP4 ADD MSTORE PUSH32 0x30303030302220643D224D3131203368313076314831317A204D392034683134 PUSH2 0x420 DUP4 ADD MSTORE PUSH32 0x763148397A204D392035683135763148397A204D392036683135763148397A20 PUSH2 0x440 DUP4 ADD MSTORE PUSH32 0x4D392037683135763148397A204D3920386833763148397A204D323020386834 PUSH2 0x460 DUP4 ADD MSTORE PUSH32 0x76314832307A204D31302039683276314831307A204D32322039683276314832 PUSH2 0x480 DUP4 ADD MSTORE PUSH32 0x327A204D3130203130683176314831307A204D3232203130683176314832327A PUSH2 0x4A0 DUP4 ADD MSTORE PUSH32 0x22202F3E3C706174682066696C6C3D22236534623539302220643D224D313220 PUSH2 0x4C0 DUP4 ADD MSTORE PUSH32 0x38683876314831327A204D3132203968313076314831327A204D313120313068 PUSH2 0x4E0 DUP4 ADD MSTORE PUSH32 0x313176314831317A204D3130203131683276314831307A204D31342031316834 PUSH2 0x500 DUP4 ADD MSTORE PUSH32 0x76314831347A204D3230203131683376314832307A204D313020313268313376 PUSH2 0x520 DUP4 ADD MSTORE PUSH32 0x314831307A204D3131203133683476314831317A204D31372031336835763148 PUSH2 0x540 DUP4 ADD MSTORE PUSH32 0x31377A204D313120313468313176314831317A204D3131203135683376314831 PUSH2 0x560 DUP4 ADD MSTORE PUSH32 0x317A204D3138203135683476314831387A204D3132203136683976314831327A PUSH2 0x580 DUP4 ADD MSTORE PUSH32 0x204D3132203137683976314831327A204D3133203138683776314831337A2220 PUSH2 0x5A0 DUP4 ADD MSTORE PUSH32 0x2F3E3C706174682066696C6C3D22236335393437332220643D224D3135203133 PUSH2 0x5C0 DUP4 ADD MSTORE PUSH32 0x683276314831357A204D3133203139683776314831337A204D31342032306835 PUSH2 0x5E0 DUP4 ADD MSTORE PUSH32 0x76314831347A22202F3E3C706174682066696C6C3D2223626436613466222064 PUSH2 0x600 DUP4 ADD MSTORE PUSH32 0x3D224D3134203135683476314831347A22202F3E3C706174682066696C6C3D22 PUSH2 0x620 DUP4 ADD MSTORE PUSH32 0x236666666666662220643D224D3132203230683276314831327A204D31392032 PUSH2 0x640 DUP4 ADD MSTORE PUSH32 0x30683276314831397A204D3131203231683376314831317A204D313920323168 PUSH2 0x660 DUP4 ADD MSTORE PUSH32 0x3376314831397A204D392032326834763148397A204D32302032326834763148 PUSH2 0x680 DUP4 ADD MSTORE PUSH32 0x32307A204D372032336835763148377A204D3231203233683576314832317A20 PUSH2 0x6A0 DUP4 ADD MSTORE PUSH32 0x4D362032346835763148367A204D3232203234683576314832327A204D352032 PUSH2 0x6C0 DUP4 ADD MSTORE PUSH32 0x356835763148357A204D3133203235683276314831337A204D31362032356832 PUSH2 0x6E0 DUP4 ADD MSTORE PUSH32 0x76314831367A204D3139203235683276314831397A204D323320323568357631 PUSH2 0x700 DUP4 ADD MSTORE PUSH32 0x4832337A204D342032366835763148347A204D3234203236683576314832347A PUSH2 0x720 DUP4 ADD MSTORE PUSH32 0x204D342032376834763148347A204D3235203237683476314832357A204D3420 PUSH2 0x740 DUP4 ADD MSTORE PUSH32 0x32386834763148347A204D3235203238683476314832357A204D342032396834 PUSH2 0x760 DUP4 ADD MSTORE PUSH32 0x763148347A204D3235203239683476314832357A204D36203330683276314836 PUSH2 0x780 DUP4 ADD MSTORE PUSH32 0x7A204D3235203330683276314832357A22202F3E3C706174682066696C6C3D22 PUSH2 0x7A0 DUP4 ADD MSTORE PUSH32 0x236566383131352220643D224D3134203231683576314831347A204D31332032 PUSH2 0x7C0 DUP4 ADD MSTORE PUSH32 0x32683776314831337A204D3132203233683976314831327A204D313120323468 PUSH2 0x7E0 DUP4 ADD MSTORE PUSH32 0x313176314831317A204D3130203235683376314831307A204D31352032356831 PUSH2 0x800 DUP4 ADD MSTORE PUSH32 0x76314831357A204D3138203235683176314831387A204D323120323568327631 PUSH2 0x820 DUP4 ADD MSTORE PUSH32 0x4832317A204D39203236683135763148397A204D38203237683137763148387A PUSH2 0x840 DUP4 ADD MSTORE PUSH32 0x204D38203238683137763148387A204D38203239683137763148387A204D3420 PUSH2 0x860 DUP4 ADD MSTORE PUSH32 0x33306832763148347A204D38203330683137763148387A204D32372033306832 PUSH2 0x880 DUP4 ADD MSTORE PUSH20 0x3B18A4191BBD1110179F1E17B39F1E17B9BB339F PUSH1 0x61 SHL PUSH2 0x8A0 DUP4 ADD MSTORE JUMP JUMPDEST PUSH1 0x4 SWAP1 PUSH2 0x3275 PUSH2 0x3142 SWAP6 SWAP5 PUSH2 0x1AF7 PUSH1 0x7 PUSH2 0x31F1 PUSH2 0xB3A SWAP8 PUSH1 0x9A PUSH1 0x40 MLOAD SWAP12 DUP13 SWAP9 PUSH32 0x3C67207472616E73666F726D3D227472616E736C617465283138302C20393529 PUSH1 0x20 DUP12 ADD MSTORE PUSH32 0x222073686170652D72656E646572696E673D2263726973704564676573223E00 PUSH1 0x40 DUP12 ADD MSTORE PUSH32 0x3C7465787420783D222D33302220793D223230222066696C6C3D220000000000 PUSH1 0x5F DUP12 ADD MSTORE PUSH1 0x7A DUP11 ADD SWAP1 PUSH2 0x19DE JUMP JUMPDEST PUSH0 MLOAD PUSH1 0x20 PUSH2 0x48FA PUSH0 CODECOPY PUSH0 MLOAD SWAP1 PUSH0 MSTORE DUP2 MSTORE PUSH32 0x6E6F7370616365223E504C41594552204E414D453A3C2F746578743E00000000 PUSH1 0x20 DUP3 ADD MSTORE PUSH32 0x3C7465787420783D222D33302220793D223436222066696C6C3D222365636630 PUSH1 0x3C DUP3 ADD MSTORE PUSH32 0x66312220666F6E742D73697A653D2232302220666F6E742D7765696768743D22 PUSH1 0x5C DUP3 ADD MSTORE PUSH32 0x626F6C642220666F6E742D66616D696C793D226D6F6E6F7370616365223E0000 PUSH1 0x7C DUP3 ADD MSTORE ADD SWAP1 PUSH2 0x19DE JUMP JUMPDEST PUSH7 0x1E17BA32BC3A1F PUSH1 0xC9 SHL DUP2 MSTORE ADD PUSH1 0x5F SWAP1 PUSH32 0x3C6C696E652078313D222D3235222079313D223638222078323D223132302220 DUP2 MSTORE PUSH32 0x79323D22363822207374726F6B653D222335353522207374726F6B652D776964 PUSH1 0x20 DUP3 ADD MSTORE PUSH32 0x74683D223322207374726F6B652D6461736861727261793D22382C36222F3E00 PUSH1 0x40 DUP3 ADD MSTORE ADD SWAP1 JUMP JUMPDEST PUSH4 0x1E17B39F PUSH1 0xE1 SHL DUP2 MSTORE SUB PUSH1 0x1B NOT DUP2 ADD DUP6 MSTORE ADD DUP4 PUSH2 0x292 JUMP JUMPDEST PUSH1 0x40 MLOAD SWAP2 PUSH2 0x329D PUSH1 0x40 DUP5 PUSH2 0x292 JUMP JUMPDEST PUSH1 0x7 DUP4 MSTORE PUSH1 0x20 DUP4 ADD PUSH7 0x11999A1C9C3231 PUSH1 0xC9 SHL SWAP1 MSTORE DUP2 MLOAD SWAP1 PUSH1 0x20 DUP4 ADD MLOAD SWAP1 PUSH1 0x40 DUP5 ADD MLOAD PUSH1 0x1 PUSH1 0x1 PUSH1 0x40 SHL SUB AND PUSH2 0x32D2 SWAP1 PUSH2 0x22AB JUMP JUMPDEST SWAP4 PUSH1 0x60 DUP2 ADD MLOAD PUSH1 0x1 PUSH1 0x1 PUSH1 0x40 SHL SUB AND PUSH2 0x32EA SWAP1 PUSH2 0x22AB JUMP JUMPDEST SWAP1 PUSH1 0x80 DUP2 ADD MLOAD PUSH1 0x1 PUSH1 0x1 PUSH1 0x40 SHL SUB AND PUSH2 0x3302 SWAP1 PUSH2 0x22AB JUMP JUMPDEST SWAP1 PUSH1 0xA0 ADD MLOAD PUSH1 0x1 PUSH1 0x1 PUSH1 0x40 SHL SUB AND PUSH2 0x3319 SWAP1 PUSH2 0x22AB JUMP JUMPDEST SWAP2 PUSH1 0x40 MLOAD SWAP7 DUP8 SWAP6 PUSH1 0x20 DUP8 ADD PUSH2 0x334D SWAP1 PUSH32 0x3C7465787420783D222D33302220793D22393222202066696C6C3D2200000000 SWAP1 MSTORE JUMP JUMPDEST PUSH2 0x335A PUSH1 0x3C DUP9 ADD DUP12 PUSH2 0x19DE JUMP JUMPDEST PUSH0 MLOAD PUSH1 0x20 PUSH2 0x48FA PUSH0 CODECOPY PUSH0 MLOAD SWAP1 PUSH0 MSTORE DUP2 MSTORE PUSH32 0x6E6F7370616365223E4C414E452020203A3C2F746578743E0000000000000000 PUSH1 0x20 DUP3 ADD MSTORE PUSH1 0x38 ADD PUSH32 0x3C7465787420783D223132302220793D22393222202066696C6C3D2223656366 DUP2 MSTORE PUSH0 MLOAD PUSH1 0x20 PUSH2 0x48DA PUSH0 CODECOPY PUSH0 MLOAD SWAP1 PUSH0 MSTORE PUSH1 0x20 DUP3 ADD MSTORE PUSH0 MLOAD PUSH1 0x20 PUSH2 0x48BA PUSH0 CODECOPY PUSH0 MLOAD SWAP1 PUSH0 MSTORE PUSH1 0x40 DUP3 ADD MSTORE PUSH1 0x5E ADD PUSH2 0x33E8 SWAP2 PUSH2 0x19DE JUMP JUMPDEST PUSH7 0x1E17BA32BC3A1F PUSH1 0xC9 SHL DUP2 MSTORE PUSH32 0x3C7465787420783D222D33302220793D22313136222066696C6C3D2200000000 PUSH1 0x7 DUP3 ADD MSTORE PUSH1 0x23 ADD PUSH2 0x3428 SWAP1 DUP11 PUSH2 0x19DE JUMP JUMPDEST PUSH0 MLOAD PUSH1 0x20 PUSH2 0x48FA PUSH0 CODECOPY PUSH0 MLOAD SWAP1 PUSH0 MSTORE DUP2 MSTORE PUSH32 0x6E6F7370616365223E47414D455320203A3C2F746578743E0000000000000000 PUSH1 0x20 DUP3 ADD MSTORE PUSH1 0x38 ADD PUSH32 0x3C7465787420783D223132302220793D22313136222066696C6C3D2223656366 DUP2 MSTORE PUSH0 MLOAD PUSH1 0x20 PUSH2 0x48DA PUSH0 CODECOPY PUSH0 MLOAD SWAP1 PUSH0 MSTORE PUSH1 0x20 DUP3 ADD MSTORE PUSH0 MLOAD PUSH1 0x20 PUSH2 0x48BA PUSH0 CODECOPY PUSH0 MLOAD SWAP1 PUSH0 MSTORE PUSH1 0x40 DUP3 ADD MSTORE PUSH1 0x5E ADD PUSH2 0x34B6 SWAP2 PUSH2 0x19DE JUMP JUMPDEST PUSH7 0x1E17BA32BC3A1F PUSH1 0xC9 SHL DUP2 MSTORE PUSH32 0x3C7465787420783D222D33302220793D22313430222066696C6C3D2200000000 PUSH1 0x7 DUP3 ADD MSTORE PUSH1 0x23 ADD PUSH2 0x34F6 SWAP1 DUP10 PUSH2 0x19DE JUMP JUMPDEST PUSH0 MLOAD PUSH1 0x20 PUSH2 0x48FA PUSH0 CODECOPY PUSH0 MLOAD SWAP1 PUSH0 MSTORE DUP2 MSTORE PUSH32 0x6E6F7370616365223E4B494C4C5320203A3C2F746578743E0000000000000000 PUSH1 0x20 DUP3 ADD MSTORE PUSH1 0x38 ADD PUSH32 0x3C7465787420783D223132302220793D22313430222066696C6C3D2223656366 DUP2 MSTORE PUSH0 MLOAD PUSH1 0x20 PUSH2 0x48DA PUSH0 CODECOPY PUSH0 MLOAD SWAP1 PUSH0 MSTORE PUSH1 0x20 DUP3 ADD MSTORE PUSH0 MLOAD PUSH1 0x20 PUSH2 0x48BA PUSH0 CODECOPY PUSH0 MLOAD SWAP1 PUSH0 MSTORE PUSH1 0x40 DUP3 ADD MSTORE PUSH1 0x5E ADD PUSH2 0x3584 SWAP2 PUSH2 0x19DE JUMP JUMPDEST PUSH7 0x1E17BA32BC3A1F PUSH1 0xC9 SHL DUP2 MSTORE PUSH32 0x3C7465787420783D222D33302220793D22313634222066696C6C3D2200000000 PUSH1 0x7 DUP3 ADD MSTORE PUSH1 0x23 ADD PUSH2 0x35C4 SWAP1 DUP9 PUSH2 0x19DE JUMP JUMPDEST PUSH0 MLOAD PUSH1 0x20 PUSH2 0x48FA PUSH0 CODECOPY PUSH0 MLOAD SWAP1 PUSH0 MSTORE DUP2 MSTORE PUSH32 0x6E6F7370616365223E444541544853203A3C2F746578743E0000000000000000 PUSH1 0x20 DUP3 ADD MSTORE PUSH1 0x38 ADD PUSH32 0x3C7465787420783D223132302220793D22313634222066696C6C3D2223656366 DUP2 MSTORE PUSH0 MLOAD PUSH1 0x20 PUSH2 0x48DA PUSH0 CODECOPY PUSH0 MLOAD SWAP1 PUSH0 MSTORE PUSH1 0x20 DUP3 ADD MSTORE PUSH0 MLOAD PUSH1 0x20 PUSH2 0x48BA PUSH0 CODECOPY PUSH0 MLOAD SWAP1 PUSH0 MSTORE PUSH1 0x40 DUP3 ADD MSTORE PUSH1 0x5E ADD PUSH2 0x3652 SWAP2 PUSH2 0x19DE JUMP JUMPDEST PUSH7 0x1E17BA32BC3A1F PUSH1 0xC9 SHL DUP2 MSTORE PUSH32 0x3C7465787420783D222D33302220793D22313838222066696C6C3D2200000000 PUSH1 0x7 DUP3 ADD MSTORE PUSH1 0x23 ADD PUSH2 0x3692 SWAP1 DUP8 PUSH2 0x19DE JUMP JUMPDEST PUSH0 MLOAD PUSH1 0x20 PUSH2 0x48FA PUSH0 CODECOPY PUSH0 MLOAD SWAP1 PUSH0 MSTORE DUP2 MSTORE PUSH32 0x6E6F7370616365223E415353495354533A3C2F746578743E0000000000000000 PUSH1 0x20 DUP3 ADD MSTORE PUSH1 0x38 ADD PUSH32 0x3C7465787420783D223132302220793D22313838222066696C6C3D2223656366 DUP2 MSTORE PUSH0 MLOAD PUSH1 0x20 PUSH2 0x48DA PUSH0 CODECOPY PUSH0 MLOAD SWAP1 PUSH0 MSTORE PUSH1 0x20 DUP3 ADD MSTORE PUSH0 MLOAD PUSH1 0x20 PUSH2 0x48BA PUSH0 CODECOPY PUSH0 MLOAD SWAP1 PUSH0 MSTORE PUSH1 0x40 DUP3 ADD MSTORE PUSH1 0x5E ADD PUSH2 0x3720 SWAP2 PUSH2 0x19DE JUMP JUMPDEST PUSH7 0x1E17BA32BC3A1F PUSH1 0xC9 SHL DUP2 MSTORE PUSH32 0x3C7465787420783D222D33302220793D22323132222066696C6C3D2200000000 PUSH1 0x7 DUP3 ADD MSTORE PUSH1 0x23 ADD PUSH2 0x3760 SWAP1 DUP7 PUSH2 0x19DE JUMP JUMPDEST PUSH0 MLOAD PUSH1 0x20 PUSH2 0x48FA PUSH0 CODECOPY PUSH0 MLOAD SWAP1 PUSH0 MSTORE DUP2 MSTORE PUSH32 0x6E6F7370616365223E4B4441202020203A3C2F746578743E0000000000000000 PUSH1 0x20 DUP3 ADD MSTORE PUSH1 0x38 ADD PUSH32 0x3C7465787420783D223132302220793D22323132222066696C6C3D2223656366 DUP2 MSTORE PUSH0 MLOAD PUSH1 0x20 PUSH2 0x48DA PUSH0 CODECOPY PUSH0 MLOAD SWAP1 PUSH0 MSTORE PUSH1 0x20 DUP3 ADD MSTORE PUSH0 MLOAD PUSH1 0x20 PUSH2 0x48BA PUSH0 CODECOPY PUSH0 MLOAD SWAP1 PUSH0 MSTORE PUSH1 0x40 DUP3 ADD MSTORE PUSH1 0x5E ADD PUSH2 0x37EE SWAP2 PUSH2 0x19DE JUMP JUMPDEST PUSH7 0x1E17BA32BC3A1F PUSH1 0xC9 SHL DUP2 MSTORE PUSH32 0x3C6C696E652078313D222D3330222079313D22323238222078323D2231323022 PUSH1 0x7 DUP3 ADD MSTORE PUSH32 0x2079323D2232323822207374726F6B653D222335353522207374726F6B652D77 PUSH1 0x27 DUP3 ADD MSTORE PUSH32 0x696474683D223322207374726F6B652D6461736861727261793D22382C36222F PUSH1 0x47 DUP3 ADD MSTORE PUSH1 0x1F PUSH1 0xF9 SHL PUSH1 0x67 DUP3 ADD MSTORE PUSH1 0x68 ADD SUB PUSH1 0x1F NOT DUP2 ADD DUP4 MSTORE PUSH2 0x388C SWAP1 DUP4 PUSH2 0x292 JUMP JUMPDEST PUSH2 0x4FB SWAP3 PUSH2 0x30A7 JUMP JUMPDEST SWAP1 DUP2 PUSH1 0x20 SWAP2 SUB SLT PUSH2 0x312 JUMPI MLOAD PUSH2 0x4FB DUP2 PUSH2 0x42B JUMP JUMPDEST PUSH1 0x1 PUSH1 0x1 PUSH1 0xA0 SHL SUB SWAP2 DUP3 AND DUP2 MSTORE SWAP2 AND PUSH1 0x20 DUP3 ADD MSTORE PUSH1 0x40 DUP2 ADD SWAP2 SWAP1 SWAP2 MSTORE PUSH1 0x80 PUSH1 0x60 DUP3 ADD DUP2 SWAP1 MSTORE PUSH2 0x4FB SWAP3 SWAP2 ADD SWAP1 PUSH2 0x4C6 JUMP JUMPDEST PUSH1 0x40 MLOAD RETURNDATASIZE PUSH0 DUP3 RETURNDATACOPY RETURNDATASIZE SWAP1 REVERT JUMPDEST RETURNDATASIZE ISZERO PUSH2 0x3910 JUMPI RETURNDATASIZE SWAP1 PUSH2 0x38F7 DUP3 PUSH2 0x2B3 JUMP JUMPDEST SWAP2 PUSH2 0x3905 PUSH1 0x40 MLOAD SWAP4 DUP5 PUSH2 0x292 JUMP JUMPDEST DUP3 MSTORE RETURNDATASIZE PUSH0 PUSH1 0x20 DUP5 ADD RETURNDATACOPY JUMP JUMPDEST PUSH1 0x60 SWAP1 JUMP JUMPDEST SWAP1 SWAP3 DUP4 EXTCODESIZE PUSH2 0x3924 JUMPI JUMPDEST POP POP POP POP JUMP JUMPDEST PUSH1 0x40 MLOAD PUSH4 0xA85BD01 PUSH1 0xE1 SHL DUP2 MSTORE SWAP3 PUSH1 0x20 SWAP3 DUP5 SWAP3 DUP4 SWAP3 PUSH2 0x3948 SWAP3 PUSH0 SWAP1 PUSH1 0x4 DUP7 ADD PUSH2 0x38AA JUMP JUMPDEST SUB DUP2 PUSH0 PUSH1 0x1 PUSH1 0x1 PUSH1 0xA0 SHL SUB DUP8 AND GAS CALL PUSH0 SWAP2 DUP2 PUSH2 0x39D5 JUMPI JUMPDEST POP PUSH2 0x3999 JUMPI POP PUSH2 0x396D PUSH2 0x38E6 JUMP JUMPDEST DUP1 MLOAD SWAP2 SWAP1 DUP3 PUSH2 0x3992 JUMPI PUSH4 0x32505749 PUSH1 0xE1 SHL PUSH0 MSTORE PUSH1 0x1 PUSH1 0x1 PUSH1 0xA0 SHL SUB DUP3 AND PUSH1 0x4 MSTORE PUSH1 0x24 PUSH0 REVERT JUMPDEST PUSH1 0x20 SWAP2 POP ADD REVERT JUMPDEST PUSH1 0x1 PUSH1 0x1 PUSH1 0xE0 SHL SUB NOT AND PUSH4 0x757A42FF PUSH1 0xE1 SHL ADD PUSH2 0x39BA JUMPI POP PUSH0 DUP1 DUP1 DUP1 PUSH2 0x391E JUMP JUMPDEST PUSH4 0x32505749 PUSH1 0xE1 SHL PUSH0 MSTORE PUSH1 0x1 PUSH1 0x1 PUSH1 0xA0 SHL SUB AND PUSH1 0x4 MSTORE PUSH1 0x24 PUSH0 REVERT JUMPDEST PUSH2 0x39F8 SWAP2 SWAP3 POP PUSH1 0x20 RETURNDATASIZE PUSH1 0x20 GT PUSH2 0x39FF JUMPI JUMPDEST PUSH2 0x39F0 DUP2 DUP4 PUSH2 0x292 JUMP JUMPDEST DUP2 ADD SWAP1 PUSH2 0x3895 JUMP JUMPDEST SWAP1 PUSH0 PUSH2 0x395F JUMP JUMPDEST POP RETURNDATASIZE PUSH2 0x39E6 JUMP JUMPDEST SWAP4 SWAP2 SWAP4 DUP5 EXTCODESIZE PUSH2 0x3A17 JUMPI JUMPDEST POP POP POP POP POP JUMP JUMPDEST PUSH2 0x3A38 PUSH1 0x20 SWAP4 PUSH1 0x40 MLOAD SWAP6 DUP7 SWAP5 DUP6 SWAP5 PUSH4 0xA85BD01 PUSH1 0xE1 SHL DUP7 MSTORE PUSH1 0x4 DUP7 ADD PUSH2 0x38AA JUMP JUMPDEST SUB DUP2 PUSH0 PUSH1 0x1 PUSH1 0x1 PUSH1 0xA0 SHL SUB DUP8 AND GAS CALL PUSH0 SWAP2 DUP2 PUSH2 0x3A7F JUMPI JUMPDEST POP PUSH2 0x3A5D JUMPI POP PUSH2 0x396D PUSH2 0x38E6 JUMP JUMPDEST PUSH1 0x1 PUSH1 0x1 PUSH1 0xE0 SHL SUB NOT AND PUSH4 0x757A42FF PUSH1 0xE1 SHL ADD PUSH2 0x39BA JUMPI POP PUSH0 DUP1 DUP1 DUP1 DUP1 PUSH2 0x3A10 JUMP JUMPDEST PUSH2 0x3A99 SWAP2 SWAP3 POP PUSH1 0x20 RETURNDATASIZE PUSH1 0x20 GT PUSH2 0x39FF JUMPI PUSH2 0x39F0 DUP2 DUP4 PUSH2 0x292 JUMP JUMPDEST SWAP1 PUSH0 PUSH2 0x3A4F JUMP JUMPDEST SWAP1 PUSH1 0x40 MLOAD SWAP1 PUSH2 0x3AB0 PUSH1 0x20 DUP4 PUSH2 0x292 JUMP JUMPDEST PUSH0 DUP3 MSTORE PUSH1 0x1 PUSH1 0x1 PUSH1 0xA0 SHL SUB DUP4 AND DUP1 ISZERO PUSH2 0x189B JUMPI PUSH0 DUP3 DUP2 MSTORE PUSH1 0x2 PUSH1 0x20 MSTORE PUSH1 0x40 SWAP1 KECCAK256 SLOAD PUSH1 0x1 PUSH1 0x1 PUSH1 0xA0 SHL SUB AND DUP1 ISZERO ISZERO SWAP2 DUP4 SWAP1 DUP4 PUSH2 0x3B61 JUMPI JUMPDEST PUSH1 0x1 PUSH1 0x1 PUSH1 0xA0 SHL SUB DUP8 AND PUSH0 SWAP1 DUP2 MSTORE PUSH1 0x3 PUSH1 0x20 MSTORE PUSH1 0x40 SWAP1 KECCAK256 PUSH1 0x1 DUP2 SLOAD ADD SWAP1 SSTORE PUSH2 0x3B1A DUP8 PUSH2 0x6BF DUP5 PUSH0 MSTORE PUSH1 0x2 PUSH1 0x20 MSTORE PUSH1 0x40 PUSH0 KECCAK256 SWAP1 JUMP JUMPDEST DUP3 PUSH32 0xDDF252AD1BE2C89B69C2B068FC378DAA952BA7F163C4A11628F55A4DF523B3EF PUSH0 DUP1 LOG4 POP PUSH2 0x3B4E JUMPI PUSH2 0xB3A SWAP3 CALLER PUSH2 0x3915 JUMP JUMPDEST PUSH4 0x39E35637 PUSH1 0xE1 SHL PUSH0 MSTORE PUSH0 PUSH1 0x4 MSTORE PUSH1 0x24 PUSH0 REVERT JUMPDEST PUSH2 0x3B6A DUP3 PUSH2 0x3B8D JUMP JUMPDEST PUSH1 0x1 PUSH1 0x1 PUSH1 0xA0 SHL SUB DUP4 AND PUSH0 SWAP1 DUP2 MSTORE PUSH1 0x3 PUSH1 0x20 MSTORE PUSH1 0x40 SWAP1 KECCAK256 DUP1 SLOAD PUSH0 NOT ADD SWAP1 SSTORE PUSH2 0x3AE6 JUMP JUMPDEST PUSH2 0x3B9F SWAP1 PUSH0 MSTORE PUSH1 0x4 PUSH1 0x20 MSTORE PUSH1 0x40 PUSH0 KECCAK256 SWAP1 JUMP JUMPDEST DUP1 SLOAD PUSH1 0x1 PUSH1 0x1 PUSH1 0xA0 SHL SUB NOT AND SWAP1 SSTORE JUMP JUMPDEST SWAP1 SWAP2 SWAP1 PUSH2 0x3BCD PUSH1 0x1 PUSH1 0x1 PUSH1 0xA0 SHL SUB DUP5 AND DUP1 ISZERO ISZERO SWAP1 DUP2 PUSH2 0x3C15 JUMPI POP ISZERO SWAP1 JUMP JUMPDEST PUSH2 0x3BD6 JUMPI POP POP POP JUMP JUMPDEST PUSH1 0x1 PUSH1 0x1 PUSH1 0xA0 SHL SUB AND PUSH2 0x3BF5 JUMPI PUSH4 0x7E273289 PUSH1 0xE0 SHL PUSH0 MSTORE PUSH1 0x4 MSTORE PUSH1 0x24 PUSH0 REVERT JUMPDEST PUSH4 0x177E802F PUSH1 0xE0 SHL PUSH0 MSTORE PUSH1 0x1 PUSH1 0x1 PUSH1 0xA0 SHL SUB SWAP1 SWAP2 AND PUSH1 0x4 MSTORE PUSH1 0x24 MSTORE PUSH1 0x44 PUSH0 REVERT JUMPDEST PUSH1 0x1 PUSH1 0x1 PUSH1 0xA0 SHL SUB DUP5 AND DUP1 DUP3 EQ SWAP3 POP DUP3 ISZERO PUSH2 0x3C55 JUMPI JUMPDEST POP DUP2 ISZERO PUSH2 0x3C37 JUMPI POP ISZERO SWAP1 JUMP JUMPDEST PUSH0 DUP6 DUP2 MSTORE PUSH1 0x4 PUSH1 0x20 MSTORE PUSH1 0x40 SWAP1 KECCAK256 SLOAD PUSH1 0x1 PUSH1 0x1 PUSH1 0xA0 SHL SUB AND EQ ISZERO SWAP2 SWAP1 POP JUMP JUMPDEST SWAP1 SWAP2 POP PUSH0 MSTORE PUSH1 0x5 PUSH1 0x20 MSTORE PUSH1 0xFF PUSH2 0x3C7E DUP7 PUSH1 0x40 PUSH0 KECCAK256 SWAP1 PUSH1 0x1 DUP1 PUSH1 0xA0 SHL SUB AND PUSH0 MSTORE PUSH1 0x20 MSTORE PUSH1 0x40 PUSH0 KECCAK256 SWAP1 JUMP JUMPDEST SLOAD AND SWAP1 PUSH0 PUSH2 0x3C2B JUMP JUMPDEST DUP2 MLOAD ISZERO PUSH2 0x3C94 JUMPI PUSH1 0xA0 ADD MSTORE JUMP JUMPDEST PUSH4 0xFE936CB7 PUSH1 0xE0 SHL PUSH0 MSTORE PUSH1 0x4 PUSH0 REVERT JUMPDEST PUSH1 0x40 MLOAD SWAP1 PUSH2 0x3CB2 PUSH1 0x40 DUP4 PUSH2 0x292 JUMP JUMPDEST PUSH1 0xC DUP3 MSTORE PUSH12 0x31B7B232A637B1B0BA34B7B7 PUSH1 0xA1 SHL PUSH1 0x20 DUP4 ADD MSTORE JUMP JUMPDEST PUSH4 0x4E487B71 PUSH1 0xE0 SHL PUSH0 MSTORE PUSH1 0x21 PUSH1 0x4 MSTORE PUSH1 0x24 PUSH0 REVERT JUMPDEST PUSH1 0x3 GT ISZERO PUSH2 0x3CEB JUMPI JUMP JUMPDEST PUSH2 0x3CCD JUMP JUMPDEST PUSH1 0x40 MLOAD SWAP1 PUSH2 0x3CFF PUSH1 0x40 DUP4 PUSH2 0x292 JUMP JUMPDEST PUSH1 0x8 DUP3 MSTORE PUSH8 0x6C616E6775616765 PUSH1 0xC0 SHL PUSH1 0x20 DUP4 ADD MSTORE JUMP JUMPDEST PUSH1 0x1 GT ISZERO PUSH2 0x3CEB JUMPI JUMP JUMPDEST PUSH1 0x40 MLOAD SWAP1 PUSH2 0x3D2F PUSH1 0x40 DUP4 PUSH2 0x292 JUMP JUMPDEST PUSH1 0x6 DUP3 MSTORE PUSH6 0x736F75726365 PUSH1 0xD0 SHL PUSH1 0x20 DUP4 ADD MSTORE JUMP JUMPDEST PUSH1 0x40 MLOAD SWAP1 PUSH2 0x3D53 PUSH1 0x40 DUP4 PUSH2 0x292 JUMP JUMPDEST PUSH1 0x4 DUP3 MSTORE PUSH4 0x61726773 PUSH1 0xE0 SHL PUSH1 0x20 DUP4 ADD MSTORE JUMP JUMPDEST PUSH1 0x40 MLOAD SWAP1 PUSH2 0x3D75 PUSH1 0x40 DUP4 PUSH2 0x292 JUMP JUMPDEST PUSH1 0xF DUP3 MSTORE PUSH15 0x39B2B1B932BA39A637B1B0BA34B7B7 PUSH1 0x89 SHL PUSH1 0x20 DUP4 ADD MSTORE JUMP JUMPDEST PUSH1 0x40 MLOAD SWAP1 PUSH2 0x3DA2 PUSH1 0x40 DUP4 PUSH2 0x292 JUMP JUMPDEST PUSH1 0x7 DUP3 MSTORE PUSH7 0x73656372657473 PUSH1 0xC8 SHL PUSH1 0x20 DUP4 ADD MSTORE JUMP JUMPDEST PUSH1 0x40 MLOAD SWAP1 PUSH2 0x3DC7 PUSH1 0x40 DUP4 PUSH2 0x292 JUMP JUMPDEST PUSH1 0x9 DUP3 MSTORE PUSH9 0x627974657341726773 PUSH1 0xB8 SHL PUSH1 0x20 DUP4 ADD MSTORE JUMP JUMPDEST PUSH2 0x3DE7 PUSH2 0x41F0 JUMP JUMPDEST SWAP1 PUSH2 0x3DF9 PUSH2 0x3DF3 PUSH2 0x3CA3 JUMP JUMPDEST DUP4 PUSH2 0x4220 JUMP JUMPDEST PUSH2 0x3E16 DUP2 MLOAD PUSH2 0x3E07 DUP2 PUSH2 0x3CE1 JUMP JUMPDEST PUSH2 0x3E10 DUP2 PUSH2 0x3CE1 JUMP JUMPDEST DUP4 PUSH2 0x4309 JUMP JUMPDEST PUSH2 0x3E21 PUSH2 0x3DF3 PUSH2 0x3CF0 JUMP JUMPDEST PUSH2 0x3E3B PUSH1 0x40 DUP3 ADD MLOAD PUSH2 0x3E32 DUP2 PUSH2 0x3D16 JUMP JUMPDEST PUSH2 0x3E10 DUP2 PUSH2 0x3D16 JUMP JUMPDEST PUSH2 0x3E46 PUSH2 0x3DF3 PUSH2 0x3D20 JUMP JUMPDEST PUSH2 0x3E54 PUSH1 0x60 DUP3 ADD MLOAD DUP4 PUSH2 0x4220 JUMP JUMPDEST PUSH1 0xA0 DUP2 ADD DUP1 MLOAD MLOAD PUSH2 0x3F50 JUMPI JUMPDEST POP PUSH1 0x80 DUP2 ADD SWAP1 DUP2 MLOAD MLOAD PUSH2 0x3ED3 JUMPI JUMPDEST PUSH1 0xC0 SWAP2 POP ADD DUP1 MLOAD MLOAD PUSH2 0x3E81 JUMPI JUMPDEST POP MLOAD MLOAD SWAP1 JUMP JUMPDEST SWAP2 PUSH2 0x3E8D PUSH2 0x3DF3 PUSH2 0x3DB8 JUMP JUMPDEST PUSH2 0x3E96 DUP3 PUSH2 0x4336 JUMP JUMPDEST PUSH0 JUMPDEST DUP4 MLOAD DUP1 MLOAD DUP3 LT ISZERO PUSH2 0x3EC0 JUMPI SWAP1 PUSH2 0x3EBA PUSH2 0x3EB3 DUP3 PUSH1 0x1 SWAP5 PUSH2 0x2173 JUMP JUMPDEST MLOAD DUP6 PUSH2 0x437A JUMP JUMPDEST ADD PUSH2 0x3E98 JUMP JUMPDEST POP POP SWAP2 POP PUSH2 0x3ECD DUP2 PUSH2 0x4358 JUMP JUMPDEST PUSH0 PUSH2 0x3E7B JUMP JUMPDEST PUSH1 0x20 DUP2 ADD DUP1 MLOAD PUSH2 0x3EE2 DUP2 PUSH2 0x3CE1 JUMP JUMPDEST PUSH2 0x3EEB DUP2 PUSH2 0x3CE1 JUMP JUMPDEST ISZERO PUSH2 0x3F41 JUMPI PUSH1 0xC0 SWAP3 PUSH2 0x3F24 PUSH2 0x3F3C SWAP3 PUSH2 0x3F0B PUSH2 0x3F05 PUSH2 0x3D66 JUMP JUMPDEST DUP9 PUSH2 0x4220 JUMP JUMPDEST MLOAD PUSH2 0x3F15 DUP2 PUSH2 0x3CE1 JUMP JUMPDEST PUSH2 0x3F1E DUP2 PUSH2 0x3CE1 JUMP JUMPDEST DUP7 PUSH2 0x4309 JUMP JUMPDEST PUSH2 0x3F35 PUSH2 0x3F2F PUSH2 0x3D93 JUMP JUMPDEST DUP7 PUSH2 0x4220 JUMP JUMPDEST MLOAD DUP5 PUSH2 0x437A JUMP JUMPDEST PUSH2 0x3E6E JUMP JUMPDEST PUSH4 0xA80D31F7 PUSH1 0xE0 SHL PUSH0 MSTORE PUSH1 0x4 PUSH0 REVERT JUMPDEST SWAP3 PUSH2 0x3F62 PUSH2 0x3F5C PUSH2 0x3D44 JUMP JUMPDEST DUP5 PUSH2 0x4220 JUMP JUMPDEST PUSH2 0x3F6B DUP4 PUSH2 0x4336 JUMP JUMPDEST PUSH0 JUMPDEST DUP5 MLOAD DUP1 MLOAD DUP3 LT ISZERO PUSH2 0x3F95 JUMPI SWAP1 PUSH2 0x3F8F PUSH2 0x3F88 DUP3 PUSH1 0x1 SWAP5 PUSH2 0x2173 JUMP JUMPDEST MLOAD DUP7 PUSH2 0x4220 JUMP JUMPDEST ADD PUSH2 0x3F6D JUMP JUMPDEST POP POP SWAP3 POP PUSH2 0x3FA2 DUP3 PUSH2 0x4358 JUMP JUMPDEST PUSH0 PUSH2 0x3E60 JUMP JUMPDEST SWAP2 PUSH1 0x20 SWAP2 PUSH1 0x1 PUSH1 0x1 PUSH1 0x40 SHL SUB SWAP2 PUSH2 0x3FE1 PUSH1 0x40 MLOAD SWAP6 DUP7 SWAP5 DUP6 SWAP5 PUSH4 0x230E93B1 PUSH1 0xE1 SHL DUP7 MSTORE AND PUSH1 0x4 DUP6 ADD MSTORE PUSH1 0xA0 PUSH1 0x24 DUP6 ADD MSTORE PUSH1 0xA4 DUP5 ADD SWAP1 PUSH2 0x4C6 JUMP JUMPDEST PUSH1 0x1 PUSH1 0x44 DUP5 ADD MSTORE PUSH3 0x493E0 PUSH1 0x64 DUP5 ADD MSTORE PUSH1 0x84 DUP4 ADD SWAP2 SWAP1 SWAP2 MSTORE SUB DUP2 PUSH0 PUSH32 0x0 PUSH1 0x1 PUSH1 0x1 PUSH1 0xA0 SHL SUB AND GAS CALL SWAP1 DUP2 ISZERO PUSH2 0x408E JUMPI PUSH0 SWAP2 PUSH2 0x405F JUMPI JUMPDEST POP DUP1 PUSH32 0x1131472297A800FEE664D1D89CFA8F7676FF07189ECC53F80BBB5F4969099DB8 PUSH0 DUP1 LOG2 SWAP1 JUMP JUMPDEST PUSH2 0x4081 SWAP2 POP PUSH1 0x20 RETURNDATASIZE PUSH1 0x20 GT PUSH2 0x4087 JUMPI JUMPDEST PUSH2 0x4079 DUP2 DUP4 PUSH2 0x292 JUMP JUMPDEST DUP2 ADD SWAP1 PUSH2 0x2104 JUMP JUMPDEST PUSH0 PUSH2 0x4036 JUMP JUMPDEST POP RETURNDATASIZE PUSH2 0x406F JUMP JUMPDEST PUSH2 0x38DB JUMP JUMPDEST SWAP1 DUP2 MLOAD ISZERO PUSH2 0x41A8 JUMPI PUSH2 0x40B7 PUSH2 0x40B2 PUSH2 0x40AB DUP5 MLOAD PUSH2 0x1953 JUMP JUMPDEST PUSH1 0x3 SWAP1 DIV SWAP1 JUMP JUMPDEST PUSH2 0x1992 JUMP JUMPDEST SWAP1 PUSH1 0x40 MLOAD SWAP2 PUSH32 0x4142434445464748494A4B4C4D4E4F505152535455565758595A616263646566 PUSH1 0x1F MSTORE PUSH32 0x6768696A6B6C6D6E6F707172737475767778797A303132333435363738392B2F PUSH1 0x3F MSTORE PUSH1 0x20 DUP4 ADD DUP5 DUP1 MLOAD DUP2 ADD PUSH1 0x20 DUP2 ADD DUP1 MLOAD SWAP2 PUSH0 DUP3 MSTORE JUMPDEST DUP1 DUP10 LT PUSH2 0x416C JUMPI POP PUSH1 0x20 SWAP6 SWAP7 SWAP8 POP SWAP1 PUSH1 0x3 SWAP3 SWAP2 MSTORE MLOAD MOD DUP1 PUSH1 0x1 EQ PUSH2 0x4157 JUMPI PUSH1 0x2 EQ PUSH2 0x414A JUMPI JUMPDEST POP DUP1 DUP5 MSTORE DUP4 ADD ADD PUSH1 0x40 MSTORE JUMP JUMPDEST PUSH1 0x3D SWAP1 PUSH0 NOT ADD MSTORE8 PUSH0 PUSH2 0x413E JUMP JUMPDEST POP PUSH1 0x3D SWAP1 DUP2 PUSH0 NOT DUP3 ADD MSTORE8 PUSH1 0x1 NOT ADD MSTORE8 PUSH0 PUSH2 0x413E JUMP JUMPDEST SWAP4 SWAP8 PUSH1 0x3 PUSH1 0x4 SWAP2 ADD SWAP9 PUSH1 0x3F DUP11 MLOAD DUP2 DUP2 PUSH1 0x12 SHR AND MLOAD DUP4 MSTORE8 DUP2 DUP2 PUSH1 0xC SHR AND MLOAD PUSH1 0x1 DUP5 ADD MSTORE8 DUP2 DUP2 PUSH1 0x6 SHR AND MLOAD PUSH1 0x2 DUP5 ADD MSTORE8 AND MLOAD PUSH1 0x3 DUP3 ADD MSTORE8 ADD SWAP4 PUSH2 0x4118 JUMP JUMPDEST SWAP1 POP PUSH2 0x4FB PUSH2 0x18AE JUMP JUMPDEST DUP2 MLOAD ISZERO PUSH2 0x41C8 JUMPI PUSH0 DUP1 DUP3 MSTORE PUSH1 0x40 DUP3 ADD MSTORE PUSH1 0x60 ADD MSTORE JUMP JUMPDEST PUSH4 0x22CE3EDD PUSH1 0xE0 SHL PUSH0 MSTORE PUSH1 0x4 PUSH0 REVERT JUMPDEST PUSH1 0x40 MLOAD SWAP1 PUSH2 0x41E4 DUP3 PUSH2 0x277 JUMP JUMPDEST PUSH0 PUSH1 0x20 DUP4 PUSH1 0x60 DUP2 MSTORE ADD MSTORE JUMP JUMPDEST PUSH1 0x40 MLOAD PUSH2 0x41FC DUP2 PUSH2 0x277 JUMP JUMPDEST PUSH0 PUSH2 0x4205 PUSH2 0x41D7 JUMP JUMPDEST DUP1 DUP4 MSTORE PUSH2 0x421B PUSH2 0x100 PUSH1 0x20 DUP6 ADD SWAP3 DUP5 DUP5 MSTORE PUSH2 0x4413 JUMP JUMPDEST POP MSTORE SWAP1 JUMP JUMPDEST DUP2 MLOAD PUSH2 0x4271 SWAP3 SWAP2 SWAP1 PUSH1 0x1 PUSH1 0x1 PUSH1 0x40 SHL SUB AND PUSH1 0x17 DUP2 GT PUSH2 0x4274 JUMPI DUP2 MLOAD PUSH2 0x425C SWAP2 PUSH2 0x4256 SWAP1 PUSH2 0x424F PUSH1 0x60 JUMPDEST PUSH1 0xFF AND SWAP1 JUMP JUMPDEST OR PUSH1 0xFF AND SWAP1 JUMP JUMPDEST SWAP1 PUSH2 0x4593 JUMP JUMPDEST POP JUMPDEST MLOAD SWAP1 PUSH2 0x4268 PUSH2 0x41D7 JUMP JUMPDEST POP DUP1 MLOAD SWAP2 PUSH2 0x47FD JUMP JUMPDEST POP JUMP JUMPDEST PUSH1 0xFF DUP2 GT PUSH2 0x42A1 JUMPI DUP2 MLOAD PUSH2 0x429B SWAP2 SWAP1 PUSH2 0x4293 SWAP1 PUSH1 0x18 PUSH1 0x60 JUMPDEST OR SWAP1 PUSH2 0x4593 JUMP JUMPDEST POP DUP3 MLOAD PUSH2 0x477D JUMP JUMPDEST POP PUSH2 0x425E JUMP JUMPDEST PUSH2 0xFFFF DUP2 GT PUSH2 0x42C6 JUMPI DUP2 MLOAD PUSH2 0x429B SWAP2 SWAP1 PUSH2 0x42BE SWAP1 PUSH1 0x19 PUSH1 0x60 PUSH2 0x428C JUMP JUMPDEST POP DUP3 MLOAD PUSH2 0x4704 JUMP JUMPDEST PUSH4 0xFFFFFFFF DUP2 GT PUSH2 0x42ED JUMPI DUP2 MLOAD PUSH2 0x429B SWAP2 SWAP1 PUSH2 0x42E5 SWAP1 PUSH1 0x1A PUSH1 0x60 PUSH2 0x428C JUMP JUMPDEST POP DUP3 MLOAD PUSH2 0x468B JUMP JUMPDEST DUP2 MLOAD PUSH2 0x429B SWAP2 SWAP1 PUSH2 0x4301 SWAP1 PUSH1 0x1B PUSH1 0x60 PUSH2 0x428C JUMP JUMPDEST POP DUP3 MLOAD PUSH2 0x460D JUMP JUMPDEST SWAP1 PUSH2 0xB3A SWAP2 PUSH2 0x4318 DUP2 MLOAD PUSH2 0x4523 JUMP JUMPDEST POP PUSH1 0x40 MLOAD SWAP2 PUSH1 0x20 DUP4 ADD MSTORE PUSH1 0x20 DUP3 MSTORE PUSH2 0x4331 PUSH1 0x40 DUP4 PUSH2 0x292 JUMP JUMPDEST PUSH2 0x437A JUMP JUMPDEST PUSH1 0x20 SWAP1 PUSH2 0x4345 PUSH1 0x9F DUP3 MLOAD PUSH2 0x4593 JUMP JUMPDEST POP ADD DUP1 MLOAD SWAP1 PUSH1 0x1 DUP3 ADD DUP1 SWAP3 GT PUSH2 0xEA3 JUMPI MSTORE JUMP JUMPDEST PUSH1 0x20 SWAP1 PUSH2 0x4367 PUSH1 0xFF DUP3 MLOAD PUSH2 0x4593 JUMP JUMPDEST POP ADD DUP1 MLOAD PUSH0 NOT DUP2 ADD SWAP2 SWAP1 DUP3 GT PUSH2 0xEA3 JUMPI MSTORE JUMP JUMPDEST DUP2 MLOAD PUSH2 0x4271 SWAP3 SWAP2 SWAP1 PUSH1 0x1 PUSH1 0x1 PUSH1 0x40 SHL SUB AND PUSH1 0x17 DUP2 GT PUSH2 0x43A7 JUMPI DUP2 MLOAD PUSH2 0x425C SWAP2 PUSH2 0x4256 SWAP1 PUSH2 0x424F PUSH1 0x40 PUSH2 0x4249 JUMP JUMPDEST PUSH1 0xFF DUP2 GT PUSH2 0x43C3 JUMPI DUP2 MLOAD PUSH2 0x429B SWAP2 SWAP1 PUSH2 0x4293 SWAP1 PUSH1 0x18 PUSH1 0x40 PUSH2 0x428C JUMP JUMPDEST PUSH2 0xFFFF DUP2 GT PUSH2 0x43E0 JUMPI DUP2 MLOAD PUSH2 0x429B SWAP2 SWAP1 PUSH2 0x42BE SWAP1 PUSH1 0x19 PUSH1 0x40 PUSH2 0x428C JUMP JUMPDEST PUSH4 0xFFFFFFFF DUP2 GT PUSH2 0x43FF JUMPI DUP2 MLOAD PUSH2 0x429B SWAP2 SWAP1 PUSH2 0x42E5 SWAP1 PUSH1 0x1A PUSH1 0x40 PUSH2 0x428C JUMP JUMPDEST DUP2 MLOAD PUSH2 0x429B SWAP2 SWAP1 PUSH2 0x4301 SWAP1 PUSH1 0x1B PUSH1 0x40 PUSH2 0x428C JUMP JUMPDEST SWAP1 PUSH2 0x441C PUSH2 0x41D7 JUMP JUMPDEST POP PUSH1 0x1F DUP2 AND DUP1 PUSH2 0x444A JUMPI JUMPDEST POP DUP1 PUSH1 0x20 DUP4 ADD MSTORE PUSH1 0x40 MLOAD SWAP1 DUP2 DUP4 MSTORE PUSH0 DUP3 MSTORE DUP2 ADD PUSH1 0x20 ADD SWAP1 DUP2 LT PUSH2 0x312 JUMPI PUSH1 0x40 MSTORE SWAP1 JUMP JUMPDEST PUSH1 0x20 SUB PUSH1 0x20 DUP2 GT PUSH2 0xEA3 JUMPI DUP2 ADD DUP1 SWAP2 GT PUSH2 0xEA3 JUMPI PUSH0 PUSH2 0x4427 JUMP JUMPDEST SWAP1 PUSH2 0x446D PUSH2 0x41D7 JUMP JUMPDEST POP DUP1 MLOAD PUSH2 0x4478 PUSH2 0x41D7 JUMP JUMPDEST POP PUSH2 0x4486 DUP3 MLOAD DUP3 GT ISZERO PUSH2 0x47F6 JUMP JUMPDEST DUP3 MLOAD MLOAD SWAP2 PUSH2 0x4494 DUP3 DUP5 PUSH2 0x196F JUMP JUMPDEST SWAP1 PUSH1 0x20 DUP6 ADD MLOAD DUP3 GT PUSH2 0x450C JUMPI JUMPDEST PUSH1 0x20 SWAP2 DUP6 MLOAD DUP4 DUP2 MLOAD SWAP7 DUP3 ADD ADD SWAP6 DUP3 GT PUSH2 0x4504 JUMPI JUMPDEST POP POP ADD SWAP1 JUMPDEST PUSH1 0x20 DUP2 LT ISZERO PUSH2 0x44DE JUMPI PUSH0 NOT SWAP1 PUSH1 0x20 SUB PUSH2 0x100 EXP ADD SWAP1 DUP2 NOT SWAP1 MLOAD AND SWAP1 DUP3 MLOAD AND OR SWAP1 MSTORE SWAP1 JUMP JUMPDEST SWAP1 SWAP2 PUSH2 0x44F9 PUSH2 0x44F3 PUSH2 0x44FF SWAP3 DUP6 MLOAD DUP2 MSTORE PUSH2 0x1961 JUMP JUMPDEST SWAP4 PUSH2 0x1961 JUMP JUMPDEST SWAP2 PUSH2 0x18D6 JUMP JUMPDEST PUSH2 0x44BA JUMP JUMPDEST MSTORE PUSH0 DUP1 PUSH2 0x44B5 JUMP JUMPDEST PUSH2 0x451E PUSH2 0x4518 DUP4 PUSH2 0x19AA JUMP JUMPDEST DUP7 PUSH2 0x48A2 JUMP JUMPDEST PUSH2 0x44A1 JUMP JUMPDEST PUSH2 0x452B PUSH2 0x41D7 JUMP JUMPDEST POP DUP1 MLOAD MLOAD PUSH1 0x1 DUP2 ADD SWAP1 DUP2 DUP2 GT PUSH2 0xEA3 JUMPI PUSH1 0x20 DUP4 ADD MLOAD DUP2 LT ISZERO PUSH2 0x4564 JUMPI JUMPDEST PUSH1 0xC2 PUSH1 0x20 DUP5 MLOAD SWAP3 DUP4 ADD ADD MSTORE8 DUP1 MLOAD DUP3 GT PUSH2 0x4560 JUMPI POP POP SWAP1 JUMP JUMPDEST MSTORE SWAP1 JUMP JUMPDEST DUP2 PUSH1 0x1 SHL DUP3 DUP2 DIV PUSH1 0x2 EQ DUP4 ISZERO OR ISZERO PUSH2 0xEA3 JUMPI PUSH2 0x458D SWAP1 PUSH2 0x4586 DUP6 MLOAD SWAP2 DUP7 PUSH2 0x4413 JUMP JUMPDEST POP DUP5 PUSH2 0x4464 JUMP JUMPDEST POP PUSH2 0x4548 JUMP JUMPDEST SWAP1 PUSH2 0x459C PUSH2 0x41D7 JUMP JUMPDEST POP DUP2 MLOAD MLOAD PUSH1 0x1 DUP2 ADD SWAP2 DUP3 DUP3 GT PUSH2 0xEA3 JUMPI PUSH1 0x20 DUP5 ADD MLOAD DUP3 LT ISZERO PUSH2 0x45CF JUMPI JUMPDEST PUSH1 0x20 DUP5 MLOAD SWAP3 DUP4 ADD ADD MSTORE8 DUP1 MLOAD DUP3 GT PUSH2 0x4560 JUMPI POP POP SWAP1 JUMP JUMPDEST DUP3 PUSH1 0x1 SHL DUP4 DUP2 DIV PUSH1 0x2 EQ DUP5 ISZERO OR ISZERO PUSH2 0xEA3 JUMPI PUSH2 0x45F8 SWAP1 PUSH2 0x45F1 DUP7 MLOAD SWAP2 DUP8 PUSH2 0x4413 JUMP JUMPDEST POP DUP6 PUSH2 0x4464 JUMP JUMPDEST POP PUSH2 0x45B9 JUMP JUMPDEST PUSH1 0x1F DUP2 GT PUSH2 0xEA3 JUMPI PUSH2 0x100 EXP SWAP1 JUMP JUMPDEST SWAP1 PUSH2 0x4616 PUSH2 0x41D7 JUMP JUMPDEST POP DUP2 MLOAD MLOAD DUP1 PUSH1 0x8 ADD SWAP2 DUP3 PUSH1 0x8 GT PUSH2 0xEA3 JUMPI PUSH1 0x20 DUP5 ADD MLOAD DUP4 GT PUSH2 0x4663 JUMPI JUMPDEST PUSH2 0x4645 PUSH2 0x4640 PUSH1 0x8 PUSH2 0x45FE JUMP JUMPDEST PUSH2 0x18E5 JUMP JUMPDEST SWAP1 PUSH1 0x8 DUP6 MLOAD SWAP4 DUP5 ADD ADD SWAP2 NOT DUP3 MLOAD AND OR SWAP1 MSTORE DUP1 MLOAD DUP3 GT PUSH2 0x4560 JUMPI POP POP SWAP1 JUMP JUMPDEST DUP3 PUSH1 0x1 SHL DUP4 DUP2 DIV PUSH1 0x2 EQ DUP5 ISZERO OR ISZERO PUSH2 0xEA3 JUMPI PUSH2 0x4685 SWAP1 PUSH2 0x45F1 DUP7 MLOAD SWAP2 DUP8 PUSH2 0x4413 JUMP JUMPDEST POP PUSH2 0x4633 JUMP JUMPDEST SWAP1 PUSH2 0x4694 PUSH2 0x41D7 JUMP JUMPDEST POP DUP2 MLOAD MLOAD DUP1 PUSH1 0x4 ADD SWAP2 DUP3 PUSH1 0x4 GT PUSH2 0xEA3 JUMPI PUSH1 0x20 DUP5 ADD MLOAD DUP4 GT PUSH2 0x46DC JUMPI JUMPDEST PUSH2 0x46BE PUSH2 0x4640 PUSH1 0x4 PUSH2 0x45FE JUMP JUMPDEST SWAP1 PUSH1 0x4 DUP6 MLOAD SWAP4 DUP5 ADD ADD SWAP2 NOT DUP3 MLOAD AND OR SWAP1 MSTORE DUP1 MLOAD DUP3 GT PUSH2 0x4560 JUMPI POP POP SWAP1 JUMP JUMPDEST DUP3 PUSH1 0x1 SHL DUP4 DUP2 DIV PUSH1 0x2 EQ DUP5 ISZERO OR ISZERO PUSH2 0xEA3 JUMPI PUSH2 0x46FE SWAP1 PUSH2 0x45F1 DUP7 MLOAD SWAP2 DUP8 PUSH2 0x4413 JUMP JUMPDEST POP PUSH2 0x46B1 JUMP JUMPDEST SWAP1 PUSH2 0x470D PUSH2 0x41D7 JUMP JUMPDEST POP DUP2 MLOAD MLOAD DUP1 PUSH1 0x2 ADD SWAP2 DUP3 PUSH1 0x2 GT PUSH2 0xEA3 JUMPI PUSH1 0x20 DUP5 ADD MLOAD DUP4 GT PUSH2 0x4755 JUMPI JUMPDEST PUSH2 0x4737 PUSH2 0x4640 PUSH1 0x2 PUSH2 0x45FE JUMP JUMPDEST SWAP1 PUSH1 0x2 DUP6 MLOAD SWAP4 DUP5 ADD ADD SWAP2 NOT DUP3 MLOAD AND OR SWAP1 MSTORE DUP1 MLOAD DUP3 GT PUSH2 0x4560 JUMPI POP POP SWAP1 JUMP JUMPDEST DUP3 PUSH1 0x1 SHL DUP4 DUP2 DIV PUSH1 0x2 EQ DUP5 ISZERO OR ISZERO PUSH2 0xEA3 JUMPI PUSH2 0x4777 SWAP1 PUSH2 0x45F1 DUP7 MLOAD SWAP2 DUP8 PUSH2 0x4413 JUMP JUMPDEST POP PUSH2 0x472A JUMP JUMPDEST SWAP1 PUSH2 0x4786 PUSH2 0x41D7 JUMP JUMPDEST POP DUP2 MLOAD MLOAD DUP1 PUSH1 0x1 ADD SWAP2 DUP3 PUSH1 0x1 GT PUSH2 0xEA3 JUMPI PUSH1 0x20 DUP5 ADD MLOAD DUP4 GT PUSH2 0x47CE JUMPI JUMPDEST PUSH2 0x47B0 PUSH2 0x4640 PUSH1 0x1 PUSH2 0x45FE JUMP JUMPDEST SWAP1 PUSH1 0x1 DUP6 MLOAD SWAP4 DUP5 ADD ADD SWAP2 NOT DUP3 MLOAD AND OR SWAP1 MSTORE DUP1 MLOAD DUP3 GT PUSH2 0x4560 JUMPI POP POP SWAP1 JUMP JUMPDEST DUP3 PUSH1 0x1 SHL DUP4 DUP2 DIV PUSH1 0x2 EQ DUP5 ISZERO OR ISZERO PUSH2 0xEA3 JUMPI PUSH2 0x47F0 SWAP1 PUSH2 0x45F1 DUP7 MLOAD SWAP2 DUP8 PUSH2 0x4413 JUMP JUMPDEST POP PUSH2 0x47A3 JUMP JUMPDEST ISZERO PUSH2 0x312 JUMPI JUMP JUMPDEST SWAP2 PUSH2 0x4806 PUSH2 0x41D7 JUMP JUMPDEST POP PUSH2 0x4814 DUP3 MLOAD DUP3 GT ISZERO PUSH2 0x47F6 JUMP JUMPDEST PUSH1 0x20 DUP4 MLOAD MLOAD SWAP3 PUSH2 0x4824 DUP4 DUP6 PUSH2 0x196F JUMP JUMPDEST DUP3 DUP7 ADD MLOAD DUP2 GT PUSH2 0x488B JUMPI JUMPDEST DUP6 MLOAD DUP4 DUP2 MLOAD SWAP7 DUP3 ADD ADD SWAP6 DUP3 GT PUSH2 0x4883 JUMPI JUMPDEST POP POP ADD SWAP1 JUMPDEST PUSH1 0x20 DUP2 LT ISZERO PUSH2 0x4869 JUMPI PUSH0 NOT SWAP1 PUSH1 0x20 SUB PUSH2 0x100 EXP ADD SWAP1 DUP2 NOT SWAP1 MLOAD AND SWAP1 DUP3 MLOAD AND OR SWAP1 MSTORE SWAP1 JUMP JUMPDEST SWAP1 SWAP2 PUSH2 0x44F9 PUSH2 0x44F3 PUSH2 0x487E SWAP3 DUP6 MLOAD DUP2 MSTORE PUSH2 0x1961 JUMP JUMPDEST PUSH2 0x4845 JUMP JUMPDEST MSTORE PUSH0 DUP1 PUSH2 0x4840 JUMP JUMPDEST PUSH2 0x489D PUSH2 0x4897 DUP3 PUSH2 0x19AA JUMP JUMPDEST DUP8 PUSH2 0x48A2 JUMP JUMPDEST PUSH2 0x482F JUMP JUMPDEST SWAP1 PUSH2 0x4271 SWAP2 PUSH2 0x48B3 DUP2 MLOAD SWAP3 DUP3 PUSH2 0x4413 JUMP JUMPDEST POP PUSH2 0x4464 JUMP INVALID 0x22 PUSH6 0x6E642220666F PUSH15 0x742D66616D696C793D226D6F6E6F73 PUSH17 0x616365223E00003066312220666F6E742D PUSH20 0x697A653D2231332220746578742D616E63686F72 RETURNDATASIZE 0x22 KECCAK256 PUSH7 0x6F6E742D73697A PUSH6 0x3D2231332220 PUSH7 0x6F6E742D66616D PUSH10 0x6C793D226D6FA2646970 PUSH7 0x73582212209C5D PUSH25 0x3353613468BB2480484D4D772728C4E95C578E42BE5E22EF70 0x2F 0xD2 PUSH24 0xC464736F6C634300081E0033000000000000000000000000 "
		},
		"gasEstimates": {
			"creation": {
				"codeDepositCost": "3753400",
				"executionCost": "infinite",
				"totalCost": "infinite"
			},
			"external": {
				"MINIMUM_INTERVAL()": "795",
				"approve(address,uint256)": "31234",
				"balanceOf(address)": "2847",
				"checkUpkeep(bytes)": "9522",
				"generateSVG(uint256)": "infinite",
				"getApproved(uint256)": "4651",
				"handleOracleFulfillment(bytes32,bytes,bytes)": "infinite",
				"interval()": "2744",
				"isApprovedForAll(address,address)": "3261",
				"lastTimeStamp()": "2524",
				"name()": "infinite",
				"owner()": "2746",
				"ownerOf(uint256)": "2752",
				"performUpkeep(bytes)": "infinite",
				"renounceOwnership()": "28504",
				"requestStatsUpdate(uint256)": "infinite",
				"s_playerData(uint256)": "infinite",
				"s_requestExists(bytes32)": "2513",
				"s_requestToTokenId(bytes32)": "2677",
				"safeMint(address,string,string)": "infinite",
				"safeTransferFrom(address,address,uint256)": "infinite",
				"safeTransferFrom(address,address,uint256,bytes)": "infinite",
				"setApprovalForAll(address,bool)": "27063",
				"setAutomationSettings(uint256,uint256)": "48906",
				"setSourceCode(string)": "infinite",
				"sourceCode()": "infinite",
				"subscriptionId()": "2388",
				"supportsInterface(bytes4)": "453",
				"symbol()": "infinite",
				"targetTokenIdToUpdate()": "2766",
				"tokenURI(uint256)": "infinite",
				"transferFrom(address,address,uint256)": "106782",
				"transferOwnership(address)": "28876"
			},
			"internal": {
				"_requestStatsInternal(uint256,string memory)": "infinite",
				"fulfillRequest(bytes32,bytes memory,bytes memory)": "infinite"
			}
		},
		"methodIdentifiers": {
			"MINIMUM_INTERVAL()": "e049d709",
			"approve(address,uint256)": "095ea7b3",
			"balanceOf(address)": "70a08231",
			"checkUpkeep(bytes)": "6e04ff0d",
			"generateSVG(uint256)": "6dcee4ca",
			"getApproved(uint256)": "081812fc",
			"handleOracleFulfillment(bytes32,bytes,bytes)": "0ca76175",
			"interval()": "947a36fb",
			"isApprovedForAll(address,address)": "e985e9c5",
			"lastTimeStamp()": "3f3b3b27",
			"name()": "06fdde03",
			"owner()": "8da5cb5b",
			"ownerOf(uint256)": "6352211e",
			"performUpkeep(bytes)": "4585e33b",
			"renounceOwnership()": "715018a6",
			"requestStatsUpdate(uint256)": "2839b78f",
			"s_playerData(uint256)": "b4cfae44",
			"s_requestExists(bytes32)": "20457fb6",
			"s_requestToTokenId(bytes32)": "68015a4b",
			"safeMint(address,string,string)": "eca81d42",
			"safeTransferFrom(address,address,uint256)": "42842e0e",
			"safeTransferFrom(address,address,uint256,bytes)": "b88d4fde",
			"setApprovalForAll(address,bool)": "a22cb465",
			"setAutomationSettings(uint256,uint256)": "22e817e2",
			"setSourceCode(string)": "00b46767",
			"sourceCode()": "13c60177",
			"subscriptionId()": "09c1ba2e",
			"supportsInterface(bytes4)": "01ffc9a7",
			"symbol()": "95d89b41",
			"targetTokenIdToUpdate()": "94881476",
			"tokenURI(uint256)": "c87b56dd",
			"transferFrom(address,address,uint256)": "23b872dd",
			"transferOwnership(address)": "f2fde38b"
		}
	},
	"abi": [
		{
			"inputs": [
				{
					"internalType": "uint64",
					"name": "_subscriptionId",
					"type": "uint64"
				}
			],
			"stateMutability": "nonpayable",
			"type": "constructor"
		},
		{
			"inputs": [
				{
					"internalType": "address",
					"name": "sender",
					"type": "address"
				},
				{
					"internalType": "uint256",
					"name": "tokenId",
					"type": "uint256"
				},
				{
					"internalType": "address",
					"name": "owner",
					"type": "address"
				}
			],
			"name": "ERC721IncorrectOwner",
			"type": "error"
		},
		{
			"inputs": [
				{
					"internalType": "address",
					"name": "operator",
					"type": "address"
				},
				{
					"internalType": "uint256",
					"name": "tokenId",
					"type": "uint256"
				}
			],
			"name": "ERC721InsufficientApproval",
			"type": "error"
		},
		{
			"inputs": [
				{
					"internalType": "address",
					"name": "approver",
					"type": "address"
				}
			],
			"name": "ERC721InvalidApprover",
			"type": "error"
		},
		{
			"inputs": [
				{
					"internalType": "address",
					"name": "operator",
					"type": "address"
				}
			],
			"name": "ERC721InvalidOperator",
			"type": "error"
		},
		{
			"inputs": [
				{
					"internalType": "address",
					"name": "owner",
					"type": "address"
				}
			],
			"name": "ERC721InvalidOwner",
			"type": "error"
		},
		{
			"inputs": [
				{
					"internalType": "address",
					"name": "receiver",
					"type": "address"
				}
			],
			"name": "ERC721InvalidReceiver",
			"type": "error"
		},
		{
			"inputs": [
				{
					"internalType": "address",
					"name": "sender",
					"type": "address"
				}
			],
			"name": "ERC721InvalidSender",
			"type": "error"
		},
		{
			"inputs": [
				{
					"internalType": "uint256",
					"name": "tokenId",
					"type": "uint256"
				}
			],
			"name": "ERC721NonexistentToken",
			"type": "error"
		},
		{
			"inputs": [],
			"name": "EmptyArgs",
			"type": "error"
		},
		{
			"inputs": [],
			"name": "EmptySource",
			"type": "error"
		},
		{
			"inputs": [
				{
					"internalType": "uint256",
					"name": "provided",
					"type": "uint256"
				},
				{
					"internalType": "uint256",
					"name": "minimum",
					"type": "uint256"
				}
			],
			"name": "IntervalTooShort",
			"type": "error"
		},
		{
			"inputs": [],
			"name": "NoInlineSecrets",
			"type": "error"
		},
		{
			"inputs": [],
			"name": "NoTokensMinted",
			"type": "error"
		},
		{
			"inputs": [],
			"name": "OnlyRouterCanFulfill",
			"type": "error"
		},
		{
			"inputs": [
				{
					"internalType": "bytes",
					"name": "err",
					"type": "bytes"
				}
			],
			"name": "OracleError",
			"type": "error"
		},
		{
			"inputs": [
				{
					"internalType": "address",
					"name": "owner",
					"type": "address"
				}
			],
			"name": "OwnableInvalidOwner",
			"type": "error"
		},
		{
			"inputs": [
				{
					"internalType": "address",
					"name": "account",
					"type": "address"
				}
			],
			"name": "OwnableUnauthorizedAccount",
			"type": "error"
		},
		{
			"inputs": [
				{
					"internalType": "bytes32",
					"name": "requestId",
					"type": "bytes32"
				}
			],
			"name": "UnknownRequestId",
			"type": "error"
		},
		{
			"anonymous": false,
			"inputs": [
				{
					"indexed": true,
					"internalType": "address",
					"name": "owner",
					"type": "address"
				},
				{
					"indexed": true,
					"internalType": "address",
					"name": "approved",
					"type": "address"
				},
				{
					"indexed": true,
					"internalType": "uint256",
					"name": "tokenId",
					"type": "uint256"
				}
			],
			"name": "Approval",
			"type": "event"
		},
		{
			"anonymous": false,
			"inputs": [
				{
					"indexed": true,
					"internalType": "address",
					"name": "owner",
					"type": "address"
				},
				{
					"indexed": true,
					"internalType": "address",
					"name": "operator",
					"type": "address"
				},
				{
					"indexed": false,
					"internalType": "bool",
					"name": "approved",
					"type": "bool"
				}
			],
			"name": "ApprovalForAll",
			"type": "event"
		},
		{
			"anonymous": false,
			"inputs": [
				{
					"indexed": false,
					"internalType": "uint256",
					"name": "_fromTokenId",
					"type": "uint256"
				},
				{
					"indexed": false,
					"internalType": "uint256",
					"name": "_toTokenId",
					"type": "uint256"
				}
			],
			"name": "BatchMetadataUpdate",
			"type": "event"
		},
		{
			"anonymous": false,
			"inputs": [
				{
					"indexed": false,
					"internalType": "uint256",
					"name": "_tokenId",
					"type": "uint256"
				}
			],
			"name": "MetadataUpdate",
			"type": "event"
		},
		{
			"anonymous": false,
			"inputs": [
				{
					"indexed": true,
					"internalType": "address",
					"name": "previousOwner",
					"type": "address"
				},
				{
					"indexed": true,
					"internalType": "address",
					"name": "newOwner",
					"type": "address"
				}
			],
			"name": "OwnershipTransferred",
			"type": "event"
		},
		{
			"anonymous": false,
			"inputs": [
				{
					"indexed": true,
					"internalType": "uint256",
					"name": "tokenId",
					"type": "uint256"
				},
				{
					"indexed": false,
					"internalType": "uint64",
					"name": "games",
					"type": "uint64"
				},
				{
					"indexed": false,
					"internalType": "uint64",
					"name": "kills",
					"type": "uint64"
				},
				{
					"indexed": false,
					"internalType": "uint64",
					"name": "deaths",
					"type": "uint64"
				},
				{
					"indexed": false,
					"internalType": "uint64",
					"name": "assists",
					"type": "uint64"
				},
				{
					"indexed": false,
					"internalType": "uint256",
					"name": "timestamp",
					"type": "uint256"
				}
			],
			"name": "PlayerStatsUpdated",
			"type": "event"
		},
		{
			"anonymous": false,
			"inputs": [
				{
					"indexed": true,
					"internalType": "bytes32",
					"name": "id",
					"type": "bytes32"
				}
			],
			"name": "RequestFulfilled",
			"type": "event"
		},
		{
			"anonymous": false,
			"inputs": [
				{
					"indexed": true,
					"internalType": "bytes32",
					"name": "id",
					"type": "bytes32"
				}
			],
			"name": "RequestSent",
			"type": "event"
		},
		{
			"anonymous": false,
			"inputs": [
				{
					"indexed": true,
					"internalType": "uint256",
					"name": "tokenId",
					"type": "uint256"
				},
				{
					"indexed": true,
					"internalType": "bytes32",
					"name": "requestId",
					"type": "bytes32"
				},
				{
					"indexed": false,
					"internalType": "string",
					"name": "nickname",
					"type": "string"
				}
			],
			"name": "StatsRequested",
			"type": "event"
		},
		{
			"anonymous": false,
			"inputs": [
				{
					"indexed": true,
					"internalType": "address",
					"name": "from",
					"type": "address"
				},
				{
					"indexed": true,
					"internalType": "address",
					"name": "to",
					"type": "address"
				},
				{
					"indexed": true,
					"internalType": "uint256",
					"name": "tokenId",
					"type": "uint256"
				}
			],
			"name": "Transfer",
			"type": "event"
		},
		{
			"inputs": [],
			"name": "MINIMUM_INTERVAL",
			"outputs": [
				{
					"internalType": "uint256",
					"name": "",
					"type": "uint256"
				}
			],
			"stateMutability": "view",
			"type": "function"
		},
		{
			"inputs": [
				{
					"internalType": "address",
					"name": "to",
					"type": "address"
				},
				{
					"internalType": "uint256",
					"name": "tokenId",
					"type": "uint256"
				}
			],
			"name": "approve",
			"outputs": [],
			"stateMutability": "nonpayable",
			"type": "function"
		},
		{
			"inputs": [
				{
					"internalType": "address",
					"name": "owner",
					"type": "address"
				}
			],
			"name": "balanceOf",
			"outputs": [
				{
					"internalType": "uint256",
					"name": "",
					"type": "uint256"
				}
			],
			"stateMutability": "view",
			"type": "function"
		},
		{
			"inputs": [
				{
					"internalType": "bytes",
					"name": "",
					"type": "bytes"
				}
			],
			"name": "checkUpkeep",
			"outputs": [
				{
					"internalType": "bool",
					"name": "upkeepNeeded",
					"type": "bool"
				},
				{
					"internalType": "bytes",
					"name": "performData",
					"type": "bytes"
				}
			],
			"stateMutability": "view",
			"type": "function"
		},
		{
			"inputs": [
				{
					"internalType": "uint256",
					"name": "tokenId",
					"type": "uint256"
				}
			],
			"name": "generateSVG",
			"outputs": [
				{
					"internalType": "string",
					"name": "",
					"type": "string"
				}
			],
			"stateMutability": "view",
			"type": "function"
		},
		{
			"inputs": [
				{
					"internalType": "uint256",
					"name": "tokenId",
					"type": "uint256"
				}
			],
			"name": "getApproved",
			"outputs": [
				{
					"internalType": "address",
					"name": "",
					"type": "address"
				}
			],
			"stateMutability": "view",
			"type": "function"
		},
		{
			"inputs": [
				{
					"internalType": "bytes32",
					"name": "requestId",
					"type": "bytes32"
				},
				{
					"internalType": "bytes",
					"name": "response",
					"type": "bytes"
				},
				{
					"internalType": "bytes",
					"name": "err",
					"type": "bytes"
				}
			],
			"name": "handleOracleFulfillment",
			"outputs": [],
			"stateMutability": "nonpayable",
			"type": "function"
		},
		{
			"inputs": [],
			"name": "interval",
			"outputs": [
				{
					"internalType": "uint256",
					"name": "",
					"type": "uint256"
				}
			],
			"stateMutability": "view",
			"type": "function"
		},
		{
			"inputs": [
				{
					"internalType": "address",
					"name": "owner",
					"type": "address"
				},
				{
					"internalType": "address",
					"name": "operator",
					"type": "address"
				}
			],
			"name": "isApprovedForAll",
			"outputs": [
				{
					"internalType": "bool",
					"name": "",
					"type": "bool"
				}
			],
			"stateMutability": "view",
			"type": "function"
		},
		{
			"inputs": [],
			"name": "lastTimeStamp",
			"outputs": [
				{
					"internalType": "uint256",
					"name": "",
					"type": "uint256"
				}
			],
			"stateMutability": "view",
			"type": "function"
		},
		{
			"inputs": [],
			"name": "name",
			"outputs": [
				{
					"internalType": "string",
					"name": "",
					"type": "string"
				}
			],
			"stateMutability": "view",
			"type": "function"
		},
		{
			"inputs": [],
			"name": "owner",
			"outputs": [
				{
					"internalType": "address",
					"name": "",
					"type": "address"
				}
			],
			"stateMutability": "view",
			"type": "function"
		},
		{
			"inputs": [
				{
					"internalType": "uint256",
					"name": "tokenId",
					"type": "uint256"
				}
			],
			"name": "ownerOf",
			"outputs": [
				{
					"internalType": "address",
					"name": "",
					"type": "address"
				}
			],
			"stateMutability": "view",
			"type": "function"
		},
		{
			"inputs": [
				{
					"internalType": "bytes",
					"name": "",
					"type": "bytes"
				}
			],
			"name": "performUpkeep",
			"outputs": [],
			"stateMutability": "nonpayable",
			"type": "function"
		},
		{
			"inputs": [],
			"name": "renounceOwnership",
			"outputs": [],
			"stateMutability": "nonpayable",
			"type": "function"
		},
		{
			"inputs": [
				{
					"internalType": "uint256",
					"name": "tokenId",
					"type": "uint256"
				}
			],
			"name": "requestStatsUpdate",
			"outputs": [],
			"stateMutability": "nonpayable",
			"type": "function"
		},
		{
			"inputs": [
				{
					"internalType": "uint256",
					"name": "",
					"type": "uint256"
				}
			],
			"name": "s_playerData",
			"outputs": [
				{
					"internalType": "string",
					"name": "nickname",
					"type": "string"
				},
				{
					"internalType": "string",
					"name": "lane",
					"type": "string"
				},
				{
					"internalType": "uint64",
					"name": "games",
					"type": "uint64"
				},
				{
					"internalType": "uint64",
					"name": "kills",
					"type": "uint64"
				},
				{
					"internalType": "uint64",
					"name": "deaths",
					"type": "uint64"
				},
				{
					"internalType": "uint64",
					"name": "assists",
					"type": "uint64"
				}
			],
			"stateMutability": "view",
			"type": "function"
		},
		{
			"inputs": [
				{
					"internalType": "bytes32",
					"name": "",
					"type": "bytes32"
				}
			],
			"name": "s_requestExists",
			"outputs": [
				{
					"internalType": "bool",
					"name": "",
					"type": "bool"
				}
			],
			"stateMutability": "view",
			"type": "function"
		},
		{
			"inputs": [
				{
					"internalType": "bytes32",
					"name": "",
					"type": "bytes32"
				}
			],
			"name": "s_requestToTokenId",
			"outputs": [
				{
					"internalType": "uint256",
					"name": "",
					"type": "uint256"
				}
			],
			"stateMutability": "view",
			"type": "function"
		},
		{
			"inputs": [
				{
					"internalType": "address",
					"name": "to",
					"type": "address"
				},
				{
					"internalType": "string",
					"name": "_nickname",
					"type": "string"
				},
				{
					"internalType": "string",
					"name": "_lane",
					"type": "string"
				}
			],
			"name": "safeMint",
			"outputs": [],
			"stateMutability": "nonpayable",
			"type": "function"
		},
		{
			"inputs": [
				{
					"internalType": "address",
					"name": "from",
					"type": "address"
				},
				{
					"internalType": "address",
					"name": "to",
					"type": "address"
				},
				{
					"internalType": "uint256",
					"name": "tokenId",
					"type": "uint256"
				}
			],
			"name": "safeTransferFrom",
			"outputs": [],
			"stateMutability": "nonpayable",
			"type": "function"
		},
		{
			"inputs": [
				{
					"internalType": "address",
					"name": "from",
					"type": "address"
				},
				{
					"internalType": "address",
					"name": "to",
					"type": "address"
				},
				{
					"internalType": "uint256",
					"name": "tokenId",
					"type": "uint256"
				},
				{
					"internalType": "bytes",
					"name": "data",
					"type": "bytes"
				}
			],
			"name": "safeTransferFrom",
			"outputs": [],
			"stateMutability": "nonpayable",
			"type": "function"
		},
		{
			"inputs": [
				{
					"internalType": "address",
					"name": "operator",
					"type": "address"
				},
				{
					"internalType": "bool",
					"name": "approved",
					"type": "bool"
				}
			],
			"name": "setApprovalForAll",
			"outputs": [],
			"stateMutability": "nonpayable",
			"type": "function"
		},
		{
			"inputs": [
				{
					"internalType": "uint256",
					"name": "_intervalSeconds",
					"type": "uint256"
				},
				{
					"internalType": "uint256",
					"name": "_targetTokenId",
					"type": "uint256"
				}
			],
			"name": "setAutomationSettings",
			"outputs": [],
			"stateMutability": "nonpayable",
			"type": "function"
		},
		{
			"inputs": [
				{
					"internalType": "string",
					"name": "_sourceCode",
					"type": "string"
				}
			],
			"name": "setSourceCode",
			"outputs": [],
			"stateMutability": "nonpayable",
			"type": "function"
		},
		{
			"inputs": [],
			"name": "sourceCode",
			"outputs": [
				{
					"internalType": "string",
					"name": "",
					"type": "string"
				}
			],
			"stateMutability": "view",
			"type": "function"
		},
		{
			"inputs": [],
			"name": "subscriptionId",
			"outputs": [
				{
					"internalType": "uint64",
					"name": "",
					"type": "uint64"
				}
			],
			"stateMutability": "view",
			"type": "function"
		},
		{
			"inputs": [
				{
					"internalType": "bytes4",
					"name": "interfaceId",
					"type": "bytes4"
				}
			],
			"name": "supportsInterface",
			"outputs": [
				{
					"internalType": "bool",
					"name": "",
					"type": "bool"
				}
			],
			"stateMutability": "view",
			"type": "function"
		},
		{
			"inputs": [],
			"name": "symbol",
			"outputs": [
				{
					"internalType": "string",
					"name": "",
					"type": "string"
				}
			],
			"stateMutability": "view",
			"type": "function"
		},
		{
			"inputs": [],
			"name": "targetTokenIdToUpdate",
			"outputs": [
				{
					"internalType": "uint256",
					"name": "",
					"type": "uint256"
				}
			],
			"stateMutability": "view",
			"type": "function"
		},
		{
			"inputs": [
				{
					"internalType": "uint256",
					"name": "tokenId",
					"type": "uint256"
				}
			],
			"name": "tokenURI",
			"outputs": [
				{
					"internalType": "string",
					"name": "",
					"type": "string"
				}
			],
			"stateMutability": "view",
			"type": "function"
		},
		{
			"inputs": [
				{
					"internalType": "address",
					"name": "from",
					"type": "address"
				},
				{
					"internalType": "address",
					"name": "to",
					"type": "address"
				},
				{
					"internalType": "uint256",
					"name": "tokenId",
					"type": "uint256"
				}
			],
			"name": "transferFrom",
			"outputs": [],
			"stateMutability": "nonpayable",
			"type": "function"
		},
		{
			"inputs": [
				{
					"internalType": "address",
					"name": "newOwner",
					"type": "address"
				}
			],
			"name": "transferOwnership",
			"outputs": [],
			"stateMutability": "nonpayable",
			"type": "function"
		}
	]
}