{
	"data": {
		"bytecode": {
			"linkReferences": {},
			"object": "60a0604052600980546001600160a01b03191673b83e47c2bc239b3bf370bc41e1459a34b41238d01790557f66756e2d657468657265756d2d7365706f6c69612d3100000000000000000000600a55610e10600e5534801561005f575f5ffd5b5060405161489238038061489283398101604081905261007e916101a5565b600954604080518082018252600b81526a4d504c204d6f64656c204160a81b602080830191909152825180840190935260058352644d504c2d4160d81b908301526001600160a01b039092169133915f6100d8838261026a565b5060016100e5828261026a565b5050506001600160a01b03811661011557604051631e4fbdf760e01b81525f600482015260240160405180910390fd5b61011e81610154565b506001600160a01b0316608052600b80546001600160401b0319166001600160401b039290921691909117905542600d55610324565b600780546001600160a01b038381166001600160a01b0319831681179093556040519116919082907f8be0079c531659141344cd1fd0a4f28419497f9722a3daafe3b4186f6b6457e0905f90a35050565b5f602082840312156101b5575f5ffd5b81516001600160401b03811681146101cb575f5ffd5b9392505050565b634e487b7160e01b5f52604160045260245ffd5b600181811c908216806101fa57607f821691505b60208210810361021857634e487b7160e01b5f52602260045260245ffd5b50919050565b601f82111561026557805f5260205f20601f840160051c810160208510156102435750805b601f840160051c820191505b81811015610262575f815560010161024f565b50505b505050565b81516001600160401b03811115610283576102836101d2565b6102978161029184546101e6565b8461021e565b6020601f8211600181146102c9575f83156102b25750848201515b5f19600385901b1c1916600184901b178455610262565b5f84815260208120601f198516915b828110156102f857878501518255602094850194600190920191016102d8565b508482101561031557868401515f19600387901b60f8161c191681555b50505050600190811b01905550565b60805161454f6103435f395f81816105410152611b7d015261454f5ff3fe608060405234801561000f575f5ffd5b50600436106101c5575f3560e01c80636352211e116100fe57806395d89b411161009e578063c87b56dd1161006e578063c87b56dd146103e7578063e985e9c5146103fa578063eca81d421461040d578063f2fde38b14610420575f5ffd5b806395d89b4114610394578063a22cb4651461039c578063b4cfae44146103af578063b88d4fde146103d4575f5ffd5b8063715018a6116100d9578063715018a6146103695780638da5cb5b14610371578063947a36fb14610382578063948814761461038b575f5ffd5b80636352211e1461032457806368015a4b1461033757806370a0823114610356575f5ffd5b806313c60177116101695780632839b78f116101445780632839b78f146102d45780633f3b3b27146102e757806342842e0e146102fe5780634585e33b14610311575f5ffd5b806313c601771461029757806320457fb61461029f57806323b872dd146102c1575f5ffd5b8063081812fc116101a4578063081812fc1461021b578063095ea7b31461024657806309c1ba2e146102595780630ca7617514610284575f5ffd5b8062b46767146101c957806301ffc9a7146101de57806306fdde0314610206575b5f5ffd5b6101dc6101d7366004612799565b610433565b005b6101f16101ec3660046127df565b61044b565b60405190151581526020015b60405180910390f35b61020e610475565b6040516101fd9190612828565b61022e61022936600461283a565b610504565b6040516001600160a01b0390911681526020016101fd565b6101dc61025436600461286c565b61052b565b600b5461026c906001600160401b031681565b6040516001600160401b0390911681526020016101fd565b6101dc610292366004612894565b610536565b61020e6105b9565b6101f16102ad36600461283a565b60126020525f908152604090205460ff1681565b6101dc6102cf3660046128ff565b610645565b6101dc6102e236600461283a565b6106d3565b6102f0600d5481565b6040519081526020016101fd565b6101dc61030c3660046128ff565b61077a565b6101dc61031f366004612939565b610799565b61022e61033236600461283a565b6107d4565b6102f061034536600461283a565b60116020525f908152604090205481565b6102f06103643660046129a5565b6107de565b6101dc610823565b6007546001600160a01b031661022e565b6102f0600e5481565b6102f0600f5481565b61020e610836565b6101dc6103aa3660046129be565b610845565b6103c26103bd36600461283a565b610850565b6040516101fd969594939291906129f7565b6101dc6103e2366004612a4f565b6109a5565b61020e6103f536600461283a565b6109bd565b6101f1610408366004612ab2565b610a3e565b6101dc61041b366004612ae3565b610a6b565b6101dc61042e3660046129a5565b610b77565b61043b610bb4565b600c6104478282612b94565b5050565b5f6001600160e01b03198216632483248360e11b148061046f575061046f82610be1565b92915050565b60605f805461048390612b18565b80601f01602080910402602001604051908101604052809291908181526020018280546104af90612b18565b80156104fa5780601f106104d1576101008083540402835291602001916104fa565b820191905f5260205f20905b8154815290600101906020018083116104dd57829003601f168201915b5050505050905090565b5f61050e82610c30565b505f828152600460205260409020546001600160a01b031661046f565b610447828233610c68565b336001600160a01b037f0000000000000000000000000000000000000000000000000000000000000000161461057f5760405163c6829f8360e01b815260040160405180910390fd5b61058a838383610c75565b60405183907f85e1543bf2f84fe80c6badbce3648c8539ad1df4d2b3d822938ca0538be727e6905f90a2505050565b600c80546105c690612b18565b80601f01602080910402602001604051908101604052809291908181526020018280546105f290612b18565b801561063d5780601f106106145761010080835404028352916020019161063d565b820191905f5260205f20905b81548152906001019060200180831161062057829003601f168201915b505050505081565b6001600160a01b03821661067357604051633250574960e11b81525f60048201526024015b60405180910390fd5b5f61067f838333610dd8565b9050836001600160a01b0316816001600160a01b0316146106cd576040516364283d7b60e01b81526001600160a01b038086166004830152602482018490528216604482015260640161066a565b50505050565b6106db610bb4565b5f81815260106020526040902080546104479183916106f990612b18565b80601f016020809104026020016040519081016040528092919081815260200182805461072590612b18565b80156107705780601f1061074757610100808354040283529160200191610770565b820191905f5260205f20905b81548152906001019060200180831161075357829003601f168201915b5050505050610eca565b61079483838360405180602001604052805f8152506109a5565b505050565b600e54600d546107a99042612c62565b11156104475742600d55600f545f81815260106020526040902080546107949291906106f990612b18565b5f61046f82610c30565b5f6001600160a01b038216610808576040516322718ad960e21b81525f600482015260240161066a565b506001600160a01b03165f9081526003602052604090205490565b61082b610bb4565b6108345f611051565b565b60606001805461048390612b18565b6104473383836110a2565b60106020525f908152604090208054819061086a90612b18565b80601f016020809104026020016040519081016040528092919081815260200182805461089690612b18565b80156108e15780601f106108b8576101008083540402835291602001916108e1565b820191905f5260205f20905b8154815290600101906020018083116108c457829003601f168201915b5050505050908060010180546108f690612b18565b80601f016020809104026020016040519081016040528092919081815260200182805461092290612b18565b801561096d5780601f106109445761010080835404028352916020019161096d565b820191905f5260205f20905b81548152906001019060200180831161095057829003601f168201915b505050600290930154919250506001600160401b0380821691600160401b8104821691600160801b8204811691600160c01b90041686565b6109b0848484610645565b6106cd3385858585611169565b60606109c882610c30565b505f6109de60408051602081019091525f815290565b90505f6109ea84611290565b905081515f036109fb579392505050565b805115610a2d578181604051602001610a15929190612c8c565b60405160208183030381529060405292505050919050565b610a368461132f565b949350505050565b6001600160a01b039182165f90815260056020908152604080832093909416825291909152205460ff1690565b610a73610bb4565b6008546040805160c08101825284815260208082018590525f828401819052606083018190526080830181905260a0830181905284815260109091529190912081518190610ac19082612b94565b5060208201516001820190610ad69082612b94565b506040820151600290910180546060840151608085015160a0909501516001600160401b03908116600160c01b026001600160c01b03968216600160801b02969096166001600160801b03928216600160401b026001600160801b03199094169190951617919091171691909117919091179055610b5484826113a0565b610b5d816113b9565b60088054905f610b6c83612ca0565b919050555050505050565b610b7f610bb4565b6001600160a01b038116610ba857604051631e4fbdf760e01b81525f600482015260240161066a565b610bb181611051565b50565b6007546001600160a01b031633146108345760405163118cdaa760e01b815233600482015260240161066a565b5f6001600160e01b031982166380ac58cd60e01b1480610c1157506001600160e01b03198216635b5e139f60e01b145b8061046f57506301ffc9a760e01b6001600160e01b031983161461046f565b5f818152600260205260408120546001600160a01b03168061046f57604051637e27328960e01b81526004810184905260240161066a565b6107948383836001611718565b5f8381526012602052604090205460ff16610cc75760405162461bcd60e51b8152602060048201526012602482015271125b9d985b1a590814995c5d595cdd08125160721b604482015260640161066a565b805115610d055760405162461bcd60e51b815260206004820152600c60248201526b27b930b1b6329022b93937b960a11b604482015260640161066a565b5f8381526011602090815260408220548451909291610d2a9186018101908601612cb8565b5f838152601060209081526040808320600201805460c086901c6001600160801b03909116600160c01b6001600160401b038089169190910267ffffffffffffffff60801b191691909117600160801b88861c831602176001600160801b031916600160401b608089901c929092169190910267ffffffffffffffff19161717905588835260128252808320805460ff1916905560119091528120559050610dd1826113b9565b5050505050565b5f828152600260205260408120546001600160a01b0390811690831615610e0457610e0481848661181c565b6001600160a01b03811615610e3e57610e1f5f855f5f611718565b6001600160a01b0381165f90815260036020526040902080545f190190555b6001600160a01b03851615610e6c576001600160a01b0385165f908152600360205260409020805460010190555b5f8481526002602052604080822080546001600160a01b0319166001600160a01b0389811691821790925591518793918516917fddf252ad1be2c89b69c2b068fc378daa952ba7f163c4a11628f55a4df523b3ef91a4949350505050565b5f610f096040805160e08101909152805f81526020015f81526020015f8152602001606081526020016060815260200160608152602001606081525090565b610fa4600c8054610f1990612b18565b80601f0160208091040260200160405190810160405280929190818152602001828054610f4590612b18565b8015610f905780601f10610f6757610100808354040283529160200191610f90565b820191905f5260205f20905b815481529060010190602001808311610f7357829003601f168201915b50505050508261188090919063ffffffff16565b6040805160018082528183019092525f91816020015b6060815260200190600190039081610fba57905050905083815f81518110610fe457610fe4612ccf565b6020908102919091010152610ff9828261188c565b611021611005836118b5565b600b54600a546001600160401b0390911690622625a090611b79565b5f818152601160209081526040808320989098556012905295909520805460ff1916600117905550929392505050565b600780546001600160a01b038381166001600160a01b0319831681179093556040519116919082907f8be0079c531659141344cd1fd0a4f28419497f9722a3daafe3b4186f6b6457e0905f90a35050565b6001600160a01b0383166110cb5760405163a9fbf51f60e01b81525f600482015260240161066a565b6001600160a01b0382166110fd57604051630b61174360e31b81526001600160a01b038316600482015260240161066a565b6001600160a01b038381165f81815260056020908152604080832094871680845294825291829020805460ff191686151590811790915591519182527f17307eab39ab6107e8899845ad3d59bd9653f200f220920489ca2b5937696c31910160405180910390a3505050565b6001600160a01b0383163b15610dd157604051630a85bd0160e11b81526001600160a01b0384169063150b7a02906111ab908890889087908790600401612ce3565b6020604051808303815f875af19250505080156111e5575060408051601f3d908101601f191682019092526111e291810190612d1f565b60015b61124c573d808015611212576040519150601f19603f3d011682016040523d82523d5f602084013e611217565b606091505b5080515f0361124457604051633250574960e11b81526001600160a01b038516600482015260240161066a565b805160208201fd5b6001600160e01b03198116630a85bd0160e11b1461128857604051633250574960e11b81526001600160a01b038516600482015260240161066a565b505050505050565b5f8181526006602052604090208054606091906112ac90612b18565b80601f01602080910402602001604051908101604052809291908181526020018280546112d890612b18565b80156113235780601f106112fa57610100808354040283529160200191611323565b820191905f5260205f20905b81548152906001019060200180831161130657829003601f168201915b50505050509050919050565b606061133a82610c30565b505f61135060408051602081019091525f815290565b90505f81511161136e5760405180602001604052805f815250611399565b8061137884611c46565b604051602001611389929190612c8c565b6040516020818303038152906040525b9392505050565b610447828260405180602001604052805f815250611cd5565b5f81815260106020526040808220815160c081019092528054829082906113df90612b18565b80601f016020809104026020016040519081016040528092919081815260200182805461140b90612b18565b80156114565780601f1061142d57610100808354040283529160200191611456565b820191905f5260205f20905b81548152906001019060200180831161143957829003601f168201915b5050505050815260200160018201805461146f90612b18565b80601f016020809104026020016040519081016040528092919081815260200182805461149b90612b18565b80156114e65780601f106114bd576101008083540402835291602001916114e6565b820191905f5260205f20905b8154815290600101906020018083116114c957829003601f168201915b5050509183525050600291909101546001600160401b038082166020840152600160401b820481166040840152600160801b820481166060840152600160c01b9091048116608092830152908201519192505f91161561154a57816080015161154d565b60015b90505f816001600160401b03168360a001516001600160401b031684606001516001600160401b03166115809190612d3a565b61158b906064612d4d565b6115959190612d78565b90505f6115ab6115a6606484612d78565b611c46565b6115b96115a6606485612d8b565b6040516020016115ca929190612d9e565b60405160208183030381529060405290505f6115e4611cec565b6115ec611d11565b6115f68785611d34565b60405160200161160893929190612dc6565b60405160208183030381529060405290505f61162382611e82565b90505f865f0151876020015161164589604001516001600160401b0316611c46565b61165b8a606001516001600160401b0316611c46565b6116718b608001516001600160401b0316611c46565b6116878c60a001516001600160401b0316611c46565b60405160200161169c96959493929190612ea2565b60405160208183030381529060405290505f6116e26116ba8a611c46565b83856040516020016116ce9392919061305f565b604051602081830303815290604052611e82565b905061170d89826040516020016116f99190613155565b604051602081830303815290604052611e8e565b505050505050505050565b808061172c57506001600160a01b03821615155b156117ed575f61173b84610c30565b90506001600160a01b038316158015906117675750826001600160a01b0316816001600160a01b031614155b801561177a57506117788184610a3e565b155b156117a35760405163a9fbf51f60e01b81526001600160a01b038416600482015260240161066a565b81156117eb5783856001600160a01b0316826001600160a01b03167f8c5be1e5ebec7d5bd14f71427d1e84f3dd0314c0f7b2291e5b200ac8c7c3b92560405160405180910390a45b505b50505f90815260046020526040902080546001600160a01b0319166001600160a01b0392909216919091179055565b611827838383611edd565b610794576001600160a01b03831661185557604051637e27328960e01b81526004810182905260240161066a565b60405163177e802f60e01b81526001600160a01b03831660048201526024810182905260440161066a565b610447825f5f84611f3e565b80515f036118ad5760405163fe936cb760e01b815260040160405180910390fd5b60a090910152565b60605f6118c3610100611fbb565b90506118fc6040518060400160405280600c81526020016b31b7b232a637b1b0ba34b7b760a11b81525082611fdb90919063ffffffff16565b825161191a90600281111561191357611913613186565b8290611ff4565b6040805180820190915260088152676c616e677561676560c01b6020820152611944908290611fdb565b604083015161195b90801561191357611913613186565b604080518082019091526006815265736f7572636560d01b6020820152611983908290611fdb565b6060830151611993908290611fdb565b60a08301515115611a1e576040805180820190915260048152636172677360e01b60208201526119c4908290611fdb565b6119cd8161202d565b5f5b8360a0015151811015611a1457611a0c8460a0015182815181106119f5576119f5612ccf565b602002602001015183611fdb90919063ffffffff16565b6001016119cf565b50611a1e81612051565b60808301515115611ae1575f83602001516002811115611a4057611a40613186565b03611a5e5760405163a80d31f760e01b815260040160405180910390fd5b60408051808201909152600f81526e39b2b1b932ba39a637b1b0ba34b7b760891b6020820152611a8f908290611fdb565b611aa88360200151600281111561191357611913613186565b6040805180820190915260078152667365637265747360c81b6020820152611ad1908290611fdb565b6080830151611ae190829061206f565b60c08301515115611b715760408051808201909152600981526862797465734172677360b81b6020820152611b17908290611fdb565b611b208161202d565b5f5b8360c0015151811015611b6757611b5f8460c001518281518110611b4857611b48612ccf565b60200260200101518361206f90919063ffffffff16565b600101611b22565b50611b7181612051565b515192915050565b5f5f7f00000000000000000000000000000000000000000000000000000000000000006001600160a01b031663461d27628688600188886040518663ffffffff1660e01b8152600401611bd095949392919061319a565b6020604051808303815f875af1158015611bec573d5f5f3e3d5ffd5b505050506040513d601f19601f82011682018060405250810190611c109190612cb8565b60405190915081907f1131472297a800fee664d1d89cfa8f7676ff07189ecc53f80bbb5f4969099db8905f90a295945050505050565b60605f611c528361207c565b60010190505f816001600160401b03811115611c7057611c706126f6565b6040519080825280601f01601f191660200182016040528015611c9a576020820181803683370190505b5090508181016020015b5f19016f181899199a1a9b1b9c1cb0b131b232b360811b600a86061a8153600a8504945084611ca457509392505050565b611cdf8383612153565b610794335f858585611169565b6060604051602001611cfd906131e2565b604051602081830303815290604052905090565b6060604051806108c001604052806108948152602001613c866108949139905090565b60408051808201825260078152662365373463336360c81b602080830191909152845192516060935f92611d6b92859291016133f0565b60405160208183030381529060405290505f82866020015184611d9a89604001516001600160401b0316611c46565b604051602001611dad94939291906135ad565b60405160208183030381529060405290505f83611dd688606001516001600160401b0316611c46565b85611ded8a608001516001600160401b0316611c46565b604051602001611e00949392919061375a565b60405160208183030381529060405290505f84611e298960a001516001600160401b0316611c46565b8689604051602001611e3e94939291906138ec565b604051602081830303815290604052905083838383604051602001611e669493929190613b23565b6040516020818303038152906040529550505050505092915050565b606061046f825f6121b4565b5f828152600660205260409020611ea58282612b94565b506040518281527ff8e1a15aba9398e019f0b49df1a4fde98ee17ae345cb5f6b5e2c27f5033e8ce79060200160405180910390a15050565b5f6001600160a01b03831615801590610a365750826001600160a01b0316846001600160a01b03161480611f165750611f168484610a3e565b80610a365750505f908152600460205260409020546001600160a01b03908116911614919050565b80515f03611f5f576040516322ce3edd60e01b815260040160405180910390fd5b83836002811115611f7257611f72613186565b90816002811115611f8557611f85613186565b90525060408401828015611f9b57611f9b613186565b90818015611fab57611fab613186565b9052506060909301929092525050565b611fc36126c3565b8051611fcf9083612333565b505f6020820152919050565b611fe882600383516123a7565b815161079490826124c0565b81516120019060c26124e0565b50610447828260405160200161201991815260200190565b60405160208183030381529060405261206f565b612038816004612547565b60018160200181815161204b9190612d3a565b90525050565b61205c816007612547565b60018160200181815161204b9190612c62565b611fe882600283516123a7565b5f8072184f03e93ff9f4daa797ed6e38ed64bf6a1f0160401b83106120ba5772184f03e93ff9f4daa797ed6e38ed64bf6a1f0160401b830492506040015b6d04ee2d6d415b85acef810000000083106120e6576d04ee2d6d415b85acef8100000000830492506020015b662386f26fc10000831061210457662386f26fc10000830492506010015b6305f5e100831061211c576305f5e100830492506008015b612710831061213057612710830492506004015b60648310612142576064830492506002015b600a831061046f5760010192915050565b6001600160a01b03821661217c57604051633250574960e11b81525f600482015260240161066a565b5f61218883835f610dd8565b90506001600160a01b03811615610794576040516339e3563760e11b81525f600482015260240161066a565b606082515f036121d2575060408051602081019091525f815261046f565b5f82612202576003845160026121e89190612d3a565b6121f29190612d78565b6121fd906004612d4d565b612227565b6003845160046122129190612d4d565b61221d906002612d3a565b6122279190612d78565b905060405191507f4142434445464748494a4b4c4d4e4f505152535455565758595a616263646566601f5261067083027f6768696a6b6c6d6e6f707172737475767778797a303132333435363738392b2f18603f526020820181810185865187016020810180515f82525b828410156122e5576003840193508351603f8160121c16518753600187019650603f81600c1c16518753600187019650603f8160061c16518753600187019650603f811651875350600186019550612292565b90525085905061232657600386510660018114612309576002811461231c57612324565b603d6001840353603d6002840353612324565b603d60018403535b505b9183525060405292915050565b60408051808201909152606081525f6020820152612352602083612d8b565b1561237a57612362602083612d8b565b61236d906020612c62565b6123779083612d3a565b91505b60208084018390526040518085525f815290818401018181101561239c575f5ffd5b604052509192915050565b6017816001600160401b0316116123cd5782516106cd9060e0600585901b1683176124e0565b60ff816001600160401b03161161240d5782516123f5906018611fe0600586901b16176124e0565b5082516106cd906001600160401b038316600161255e565b61ffff816001600160401b03161161244e578251612436906019611fe0600586901b16176124e0565b5082516106cd906001600160401b038316600261255e565b63ffffffff816001600160401b03161161249157825161247990601a611fe0600586901b16176124e0565b5082516106cd906001600160401b038316600461255e565b82516124a890601b611fe0600586901b16176124e0565b5082516106cd906001600160401b038316600861255e565b60408051808201909152606081525f6020820152611399838384516125e0565b60408051808201909152606081525f60208201528251515f612503826001612d3a565b905084602001518210612524576125248561251f836002612d4d565b6126ac565b845160208382010185815350805182111561253d578181525b5093949350505050565b815161079490601f611fe0600585901b16176124e0565b60408051808201909152606081525f60208201528351515f6125808285612d3a565b9050856020015181111561259d5761259d8661251f836002612d4d565b5f60016125ac86610100613c1a565b6125b69190612c62565b905086518281018783198251161781525080518311156125d4578281525b50959695505050505050565b60408051808201909152606081525f60208201528251821115612601575f5ffd5b8351515f61260f8483612d3a565b9050856020015181111561262c5761262c8661251f836002612d4d565b85518051838201602001915f9180851115612645578482525b505050602086015b602086106126855780518252612664602083612d3a565b9150612671602082612d3a565b905061267e602087612c62565b955061264d565b5181515f1960208890036101000a0190811690199190911617905250849150509392505050565b81516126b88383612333565b506106cd83826124c0565b60405180604001604052806126ea6040518060400160405280606081526020015f81525090565b81526020015f81525090565b634e487b7160e01b5f52604160045260245ffd5b5f82601f830112612719575f5ffd5b8135602083015f5f6001600160401b03841115612738576127386126f6565b50604051601f19601f85018116603f011681018181106001600160401b0382111715612766576127666126f6565b60405283815290508082840187101561277d575f5ffd5b838360208301375f602085830101528094505050505092915050565b5f602082840312156127a9575f5ffd5b81356001600160401b038111156127be575f5ffd5b610a368482850161270a565b6001600160e01b031981168114610bb1575f5ffd5b5f602082840312156127ef575f5ffd5b8135611399816127ca565b5f81518084528060208401602086015e5f602082860101526020601f19601f83011685010191505092915050565b602081525f61139960208301846127fa565b5f6020828403121561284a575f5ffd5b5035919050565b80356001600160a01b0381168114612867575f5ffd5b919050565b5f5f6040838503121561287d575f5ffd5b61288683612851565b946020939093013593505050565b5f5f5f606084860312156128a6575f5ffd5b8335925060208401356001600160401b038111156128c2575f5ffd5b6128ce8682870161270a565b92505060408401356001600160401b038111156128e9575f5ffd5b6128f58682870161270a565b9150509250925092565b5f5f5f60608486031215612911575f5ffd5b61291a84612851565b925061292860208501612851565b929592945050506040919091013590565b5f5f6020838503121561294a575f5ffd5b82356001600160401b0381111561295f575f5ffd5b8301601f8101851361296f575f5ffd5b80356001600160401b03811115612984575f5ffd5b856020828401011115612995575f5ffd5b6020919091019590945092505050565b5f602082840312156129b5575f5ffd5b61139982612851565b5f5f604083850312156129cf575f5ffd5b6129d883612851565b9150602083013580151581146129ec575f5ffd5b809150509250929050565b60c081525f612a0960c08301896127fa565b8281036020840152612a1b81896127fa565b6001600160401b03978816604085015295871660608401525050918416608083015290921660a09092019190915292915050565b5f5f5f5f60808587031215612a62575f5ffd5b612a6b85612851565b9350612a7960208601612851565b92506040850135915060608501356001600160401b03811115612a9a575f5ffd5b612aa68782880161270a565b91505092959194509250565b5f5f60408385031215612ac3575f5ffd5b612acc83612851565b9150612ada60208401612851565b90509250929050565b5f5f5f60608486031215612af5575f5ffd5b612afe84612851565b925060208401356001600160401b038111156128c2575f5ffd5b600181811c90821680612b2c57607f821691505b602082108103612b4a57634e487b7160e01b5f52602260045260245ffd5b50919050565b601f82111561079457805f5260205f20601f840160051c81016020851015612b755750805b601f840160051c820191505b81811015610dd1575f8155600101612b81565b81516001600160401b03811115612bad57612bad6126f6565b612bc181612bbb8454612b18565b84612b50565b6020601f821160018114612bf3575f8315612bdc5750848201515b5f19600385901b1c1916600184901b178455610dd1565b5f84815260208120601f198516915b82811015612c225787850151825560209485019460019092019101612c02565b5084821015612c3f57868401515f19600387901b60f8161c191681555b50505050600190811b01905550565b634e487b7160e01b5f52601160045260245ffd5b8181038181111561046f5761046f612c4e565b5f81518060208401855e5f93019283525090919050565b5f610a36612c9a8386612c75565b84612c75565b5f60018201612cb157612cb1612c4e565b5060010190565b5f60208284031215612cc8575f5ffd5b5051919050565b634e487b7160e01b5f52603260045260245ffd5b6001600160a01b03858116825284166020820152604081018390526080606082018190525f90612d15908301846127fa565b9695505050505050565b5f60208284031215612d2f575f5ffd5b8151611399816127ca565b8082018082111561046f5761046f612c4e565b808202811582820484141761046f5761046f612c4e565b634e487b7160e01b5f52601260045260245ffd5b5f82612d8657612d86612d64565b500490565b5f82612d9957612d99612d64565b500690565b5f612da98285612c75565b601760f91b8152612dbd6001820185612c75565b95945050505050565b7f3c7376672077696474683d2233323022206865696768743d223430302220766981527f6577426f783d2230203020333230203430302220786d6c6e733d22687474703a60208201527f2f2f7777772e77332e6f72672f323030302f737667223e3c672073686170652d60408201527f72656e646572696e673d2263726973704564676573223e00000000000000000060608201525f612e696077830186612c75565b631e17b39f60e11b8152612e89612e836004830187612c75565b85612c75565b651e17b9bb339f60d11b81526006019695505050505050565b7f7b2274726169745f74797065223a20224e69636b6e616d65222c202276616c7581526432911d101160d91b60208201525f612ee16025830189612c75565b62089f4b60ea1b81527f7b2274726169745f74797065223a20224c616e65222c202276616c7565223a206003820152601160f91b6023820152612f276024820189612c75565b62089f4b60ea1b81527f7b2274726169745f74797065223a202247616d6573222c202276616c7565223a6003820152600160fd1b60238201529050612f70602482015b88612c75565b611f4b60f21b815290507f7b2274726169745f74797065223a20224b696c6c73222c202276616c7565223a6002820152600160fd1b6022820152612fb76023820187612c75565b611f4b60f21b815290507f7b2274726169745f74797065223a2022446561746873222c202276616c75652260028201526101d160f51b6022820152613000602482015b86612c75565b611f4b60f21b815290507f7b2274726169745f74797065223a202241737369737473222c202276616c75656002820152620111d160ed1b602282015261304860258201612e83565b607d60f81b81526001019998505050505050505050565b757b226e616d65223a20224d504c20436172642041202360501b81525f6130896016830186612c75565b6201116160ed1b81527f226465736372697074696f6e223a20224b61727475204e6f6e2d4f7074696d6960038201526e03d32b2101429a9aa27a9229491161608d1b60238201526e2261747472696275746573223a205b60881b60328201526130f56041820186612c75565b90506202e96160ed1b81527f22696d616765223a2022646174613a696d6167652f7376672b786d6c3b626173600382015263194d8d0b60e21b60238201526131406027820185612c75565b61227d60f01b81526002019695505050505050565b7f646174613a6170706c69636174696f6e2f6a736f6e3b6261736536342c00000081525f611399601d830184612c75565b634e487b7160e01b5f52602160045260245ffd5b6001600160401b038616815260a060208201525f6131bb60a08301876127fa565b61ffff9590951660408301525063ffffffff92909216606083015260809091015292915050565b7f3c7265637420783d22302220793d2230222077696474683d223332302220686581527f696768743d22343030222066696c6c3d2223306231303165222f3e000000000060208201527f3c7265637420783d22382220793d2238222077696474683d2233303422206865603b82018190527f696768743d22333834222066696c6c3d2223313431653333222f3e0000000000605b83015260768201527f696768743d22333834222066696c6c3d226e6f6e6522207374726f6b653d222360968201527f65373463336322207374726f6b652d77696474683d22312e35222072783d223260b68201526211179f60e91b60d68201527f3c7465787420783d223136302220793d223336222066696c6c3d22236537346360d98201527f33632220666f6e742d73697a653d2231362220746578742d616e63686f723d2260f98201527f6d6964646c652220666f6e742d7765696768743d22626f6c642220666f6e742d6101198201527f66616d696c793d226d6f6e6f7370616365223e4d504c20504c415945522043416101398201526829221e17ba32bc3a1f60b91b6101598201527f3c6c696e652078313d223230222079313d223530222078323d223330302220796101628201527f323d22353022207374726f6b653d222365373463336322207374726f6b652d776101828201526934b23a341e911911179f60b11b6101a28201525f6101ac820161046f565b7f3c67207472616e73666f726d3d227472616e736c617465283138302c2039352981527f222073686170652d72656e646572696e673d2263726973704564676573223e0060208201527f3c7465787420783d222d33302220793d223230222066696c6c3d220000000000603f8201525f61346d605a830185612c75565b5f516020613c665f395f51905f5281527f6e6f7370616365223e504c41594552204e414d453a3c2f746578743e0000000060208201527f3c7465787420783d222d33302220793d223436222066696c6c3d222365636630603c8201527f66312220666f6e742d73697a653d2232302220666f6e742d7765696768743d22605c8201527f626f6c642220666f6e742d66616d696c793d226d6f6e6f7370616365223e0000607c820152613522609a820185612c75565b661e17ba32bc3a1f60c91b81527f3c6c696e652078313d222d3235222079313d223638222078323d22313230222060078201527f79323d22363822207374726f6b653d222335353522207374726f6b652d77696460278201527f74683d223322207374726f6b652d6461736861727261793d22382c36222f3e00604782015260660195945050505050565b7f3c7465787420783d222d33302220793d22393222202066696c6c3d220000000081525f6135de601c830187612c75565b5f516020613c665f395f51905f5281527f6e6f7370616365223e4c414e452020203a3c2f746578743e000000000000000060208201527f3c7465787420783d223132302220793d22393222202066696c6c3d222365636660388201525f516020613c465f395f51905f5260588201525f516020613c265f395f51905f52607882015261366d6096820187612c75565b9050661e17ba32bc3a1f60c91b81527f3c7465787420783d222d33302220793d22313136222066696c6c3d220000000060078201526136af6023820186612c75565b5f516020613c665f395f51905f5281527f6e6f7370616365223e47414d455320203a3c2f746578743e000000000000000060208201527f3c7465787420783d223132302220793d22313136222066696c6c3d222365636660388201525f516020613c465f395f51905f5260588201525f516020613c265f395f51905f526078820152905061373f60968201612e83565b661e17ba32bc3a1f60c91b8152600701979650505050505050565b7f3c7465787420783d222d33302220793d22313430222066696c6c3d220000000081525f61378b601c830187612c75565b5f516020613c665f395f51905f5281527f6e6f7370616365223e4b494c4c5320203a3c2f746578743e000000000000000060208201527f3c7465787420783d223132302220793d22313430222066696c6c3d222365636660388201525f516020613c465f395f51905f5260588201525f516020613c265f395f51905f52607882015261381a6096820187612c75565b9050661e17ba32bc3a1f60c91b81527f3c7465787420783d222d33302220793d22313634222066696c6c3d2200000000600782015261385c6023820186612c75565b5f516020613c665f395f51905f5281527f6e6f7370616365223e444541544853203a3c2f746578743e000000000000000060208201527f3c7465787420783d223132302220793d22313634222066696c6c3d222365636660388201525f516020613c465f395f51905f5260588201525f516020613c265f395f51905f526078820152905061373f60968201612e83565b7f3c7465787420783d222d33302220793d22313838222066696c6c3d220000000081525f61391d601c830187612c75565b5f516020613c665f395f51905f5281527f6e6f7370616365223e415353495354533a3c2f746578743e000000000000000060208201527f3c7465787420783d223132302220793d22313838222066696c6c3d222365636660388201525f516020613c465f395f51905f5260588201525f516020613c265f395f51905f5260788201526139ac6096820187612c75565b9050661e17ba32bc3a1f60c91b81527f3c7465787420783d222d33302220793d22323132222066696c6c3d220000000060078201526139ee6023820186612c75565b5f516020613c665f395f51905f5281527f6e6f7370616365223e4b4441202020203a3c2f746578743e00000000000000006020820152905060388101613a80612ffa827f3c7465787420783d223132302220793d22323132222066696c6c3d222365636681525f516020613c465f395f51905f5260208201525f516020613c265f395f51905f526040820152605e0190565b915050613a9681661e17ba32bc3a1f60c91b9052565b7f3c6c696e652078313d222d3330222079313d22323238222078323d223132302260078201527f2079323d2232323822207374726f6b653d222335353522207374726f6b652d7760278201527f696474683d223322207374726f6b652d6461736861727261793d22382c36222f6047820152641f1e17b39f60d91b6067820152606c019695505050505050565b5f612d15612c9a612ffa612f6a858a612c75565b6001815b6001841115613b7257808504811115613b5657613b56612c4e565b6001841615613b6457908102905b60019390931c928002613b3b565b935093915050565b5f82613b885750600161046f565b81613b9457505f61046f565b8160018114613baa5760028114613bb457613bd0565b600191505061046f565b60ff841115613bc557613bc5612c4e565b50506001821b61046f565b5060208310610133831016604e8410600b8410161715613bf3575081810a61046f565b613bff5f198484613b37565b805f1904821115613c1257613c12612c4e565b029392505050565b5f6113998383613b7a56fe22656e642220666f6e742d66616d696c793d226d6f6e6f7370616365223e00003066312220666f6e742d73697a653d2231332220746578742d616e63686f723d2220666f6e742d73697a653d2231332220666f6e742d66616d696c793d226d6f3c73766720783d2231302220793d223330222077696474683d2231343022206865696768743d22333830222076696577426f783d22302030203332203332222073686170652d72656e646572696e673d2263726973704564676573223e3c67207472616e73666f726d3d227472616e736c6174652833322c203029207363616c65282d312c203129223e3c706174682066696c6c3d22233030303030302220643d224d3131203268313076314831317a204d3920336832763148397a204d32312033683276314832317a204d3820346831763148387a204d32332034683176314832337a204d3820356831763148387a204d32342035683176314832347a204d3820366831763148387a204d32342036683176314832347a204d3820376831763148387a204d32342037683176314832347a204d3820386831763148387a204d32342038683176314832347a204d3920396831763148397a204d32342039683176314832347a204d392031306831763148397a204d3233203130683176314832337a204d392031316831763148397a204d3132203131683276314831327a204d3138203131683276314831387a204d3233203131683176314832337a204d392031326831763148397a204d3233203132683176314832337a204d3130203133683176314831307a204d3232203133683176314832327a204d3130203134683176314831307a204d3232203134683176314832327a204d3130203135683176314831307a204d3232203135683176314832327a204d3131203136683176314831317a204d3231203136683176314832317a204d3131203137683176314831317a204d3231203137683176314832317a204d3132203138683176314831327a204d3230203138683176314832307a204d3132203139683176314831327a204d3230203139683176314832307a204d3131203230683176314831317a204d3231203230683176314832317a204d392032316832763148397a204d3232203231683276314832327a204d372032326832763148377a204d3234203232683276314832347a204d362032336831763148367a204d3236203233683176314832367a204d352032346831763148357a204d3237203234683176314832377a204d342032356831763148347a204d3238203235683176314832387a204d332032366831763148337a204d3239203236683176314832397a204d332032376831763148337a204d3239203237683176314832397a204d332032386831763148337a204d3239203238683176314832397a204d332032396831763148337a204d3239203239683176314832397a204d332033306831763148337a204d3239203330683176314832397a204d33203331683237763148337a22202f3e3c706174682066696c6c3d22233030303030302220643d224d3131203368313076314831317a204d392034683134763148397a204d392035683135763148397a204d392036683135763148397a204d392037683135763148397a204d3920386833763148397a204d32302038683476314832307a204d31302039683276314831307a204d32322039683276314832327a204d3130203130683176314831307a204d3232203130683176314832327a22202f3e3c706174682066696c6c3d22236534623539302220643d224d31322038683876314831327a204d3132203968313076314831327a204d313120313068313176314831317a204d3130203131683276314831307a204d3134203131683476314831347a204d3230203131683376314832307a204d313020313268313376314831307a204d3131203133683476314831317a204d3137203133683576314831377a204d313120313468313176314831317a204d3131203135683376314831317a204d3138203135683476314831387a204d3132203136683976314831327a204d3132203137683976314831327a204d3133203138683776314831337a22202f3e3c706174682066696c6c3d22236335393437332220643d224d3135203133683276314831357a204d3133203139683776314831337a204d3134203230683576314831347a22202f3e3c706174682066696c6c3d22236264366134662220643d224d3134203135683476314831347a22202f3e3c706174682066696c6c3d22236666666666662220643d224d3132203230683276314831327a204d3139203230683276314831397a204d3131203231683376314831317a204d3139203231683376314831397a204d392032326834763148397a204d3230203232683476314832307a204d372032336835763148377a204d3231203233683576314832317a204d362032346835763148367a204d3232203234683576314832327a204d352032356835763148357a204d3133203235683276314831337a204d3136203235683276314831367a204d3139203235683276314831397a204d3233203235683576314832337a204d342032366835763148347a204d3234203236683576314832347a204d342032376834763148347a204d3235203237683476314832357a204d342032386834763148347a204d3235203238683476314832357a204d342032396834763148347a204d3235203239683476314832357a204d362033306832763148367a204d3235203330683276314832357a22202f3e3c706174682066696c6c3d22236566383131352220643d224d3134203231683576314831347a204d3133203232683776314831337a204d3132203233683976314831327a204d313120323468313176314831317a204d3130203235683376314831307a204d3135203235683176314831357a204d3138203235683176314831387a204d3231203235683276314832317a204d39203236683135763148397a204d38203237683137763148387a204d38203238683137763148387a204d38203239683137763148387a204d342033306832763148347a204d38203330683137763148387a204d3237203330683276314832377a22202f3e3c2f673e3c2f7376673ea2646970667358221220e07393e050e9496aa42203e184a2c31ae88bca7936da3c69fc967af45ea4661964736f6c634300081e0033",
			"opcodes": "PUSH1 0xA0 PUSH1 0x40 MSTORE PUSH1 0x9 DUP1 SLOAD PUSH1 0x1 PUSH1 0x1 PUSH1 0xA0 SHL SUB NOT AND PUSH20 0xB83E47C2BC239B3BF370BC41E1459A34B41238D0 OR SWAP1 SSTORE PUSH32 0x66756E2D657468657265756D2D7365706F6C69612D3100000000000000000000 PUSH1 0xA SSTORE PUSH2 0xE10 PUSH1 0xE SSTORE CALLVALUE DUP1 ISZERO PUSH2 0x5F JUMPI PUSH0 PUSH0 REVERT JUMPDEST POP PUSH1 0x40 MLOAD PUSH2 0x4892 CODESIZE SUB DUP1 PUSH2 0x4892 DUP4 CODECOPY DUP2 ADD PUSH1 0x40 DUP2 SWAP1 MSTORE PUSH2 0x7E SWAP2 PUSH2 0x1A5 JUMP JUMPDEST PUSH1 0x9 SLOAD PUSH1 0x40 DUP1 MLOAD DUP1 DUP3 ADD DUP3 MSTORE PUSH1 0xB DUP2 MSTORE PUSH11 0x4D504C204D6F64656C2041 PUSH1 0xA8 SHL PUSH1 0x20 DUP1 DUP4 ADD SWAP2 SWAP1 SWAP2 MSTORE DUP3 MLOAD DUP1 DUP5 ADD SWAP1 SWAP4 MSTORE PUSH1 0x5 DUP4 MSTORE PUSH5 0x4D504C2D41 PUSH1 0xD8 SHL SWAP1 DUP4 ADD MSTORE PUSH1 0x1 PUSH1 0x1 PUSH1 0xA0 SHL SUB SWAP1 SWAP3 AND SWAP2 CALLER SWAP2 PUSH0 PUSH2 0xD8 DUP4 DUP3 PUSH2 0x26A JUMP JUMPDEST POP PUSH1 0x1 PUSH2 0xE5 DUP3 DUP3 PUSH2 0x26A JUMP JUMPDEST POP POP POP PUSH1 0x1 PUSH1 0x1 PUSH1 0xA0 SHL SUB DUP2 AND PUSH2 0x115 JUMPI PUSH1 0x40 MLOAD PUSH4 0x1E4FBDF7 PUSH1 0xE0 SHL DUP2 MSTORE PUSH0 PUSH1 0x4 DUP3 ADD MSTORE PUSH1 0x24 ADD PUSH1 0x40 MLOAD DUP1 SWAP2 SUB SWAP1 REVERT JUMPDEST PUSH2 0x11E DUP2 PUSH2 0x154 JUMP JUMPDEST POP PUSH1 0x1 PUSH1 0x1 PUSH1 0xA0 SHL SUB AND PUSH1 0x80 MSTORE PUSH1 0xB DUP1 SLOAD PUSH1 0x1 PUSH1 0x1 PUSH1 0x40 SHL SUB NOT AND PUSH1 0x1 PUSH1 0x1 PUSH1 0x40 SHL SUB SWAP3 SWAP1 SWAP3 AND SWAP2 SWAP1 SWAP2 OR SWAP1 SSTORE TIMESTAMP PUSH1 0xD SSTORE PUSH2 0x324 JUMP JUMPDEST PUSH1 0x7 DUP1 SLOAD PUSH1 0x1 PUSH1 0x1 PUSH1 0xA0 SHL SUB DUP4 DUP2 AND PUSH1 0x1 PUSH1 0x1 PUSH1 0xA0 SHL SUB NOT DUP4 AND DUP2 OR SWAP1 SWAP4 SSTORE PUSH1 0x40 MLOAD SWAP2 AND SWAP2 SWAP1 DUP3 SWAP1 PUSH32 0x8BE0079C531659141344CD1FD0A4F28419497F9722A3DAAFE3B4186F6B6457E0 SWAP1 PUSH0 SWAP1 LOG3 POP POP JUMP JUMPDEST PUSH0 PUSH1 0x20 DUP3 DUP5 SUB SLT ISZERO PUSH2 0x1B5 JUMPI PUSH0 PUSH0 REVERT JUMPDEST DUP2 MLOAD PUSH1 0x1 PUSH1 0x1 PUSH1 0x40 SHL SUB DUP2 AND DUP2 EQ PUSH2 0x1CB JUMPI PUSH0 PUSH0 REVERT JUMPDEST SWAP4 SWAP3 POP POP POP JUMP JUMPDEST PUSH4 0x4E487B71 PUSH1 0xE0 SHL PUSH0 MSTORE PUSH1 0x41 PUSH1 0x4 MSTORE PUSH1 0x24 PUSH0 REVERT JUMPDEST PUSH1 0x1 DUP2 DUP2 SHR SWAP1 DUP3 AND DUP1 PUSH2 0x1FA JUMPI PUSH1 0x7F DUP3 AND SWAP2 POP JUMPDEST PUSH1 0x20 DUP3 LT DUP2 SUB PUSH2 0x218 JUMPI PUSH4 0x4E487B71 PUSH1 0xE0 SHL PUSH0 MSTORE PUSH1 0x22 PUSH1 0x4 MSTORE PUSH1 0x24 PUSH0 REVERT JUMPDEST POP SWAP2 SWAP1 POP JUMP JUMPDEST PUSH1 0x1F DUP3 GT ISZERO PUSH2 0x265 JUMPI DUP1 PUSH0 MSTORE PUSH1 0x20 PUSH0 KECCAK256 PUSH1 0x1F DUP5 ADD PUSH1 0x5 SHR DUP2 ADD PUSH1 0x20 DUP6 LT ISZERO PUSH2 0x243 JUMPI POP DUP1 JUMPDEST PUSH1 0x1F DUP5 ADD PUSH1 0x5 SHR DUP3 ADD SWAP2 POP JUMPDEST DUP2 DUP2 LT ISZERO PUSH2 0x262 JUMPI PUSH0 DUP2 SSTORE PUSH1 0x1 ADD PUSH2 0x24F JUMP JUMPDEST POP POP JUMPDEST POP POP POP JUMP JUMPDEST DUP2 MLOAD PUSH1 0x1 PUSH1 0x1 PUSH1 0x40 SHL SUB DUP2 GT ISZERO PUSH2 0x283 JUMPI PUSH2 0x283 PUSH2 0x1D2 JUMP JUMPDEST PUSH2 0x297 DUP2 PUSH2 0x291 DUP5 SLOAD PUSH2 0x1E6 JUMP JUMPDEST DUP5 PUSH2 0x21E JUMP JUMPDEST PUSH1 0x20 PUSH1 0x1F DUP3 GT PUSH1 0x1 DUP2 EQ PUSH2 0x2C9 JUMPI PUSH0 DUP4 ISZERO PUSH2 0x2B2 JUMPI POP DUP5 DUP3 ADD MLOAD JUMPDEST PUSH0 NOT PUSH1 0x3 DUP6 SWAP1 SHL SHR NOT AND PUSH1 0x1 DUP5 SWAP1 SHL OR DUP5 SSTORE PUSH2 0x262 JUMP JUMPDEST PUSH0 DUP5 DUP2 MSTORE PUSH1 0x20 DUP2 KECCAK256 PUSH1 0x1F NOT DUP6 AND SWAP2 JUMPDEST DUP3 DUP2 LT ISZERO PUSH2 0x2F8 JUMPI DUP8 DUP6 ADD MLOAD DUP3 SSTORE PUSH1 0x20 SWAP5 DUP6 ADD SWAP5 PUSH1 0x1 SWAP1 SWAP3 ADD SWAP2 ADD PUSH2 0x2D8 JUMP JUMPDEST POP DUP5 DUP3 LT ISZERO PUSH2 0x315 JUMPI DUP7 DUP5 ADD MLOAD PUSH0 NOT PUSH1 0x3 DUP8 SWAP1 SHL PUSH1 0xF8 AND SHR NOT AND DUP2 SSTORE JUMPDEST POP POP POP POP PUSH1 0x1 SWAP1 DUP2 SHL ADD SWAP1 SSTORE POP JUMP JUMPDEST PUSH1 0x80 MLOAD PUSH2 0x454F PUSH2 0x343 PUSH0 CODECOPY PUSH0 DUP2 DUP2 PUSH2 0x541 ADD MSTORE PUSH2 0x1B7D ADD MSTORE PUSH2 0x454F PUSH0 RETURN INVALID PUSH1 0x80 PUSH1 0x40 MSTORE CALLVALUE DUP1 ISZERO PUSH2 0xF JUMPI PUSH0 PUSH0 REVERT JUMPDEST POP PUSH1 0x4 CALLDATASIZE LT PUSH2 0x1C5 JUMPI PUSH0 CALLDATALOAD PUSH1 0xE0 SHR DUP1 PUSH4 0x6352211E GT PUSH2 0xFE JUMPI DUP1 PUSH4 0x95D89B41 GT PUSH2 0x9E JUMPI DUP1 PUSH4 0xC87B56DD GT PUSH2 0x6E JUMPI DUP1 PUSH4 0xC87B56DD EQ PUSH2 0x3E7 JUMPI DUP1 PUSH4 0xE985E9C5 EQ PUSH2 0x3FA JUMPI DUP1 PUSH4 0xECA81D42 EQ PUSH2 0x40D JUMPI DUP1 PUSH4 0xF2FDE38B EQ PUSH2 0x420 JUMPI PUSH0 PUSH0 REVERT JUMPDEST DUP1 PUSH4 0x95D89B41 EQ PUSH2 0x394 JUMPI DUP1 PUSH4 0xA22CB465 EQ PUSH2 0x39C JUMPI DUP1 PUSH4 0xB4CFAE44 EQ PUSH2 0x3AF JUMPI DUP1 PUSH4 0xB88D4FDE EQ PUSH2 0x3D4 JUMPI PUSH0 PUSH0 REVERT JUMPDEST DUP1 PUSH4 0x715018A6 GT PUSH2 0xD9 JUMPI DUP1 PUSH4 0x715018A6 EQ PUSH2 0x369 JUMPI DUP1 PUSH4 0x8DA5CB5B EQ PUSH2 0x371 JUMPI DUP1 PUSH4 0x947A36FB EQ PUSH2 0x382 JUMPI DUP1 PUSH4 0x94881476 EQ PUSH2 0x38B JUMPI PUSH0 PUSH0 REVERT JUMPDEST DUP1 PUSH4 0x6352211E EQ PUSH2 0x324 JUMPI DUP1 PUSH4 0x68015A4B EQ PUSH2 0x337 JUMPI DUP1 PUSH4 0x70A08231 EQ PUSH2 0x356 JUMPI PUSH0 PUSH0 REVERT JUMPDEST DUP1 PUSH4 0x13C60177 GT PUSH2 0x169 JUMPI DUP1 PUSH4 0x2839B78F GT PUSH2 0x144 JUMPI DUP1 PUSH4 0x2839B78F EQ PUSH2 0x2D4 JUMPI DUP1 PUSH4 0x3F3B3B27 EQ PUSH2 0x2E7 JUMPI DUP1 PUSH4 0x42842E0E EQ PUSH2 0x2FE JUMPI DUP1 PUSH4 0x4585E33B EQ PUSH2 0x311 JUMPI PUSH0 PUSH0 REVERT JUMPDEST DUP1 PUSH4 0x13C60177 EQ PUSH2 0x297 JUMPI DUP1 PUSH4 0x20457FB6 EQ PUSH2 0x29F JUMPI DUP1 PUSH4 0x23B872DD EQ PUSH2 0x2C1 JUMPI PUSH0 PUSH0 REVERT JUMPDEST DUP1 PUSH4 0x81812FC GT PUSH2 0x1A4 JUMPI DUP1 PUSH4 0x81812FC EQ PUSH2 0x21B JUMPI DUP1 PUSH4 0x95EA7B3 EQ PUSH2 0x246 JUMPI DUP1 PUSH4 0x9C1BA2E EQ PUSH2 0x259 JUMPI DUP1 PUSH4 0xCA76175 EQ PUSH2 0x284 JUMPI PUSH0 PUSH0 REVERT JUMPDEST DUP1 PUSH3 0xB46767 EQ PUSH2 0x1C9 JUMPI DUP1 PUSH4 0x1FFC9A7 EQ PUSH2 0x1DE JUMPI DUP1 PUSH4 0x6FDDE03 EQ PUSH2 0x206 JUMPI JUMPDEST PUSH0 PUSH0 REVERT JUMPDEST PUSH2 0x1DC PUSH2 0x1D7 CALLDATASIZE PUSH1 0x4 PUSH2 0x2799 JUMP JUMPDEST PUSH2 0x433 JUMP JUMPDEST STOP JUMPDEST PUSH2 0x1F1 PUSH2 0x1EC CALLDATASIZE PUSH1 0x4 PUSH2 0x27DF JUMP JUMPDEST PUSH2 0x44B JUMP JUMPDEST PUSH1 0x40 MLOAD SWAP1 ISZERO ISZERO DUP2 MSTORE PUSH1 0x20 ADD JUMPDEST PUSH1 0x40 MLOAD DUP1 SWAP2 SUB SWAP1 RETURN JUMPDEST PUSH2 0x20E PUSH2 0x475 JUMP JUMPDEST PUSH1 0x40 MLOAD PUSH2 0x1FD SWAP2 SWAP1 PUSH2 0x2828 JUMP JUMPDEST PUSH2 0x22E PUSH2 0x229 CALLDATASIZE PUSH1 0x4 PUSH2 0x283A JUMP JUMPDEST PUSH2 0x504 JUMP JUMPDEST PUSH1 0x40 MLOAD PUSH1 0x1 PUSH1 0x1 PUSH1 0xA0 SHL SUB SWAP1 SWAP2 AND DUP2 MSTORE PUSH1 0x20 ADD PUSH2 0x1FD JUMP JUMPDEST PUSH2 0x1DC PUSH2 0x254 CALLDATASIZE PUSH1 0x4 PUSH2 0x286C JUMP JUMPDEST PUSH2 0x52B JUMP JUMPDEST PUSH1 0xB SLOAD PUSH2 0x26C SWAP1 PUSH1 0x1 PUSH1 0x1 PUSH1 0x40 SHL SUB AND DUP2 JUMP JUMPDEST PUSH1 0x40 MLOAD PUSH1 0x1 PUSH1 0x1 PUSH1 0x40 SHL SUB SWAP1 SWAP2 AND DUP2 MSTORE PUSH1 0x20 ADD PUSH2 0x1FD JUMP JUMPDEST PUSH2 0x1DC PUSH2 0x292 CALLDATASIZE PUSH1 0x4 PUSH2 0x2894 JUMP JUMPDEST PUSH2 0x536 JUMP JUMPDEST PUSH2 0x20E PUSH2 0x5B9 JUMP JUMPDEST PUSH2 0x1F1 PUSH2 0x2AD CALLDATASIZE PUSH1 0x4 PUSH2 0x283A JUMP JUMPDEST PUSH1 0x12 PUSH1 0x20 MSTORE PUSH0 SWAP1 DUP2 MSTORE PUSH1 0x40 SWAP1 KECCAK256 SLOAD PUSH1 0xFF AND DUP2 JUMP JUMPDEST PUSH2 0x1DC PUSH2 0x2CF CALLDATASIZE PUSH1 0x4 PUSH2 0x28FF JUMP JUMPDEST PUSH2 0x645 JUMP JUMPDEST PUSH2 0x1DC PUSH2 0x2E2 CALLDATASIZE PUSH1 0x4 PUSH2 0x283A JUMP JUMPDEST PUSH2 0x6D3 JUMP JUMPDEST PUSH2 0x2F0 PUSH1 0xD SLOAD DUP2 JUMP JUMPDEST PUSH1 0x40 MLOAD SWAP1 DUP2 MSTORE PUSH1 0x20 ADD PUSH2 0x1FD JUMP JUMPDEST PUSH2 0x1DC PUSH2 0x30C CALLDATASIZE PUSH1 0x4 PUSH2 0x28FF JUMP JUMPDEST PUSH2 0x77A JUMP JUMPDEST PUSH2 0x1DC PUSH2 0x31F CALLDATASIZE PUSH1 0x4 PUSH2 0x2939 JUMP JUMPDEST PUSH2 0x799 JUMP JUMPDEST PUSH2 0x22E PUSH2 0x332 CALLDATASIZE PUSH1 0x4 PUSH2 0x283A JUMP JUMPDEST PUSH2 0x7D4 JUMP JUMPDEST PUSH2 0x2F0 PUSH2 0x345 CALLDATASIZE PUSH1 0x4 PUSH2 0x283A JUMP JUMPDEST PUSH1 0x11 PUSH1 0x20 MSTORE PUSH0 SWAP1 DUP2 MSTORE PUSH1 0x40 SWAP1 KECCAK256 SLOAD DUP2 JUMP JUMPDEST PUSH2 0x2F0 PUSH2 0x364 CALLDATASIZE PUSH1 0x4 PUSH2 0x29A5 JUMP JUMPDEST PUSH2 0x7DE JUMP JUMPDEST PUSH2 0x1DC PUSH2 0x823 JUMP JUMPDEST PUSH1 0x7 SLOAD PUSH1 0x1 PUSH1 0x1 PUSH1 0xA0 SHL SUB AND PUSH2 0x22E JUMP JUMPDEST PUSH2 0x2F0 PUSH1 0xE SLOAD DUP2 JUMP JUMPDEST PUSH2 0x2F0 PUSH1 0xF SLOAD DUP2 JUMP JUMPDEST PUSH2 0x20E PUSH2 0x836 JUMP JUMPDEST PUSH2 0x1DC PUSH2 0x3AA CALLDATASIZE PUSH1 0x4 PUSH2 0x29BE JUMP JUMPDEST PUSH2 0x845 JUMP JUMPDEST PUSH2 0x3C2 PUSH2 0x3BD CALLDATASIZE PUSH1 0x4 PUSH2 0x283A JUMP JUMPDEST PUSH2 0x850 JUMP JUMPDEST PUSH1 0x40 MLOAD PUSH2 0x1FD SWAP7 SWAP6 SWAP5 SWAP4 SWAP3 SWAP2 SWAP1 PUSH2 0x29F7 JUMP JUMPDEST PUSH2 0x1DC PUSH2 0x3E2 CALLDATASIZE PUSH1 0x4 PUSH2 0x2A4F JUMP JUMPDEST PUSH2 0x9A5 JUMP JUMPDEST PUSH2 0x20E PUSH2 0x3F5 CALLDATASIZE PUSH1 0x4 PUSH2 0x283A JUMP JUMPDEST PUSH2 0x9BD JUMP JUMPDEST PUSH2 0x1F1 PUSH2 0x408 CALLDATASIZE PUSH1 0x4 PUSH2 0x2AB2 JUMP JUMPDEST PUSH2 0xA3E JUMP JUMPDEST PUSH2 0x1DC PUSH2 0x41B CALLDATASIZE PUSH1 0x4 PUSH2 0x2AE3 JUMP JUMPDEST PUSH2 0xA6B JUMP JUMPDEST PUSH2 0x1DC PUSH2 0x42E CALLDATASIZE PUSH1 0x4 PUSH2 0x29A5 JUMP JUMPDEST PUSH2 0xB77 JUMP JUMPDEST PUSH2 0x43B PUSH2 0xBB4 JUMP JUMPDEST PUSH1 0xC PUSH2 0x447 DUP3 DUP3 PUSH2 0x2B94 JUMP JUMPDEST POP POP JUMP JUMPDEST PUSH0 PUSH1 0x1 PUSH1 0x1 PUSH1 0xE0 SHL SUB NOT DUP3 AND PUSH4 0x24832483 PUSH1 0xE1 SHL EQ DUP1 PUSH2 0x46F JUMPI POP PUSH2 0x46F DUP3 PUSH2 0xBE1 JUMP JUMPDEST SWAP3 SWAP2 POP POP JUMP JUMPDEST PUSH1 0x60 PUSH0 DUP1 SLOAD PUSH2 0x483 SWAP1 PUSH2 0x2B18 JUMP JUMPDEST DUP1 PUSH1 0x1F ADD PUSH1 0x20 DUP1 SWAP2 DIV MUL PUSH1 0x20 ADD PUSH1 0x40 MLOAD SWAP1 DUP2 ADD PUSH1 0x40 MSTORE DUP1 SWAP3 SWAP2 SWAP1 DUP2 DUP2 MSTORE PUSH1 0x20 ADD DUP3 DUP1 SLOAD PUSH2 0x4AF SWAP1 PUSH2 0x2B18 JUMP JUMPDEST DUP1 ISZERO PUSH2 0x4FA JUMPI DUP1 PUSH1 0x1F LT PUSH2 0x4D1 JUMPI PUSH2 0x100 DUP1 DUP4 SLOAD DIV MUL DUP4 MSTORE SWAP2 PUSH1 0x20 ADD SWAP2 PUSH2 0x4FA JUMP JUMPDEST DUP3 ADD SWAP2 SWAP1 PUSH0 MSTORE PUSH1 0x20 PUSH0 KECCAK256 SWAP1 JUMPDEST DUP2 SLOAD DUP2 MSTORE SWAP1 PUSH1 0x1 ADD SWAP1 PUSH1 0x20 ADD DUP1 DUP4 GT PUSH2 0x4DD JUMPI DUP3 SWAP1 SUB PUSH1 0x1F AND DUP3 ADD SWAP2 JUMPDEST POP POP POP POP POP SWAP1 POP SWAP1 JUMP JUMPDEST PUSH0 PUSH2 0x50E DUP3 PUSH2 0xC30 JUMP JUMPDEST POP PUSH0 DUP3 DUP2 MSTORE PUSH1 0x4 PUSH1 0x20 MSTORE PUSH1 0x40 SWAP1 KECCAK256 SLOAD PUSH1 0x1 PUSH1 0x1 PUSH1 0xA0 SHL SUB AND PUSH2 0x46F JUMP JUMPDEST PUSH2 0x447 DUP3 DUP3 CALLER PUSH2 0xC68 JUMP JUMPDEST CALLER PUSH1 0x1 PUSH1 0x1 PUSH1 0xA0 SHL SUB PUSH32 0x0 AND EQ PUSH2 0x57F JUMPI PUSH1 0x40 MLOAD PUSH4 0xC6829F83 PUSH1 0xE0 SHL DUP2 MSTORE PUSH1 0x4 ADD PUSH1 0x40 MLOAD DUP1 SWAP2 SUB SWAP1 REVERT JUMPDEST PUSH2 0x58A DUP4 DUP4 DUP4 PUSH2 0xC75 JUMP JUMPDEST PUSH1 0x40 MLOAD DUP4 SWAP1 PUSH32 0x85E1543BF2F84FE80C6BADBCE3648C8539AD1DF4D2B3D822938CA0538BE727E6 SWAP1 PUSH0 SWAP1 LOG2 POP POP POP JUMP JUMPDEST PUSH1 0xC DUP1 SLOAD PUSH2 0x5C6 SWAP1 PUSH2 0x2B18 JUMP JUMPDEST DUP1 PUSH1 0x1F ADD PUSH1 0x20 DUP1 SWAP2 DIV MUL PUSH1 0x20 ADD PUSH1 0x40 MLOAD SWAP1 DUP2 ADD PUSH1 0x40 MSTORE DUP1 SWAP3 SWAP2 SWAP1 DUP2 DUP2 MSTORE PUSH1 0x20 ADD DUP3 DUP1 SLOAD PUSH2 0x5F2 SWAP1 PUSH2 0x2B18 JUMP JUMPDEST DUP1 ISZERO PUSH2 0x63D JUMPI DUP1 PUSH1 0x1F LT PUSH2 0x614 JUMPI PUSH2 0x100 DUP1 DUP4 SLOAD DIV MUL DUP4 MSTORE SWAP2 PUSH1 0x20 ADD SWAP2 PUSH2 0x63D JUMP JUMPDEST DUP3 ADD SWAP2 SWAP1 PUSH0 MSTORE PUSH1 0x20 PUSH0 KECCAK256 SWAP1 JUMPDEST DUP2 SLOAD DUP2 MSTORE SWAP1 PUSH1 0x1 ADD SWAP1 PUSH1 0x20 ADD DUP1 DUP4 GT PUSH2 0x620 JUMPI DUP3 SWAP1 SUB PUSH1 0x1F AND DUP3 ADD SWAP2 JUMPDEST POP POP POP POP POP DUP2 JUMP JUMPDEST PUSH1 0x1 PUSH1 0x1 PUSH1 0xA0 SHL SUB DUP3 AND PUSH2 0x673 JUMPI PUSH1 0x40 MLOAD PUSH4 0x32505749 PUSH1 0xE1 SHL DUP2 MSTORE PUSH0 PUSH1 0x4 DUP3 ADD MSTORE PUSH1 0x24 ADD JUMPDEST PUSH1 0x40 MLOAD DUP1 SWAP2 SUB SWAP1 REVERT JUMPDEST PUSH0 PUSH2 0x67F DUP4 DUP4 CALLER PUSH2 0xDD8 JUMP JUMPDEST SWAP1 POP DUP4 PUSH1 0x1 PUSH1 0x1 PUSH1 0xA0 SHL SUB AND DUP2 PUSH1 0x1 PUSH1 0x1 PUSH1 0xA0 SHL SUB AND EQ PUSH2 0x6CD JUMPI PUSH1 0x40 MLOAD PUSH4 0x64283D7B PUSH1 0xE0 SHL DUP2 MSTORE PUSH1 0x1 PUSH1 0x1 PUSH1 0xA0 SHL SUB DUP1 DUP7 AND PUSH1 0x4 DUP4 ADD MSTORE PUSH1 0x24 DUP3 ADD DUP5 SWAP1 MSTORE DUP3 AND PUSH1 0x44 DUP3 ADD MSTORE PUSH1 0x64 ADD PUSH2 0x66A JUMP JUMPDEST POP POP POP POP JUMP JUMPDEST PUSH2 0x6DB PUSH2 0xBB4 JUMP JUMPDEST PUSH0 DUP2 DUP2 MSTORE PUSH1 0x10 PUSH1 0x20 MSTORE PUSH1 0x40 SWAP1 KECCAK256 DUP1 SLOAD PUSH2 0x447 SWAP2 DUP4 SWAP2 PUSH2 0x6F9 SWAP1 PUSH2 0x2B18 JUMP JUMPDEST DUP1 PUSH1 0x1F ADD PUSH1 0x20 DUP1 SWAP2 DIV MUL PUSH1 0x20 ADD PUSH1 0x40 MLOAD SWAP1 DUP2 ADD PUSH1 0x40 MSTORE DUP1 SWAP3 SWAP2 SWAP1 DUP2 DUP2 MSTORE PUSH1 0x20 ADD DUP3 DUP1 SLOAD PUSH2 0x725 SWAP1 PUSH2 0x2B18 JUMP JUMPDEST DUP1 ISZERO PUSH2 0x770 JUMPI DUP1 PUSH1 0x1F LT PUSH2 0x747 JUMPI PUSH2 0x100 DUP1 DUP4 SLOAD DIV MUL DUP4 MSTORE SWAP2 PUSH1 0x20 ADD SWAP2 PUSH2 0x770 JUMP JUMPDEST DUP3 ADD SWAP2 SWAP1 PUSH0 MSTORE PUSH1 0x20 PUSH0 KECCAK256 SWAP1 JUMPDEST DUP2 SLOAD DUP2 MSTORE SWAP1 PUSH1 0x1 ADD SWAP1 PUSH1 0x20 ADD DUP1 DUP4 GT PUSH2 0x753 JUMPI DUP3 SWAP1 SUB PUSH1 0x1F AND DUP3 ADD SWAP2 JUMPDEST POP POP POP POP POP PUSH2 0xECA JUMP JUMPDEST PUSH2 0x794 DUP4 DUP4 DUP4 PUSH1 0x40 MLOAD DUP1 PUSH1 0x20 ADD PUSH1 0x40 MSTORE DUP1 PUSH0 DUP2 MSTORE POP PUSH2 0x9A5 JUMP JUMPDEST POP POP POP JUMP JUMPDEST PUSH1 0xE SLOAD PUSH1 0xD SLOAD PUSH2 0x7A9 SWAP1 TIMESTAMP PUSH2 0x2C62 JUMP JUMPDEST GT ISZERO PUSH2 0x447 JUMPI TIMESTAMP PUSH1 0xD SSTORE PUSH1 0xF SLOAD PUSH0 DUP2 DUP2 MSTORE PUSH1 0x10 PUSH1 0x20 MSTORE PUSH1 0x40 SWAP1 KECCAK256 DUP1 SLOAD PUSH2 0x794 SWAP3 SWAP2 SWAP1 PUSH2 0x6F9 SWAP1 PUSH2 0x2B18 JUMP JUMPDEST PUSH0 PUSH2 0x46F DUP3 PUSH2 0xC30 JUMP JUMPDEST PUSH0 PUSH1 0x1 PUSH1 0x1 PUSH1 0xA0 SHL SUB DUP3 AND PUSH2 0x808 JUMPI PUSH1 0x40 MLOAD PUSH4 0x22718AD9 PUSH1 0xE2 SHL DUP2 MSTORE PUSH0 PUSH1 0x4 DUP3 ADD MSTORE PUSH1 0x24 ADD PUSH2 0x66A JUMP JUMPDEST POP PUSH1 0x1 PUSH1 0x1 PUSH1 0xA0 SHL SUB AND PUSH0 SWAP1 DUP2 MSTORE PUSH1 0x3 PUSH1 0x20 MSTORE PUSH1 0x40 SWAP1 KECCAK256 SLOAD SWAP1 JUMP JUMPDEST PUSH2 0x82B PUSH2 0xBB4 JUMP JUMPDEST PUSH2 0x834 PUSH0 PUSH2 0x1051 JUMP JUMPDEST JUMP JUMPDEST PUSH1 0x60 PUSH1 0x1 DUP1 SLOAD PUSH2 0x483 SWAP1 PUSH2 0x2B18 JUMP JUMPDEST PUSH2 0x447 CALLER DUP4 DUP4 PUSH2 0x10A2 JUMP JUMPDEST PUSH1 0x10 PUSH1 0x20 MSTORE PUSH0 SWAP1 DUP2 MSTORE PUSH1 0x40 SWAP1 KECCAK256 DUP1 SLOAD DUP2 SWAP1 PUSH2 0x86A SWAP1 PUSH2 0x2B18 JUMP JUMPDEST DUP1 PUSH1 0x1F ADD PUSH1 0x20 DUP1 SWAP2 DIV MUL PUSH1 0x20 ADD PUSH1 0x40 MLOAD SWAP1 DUP2 ADD PUSH1 0x40 MSTORE DUP1 SWAP3 SWAP2 SWAP1 DUP2 DUP2 MSTORE PUSH1 0x20 ADD DUP3 DUP1 SLOAD PUSH2 0x896 SWAP1 PUSH2 0x2B18 JUMP JUMPDEST DUP1 ISZERO PUSH2 0x8E1 JUMPI DUP1 PUSH1 0x1F LT PUSH2 0x8B8 JUMPI PUSH2 0x100 DUP1 DUP4 SLOAD DIV MUL DUP4 MSTORE SWAP2 PUSH1 0x20 ADD SWAP2 PUSH2 0x8E1 JUMP JUMPDEST DUP3 ADD SWAP2 SWAP1 PUSH0 MSTORE PUSH1 0x20 PUSH0 KECCAK256 SWAP1 JUMPDEST DUP2 SLOAD DUP2 MSTORE SWAP1 PUSH1 0x1 ADD SWAP1 PUSH1 0x20 ADD DUP1 DUP4 GT PUSH2 0x8C4 JUMPI DUP3 SWAP1 SUB PUSH1 0x1F AND DUP3 ADD SWAP2 JUMPDEST POP POP POP POP POP SWAP1 DUP1 PUSH1 0x1 ADD DUP1 SLOAD PUSH2 0x8F6 SWAP1 PUSH2 0x2B18 JUMP JUMPDEST DUP1 PUSH1 0x1F ADD PUSH1 0x20 DUP1 SWAP2 DIV MUL PUSH1 0x20 ADD PUSH1 0x40 MLOAD SWAP1 DUP2 ADD PUSH1 0x40 MSTORE DUP1 SWAP3 SWAP2 SWAP1 DUP2 DUP2 MSTORE PUSH1 0x20 ADD DUP3 DUP1 SLOAD PUSH2 0x922 SWAP1 PUSH2 0x2B18 JUMP JUMPDEST DUP1 ISZERO PUSH2 0x96D JUMPI DUP1 PUSH1 0x1F LT PUSH2 0x944 JUMPI PUSH2 0x100 DUP1 DUP4 SLOAD DIV MUL DUP4 MSTORE SWAP2 PUSH1 0x20 ADD SWAP2 PUSH2 0x96D JUMP JUMPDEST DUP3 ADD SWAP2 SWAP1 PUSH0 MSTORE PUSH1 0x20 PUSH0 KECCAK256 SWAP1 JUMPDEST DUP2 SLOAD DUP2 MSTORE SWAP1 PUSH1 0x1 ADD SWAP1 PUSH1 0x20 ADD DUP1 DUP4 GT PUSH2 0x950 JUMPI DUP3 SWAP1 SUB PUSH1 0x1F AND DUP3 ADD SWAP2 JUMPDEST POP POP POP PUSH1 0x2 SWAP1 SWAP4 ADD SLOAD SWAP2 SWAP3 POP POP PUSH1 0x1 PUSH1 0x1 PUSH1 0x40 SHL SUB DUP1 DUP3 AND SWAP2 PUSH1 0x1 PUSH1 0x40 SHL DUP2 DIV DUP3 AND SWAP2 PUSH1 0x1 PUSH1 0x80 SHL DUP3 DIV DUP2 AND SWAP2 PUSH1 0x1 PUSH1 0xC0 SHL SWAP1 DIV AND DUP7 JUMP JUMPDEST PUSH2 0x9B0 DUP5 DUP5 DUP5 PUSH2 0x645 JUMP JUMPDEST PUSH2 0x6CD CALLER DUP6 DUP6 DUP6 DUP6 PUSH2 0x1169 JUMP JUMPDEST PUSH1 0x60 PUSH2 0x9C8 DUP3 PUSH2 0xC30 JUMP JUMPDEST POP PUSH0 PUSH2 0x9DE PUSH1 0x40 DUP1 MLOAD PUSH1 0x20 DUP2 ADD SWAP1 SWAP2 MSTORE PUSH0 DUP2 MSTORE SWAP1 JUMP JUMPDEST SWAP1 POP PUSH0 PUSH2 0x9EA DUP5 PUSH2 0x1290 JUMP JUMPDEST SWAP1 POP DUP2 MLOAD PUSH0 SUB PUSH2 0x9FB JUMPI SWAP4 SWAP3 POP POP POP JUMP JUMPDEST DUP1 MLOAD ISZERO PUSH2 0xA2D JUMPI DUP2 DUP2 PUSH1 0x40 MLOAD PUSH1 0x20 ADD PUSH2 0xA15 SWAP3 SWAP2 SWAP1 PUSH2 0x2C8C JUMP JUMPDEST PUSH1 0x40 MLOAD PUSH1 0x20 DUP2 DUP4 SUB SUB DUP2 MSTORE SWAP1 PUSH1 0x40 MSTORE SWAP3 POP POP POP SWAP2 SWAP1 POP JUMP JUMPDEST PUSH2 0xA36 DUP5 PUSH2 0x132F JUMP JUMPDEST SWAP5 SWAP4 POP POP POP POP JUMP JUMPDEST PUSH1 0x1 PUSH1 0x1 PUSH1 0xA0 SHL SUB SWAP2 DUP3 AND PUSH0 SWAP1 DUP2 MSTORE PUSH1 0x5 PUSH1 0x20 SWAP1 DUP2 MSTORE PUSH1 0x40 DUP1 DUP4 KECCAK256 SWAP4 SWAP1 SWAP5 AND DUP3 MSTORE SWAP2 SWAP1 SWAP2 MSTORE KECCAK256 SLOAD PUSH1 0xFF AND SWAP1 JUMP JUMPDEST PUSH2 0xA73 PUSH2 0xBB4 JUMP JUMPDEST PUSH1 0x8 SLOAD PUSH1 0x40 DUP1 MLOAD PUSH1 0xC0 DUP2 ADD DUP3 MSTORE DUP5 DUP2 MSTORE PUSH1 0x20 DUP1 DUP3 ADD DUP6 SWAP1 MSTORE PUSH0 DUP3 DUP5 ADD DUP2 SWAP1 MSTORE PUSH1 0x60 DUP4 ADD DUP2 SWAP1 MSTORE PUSH1 0x80 DUP4 ADD DUP2 SWAP1 MSTORE PUSH1 0xA0 DUP4 ADD DUP2 SWAP1 MSTORE DUP5 DUP2 MSTORE PUSH1 0x10 SWAP1 SWAP2 MSTORE SWAP2 SWAP1 SWAP2 KECCAK256 DUP2 MLOAD DUP2 SWAP1 PUSH2 0xAC1 SWAP1 DUP3 PUSH2 0x2B94 JUMP JUMPDEST POP PUSH1 0x20 DUP3 ADD MLOAD PUSH1 0x1 DUP3 ADD SWAP1 PUSH2 0xAD6 SWAP1 DUP3 PUSH2 0x2B94 JUMP JUMPDEST POP PUSH1 0x40 DUP3 ADD MLOAD PUSH1 0x2 SWAP1 SWAP2 ADD DUP1 SLOAD PUSH1 0x60 DUP5 ADD MLOAD PUSH1 0x80 DUP6 ADD MLOAD PUSH1 0xA0 SWAP1 SWAP6 ADD MLOAD PUSH1 0x1 PUSH1 0x1 PUSH1 0x40 SHL SUB SWAP1 DUP2 AND PUSH1 0x1 PUSH1 0xC0 SHL MUL PUSH1 0x1 PUSH1 0x1 PUSH1 0xC0 SHL SUB SWAP7 DUP3 AND PUSH1 0x1 PUSH1 0x80 SHL MUL SWAP7 SWAP1 SWAP7 AND PUSH1 0x1 PUSH1 0x1 PUSH1 0x80 SHL SUB SWAP3 DUP3 AND PUSH1 0x1 PUSH1 0x40 SHL MUL PUSH1 0x1 PUSH1 0x1 PUSH1 0x80 SHL SUB NOT SWAP1 SWAP5 AND SWAP2 SWAP1 SWAP6 AND OR SWAP2 SWAP1 SWAP2 OR AND SWAP2 SWAP1 SWAP2 OR SWAP2 SWAP1 SWAP2 OR SWAP1 SSTORE PUSH2 0xB54 DUP5 DUP3 PUSH2 0x13A0 JUMP JUMPDEST PUSH2 0xB5D DUP2 PUSH2 0x13B9 JUMP JUMPDEST PUSH1 0x8 DUP1 SLOAD SWAP1 PUSH0 PUSH2 0xB6C DUP4 PUSH2 0x2CA0 JUMP JUMPDEST SWAP2 SWAP1 POP SSTORE POP POP POP POP POP JUMP JUMPDEST PUSH2 0xB7F PUSH2 0xBB4 JUMP JUMPDEST PUSH1 0x1 PUSH1 0x1 PUSH1 0xA0 SHL SUB DUP2 AND PUSH2 0xBA8 JUMPI PUSH1 0x40 MLOAD PUSH4 0x1E4FBDF7 PUSH1 0xE0 SHL DUP2 MSTORE PUSH0 PUSH1 0x4 DUP3 ADD MSTORE PUSH1 0x24 ADD PUSH2 0x66A JUMP JUMPDEST PUSH2 0xBB1 DUP2 PUSH2 0x1051 JUMP JUMPDEST POP JUMP JUMPDEST PUSH1 0x7 SLOAD PUSH1 0x1 PUSH1 0x1 PUSH1 0xA0 SHL SUB AND CALLER EQ PUSH2 0x834 JUMPI PUSH1 0x40 MLOAD PUSH4 0x118CDAA7 PUSH1 0xE0 SHL DUP2 MSTORE CALLER PUSH1 0x4 DUP3 ADD MSTORE PUSH1 0x24 ADD PUSH2 0x66A JUMP JUMPDEST PUSH0 PUSH1 0x1 PUSH1 0x1 PUSH1 0xE0 SHL SUB NOT DUP3 AND PUSH4 0x80AC58CD PUSH1 0xE0 SHL EQ DUP1 PUSH2 0xC11 JUMPI POP PUSH1 0x1 PUSH1 0x1 PUSH1 0xE0 SHL SUB NOT DUP3 AND PUSH4 0x5B5E139F PUSH1 0xE0 SHL EQ JUMPDEST DUP1 PUSH2 0x46F JUMPI POP PUSH4 0x1FFC9A7 PUSH1 0xE0 SHL PUSH1 0x1 PUSH1 0x1 PUSH1 0xE0 SHL SUB NOT DUP4 AND EQ PUSH2 0x46F JUMP JUMPDEST PUSH0 DUP2 DUP2 MSTORE PUSH1 0x2 PUSH1 0x20 MSTORE PUSH1 0x40 DUP2 KECCAK256 SLOAD PUSH1 0x1 PUSH1 0x1 PUSH1 0xA0 SHL SUB AND DUP1 PUSH2 0x46F JUMPI PUSH1 0x40 MLOAD PUSH4 0x7E273289 PUSH1 0xE0 SHL DUP2 MSTORE PUSH1 0x4 DUP2 ADD DUP5 SWAP1 MSTORE PUSH1 0x24 ADD PUSH2 0x66A JUMP JUMPDEST PUSH2 0x794 DUP4 DUP4 DUP4 PUSH1 0x1 PUSH2 0x1718 JUMP JUMPDEST PUSH0 DUP4 DUP2 MSTORE PUSH1 0x12 PUSH1 0x20 MSTORE PUSH1 0x40 SWAP1 KECCAK256 SLOAD PUSH1 0xFF AND PUSH2 0xCC7 JUMPI PUSH1 0x40 MLOAD PUSH3 0x461BCD PUSH1 0xE5 SHL DUP2 MSTORE PUSH1 0x20 PUSH1 0x4 DUP3 ADD MSTORE PUSH1 0x12 PUSH1 0x24 DUP3 ADD MSTORE PUSH18 0x125B9D985B1A590814995C5D595CDD081251 PUSH1 0x72 SHL PUSH1 0x44 DUP3 ADD MSTORE PUSH1 0x64 ADD PUSH2 0x66A JUMP JUMPDEST DUP1 MLOAD ISZERO PUSH2 0xD05 JUMPI PUSH1 0x40 MLOAD PUSH3 0x461BCD PUSH1 0xE5 SHL DUP2 MSTORE PUSH1 0x20 PUSH1 0x4 DUP3 ADD MSTORE PUSH1 0xC PUSH1 0x24 DUP3 ADD MSTORE PUSH12 0x27B930B1B6329022B93937B9 PUSH1 0xA1 SHL PUSH1 0x44 DUP3 ADD MSTORE PUSH1 0x64 ADD PUSH2 0x66A JUMP JUMPDEST PUSH0 DUP4 DUP2 MSTORE PUSH1 0x11 PUSH1 0x20 SWAP1 DUP2 MSTORE PUSH1 0x40 DUP3 KECCAK256 SLOAD DUP5 MLOAD SWAP1 SWAP3 SWAP2 PUSH2 0xD2A SWAP2 DUP7 ADD DUP2 ADD SWAP1 DUP7 ADD PUSH2 0x2CB8 JUMP JUMPDEST PUSH0 DUP4 DUP2 MSTORE PUSH1 0x10 PUSH1 0x20 SWAP1 DUP2 MSTORE PUSH1 0x40 DUP1 DUP4 KECCAK256 PUSH1 0x2 ADD DUP1 SLOAD PUSH1 0xC0 DUP7 SWAP1 SHR PUSH1 0x1 PUSH1 0x1 PUSH1 0x80 SHL SUB SWAP1 SWAP2 AND PUSH1 0x1 PUSH1 0xC0 SHL PUSH1 0x1 PUSH1 0x1 PUSH1 0x40 SHL SUB DUP1 DUP10 AND SWAP2 SWAP1 SWAP2 MUL PUSH8 0xFFFFFFFFFFFFFFFF PUSH1 0x80 SHL NOT AND SWAP2 SWAP1 SWAP2 OR PUSH1 0x1 PUSH1 0x80 SHL DUP9 DUP7 SHR DUP4 AND MUL OR PUSH1 0x1 PUSH1 0x1 PUSH1 0x80 SHL SUB NOT AND PUSH1 0x1 PUSH1 0x40 SHL PUSH1 0x80 DUP10 SWAP1 SHR SWAP3 SWAP1 SWAP3 AND SWAP2 SWAP1 SWAP2 MUL PUSH8 0xFFFFFFFFFFFFFFFF NOT AND OR OR SWAP1 SSTORE DUP9 DUP4 MSTORE PUSH1 0x12 DUP3 MSTORE DUP1 DUP4 KECCAK256 DUP1 SLOAD PUSH1 0xFF NOT AND SWAP1 SSTORE PUSH1 0x11 SWAP1 SWAP2 MSTORE DUP2 KECCAK256 SSTORE SWAP1 POP PUSH2 0xDD1 DUP3 PUSH2 0x13B9 JUMP JUMPDEST POP POP POP POP POP JUMP JUMPDEST PUSH0 DUP3 DUP2 MSTORE PUSH1 0x2 PUSH1 0x20 MSTORE PUSH1 0x40 DUP2 KECCAK256 SLOAD PUSH1 0x1 PUSH1 0x1 PUSH1 0xA0 SHL SUB SWAP1 DUP2 AND SWAP1 DUP4 AND ISZERO PUSH2 0xE04 JUMPI PUSH2 0xE04 DUP2 DUP5 DUP7 PUSH2 0x181C JUMP JUMPDEST PUSH1 0x1 PUSH1 0x1 PUSH1 0xA0 SHL SUB DUP2 AND ISZERO PUSH2 0xE3E JUMPI PUSH2 0xE1F PUSH0 DUP6 PUSH0 PUSH0 PUSH2 0x1718 JUMP JUMPDEST PUSH1 0x1 PUSH1 0x1 PUSH1 0xA0 SHL SUB DUP2 AND PUSH0 SWAP1 DUP2 MSTORE PUSH1 0x3 PUSH1 0x20 MSTORE PUSH1 0x40 SWAP1 KECCAK256 DUP1 SLOAD PUSH0 NOT ADD SWAP1 SSTORE JUMPDEST PUSH1 0x1 PUSH1 0x1 PUSH1 0xA0 SHL SUB DUP6 AND ISZERO PUSH2 0xE6C JUMPI PUSH1 0x1 PUSH1 0x1 PUSH1 0xA0 SHL SUB DUP6 AND PUSH0 SWAP1 DUP2 MSTORE PUSH1 0x3 PUSH1 0x20 MSTORE PUSH1 0x40 SWAP1 KECCAK256 DUP1 SLOAD PUSH1 0x1 ADD SWAP1 SSTORE JUMPDEST PUSH0 DUP5 DUP2 MSTORE PUSH1 0x2 PUSH1 0x20 MSTORE PUSH1 0x40 DUP1 DUP3 KECCAK256 DUP1 SLOAD PUSH1 0x1 PUSH1 0x1 PUSH1 0xA0 SHL SUB NOT AND PUSH1 0x1 PUSH1 0x1 PUSH1 0xA0 SHL SUB DUP10 DUP2 AND SWAP2 DUP3 OR SWAP1 SWAP3 SSTORE SWAP2 MLOAD DUP8 SWAP4 SWAP2 DUP6 AND SWAP2 PUSH32 0xDDF252AD1BE2C89B69C2B068FC378DAA952BA7F163C4A11628F55A4DF523B3EF SWAP2 LOG4 SWAP5 SWAP4 POP POP POP POP JUMP JUMPDEST PUSH0 PUSH2 0xF09 PUSH1 0x40 DUP1 MLOAD PUSH1 0xE0 DUP2 ADD SWAP1 SWAP2 MSTORE DUP1 PUSH0 DUP2 MSTORE PUSH1 0x20 ADD PUSH0 DUP2 MSTORE PUSH1 0x20 ADD PUSH0 DUP2 MSTORE PUSH1 0x20 ADD PUSH1 0x60 DUP2 MSTORE PUSH1 0x20 ADD PUSH1 0x60 DUP2 MSTORE PUSH1 0x20 ADD PUSH1 0x60 DUP2 MSTORE PUSH1 0x20 ADD PUSH1 0x60 DUP2 MSTORE POP SWAP1 JUMP JUMPDEST PUSH2 0xFA4 PUSH1 0xC DUP1 SLOAD PUSH2 0xF19 SWAP1 PUSH2 0x2B18 JUMP JUMPDEST DUP1 PUSH1 0x1F ADD PUSH1 0x20 DUP1 SWAP2 DIV MUL PUSH1 0x20 ADD PUSH1 0x40 MLOAD SWAP1 DUP2 ADD PUSH1 0x40 MSTORE DUP1 SWAP3 SWAP2 SWAP1 DUP2 DUP2 MSTORE PUSH1 0x20 ADD DUP3 DUP1 SLOAD PUSH2 0xF45 SWAP1 PUSH2 0x2B18 JUMP JUMPDEST DUP1 ISZERO PUSH2 0xF90 JUMPI DUP1 PUSH1 0x1F LT PUSH2 0xF67 JUMPI PUSH2 0x100 DUP1 DUP4 SLOAD DIV MUL DUP4 MSTORE SWAP2 PUSH1 0x20 ADD SWAP2 PUSH2 0xF90 JUMP JUMPDEST DUP3 ADD SWAP2 SWAP1 PUSH0 MSTORE PUSH1 0x20 PUSH0 KECCAK256 SWAP1 JUMPDEST DUP2 SLOAD DUP2 MSTORE SWAP1 PUSH1 0x1 ADD SWAP1 PUSH1 0x20 ADD DUP1 DUP4 GT PUSH2 0xF73 JUMPI DUP3 SWAP1 SUB PUSH1 0x1F AND DUP3 ADD SWAP2 JUMPDEST POP POP POP POP POP DUP3 PUSH2 0x1880 SWAP1 SWAP2 SWAP1 PUSH4 0xFFFFFFFF AND JUMP JUMPDEST PUSH1 0x40 DUP1 MLOAD PUSH1 0x1 DUP1 DUP3 MSTORE DUP2 DUP4 ADD SWAP1 SWAP3 MSTORE PUSH0 SWAP2 DUP2 PUSH1 0x20 ADD JUMPDEST PUSH1 0x60 DUP2 MSTORE PUSH1 0x20 ADD SWAP1 PUSH1 0x1 SWAP1 SUB SWAP1 DUP2 PUSH2 0xFBA JUMPI SWAP1 POP POP SWAP1 POP DUP4 DUP2 PUSH0 DUP2 MLOAD DUP2 LT PUSH2 0xFE4 JUMPI PUSH2 0xFE4 PUSH2 0x2CCF JUMP JUMPDEST PUSH1 0x20 SWAP1 DUP2 MUL SWAP2 SWAP1 SWAP2 ADD ADD MSTORE PUSH2 0xFF9 DUP3 DUP3 PUSH2 0x188C JUMP JUMPDEST PUSH2 0x1021 PUSH2 0x1005 DUP4 PUSH2 0x18B5 JUMP JUMPDEST PUSH1 0xB SLOAD PUSH1 0xA SLOAD PUSH1 0x1 PUSH1 0x1 PUSH1 0x40 SHL SUB SWAP1 SWAP2 AND SWAP1 PUSH3 0x2625A0 SWAP1 PUSH2 0x1B79 JUMP JUMPDEST PUSH0 DUP2 DUP2 MSTORE PUSH1 0x11 PUSH1 0x20 SWAP1 DUP2 MSTORE PUSH1 0x40 DUP1 DUP4 KECCAK256 SWAP9 SWAP1 SWAP9 SSTORE PUSH1 0x12 SWAP1 MSTORE SWAP6 SWAP1 SWAP6 KECCAK256 DUP1 SLOAD PUSH1 0xFF NOT AND PUSH1 0x1 OR SWAP1 SSTORE POP SWAP3 SWAP4 SWAP3 POP POP POP JUMP JUMPDEST PUSH1 0x7 DUP1 SLOAD PUSH1 0x1 PUSH1 0x1 PUSH1 0xA0 SHL SUB DUP4 DUP2 AND PUSH1 0x1 PUSH1 0x1 PUSH1 0xA0 SHL SUB NOT DUP4 AND DUP2 OR SWAP1 SWAP4 SSTORE PUSH1 0x40 MLOAD SWAP2 AND SWAP2 SWAP1 DUP3 SWAP1 PUSH32 0x8BE0079C531659141344CD1FD0A4F28419497F9722A3DAAFE3B4186F6B6457E0 SWAP1 PUSH0 SWAP1 LOG3 POP POP JUMP JUMPDEST PUSH1 0x1 PUSH1 0x1 PUSH1 0xA0 SHL SUB DUP4 AND PUSH2 0x10CB JUMPI PUSH1 0x40 MLOAD PUSH4 0xA9FBF51F PUSH1 0xE0 SHL DUP2 MSTORE PUSH0 PUSH1 0x4 DUP3 ADD MSTORE PUSH1 0x24 ADD PUSH2 0x66A JUMP JUMPDEST PUSH1 0x1 PUSH1 0x1 PUSH1 0xA0 SHL SUB DUP3 AND PUSH2 0x10FD JUMPI PUSH1 0x40 MLOAD PUSH4 0xB611743 PUSH1 0xE3 SHL DUP2 MSTORE PUSH1 0x1 PUSH1 0x1 PUSH1 0xA0 SHL SUB DUP4 AND PUSH1 0x4 DUP3 ADD MSTORE PUSH1 0x24 ADD PUSH2 0x66A JUMP JUMPDEST PUSH1 0x1 PUSH1 0x1 PUSH1 0xA0 SHL SUB DUP4 DUP2 AND PUSH0 DUP2 DUP2 MSTORE PUSH1 0x5 PUSH1 0x20 SWAP1 DUP2 MSTORE PUSH1 0x40 DUP1 DUP4 KECCAK256 SWAP5 DUP8 AND DUP1 DUP5 MSTORE SWAP5 DUP3 MSTORE SWAP2 DUP3 SWAP1 KECCAK256 DUP1 SLOAD PUSH1 0xFF NOT AND DUP7 ISZERO ISZERO SWAP1 DUP2 OR SWAP1 SWAP2 SSTORE SWAP2 MLOAD SWAP2 DUP3 MSTORE PUSH32 0x17307EAB39AB6107E8899845AD3D59BD9653F200F220920489CA2B5937696C31 SWAP2 ADD PUSH1 0x40 MLOAD DUP1 SWAP2 SUB SWAP1 LOG3 POP POP POP JUMP JUMPDEST PUSH1 0x1 PUSH1 0x1 PUSH1 0xA0 SHL SUB DUP4 AND EXTCODESIZE ISZERO PUSH2 0xDD1 JUMPI PUSH1 0x40 MLOAD PUSH4 0xA85BD01 PUSH1 0xE1 SHL DUP2 MSTORE PUSH1 0x1 PUSH1 0x1 PUSH1 0xA0 SHL SUB DUP5 AND SWAP1 PUSH4 0x150B7A02 SWAP1 PUSH2 0x11AB SWAP1 DUP9 SWAP1 DUP9 SWAP1 DUP8 SWAP1 DUP8 SWAP1 PUSH1 0x4 ADD PUSH2 0x2CE3 JUMP JUMPDEST PUSH1 0x20 PUSH1 0x40 MLOAD DUP1 DUP4 SUB DUP2 PUSH0 DUP8 GAS CALL SWAP3 POP POP POP DUP1 ISZERO PUSH2 0x11E5 JUMPI POP PUSH1 0x40 DUP1 MLOAD PUSH1 0x1F RETURNDATASIZE SWAP1 DUP2 ADD PUSH1 0x1F NOT AND DUP3 ADD SWAP1 SWAP3 MSTORE PUSH2 0x11E2 SWAP2 DUP2 ADD SWAP1 PUSH2 0x2D1F JUMP JUMPDEST PUSH1 0x1 JUMPDEST PUSH2 0x124C JUMPI RETURNDATASIZE DUP1 DUP1 ISZERO PUSH2 0x1212 JUMPI PUSH1 0x40 MLOAD SWAP2 POP PUSH1 0x1F NOT PUSH1 0x3F RETURNDATASIZE ADD AND DUP3 ADD PUSH1 0x40 MSTORE RETURNDATASIZE DUP3 MSTORE RETURNDATASIZE PUSH0 PUSH1 0x20 DUP5 ADD RETURNDATACOPY PUSH2 0x1217 JUMP JUMPDEST PUSH1 0x60 SWAP2 POP JUMPDEST POP DUP1 MLOAD PUSH0 SUB PUSH2 0x1244 JUMPI PUSH1 0x40 MLOAD PUSH4 0x32505749 PUSH1 0xE1 SHL DUP2 MSTORE PUSH1 0x1 PUSH1 0x1 PUSH1 0xA0 SHL SUB DUP6 AND PUSH1 0x4 DUP3 ADD MSTORE PUSH1 0x24 ADD PUSH2 0x66A JUMP JUMPDEST DUP1 MLOAD PUSH1 0x20 DUP3 ADD REVERT JUMPDEST PUSH1 0x1 PUSH1 0x1 PUSH1 0xE0 SHL SUB NOT DUP2 AND PUSH4 0xA85BD01 PUSH1 0xE1 SHL EQ PUSH2 0x1288 JUMPI PUSH1 0x40 MLOAD PUSH4 0x32505749 PUSH1 0xE1 SHL DUP2 MSTORE PUSH1 0x1 PUSH1 0x1 PUSH1 0xA0 SHL SUB DUP6 AND PUSH1 0x4 DUP3 ADD MSTORE PUSH1 0x24 ADD PUSH2 0x66A JUMP JUMPDEST POP POP POP POP POP POP JUMP JUMPDEST PUSH0 DUP2 DUP2 MSTORE PUSH1 0x6 PUSH1 0x20 MSTORE PUSH1 0x40 SWAP1 KECCAK256 DUP1 SLOAD PUSH1 0x60 SWAP2 SWAP1 PUSH2 0x12AC SWAP1 PUSH2 0x2B18 JUMP JUMPDEST DUP1 PUSH1 0x1F ADD PUSH1 0x20 DUP1 SWAP2 DIV MUL PUSH1 0x20 ADD PUSH1 0x40 MLOAD SWAP1 DUP2 ADD PUSH1 0x40 MSTORE DUP1 SWAP3 SWAP2 SWAP1 DUP2 DUP2 MSTORE PUSH1 0x20 ADD DUP3 DUP1 SLOAD PUSH2 0x12D8 SWAP1 PUSH2 0x2B18 JUMP JUMPDEST DUP1 ISZERO PUSH2 0x1323 JUMPI DUP1 PUSH1 0x1F LT PUSH2 0x12FA JUMPI PUSH2 0x100 DUP1 DUP4 SLOAD DIV MUL DUP4 MSTORE SWAP2 PUSH1 0x20 ADD SWAP2 PUSH2 0x1323 JUMP JUMPDEST DUP3 ADD SWAP2 SWAP1 PUSH0 MSTORE PUSH1 0x20 PUSH0 KECCAK256 SWAP1 JUMPDEST DUP2 SLOAD DUP2 MSTORE SWAP1 PUSH1 0x1 ADD SWAP1 PUSH1 0x20 ADD DUP1 DUP4 GT PUSH2 0x1306 JUMPI DUP3 SWAP1 SUB PUSH1 0x1F AND DUP3 ADD SWAP2 JUMPDEST POP POP POP POP POP SWAP1 POP SWAP2 SWAP1 POP JUMP JUMPDEST PUSH1 0x60 PUSH2 0x133A DUP3 PUSH2 0xC30 JUMP JUMPDEST POP PUSH0 PUSH2 0x1350 PUSH1 0x40 DUP1 MLOAD PUSH1 0x20 DUP2 ADD SWAP1 SWAP2 MSTORE PUSH0 DUP2 MSTORE SWAP1 JUMP JUMPDEST SWAP1 POP PUSH0 DUP2 MLOAD GT PUSH2 0x136E JUMPI PUSH1 0x40 MLOAD DUP1 PUSH1 0x20 ADD PUSH1 0x40 MSTORE DUP1 PUSH0 DUP2 MSTORE POP PUSH2 0x1399 JUMP JUMPDEST DUP1 PUSH2 0x1378 DUP5 PUSH2 0x1C46 JUMP JUMPDEST PUSH1 0x40 MLOAD PUSH1 0x20 ADD PUSH2 0x1389 SWAP3 SWAP2 SWAP1 PUSH2 0x2C8C JUMP JUMPDEST PUSH1 0x40 MLOAD PUSH1 0x20 DUP2 DUP4 SUB SUB DUP2 MSTORE SWAP1 PUSH1 0x40 MSTORE JUMPDEST SWAP4 SWAP3 POP POP POP JUMP JUMPDEST PUSH2 0x447 DUP3 DUP3 PUSH1 0x40 MLOAD DUP1 PUSH1 0x20 ADD PUSH1 0x40 MSTORE DUP1 PUSH0 DUP2 MSTORE POP PUSH2 0x1CD5 JUMP JUMPDEST PUSH0 DUP2 DUP2 MSTORE PUSH1 0x10 PUSH1 0x20 MSTORE PUSH1 0x40 DUP1 DUP3 KECCAK256 DUP2 MLOAD PUSH1 0xC0 DUP2 ADD SWAP1 SWAP3 MSTORE DUP1 SLOAD DUP3 SWAP1 DUP3 SWAP1 PUSH2 0x13DF SWAP1 PUSH2 0x2B18 JUMP JUMPDEST DUP1 PUSH1 0x1F ADD PUSH1 0x20 DUP1 SWAP2 DIV MUL PUSH1 0x20 ADD PUSH1 0x40 MLOAD SWAP1 DUP2 ADD PUSH1 0x40 MSTORE DUP1 SWAP3 SWAP2 SWAP1 DUP2 DUP2 MSTORE PUSH1 0x20 ADD DUP3 DUP1 SLOAD PUSH2 0x140B SWAP1 PUSH2 0x2B18 JUMP JUMPDEST DUP1 ISZERO PUSH2 0x1456 JUMPI DUP1 PUSH1 0x1F LT PUSH2 0x142D JUMPI PUSH2 0x100 DUP1 DUP4 SLOAD DIV MUL DUP4 MSTORE SWAP2 PUSH1 0x20 ADD SWAP2 PUSH2 0x1456 JUMP JUMPDEST DUP3 ADD SWAP2 SWAP1 PUSH0 MSTORE PUSH1 0x20 PUSH0 KECCAK256 SWAP1 JUMPDEST DUP2 SLOAD DUP2 MSTORE SWAP1 PUSH1 0x1 ADD SWAP1 PUSH1 0x20 ADD DUP1 DUP4 GT PUSH2 0x1439 JUMPI DUP3 SWAP1 SUB PUSH1 0x1F AND DUP3 ADD SWAP2 JUMPDEST POP POP POP POP POP DUP2 MSTORE PUSH1 0x20 ADD PUSH1 0x1 DUP3 ADD DUP1 SLOAD PUSH2 0x146F SWAP1 PUSH2 0x2B18 JUMP JUMPDEST DUP1 PUSH1 0x1F ADD PUSH1 0x20 DUP1 SWAP2 DIV MUL PUSH1 0x20 ADD PUSH1 0x40 MLOAD SWAP1 DUP2 ADD PUSH1 0x40 MSTORE DUP1 SWAP3 SWAP2 SWAP1 DUP2 DUP2 MSTORE PUSH1 0x20 ADD DUP3 DUP1 SLOAD PUSH2 0x149B SWAP1 PUSH2 0x2B18 JUMP JUMPDEST DUP1 ISZERO PUSH2 0x14E6 JUMPI DUP1 PUSH1 0x1F LT PUSH2 0x14BD JUMPI PUSH2 0x100 DUP1 DUP4 SLOAD DIV MUL DUP4 MSTORE SWAP2 PUSH1 0x20 ADD SWAP2 PUSH2 0x14E6 JUMP JUMPDEST DUP3 ADD SWAP2 SWAP1 PUSH0 MSTORE PUSH1 0x20 PUSH0 KECCAK256 SWAP1 JUMPDEST DUP2 SLOAD DUP2 MSTORE SWAP1 PUSH1 0x1 ADD SWAP1 PUSH1 0x20 ADD DUP1 DUP4 GT PUSH2 0x14C9 JUMPI DUP3 SWAP1 SUB PUSH1 0x1F AND DUP3 ADD SWAP2 JUMPDEST POP POP POP SWAP2 DUP4 MSTORE POP POP PUSH1 0x2 SWAP2 SWAP1 SWAP2 ADD SLOAD PUSH1 0x1 PUSH1 0x1 PUSH1 0x40 SHL SUB DUP1 DUP3 AND PUSH1 0x20 DUP5 ADD MSTORE PUSH1 0x1 PUSH1 0x40 SHL DUP3 DIV DUP2 AND PUSH1 0x40 DUP5 ADD MSTORE PUSH1 0x1 PUSH1 0x80 SHL DUP3 DIV DUP2 AND PUSH1 0x60 DUP5 ADD MSTORE PUSH1 0x1 PUSH1 0xC0 SHL SWAP1 SWAP2 DIV DUP2 AND PUSH1 0x80 SWAP3 DUP4 ADD MSTORE SWAP1 DUP3 ADD MLOAD SWAP2 SWAP3 POP PUSH0 SWAP2 AND ISZERO PUSH2 0x154A JUMPI DUP2 PUSH1 0x80 ADD MLOAD PUSH2 0x154D JUMP JUMPDEST PUSH1 0x1 JUMPDEST SWAP1 POP PUSH0 DUP2 PUSH1 0x1 PUSH1 0x1 PUSH1 0x40 SHL SUB AND DUP4 PUSH1 0xA0 ADD MLOAD PUSH1 0x1 PUSH1 0x1 PUSH1 0x40 SHL SUB AND DUP5 PUSH1 0x60 ADD MLOAD PUSH1 0x1 PUSH1 0x1 PUSH1 0x40 SHL SUB AND PUSH2 0x1580 SWAP2 SWAP1 PUSH2 0x2D3A JUMP JUMPDEST PUSH2 0x158B SWAP1 PUSH1 0x64 PUSH2 0x2D4D JUMP JUMPDEST PUSH2 0x1595 SWAP2 SWAP1 PUSH2 0x2D78 JUMP JUMPDEST SWAP1 POP PUSH0 PUSH2 0x15AB PUSH2 0x15A6 PUSH1 0x64 DUP5 PUSH2 0x2D78 JUMP JUMPDEST PUSH2 0x1C46 JUMP JUMPDEST PUSH2 0x15B9 PUSH2 0x15A6 PUSH1 0x64 DUP6 PUSH2 0x2D8B JUMP JUMPDEST PUSH1 0x40 MLOAD PUSH1 0x20 ADD PUSH2 0x15CA SWAP3 SWAP2 SWAP1 PUSH2 0x2D9E JUMP JUMPDEST PUSH1 0x40 MLOAD PUSH1 0x20 DUP2 DUP4 SUB SUB DUP2 MSTORE SWAP1 PUSH1 0x40 MSTORE SWAP1 POP PUSH0 PUSH2 0x15E4 PUSH2 0x1CEC JUMP JUMPDEST PUSH2 0x15EC PUSH2 0x1D11 JUMP JUMPDEST PUSH2 0x15F6 DUP8 DUP6 PUSH2 0x1D34 JUMP JUMPDEST PUSH1 0x40 MLOAD PUSH1 0x20 ADD PUSH2 0x1608 SWAP4 SWAP3 SWAP2 SWAP1 PUSH2 0x2DC6 JUMP JUMPDEST PUSH1 0x40 MLOAD PUSH1 0x20 DUP2 DUP4 SUB SUB DUP2 MSTORE SWAP1 PUSH1 0x40 MSTORE SWAP1 POP PUSH0 PUSH2 0x1623 DUP3 PUSH2 0x1E82 JUMP JUMPDEST SWAP1 POP PUSH0 DUP7 PUSH0 ADD MLOAD DUP8 PUSH1 0x20 ADD MLOAD PUSH2 0x1645 DUP10 PUSH1 0x40 ADD MLOAD PUSH1 0x1 PUSH1 0x1 PUSH1 0x40 SHL SUB AND PUSH2 0x1C46 JUMP JUMPDEST PUSH2 0x165B DUP11 PUSH1 0x60 ADD MLOAD PUSH1 0x1 PUSH1 0x1 PUSH1 0x40 SHL SUB AND PUSH2 0x1C46 JUMP JUMPDEST PUSH2 0x1671 DUP12 PUSH1 0x80 ADD MLOAD PUSH1 0x1 PUSH1 0x1 PUSH1 0x40 SHL SUB AND PUSH2 0x1C46 JUMP JUMPDEST PUSH2 0x1687 DUP13 PUSH1 0xA0 ADD MLOAD PUSH1 0x1 PUSH1 0x1 PUSH1 0x40 SHL SUB AND PUSH2 0x1C46 JUMP JUMPDEST PUSH1 0x40 MLOAD PUSH1 0x20 ADD PUSH2 0x169C SWAP7 SWAP6 SWAP5 SWAP4 SWAP3 SWAP2 SWAP1 PUSH2 0x2EA2 JUMP JUMPDEST PUSH1 0x40 MLOAD PUSH1 0x20 DUP2 DUP4 SUB SUB DUP2 MSTORE SWAP1 PUSH1 0x40 MSTORE SWAP1 POP PUSH0 PUSH2 0x16E2 PUSH2 0x16BA DUP11 PUSH2 0x1C46 JUMP JUMPDEST DUP4 DUP6 PUSH1 0x40 MLOAD PUSH1 0x20 ADD PUSH2 0x16CE SWAP4 SWAP3 SWAP2 SWAP1 PUSH2 0x305F JUMP JUMPDEST PUSH1 0x40 MLOAD PUSH1 0x20 DUP2 DUP4 SUB SUB DUP2 MSTORE SWAP1 PUSH1 0x40 MSTORE PUSH2 0x1E82 JUMP JUMPDEST SWAP1 POP PUSH2 0x170D DUP10 DUP3 PUSH1 0x40 MLOAD PUSH1 0x20 ADD PUSH2 0x16F9 SWAP2 SWAP1 PUSH2 0x3155 JUMP JUMPDEST PUSH1 0x40 MLOAD PUSH1 0x20 DUP2 DUP4 SUB SUB DUP2 MSTORE SWAP1 PUSH1 0x40 MSTORE PUSH2 0x1E8E JUMP JUMPDEST POP POP POP POP POP POP POP POP POP JUMP JUMPDEST DUP1 DUP1 PUSH2 0x172C JUMPI POP PUSH1 0x1 PUSH1 0x1 PUSH1 0xA0 SHL SUB DUP3 AND ISZERO ISZERO JUMPDEST ISZERO PUSH2 0x17ED JUMPI PUSH0 PUSH2 0x173B DUP5 PUSH2 0xC30 JUMP JUMPDEST SWAP1 POP PUSH1 0x1 PUSH1 0x1 PUSH1 0xA0 SHL SUB DUP4 AND ISZERO DUP1 ISZERO SWAP1 PUSH2 0x1767 JUMPI POP DUP3 PUSH1 0x1 PUSH1 0x1 PUSH1 0xA0 SHL SUB AND DUP2 PUSH1 0x1 PUSH1 0x1 PUSH1 0xA0 SHL SUB AND EQ ISZERO JUMPDEST DUP1 ISZERO PUSH2 0x177A JUMPI POP PUSH2 0x1778 DUP2 DUP5 PUSH2 0xA3E JUMP JUMPDEST ISZERO JUMPDEST ISZERO PUSH2 0x17A3 JUMPI PUSH1 0x40 MLOAD PUSH4 0xA9FBF51F PUSH1 0xE0 SHL DUP2 MSTORE PUSH1 0x1 PUSH1 0x1 PUSH1 0xA0 SHL SUB DUP5 AND PUSH1 0x4 DUP3 ADD MSTORE PUSH1 0x24 ADD PUSH2 0x66A JUMP JUMPDEST DUP2 ISZERO PUSH2 0x17EB JUMPI DUP4 DUP6 PUSH1 0x1 PUSH1 0x1 PUSH1 0xA0 SHL SUB AND DUP3 PUSH1 0x1 PUSH1 0x1 PUSH1 0xA0 SHL SUB AND PUSH32 0x8C5BE1E5EBEC7D5BD14F71427D1E84F3DD0314C0F7B2291E5B200AC8C7C3B925 PUSH1 0x40 MLOAD PUSH1 0x40 MLOAD DUP1 SWAP2 SUB SWAP1 LOG4 JUMPDEST POP JUMPDEST POP POP PUSH0 SWAP1 DUP2 MSTORE PUSH1 0x4 PUSH1 0x20 MSTORE PUSH1 0x40 SWAP1 KECCAK256 DUP1 SLOAD PUSH1 0x1 PUSH1 0x1 PUSH1 0xA0 SHL SUB NOT AND PUSH1 0x1 PUSH1 0x1 PUSH1 0xA0 SHL SUB SWAP3 SWAP1 SWAP3 AND SWAP2 SWAP1 SWAP2 OR SWAP1 SSTORE JUMP JUMPDEST PUSH2 0x1827 DUP4 DUP4 DUP4 PUSH2 0x1EDD JUMP JUMPDEST PUSH2 0x794 JUMPI PUSH1 0x1 PUSH1 0x1 PUSH1 0xA0 SHL SUB DUP4 AND PUSH2 0x1855 JUMPI PUSH1 0x40 MLOAD PUSH4 0x7E273289 PUSH1 0xE0 SHL DUP2 MSTORE PUSH1 0x4 DUP2 ADD DUP3 SWAP1 MSTORE PUSH1 0x24 ADD PUSH2 0x66A JUMP JUMPDEST PUSH1 0x40 MLOAD PUSH4 0x177E802F PUSH1 0xE0 SHL DUP2 MSTORE PUSH1 0x1 PUSH1 0x1 PUSH1 0xA0 SHL SUB DUP4 AND PUSH1 0x4 DUP3 ADD MSTORE PUSH1 0x24 DUP2 ADD DUP3 SWAP1 MSTORE PUSH1 0x44 ADD PUSH2 0x66A JUMP JUMPDEST PUSH2 0x447 DUP3 PUSH0 PUSH0 DUP5 PUSH2 0x1F3E JUMP JUMPDEST DUP1 MLOAD PUSH0 SUB PUSH2 0x18AD JUMPI PUSH1 0x40 MLOAD PUSH4 0xFE936CB7 PUSH1 0xE0 SHL DUP2 MSTORE PUSH1 0x4 ADD PUSH1 0x40 MLOAD DUP1 SWAP2 SUB SWAP1 REVERT JUMPDEST PUSH1 0xA0 SWAP1 SWAP2 ADD MSTORE JUMP JUMPDEST PUSH1 0x60 PUSH0 PUSH2 0x18C3 PUSH2 0x100 PUSH2 0x1FBB JUMP JUMPDEST SWAP1 POP PUSH2 0x18FC PUSH1 0x40 MLOAD DUP1 PUSH1 0x40 ADD PUSH1 0x40 MSTORE DUP1 PUSH1 0xC DUP2 MSTORE PUSH1 0x20 ADD PUSH12 0x31B7B232A637B1B0BA34B7B7 PUSH1 0xA1 SHL DUP2 MSTORE POP DUP3 PUSH2 0x1FDB SWAP1 SWAP2 SWAP1 PUSH4 0xFFFFFFFF AND JUMP JUMPDEST DUP3 MLOAD PUSH2 0x191A SWAP1 PUSH1 0x2 DUP2 GT ISZERO PUSH2 0x1913 JUMPI PUSH2 0x1913 PUSH2 0x3186 JUMP JUMPDEST DUP3 SWAP1 PUSH2 0x1FF4 JUMP JUMPDEST PUSH1 0x40 DUP1 MLOAD DUP1 DUP3 ADD SWAP1 SWAP2 MSTORE PUSH1 0x8 DUP2 MSTORE PUSH8 0x6C616E6775616765 PUSH1 0xC0 SHL PUSH1 0x20 DUP3 ADD MSTORE PUSH2 0x1944 SWAP1 DUP3 SWAP1 PUSH2 0x1FDB JUMP JUMPDEST PUSH1 0x40 DUP4 ADD MLOAD PUSH2 0x195B SWAP1 DUP1 ISZERO PUSH2 0x1913 JUMPI PUSH2 0x1913 PUSH2 0x3186 JUMP JUMPDEST PUSH1 0x40 DUP1 MLOAD DUP1 DUP3 ADD SWAP1 SWAP2 MSTORE PUSH1 0x6 DUP2 MSTORE PUSH6 0x736F75726365 PUSH1 0xD0 SHL PUSH1 0x20 DUP3 ADD MSTORE PUSH2 0x1983 SWAP1 DUP3 SWAP1 PUSH2 0x1FDB JUMP JUMPDEST PUSH1 0x60 DUP4 ADD MLOAD PUSH2 0x1993 SWAP1 DUP3 SWAP1 PUSH2 0x1FDB JUMP JUMPDEST PUSH1 0xA0 DUP4 ADD MLOAD MLOAD ISZERO PUSH2 0x1A1E JUMPI PUSH1 0x40 DUP1 MLOAD DUP1 DUP3 ADD SWAP1 SWAP2 MSTORE PUSH1 0x4 DUP2 MSTORE PUSH4 0x61726773 PUSH1 0xE0 SHL PUSH1 0x20 DUP3 ADD MSTORE PUSH2 0x19C4 SWAP1 DUP3 SWAP1 PUSH2 0x1FDB JUMP JUMPDEST PUSH2 0x19CD DUP2 PUSH2 0x202D JUMP JUMPDEST PUSH0 JUMPDEST DUP4 PUSH1 0xA0 ADD MLOAD MLOAD DUP2 LT ISZERO PUSH2 0x1A14 JUMPI PUSH2 0x1A0C DUP5 PUSH1 0xA0 ADD MLOAD DUP3 DUP2 MLOAD DUP2 LT PUSH2 0x19F5 JUMPI PUSH2 0x19F5 PUSH2 0x2CCF JUMP JUMPDEST PUSH1 0x20 MUL PUSH1 0x20 ADD ADD MLOAD DUP4 PUSH2 0x1FDB SWAP1 SWAP2 SWAP1 PUSH4 0xFFFFFFFF AND JUMP JUMPDEST PUSH1 0x1 ADD PUSH2 0x19CF JUMP JUMPDEST POP PUSH2 0x1A1E DUP2 PUSH2 0x2051 JUMP JUMPDEST PUSH1 0x80 DUP4 ADD MLOAD MLOAD ISZERO PUSH2 0x1AE1 JUMPI PUSH0 DUP4 PUSH1 0x20 ADD MLOAD PUSH1 0x2 DUP2 GT ISZERO PUSH2 0x1A40 JUMPI PUSH2 0x1A40 PUSH2 0x3186 JUMP JUMPDEST SUB PUSH2 0x1A5E JUMPI PUSH1 0x40 MLOAD PUSH4 0xA80D31F7 PUSH1 0xE0 SHL DUP2 MSTORE PUSH1 0x4 ADD PUSH1 0x40 MLOAD DUP1 SWAP2 SUB SWAP1 REVERT JUMPDEST PUSH1 0x40 DUP1 MLOAD DUP1 DUP3 ADD SWAP1 SWAP2 MSTORE PUSH1 0xF DUP2 MSTORE PUSH15 0x39B2B1B932BA39A637B1B0BA34B7B7 PUSH1 0x89 SHL PUSH1 0x20 DUP3 ADD MSTORE PUSH2 0x1A8F SWAP1 DUP3 SWAP1 PUSH2 0x1FDB JUMP JUMPDEST PUSH2 0x1AA8 DUP4 PUSH1 0x20 ADD MLOAD PUSH1 0x2 DUP2 GT ISZERO PUSH2 0x1913 JUMPI PUSH2 0x1913 PUSH2 0x3186 JUMP JUMPDEST PUSH1 0x40 DUP1 MLOAD DUP1 DUP3 ADD SWAP1 SWAP2 MSTORE PUSH1 0x7 DUP2 MSTORE PUSH7 0x73656372657473 PUSH1 0xC8 SHL PUSH1 0x20 DUP3 ADD MSTORE PUSH2 0x1AD1 SWAP1 DUP3 SWAP1 PUSH2 0x1FDB JUMP JUMPDEST PUSH1 0x80 DUP4 ADD MLOAD PUSH2 0x1AE1 SWAP1 DUP3 SWAP1 PUSH2 0x206F JUMP JUMPDEST PUSH1 0xC0 DUP4 ADD MLOAD MLOAD ISZERO PUSH2 0x1B71 JUMPI PUSH1 0x40 DUP1 MLOAD DUP1 DUP3 ADD SWAP1 SWAP2 MSTORE PUSH1 0x9 DUP2 MSTORE PUSH9 0x627974657341726773 PUSH1 0xB8 SHL PUSH1 0x20 DUP3 ADD MSTORE PUSH2 0x1B17 SWAP1 DUP3 SWAP1 PUSH2 0x1FDB JUMP JUMPDEST PUSH2 0x1B20 DUP2 PUSH2 0x202D JUMP JUMPDEST PUSH0 JUMPDEST DUP4 PUSH1 0xC0 ADD MLOAD MLOAD DUP2 LT ISZERO PUSH2 0x1B67 JUMPI PUSH2 0x1B5F DUP5 PUSH1 0xC0 ADD MLOAD DUP3 DUP2 MLOAD DUP2 LT PUSH2 0x1B48 JUMPI PUSH2 0x1B48 PUSH2 0x2CCF JUMP JUMPDEST PUSH1 0x20 MUL PUSH1 0x20 ADD ADD MLOAD DUP4 PUSH2 0x206F SWAP1 SWAP2 SWAP1 PUSH4 0xFFFFFFFF AND JUMP JUMPDEST PUSH1 0x1 ADD PUSH2 0x1B22 JUMP JUMPDEST POP PUSH2 0x1B71 DUP2 PUSH2 0x2051 JUMP JUMPDEST MLOAD MLOAD SWAP3 SWAP2 POP POP JUMP JUMPDEST PUSH0 PUSH0 PUSH32 0x0 PUSH1 0x1 PUSH1 0x1 PUSH1 0xA0 SHL SUB AND PUSH4 0x461D2762 DUP7 DUP9 PUSH1 0x1 DUP9 DUP9 PUSH1 0x40 MLOAD DUP7 PUSH4 0xFFFFFFFF AND PUSH1 0xE0 SHL DUP2 MSTORE PUSH1 0x4 ADD PUSH2 0x1BD0 SWAP6 SWAP5 SWAP4 SWAP3 SWAP2 SWAP1 PUSH2 0x319A JUMP JUMPDEST PUSH1 0x20 PUSH1 0x40 MLOAD DUP1 DUP4 SUB DUP2 PUSH0 DUP8 GAS CALL ISZERO DUP1 ISZERO PUSH2 0x1BEC JUMPI RETURNDATASIZE PUSH0 PUSH0 RETURNDATACOPY RETURNDATASIZE PUSH0 REVERT JUMPDEST POP POP POP POP PUSH1 0x40 MLOAD RETURNDATASIZE PUSH1 0x1F NOT PUSH1 0x1F DUP3 ADD AND DUP3 ADD DUP1 PUSH1 0x40 MSTORE POP DUP2 ADD SWAP1 PUSH2 0x1C10 SWAP2 SWAP1 PUSH2 0x2CB8 JUMP JUMPDEST PUSH1 0x40 MLOAD SWAP1 SWAP2 POP DUP2 SWAP1 PUSH32 0x1131472297A800FEE664D1D89CFA8F7676FF07189ECC53F80BBB5F4969099DB8 SWAP1 PUSH0 SWAP1 LOG2 SWAP6 SWAP5 POP POP POP POP POP JUMP JUMPDEST PUSH1 0x60 PUSH0 PUSH2 0x1C52 DUP4 PUSH2 0x207C JUMP JUMPDEST PUSH1 0x1 ADD SWAP1 POP PUSH0 DUP2 PUSH1 0x1 PUSH1 0x1 PUSH1 0x40 SHL SUB DUP2 GT ISZERO PUSH2 0x1C70 JUMPI PUSH2 0x1C70 PUSH2 0x26F6 JUMP JUMPDEST PUSH1 0x40 MLOAD SWAP1 DUP1 DUP3 MSTORE DUP1 PUSH1 0x1F ADD PUSH1 0x1F NOT AND PUSH1 0x20 ADD DUP3 ADD PUSH1 0x40 MSTORE DUP1 ISZERO PUSH2 0x1C9A JUMPI PUSH1 0x20 DUP3 ADD DUP2 DUP1 CALLDATASIZE DUP4 CALLDATACOPY ADD SWAP1 POP JUMPDEST POP SWAP1 POP DUP2 DUP2 ADD PUSH1 0x20 ADD JUMPDEST PUSH0 NOT ADD PUSH16 0x181899199A1A9B1B9C1CB0B131B232B3 PUSH1 0x81 SHL PUSH1 0xA DUP7 MOD BYTE DUP2 MSTORE8 PUSH1 0xA DUP6 DIV SWAP5 POP DUP5 PUSH2 0x1CA4 JUMPI POP SWAP4 SWAP3 POP POP POP JUMP JUMPDEST PUSH2 0x1CDF DUP4 DUP4 PUSH2 0x2153 JUMP JUMPDEST PUSH2 0x794 CALLER PUSH0 DUP6 DUP6 DUP6 PUSH2 0x1169 JUMP JUMPDEST PUSH1 0x60 PUSH1 0x40 MLOAD PUSH1 0x20 ADD PUSH2 0x1CFD SWAP1 PUSH2 0x31E2 JUMP JUMPDEST PUSH1 0x40 MLOAD PUSH1 0x20 DUP2 DUP4 SUB SUB DUP2 MSTORE SWAP1 PUSH1 0x40 MSTORE SWAP1 POP SWAP1 JUMP JUMPDEST PUSH1 0x60 PUSH1 0x40 MLOAD DUP1 PUSH2 0x8C0 ADD PUSH1 0x40 MSTORE DUP1 PUSH2 0x894 DUP2 MSTORE PUSH1 0x20 ADD PUSH2 0x3C86 PUSH2 0x894 SWAP2 CODECOPY SWAP1 POP SWAP1 JUMP JUMPDEST PUSH1 0x40 DUP1 MLOAD DUP1 DUP3 ADD DUP3 MSTORE PUSH1 0x7 DUP2 MSTORE PUSH7 0x23653734633363 PUSH1 0xC8 SHL PUSH1 0x20 DUP1 DUP4 ADD SWAP2 SWAP1 SWAP2 MSTORE DUP5 MLOAD SWAP3 MLOAD PUSH1 0x60 SWAP4 PUSH0 SWAP3 PUSH2 0x1D6B SWAP3 DUP6 SWAP3 SWAP2 ADD PUSH2 0x33F0 JUMP JUMPDEST PUSH1 0x40 MLOAD PUSH1 0x20 DUP2 DUP4 SUB SUB DUP2 MSTORE SWAP1 PUSH1 0x40 MSTORE SWAP1 POP PUSH0 DUP3 DUP7 PUSH1 0x20 ADD MLOAD DUP5 PUSH2 0x1D9A DUP10 PUSH1 0x40 ADD MLOAD PUSH1 0x1 PUSH1 0x1 PUSH1 0x40 SHL SUB AND PUSH2 0x1C46 JUMP JUMPDEST PUSH1 0x40 MLOAD PUSH1 0x20 ADD PUSH2 0x1DAD SWAP5 SWAP4 SWAP3 SWAP2 SWAP1 PUSH2 0x35AD JUMP JUMPDEST PUSH1 0x40 MLOAD PUSH1 0x20 DUP2 DUP4 SUB SUB DUP2 MSTORE SWAP1 PUSH1 0x40 MSTORE SWAP1 POP PUSH0 DUP4 PUSH2 0x1DD6 DUP9 PUSH1 0x60 ADD MLOAD PUSH1 0x1 PUSH1 0x1 PUSH1 0x40 SHL SUB AND PUSH2 0x1C46 JUMP JUMPDEST DUP6 PUSH2 0x1DED DUP11 PUSH1 0x80 ADD MLOAD PUSH1 0x1 PUSH1 0x1 PUSH1 0x40 SHL SUB AND PUSH2 0x1C46 JUMP JUMPDEST PUSH1 0x40 MLOAD PUSH1 0x20 ADD PUSH2 0x1E00 SWAP5 SWAP4 SWAP3 SWAP2 SWAP1 PUSH2 0x375A JUMP JUMPDEST PUSH1 0x40 MLOAD PUSH1 0x20 DUP2 DUP4 SUB SUB DUP2 MSTORE SWAP1 PUSH1 0x40 MSTORE SWAP1 POP PUSH0 DUP5 PUSH2 0x1E29 DUP10 PUSH1 0xA0 ADD MLOAD PUSH1 0x1 PUSH1 0x1 PUSH1 0x40 SHL SUB AND PUSH2 0x1C46 JUMP JUMPDEST DUP7 DUP10 PUSH1 0x40 MLOAD PUSH1 0x20 ADD PUSH2 0x1E3E SWAP5 SWAP4 SWAP3 SWAP2 SWAP1 PUSH2 0x38EC JUMP JUMPDEST PUSH1 0x40 MLOAD PUSH1 0x20 DUP2 DUP4 SUB SUB DUP2 MSTORE SWAP1 PUSH1 0x40 MSTORE SWAP1 POP DUP4 DUP4 DUP4 DUP4 PUSH1 0x40 MLOAD PUSH1 0x20 ADD PUSH2 0x1E66 SWAP5 SWAP4 SWAP3 SWAP2 SWAP1 PUSH2 0x3B23 JUMP JUMPDEST PUSH1 0x40 MLOAD PUSH1 0x20 DUP2 DUP4 SUB SUB DUP2 MSTORE SWAP1 PUSH1 0x40 MSTORE SWAP6 POP POP POP POP POP POP SWAP3 SWAP2 POP POP JUMP JUMPDEST PUSH1 0x60 PUSH2 0x46F DUP3 PUSH0 PUSH2 0x21B4 JUMP JUMPDEST PUSH0 DUP3 DUP2 MSTORE PUSH1 0x6 PUSH1 0x20 MSTORE PUSH1 0x40 SWAP1 KECCAK256 PUSH2 0x1EA5 DUP3 DUP3 PUSH2 0x2B94 JUMP JUMPDEST POP PUSH1 0x40 MLOAD DUP3 DUP2 MSTORE PUSH32 0xF8E1A15ABA9398E019F0B49DF1A4FDE98EE17AE345CB5F6B5E2C27F5033E8CE7 SWAP1 PUSH1 0x20 ADD PUSH1 0x40 MLOAD DUP1 SWAP2 SUB SWAP1 LOG1 POP POP JUMP JUMPDEST PUSH0 PUSH1 0x1 PUSH1 0x1 PUSH1 0xA0 SHL SUB DUP4 AND ISZERO DUP1 ISZERO SWAP1 PUSH2 0xA36 JUMPI POP DUP3 PUSH1 0x1 PUSH1 0x1 PUSH1 0xA0 SHL SUB AND DUP5 PUSH1 0x1 PUSH1 0x1 PUSH1 0xA0 SHL SUB AND EQ DUP1 PUSH2 0x1F16 JUMPI POP PUSH2 0x1F16 DUP5 DUP5 PUSH2 0xA3E JUMP JUMPDEST DUP1 PUSH2 0xA36 JUMPI POP POP PUSH0 SWAP1 DUP2 MSTORE PUSH1 0x4 PUSH1 0x20 MSTORE PUSH1 0x40 SWAP1 KECCAK256 SLOAD PUSH1 0x1 PUSH1 0x1 PUSH1 0xA0 SHL SUB SWAP1 DUP2 AND SWAP2 AND EQ SWAP2 SWAP1 POP JUMP JUMPDEST DUP1 MLOAD PUSH0 SUB PUSH2 0x1F5F JUMPI PUSH1 0x40 MLOAD PUSH4 0x22CE3EDD PUSH1 0xE0 SHL DUP2 MSTORE PUSH1 0x4 ADD PUSH1 0x40 MLOAD DUP1 SWAP2 SUB SWAP1 REVERT JUMPDEST DUP4 DUP4 PUSH1 0x2 DUP2 GT ISZERO PUSH2 0x1F72 JUMPI PUSH2 0x1F72 PUSH2 0x3186 JUMP JUMPDEST SWAP1 DUP2 PUSH1 0x2 DUP2 GT ISZERO PUSH2 0x1F85 JUMPI PUSH2 0x1F85 PUSH2 0x3186 JUMP JUMPDEST SWAP1 MSTORE POP PUSH1 0x40 DUP5 ADD DUP3 DUP1 ISZERO PUSH2 0x1F9B JUMPI PUSH2 0x1F9B PUSH2 0x3186 JUMP JUMPDEST SWAP1 DUP2 DUP1 ISZERO PUSH2 0x1FAB JUMPI PUSH2 0x1FAB PUSH2 0x3186 JUMP JUMPDEST SWAP1 MSTORE POP PUSH1 0x60 SWAP1 SWAP4 ADD SWAP3 SWAP1 SWAP3 MSTORE POP POP JUMP JUMPDEST PUSH2 0x1FC3 PUSH2 0x26C3 JUMP JUMPDEST DUP1 MLOAD PUSH2 0x1FCF SWAP1 DUP4 PUSH2 0x2333 JUMP JUMPDEST POP PUSH0 PUSH1 0x20 DUP3 ADD MSTORE SWAP2 SWAP1 POP JUMP JUMPDEST PUSH2 0x1FE8 DUP3 PUSH1 0x3 DUP4 MLOAD PUSH2 0x23A7 JUMP JUMPDEST DUP2 MLOAD PUSH2 0x794 SWAP1 DUP3 PUSH2 0x24C0 JUMP JUMPDEST DUP2 MLOAD PUSH2 0x2001 SWAP1 PUSH1 0xC2 PUSH2 0x24E0 JUMP JUMPDEST POP PUSH2 0x447 DUP3 DUP3 PUSH1 0x40 MLOAD PUSH1 0x20 ADD PUSH2 0x2019 SWAP2 DUP2 MSTORE PUSH1 0x20 ADD SWAP1 JUMP JUMPDEST PUSH1 0x40 MLOAD PUSH1 0x20 DUP2 DUP4 SUB SUB DUP2 MSTORE SWAP1 PUSH1 0x40 MSTORE PUSH2 0x206F JUMP JUMPDEST PUSH2 0x2038 DUP2 PUSH1 0x4 PUSH2 0x2547 JUMP JUMPDEST PUSH1 0x1 DUP2 PUSH1 0x20 ADD DUP2 DUP2 MLOAD PUSH2 0x204B SWAP2 SWAP1 PUSH2 0x2D3A JUMP JUMPDEST SWAP1 MSTORE POP POP JUMP JUMPDEST PUSH2 0x205C DUP2 PUSH1 0x7 PUSH2 0x2547 JUMP JUMPDEST PUSH1 0x1 DUP2 PUSH1 0x20 ADD DUP2 DUP2 MLOAD PUSH2 0x204B SWAP2 SWAP1 PUSH2 0x2C62 JUMP JUMPDEST PUSH2 0x1FE8 DUP3 PUSH1 0x2 DUP4 MLOAD PUSH2 0x23A7 JUMP JUMPDEST PUSH0 DUP1 PUSH19 0x184F03E93FF9F4DAA797ED6E38ED64BF6A1F01 PUSH1 0x40 SHL DUP4 LT PUSH2 0x20BA JUMPI PUSH19 0x184F03E93FF9F4DAA797ED6E38ED64BF6A1F01 PUSH1 0x40 SHL DUP4 DIV SWAP3 POP PUSH1 0x40 ADD JUMPDEST PUSH14 0x4EE2D6D415B85ACEF8100000000 DUP4 LT PUSH2 0x20E6 JUMPI PUSH14 0x4EE2D6D415B85ACEF8100000000 DUP4 DIV SWAP3 POP PUSH1 0x20 ADD JUMPDEST PUSH7 0x2386F26FC10000 DUP4 LT PUSH2 0x2104 JUMPI PUSH7 0x2386F26FC10000 DUP4 DIV SWAP3 POP PUSH1 0x10 ADD JUMPDEST PUSH4 0x5F5E100 DUP4 LT PUSH2 0x211C JUMPI PUSH4 0x5F5E100 DUP4 DIV SWAP3 POP PUSH1 0x8 ADD JUMPDEST PUSH2 0x2710 DUP4 LT PUSH2 0x2130 JUMPI PUSH2 0x2710 DUP4 DIV SWAP3 POP PUSH1 0x4 ADD JUMPDEST PUSH1 0x64 DUP4 LT PUSH2 0x2142 JUMPI PUSH1 0x64 DUP4 DIV SWAP3 POP PUSH1 0x2 ADD JUMPDEST PUSH1 0xA DUP4 LT PUSH2 0x46F JUMPI PUSH1 0x1 ADD SWAP3 SWAP2 POP POP JUMP JUMPDEST PUSH1 0x1 PUSH1 0x1 PUSH1 0xA0 SHL SUB DUP3 AND PUSH2 0x217C JUMPI PUSH1 0x40 MLOAD PUSH4 0x32505749 PUSH1 0xE1 SHL DUP2 MSTORE PUSH0 PUSH1 0x4 DUP3 ADD MSTORE PUSH1 0x24 ADD PUSH2 0x66A JUMP JUMPDEST PUSH0 PUSH2 0x2188 DUP4 DUP4 PUSH0 PUSH2 0xDD8 JUMP JUMPDEST SWAP1 POP PUSH1 0x1 PUSH1 0x1 PUSH1 0xA0 SHL SUB DUP2 AND ISZERO PUSH2 0x794 JUMPI PUSH1 0x40 MLOAD PUSH4 0x39E35637 PUSH1 0xE1 SHL DUP2 MSTORE PUSH0 PUSH1 0x4 DUP3 ADD MSTORE PUSH1 0x24 ADD PUSH2 0x66A JUMP JUMPDEST PUSH1 0x60 DUP3 MLOAD PUSH0 SUB PUSH2 0x21D2 JUMPI POP PUSH1 0x40 DUP1 MLOAD PUSH1 0x20 DUP2 ADD SWAP1 SWAP2 MSTORE PUSH0 DUP2 MSTORE PUSH2 0x46F JUMP JUMPDEST PUSH0 DUP3 PUSH2 0x2202 JUMPI PUSH1 0x3 DUP5 MLOAD PUSH1 0x2 PUSH2 0x21E8 SWAP2 SWAP1 PUSH2 0x2D3A JUMP JUMPDEST PUSH2 0x21F2 SWAP2 SWAP1 PUSH2 0x2D78 JUMP JUMPDEST PUSH2 0x21FD SWAP1 PUSH1 0x4 PUSH2 0x2D4D JUMP JUMPDEST PUSH2 0x2227 JUMP JUMPDEST PUSH1 0x3 DUP5 MLOAD PUSH1 0x4 PUSH2 0x2212 SWAP2 SWAP1 PUSH2 0x2D4D JUMP JUMPDEST PUSH2 0x221D SWAP1 PUSH1 0x2 PUSH2 0x2D3A JUMP JUMPDEST PUSH2 0x2227 SWAP2 SWAP1 PUSH2 0x2D78 JUMP JUMPDEST SWAP1 POP PUSH1 0x40 MLOAD SWAP2 POP PUSH32 0x4142434445464748494A4B4C4D4E4F505152535455565758595A616263646566 PUSH1 0x1F MSTORE PUSH2 0x670 DUP4 MUL PUSH32 0x6768696A6B6C6D6E6F707172737475767778797A303132333435363738392B2F XOR PUSH1 0x3F MSTORE PUSH1 0x20 DUP3 ADD DUP2 DUP2 ADD DUP6 DUP7 MLOAD DUP8 ADD PUSH1 0x20 DUP2 ADD DUP1 MLOAD PUSH0 DUP3 MSTORE JUMPDEST DUP3 DUP5 LT ISZERO PUSH2 0x22E5 JUMPI PUSH1 0x3 DUP5 ADD SWAP4 POP DUP4 MLOAD PUSH1 0x3F DUP2 PUSH1 0x12 SHR AND MLOAD DUP8 MSTORE8 PUSH1 0x1 DUP8 ADD SWAP7 POP PUSH1 0x3F DUP2 PUSH1 0xC SHR AND MLOAD DUP8 MSTORE8 PUSH1 0x1 DUP8 ADD SWAP7 POP PUSH1 0x3F DUP2 PUSH1 0x6 SHR AND MLOAD DUP8 MSTORE8 PUSH1 0x1 DUP8 ADD SWAP7 POP PUSH1 0x3F DUP2 AND MLOAD DUP8 MSTORE8 POP PUSH1 0x1 DUP7 ADD SWAP6 POP PUSH2 0x2292 JUMP JUMPDEST SWAP1 MSTORE POP DUP6 SWAP1 POP PUSH2 0x2326 JUMPI PUSH1 0x3 DUP7 MLOAD MOD PUSH1 0x1 DUP2 EQ PUSH2 0x2309 JUMPI PUSH1 0x2 DUP2 EQ PUSH2 0x231C JUMPI PUSH2 0x2324 JUMP JUMPDEST PUSH1 0x3D PUSH1 0x1 DUP5 SUB MSTORE8 PUSH1 0x3D PUSH1 0x2 DUP5 SUB MSTORE8 PUSH2 0x2324 JUMP JUMPDEST PUSH1 0x3D PUSH1 0x1 DUP5 SUB MSTORE8 JUMPDEST POP JUMPDEST SWAP2 DUP4 MSTORE POP PUSH1 0x40 MSTORE SWAP3 SWAP2 POP POP JUMP JUMPDEST PUSH1 0x40 DUP1 MLOAD DUP1 DUP3 ADD SWAP1 SWAP2 MSTORE PUSH1 0x60 DUP2 MSTORE PUSH0 PUSH1 0x20 DUP3 ADD MSTORE PUSH2 0x2352 PUSH1 0x20 DUP4 PUSH2 0x2D8B JUMP JUMPDEST ISZERO PUSH2 0x237A JUMPI PUSH2 0x2362 PUSH1 0x20 DUP4 PUSH2 0x2D8B JUMP JUMPDEST PUSH2 0x236D SWAP1 PUSH1 0x20 PUSH2 0x2C62 JUMP JUMPDEST PUSH2 0x2377 SWAP1 DUP4 PUSH2 0x2D3A JUMP JUMPDEST SWAP2 POP JUMPDEST PUSH1 0x20 DUP1 DUP5 ADD DUP4 SWAP1 MSTORE PUSH1 0x40 MLOAD DUP1 DUP6 MSTORE PUSH0 DUP2 MSTORE SWAP1 DUP2 DUP5 ADD ADD DUP2 DUP2 LT ISZERO PUSH2 0x239C JUMPI PUSH0 PUSH0 REVERT JUMPDEST PUSH1 0x40 MSTORE POP SWAP2 SWAP3 SWAP2 POP POP JUMP JUMPDEST PUSH1 0x17 DUP2 PUSH1 0x1 PUSH1 0x1 PUSH1 0x40 SHL SUB AND GT PUSH2 0x23CD JUMPI DUP3 MLOAD PUSH2 0x6CD SWAP1 PUSH1 0xE0 PUSH1 0x5 DUP6 SWAP1 SHL AND DUP4 OR PUSH2 0x24E0 JUMP JUMPDEST PUSH1 0xFF DUP2 PUSH1 0x1 PUSH1 0x1 PUSH1 0x40 SHL SUB AND GT PUSH2 0x240D JUMPI DUP3 MLOAD PUSH2 0x23F5 SWAP1 PUSH1 0x18 PUSH2 0x1FE0 PUSH1 0x5 DUP7 SWAP1 SHL AND OR PUSH2 0x24E0 JUMP JUMPDEST POP DUP3 MLOAD PUSH2 0x6CD SWAP1 PUSH1 0x1 PUSH1 0x1 PUSH1 0x40 SHL SUB DUP4 AND PUSH1 0x1 PUSH2 0x255E JUMP JUMPDEST PUSH2 0xFFFF DUP2 PUSH1 0x1 PUSH1 0x1 PUSH1 0x40 SHL SUB AND GT PUSH2 0x244E JUMPI DUP3 MLOAD PUSH2 0x2436 SWAP1 PUSH1 0x19 PUSH2 0x1FE0 PUSH1 0x5 DUP7 SWAP1 SHL AND OR PUSH2 0x24E0 JUMP JUMPDEST POP DUP3 MLOAD PUSH2 0x6CD SWAP1 PUSH1 0x1 PUSH1 0x1 PUSH1 0x40 SHL SUB DUP4 AND PUSH1 0x2 PUSH2 0x255E JUMP JUMPDEST PUSH4 0xFFFFFFFF DUP2 PUSH1 0x1 PUSH1 0x1 PUSH1 0x40 SHL SUB AND GT PUSH2 0x2491 JUMPI DUP3 MLOAD PUSH2 0x2479 SWAP1 PUSH1 0x1A PUSH2 0x1FE0 PUSH1 0x5 DUP7 SWAP1 SHL AND OR PUSH2 0x24E0 JUMP JUMPDEST POP DUP3 MLOAD PUSH2 0x6CD SWAP1 PUSH1 0x1 PUSH1 0x1 PUSH1 0x40 SHL SUB DUP4 AND PUSH1 0x4 PUSH2 0x255E JUMP JUMPDEST DUP3 MLOAD PUSH2 0x24A8 SWAP1 PUSH1 0x1B PUSH2 0x1FE0 PUSH1 0x5 DUP7 SWAP1 SHL AND OR PUSH2 0x24E0 JUMP JUMPDEST POP DUP3 MLOAD PUSH2 0x6CD SWAP1 PUSH1 0x1 PUSH1 0x1 PUSH1 0x40 SHL SUB DUP4 AND PUSH1 0x8 PUSH2 0x255E JUMP JUMPDEST PUSH1 0x40 DUP1 MLOAD DUP1 DUP3 ADD SWAP1 SWAP2 MSTORE PUSH1 0x60 DUP2 MSTORE PUSH0 PUSH1 0x20 DUP3 ADD MSTORE PUSH2 0x1399 DUP4 DUP4 DUP5 MLOAD PUSH2 0x25E0 JUMP JUMPDEST PUSH1 0x40 DUP1 MLOAD DUP1 DUP3 ADD SWAP1 SWAP2 MSTORE PUSH1 0x60 DUP2 MSTORE PUSH0 PUSH1 0x20 DUP3 ADD MSTORE DUP3 MLOAD MLOAD PUSH0 PUSH2 0x2503 DUP3 PUSH1 0x1 PUSH2 0x2D3A JUMP JUMPDEST SWAP1 POP DUP5 PUSH1 0x20 ADD MLOAD DUP3 LT PUSH2 0x2524 JUMPI PUSH2 0x2524 DUP6 PUSH2 0x251F DUP4 PUSH1 0x2 PUSH2 0x2D4D JUMP JUMPDEST PUSH2 0x26AC JUMP JUMPDEST DUP5 MLOAD PUSH1 0x20 DUP4 DUP3 ADD ADD DUP6 DUP2 MSTORE8 POP DUP1 MLOAD DUP3 GT ISZERO PUSH2 0x253D JUMPI DUP2 DUP2 MSTORE JUMPDEST POP SWAP4 SWAP5 SWAP4 POP POP POP POP JUMP JUMPDEST DUP2 MLOAD PUSH2 0x794 SWAP1 PUSH1 0x1F PUSH2 0x1FE0 PUSH1 0x5 DUP6 SWAP1 SHL AND OR PUSH2 0x24E0 JUMP JUMPDEST PUSH1 0x40 DUP1 MLOAD DUP1 DUP3 ADD SWAP1 SWAP2 MSTORE PUSH1 0x60 DUP2 MSTORE PUSH0 PUSH1 0x20 DUP3 ADD MSTORE DUP4 MLOAD MLOAD PUSH0 PUSH2 0x2580 DUP3 DUP6 PUSH2 0x2D3A JUMP JUMPDEST SWAP1 POP DUP6 PUSH1 0x20 ADD MLOAD DUP2 GT ISZERO PUSH2 0x259D JUMPI PUSH2 0x259D DUP7 PUSH2 0x251F DUP4 PUSH1 0x2 PUSH2 0x2D4D JUMP JUMPDEST PUSH0 PUSH1 0x1 PUSH2 0x25AC DUP7 PUSH2 0x100 PUSH2 0x3C1A JUMP JUMPDEST PUSH2 0x25B6 SWAP2 SWAP1 PUSH2 0x2C62 JUMP JUMPDEST SWAP1 POP DUP7 MLOAD DUP3 DUP2 ADD DUP8 DUP4 NOT DUP3 MLOAD AND OR DUP2 MSTORE POP DUP1 MLOAD DUP4 GT ISZERO PUSH2 0x25D4 JUMPI DUP3 DUP2 MSTORE JUMPDEST POP SWAP6 SWAP7 SWAP6 POP POP POP POP POP POP JUMP JUMPDEST PUSH1 0x40 DUP1 MLOAD DUP1 DUP3 ADD SWAP1 SWAP2 MSTORE PUSH1 0x60 DUP2 MSTORE PUSH0 PUSH1 0x20 DUP3 ADD MSTORE DUP3 MLOAD DUP3 GT ISZERO PUSH2 0x2601 JUMPI PUSH0 PUSH0 REVERT JUMPDEST DUP4 MLOAD MLOAD PUSH0 PUSH2 0x260F DUP5 DUP4 PUSH2 0x2D3A JUMP JUMPDEST SWAP1 POP DUP6 PUSH1 0x20 ADD MLOAD DUP2 GT ISZERO PUSH2 0x262C JUMPI PUSH2 0x262C DUP7 PUSH2 0x251F DUP4 PUSH1 0x2 PUSH2 0x2D4D JUMP JUMPDEST DUP6 MLOAD DUP1 MLOAD DUP4 DUP3 ADD PUSH1 0x20 ADD SWAP2 PUSH0 SWAP2 DUP1 DUP6 GT ISZERO PUSH2 0x2645 JUMPI DUP5 DUP3 MSTORE JUMPDEST POP POP POP PUSH1 0x20 DUP7 ADD JUMPDEST PUSH1 0x20 DUP7 LT PUSH2 0x2685 JUMPI DUP1 MLOAD DUP3 MSTORE PUSH2 0x2664 PUSH1 0x20 DUP4 PUSH2 0x2D3A JUMP JUMPDEST SWAP2 POP PUSH2 0x2671 PUSH1 0x20 DUP3 PUSH2 0x2D3A JUMP JUMPDEST SWAP1 POP PUSH2 0x267E PUSH1 0x20 DUP8 PUSH2 0x2C62 JUMP JUMPDEST SWAP6 POP PUSH2 0x264D JUMP JUMPDEST MLOAD DUP2 MLOAD PUSH0 NOT PUSH1 0x20 DUP9 SWAP1 SUB PUSH2 0x100 EXP ADD SWAP1 DUP2 AND SWAP1 NOT SWAP2 SWAP1 SWAP2 AND OR SWAP1 MSTORE POP DUP5 SWAP2 POP POP SWAP4 SWAP3 POP POP POP JUMP JUMPDEST DUP2 MLOAD PUSH2 0x26B8 DUP4 DUP4 PUSH2 0x2333 JUMP JUMPDEST POP PUSH2 0x6CD DUP4 DUP3 PUSH2 0x24C0 JUMP JUMPDEST PUSH1 0x40 MLOAD DUP1 PUSH1 0x40 ADD PUSH1 0x40 MSTORE DUP1 PUSH2 0x26EA PUSH1 0x40 MLOAD DUP1 PUSH1 0x40 ADD PUSH1 0x40 MSTORE DUP1 PUSH1 0x60 DUP2 MSTORE PUSH1 0x20 ADD PUSH0 DUP2 MSTORE POP SWAP1 JUMP JUMPDEST DUP2 MSTORE PUSH1 0x20 ADD PUSH0 DUP2 MSTORE POP SWAP1 JUMP JUMPDEST PUSH4 0x4E487B71 PUSH1 0xE0 SHL PUSH0 MSTORE PUSH1 0x41 PUSH1 0x4 MSTORE PUSH1 0x24 PUSH0 REVERT JUMPDEST PUSH0 DUP3 PUSH1 0x1F DUP4 ADD SLT PUSH2 0x2719 JUMPI PUSH0 PUSH0 REVERT JUMPDEST DUP2 CALLDATALOAD PUSH1 0x20 DUP4 ADD PUSH0 PUSH0 PUSH1 0x1 PUSH1 0x1 PUSH1 0x40 SHL SUB DUP5 GT ISZERO PUSH2 0x2738 JUMPI PUSH2 0x2738 PUSH2 0x26F6 JUMP JUMPDEST POP PUSH1 0x40 MLOAD PUSH1 0x1F NOT PUSH1 0x1F DUP6 ADD DUP2 AND PUSH1 0x3F ADD AND DUP2 ADD DUP2 DUP2 LT PUSH1 0x1 PUSH1 0x1 PUSH1 0x40 SHL SUB DUP3 GT OR ISZERO PUSH2 0x2766 JUMPI PUSH2 0x2766 PUSH2 0x26F6 JUMP JUMPDEST PUSH1 0x40 MSTORE DUP4 DUP2 MSTORE SWAP1 POP DUP1 DUP3 DUP5 ADD DUP8 LT ISZERO PUSH2 0x277D JUMPI PUSH0 PUSH0 REVERT JUMPDEST DUP4 DUP4 PUSH1 0x20 DUP4 ADD CALLDATACOPY PUSH0 PUSH1 0x20 DUP6 DUP4 ADD ADD MSTORE DUP1 SWAP5 POP POP POP POP POP SWAP3 SWAP2 POP POP JUMP JUMPDEST PUSH0 PUSH1 0x20 DUP3 DUP5 SUB SLT ISZERO PUSH2 0x27A9 JUMPI PUSH0 PUSH0 REVERT JUMPDEST DUP2 CALLDATALOAD PUSH1 0x1 PUSH1 0x1 PUSH1 0x40 SHL SUB DUP2 GT ISZERO PUSH2 0x27BE JUMPI PUSH0 PUSH0 REVERT JUMPDEST PUSH2 0xA36 DUP5 DUP3 DUP6 ADD PUSH2 0x270A JUMP JUMPDEST PUSH1 0x1 PUSH1 0x1 PUSH1 0xE0 SHL SUB NOT DUP2 AND DUP2 EQ PUSH2 0xBB1 JUMPI PUSH0 PUSH0 REVERT JUMPDEST PUSH0 PUSH1 0x20 DUP3 DUP5 SUB SLT ISZERO PUSH2 0x27EF JUMPI PUSH0 PUSH0 REVERT JUMPDEST DUP2 CALLDATALOAD PUSH2 0x1399 DUP2 PUSH2 0x27CA JUMP JUMPDEST PUSH0 DUP2 MLOAD DUP1 DUP5 MSTORE DUP1 PUSH1 0x20 DUP5 ADD PUSH1 0x20 DUP7 ADD MCOPY PUSH0 PUSH1 0x20 DUP3 DUP7 ADD ADD MSTORE PUSH1 0x20 PUSH1 0x1F NOT PUSH1 0x1F DUP4 ADD AND DUP6 ADD ADD SWAP2 POP POP SWAP3 SWAP2 POP POP JUMP JUMPDEST PUSH1 0x20 DUP2 MSTORE PUSH0 PUSH2 0x1399 PUSH1 0x20 DUP4 ADD DUP5 PUSH2 0x27FA JUMP JUMPDEST PUSH0 PUSH1 0x20 DUP3 DUP5 SUB SLT ISZERO PUSH2 0x284A JUMPI PUSH0 PUSH0 REVERT JUMPDEST POP CALLDATALOAD SWAP2 SWAP1 POP JUMP JUMPDEST DUP1 CALLDATALOAD PUSH1 0x1 PUSH1 0x1 PUSH1 0xA0 SHL SUB DUP2 AND DUP2 EQ PUSH2 0x2867 JUMPI PUSH0 PUSH0 REVERT JUMPDEST SWAP2 SWAP1 POP JUMP JUMPDEST PUSH0 PUSH0 PUSH1 0x40 DUP4 DUP6 SUB SLT ISZERO PUSH2 0x287D JUMPI PUSH0 PUSH0 REVERT JUMPDEST PUSH2 0x2886 DUP4 PUSH2 0x2851 JUMP JUMPDEST SWAP5 PUSH1 0x20 SWAP4 SWAP1 SWAP4 ADD CALLDATALOAD SWAP4 POP POP POP JUMP JUMPDEST PUSH0 PUSH0 PUSH0 PUSH1 0x60 DUP5 DUP7 SUB SLT ISZERO PUSH2 0x28A6 JUMPI PUSH0 PUSH0 REVERT JUMPDEST DUP4 CALLDATALOAD SWAP3 POP PUSH1 0x20 DUP5 ADD CALLDATALOAD PUSH1 0x1 PUSH1 0x1 PUSH1 0x40 SHL SUB DUP2 GT ISZERO PUSH2 0x28C2 JUMPI PUSH0 PUSH0 REVERT JUMPDEST PUSH2 0x28CE DUP7 DUP3 DUP8 ADD PUSH2 0x270A JUMP JUMPDEST SWAP3 POP POP PUSH1 0x40 DUP5 ADD CALLDATALOAD PUSH1 0x1 PUSH1 0x1 PUSH1 0x40 SHL SUB DUP2 GT ISZERO PUSH2 0x28E9 JUMPI PUSH0 PUSH0 REVERT JUMPDEST PUSH2 0x28F5 DUP7 DUP3 DUP8 ADD PUSH2 0x270A JUMP JUMPDEST SWAP2 POP POP SWAP3 POP SWAP3 POP SWAP3 JUMP JUMPDEST PUSH0 PUSH0 PUSH0 PUSH1 0x60 DUP5 DUP7 SUB SLT ISZERO PUSH2 0x2911 JUMPI PUSH0 PUSH0 REVERT JUMPDEST PUSH2 0x291A DUP5 PUSH2 0x2851 JUMP JUMPDEST SWAP3 POP PUSH2 0x2928 PUSH1 0x20 DUP6 ADD PUSH2 0x2851 JUMP JUMPDEST SWAP3 SWAP6 SWAP3 SWAP5 POP POP POP PUSH1 0x40 SWAP2 SWAP1 SWAP2 ADD CALLDATALOAD SWAP1 JUMP JUMPDEST PUSH0 PUSH0 PUSH1 0x20 DUP4 DUP6 SUB SLT ISZERO PUSH2 0x294A JUMPI PUSH0 PUSH0 REVERT JUMPDEST DUP3 CALLDATALOAD PUSH1 0x1 PUSH1 0x1 PUSH1 0x40 SHL SUB DUP2 GT ISZERO PUSH2 0x295F JUMPI PUSH0 PUSH0 REVERT JUMPDEST DUP4 ADD PUSH1 0x1F DUP2 ADD DUP6 SGT PUSH2 0x296F JUMPI PUSH0 PUSH0 REVERT JUMPDEST DUP1 CALLDATALOAD PUSH1 0x1 PUSH1 0x1 PUSH1 0x40 SHL SUB DUP2 GT ISZERO PUSH2 0x2984 JUMPI PUSH0 PUSH0 REVERT JUMPDEST DUP6 PUSH1 0x20 DUP3 DUP5 ADD ADD GT ISZERO PUSH2 0x2995 JUMPI PUSH0 PUSH0 REVERT JUMPDEST PUSH1 0x20 SWAP2 SWAP1 SWAP2 ADD SWAP6 SWAP1 SWAP5 POP SWAP3 POP POP POP JUMP JUMPDEST PUSH0 PUSH1 0x20 DUP3 DUP5 SUB SLT ISZERO PUSH2 0x29B5 JUMPI PUSH0 PUSH0 REVERT JUMPDEST PUSH2 0x1399 DUP3 PUSH2 0x2851 JUMP JUMPDEST PUSH0 PUSH0 PUSH1 0x40 DUP4 DUP6 SUB SLT ISZERO PUSH2 0x29CF JUMPI PUSH0 PUSH0 REVERT JUMPDEST PUSH2 0x29D8 DUP4 PUSH2 0x2851 JUMP JUMPDEST SWAP2 POP PUSH1 0x20 DUP4 ADD CALLDATALOAD DUP1 ISZERO ISZERO DUP2 EQ PUSH2 0x29EC JUMPI PUSH0 PUSH0 REVERT JUMPDEST DUP1 SWAP2 POP POP SWAP3 POP SWAP3 SWAP1 POP JUMP JUMPDEST PUSH1 0xC0 DUP2 MSTORE PUSH0 PUSH2 0x2A09 PUSH1 0xC0 DUP4 ADD DUP10 PUSH2 0x27FA JUMP JUMPDEST DUP3 DUP2 SUB PUSH1 0x20 DUP5 ADD MSTORE PUSH2 0x2A1B DUP2 DUP10 PUSH2 0x27FA JUMP JUMPDEST PUSH1 0x1 PUSH1 0x1 PUSH1 0x40 SHL SUB SWAP8 DUP9 AND PUSH1 0x40 DUP6 ADD MSTORE SWAP6 DUP8 AND PUSH1 0x60 DUP5 ADD MSTORE POP POP SWAP2 DUP5 AND PUSH1 0x80 DUP4 ADD MSTORE SWAP1 SWAP3 AND PUSH1 0xA0 SWAP1 SWAP3 ADD SWAP2 SWAP1 SWAP2 MSTORE SWAP3 SWAP2 POP POP JUMP JUMPDEST PUSH0 PUSH0 PUSH0 PUSH0 PUSH1 0x80 DUP6 DUP8 SUB SLT ISZERO PUSH2 0x2A62 JUMPI PUSH0 PUSH0 REVERT JUMPDEST PUSH2 0x2A6B DUP6 PUSH2 0x2851 JUMP JUMPDEST SWAP4 POP PUSH2 0x2A79 PUSH1 0x20 DUP7 ADD PUSH2 0x2851 JUMP JUMPDEST SWAP3 POP PUSH1 0x40 DUP6 ADD CALLDATALOAD SWAP2 POP PUSH1 0x60 DUP6 ADD CALLDATALOAD PUSH1 0x1 PUSH1 0x1 PUSH1 0x40 SHL SUB DUP2 GT ISZERO PUSH2 0x2A9A JUMPI PUSH0 PUSH0 REVERT JUMPDEST PUSH2 0x2AA6 DUP8 DUP3 DUP9 ADD PUSH2 0x270A JUMP JUMPDEST SWAP2 POP POP SWAP3 SWAP6 SWAP2 SWAP5 POP SWAP3 POP JUMP JUMPDEST PUSH0 PUSH0 PUSH1 0x40 DUP4 DUP6 SUB SLT ISZERO PUSH2 0x2AC3 JUMPI PUSH0 PUSH0 REVERT JUMPDEST PUSH2 0x2ACC DUP4 PUSH2 0x2851 JUMP JUMPDEST SWAP2 POP PUSH2 0x2ADA PUSH1 0x20 DUP5 ADD PUSH2 0x2851 JUMP JUMPDEST SWAP1 POP SWAP3 POP SWAP3 SWAP1 POP JUMP JUMPDEST PUSH0 PUSH0 PUSH0 PUSH1 0x60 DUP5 DUP7 SUB SLT ISZERO PUSH2 0x2AF5 JUMPI PUSH0 PUSH0 REVERT JUMPDEST PUSH2 0x2AFE DUP5 PUSH2 0x2851 JUMP JUMPDEST SWAP3 POP PUSH1 0x20 DUP5 ADD CALLDATALOAD PUSH1 0x1 PUSH1 0x1 PUSH1 0x40 SHL SUB DUP2 GT ISZERO PUSH2 0x28C2 JUMPI PUSH0 PUSH0 REVERT JUMPDEST PUSH1 0x1 DUP2 DUP2 SHR SWAP1 DUP3 AND DUP1 PUSH2 0x2B2C JUMPI PUSH1 0x7F DUP3 AND SWAP2 POP JUMPDEST PUSH1 0x20 DUP3 LT DUP2 SUB PUSH2 0x2B4A JUMPI PUSH4 0x4E487B71 PUSH1 0xE0 SHL PUSH0 MSTORE PUSH1 0x22 PUSH1 0x4 MSTORE PUSH1 0x24 PUSH0 REVERT JUMPDEST POP SWAP2 SWAP1 POP JUMP JUMPDEST PUSH1 0x1F DUP3 GT ISZERO PUSH2 0x794 JUMPI DUP1 PUSH0 MSTORE PUSH1 0x20 PUSH0 KECCAK256 PUSH1 0x1F DUP5 ADD PUSH1 0x5 SHR DUP2 ADD PUSH1 0x20 DUP6 LT ISZERO PUSH2 0x2B75 JUMPI POP DUP1 JUMPDEST PUSH1 0x1F DUP5 ADD PUSH1 0x5 SHR DUP3 ADD SWAP2 POP JUMPDEST DUP2 DUP2 LT ISZERO PUSH2 0xDD1 JUMPI PUSH0 DUP2 SSTORE PUSH1 0x1 ADD PUSH2 0x2B81 JUMP JUMPDEST DUP2 MLOAD PUSH1 0x1 PUSH1 0x1 PUSH1 0x40 SHL SUB DUP2 GT ISZERO PUSH2 0x2BAD JUMPI PUSH2 0x2BAD PUSH2 0x26F6 JUMP JUMPDEST PUSH2 0x2BC1 DUP2 PUSH2 0x2BBB DUP5 SLOAD PUSH2 0x2B18 JUMP JUMPDEST DUP5 PUSH2 0x2B50 JUMP JUMPDEST PUSH1 0x20 PUSH1 0x1F DUP3 GT PUSH1 0x1 DUP2 EQ PUSH2 0x2BF3 JUMPI PUSH0 DUP4 ISZERO PUSH2 0x2BDC JUMPI POP DUP5 DUP3 ADD MLOAD JUMPDEST PUSH0 NOT PUSH1 0x3 DUP6 SWAP1 SHL SHR NOT AND PUSH1 0x1 DUP5 SWAP1 SHL OR DUP5 SSTORE PUSH2 0xDD1 JUMP JUMPDEST PUSH0 DUP5 DUP2 MSTORE PUSH1 0x20 DUP2 KECCAK256 PUSH1 0x1F NOT DUP6 AND SWAP2 JUMPDEST DUP3 DUP2 LT ISZERO PUSH2 0x2C22 JUMPI DUP8 DUP6 ADD MLOAD DUP3 SSTORE PUSH1 0x20 SWAP5 DUP6 ADD SWAP5 PUSH1 0x1 SWAP1 SWAP3 ADD SWAP2 ADD PUSH2 0x2C02 JUMP JUMPDEST POP DUP5 DUP3 LT ISZERO PUSH2 0x2C3F JUMPI DUP7 DUP5 ADD MLOAD PUSH0 NOT PUSH1 0x3 DUP8 SWAP1 SHL PUSH1 0xF8 AND SHR NOT AND DUP2 SSTORE JUMPDEST POP POP POP POP PUSH1 0x1 SWAP1 DUP2 SHL ADD SWAP1 SSTORE POP JUMP JUMPDEST PUSH4 0x4E487B71 PUSH1 0xE0 SHL PUSH0 MSTORE PUSH1 0x11 PUSH1 0x4 MSTORE PUSH1 0x24 PUSH0 REVERT JUMPDEST DUP2 DUP2 SUB DUP2 DUP2 GT ISZERO PUSH2 0x46F JUMPI PUSH2 0x46F PUSH2 0x2C4E JUMP JUMPDEST PUSH0 DUP2 MLOAD DUP1 PUSH1 0x20 DUP5 ADD DUP6 MCOPY PUSH0 SWAP4 ADD SWAP3 DUP4 MSTORE POP SWAP1 SWAP2 SWAP1 POP JUMP JUMPDEST PUSH0 PUSH2 0xA36 PUSH2 0x2C9A DUP4 DUP7 PUSH2 0x2C75 JUMP JUMPDEST DUP5 PUSH2 0x2C75 JUMP JUMPDEST PUSH0 PUSH1 0x1 DUP3 ADD PUSH2 0x2CB1 JUMPI PUSH2 0x2CB1 PUSH2 0x2C4E JUMP JUMPDEST POP PUSH1 0x1 ADD SWAP1 JUMP JUMPDEST PUSH0 PUSH1 0x20 DUP3 DUP5 SUB SLT ISZERO PUSH2 0x2CC8 JUMPI PUSH0 PUSH0 REVERT JUMPDEST POP MLOAD SWAP2 SWAP1 POP JUMP JUMPDEST PUSH4 0x4E487B71 PUSH1 0xE0 SHL PUSH0 MSTORE PUSH1 0x32 PUSH1 0x4 MSTORE PUSH1 0x24 PUSH0 REVERT JUMPDEST PUSH1 0x1 PUSH1 0x1 PUSH1 0xA0 SHL SUB DUP6 DUP2 AND DUP3 MSTORE DUP5 AND PUSH1 0x20 DUP3 ADD MSTORE PUSH1 0x40 DUP2 ADD DUP4 SWAP1 MSTORE PUSH1 0x80 PUSH1 0x60 DUP3 ADD DUP2 SWAP1 MSTORE PUSH0 SWAP1 PUSH2 0x2D15 SWAP1 DUP4 ADD DUP5 PUSH2 0x27FA JUMP JUMPDEST SWAP7 SWAP6 POP POP POP POP POP POP JUMP JUMPDEST PUSH0 PUSH1 0x20 DUP3 DUP5 SUB SLT ISZERO PUSH2 0x2D2F JUMPI PUSH0 PUSH0 REVERT JUMPDEST DUP2 MLOAD PUSH2 0x1399 DUP2 PUSH2 0x27CA JUMP JUMPDEST DUP1 DUP3 ADD DUP1 DUP3 GT ISZERO PUSH2 0x46F JUMPI PUSH2 0x46F PUSH2 0x2C4E JUMP JUMPDEST DUP1 DUP3 MUL DUP2 ISZERO DUP3 DUP3 DIV DUP5 EQ OR PUSH2 0x46F JUMPI PUSH2 0x46F PUSH2 0x2C4E JUMP JUMPDEST PUSH4 0x4E487B71 PUSH1 0xE0 SHL PUSH0 MSTORE PUSH1 0x12 PUSH1 0x4 MSTORE PUSH1 0x24 PUSH0 REVERT JUMPDEST PUSH0 DUP3 PUSH2 0x2D86 JUMPI PUSH2 0x2D86 PUSH2 0x2D64 JUMP JUMPDEST POP DIV SWAP1 JUMP JUMPDEST PUSH0 DUP3 PUSH2 0x2D99 JUMPI PUSH2 0x2D99 PUSH2 0x2D64 JUMP JUMPDEST POP MOD SWAP1 JUMP JUMPDEST PUSH0 PUSH2 0x2DA9 DUP3 DUP6 PUSH2 0x2C75 JUMP JUMPDEST PUSH1 0x17 PUSH1 0xF9 SHL DUP2 MSTORE PUSH2 0x2DBD PUSH1 0x1 DUP3 ADD DUP6 PUSH2 0x2C75 JUMP JUMPDEST SWAP6 SWAP5 POP POP POP POP POP JUMP JUMPDEST PUSH32 0x3C7376672077696474683D2233323022206865696768743D2234303022207669 DUP2 MSTORE PUSH32 0x6577426F783D2230203020333230203430302220786D6C6E733D22687474703A PUSH1 0x20 DUP3 ADD MSTORE PUSH32 0x2F2F7777772E77332E6F72672F323030302F737667223E3C672073686170652D PUSH1 0x40 DUP3 ADD MSTORE PUSH32 0x72656E646572696E673D2263726973704564676573223E000000000000000000 PUSH1 0x60 DUP3 ADD MSTORE PUSH0 PUSH2 0x2E69 PUSH1 0x77 DUP4 ADD DUP7 PUSH2 0x2C75 JUMP JUMPDEST PUSH4 0x1E17B39F PUSH1 0xE1 SHL DUP2 MSTORE PUSH2 0x2E89 PUSH2 0x2E83 PUSH1 0x4 DUP4 ADD DUP8 PUSH2 0x2C75 JUMP JUMPDEST DUP6 PUSH2 0x2C75 JUMP JUMPDEST PUSH6 0x1E17B9BB339F PUSH1 0xD1 SHL DUP2 MSTORE PUSH1 0x6 ADD SWAP7 SWAP6 POP POP POP POP POP POP JUMP JUMPDEST PUSH32 0x7B2274726169745F74797065223A20224E69636B6E616D65222C202276616C75 DUP2 MSTORE PUSH5 0x32911D1011 PUSH1 0xD9 SHL PUSH1 0x20 DUP3 ADD MSTORE PUSH0 PUSH2 0x2EE1 PUSH1 0x25 DUP4 ADD DUP10 PUSH2 0x2C75 JUMP JUMPDEST PUSH3 0x89F4B PUSH1 0xEA SHL DUP2 MSTORE PUSH32 0x7B2274726169745F74797065223A20224C616E65222C202276616C7565223A20 PUSH1 0x3 DUP3 ADD MSTORE PUSH1 0x11 PUSH1 0xF9 SHL PUSH1 0x23 DUP3 ADD MSTORE PUSH2 0x2F27 PUSH1 0x24 DUP3 ADD DUP10 PUSH2 0x2C75 JUMP JUMPDEST PUSH3 0x89F4B PUSH1 0xEA SHL DUP2 MSTORE PUSH32 0x7B2274726169745F74797065223A202247616D6573222C202276616C7565223A PUSH1 0x3 DUP3 ADD MSTORE PUSH1 0x1 PUSH1 0xFD SHL PUSH1 0x23 DUP3 ADD MSTORE SWAP1 POP PUSH2 0x2F70 PUSH1 0x24 DUP3 ADD JUMPDEST DUP9 PUSH2 0x2C75 JUMP JUMPDEST PUSH2 0x1F4B PUSH1 0xF2 SHL DUP2 MSTORE SWAP1 POP PUSH32 0x7B2274726169745F74797065223A20224B696C6C73222C202276616C7565223A PUSH1 0x2 DUP3 ADD MSTORE PUSH1 0x1 PUSH1 0xFD SHL PUSH1 0x22 DUP3 ADD MSTORE PUSH2 0x2FB7 PUSH1 0x23 DUP3 ADD DUP8 PUSH2 0x2C75 JUMP JUMPDEST PUSH2 0x1F4B PUSH1 0xF2 SHL DUP2 MSTORE SWAP1 POP PUSH32 0x7B2274726169745F74797065223A2022446561746873222C202276616C756522 PUSH1 0x2 DUP3 ADD MSTORE PUSH2 0x1D1 PUSH1 0xF5 SHL PUSH1 0x22 DUP3 ADD MSTORE PUSH2 0x3000 PUSH1 0x24 DUP3 ADD JUMPDEST DUP7 PUSH2 0x2C75 JUMP JUMPDEST PUSH2 0x1F4B PUSH1 0xF2 SHL DUP2 MSTORE SWAP1 POP PUSH32 0x7B2274726169745F74797065223A202241737369737473222C202276616C7565 PUSH1 0x2 DUP3 ADD MSTORE PUSH3 0x111D1 PUSH1 0xED SHL PUSH1 0x22 DUP3 ADD MSTORE PUSH2 0x3048 PUSH1 0x25 DUP3 ADD PUSH2 0x2E83 JUMP JUMPDEST PUSH1 0x7D PUSH1 0xF8 SHL DUP2 MSTORE PUSH1 0x1 ADD SWAP10 SWAP9 POP POP POP POP POP POP POP POP POP JUMP JUMPDEST PUSH22 0x7B226E616D65223A20224D504C204361726420412023 PUSH1 0x50 SHL DUP2 MSTORE PUSH0 PUSH2 0x3089 PUSH1 0x16 DUP4 ADD DUP7 PUSH2 0x2C75 JUMP JUMPDEST PUSH3 0x11161 PUSH1 0xED SHL DUP2 MSTORE PUSH32 0x226465736372697074696F6E223A20224B61727475204E6F6E2D4F7074696D69 PUSH1 0x3 DUP3 ADD MSTORE PUSH15 0x3D32B2101429A9AA27A9229491161 PUSH1 0x8D SHL PUSH1 0x23 DUP3 ADD MSTORE PUSH15 0x2261747472696275746573223A205B PUSH1 0x88 SHL PUSH1 0x32 DUP3 ADD MSTORE PUSH2 0x30F5 PUSH1 0x41 DUP3 ADD DUP7 PUSH2 0x2C75 JUMP JUMPDEST SWAP1 POP PUSH3 0x2E961 PUSH1 0xED SHL DUP2 MSTORE PUSH32 0x22696D616765223A2022646174613A696D6167652F7376672B786D6C3B626173 PUSH1 0x3 DUP3 ADD MSTORE PUSH4 0x194D8D0B PUSH1 0xE2 SHL PUSH1 0x23 DUP3 ADD MSTORE PUSH2 0x3140 PUSH1 0x27 DUP3 ADD DUP6 PUSH2 0x2C75 JUMP JUMPDEST PUSH2 0x227D PUSH1 0xF0 SHL DUP2 MSTORE PUSH1 0x2 ADD SWAP7 SWAP6 POP POP POP POP POP POP JUMP JUMPDEST PUSH32 0x646174613A6170706C69636174696F6E2F6A736F6E3B6261736536342C000000 DUP2 MSTORE PUSH0 PUSH2 0x1399 PUSH1 0x1D DUP4 ADD DUP5 PUSH2 0x2C75 JUMP JUMPDEST PUSH4 0x4E487B71 PUSH1 0xE0 SHL PUSH0 MSTORE PUSH1 0x21 PUSH1 0x4 MSTORE PUSH1 0x24 PUSH0 REVERT JUMPDEST PUSH1 0x1 PUSH1 0x1 PUSH1 0x40 SHL SUB DUP7 AND DUP2 MSTORE PUSH1 0xA0 PUSH1 0x20 DUP3 ADD MSTORE PUSH0 PUSH2 0x31BB PUSH1 0xA0 DUP4 ADD DUP8 PUSH2 0x27FA JUMP JUMPDEST PUSH2 0xFFFF SWAP6 SWAP1 SWAP6 AND PUSH1 0x40 DUP4 ADD MSTORE POP PUSH4 0xFFFFFFFF SWAP3 SWAP1 SWAP3 AND PUSH1 0x60 DUP4 ADD MSTORE PUSH1 0x80 SWAP1 SWAP2 ADD MSTORE SWAP3 SWAP2 POP POP JUMP JUMPDEST PUSH32 0x3C7265637420783D22302220793D2230222077696474683D2233323022206865 DUP2 MSTORE PUSH32 0x696768743D22343030222066696C6C3D2223306231303165222F3E0000000000 PUSH1 0x20 DUP3 ADD MSTORE PUSH32 0x3C7265637420783D22382220793D2238222077696474683D2233303422206865 PUSH1 0x3B DUP3 ADD DUP2 SWAP1 MSTORE PUSH32 0x696768743D22333834222066696C6C3D2223313431653333222F3E0000000000 PUSH1 0x5B DUP4 ADD MSTORE PUSH1 0x76 DUP3 ADD MSTORE PUSH32 0x696768743D22333834222066696C6C3D226E6F6E6522207374726F6B653D2223 PUSH1 0x96 DUP3 ADD MSTORE PUSH32 0x65373463336322207374726F6B652D77696474683D22312E35222072783D2232 PUSH1 0xB6 DUP3 ADD MSTORE PUSH3 0x11179F PUSH1 0xE9 SHL PUSH1 0xD6 DUP3 ADD MSTORE PUSH32 0x3C7465787420783D223136302220793D223336222066696C6C3D222365373463 PUSH1 0xD9 DUP3 ADD MSTORE PUSH32 0x33632220666F6E742D73697A653D2231362220746578742D616E63686F723D22 PUSH1 0xF9 DUP3 ADD MSTORE PUSH32 0x6D6964646C652220666F6E742D7765696768743D22626F6C642220666F6E742D PUSH2 0x119 DUP3 ADD MSTORE PUSH32 0x66616D696C793D226D6F6E6F7370616365223E4D504C20504C41594552204341 PUSH2 0x139 DUP3 ADD MSTORE PUSH9 0x29221E17BA32BC3A1F PUSH1 0xB9 SHL PUSH2 0x159 DUP3 ADD MSTORE PUSH32 0x3C6C696E652078313D223230222079313D223530222078323D22333030222079 PUSH2 0x162 DUP3 ADD MSTORE PUSH32 0x323D22353022207374726F6B653D222365373463336322207374726F6B652D77 PUSH2 0x182 DUP3 ADD MSTORE PUSH10 0x34B23A341E911911179F PUSH1 0xB1 SHL PUSH2 0x1A2 DUP3 ADD MSTORE PUSH0 PUSH2 0x1AC DUP3 ADD PUSH2 0x46F JUMP JUMPDEST PUSH32 0x3C67207472616E73666F726D3D227472616E736C617465283138302C20393529 DUP2 MSTORE PUSH32 0x222073686170652D72656E646572696E673D2263726973704564676573223E00 PUSH1 0x20 DUP3 ADD MSTORE PUSH32 0x3C7465787420783D222D33302220793D223230222066696C6C3D220000000000 PUSH1 0x3F DUP3 ADD MSTORE PUSH0 PUSH2 0x346D PUSH1 0x5A DUP4 ADD DUP6 PUSH2 0x2C75 JUMP JUMPDEST PUSH0 MLOAD PUSH1 0x20 PUSH2 0x3C66 PUSH0 CODECOPY PUSH0 MLOAD SWAP1 PUSH0 MSTORE DUP2 MSTORE PUSH32 0x6E6F7370616365223E504C41594552204E414D453A3C2F746578743E00000000 PUSH1 0x20 DUP3 ADD MSTORE PUSH32 0x3C7465787420783D222D33302220793D223436222066696C6C3D222365636630 PUSH1 0x3C DUP3 ADD MSTORE PUSH32 0x66312220666F6E742D73697A653D2232302220666F6E742D7765696768743D22 PUSH1 0x5C DUP3 ADD MSTORE PUSH32 0x626F6C642220666F6E742D66616D696C793D226D6F6E6F7370616365223E0000 PUSH1 0x7C DUP3 ADD MSTORE PUSH2 0x3522 PUSH1 0x9A DUP3 ADD DUP6 PUSH2 0x2C75 JUMP JUMPDEST PUSH7 0x1E17BA32BC3A1F PUSH1 0xC9 SHL DUP2 MSTORE PUSH32 0x3C6C696E652078313D222D3235222079313D223638222078323D223132302220 PUSH1 0x7 DUP3 ADD MSTORE PUSH32 0x79323D22363822207374726F6B653D222335353522207374726F6B652D776964 PUSH1 0x27 DUP3 ADD MSTORE PUSH32 0x74683D223322207374726F6B652D6461736861727261793D22382C36222F3E00 PUSH1 0x47 DUP3 ADD MSTORE PUSH1 0x66 ADD SWAP6 SWAP5 POP POP POP POP POP JUMP JUMPDEST PUSH32 0x3C7465787420783D222D33302220793D22393222202066696C6C3D2200000000 DUP2 MSTORE PUSH0 PUSH2 0x35DE PUSH1 0x1C DUP4 ADD DUP8 PUSH2 0x2C75 JUMP JUMPDEST PUSH0 MLOAD PUSH1 0x20 PUSH2 0x3C66 PUSH0 CODECOPY PUSH0 MLOAD SWAP1 PUSH0 MSTORE DUP2 MSTORE PUSH32 0x6E6F7370616365223E4C414E452020203A3C2F746578743E0000000000000000 PUSH1 0x20 DUP3 ADD MSTORE PUSH32 0x3C7465787420783D223132302220793D22393222202066696C6C3D2223656366 PUSH1 0x38 DUP3 ADD MSTORE PUSH0 MLOAD PUSH1 0x20 PUSH2 0x3C46 PUSH0 CODECOPY PUSH0 MLOAD SWAP1 PUSH0 MSTORE PUSH1 0x58 DUP3 ADD MSTORE PUSH0 MLOAD PUSH1 0x20 PUSH2 0x3C26 PUSH0 CODECOPY PUSH0 MLOAD SWAP1 PUSH0 MSTORE PUSH1 0x78 DUP3 ADD MSTORE PUSH2 0x366D PUSH1 0x96 DUP3 ADD DUP8 PUSH2 0x2C75 JUMP JUMPDEST SWAP1 POP PUSH7 0x1E17BA32BC3A1F PUSH1 0xC9 SHL DUP2 MSTORE PUSH32 0x3C7465787420783D222D33302220793D22313136222066696C6C3D2200000000 PUSH1 0x7 DUP3 ADD MSTORE PUSH2 0x36AF PUSH1 0x23 DUP3 ADD DUP7 PUSH2 0x2C75 JUMP JUMPDEST PUSH0 MLOAD PUSH1 0x20 PUSH2 0x3C66 PUSH0 CODECOPY PUSH0 MLOAD SWAP1 PUSH0 MSTORE DUP2 MSTORE PUSH32 0x6E6F7370616365223E47414D455320203A3C2F746578743E0000000000000000 PUSH1 0x20 DUP3 ADD MSTORE PUSH32 0x3C7465787420783D223132302220793D22313136222066696C6C3D2223656366 PUSH1 0x38 DUP3 ADD MSTORE PUSH0 MLOAD PUSH1 0x20 PUSH2 0x3C46 PUSH0 CODECOPY PUSH0 MLOAD SWAP1 PUSH0 MSTORE PUSH1 0x58 DUP3 ADD MSTORE PUSH0 MLOAD PUSH1 0x20 PUSH2 0x3C26 PUSH0 CODECOPY PUSH0 MLOAD SWAP1 PUSH0 MSTORE PUSH1 0x78 DUP3 ADD MSTORE SWAP1 POP PUSH2 0x373F PUSH1 0x96 DUP3 ADD PUSH2 0x2E83 JUMP JUMPDEST PUSH7 0x1E17BA32BC3A1F PUSH1 0xC9 SHL DUP2 MSTORE PUSH1 0x7 ADD SWAP8 SWAP7 POP POP POP POP POP POP POP JUMP JUMPDEST PUSH32 0x3C7465787420783D222D33302220793D22313430222066696C6C3D2200000000 DUP2 MSTORE PUSH0 PUSH2 0x378B PUSH1 0x1C DUP4 ADD DUP8 PUSH2 0x2C75 JUMP JUMPDEST PUSH0 MLOAD PUSH1 0x20 PUSH2 0x3C66 PUSH0 CODECOPY PUSH0 MLOAD SWAP1 PUSH0 MSTORE DUP2 MSTORE PUSH32 0x6E6F7370616365223E4B494C4C5320203A3C2F746578743E0000000000000000 PUSH1 0x20 DUP3 ADD MSTORE PUSH32 0x3C7465787420783D223132302220793D22313430222066696C6C3D2223656366 PUSH1 0x38 DUP3 ADD MSTORE PUSH0 MLOAD PUSH1 0x20 PUSH2 0x3C46 PUSH0 CODECOPY PUSH0 MLOAD SWAP1 PUSH0 MSTORE PUSH1 0x58 DUP3 ADD MSTORE PUSH0 MLOAD PUSH1 0x20 PUSH2 0x3C26 PUSH0 CODECOPY PUSH0 MLOAD SWAP1 PUSH0 MSTORE PUSH1 0x78 DUP3 ADD MSTORE PUSH2 0x381A PUSH1 0x96 DUP3 ADD DUP8 PUSH2 0x2C75 JUMP JUMPDEST SWAP1 POP PUSH7 0x1E17BA32BC3A1F PUSH1 0xC9 SHL DUP2 MSTORE PUSH32 0x3C7465787420783D222D33302220793D22313634222066696C6C3D2200000000 PUSH1 0x7 DUP3 ADD MSTORE PUSH2 0x385C PUSH1 0x23 DUP3 ADD DUP7 PUSH2 0x2C75 JUMP JUMPDEST PUSH0 MLOAD PUSH1 0x20 PUSH2 0x3C66 PUSH0 CODECOPY PUSH0 MLOAD SWAP1 PUSH0 MSTORE DUP2 MSTORE PUSH32 0x6E6F7370616365223E444541544853203A3C2F746578743E0000000000000000 PUSH1 0x20 DUP3 ADD MSTORE PUSH32 0x3C7465787420783D223132302220793D22313634222066696C6C3D2223656366 PUSH1 0x38 DUP3 ADD MSTORE PUSH0 MLOAD PUSH1 0x20 PUSH2 0x3C46 PUSH0 CODECOPY PUSH0 MLOAD SWAP1 PUSH0 MSTORE PUSH1 0x58 DUP3 ADD MSTORE PUSH0 MLOAD PUSH1 0x20 PUSH2 0x3C26 PUSH0 CODECOPY PUSH0 MLOAD SWAP1 PUSH0 MSTORE PUSH1 0x78 DUP3 ADD MSTORE SWAP1 POP PUSH2 0x373F PUSH1 0x96 DUP3 ADD PUSH2 0x2E83 JUMP JUMPDEST PUSH32 0x3C7465787420783D222D33302220793D22313838222066696C6C3D2200000000 DUP2 MSTORE PUSH0 PUSH2 0x391D PUSH1 0x1C DUP4 ADD DUP8 PUSH2 0x2C75 JUMP JUMPDEST PUSH0 MLOAD PUSH1 0x20 PUSH2 0x3C66 PUSH0 CODECOPY PUSH0 MLOAD SWAP1 PUSH0 MSTORE DUP2 MSTORE PUSH32 0x6E6F7370616365223E415353495354533A3C2F746578743E0000000000000000 PUSH1 0x20 DUP3 ADD MSTORE PUSH32 0x3C7465787420783D223132302220793D22313838222066696C6C3D2223656366 PUSH1 0x38 DUP3 ADD MSTORE PUSH0 MLOAD PUSH1 0x20 PUSH2 0x3C46 PUSH0 CODECOPY PUSH0 MLOAD SWAP1 PUSH0 MSTORE PUSH1 0x58 DUP3 ADD MSTORE PUSH0 MLOAD PUSH1 0x20 PUSH2 0x3C26 PUSH0 CODECOPY PUSH0 MLOAD SWAP1 PUSH0 MSTORE PUSH1 0x78 DUP3 ADD MSTORE PUSH2 0x39AC PUSH1 0x96 DUP3 ADD DUP8 PUSH2 0x2C75 JUMP JUMPDEST SWAP1 POP PUSH7 0x1E17BA32BC3A1F PUSH1 0xC9 SHL DUP2 MSTORE PUSH32 0x3C7465787420783D222D33302220793D22323132222066696C6C3D2200000000 PUSH1 0x7 DUP3 ADD MSTORE PUSH2 0x39EE PUSH1 0x23 DUP3 ADD DUP7 PUSH2 0x2C75 JUMP JUMPDEST PUSH0 MLOAD PUSH1 0x20 PUSH2 0x3C66 PUSH0 CODECOPY PUSH0 MLOAD SWAP1 PUSH0 MSTORE DUP2 MSTORE PUSH32 0x6E6F7370616365223E4B4441202020203A3C2F746578743E0000000000000000 PUSH1 0x20 DUP3 ADD MSTORE SWAP1 POP PUSH1 0x38 DUP2 ADD PUSH2 0x3A80 PUSH2 0x2FFA DUP3 PUSH32 0x3C7465787420783D223132302220793D22323132222066696C6C3D2223656366 DUP2 MSTORE PUSH0 MLOAD PUSH1 0x20 PUSH2 0x3C46 PUSH0 CODECOPY PUSH0 MLOAD SWAP1 PUSH0 MSTORE PUSH1 0x20 DUP3 ADD MSTORE PUSH0 MLOAD PUSH1 0x20 PUSH2 0x3C26 PUSH0 CODECOPY PUSH0 MLOAD SWAP1 PUSH0 MSTORE PUSH1 0x40 DUP3 ADD MSTORE PUSH1 0x5E ADD SWAP1 JUMP JUMPDEST SWAP2 POP POP PUSH2 0x3A96 DUP2 PUSH7 0x1E17BA32BC3A1F PUSH1 0xC9 SHL SWAP1 MSTORE JUMP JUMPDEST PUSH32 0x3C6C696E652078313D222D3330222079313D22323238222078323D2231323022 PUSH1 0x7 DUP3 ADD MSTORE PUSH32 0x2079323D2232323822207374726F6B653D222335353522207374726F6B652D77 PUSH1 0x27 DUP3 ADD MSTORE PUSH32 0x696474683D223322207374726F6B652D6461736861727261793D22382C36222F PUSH1 0x47 DUP3 ADD MSTORE PUSH5 0x1F1E17B39F PUSH1 0xD9 SHL PUSH1 0x67 DUP3 ADD MSTORE PUSH1 0x6C ADD SWAP7 SWAP6 POP POP POP POP POP POP JUMP JUMPDEST PUSH0 PUSH2 0x2D15 PUSH2 0x2C9A PUSH2 0x2FFA PUSH2 0x2F6A DUP6 DUP11 PUSH2 0x2C75 JUMP JUMPDEST PUSH1 0x1 DUP2 JUMPDEST PUSH1 0x1 DUP5 GT ISZERO PUSH2 0x3B72 JUMPI DUP1 DUP6 DIV DUP2 GT ISZERO PUSH2 0x3B56 JUMPI PUSH2 0x3B56 PUSH2 0x2C4E JUMP JUMPDEST PUSH1 0x1 DUP5 AND ISZERO PUSH2 0x3B64 JUMPI SWAP1 DUP2 MUL SWAP1 JUMPDEST PUSH1 0x1 SWAP4 SWAP1 SWAP4 SHR SWAP3 DUP1 MUL PUSH2 0x3B3B JUMP JUMPDEST SWAP4 POP SWAP4 SWAP2 POP POP JUMP JUMPDEST PUSH0 DUP3 PUSH2 0x3B88 JUMPI POP PUSH1 0x1 PUSH2 0x46F JUMP JUMPDEST DUP2 PUSH2 0x3B94 JUMPI POP PUSH0 PUSH2 0x46F JUMP JUMPDEST DUP2 PUSH1 0x1 DUP2 EQ PUSH2 0x3BAA JUMPI PUSH1 0x2 DUP2 EQ PUSH2 0x3BB4 JUMPI PUSH2 0x3BD0 JUMP JUMPDEST PUSH1 0x1 SWAP2 POP POP PUSH2 0x46F JUMP JUMPDEST PUSH1 0xFF DUP5 GT ISZERO PUSH2 0x3BC5 JUMPI PUSH2 0x3BC5 PUSH2 0x2C4E JUMP JUMPDEST POP POP PUSH1 0x1 DUP3 SHL PUSH2 0x46F JUMP JUMPDEST POP PUSH1 0x20 DUP4 LT PUSH2 0x133 DUP4 LT AND PUSH1 0x4E DUP5 LT PUSH1 0xB DUP5 LT AND OR ISZERO PUSH2 0x3BF3 JUMPI POP DUP2 DUP2 EXP PUSH2 0x46F JUMP JUMPDEST PUSH2 0x3BFF PUSH0 NOT DUP5 DUP5 PUSH2 0x3B37 JUMP JUMPDEST DUP1 PUSH0 NOT DIV DUP3 GT ISZERO PUSH2 0x3C12 JUMPI PUSH2 0x3C12 PUSH2 0x2C4E JUMP JUMPDEST MUL SWAP4 SWAP3 POP POP POP JUMP JUMPDEST PUSH0 PUSH2 0x1399 DUP4 DUP4 PUSH2 0x3B7A JUMP INVALID 0x22 PUSH6 0x6E642220666F PUSH15 0x742D66616D696C793D226D6F6E6F73 PUSH17 0x616365223E00003066312220666F6E742D PUSH20 0x697A653D2231332220746578742D616E63686F72 RETURNDATASIZE 0x22 KECCAK256 PUSH7 0x6F6E742D73697A PUSH6 0x3D2231332220 PUSH7 0x6F6E742D66616D PUSH10 0x6C793D226D6F3C737667 KECCAK256 PUSH25 0x3D2231302220793D223330222077696474683D223134302220 PUSH9 0x65696768743D223338 ADDRESS 0x22 KECCAK256 PUSH23 0x696577426F783D22302030203332203332222073686170 PUSH6 0x2D72656E6465 PUSH19 0x696E673D2263726973704564676573223E3C67 KECCAK256 PUSH21 0x72616E73666F726D3D227472616E736C6174652833 ORIGIN 0x2C KECCAK256 ADDRESS 0x29 KECCAK256 PUSH20 0x63616C65282D312C203129223E3C706174682066 PUSH10 0x6C6C3D22233030303030 ADDRESS 0x22 KECCAK256 PUSH5 0x3D224D3131 KECCAK256 ORIGIN PUSH9 0x313076314831317A20 0x4D CODECOPY KECCAK256 CALLER PUSH9 0x32763148397A204D32 BALANCE KECCAK256 CALLER PUSH9 0x3276314832317A204D CODESIZE KECCAK256 CALLVALUE PUSH9 0x31763148387A204D32 CALLER KECCAK256 CALLVALUE PUSH9 0x3176314832337A204D CODESIZE KECCAK256 CALLDATALOAD PUSH9 0x31763148387A204D32 CALLVALUE KECCAK256 CALLDATALOAD PUSH9 0x3176314832347A204D CODESIZE KECCAK256 CALLDATASIZE PUSH9 0x31763148387A204D32 CALLVALUE KECCAK256 CALLDATASIZE PUSH9 0x3176314832347A204D CODESIZE KECCAK256 CALLDATACOPY PUSH9 0x31763148387A204D32 CALLVALUE KECCAK256 CALLDATACOPY PUSH9 0x3176314832347A204D CODESIZE KECCAK256 CODESIZE PUSH9 0x31763148387A204D32 CALLVALUE KECCAK256 CODESIZE PUSH9 0x3176314832347A204D CODECOPY KECCAK256 CODECOPY PUSH9 0x31763148397A204D32 CALLVALUE KECCAK256 CODECOPY PUSH9 0x3176314832347A204D CODECOPY KECCAK256 BALANCE ADDRESS PUSH9 0x31763148397A204D32 CALLER KECCAK256 BALANCE ADDRESS PUSH9 0x3176314832337A204D CODECOPY KECCAK256 BALANCE BALANCE PUSH9 0x31763148397A204D31 ORIGIN KECCAK256 BALANCE BALANCE PUSH9 0x3276314831327A204D BALANCE CODESIZE KECCAK256 BALANCE BALANCE PUSH9 0x3276314831387A204D ORIGIN CALLER KECCAK256 BALANCE BALANCE PUSH9 0x3176314832337A204D CODECOPY KECCAK256 BALANCE ORIGIN PUSH9 0x31763148397A204D32 CALLER KECCAK256 BALANCE ORIGIN PUSH9 0x3176314832337A204D BALANCE ADDRESS KECCAK256 BALANCE CALLER PUSH9 0x3176314831307A204D ORIGIN ORIGIN KECCAK256 BALANCE CALLER PUSH9 0x3176314832327A204D BALANCE ADDRESS KECCAK256 BALANCE CALLVALUE PUSH9 0x3176314831307A204D ORIGIN ORIGIN KECCAK256 BALANCE CALLVALUE PUSH9 0x3176314832327A204D BALANCE ADDRESS KECCAK256 BALANCE CALLDATALOAD PUSH9 0x3176314831307A204D ORIGIN ORIGIN KECCAK256 BALANCE CALLDATALOAD PUSH9 0x3176314832327A204D BALANCE BALANCE KECCAK256 BALANCE CALLDATASIZE PUSH9 0x3176314831317A204D ORIGIN BALANCE KECCAK256 BALANCE CALLDATASIZE PUSH9 0x3176314832317A204D BALANCE BALANCE KECCAK256 BALANCE CALLDATACOPY PUSH9 0x3176314831317A204D ORIGIN BALANCE KECCAK256 BALANCE CALLDATACOPY PUSH9 0x3176314832317A204D BALANCE ORIGIN KECCAK256 BALANCE CODESIZE PUSH9 0x3176314831327A204D ORIGIN ADDRESS KECCAK256 BALANCE CODESIZE PUSH9 0x3176314832307A204D BALANCE ORIGIN KECCAK256 BALANCE CODECOPY PUSH9 0x3176314831327A204D ORIGIN ADDRESS KECCAK256 BALANCE CODECOPY PUSH9 0x3176314832307A204D BALANCE BALANCE KECCAK256 ORIGIN ADDRESS PUSH9 0x3176314831317A204D ORIGIN BALANCE KECCAK256 ORIGIN ADDRESS PUSH9 0x3176314832317A204D CODECOPY KECCAK256 ORIGIN BALANCE PUSH9 0x32763148397A204D32 ORIGIN KECCAK256 ORIGIN BALANCE PUSH9 0x3276314832327A204D CALLDATACOPY KECCAK256 ORIGIN ORIGIN PUSH9 0x32763148377A204D32 CALLVALUE KECCAK256 ORIGIN ORIGIN PUSH9 0x3276314832347A204D CALLDATASIZE KECCAK256 ORIGIN CALLER PUSH9 0x31763148367A204D32 CALLDATASIZE KECCAK256 ORIGIN CALLER PUSH9 0x3176314832367A204D CALLDATALOAD KECCAK256 ORIGIN CALLVALUE PUSH9 0x31763148357A204D32 CALLDATACOPY KECCAK256 ORIGIN CALLVALUE PUSH9 0x3176314832377A204D CALLVALUE KECCAK256 ORIGIN CALLDATALOAD PUSH9 0x31763148347A204D32 CODESIZE KECCAK256 ORIGIN CALLDATALOAD PUSH9 0x3176314832387A204D CALLER KECCAK256 ORIGIN CALLDATASIZE PUSH9 0x31763148337A204D32 CODECOPY KECCAK256 ORIGIN CALLDATASIZE PUSH9 0x3176314832397A204D CALLER KECCAK256 ORIGIN CALLDATACOPY PUSH9 0x31763148337A204D32 CODECOPY KECCAK256 ORIGIN CALLDATACOPY PUSH9 0x3176314832397A204D CALLER KECCAK256 ORIGIN CODESIZE PUSH9 0x31763148337A204D32 CODECOPY KECCAK256 ORIGIN CODESIZE PUSH9 0x3176314832397A204D CALLER KECCAK256 ORIGIN CODECOPY PUSH9 0x31763148337A204D32 CODECOPY KECCAK256 ORIGIN CODECOPY PUSH9 0x3176314832397A204D CALLER KECCAK256 CALLER ADDRESS PUSH9 0x31763148337A204D32 CODECOPY KECCAK256 CALLER ADDRESS PUSH9 0x3176314832397A204D CALLER KECCAK256 CALLER BALANCE PUSH9 0x3237763148337A2220 0x2F RETURNDATACOPY EXTCODECOPY PUSH17 0x6174682066696C6C3D2223303030303030 0x22 KECCAK256 PUSH5 0x3D224D3131 KECCAK256 CALLER PUSH9 0x313076314831317A20 0x4D CODECOPY KECCAK256 CALLVALUE PUSH9 0x3134763148397A204D CODECOPY KECCAK256 CALLDATALOAD PUSH9 0x3135763148397A204D CODECOPY KECCAK256 CALLDATASIZE PUSH9 0x3135763148397A204D CODECOPY KECCAK256 CALLDATACOPY PUSH9 0x3135763148397A204D CODECOPY KECCAK256 CODESIZE PUSH9 0x33763148397A204D32 ADDRESS KECCAK256 CODESIZE PUSH9 0x3476314832307A204D BALANCE ADDRESS KECCAK256 CODECOPY PUSH9 0x3276314831307A204D ORIGIN ORIGIN KECCAK256 CODECOPY PUSH9 0x3276314832327A204D BALANCE ADDRESS KECCAK256 BALANCE ADDRESS PUSH9 0x3176314831307A204D ORIGIN ORIGIN KECCAK256 BALANCE ADDRESS PUSH9 0x3176314832327A2220 0x2F RETURNDATACOPY EXTCODECOPY PUSH17 0x6174682066696C6C3D2223653462353930 0x22 KECCAK256 PUSH5 0x3D224D3132 KECCAK256 CODESIZE PUSH9 0x3876314831327A204D BALANCE ORIGIN KECCAK256 CODECOPY PUSH9 0x313076314831327A20 0x4D BALANCE BALANCE KECCAK256 BALANCE ADDRESS PUSH9 0x313176314831317A20 0x4D BALANCE ADDRESS KECCAK256 BALANCE BALANCE PUSH9 0x3276314831307A204D BALANCE CALLVALUE KECCAK256 BALANCE BALANCE PUSH9 0x3476314831347A204D ORIGIN ADDRESS KECCAK256 BALANCE BALANCE PUSH9 0x3376314832307A204D BALANCE ADDRESS KECCAK256 BALANCE ORIGIN PUSH9 0x313376314831307A20 0x4D BALANCE BALANCE KECCAK256 BALANCE CALLER PUSH9 0x3476314831317A204D BALANCE CALLDATACOPY KECCAK256 BALANCE CALLER PUSH9 0x3576314831377A204D BALANCE BALANCE KECCAK256 BALANCE CALLVALUE PUSH9 0x313176314831317A20 0x4D BALANCE BALANCE KECCAK256 BALANCE CALLDATALOAD PUSH9 0x3376314831317A204D BALANCE CODESIZE KECCAK256 BALANCE CALLDATALOAD PUSH9 0x3476314831387A204D BALANCE ORIGIN KECCAK256 BALANCE CALLDATASIZE PUSH9 0x3976314831327A204D BALANCE ORIGIN KECCAK256 BALANCE CALLDATACOPY PUSH9 0x3976314831327A204D BALANCE CALLER KECCAK256 BALANCE CODESIZE PUSH9 0x3776314831337A2220 0x2F RETURNDATACOPY EXTCODECOPY PUSH17 0x6174682066696C6C3D2223633539343733 0x22 KECCAK256 PUSH5 0x3D224D3135 KECCAK256 BALANCE CALLER PUSH9 0x3276314831357A204D BALANCE CALLER KECCAK256 BALANCE CODECOPY PUSH9 0x3776314831337A204D BALANCE CALLVALUE KECCAK256 ORIGIN ADDRESS PUSH9 0x3576314831347A2220 0x2F RETURNDATACOPY EXTCODECOPY PUSH17 0x6174682066696C6C3D2223626436613466 0x22 KECCAK256 PUSH5 0x3D224D3134 KECCAK256 BALANCE CALLDATALOAD PUSH9 0x3476314831347A2220 0x2F RETURNDATACOPY EXTCODECOPY PUSH17 0x6174682066696C6C3D2223666666666666 0x22 KECCAK256 PUSH5 0x3D224D3132 KECCAK256 ORIGIN ADDRESS PUSH9 0x3276314831327A204D BALANCE CODECOPY KECCAK256 ORIGIN ADDRESS PUSH9 0x3276314831397A204D BALANCE BALANCE KECCAK256 ORIGIN BALANCE PUSH9 0x3376314831317A204D BALANCE CODECOPY KECCAK256 ORIGIN BALANCE PUSH9 0x3376314831397A204D CODECOPY KECCAK256 ORIGIN ORIGIN PUSH9 0x34763148397A204D32 ADDRESS KECCAK256 ORIGIN ORIGIN PUSH9 0x3476314832307A204D CALLDATACOPY KECCAK256 ORIGIN CALLER PUSH9 0x35763148377A204D32 BALANCE KECCAK256 ORIGIN CALLER PUSH9 0x3576314832317A204D CALLDATASIZE KECCAK256 ORIGIN CALLVALUE PUSH9 0x35763148367A204D32 ORIGIN KECCAK256 ORIGIN CALLVALUE PUSH9 0x3576314832327A204D CALLDATALOAD KECCAK256 ORIGIN CALLDATALOAD PUSH9 0x35763148357A204D31 CALLER KECCAK256 ORIGIN CALLDATALOAD PUSH9 0x3276314831337A204D BALANCE CALLDATASIZE KECCAK256 ORIGIN CALLDATALOAD PUSH9 0x3276314831367A204D BALANCE CODECOPY KECCAK256 ORIGIN CALLDATALOAD PUSH9 0x3276314831397A204D ORIGIN CALLER KECCAK256 ORIGIN CALLDATALOAD PUSH9 0x3576314832337A204D CALLVALUE KECCAK256 ORIGIN CALLDATASIZE PUSH9 0x35763148347A204D32 CALLVALUE KECCAK256 ORIGIN CALLDATASIZE PUSH9 0x3576314832347A204D CALLVALUE KECCAK256 ORIGIN CALLDATACOPY PUSH9 0x34763148347A204D32 CALLDATALOAD KECCAK256 ORIGIN CALLDATACOPY PUSH9 0x3476314832357A204D CALLVALUE KECCAK256 ORIGIN CODESIZE PUSH9 0x34763148347A204D32 CALLDATALOAD KECCAK256 ORIGIN CODESIZE PUSH9 0x3476314832357A204D CALLVALUE KECCAK256 ORIGIN CODECOPY PUSH9 0x34763148347A204D32 CALLDATALOAD KECCAK256 ORIGIN CODECOPY PUSH9 0x3476314832357A204D CALLDATASIZE KECCAK256 CALLER ADDRESS PUSH9 0x32763148367A204D32 CALLDATALOAD KECCAK256 CALLER ADDRESS PUSH9 0x3276314832357A2220 0x2F RETURNDATACOPY EXTCODECOPY PUSH17 0x6174682066696C6C3D2223656638313135 0x22 KECCAK256 PUSH5 0x3D224D3134 KECCAK256 ORIGIN BALANCE PUSH9 0x3576314831347A204D BALANCE CALLER KECCAK256 ORIGIN ORIGIN PUSH9 0x3776314831337A204D BALANCE ORIGIN KECCAK256 ORIGIN CALLER PUSH9 0x3976314831327A204D BALANCE BALANCE KECCAK256 ORIGIN CALLVALUE PUSH9 0x313176314831317A20 0x4D BALANCE ADDRESS KECCAK256 ORIGIN CALLDATALOAD PUSH9 0x3376314831307A204D BALANCE CALLDATALOAD KECCAK256 ORIGIN CALLDATALOAD PUSH9 0x3176314831357A204D BALANCE CODESIZE KECCAK256 ORIGIN CALLDATALOAD PUSH9 0x3176314831387A204D ORIGIN BALANCE KECCAK256 ORIGIN CALLDATALOAD PUSH9 0x3276314832317A204D CODECOPY KECCAK256 ORIGIN CALLDATASIZE PUSH9 0x3135763148397A204D CODESIZE KECCAK256 ORIGIN CALLDATACOPY PUSH9 0x3137763148387A204D CODESIZE KECCAK256 ORIGIN CODESIZE PUSH9 0x3137763148387A204D CODESIZE KECCAK256 ORIGIN CODECOPY PUSH9 0x3137763148387A204D CALLVALUE KECCAK256 CALLER ADDRESS PUSH9 0x32763148347A204D38 KECCAK256 CALLER ADDRESS PUSH9 0x3137763148387A204D ORIGIN CALLDATACOPY KECCAK256 CALLER ADDRESS PUSH9 0x3276314832377A2220 0x2F RETURNDATACOPY EXTCODECOPY 0x2F PUSH8 0x3E3C2F7376673EA2 PUSH5 0x6970667358 0x22 SLT KECCAK256 RJUMP 0x7393 RJUMP 0x50E9 BLOBHASH PUSH11 0xA42203E184A2C31AE88BCA PUSH26 0x36DA3C69FC967AF45EA4661964736F6C634300081E0033000000 "
		},
		"gasEstimates": {
			"creation": {
				"codeDepositCost": "3548600",
				"executionCost": "infinite",
				"totalCost": "infinite"
			},
			"external": {
				"approve(address,uint256)": "31508",
				"balanceOf(address)": "2675",
				"getApproved(uint256)": "infinite",
				"handleOracleFulfillment(bytes32,bytes,bytes)": "infinite",
				"interval()": "2383",
				"isApprovedForAll(address,address)": "infinite",
				"lastTimeStamp()": "2361",
				"name()": "infinite",
				"owner()": "2397",
				"ownerOf(uint256)": "infinite",
				"performUpkeep(bytes)": "infinite",
				"renounceOwnership()": "infinite",
				"requestStatsUpdate(uint256)": "infinite",
				"s_playerData(uint256)": "infinite",
				"s_requestExists(bytes32)": "2504",
				"s_requestToTokenId(bytes32)": "2503",
				"safeMint(address,string,string)": "infinite",
				"safeTransferFrom(address,address,uint256)": "infinite",
				"safeTransferFrom(address,address,uint256,bytes)": "infinite",
				"setApprovalForAll(address,bool)": "26757",
				"setSourceCode(string)": "infinite",
				"sourceCode()": "infinite",
				"subscriptionId()": "2426",
				"supportsInterface(bytes4)": "infinite",
				"symbol()": "infinite",
				"targetTokenIdToUpdate()": "2405",
				"tokenURI(uint256)": "infinite",
				"transferFrom(address,address,uint256)": "infinite",
				"transferOwnership(address)": "28443"
			},
			"internal": {
				"_rebuildAndStoreTokenURI(uint256)": "infinite",
				"_requestStatsInternal(uint256,string memory)": "infinite",
				"fulfillRequest(bytes32,bytes memory,bytes memory)": "infinite"
			}
		},
		"methodIdentifiers": {
			"approve(address,uint256)": "095ea7b3",
			"balanceOf(address)": "70a08231",
			"getApproved(uint256)": "081812fc",
			"handleOracleFulfillment(bytes32,bytes,bytes)": "0ca76175",
			"interval()": "947a36fb",
			"isApprovedForAll(address,address)": "e985e9c5",
			"lastTimeStamp()": "3f3b3b27",
			"name()": "06fdde03",
			"owner()": "8da5cb5b",
			"ownerOf(uint256)": "6352211e",
			"performUpkeep(bytes)": "4585e33b",
			"renounceOwnership()": "715018a6",
			"requestStatsUpdate(uint256)": "2839b78f",
			"s_playerData(uint256)": "b4cfae44",
			"s_requestExists(bytes32)": "20457fb6",
			"s_requestToTokenId(bytes32)": "68015a4b",
			"safeMint(address,string,string)": "eca81d42",
			"safeTransferFrom(address,address,uint256)": "42842e0e",
			"safeTransferFrom(address,address,uint256,bytes)": "b88d4fde",
			"setApprovalForAll(address,bool)": "a22cb465",
			"setSourceCode(string)": "00b46767",
			"sourceCode()": "13c60177",
			"subscriptionId()": "09c1ba2e",
			"supportsInterface(bytes4)": "01ffc9a7",
			"symbol()": "95d89b41",
			"targetTokenIdToUpdate()": "94881476",
			"tokenURI(uint256)": "c87b56dd",
			"transferFrom(address,address,uint256)": "23b872dd",
			"transferOwnership(address)": "f2fde38b"
		}
	},
	"abi": [
		{
			"inputs": [
				{
					"internalType": "uint64",
					"name": "_subscriptionId",
					"type": "uint64"
				}
			],
			"stateMutability": "nonpayable",
			"type": "constructor"
		},
		{
			"inputs": [
				{
					"internalType": "address",
					"name": "sender",
					"type": "address"
				},
				{
					"internalType": "uint256",
					"name": "tokenId",
					"type": "uint256"
				},
				{
					"internalType": "address",
					"name": "owner",
					"type": "address"
				}
			],
			"name": "ERC721IncorrectOwner",
			"type": "error"
		},
		{
			"inputs": [
				{
					"internalType": "address",
					"name": "operator",
					"type": "address"
				},
				{
					"internalType": "uint256",
					"name": "tokenId",
					"type": "uint256"
				}
			],
			"name": "ERC721InsufficientApproval",
			"type": "error"
		},
		{
			"inputs": [
				{
					"internalType": "address",
					"name": "approver",
					"type": "address"
				}
			],
			"name": "ERC721InvalidApprover",
			"type": "error"
		},
		{
			"inputs": [
				{
					"internalType": "address",
					"name": "operator",
					"type": "address"
				}
			],
			"name": "ERC721InvalidOperator",
			"type": "error"
		},
		{
			"inputs": [
				{
					"internalType": "address",
					"name": "owner",
					"type": "address"
				}
			],
			"name": "ERC721InvalidOwner",
			"type": "error"
		},
		{
			"inputs": [
				{
					"internalType": "address",
					"name": "receiver",
					"type": "address"
				}
			],
			"name": "ERC721InvalidReceiver",
			"type": "error"
		},
		{
			"inputs": [
				{
					"internalType": "address",
					"name": "sender",
					"type": "address"
				}
			],
			"name": "ERC721InvalidSender",
			"type": "error"
		},
		{
			"inputs": [
				{
					"internalType": "uint256",
					"name": "tokenId",
					"type": "uint256"
				}
			],
			"name": "ERC721NonexistentToken",
			"type": "error"
		},
		{
			"inputs": [],
			"name": "EmptyArgs",
			"type": "error"
		},
		{
			"inputs": [],
			"name": "EmptySource",
			"type": "error"
		},
		{
			"inputs": [],
			"name": "NoInlineSecrets",
			"type": "error"
		},
		{
			"inputs": [],
			"name": "OnlyRouterCanFulfill",
			"type": "error"
		},
		{
			"inputs": [
				{
					"internalType": "address",
					"name": "owner",
					"type": "address"
				}
			],
			"name": "OwnableInvalidOwner",
			"type": "error"
		},
		{
			"inputs": [
				{
					"internalType": "address",
					"name": "account",
					"type": "address"
				}
			],
			"name": "OwnableUnauthorizedAccount",
			"type": "error"
		},
		{
			"anonymous": false,
			"inputs": [
				{
					"indexed": true,
					"internalType": "address",
					"name": "owner",
					"type": "address"
				},
				{
					"indexed": true,
					"internalType": "address",
					"name": "approved",
					"type": "address"
				},
				{
					"indexed": true,
					"internalType": "uint256",
					"name": "tokenId",
					"type": "uint256"
				}
			],
			"name": "Approval",
			"type": "event"
		},
		{
			"anonymous": false,
			"inputs": [
				{
					"indexed": true,
					"internalType": "address",
					"name": "owner",
					"type": "address"
				},
				{
					"indexed": true,
					"internalType": "address",
					"name": "operator",
					"type": "address"
				},
				{
					"indexed": false,
					"internalType": "bool",
					"name": "approved",
					"type": "bool"
				}
			],
			"name": "ApprovalForAll",
			"type": "event"
		},
		{
			"anonymous": false,
			"inputs": [
				{
					"indexed": false,
					"internalType": "uint256",
					"name": "_fromTokenId",
					"type": "uint256"
				},
				{
					"indexed": false,
					"internalType": "uint256",
					"name": "_toTokenId",
					"type": "uint256"
				}
			],
			"name": "BatchMetadataUpdate",
			"type": "event"
		},
		{
			"anonymous": false,
			"inputs": [
				{
					"indexed": false,
					"internalType": "uint256",
					"name": "_tokenId",
					"type": "uint256"
				}
			],
			"name": "MetadataUpdate",
			"type": "event"
		},
		{
			"anonymous": false,
			"inputs": [
				{
					"indexed": true,
					"internalType": "address",
					"name": "previousOwner",
					"type": "address"
				},
				{
					"indexed": true,
					"internalType": "address",
					"name": "newOwner",
					"type": "address"
				}
			],
			"name": "OwnershipTransferred",
			"type": "event"
		},
		{
			"anonymous": false,
			"inputs": [
				{
					"indexed": true,
					"internalType": "bytes32",
					"name": "id",
					"type": "bytes32"
				}
			],
			"name": "RequestFulfilled",
			"type": "event"
		},
		{
			"anonymous": false,
			"inputs": [
				{
					"indexed": true,
					"internalType": "bytes32",
					"name": "id",
					"type": "bytes32"
				}
			],
			"name": "RequestSent",
			"type": "event"
		},
		{
			"anonymous": false,
			"inputs": [
				{
					"indexed": true,
					"internalType": "address",
					"name": "from",
					"type": "address"
				},
				{
					"indexed": true,
					"internalType": "address",
					"name": "to",
					"type": "address"
				},
				{
					"indexed": true,
					"internalType": "uint256",
					"name": "tokenId",
					"type": "uint256"
				}
			],
			"name": "Transfer",
			"type": "event"
		},
		{
			"inputs": [
				{
					"internalType": "address",
					"name": "to",
					"type": "address"
				},
				{
					"internalType": "uint256",
					"name": "tokenId",
					"type": "uint256"
				}
			],
			"name": "approve",
			"outputs": [],
			"stateMutability": "nonpayable",
			"type": "function"
		},
		{
			"inputs": [
				{
					"internalType": "address",
					"name": "owner",
					"type": "address"
				}
			],
			"name": "balanceOf",
			"outputs": [
				{
					"internalType": "uint256",
					"name": "",
					"type": "uint256"
				}
			],
			"stateMutability": "view",
			"type": "function"
		},
		{
			"inputs": [
				{
					"internalType": "uint256",
					"name": "tokenId",
					"type": "uint256"
				}
			],
			"name": "getApproved",
			"outputs": [
				{
					"internalType": "address",
					"name": "",
					"type": "address"
				}
			],
			"stateMutability": "view",
			"type": "function"
		},
		{
			"inputs": [
				{
					"internalType": "bytes32",
					"name": "requestId",
					"type": "bytes32"
				},
				{
					"internalType": "bytes",
					"name": "response",
					"type": "bytes"
				},
				{
					"internalType": "bytes",
					"name": "err",
					"type": "bytes"
				}
			],
			"name": "handleOracleFulfillment",
			"outputs": [],
			"stateMutability": "nonpayable",
			"type": "function"
		},
		{
			"inputs": [],
			"name": "interval",
			"outputs": [
				{
					"internalType": "uint256",
					"name": "",
					"type": "uint256"
				}
			],
			"stateMutability": "view",
			"type": "function"
		},
		{
			"inputs": [
				{
					"internalType": "address",
					"name": "owner",
					"type": "address"
				},
				{
					"internalType": "address",
					"name": "operator",
					"type": "address"
				}
			],
			"name": "isApprovedForAll",
			"outputs": [
				{
					"internalType": "bool",
					"name": "",
					"type": "bool"
				}
			],
			"stateMutability": "view",
			"type": "function"
		},
		{
			"inputs": [],
			"name": "lastTimeStamp",
			"outputs": [
				{
					"internalType": "uint256",
					"name": "",
					"type": "uint256"
				}
			],
			"stateMutability": "view",
			"type": "function"
		},
		{
			"inputs": [],
			"name": "name",
			"outputs": [
				{
					"internalType": "string",
					"name": "",
					"type": "string"
				}
			],
			"stateMutability": "view",
			"type": "function"
		},
		{
			"inputs": [],
			"name": "owner",
			"outputs": [
				{
					"internalType": "address",
					"name": "",
					"type": "address"
				}
			],
			"stateMutability": "view",
			"type": "function"
		},
		{
			"inputs": [
				{
					"internalType": "uint256",
					"name": "tokenId",
					"type": "uint256"
				}
			],
			"name": "ownerOf",
			"outputs": [
				{
					"internalType": "address",
					"name": "",
					"type": "address"
				}
			],
			"stateMutability": "view",
			"type": "function"
		},
		{
			"inputs": [
				{
					"internalType": "bytes",
					"name": "",
					"type": "bytes"
				}
			],
			"name": "performUpkeep",
			"outputs": [],
			"stateMutability": "nonpayable",
			"type": "function"
		},
		{
			"inputs": [],
			"name": "renounceOwnership",
			"outputs": [],
			"stateMutability": "nonpayable",
			"type": "function"
		},
		{
			"inputs": [
				{
					"internalType": "uint256",
					"name": "tokenId",
					"type": "uint256"
				}
			],
			"name": "requestStatsUpdate",
			"outputs": [],
			"stateMutability": "nonpayable",
			"type": "function"
		},
		{
			"inputs": [
				{
					"internalType": "uint256",
					"name": "",
					"type": "uint256"
				}
			],
			"name": "s_playerData",
			"outputs": [
				{
					"internalType": "string",
					"name": "nickname",
					"type": "string"
				},
				{
					"internalType": "string",
					"name": "lane",
					"type": "string"
				},
				{
					"internalType": "uint64",
					"name": "games",
					"type": "uint64"
				},
				{
					"internalType": "uint64",
					"name": "kills",
					"type": "uint64"
				},
				{
					"internalType": "uint64",
					"name": "deaths",
					"type": "uint64"
				},
				{
					"internalType": "uint64",
					"name": "assists",
					"type": "uint64"
				}
			],
			"stateMutability": "view",
			"type": "function"
		},
		{
			"inputs": [
				{
					"internalType": "bytes32",
					"name": "",
					"type": "bytes32"
				}
			],
			"name": "s_requestExists",
			"outputs": [
				{
					"internalType": "bool",
					"name": "",
					"type": "bool"
				}
			],
			"stateMutability": "view",
			"type": "function"
		},
		{
			"inputs": [
				{
					"internalType": "bytes32",
					"name": "",
					"type": "bytes32"
				}
			],
			"name": "s_requestToTokenId",
			"outputs": [
				{
					"internalType": "uint256",
					"name": "",
					"type": "uint256"
				}
			],
			"stateMutability": "view",
			"type": "function"
		},
		{
			"inputs": [
				{
					"internalType": "address",
					"name": "to",
					"type": "address"
				},
				{
					"internalType": "string",
					"name": "_nickname",
					"type": "string"
				},
				{
					"internalType": "string",
					"name": "_lane",
					"type": "string"
				}
			],
			"name": "safeMint",
			"outputs": [],
			"stateMutability": "nonpayable",
			"type": "function"
		},
		{
			"inputs": [
				{
					"internalType": "address",
					"name": "from",
					"type": "address"
				},
				{
					"internalType": "address",
					"name": "to",
					"type": "address"
				},
				{
					"internalType": "uint256",
					"name": "tokenId",
					"type": "uint256"
				}
			],
			"name": "safeTransferFrom",
			"outputs": [],
			"stateMutability": "nonpayable",
			"type": "function"
		},
		{
			"inputs": [
				{
					"internalType": "address",
					"name": "from",
					"type": "address"
				},
				{
					"internalType": "address",
					"name": "to",
					"type": "address"
				},
				{
					"internalType": "uint256",
					"name": "tokenId",
					"type": "uint256"
				},
				{
					"internalType": "bytes",
					"name": "data",
					"type": "bytes"
				}
			],
			"name": "safeTransferFrom",
			"outputs": [],
			"stateMutability": "nonpayable",
			"type": "function"
		},
		{
			"inputs": [
				{
					"internalType": "address",
					"name": "operator",
					"type": "address"
				},
				{
					"internalType": "bool",
					"name": "approved",
					"type": "bool"
				}
			],
			"name": "setApprovalForAll",
			"outputs": [],
			"stateMutability": "nonpayable",
			"type": "function"
		},
		{
			"inputs": [
				{
					"internalType": "string",
					"name": "_sourceCode",
					"type": "string"
				}
			],
			"name": "setSourceCode",
			"outputs": [],
			"stateMutability": "nonpayable",
			"type": "function"
		},
		{
			"inputs": [],
			"name": "sourceCode",
			"outputs": [
				{
					"internalType": "string",
					"name": "",
					"type": "string"
				}
			],
			"stateMutability": "view",
			"type": "function"
		},
		{
			"inputs": [],
			"name": "subscriptionId",
			"outputs": [
				{
					"internalType": "uint64",
					"name": "",
					"type": "uint64"
				}
			],
			"stateMutability": "view",
			"type": "function"
		},
		{
			"inputs": [
				{
					"internalType": "bytes4",
					"name": "interfaceId",
					"type": "bytes4"
				}
			],
			"name": "supportsInterface",
			"outputs": [
				{
					"internalType": "bool",
					"name": "",
					"type": "bool"
				}
			],
			"stateMutability": "view",
			"type": "function"
		},
		{
			"inputs": [],
			"name": "symbol",
			"outputs": [
				{
					"internalType": "string",
					"name": "",
					"type": "string"
				}
			],
			"stateMutability": "view",
			"type": "function"
		},
		{
			"inputs": [],
			"name": "targetTokenIdToUpdate",
			"outputs": [
				{
					"internalType": "uint256",
					"name": "",
					"type": "uint256"
				}
			],
			"stateMutability": "view",
			"type": "function"
		},
		{
			"inputs": [
				{
					"internalType": "uint256",
					"name": "tokenId",
					"type": "uint256"
				}
			],
			"name": "tokenURI",
			"outputs": [
				{
					"internalType": "string",
					"name": "",
					"type": "string"
				}
			],
			"stateMutability": "view",
			"type": "function"
		},
		{
			"inputs": [
				{
					"internalType": "address",
					"name": "from",
					"type": "address"
				},
				{
					"internalType": "address",
					"name": "to",
					"type": "address"
				},
				{
					"internalType": "uint256",
					"name": "tokenId",
					"type": "uint256"
				}
			],
			"name": "transferFrom",
			"outputs": [],
			"stateMutability": "nonpayable",
			"type": "function"
		},
		{
			"inputs": [
				{
					"internalType": "address",
					"name": "newOwner",
					"type": "address"
				}
			],
			"name": "transferOwnership",
			"outputs": [],
			"stateMutability": "nonpayable",
			"type": "function"
		}
	]
}