{
	"data": {
		"bytecode": {
			"linkReferences": {},
			"object": "60a0604052346104165761589d6020813803918261001c8161041a565b93849283398101031261041657516001600160401b03811690819003610416576009546001600160a01b031690610053604061041a565b91600f83526e13541308141b185e595c8810d85c99608a1b602084015261007a604061041a565b60058152644d504c504360d81b602082015283519092906001600160401b03811161032a575f54600181811c9116801561040c575b602082101461030c57601f81116103aa575b50602094601f8211600114610349579481929394955f9261033e575b50508160011b915f199060031b1c1916175f555b82516001600160401b03811161032a57600154600181811c91168015610320575b602082101461030c57601f81116102a9575b506020601f821160011461024657819293945f9261023b575b50508160011b915f199060031b1c1916176001555b33156102285760078054336001600160a01b0319821681179092556040519391906001600160a01b03167f8be0079c531659141344cd1fd0a4f28419497f9722a3daafe3b4186f6b6457e05f80a3608052600980546001600160a01b03191673b83e47c2bc239b3bf370bc41e1459a34b41238d01790557f66756e2d657468657265756d2d7365706f6c69612d3100000000000000000000600a5562015180600e55600b80546001600160401b03191691909117905542600d5561545d908161044082396080518181816107ee01526145470152f35b631e4fbdf760e01b5f525f60045260245ffd5b015190505f8061013d565b601f1982169060015f52805f20915f5b81811061029157509583600195969710610279575b505050811b01600155610152565b01515f1960f88460031b161c191690555f808061026b565b9192602060018192868b015181550194019201610256565b60015f527fb10e2d527612073b26eecdfd717e6a320cf44b4afac2b0732d9fcbe2b7fa0cf6601f830160051c81019160208410610302575b601f0160051c01905b8181106102f75750610124565b5f81556001016102ea565b90915081906102e1565b634e487b7160e01b5f52602260045260245ffd5b90607f1690610112565b634e487b7160e01b5f52604160045260245ffd5b015190505f806100dd565b601f198216955f8052805f20915f5b8881106103925750836001959697981061037a575b505050811b015f556100f1565b01515f1960f88460031b161c191690555f808061036d565b91926020600181928685015181550194019201610358565b5f80527f290decd9548b62a8d60345a988386fc84ba6bc95484008f6362f93160ef3e563601f830160051c81019160208410610402575b601f0160051c01905b8181106103f757506100c1565b5f81556001016103ea565b90915081906103e1565b90607f16906100af565b5f80fd5b6040519190601f01601f191682016001600160401b0381118382101761032a5760405256fe60806040526004361015610011575f80fd5b5f3560e01c8062b467671461025357806301ffc9a71461024e57806306fdde0314610249578063081812fc14610244578063095ea7b31461023f57806309c1ba2e1461023a5780630ca761751461023557806313c601771461023057806318160ddd1461022b57806320457fb61461022657806322e817e21461022157806323b872dd1461021c5780632839b78f146102175780633f3b3b271461021257806342842e0e1461020d5780634585e33b146102085780635c2adf6a146102035780636352211e146101fe57806368015a4b146101f95780636dcee4ca146101f45780636e04ff0d146101ef57806370a08231146101ea578063715018a6146101e55780638da5cb5b146101e0578063947a36fb146101db57806394881476146101d657806395d89b41146101d1578063a22cb465146101cc578063b4cfae44146101c7578063b88d4fde146101c2578063c26b265f146101bd578063c87b56dd146101b8578063e049d709146101b3578063e985e9c5146101ae578063eca81d42146101a95763f2fde38b146101a4575f80fd5b6117ea565b61172a565b6116ce565b6116b3565b611568565b61152a565b6114d6565b611439565b61136b565b6112c6565b6112a9565b61128c565b611264565b611209565b6111b8565b611155565b611136565b61110c565b6110dc565b610fed565b610f33565b610eaf565b610e92565b610e4c565b610e35565b610d4e565b610d1f565b610d02565b610cd3565b61079a565b610774565b61066d565b610605565b61052e565b61046d565b610346565b634e487b7160e01b5f52604160045260245ffd5b60c081019081106001600160401b0382111761028757604052565b610258565b60e081019081106001600160401b0382111761028757604052565b604081019081106001600160401b0382111761028757604052565b90601f801991011681019081106001600160401b0382111761028757604052565b6001600160401b03811161028757601f01601f191660200190565b81601f8201121561034257602081359101610318826102e3565b9261032660405194856102c2565b8284528282011161034257815f92602092838601378301015290565b5f80fd5b34610342576020366003190112610342576004356001600160401b038111610342576103769036906004016102fe565b61037e612512565b80516001600160401b038111610287576103a28161039d600c54610b46565b611870565b602091601f82116001146103e0576103d0925f91836103d5575b50508160011b915f199060031b1c19161790565b600c55005b015190505f806103bc565b600c5f52601f198216927fdf6966c971051c3d54ec59162606531493a51404a002842f56009d7e5cf4a8c7915f5b8581106104435750836001951061042b575b505050811b01600c55005b01515f1960f88460031b161c191690555f8080610420565b9192602060018192868501518155019401920161040e565b6001600160e01b031981160361034257565b346103425760203660031901126103425760043561048a8161045b565b63ffffffff60e01b16632483248360e11b81149081156104b3575b506040519015158152602090f35b6380ac58cd60e01b8114915081156104e5575b81156104d4575b505f6104a5565b6301ffc9a760e01b1490505f6104cd565b635b5e139f60e01b811491506104c6565b805180835260209291819084018484015e5f828201840152601f01601f1916010190565b90602061052b9281815201906104f6565b90565b34610342575f366003190112610342576040515f5f5461054d81610b46565b80845290600181169081156105e15750600114610585575b61058183610575818503826102c2565b6040519182918261051a565b0390f35b5f8080527f290decd9548b62a8d60345a988386fc84ba6bc95484008f6362f93160ef3e563939250905b8082106105c757509091508101602001610575610565565b9192600181602092548385880101520191019092916105af565b60ff191660208086019190915291151560051b840190910191506105759050610565565b346103425760203660031901126103425760043561062281612539565b505f526004602052602060018060a01b0360405f205416604051908152f35b600435906001600160a01b038216820361034257565b602435906001600160a01b038216820361034257565b3461034257604036600319011261034257610686610641565b6024359061069382612539565b33151580610761575b80610723575b6107105761070e926106ef9181906001600160a01b0385811691167f8c5be1e5ebec7d5bd14f71427d1e84f3dd0314c0f7b2291e5b200ac8c7c3b9255f80a45f52600460205260405f2090565b80546001600160a01b0319166001600160a01b03909216919091179055565b005b63a9fbf51f60e01b5f523360045260245ffd5b5060ff610759336107448460018060a01b03165f52600560205260405f2090565b9060018060a01b03165f5260205260405f2090565b5416156106a2565b506001600160a01b03811633141561069c565b34610342575f3660031901126103425760206001600160401b03600b5416604051908152f35b34610342576060366003190112610342576004356024356001600160401b038111610342576107cd9036906004016102fe565b6044356001600160401b038111610342576107ec9036906004016102fe565b7f00000000000000000000000000000000000000000000000000000000000000006001600160a01b03163303610b375761083f61083b610834855f52601260205260405f2090565b5460ff1690565b1590565b610b23578051610b02575061099d61096d6108ce610879610868865f52601160205260405f2090565b54946020808251830101910161256d565b6108be6001600160401b038216600261089a885f52601060205260405f2090565b0180546001600160c01b031660c09290921b6001600160c01b031916919091179055565b61091a6108da6108ce8360401c90565b6001600160401b031690565b60026108ee885f52601060205260405f2090565b01805467ffffffffffffffff60801b191660809290921b67ffffffffffffffff60801b16919091179055565b61096761092a6108ce8360801c90565b600261093e885f52601060205260405f2090565b019067ffffffffffffffff60401b82549160401b169067ffffffffffffffff60401b1916179055565b60c01c90565b6002610981845f52601060205260405f2090565b01906001600160401b03166001600160401b0319825416179055565b6109bc6109b2835f52601260205260405f2090565b805460ff19169055565b5f828152601160205260408120556109e46109df825f52601060205260405f2090565b611b70565b6080810180516001600160401b031680610afc57506001905b60608301908151610a14906001600160401b031690565b6001600160401b03169260a08501938451610a35906001600160401b031690565b6001600160401b0316610a4791611bec565b610a5090611bf9565b906001600160401b0316610a6391611c3d565b610a6c9061286a565b60409485015192519151935185516001600160401b0394851681529284166020840152938316948201949094529116606082015260ff90911660808201524260a08201527f65b31b33bdd99bea0cc76b844ac2161d84f706e84c7aaa3ad9467f2bc5670ad39060c090a27f85e1543bf2f84fe80c6badbce3648c8539ad1df4d2b3d822938ca0538be727e65f80a2005b906109fd565b604051631de77ff960e11b8152908190610b1f906004830161051a565b0390fd5b63f6a8d1c960e01b5f52600483905260245ffd5b63c6829f8360e01b5f5260045ffd5b90600182811c92168015610b74575b6020831014610b6057565b634e487b7160e01b5f52602260045260245ffd5b91607f1691610b55565b604051905f82600c5491610b9183610b46565b8083529260018116908115610c165750600114610bb7575b610bb5925003836102c2565b565b50600c5f90815290917fdf6966c971051c3d54ec59162606531493a51404a002842f56009d7e5cf4a8c75b818310610bfa575050906020610bb592820101610ba9565b6020919350806001915483858901015201910190918492610be2565b60209250610bb594915060ff191682840152151560051b820101610ba9565b9060405191825f825492610c4884610b46565b8084529360018116908115610cb15750600114610c6d575b50610bb5925003836102c2565b90505f9291925260205f20905f915b818310610c95575050906020610bb5928201015f610c60565b6020919350806001915483858901015201910190918492610c7c565b905060209250610bb594915060ff191682840152151560051b8201015f610c60565b34610342575f36600319011261034257610581610cee610b7e565b6040519182916020835260208301906104f6565b34610342575f366003190112610342576020600854604051908152f35b34610342576020366003190112610342576004355f526012602052602060ff60405f2054166040519015158152f35b3461034257604036600319011261034257600435602435610d6d612512565b603c8210610de357600854918215610dd457610dab7f64586acd58623513aac74e3f48f97302b3e5020b31c103c3254eb9ea68bc49f29383106119ce565b80600e5581600f55610dcf6040519283928360209093929193604081019481520152565b0390a1005b63d31b331d60e01b5f5260045ffd5b506304d5a70960e41b5f52600452603c60245260445ffd5b6060906003190112610342576004356001600160a01b038116810361034257906024356001600160a01b0381168103610342579060443590565b346103425761070e610e4636610dfb565b91611a11565b346103425760203660031901126103425761070e600435610e6b612512565b610e7860085482106119ce565b805f526010602052610e8c60405f20610c35565b906125f0565b34610342575f366003190112610342576020600d54604051908152f35b346103425761070e610ec036610dfb565b9060405192610ed06020856102c2565b5f8452610ede838383611a11565b33613e5e565b906020600319830112610342576004356001600160401b0381116103425782602382011215610342578060040135926001600160401b0384116103425760248483010111610342576024019190565b3461034257610f4136610ee4565b5050600d544203428111610f7d57600e5410610f5957005b42600d5561070e600f54610e8c610f78825f52601060205260405f2090565b610c35565b611b3f565b6020815260c06001600160401b0360a0610fc0610faa865185602088015260e08701906104f6565b6020870151868203601f190160408801526104f6565b94826040820151166060860152826060820151166080860152826080820151168286015201511691015290565b34610342576020366003190112610342576004355f60a06040516110108161026c565b6060815260606020820152826040820152826060820152826080820152015261103c60085482106119ce565b5f52601060205261058160405f206110d06110c060026040519361105f8561026c565b61106881610c35565b855261107660018201610c35565b602086015201546001600160401b03811660408501526001600160401b038160401c1660608501526109676001600160401b038260801c1660808601906001600160401b03169052565b6001600160401b031660a0830152565b60405191829182610f82565b346103425760203660031901126103425760206110fa600435612539565b6040516001600160a01b039091168152f35b34610342576020366003190112610342576004355f526011602052602060405f2054604051908152f35b3461034257602036600319011261034257610581610cee600435611d95565b346103425761116336610ee4565b5050600d544203428111610f7d57600e5410806111ab575b6040519061118a6020836102c2565b5f8252610581604051928392151583526040602084015260408301906104f6565b50600f546008541161117b565b34610342576020366003190112610342576001600160a01b036111d9610641565b1680156111f6575f526003602052602060405f2054604051908152f35b6322718ad960e21b5f525f60045260245ffd5b34610342575f36600319011261034257611221612512565b600780546001600160a01b031981169091555f906001600160a01b03167f8be0079c531659141344cd1fd0a4f28419497f9722a3daafe3b4186f6b6457e08280a3005b34610342575f366003190112610342576007546040516001600160a01b039091168152602090f35b34610342575f366003190112610342576020600e54604051908152f35b34610342575f366003190112610342576020600f54604051908152f35b34610342575f366003190112610342576040515f6001546112e681610b46565b80845290600181169081156105e1575060011461130d5761058183610575818503826102c2565b60015f9081527fb10e2d527612073b26eecdfd717e6a320cf44b4afac2b0732d9fcbe2b7fa0cf6939250905b80821061135157509091508101602001610575610565565b919260018160209254838588010152019101909291611339565b3461034257604036600319011261034257611384610641565b6024358015158103610342573315611426576001600160a01b03821691821561141357816113d06113e192335f52600560205260405f209060018060a01b03165f5260205260405f2090565b9060ff801983541691151516179055565b604051901515815233907f17307eab39ab6107e8899845ad3d59bd9653f200f220920489ca2b5937696c3190602090a3005b82630b61174360e31b5f5260045260245ffd5b63a9fbf51f60e01b5f525f60045260245ffd5b34610342576020366003190112610342576004355f52601060205261149660405f2061146481610c35565b906001600160401b036114a4600261147e60018501610c35565b9301549260405195869560c0875260c08701906104f6565b9085820360208701526104f6565b918180821616604085015281808260401c1616606085015281808260801c1616608085015260c01c1660a08301520390f35b34610342576080366003190112610342576114ef610641565b6114f7610657565b90604435606435926001600160401b0384116103425761151e61070e9436906004016102fe565b92610ede838383611a11565b346103425760203660031901126103425760ff61058161154b600435611eb6565b6040929192519384931683526040602084015260408301906104f6565b3461034257602036600319011261034257600435805f52601060205260405f2090604051916115968361026c565b61159f81610c35565b83526115ad60018201610c35565b90602084019182526002015460408401906001600160401b0381168252606085018160401c6001600160401b0316815260808601918060801c6001600160401b03166116029084906001600160401b03169052565b60c01c60a087019081529261161686611eb6565b91905061162287611d95565b61162b90614ba1565b9661163590612714565b97519551905161164d906001600160401b0316612714565b9251611661906001600160401b0316612714565b9351611675906001600160401b0316612714565b9451611689906001600160401b0316612714565b9561169398611fb1565b61169c90614ba1565b6116a5906122f9565b60405161058181928261051a565b34610342575f366003190112610342576020604051603c8152f35b3461034257604036600319011261034257602060ff61171e6116ee610641565b6116f6610657565b6001600160a01b039182165f9081526005865260408082209290931681526020919091522090565b54166040519015158152f35b3461034257606036600319011261034257611743610641565b6024356001600160401b038111610342576117629036906004016102fe565b604435916001600160401b038311610342576117d26117886117d79436906004016102fe565b92611791612512565b60085493604051916117a28361026c565b825260208201525f60408201525f60608201525f60808201525f60a0820152835f52601060205260405f20612337565b613fe9565b61070e6117e5600854612504565b600855565b3461034257602036600319011261034257611803610641565b61180b612512565b6001600160a01b0316801561185d57600780546001600160a01b0319811683179091556001600160a01b03167f8be0079c531659141344cd1fd0a4f28419497f9722a3daafe3b4186f6b6457e05f80a3005b631e4fbdf760e01b5f525f60045260245ffd5b601f811161187c575050565b600c5f5260205f20906020601f840160051c830193106118b6575b601f0160051c01905b8181106118ab575050565b5f81556001016118a0565b9091508190611897565b601f82116118cd57505050565b5f5260205f20906020601f840160051c83019310611905575b601f0160051c01905b8181106118fa575050565b5f81556001016118ef565b90915081906118e6565b91909182516001600160401b03811161028757611936816119308454610b46565b846118c0565b6020601f82116001146119695781906119659394955f926103d55750508160011b915f199060031b1c19161790565b9055565b601f1982169061197c845f5260205f2090565b915f5b8181106119b65750958360019596971061199e575b505050811b019055565b01515f1960f88460031b161c191690555f8080611994565b9192602060018192868b01518155019401920161197f565b156119d557565b60405162461bcd60e51b8152602060048201526014602482015273151bdad95b881251081d1a59185ac81d985b1a5960621b6044820152606490fd5b9091906001600160a01b0383168015611b18575f8381526002602052604090205483906001600160a01b03169133611b08575b6001600160a01b03831695611a899087611adc575b6001600160a01b0381165f908152600360205260409020600181540190556106ef845f52600260205260405f2090565b857fddf252ad1be2c89b69c2b068fc378daa952ba7f163c4a11628f55a4df523b3ef5f80a4506001600160a01b0316808303611ac457505050565b6364283d7b60e01b5f5260045260245260445260645ffd5b611ae5846140d6565b6001600160a01b0385165f90815260036020526040902080545f19019055611a59565b611b138233856140f8565b611a44565b633250574960e11b5f525f60045260245ffd5b60405190611b3a6020836102c2565b5f8252565b634e487b7160e01b5f52601160045260245ffd5b601f19810191908211610f7d57565b5f19810191908211610f7d57565b90604051611b7d8161026c565b60a06001600160401b0360028395611b9481610c35565b8552611ba260018201610c35565b602086015201548181166040850152818160401c166060850152818160801c16608085015260c01c16910152565b9060028201809211610f7d57565b9060208201809211610f7d57565b91908201809211610f7d57565b90606482029180830460641490151715610f7d57565b600281901b91906001600160fe1b03811603610f7d57565b908160011b9180830460021490151715610f7d57565b8115611c47570490565b634e487b7160e01b5f52601260045260245ffd5b805191908290602001825e015f815290565b610bb590611c99611c8b949360016040519687946020860190611c5b565b601760f91b81520190611c5b565b03601f1981018452836102c2565b600690611d7a611d639594611d74610bb5956004604051998a967f3c7376672077696474683d2233323022206865696768743d223430302220766960208901527f6577426f783d2230203020333230203430302220786d6c6e733d22687474703a60408901527f2f2f7777772e77332e6f72672f323030302f737667223e00000000000000000060608901527f3c672073686170652d72656e646572696e673d2263726973704564676573223e60778901526097880190611c5b565b631e17b39f60e11b81520190611c5b565b90611c5b565b651e17b9bb339f60d11b8152036019198101855201836102c2565b611dad6109df61052b925f52601060205260405f2090565b6080810190611dc382516001600160401b031690565b6001600160401b038116611ead5750611ea760015b6060830192611e2f611df46108ce86516001600160401b031690565b926001600160401b03611e27611e2260a0860196611e1c6108ce89516001600160401b031690565b90611bec565b611bf9565b911690611c3d565b90611e5a611e54611e4260648504612714565b611e4e60648606612714565b90611c6d565b9261286a565b92611e6484612ef5565b96611e6d612fee565b96835193611ea1611e93611e93611e93604060208601519501516001600160401b031690565b94516001600160401b031690565b94613c5f565b91611ca7565b611ea790611dd8565b5f526010602052611f94611f8f60405f206001600160401b03611e27611e22600260405194611ee48661026c565b611eed81610c35565b8652611efb60018201610c35565b60208701520154938385166040820152611f5d6060820195858160401c168752611f5060a0611f4060808601936109678a8260801c1686906001600160401b03169052565b6001600160401b03169401938452565b516001600160401b031690565b808516611f9e5750611e1c6108ce611f816108ce600198516001600160401b031690565b92516001600160401b031690565b61286a565b9061052b82613f66565b6108ce611f816108ce611e1c9398611f50565b969492909897959391604051998a9860208a01611fed907f7b226e616d65223a20224b617274752050656d61696e204d504c2049442023009052565b603f8a01611ffa91611c5b565b6201116160ed1b81527f226465736372697074696f6e223a20224b6172747520644e4654204d504c204960038201527f6e646f6e657369612e2053746174697374696b2064616e2074616d70696c616e60238201527f206b617274752064697065726261727569206f746f6d6174697320766961204360438201527503430b4b73634b73590233ab731ba34b7b739971116160551b60638201526079016e2261747472696275746573223a205b60881b81527f7b2274726169745f74797065223a20224e69636b6e616d65222c202276616c75600f8201526432911d101160d91b602f8201526034016120ec91611c5b565b62089f4b60ea1b81527f7b2274726169745f74797065223a20224c616e65222c202276616c7565223a206003820152601160f91b602382015260240161213191611c5b565b62089f4b60ea1b81527f7b2274726169745f74797065223a202254696572222c202276616c7565223a206003820152601160f91b602382015260240161217691611c5b565b62089f4b60ea1b81527f7b2274726169745f74797065223a202247616d6573222c202276616c7565223a6003820152600160fd1b60238201526024016121bb91611c5b565b611f4b60f21b81527f7b2274726169745f74797065223a20224b696c6c73222c202276616c7565223a6002820152600160fd1b60228201526023016121ff91611c5b565b611f4b60f21b81527f7b2274726169745f74797065223a2022446561746873222c202276616c75652260028201526101d160f51b602282015260240161224491611c5b565b611f4b60f21b81527f7b2274726169745f74797065223a202241737369737473222c202276616c75656002820152620111d160ed1b602282015260250161228a91611c5b565b607d60f81b81526202e96160ed1b60018201527f22696d616765223a2022646174613a696d6167652f7376672b786d6c3b626173600482015263194d8d0b60e21b60248201526028016122dc91611c5b565b61227d60f01b815203601d1981018352600201610bb590836102c2565b90610bb5611c99926040519384917f646174613a6170706c69636174696f6e2f6a736f6e3b6261736536342c0000006020840152603d830190611c5b565b919080519283516001600160401b0381116102875761235a816119308454610b46565b6020601f821160011461248f5761246f926123948360a094600294610bb5999a5f926103d55750508160011b915f199060031b1c19161790565b81555b6123a860208601516001830161190f565b01926123de6123c160408301516001600160401b031690565b855467ffffffffffffffff19166001600160401b03909116178555565b6124226123f560608301516001600160401b031690565b85546fffffffffffffffff0000000000000000191660409190911b67ffffffffffffffff60401b16178555565b61246161243960808301516001600160401b031690565b855467ffffffffffffffff60801b191660809190911b67ffffffffffffffff60801b16178555565b01516001600160401b031690565b81546001600160c01b031660c09190911b6001600160c01b031916179055565b601f198216956124a2845f5260205f2090565b965f5b8181106124ec575083610bb5979860029461246f979460a097600195106124d4575b505050811b018155612397565b01515f1960f88460031b161c191690555f80806124c7565b838301518955600190980197602093840193016124a5565b5f198114610f7d5760010190565b6007546001600160a01b0316330361252657565b63118cdaa760e01b5f523360045260245ffd5b5f818152600260205260409020546001600160a01b031690811561255b575090565b637e27328960e01b5f5260045260245ffd5b90816020910312610342575190565b6040805190919061258d83826102c2565b6001815291601f1901825f5b8281106125a557505050565b806060602080938501015201612599565b634e487b7160e01b5f52603260045260245ffd5b8051156125d75760200190565b6125b6565b80518210156125d75760209160051b010190565b906126dd92917f36c447ad99df7457c4f3d38dad77da717d67a685e3ed93297fefc4601d9beb256126a461268f6040516126298161028c565b5f81525f60208201525f604082015260608082015260606080820152606060a0820152606060c082015261266461265e610b7e565b82614cc0565b61268a61266f61257c565b87612679826125ca565b52612683816125ca565b50826141d0565b614328565b600b546001600160401b0316600a54916144f1565b948593836126ba865f52601160205260405f2090565b556105756126d0865f52601260205260405f2090565b805460ff19166001179055565b0390a3565b906126ec826102e3565b6126f960405191826102c2565b828152809261270a601f19916102e3565b0190602036910137565b805f9172184f03e93ff9f4daa797ed6e38ed64bf6a1f0160401b821015612847575b806d04ee2d6d415b85acef8100000000600a92101561282b575b662386f26fc10000811015612816575b6305f5e100811015612804575b6127108110156127f4575b60648110156127e5575b10156127da575b6127c5602161279a600185016126e2565b938401015b5f1901916f181899199a1a9b1b9c1cb0b131b232b360811b600a82061a8353600a900490565b80156127d5576127c5909161279f565b505090565b600190910190612789565b60029060649004930192612782565b6004906127109004930192612778565b6008906305f5e100900493019261276d565b601090662386f26fc100009004930192612760565b6020906d04ee2d6d415b85acef81000000009004930192612750565b506040915072184f03e93ff9f4daa797ed6e38ed64bf6a1f0160401b8104612736565b6105dc8110156128a5576103e881101561289f576101f48110156128995760641115612894575f90565b600190565b50600290565b50600390565b50600490565b604051906128ba6040836102c2565b60078252662331353135313560c81b6020830152565b604051906128df6040836102c2565b600782526611981919331a9960c91b6020830152565b604051906129046040836102c2565b60078252662365636630663160c81b6020830152565b604051906129296040836102c2565b60078252662335353535353560c81b6020830152565b6040519061294e6040836102c2565b60078252660233161306530360cc1b6020830152565b604051906129736040836102c2565b60078252660233261313830360cc1b6020830152565b604051906129986040836102c2565b600782526611b1b21bb3199960c91b6020830152565b604051906129bd6040836102c2565b60078252662361303632326160c81b6020830152565b604051906129e26040836102c2565b60078252662331613161316160c81b6020830152565b60405190612a076040836102c2565b60078252662332613261326160c81b6020830152565b60405190612a2c6040836102c2565b60078252660236330633063360cc1b6020830152565b60405190612a516040836102c2565b600782526608d84e184e585960ca1b6020830152565b60405190612a766040836102c2565b60078252660233161313430360cc1b6020830152565b60405190612a9b6040836102c2565b60078252660233261323030360cc1b6020830152565b60405190612ac06040836102c2565b60078252660236666643730360cc1b6020830152565b60405190612ae56040836102c2565b60078252660236338613630360cc1b6020830152565b60405190612b0a6040836102c2565b60078252660233161303033360cc1b6020830152565b60405190612b2f6040836102c2565b60078252660233264303035360cc1b6020830152565b60405190612b546040836102c2565b600782526611b1331bb3333360c91b6020830152565b60405190612b796040836102c2565b60078252660236130323066360cc1b6020830152565b94929096959391604051978896602088017f3c7265637420783d22302220793d2230222077696474683d223332302220686590527034b3b43a1e911a181811103334b6361e9160791b604089015260518801612bea91611c5b565b6211179f60e91b81527f3c7265637420783d22382220793d2238222077696474683d223330342220686560038201527034b3b43a1e91199c1a11103334b6361e9160791b6023820152612c4291603490910190611c5b565b6211179f60e91b81527f3c7265637420783d22382220793d2238222077696474683d223330342220686560038201527f696768743d22333834222066696c6c3d226e6f6e6522207374726f6b653d22006023820152604201612ca391611c5b565b7f22207374726f6b652d77696474683d22312e35222072783d2232222f3e00000081527f3c7465787420783d223136302220793d223336222066696c6c3d220000000000601d820152603801612cf891611c5b565b7f2220666f6e742d73697a653d2231362220746578742d616e63686f723d226d6981527f64646c652220666f6e742d7765696768743d22626f6c642220666f6e742d666160208201527f6d696c793d226d6f6e6f7370616365223e504c4159455220434152443c2f74656040820152623c3a1f60e91b60608201526063017f3c6c696e652078313d223230222079313d223530222078323d2233303022207981526e191e911a98111039ba3937b5b29e9160891b6020820152602f01612dbd91611c5b565b73111039ba3937b5b296bbb4b23a341e911911179f60611b81527f3c7265637420783d223233302220793d22333535222077696474683d2237382260148201527f206865696768743d223232222072783d2234222066696c6c3d220000000000006034820152604e01612e2f91611c5b565b6211179f60e91b81527f3c7465787420783d223236392220793d22333730222066696c6c3d222366666660038201527f6666662220666f6e742d73697a653d2231312220746578742d616e63686f723d60238201527f226d6964646c652220666f6e742d7765696768743d22626f6c642220666f6e7460438201527316b330b6b4b63c9e9136b7b737b9b830b1b2911f60611b6063820152607701612ed391611c5b565b661e17ba32bc3a1f60c91b81520360181981018352600701610bb590836102c2565b61052b9060ff811660048103612f395750612f0e612afb565b90612f17612b20565b612f1f612b45565b808092612f33612f2d612b6a565b95613f66565b95612b8f565b60038103612f695750612f4a612a67565b90612f53612a8c565b612f5b612ab1565b808092612f33612f2d612ad6565b60028103612f995750612f7a6129d3565b90612f836129f8565b612f8b612a1d565b808092612f33612f2d612a42565b600103612fc757612fa861293f565b90612fb1612964565b612fb9612989565b808092612f33612f2d6129ae565b612fcf6128ab565b90612fd86128d0565b612fe06128f5565b808092612f33612f2d61291a565b60405190612ffe6108c0836102c2565b61089482527f3c73766720783d2231302220793d223330222077696474683d2231343022206860208301527f65696768743d22333830222076696577426f783d22302030203332203332222060408301527f73686170652d72656e646572696e673d2263726973704564676573223e3c672060608301527f7472616e73666f726d3d227472616e736c6174652833322c203029207363616c60808301527f65282d312c203129223e3c706174682066696c6c3d222330303030303022206460a08301527f3d224d3131203268313076314831317a204d3920336832763148397a204d323160c08301527f2033683276314832317a204d3820346831763148387a204d323320346831763160e08301527f4832337a204d3820356831763148387a204d32342035683176314832347a204d6101008301527f3820366831763148387a204d32342036683176314832347a204d3820376831766101208301527f3148387a204d32342037683176314832347a204d3820386831763148387a204d6101408301527f32342038683176314832347a204d3920396831763148397a204d3234203968316101608301527f76314832347a204d392031306831763148397a204d32332031306831763148326101808301527f337a204d392031316831763148397a204d3132203131683276314831327a204d6101a08301527f3138203131683276314831387a204d3233203131683176314832337a204d39206101c08301527f31326831763148397a204d3233203132683176314832337a204d3130203133686101e08301527f3176314831307a204d3232203133683176314832327a204d31302031346831766102008301527f314831307a204d3232203134683176314832327a204d313020313568317631486102208301527f31307a204d3232203135683176314832327a204d3131203136683176314831316102408301527f7a204d3231203136683176314832317a204d3131203137683176314831317a206102608301527f4d3231203137683176314832317a204d3132203138683176314831327a204d326102808301527f30203138683176314832307a204d3132203139683176314831327a204d3230206102a08301527f3139683176314832307a204d3131203230683176314831317a204d32312032306102c08301527f683176314832317a204d392032316832763148397a204d3232203231683276316102e08301527f4832327a204d372032326832763148377a204d3234203232683276314832347a6103008301527f204d362032336831763148367a204d3236203233683176314832367a204d35206103208301527f32346831763148357a204d3237203234683176314832377a204d3420323568316103408301527f763148347a204d3238203235683176314832387a204d332032366831763148336103608301527f7a204d3239203236683176314832397a204d332032376831763148337a204d326103808301527f39203237683176314832397a204d332032386831763148337a204d32392032386103a08301527f683176314832397a204d332032396831763148337a204d3239203239683176316103c08301527f4832397a204d332033306831763148337a204d3239203330683176314832397a6103e08301527f204d33203331683237763148337a22202f3e3c706174682066696c6c3d2223306104008301527f30303030302220643d224d3131203368313076314831317a204d3920346831346104208301527f763148397a204d392035683135763148397a204d392036683135763148397a206104408301527f4d392037683135763148397a204d3920386833763148397a204d3230203868346104608301527f76314832307a204d31302039683276314831307a204d323220396832763148326104808301527f327a204d3130203130683176314831307a204d3232203130683176314832327a6104a08301527f22202f3e3c706174682066696c6c3d22236534623539302220643d224d3132206104c08301527f38683876314831327a204d3132203968313076314831327a204d3131203130686104e08301527f313176314831317a204d3130203131683276314831307a204d313420313168346105008301527f76314831347a204d3230203131683376314832307a204d3130203132683133766105208301527f314831307a204d3131203133683476314831317a204d313720313368357631486105408301527f31377a204d313120313468313176314831317a204d31312031356833763148316105608301527f317a204d3138203135683476314831387a204d3132203136683976314831327a6105808301527f204d3132203137683976314831327a204d3133203138683776314831337a22206105a08301527f2f3e3c706174682066696c6c3d22236335393437332220643d224d31352031336105c08301527f683276314831357a204d3133203139683776314831337a204d313420323068356105e08301527f76314831347a22202f3e3c706174682066696c6c3d22236264366134662220646106008301527f3d224d3134203135683476314831347a22202f3e3c706174682066696c6c3d226106208301527f236666666666662220643d224d3132203230683276314831327a204d313920326106408301527f30683276314831397a204d3131203231683376314831317a204d3139203231686106608301527f3376314831397a204d392032326834763148397a204d323020323268347631486106808301527f32307a204d372032336835763148377a204d3231203233683576314832317a206106a08301527f4d362032346835763148367a204d3232203234683576314832327a204d3520326106c08301527f356835763148357a204d3133203235683276314831337a204d313620323568326106e08301527f76314831367a204d3139203235683276314831397a204d3233203235683576316107008301527f4832337a204d342032366835763148347a204d3234203236683576314832347a6107208301527f204d342032376834763148347a204d3235203237683476314832357a204d34206107408301527f32386834763148347a204d3235203238683476314832357a204d3420323968346107608301527f763148347a204d3235203239683476314832357a204d362033306832763148366107808301527f7a204d3235203330683276314832357a22202f3e3c706174682066696c6c3d226107a08301527f236566383131352220643d224d3134203231683576314831347a204d313320326107c08301527f32683776314831337a204d3132203233683976314831327a204d3131203234686107e08301527f313176314831317a204d3130203235683376314831307a204d313520323568316108008301527f76314831357a204d3138203235683176314831387a204d3231203235683276316108208301527f4832317a204d39203236683135763148397a204d38203237683137763148387a6108408301527f204d38203238683137763148387a204d38203239683137763148387a204d34206108608301527f33306832763148347a204d38203330683137763148387a204d32372033306832610880830152733b18a4191bbd1110179f1e17b39f1e17b9bb339f60611b6108a0830152565b600490613c46613b139594611d746007613bc2610bb597609a6040519b8c987f3c67207472616e73666f726d3d227472616e736c617465283138302c2039352960208b01527f222073686170652d72656e646572696e673d2263726973704564676573223e0060408b01527f3c7465787420783d222d33302220793d223230222066696c6c3d220000000000605f8b0152607a8a0190611c5b565b5f5160206154085f395f51905f5281527f6e6f7370616365223e504c41594552204e414d453a3c2f746578743e0000000060208201527f3c7465787420783d222d33302220793d223436222066696c6c3d222365636630603c8201527f66312220666f6e742d73697a653d2232302220666f6e742d7765696768743d22605c8201527f626f6c642220666f6e742d66616d696c793d226d6f6e6f7370616365223e0000607c8201520190611c5b565b661e17ba32bc3a1f60c91b815201605f907f3c6c696e652078313d222d3235222079313d223638222078323d22313230222081527f79323d22363822207374726f6b653d222335353522207374726f6b652d77696460208201527f74683d223322207374726f6b652d6461736861727261793d22382c36222f3e0060408201520190565b631e17b39f60e11b815203601b198101855201836102c2565b94909293613c8c9460ff61052b9998949816600481145f14613c925750613c84612b45565b9788956145dc565b91613a78565b60038103613ca35750613c84612ab1565b60028103613cb45750613c84612a1d565b600103613cc357613c84612989565b604051613cd16040826102c2565b600781526611999a1c9c323160c91b60208201529788956145dc565b90816020910312610342575161052b8161045b565b6001600160a01b03918216815291166020820152604081019190915260806060820181905261052b929101906104f6565b6040513d5f823e3d90fd5b3d15613d68573d90613d4f826102e3565b91613d5d60405193846102c2565b82523d5f602084013e565b606090565b9092833b613d7c575b50505050565b604051630a85bd0160e11b81529260209284928392613da0925f9060048601613d02565b03815f6001600160a01b0387165af15f9181613e2d575b50613df15750613dc5613d3e565b8051919082613dea57633250574960e11b5f526001600160a01b03821660045260245ffd5b6020915001fd5b6001600160e01b03191663757a42ff60e11b01613e1257505f808080613d76565b633250574960e11b5f526001600160a01b031660045260245ffd5b613e5091925060203d602011613e57575b613e4881836102c2565b810190613ced565b905f613db7565b503d613e3e565b939193843b613e6f575b5050505050565b613e906020936040519586948594630a85bd0160e11b865260048601613d02565b03815f6001600160a01b0387165af15f9181613ed7575b50613eb55750613dc5613d3e565b6001600160e01b03191663757a42ff60e11b01613e1257505f80808080613e68565b613ef191925060203d602011613e5757613e4881836102c2565b905f613ea7565b60405190613f076040836102c2565b600682526529a4a62b22a960d11b6020830152565b60405190613f2b6040836102c2565b600682526542524f4e5a4560d01b6020830152565b60405190613f4f6040836102c2565b6008825267155394905392d15160c21b6020830152565b60ff1660048114613fc45760038114613fa15760028114613f9857600114613f905761052b613f40565b61052b613f1c565b5061052b613ef8565b50604051613fb06040826102c2565b600481526311d3d31160e21b602082015290565b50604051613fd36040826102c2565b6006815265131151d1539160d21b602082015290565b9060405190613ff96020836102c2565b5f82526001600160a01b0383168015611b18575f828152600260205260409020546001600160a01b0316801515918390836140aa575b6001600160a01b0387165f90815260036020526040902060018154019055614063876106ef845f52600260205260405f2090565b827fddf252ad1be2c89b69c2b068fc378daa952ba7f163c4a11628f55a4df523b3ef5f80a45061409757610bb59233613d6d565b6339e3563760e11b5f525f60045260245ffd5b6140b3826140d6565b6001600160a01b0383165f90815260036020526040902080545f1901905561402f565b6140e8905f52600460205260405f2090565b80546001600160a01b0319169055565b9091906141166001600160a01b038416801515908161415e57501590565b61411f57505050565b6001600160a01b031661413e57637e27328960e01b5f5260045260245ffd5b63177e802f60e01b5f526001600160a01b0390911660045260245260445ffd5b6001600160a01b0384168082149250821561419e575b50811561418057501590565b5f858152600460205260409020546001600160a01b03161415919050565b9091505f52600560205260ff6141c78660405f209060018060a01b03165f5260205260405f2090565b5416905f614174565b8151156141dd5760a00152565b63fe936cb760e01b5f5260045ffd5b604051906141fb6040836102c2565b600c82526b31b7b232a637b1b0ba34b7b760a11b6020830152565b634e487b7160e01b5f52602160045260245ffd5b6003111561423457565b614216565b604051906142486040836102c2565b60088252676c616e677561676560c01b6020830152565b6001111561423457565b604051906142786040836102c2565b6006825265736f7572636560d01b6020830152565b6040519061429c6040836102c2565b60048252636172677360e01b6020830152565b604051906142be6040836102c2565b600f82526e39b2b1b932ba39a637b1b0ba34b7b760891b6020830152565b604051906142eb6040836102c2565b60078252667365637265747360c81b6020830152565b604051906143106040836102c2565b600982526862797465734172677360b81b6020830152565b614330614cfe565b9061434261433c6141ec565b83614d2e565b61435f81516143508161422a565b6143598161422a565b83614e17565b61436a61433c614239565b614384604082015161437b8161425f565b6143598161425f565b61438f61433c614269565b61439d606082015183614d2e565b60a08101805151614499575b50608081019081515161441c575b60c09150018051516143ca575b50515190565b916143d661433c614301565b6143df82614e44565b5f5b8351805182101561440957906144036143fc826001946125dc565b5185614e88565b016143e1565b5050915061441681614e66565b5f6143c4565b60208101805161442b8161422a565b6144348161422a565b1561448a5760c09261446d6144859261445461444e6142af565b88614d2e565b5161445e8161422a565b6144678161422a565b86614e17565b61447e6144786142dc565b86614d2e565b5184614e88565b6143b7565b63a80d31f760e01b5f5260045ffd5b926144ab6144a561428d565b84614d2e565b6144b483614e44565b5f5b845180518210156144de57906144d86144d1826001946125dc565b5186614d2e565b016144b6565b505092506144eb82614e66565b5f6143a9565b916020916001600160401b039161452a604051958694859463230e93b160e11b865216600485015260a0602485015260a48401906104f6565b60016044840152620493e06064840152608483019190915203815f7f00000000000000000000000000000000000000000000000000000000000000006001600160a01b03165af19081156145d7575f916145a8575b50807f1131472297a800fee664d1d89cfa8f7676ff07189ecc53f80bbb5f4969099db85f80a290565b6145ca915060203d6020116145d0575b6145c281836102c2565b81019061256d565b5f61457f565b503d6145b8565b613d33565b9493906001600160401b039096939296166145f690612714565b956001600160401b031661460990612714565b916001600160401b031661461c90612714565b906001600160401b031661462f90612714565b9160405196879660208801614663907f3c7465787420783d222d33302220793d22393222202066696c6c3d22000000009052565b614670603c890187611c5b565b5f5160206154085f395f51905f5281527f6e6f7370616365223e4c414e452020203a3c2f746578743e000000000000000060208201526038017f3c7465787420783d223132302220793d22393222202066696c6c3d222365636681525f5160206153e85f395f51905f5260208201525f5160206153c85f395f51905f526040820152605e016146fe91611c5b565b661e17ba32bc3a1f60c91b81527f3c7465787420783d222d33302220793d22313136222066696c6c3d2200000000600782015260230161473e9086611c5b565b5f5160206154085f395f51905f5281527f6e6f7370616365223e47414d455320203a3c2f746578743e000000000000000060208201526038017f3c7465787420783d223132302220793d22313136222066696c6c3d222365636681525f5160206153e85f395f51905f5260208201525f5160206153c85f395f51905f526040820152605e016147cc91611c5b565b661e17ba32bc3a1f60c91b81527f3c7465787420783d222d33302220793d22313430222066696c6c3d2200000000600782015260230161480c9085611c5b565b5f5160206154085f395f51905f5281527f6e6f7370616365223e4b494c4c5320203a3c2f746578743e000000000000000060208201526038017f3c7465787420783d223132302220793d22313430222066696c6c3d222365636681525f5160206153e85f395f51905f5260208201525f5160206153c85f395f51905f526040820152605e0161489a91611c5b565b661e17ba32bc3a1f60c91b81527f3c7465787420783d222d33302220793d22313634222066696c6c3d220000000060078201526023016148da9084611c5b565b5f5160206154085f395f51905f5281527f6e6f7370616365223e444541544853203a3c2f746578743e000000000000000060208201526038017f3c7465787420783d223132302220793d22313634222066696c6c3d222365636681525f5160206153e85f395f51905f5260208201525f5160206153c85f395f51905f526040820152605e0161496891611c5b565b661e17ba32bc3a1f60c91b81527f3c7465787420783d222d33302220793d22313838222066696c6c3d220000000060078201526023016149a89083611c5b565b5f5160206154085f395f51905f5281527f6e6f7370616365223e415353495354533a3c2f746578743e000000000000000060208201526038017f3c7465787420783d223132302220793d22313838222066696c6c3d222365636681525f5160206153e85f395f51905f5260208201525f5160206153c85f395f51905f526040820152605e01614a3691611c5b565b661e17ba32bc3a1f60c91b81527f3c7465787420783d222d33302220793d22323132222066696c6c3d22000000006007820152602301614a7591611c5b565b5f5160206154085f395f51905f5281527f6e6f7370616365223e4b4441202020203a3c2f746578743e000000000000000060208201526038017f3c7465787420783d223132302220793d22323132222066696c6c3d222365636681525f5160206153e85f395f51905f5260208201525f5160206153c85f395f51905f526040820152605e01614b0391611c5b565b661e17ba32bc3a1f60c91b81527f3c6c696e652078313d222d3330222079313d22323238222078323d223132302260078201527f2079323d2232323822207374726f6b653d222335353522207374726f6b652d7760278201527f696474683d223322207374726f6b652d6461736861727261793d22382c36222f6047820152601f60f91b606782015260680103601f198101825261052b90826102c2565b90815115614cb657614bc5614bc0614bb98451611bd0565b6003900490565b611c0f565b90604051917f4142434445464748494a4b4c4d4e4f505152535455565758595a616263646566601f527f6768696a6b6c6d6e6f707172737475767778797a303132333435363738392b2f603f52602083018480518101602081018051915f82525b808910614c7a5750602095969750906003929152510680600114614c6557600214614c58575b50808452830101604052565b603d905f1901535f614c4c565b50603d90815f1982015360011901535f614c4c565b939760036004910198603f8a51818160121c165183538181600c1c16516001840153818160061c16516002840153165160038201530193614c26565b905061052b611b2b565b815115614cd6575f808252604082015260600152565b6322ce3edd60e01b5f5260045ffd5b60405190614cf2826102a7565b5f602083606081520152565b604051614d0a816102a7565b5f614d13614ce5565b808352614d296101006020850192848452614f21565b505290565b8151614d7f9291906001600160401b031660178111614d82578151614d6a91614d6490614d5d60605b60ff1690565b1760ff1690565b906150a1565b505b5190614d76614ce5565b5080519161530b565b50565b60ff8111614daf578151614da99190614da190601860605b17906150a1565b50825161528b565b50614d6c565b61ffff8111614dd4578151614da99190614dcc9060196060614d9a565b508251615212565b63ffffffff8111614dfb578151614da99190614df390601a6060614d9a565b508251615199565b8151614da99190614e0f90601b6060614d9a565b50825161511b565b90610bb591614e268151615031565b5060405191602083015260208252614e3f6040836102c2565b614e88565b602090614e53609f82516150a1565b500180519060018201809211610f7d5752565b602090614e7560ff82516150a1565b500180515f19810191908211610f7d5752565b8151614d7f9291906001600160401b031660178111614eb5578151614d6a91614d6490614d5d6040614d57565b60ff8111614ed1578151614da99190614da19060186040614d9a565b61ffff8111614eee578151614da99190614dcc9060196040614d9a565b63ffffffff8111614f0d578151614da99190614df390601a6040614d9a565b8151614da99190614e0f90601b6040614d9a565b90614f2a614ce5565b50601f811680614f58575b50806020830152604051908183525f825281016020019081106103425760405290565b60200360208111610f7d578101809111610f7d575f614f35565b90614f7b614ce5565b508051614f86614ce5565b50614f948251821115615304565b82515191614fa28284611bec565b906020850151821161501a575b602091855183815196820101958211615012575b505001905b6020811015614fec575f19906020036101000a019081199051169082511617905290565b909161500761500161500d9285518152611bde565b93611bde565b91611b53565b614fc8565b525f80614fc3565b61502c61502683611c27565b866153b0565b614faf565b615039614ce5565b508051516001810190818111610f7d576020830151811015615072575b60c26020845192830101538051821161506e57505090565b5290565b8160011b82810460021483151715610f7d5761509b9061509485519186614f21565b5084614f72565b50615056565b906150aa614ce5565b508151516001810191828211610f7d5760208401518210156150dd575b6020845192830101538051821161506e57505090565b8260011b83810460021484151715610f7d57615106906150ff86519187614f21565b5085614f72565b506150c7565b601f8111610f7d576101000a90565b90615124614ce5565b50815151806008019182600811610f7d5760208401518311615171575b61515361514e600861510c565b611b62565b90600885519384010191198251161790528051821161506e57505090565b8260011b83810460021484151715610f7d57615193906150ff86519187614f21565b50615141565b906151a2614ce5565b50815151806004019182600411610f7d57602084015183116151ea575b6151cc61514e600461510c565b90600485519384010191198251161790528051821161506e57505090565b8260011b83810460021484151715610f7d5761520c906150ff86519187614f21565b506151bf565b9061521b614ce5565b50815151806002019182600211610f7d5760208401518311615263575b61524561514e600261510c565b90600285519384010191198251161790528051821161506e57505090565b8260011b83810460021484151715610f7d57615285906150ff86519187614f21565b50615238565b90615294614ce5565b50815151806001019182600111610f7d57602084015183116152dc575b6152be61514e600161510c565b90600185519384010191198251161790528051821161506e57505090565b8260011b83810460021484151715610f7d576152fe906150ff86519187614f21565b506152b1565b1561034257565b91615314614ce5565b506153228251821115615304565b6020835151926153328385611bec565b828601518111615399575b855183815196820101958211615391575b505001905b6020811015615377575f19906020036101000a019081199051169082511617905290565b909161500761500161538c9285518152611bde565b615353565b525f8061534e565b6153ab6153a582611c27565b876153b0565b61533d565b90614d7f916153c181519282614f21565b50614f7256fe22656e642220666f6e742d66616d696c793d226d6f6e6f7370616365223e00003066312220666f6e742d73697a653d2231332220746578742d616e63686f723d2220666f6e742d73697a653d2231332220666f6e742d66616d696c793d226d6fa26469706673582212202212a14e5aeddd264a32299a14c52c4449a35eb152741102490884a6df34b1fb64736f6c634300081e0033",
			"opcodes": "PUSH1 0xA0 PUSH1 0x40 MSTORE CALLVALUE PUSH2 0x416 JUMPI PUSH2 0x589D PUSH1 0x20 DUP2 CODESIZE SUB SWAP2 DUP3 PUSH2 0x1C DUP2 PUSH2 0x41A JUMP JUMPDEST SWAP4 DUP5 SWAP3 DUP4 CODECOPY DUP2 ADD SUB SLT PUSH2 0x416 JUMPI MLOAD PUSH1 0x1 PUSH1 0x1 PUSH1 0x40 SHL SUB DUP2 AND SWAP1 DUP2 SWAP1 SUB PUSH2 0x416 JUMPI PUSH1 0x9 SLOAD PUSH1 0x1 PUSH1 0x1 PUSH1 0xA0 SHL SUB AND SWAP1 PUSH2 0x53 PUSH1 0x40 PUSH2 0x41A JUMP JUMPDEST SWAP2 PUSH1 0xF DUP4 MSTORE PUSH15 0x13541308141B185E595C8810D85C99 PUSH1 0x8A SHL PUSH1 0x20 DUP5 ADD MSTORE PUSH2 0x7A PUSH1 0x40 PUSH2 0x41A JUMP JUMPDEST PUSH1 0x5 DUP2 MSTORE PUSH5 0x4D504C5043 PUSH1 0xD8 SHL PUSH1 0x20 DUP3 ADD MSTORE DUP4 MLOAD SWAP1 SWAP3 SWAP1 PUSH1 0x1 PUSH1 0x1 PUSH1 0x40 SHL SUB DUP2 GT PUSH2 0x32A JUMPI PUSH0 SLOAD PUSH1 0x1 DUP2 DUP2 SHR SWAP2 AND DUP1 ISZERO PUSH2 0x40C JUMPI JUMPDEST PUSH1 0x20 DUP3 LT EQ PUSH2 0x30C JUMPI PUSH1 0x1F DUP2 GT PUSH2 0x3AA JUMPI JUMPDEST POP PUSH1 0x20 SWAP5 PUSH1 0x1F DUP3 GT PUSH1 0x1 EQ PUSH2 0x349 JUMPI SWAP5 DUP2 SWAP3 SWAP4 SWAP5 SWAP6 PUSH0 SWAP3 PUSH2 0x33E JUMPI JUMPDEST POP POP DUP2 PUSH1 0x1 SHL SWAP2 PUSH0 NOT SWAP1 PUSH1 0x3 SHL SHR NOT AND OR PUSH0 SSTORE JUMPDEST DUP3 MLOAD PUSH1 0x1 PUSH1 0x1 PUSH1 0x40 SHL SUB DUP2 GT PUSH2 0x32A JUMPI PUSH1 0x1 SLOAD PUSH1 0x1 DUP2 DUP2 SHR SWAP2 AND DUP1 ISZERO PUSH2 0x320 JUMPI JUMPDEST PUSH1 0x20 DUP3 LT EQ PUSH2 0x30C JUMPI PUSH1 0x1F DUP2 GT PUSH2 0x2A9 JUMPI JUMPDEST POP PUSH1 0x20 PUSH1 0x1F DUP3 GT PUSH1 0x1 EQ PUSH2 0x246 JUMPI DUP2 SWAP3 SWAP4 SWAP5 PUSH0 SWAP3 PUSH2 0x23B JUMPI JUMPDEST POP POP DUP2 PUSH1 0x1 SHL SWAP2 PUSH0 NOT SWAP1 PUSH1 0x3 SHL SHR NOT AND OR PUSH1 0x1 SSTORE JUMPDEST CALLER ISZERO PUSH2 0x228 JUMPI PUSH1 0x7 DUP1 SLOAD CALLER PUSH1 0x1 PUSH1 0x1 PUSH1 0xA0 SHL SUB NOT DUP3 AND DUP2 OR SWAP1 SWAP3 SSTORE PUSH1 0x40 MLOAD SWAP4 SWAP2 SWAP1 PUSH1 0x1 PUSH1 0x1 PUSH1 0xA0 SHL SUB AND PUSH32 0x8BE0079C531659141344CD1FD0A4F28419497F9722A3DAAFE3B4186F6B6457E0 PUSH0 DUP1 LOG3 PUSH1 0x80 MSTORE PUSH1 0x9 DUP1 SLOAD PUSH1 0x1 PUSH1 0x1 PUSH1 0xA0 SHL SUB NOT AND PUSH20 0xB83E47C2BC239B3BF370BC41E1459A34B41238D0 OR SWAP1 SSTORE PUSH32 0x66756E2D657468657265756D2D7365706F6C69612D3100000000000000000000 PUSH1 0xA SSTORE PUSH3 0x15180 PUSH1 0xE SSTORE PUSH1 0xB DUP1 SLOAD PUSH1 0x1 PUSH1 0x1 PUSH1 0x40 SHL SUB NOT AND SWAP2 SWAP1 SWAP2 OR SWAP1 SSTORE TIMESTAMP PUSH1 0xD SSTORE PUSH2 0x545D SWAP1 DUP2 PUSH2 0x440 DUP3 CODECOPY PUSH1 0x80 MLOAD DUP2 DUP2 DUP2 PUSH2 0x7EE ADD MSTORE PUSH2 0x4547 ADD MSTORE RETURN JUMPDEST PUSH4 0x1E4FBDF7 PUSH1 0xE0 SHL PUSH0 MSTORE PUSH0 PUSH1 0x4 MSTORE PUSH1 0x24 PUSH0 REVERT JUMPDEST ADD MLOAD SWAP1 POP PUSH0 DUP1 PUSH2 0x13D JUMP JUMPDEST PUSH1 0x1F NOT DUP3 AND SWAP1 PUSH1 0x1 PUSH0 MSTORE DUP1 PUSH0 KECCAK256 SWAP2 PUSH0 JUMPDEST DUP2 DUP2 LT PUSH2 0x291 JUMPI POP SWAP6 DUP4 PUSH1 0x1 SWAP6 SWAP7 SWAP8 LT PUSH2 0x279 JUMPI JUMPDEST POP POP POP DUP2 SHL ADD PUSH1 0x1 SSTORE PUSH2 0x152 JUMP JUMPDEST ADD MLOAD PUSH0 NOT PUSH1 0xF8 DUP5 PUSH1 0x3 SHL AND SHR NOT AND SWAP1 SSTORE PUSH0 DUP1 DUP1 PUSH2 0x26B JUMP JUMPDEST SWAP2 SWAP3 PUSH1 0x20 PUSH1 0x1 DUP2 SWAP3 DUP7 DUP12 ADD MLOAD DUP2 SSTORE ADD SWAP5 ADD SWAP3 ADD PUSH2 0x256 JUMP JUMPDEST PUSH1 0x1 PUSH0 MSTORE PUSH32 0xB10E2D527612073B26EECDFD717E6A320CF44B4AFAC2B0732D9FCBE2B7FA0CF6 PUSH1 0x1F DUP4 ADD PUSH1 0x5 SHR DUP2 ADD SWAP2 PUSH1 0x20 DUP5 LT PUSH2 0x302 JUMPI JUMPDEST PUSH1 0x1F ADD PUSH1 0x5 SHR ADD SWAP1 JUMPDEST DUP2 DUP2 LT PUSH2 0x2F7 JUMPI POP PUSH2 0x124 JUMP JUMPDEST PUSH0 DUP2 SSTORE PUSH1 0x1 ADD PUSH2 0x2EA JUMP JUMPDEST SWAP1 SWAP2 POP DUP2 SWAP1 PUSH2 0x2E1 JUMP JUMPDEST PUSH4 0x4E487B71 PUSH1 0xE0 SHL PUSH0 MSTORE PUSH1 0x22 PUSH1 0x4 MSTORE PUSH1 0x24 PUSH0 REVERT JUMPDEST SWAP1 PUSH1 0x7F AND SWAP1 PUSH2 0x112 JUMP JUMPDEST PUSH4 0x4E487B71 PUSH1 0xE0 SHL PUSH0 MSTORE PUSH1 0x41 PUSH1 0x4 MSTORE PUSH1 0x24 PUSH0 REVERT JUMPDEST ADD MLOAD SWAP1 POP PUSH0 DUP1 PUSH2 0xDD JUMP JUMPDEST PUSH1 0x1F NOT DUP3 AND SWAP6 PUSH0 DUP1 MSTORE DUP1 PUSH0 KECCAK256 SWAP2 PUSH0 JUMPDEST DUP9 DUP2 LT PUSH2 0x392 JUMPI POP DUP4 PUSH1 0x1 SWAP6 SWAP7 SWAP8 SWAP9 LT PUSH2 0x37A JUMPI JUMPDEST POP POP POP DUP2 SHL ADD PUSH0 SSTORE PUSH2 0xF1 JUMP JUMPDEST ADD MLOAD PUSH0 NOT PUSH1 0xF8 DUP5 PUSH1 0x3 SHL AND SHR NOT AND SWAP1 SSTORE PUSH0 DUP1 DUP1 PUSH2 0x36D JUMP JUMPDEST SWAP2 SWAP3 PUSH1 0x20 PUSH1 0x1 DUP2 SWAP3 DUP7 DUP6 ADD MLOAD DUP2 SSTORE ADD SWAP5 ADD SWAP3 ADD PUSH2 0x358 JUMP JUMPDEST PUSH0 DUP1 MSTORE PUSH32 0x290DECD9548B62A8D60345A988386FC84BA6BC95484008F6362F93160EF3E563 PUSH1 0x1F DUP4 ADD PUSH1 0x5 SHR DUP2 ADD SWAP2 PUSH1 0x20 DUP5 LT PUSH2 0x402 JUMPI JUMPDEST PUSH1 0x1F ADD PUSH1 0x5 SHR ADD SWAP1 JUMPDEST DUP2 DUP2 LT PUSH2 0x3F7 JUMPI POP PUSH2 0xC1 JUMP JUMPDEST PUSH0 DUP2 SSTORE PUSH1 0x1 ADD PUSH2 0x3EA JUMP JUMPDEST SWAP1 SWAP2 POP DUP2 SWAP1 PUSH2 0x3E1 JUMP JUMPDEST SWAP1 PUSH1 0x7F AND SWAP1 PUSH2 0xAF JUMP JUMPDEST PUSH0 DUP1 REVERT JUMPDEST PUSH1 0x40 MLOAD SWAP2 SWAP1 PUSH1 0x1F ADD PUSH1 0x1F NOT AND DUP3 ADD PUSH1 0x1 PUSH1 0x1 PUSH1 0x40 SHL SUB DUP2 GT DUP4 DUP3 LT OR PUSH2 0x32A JUMPI PUSH1 0x40 MSTORE JUMP INVALID PUSH1 0x80 PUSH1 0x40 MSTORE PUSH1 0x4 CALLDATASIZE LT ISZERO PUSH2 0x11 JUMPI PUSH0 DUP1 REVERT JUMPDEST PUSH0 CALLDATALOAD PUSH1 0xE0 SHR DUP1 PUSH3 0xB46767 EQ PUSH2 0x253 JUMPI DUP1 PUSH4 0x1FFC9A7 EQ PUSH2 0x24E JUMPI DUP1 PUSH4 0x6FDDE03 EQ PUSH2 0x249 JUMPI DUP1 PUSH4 0x81812FC EQ PUSH2 0x244 JUMPI DUP1 PUSH4 0x95EA7B3 EQ PUSH2 0x23F JUMPI DUP1 PUSH4 0x9C1BA2E EQ PUSH2 0x23A JUMPI DUP1 PUSH4 0xCA76175 EQ PUSH2 0x235 JUMPI DUP1 PUSH4 0x13C60177 EQ PUSH2 0x230 JUMPI DUP1 PUSH4 0x18160DDD EQ PUSH2 0x22B JUMPI DUP1 PUSH4 0x20457FB6 EQ PUSH2 0x226 JUMPI DUP1 PUSH4 0x22E817E2 EQ PUSH2 0x221 JUMPI DUP1 PUSH4 0x23B872DD EQ PUSH2 0x21C JUMPI DUP1 PUSH4 0x2839B78F EQ PUSH2 0x217 JUMPI DUP1 PUSH4 0x3F3B3B27 EQ PUSH2 0x212 JUMPI DUP1 PUSH4 0x42842E0E EQ PUSH2 0x20D JUMPI DUP1 PUSH4 0x4585E33B EQ PUSH2 0x208 JUMPI DUP1 PUSH4 0x5C2ADF6A EQ PUSH2 0x203 JUMPI DUP1 PUSH4 0x6352211E EQ PUSH2 0x1FE JUMPI DUP1 PUSH4 0x68015A4B EQ PUSH2 0x1F9 JUMPI DUP1 PUSH4 0x6DCEE4CA EQ PUSH2 0x1F4 JUMPI DUP1 PUSH4 0x6E04FF0D EQ PUSH2 0x1EF JUMPI DUP1 PUSH4 0x70A08231 EQ PUSH2 0x1EA JUMPI DUP1 PUSH4 0x715018A6 EQ PUSH2 0x1E5 JUMPI DUP1 PUSH4 0x8DA5CB5B EQ PUSH2 0x1E0 JUMPI DUP1 PUSH4 0x947A36FB EQ PUSH2 0x1DB JUMPI DUP1 PUSH4 0x94881476 EQ PUSH2 0x1D6 JUMPI DUP1 PUSH4 0x95D89B41 EQ PUSH2 0x1D1 JUMPI DUP1 PUSH4 0xA22CB465 EQ PUSH2 0x1CC JUMPI DUP1 PUSH4 0xB4CFAE44 EQ PUSH2 0x1C7 JUMPI DUP1 PUSH4 0xB88D4FDE EQ PUSH2 0x1C2 JUMPI DUP1 PUSH4 0xC26B265F EQ PUSH2 0x1BD JUMPI DUP1 PUSH4 0xC87B56DD EQ PUSH2 0x1B8 JUMPI DUP1 PUSH4 0xE049D709 EQ PUSH2 0x1B3 JUMPI DUP1 PUSH4 0xE985E9C5 EQ PUSH2 0x1AE JUMPI DUP1 PUSH4 0xECA81D42 EQ PUSH2 0x1A9 JUMPI PUSH4 0xF2FDE38B EQ PUSH2 0x1A4 JUMPI PUSH0 DUP1 REVERT JUMPDEST PUSH2 0x17EA JUMP JUMPDEST PUSH2 0x172A JUMP JUMPDEST PUSH2 0x16CE JUMP JUMPDEST PUSH2 0x16B3 JUMP JUMPDEST PUSH2 0x1568 JUMP JUMPDEST PUSH2 0x152A JUMP JUMPDEST PUSH2 0x14D6 JUMP JUMPDEST PUSH2 0x1439 JUMP JUMPDEST PUSH2 0x136B JUMP JUMPDEST PUSH2 0x12C6 JUMP JUMPDEST PUSH2 0x12A9 JUMP JUMPDEST PUSH2 0x128C JUMP JUMPDEST PUSH2 0x1264 JUMP JUMPDEST PUSH2 0x1209 JUMP JUMPDEST PUSH2 0x11B8 JUMP JUMPDEST PUSH2 0x1155 JUMP JUMPDEST PUSH2 0x1136 JUMP JUMPDEST PUSH2 0x110C JUMP JUMPDEST PUSH2 0x10DC JUMP JUMPDEST PUSH2 0xFED JUMP JUMPDEST PUSH2 0xF33 JUMP JUMPDEST PUSH2 0xEAF JUMP JUMPDEST PUSH2 0xE92 JUMP JUMPDEST PUSH2 0xE4C JUMP JUMPDEST PUSH2 0xE35 JUMP JUMPDEST PUSH2 0xD4E JUMP JUMPDEST PUSH2 0xD1F JUMP JUMPDEST PUSH2 0xD02 JUMP JUMPDEST PUSH2 0xCD3 JUMP JUMPDEST PUSH2 0x79A JUMP JUMPDEST PUSH2 0x774 JUMP JUMPDEST PUSH2 0x66D JUMP JUMPDEST PUSH2 0x605 JUMP JUMPDEST PUSH2 0x52E JUMP JUMPDEST PUSH2 0x46D JUMP JUMPDEST PUSH2 0x346 JUMP JUMPDEST PUSH4 0x4E487B71 PUSH1 0xE0 SHL PUSH0 MSTORE PUSH1 0x41 PUSH1 0x4 MSTORE PUSH1 0x24 PUSH0 REVERT JUMPDEST PUSH1 0xC0 DUP2 ADD SWAP1 DUP2 LT PUSH1 0x1 PUSH1 0x1 PUSH1 0x40 SHL SUB DUP3 GT OR PUSH2 0x287 JUMPI PUSH1 0x40 MSTORE JUMP JUMPDEST PUSH2 0x258 JUMP JUMPDEST PUSH1 0xE0 DUP2 ADD SWAP1 DUP2 LT PUSH1 0x1 PUSH1 0x1 PUSH1 0x40 SHL SUB DUP3 GT OR PUSH2 0x287 JUMPI PUSH1 0x40 MSTORE JUMP JUMPDEST PUSH1 0x40 DUP2 ADD SWAP1 DUP2 LT PUSH1 0x1 PUSH1 0x1 PUSH1 0x40 SHL SUB DUP3 GT OR PUSH2 0x287 JUMPI PUSH1 0x40 MSTORE JUMP JUMPDEST SWAP1 PUSH1 0x1F DUP1 NOT SWAP2 ADD AND DUP2 ADD SWAP1 DUP2 LT PUSH1 0x1 PUSH1 0x1 PUSH1 0x40 SHL SUB DUP3 GT OR PUSH2 0x287 JUMPI PUSH1 0x40 MSTORE JUMP JUMPDEST PUSH1 0x1 PUSH1 0x1 PUSH1 0x40 SHL SUB DUP2 GT PUSH2 0x287 JUMPI PUSH1 0x1F ADD PUSH1 0x1F NOT AND PUSH1 0x20 ADD SWAP1 JUMP JUMPDEST DUP2 PUSH1 0x1F DUP3 ADD SLT ISZERO PUSH2 0x342 JUMPI PUSH1 0x20 DUP2 CALLDATALOAD SWAP2 ADD PUSH2 0x318 DUP3 PUSH2 0x2E3 JUMP JUMPDEST SWAP3 PUSH2 0x326 PUSH1 0x40 MLOAD SWAP5 DUP6 PUSH2 0x2C2 JUMP JUMPDEST DUP3 DUP5 MSTORE DUP3 DUP3 ADD GT PUSH2 0x342 JUMPI DUP2 PUSH0 SWAP3 PUSH1 0x20 SWAP3 DUP4 DUP7 ADD CALLDATACOPY DUP4 ADD ADD MSTORE SWAP1 JUMP JUMPDEST PUSH0 DUP1 REVERT JUMPDEST CALLVALUE PUSH2 0x342 JUMPI PUSH1 0x20 CALLDATASIZE PUSH1 0x3 NOT ADD SLT PUSH2 0x342 JUMPI PUSH1 0x4 CALLDATALOAD PUSH1 0x1 PUSH1 0x1 PUSH1 0x40 SHL SUB DUP2 GT PUSH2 0x342 JUMPI PUSH2 0x376 SWAP1 CALLDATASIZE SWAP1 PUSH1 0x4 ADD PUSH2 0x2FE JUMP JUMPDEST PUSH2 0x37E PUSH2 0x2512 JUMP JUMPDEST DUP1 MLOAD PUSH1 0x1 PUSH1 0x1 PUSH1 0x40 SHL SUB DUP2 GT PUSH2 0x287 JUMPI PUSH2 0x3A2 DUP2 PUSH2 0x39D PUSH1 0xC SLOAD PUSH2 0xB46 JUMP JUMPDEST PUSH2 0x1870 JUMP JUMPDEST PUSH1 0x20 SWAP2 PUSH1 0x1F DUP3 GT PUSH1 0x1 EQ PUSH2 0x3E0 JUMPI PUSH2 0x3D0 SWAP3 PUSH0 SWAP2 DUP4 PUSH2 0x3D5 JUMPI JUMPDEST POP POP DUP2 PUSH1 0x1 SHL SWAP2 PUSH0 NOT SWAP1 PUSH1 0x3 SHL SHR NOT AND OR SWAP1 JUMP JUMPDEST PUSH1 0xC SSTORE STOP JUMPDEST ADD MLOAD SWAP1 POP PUSH0 DUP1 PUSH2 0x3BC JUMP JUMPDEST PUSH1 0xC PUSH0 MSTORE PUSH1 0x1F NOT DUP3 AND SWAP3 PUSH32 0xDF6966C971051C3D54EC59162606531493A51404A002842F56009D7E5CF4A8C7 SWAP2 PUSH0 JUMPDEST DUP6 DUP2 LT PUSH2 0x443 JUMPI POP DUP4 PUSH1 0x1 SWAP6 LT PUSH2 0x42B JUMPI JUMPDEST POP POP POP DUP2 SHL ADD PUSH1 0xC SSTORE STOP JUMPDEST ADD MLOAD PUSH0 NOT PUSH1 0xF8 DUP5 PUSH1 0x3 SHL AND SHR NOT AND SWAP1 SSTORE PUSH0 DUP1 DUP1 PUSH2 0x420 JUMP JUMPDEST SWAP2 SWAP3 PUSH1 0x20 PUSH1 0x1 DUP2 SWAP3 DUP7 DUP6 ADD MLOAD DUP2 SSTORE ADD SWAP5 ADD SWAP3 ADD PUSH2 0x40E JUMP JUMPDEST PUSH1 0x1 PUSH1 0x1 PUSH1 0xE0 SHL SUB NOT DUP2 AND SUB PUSH2 0x342 JUMPI JUMP JUMPDEST CALLVALUE PUSH2 0x342 JUMPI PUSH1 0x20 CALLDATASIZE PUSH1 0x3 NOT ADD SLT PUSH2 0x342 JUMPI PUSH1 0x4 CALLDATALOAD PUSH2 0x48A DUP2 PUSH2 0x45B JUMP JUMPDEST PUSH4 0xFFFFFFFF PUSH1 0xE0 SHL AND PUSH4 0x24832483 PUSH1 0xE1 SHL DUP2 EQ SWAP1 DUP2 ISZERO PUSH2 0x4B3 JUMPI JUMPDEST POP PUSH1 0x40 MLOAD SWAP1 ISZERO ISZERO DUP2 MSTORE PUSH1 0x20 SWAP1 RETURN JUMPDEST PUSH4 0x80AC58CD PUSH1 0xE0 SHL DUP2 EQ SWAP2 POP DUP2 ISZERO PUSH2 0x4E5 JUMPI JUMPDEST DUP2 ISZERO PUSH2 0x4D4 JUMPI JUMPDEST POP PUSH0 PUSH2 0x4A5 JUMP JUMPDEST PUSH4 0x1FFC9A7 PUSH1 0xE0 SHL EQ SWAP1 POP PUSH0 PUSH2 0x4CD JUMP JUMPDEST PUSH4 0x5B5E139F PUSH1 0xE0 SHL DUP2 EQ SWAP2 POP PUSH2 0x4C6 JUMP JUMPDEST DUP1 MLOAD DUP1 DUP4 MSTORE PUSH1 0x20 SWAP3 SWAP2 DUP2 SWAP1 DUP5 ADD DUP5 DUP5 ADD MCOPY PUSH0 DUP3 DUP3 ADD DUP5 ADD MSTORE PUSH1 0x1F ADD PUSH1 0x1F NOT AND ADD ADD SWAP1 JUMP JUMPDEST SWAP1 PUSH1 0x20 PUSH2 0x52B SWAP3 DUP2 DUP2 MSTORE ADD SWAP1 PUSH2 0x4F6 JUMP JUMPDEST SWAP1 JUMP JUMPDEST CALLVALUE PUSH2 0x342 JUMPI PUSH0 CALLDATASIZE PUSH1 0x3 NOT ADD SLT PUSH2 0x342 JUMPI PUSH1 0x40 MLOAD PUSH0 PUSH0 SLOAD PUSH2 0x54D DUP2 PUSH2 0xB46 JUMP JUMPDEST DUP1 DUP5 MSTORE SWAP1 PUSH1 0x1 DUP2 AND SWAP1 DUP2 ISZERO PUSH2 0x5E1 JUMPI POP PUSH1 0x1 EQ PUSH2 0x585 JUMPI JUMPDEST PUSH2 0x581 DUP4 PUSH2 0x575 DUP2 DUP6 SUB DUP3 PUSH2 0x2C2 JUMP JUMPDEST PUSH1 0x40 MLOAD SWAP2 DUP3 SWAP2 DUP3 PUSH2 0x51A JUMP JUMPDEST SUB SWAP1 RETURN JUMPDEST PUSH0 DUP1 DUP1 MSTORE PUSH32 0x290DECD9548B62A8D60345A988386FC84BA6BC95484008F6362F93160EF3E563 SWAP4 SWAP3 POP SWAP1 JUMPDEST DUP1 DUP3 LT PUSH2 0x5C7 JUMPI POP SWAP1 SWAP2 POP DUP2 ADD PUSH1 0x20 ADD PUSH2 0x575 PUSH2 0x565 JUMP JUMPDEST SWAP2 SWAP3 PUSH1 0x1 DUP2 PUSH1 0x20 SWAP3 SLOAD DUP4 DUP6 DUP9 ADD ADD MSTORE ADD SWAP2 ADD SWAP1 SWAP3 SWAP2 PUSH2 0x5AF JUMP JUMPDEST PUSH1 0xFF NOT AND PUSH1 0x20 DUP1 DUP7 ADD SWAP2 SWAP1 SWAP2 MSTORE SWAP2 ISZERO ISZERO PUSH1 0x5 SHL DUP5 ADD SWAP1 SWAP2 ADD SWAP2 POP PUSH2 0x575 SWAP1 POP PUSH2 0x565 JUMP JUMPDEST CALLVALUE PUSH2 0x342 JUMPI PUSH1 0x20 CALLDATASIZE PUSH1 0x3 NOT ADD SLT PUSH2 0x342 JUMPI PUSH1 0x4 CALLDATALOAD PUSH2 0x622 DUP2 PUSH2 0x2539 JUMP JUMPDEST POP PUSH0 MSTORE PUSH1 0x4 PUSH1 0x20 MSTORE PUSH1 0x20 PUSH1 0x1 DUP1 PUSH1 0xA0 SHL SUB PUSH1 0x40 PUSH0 KECCAK256 SLOAD AND PUSH1 0x40 MLOAD SWAP1 DUP2 MSTORE RETURN JUMPDEST PUSH1 0x4 CALLDATALOAD SWAP1 PUSH1 0x1 PUSH1 0x1 PUSH1 0xA0 SHL SUB DUP3 AND DUP3 SUB PUSH2 0x342 JUMPI JUMP JUMPDEST PUSH1 0x24 CALLDATALOAD SWAP1 PUSH1 0x1 PUSH1 0x1 PUSH1 0xA0 SHL SUB DUP3 AND DUP3 SUB PUSH2 0x342 JUMPI JUMP JUMPDEST CALLVALUE PUSH2 0x342 JUMPI PUSH1 0x40 CALLDATASIZE PUSH1 0x3 NOT ADD SLT PUSH2 0x342 JUMPI PUSH2 0x686 PUSH2 0x641 JUMP JUMPDEST PUSH1 0x24 CALLDATALOAD SWAP1 PUSH2 0x693 DUP3 PUSH2 0x2539 JUMP JUMPDEST CALLER ISZERO ISZERO DUP1 PUSH2 0x761 JUMPI JUMPDEST DUP1 PUSH2 0x723 JUMPI JUMPDEST PUSH2 0x710 JUMPI PUSH2 0x70E SWAP3 PUSH2 0x6EF SWAP2 DUP2 SWAP1 PUSH1 0x1 PUSH1 0x1 PUSH1 0xA0 SHL SUB DUP6 DUP2 AND SWAP2 AND PUSH32 0x8C5BE1E5EBEC7D5BD14F71427D1E84F3DD0314C0F7B2291E5B200AC8C7C3B925 PUSH0 DUP1 LOG4 PUSH0 MSTORE PUSH1 0x4 PUSH1 0x20 MSTORE PUSH1 0x40 PUSH0 KECCAK256 SWAP1 JUMP JUMPDEST DUP1 SLOAD PUSH1 0x1 PUSH1 0x1 PUSH1 0xA0 SHL SUB NOT AND PUSH1 0x1 PUSH1 0x1 PUSH1 0xA0 SHL SUB SWAP1 SWAP3 AND SWAP2 SWAP1 SWAP2 OR SWAP1 SSTORE JUMP JUMPDEST STOP JUMPDEST PUSH4 0xA9FBF51F PUSH1 0xE0 SHL PUSH0 MSTORE CALLER PUSH1 0x4 MSTORE PUSH1 0x24 PUSH0 REVERT JUMPDEST POP PUSH1 0xFF PUSH2 0x759 CALLER PUSH2 0x744 DUP5 PUSH1 0x1 DUP1 PUSH1 0xA0 SHL SUB AND PUSH0 MSTORE PUSH1 0x5 PUSH1 0x20 MSTORE PUSH1 0x40 PUSH0 KECCAK256 SWAP1 JUMP JUMPDEST SWAP1 PUSH1 0x1 DUP1 PUSH1 0xA0 SHL SUB AND PUSH0 MSTORE PUSH1 0x20 MSTORE PUSH1 0x40 PUSH0 KECCAK256 SWAP1 JUMP JUMPDEST SLOAD AND ISZERO PUSH2 0x6A2 JUMP JUMPDEST POP PUSH1 0x1 PUSH1 0x1 PUSH1 0xA0 SHL SUB DUP2 AND CALLER EQ ISZERO PUSH2 0x69C JUMP JUMPDEST CALLVALUE PUSH2 0x342 JUMPI PUSH0 CALLDATASIZE PUSH1 0x3 NOT ADD SLT PUSH2 0x342 JUMPI PUSH1 0x20 PUSH1 0x1 PUSH1 0x1 PUSH1 0x40 SHL SUB PUSH1 0xB SLOAD AND PUSH1 0x40 MLOAD SWAP1 DUP2 MSTORE RETURN JUMPDEST CALLVALUE PUSH2 0x342 JUMPI PUSH1 0x60 CALLDATASIZE PUSH1 0x3 NOT ADD SLT PUSH2 0x342 JUMPI PUSH1 0x4 CALLDATALOAD PUSH1 0x24 CALLDATALOAD PUSH1 0x1 PUSH1 0x1 PUSH1 0x40 SHL SUB DUP2 GT PUSH2 0x342 JUMPI PUSH2 0x7CD SWAP1 CALLDATASIZE SWAP1 PUSH1 0x4 ADD PUSH2 0x2FE JUMP JUMPDEST PUSH1 0x44 CALLDATALOAD PUSH1 0x1 PUSH1 0x1 PUSH1 0x40 SHL SUB DUP2 GT PUSH2 0x342 JUMPI PUSH2 0x7EC SWAP1 CALLDATASIZE SWAP1 PUSH1 0x4 ADD PUSH2 0x2FE JUMP JUMPDEST PUSH32 0x0 PUSH1 0x1 PUSH1 0x1 PUSH1 0xA0 SHL SUB AND CALLER SUB PUSH2 0xB37 JUMPI PUSH2 0x83F PUSH2 0x83B PUSH2 0x834 DUP6 PUSH0 MSTORE PUSH1 0x12 PUSH1 0x20 MSTORE PUSH1 0x40 PUSH0 KECCAK256 SWAP1 JUMP JUMPDEST SLOAD PUSH1 0xFF AND SWAP1 JUMP JUMPDEST ISZERO SWAP1 JUMP JUMPDEST PUSH2 0xB23 JUMPI DUP1 MLOAD PUSH2 0xB02 JUMPI POP PUSH2 0x99D PUSH2 0x96D PUSH2 0x8CE PUSH2 0x879 PUSH2 0x868 DUP7 PUSH0 MSTORE PUSH1 0x11 PUSH1 0x20 MSTORE PUSH1 0x40 PUSH0 KECCAK256 SWAP1 JUMP JUMPDEST SLOAD SWAP5 PUSH1 0x20 DUP1 DUP3 MLOAD DUP4 ADD ADD SWAP2 ADD PUSH2 0x256D JUMP JUMPDEST PUSH2 0x8BE PUSH1 0x1 PUSH1 0x1 PUSH1 0x40 SHL SUB DUP3 AND PUSH1 0x2 PUSH2 0x89A DUP9 PUSH0 MSTORE PUSH1 0x10 PUSH1 0x20 MSTORE PUSH1 0x40 PUSH0 KECCAK256 SWAP1 JUMP JUMPDEST ADD DUP1 SLOAD PUSH1 0x1 PUSH1 0x1 PUSH1 0xC0 SHL SUB AND PUSH1 0xC0 SWAP3 SWAP1 SWAP3 SHL PUSH1 0x1 PUSH1 0x1 PUSH1 0xC0 SHL SUB NOT AND SWAP2 SWAP1 SWAP2 OR SWAP1 SSTORE JUMP JUMPDEST PUSH2 0x91A PUSH2 0x8DA PUSH2 0x8CE DUP4 PUSH1 0x40 SHR SWAP1 JUMP JUMPDEST PUSH1 0x1 PUSH1 0x1 PUSH1 0x40 SHL SUB AND SWAP1 JUMP JUMPDEST PUSH1 0x2 PUSH2 0x8EE DUP9 PUSH0 MSTORE PUSH1 0x10 PUSH1 0x20 MSTORE PUSH1 0x40 PUSH0 KECCAK256 SWAP1 JUMP JUMPDEST ADD DUP1 SLOAD PUSH8 0xFFFFFFFFFFFFFFFF PUSH1 0x80 SHL NOT AND PUSH1 0x80 SWAP3 SWAP1 SWAP3 SHL PUSH8 0xFFFFFFFFFFFFFFFF PUSH1 0x80 SHL AND SWAP2 SWAP1 SWAP2 OR SWAP1 SSTORE JUMP JUMPDEST PUSH2 0x967 PUSH2 0x92A PUSH2 0x8CE DUP4 PUSH1 0x80 SHR SWAP1 JUMP JUMPDEST PUSH1 0x2 PUSH2 0x93E DUP9 PUSH0 MSTORE PUSH1 0x10 PUSH1 0x20 MSTORE PUSH1 0x40 PUSH0 KECCAK256 SWAP1 JUMP JUMPDEST ADD SWAP1 PUSH8 0xFFFFFFFFFFFFFFFF PUSH1 0x40 SHL DUP3 SLOAD SWAP2 PUSH1 0x40 SHL AND SWAP1 PUSH8 0xFFFFFFFFFFFFFFFF PUSH1 0x40 SHL NOT AND OR SWAP1 SSTORE JUMP JUMPDEST PUSH1 0xC0 SHR SWAP1 JUMP JUMPDEST PUSH1 0x2 PUSH2 0x981 DUP5 PUSH0 MSTORE PUSH1 0x10 PUSH1 0x20 MSTORE PUSH1 0x40 PUSH0 KECCAK256 SWAP1 JUMP JUMPDEST ADD SWAP1 PUSH1 0x1 PUSH1 0x1 PUSH1 0x40 SHL SUB AND PUSH1 0x1 PUSH1 0x1 PUSH1 0x40 SHL SUB NOT DUP3 SLOAD AND OR SWAP1 SSTORE JUMP JUMPDEST PUSH2 0x9BC PUSH2 0x9B2 DUP4 PUSH0 MSTORE PUSH1 0x12 PUSH1 0x20 MSTORE PUSH1 0x40 PUSH0 KECCAK256 SWAP1 JUMP JUMPDEST DUP1 SLOAD PUSH1 0xFF NOT AND SWAP1 SSTORE JUMP JUMPDEST PUSH0 DUP3 DUP2 MSTORE PUSH1 0x11 PUSH1 0x20 MSTORE PUSH1 0x40 DUP2 KECCAK256 SSTORE PUSH2 0x9E4 PUSH2 0x9DF DUP3 PUSH0 MSTORE PUSH1 0x10 PUSH1 0x20 MSTORE PUSH1 0x40 PUSH0 KECCAK256 SWAP1 JUMP JUMPDEST PUSH2 0x1B70 JUMP JUMPDEST PUSH1 0x80 DUP2 ADD DUP1 MLOAD PUSH1 0x1 PUSH1 0x1 PUSH1 0x40 SHL SUB AND DUP1 PUSH2 0xAFC JUMPI POP PUSH1 0x1 SWAP1 JUMPDEST PUSH1 0x60 DUP4 ADD SWAP1 DUP2 MLOAD PUSH2 0xA14 SWAP1 PUSH1 0x1 PUSH1 0x1 PUSH1 0x40 SHL SUB AND SWAP1 JUMP JUMPDEST PUSH1 0x1 PUSH1 0x1 PUSH1 0x40 SHL SUB AND SWAP3 PUSH1 0xA0 DUP6 ADD SWAP4 DUP5 MLOAD PUSH2 0xA35 SWAP1 PUSH1 0x1 PUSH1 0x1 PUSH1 0x40 SHL SUB AND SWAP1 JUMP JUMPDEST PUSH1 0x1 PUSH1 0x1 PUSH1 0x40 SHL SUB AND PUSH2 0xA47 SWAP2 PUSH2 0x1BEC JUMP JUMPDEST PUSH2 0xA50 SWAP1 PUSH2 0x1BF9 JUMP JUMPDEST SWAP1 PUSH1 0x1 PUSH1 0x1 PUSH1 0x40 SHL SUB AND PUSH2 0xA63 SWAP2 PUSH2 0x1C3D JUMP JUMPDEST PUSH2 0xA6C SWAP1 PUSH2 0x286A JUMP JUMPDEST PUSH1 0x40 SWAP5 DUP6 ADD MLOAD SWAP3 MLOAD SWAP2 MLOAD SWAP4 MLOAD DUP6 MLOAD PUSH1 0x1 PUSH1 0x1 PUSH1 0x40 SHL SUB SWAP5 DUP6 AND DUP2 MSTORE SWAP3 DUP5 AND PUSH1 0x20 DUP5 ADD MSTORE SWAP4 DUP4 AND SWAP5 DUP3 ADD SWAP5 SWAP1 SWAP5 MSTORE SWAP2 AND PUSH1 0x60 DUP3 ADD MSTORE PUSH1 0xFF SWAP1 SWAP2 AND PUSH1 0x80 DUP3 ADD MSTORE TIMESTAMP PUSH1 0xA0 DUP3 ADD MSTORE PUSH32 0x65B31B33BDD99BEA0CC76B844AC2161D84F706E84C7AAA3AD9467F2BC5670AD3 SWAP1 PUSH1 0xC0 SWAP1 LOG2 PUSH32 0x85E1543BF2F84FE80C6BADBCE3648C8539AD1DF4D2B3D822938CA0538BE727E6 PUSH0 DUP1 LOG2 STOP JUMPDEST SWAP1 PUSH2 0x9FD JUMP JUMPDEST PUSH1 0x40 MLOAD PUSH4 0x1DE77FF9 PUSH1 0xE1 SHL DUP2 MSTORE SWAP1 DUP2 SWAP1 PUSH2 0xB1F SWAP1 PUSH1 0x4 DUP4 ADD PUSH2 0x51A JUMP JUMPDEST SUB SWAP1 REVERT JUMPDEST PUSH4 0xF6A8D1C9 PUSH1 0xE0 SHL PUSH0 MSTORE PUSH1 0x4 DUP4 SWAP1 MSTORE PUSH1 0x24 PUSH0 REVERT JUMPDEST PUSH4 0xC6829F83 PUSH1 0xE0 SHL PUSH0 MSTORE PUSH1 0x4 PUSH0 REVERT JUMPDEST SWAP1 PUSH1 0x1 DUP3 DUP2 SHR SWAP3 AND DUP1 ISZERO PUSH2 0xB74 JUMPI JUMPDEST PUSH1 0x20 DUP4 LT EQ PUSH2 0xB60 JUMPI JUMP JUMPDEST PUSH4 0x4E487B71 PUSH1 0xE0 SHL PUSH0 MSTORE PUSH1 0x22 PUSH1 0x4 MSTORE PUSH1 0x24 PUSH0 REVERT JUMPDEST SWAP2 PUSH1 0x7F AND SWAP2 PUSH2 0xB55 JUMP JUMPDEST PUSH1 0x40 MLOAD SWAP1 PUSH0 DUP3 PUSH1 0xC SLOAD SWAP2 PUSH2 0xB91 DUP4 PUSH2 0xB46 JUMP JUMPDEST DUP1 DUP4 MSTORE SWAP3 PUSH1 0x1 DUP2 AND SWAP1 DUP2 ISZERO PUSH2 0xC16 JUMPI POP PUSH1 0x1 EQ PUSH2 0xBB7 JUMPI JUMPDEST PUSH2 0xBB5 SWAP3 POP SUB DUP4 PUSH2 0x2C2 JUMP JUMPDEST JUMP JUMPDEST POP PUSH1 0xC PUSH0 SWAP1 DUP2 MSTORE SWAP1 SWAP2 PUSH32 0xDF6966C971051C3D54EC59162606531493A51404A002842F56009D7E5CF4A8C7 JUMPDEST DUP2 DUP4 LT PUSH2 0xBFA JUMPI POP POP SWAP1 PUSH1 0x20 PUSH2 0xBB5 SWAP3 DUP3 ADD ADD PUSH2 0xBA9 JUMP JUMPDEST PUSH1 0x20 SWAP2 SWAP4 POP DUP1 PUSH1 0x1 SWAP2 SLOAD DUP4 DUP6 DUP10 ADD ADD MSTORE ADD SWAP2 ADD SWAP1 SWAP2 DUP5 SWAP3 PUSH2 0xBE2 JUMP JUMPDEST PUSH1 0x20 SWAP3 POP PUSH2 0xBB5 SWAP5 SWAP2 POP PUSH1 0xFF NOT AND DUP3 DUP5 ADD MSTORE ISZERO ISZERO PUSH1 0x5 SHL DUP3 ADD ADD PUSH2 0xBA9 JUMP JUMPDEST SWAP1 PUSH1 0x40 MLOAD SWAP2 DUP3 PUSH0 DUP3 SLOAD SWAP3 PUSH2 0xC48 DUP5 PUSH2 0xB46 JUMP JUMPDEST DUP1 DUP5 MSTORE SWAP4 PUSH1 0x1 DUP2 AND SWAP1 DUP2 ISZERO PUSH2 0xCB1 JUMPI POP PUSH1 0x1 EQ PUSH2 0xC6D JUMPI JUMPDEST POP PUSH2 0xBB5 SWAP3 POP SUB DUP4 PUSH2 0x2C2 JUMP JUMPDEST SWAP1 POP PUSH0 SWAP3 SWAP2 SWAP3 MSTORE PUSH1 0x20 PUSH0 KECCAK256 SWAP1 PUSH0 SWAP2 JUMPDEST DUP2 DUP4 LT PUSH2 0xC95 JUMPI POP POP SWAP1 PUSH1 0x20 PUSH2 0xBB5 SWAP3 DUP3 ADD ADD PUSH0 PUSH2 0xC60 JUMP JUMPDEST PUSH1 0x20 SWAP2 SWAP4 POP DUP1 PUSH1 0x1 SWAP2 SLOAD DUP4 DUP6 DUP10 ADD ADD MSTORE ADD SWAP2 ADD SWAP1 SWAP2 DUP5 SWAP3 PUSH2 0xC7C JUMP JUMPDEST SWAP1 POP PUSH1 0x20 SWAP3 POP PUSH2 0xBB5 SWAP5 SWAP2 POP PUSH1 0xFF NOT AND DUP3 DUP5 ADD MSTORE ISZERO ISZERO PUSH1 0x5 SHL DUP3 ADD ADD PUSH0 PUSH2 0xC60 JUMP JUMPDEST CALLVALUE PUSH2 0x342 JUMPI PUSH0 CALLDATASIZE PUSH1 0x3 NOT ADD SLT PUSH2 0x342 JUMPI PUSH2 0x581 PUSH2 0xCEE PUSH2 0xB7E JUMP JUMPDEST PUSH1 0x40 MLOAD SWAP2 DUP3 SWAP2 PUSH1 0x20 DUP4 MSTORE PUSH1 0x20 DUP4 ADD SWAP1 PUSH2 0x4F6 JUMP JUMPDEST CALLVALUE PUSH2 0x342 JUMPI PUSH0 CALLDATASIZE PUSH1 0x3 NOT ADD SLT PUSH2 0x342 JUMPI PUSH1 0x20 PUSH1 0x8 SLOAD PUSH1 0x40 MLOAD SWAP1 DUP2 MSTORE RETURN JUMPDEST CALLVALUE PUSH2 0x342 JUMPI PUSH1 0x20 CALLDATASIZE PUSH1 0x3 NOT ADD SLT PUSH2 0x342 JUMPI PUSH1 0x4 CALLDATALOAD PUSH0 MSTORE PUSH1 0x12 PUSH1 0x20 MSTORE PUSH1 0x20 PUSH1 0xFF PUSH1 0x40 PUSH0 KECCAK256 SLOAD AND PUSH1 0x40 MLOAD SWAP1 ISZERO ISZERO DUP2 MSTORE RETURN JUMPDEST CALLVALUE PUSH2 0x342 JUMPI PUSH1 0x40 CALLDATASIZE PUSH1 0x3 NOT ADD SLT PUSH2 0x342 JUMPI PUSH1 0x4 CALLDATALOAD PUSH1 0x24 CALLDATALOAD PUSH2 0xD6D PUSH2 0x2512 JUMP JUMPDEST PUSH1 0x3C DUP3 LT PUSH2 0xDE3 JUMPI PUSH1 0x8 SLOAD SWAP2 DUP3 ISZERO PUSH2 0xDD4 JUMPI PUSH2 0xDAB PUSH32 0x64586ACD58623513AAC74E3F48F97302B3E5020B31C103C3254EB9EA68BC49F2 SWAP4 DUP4 LT PUSH2 0x19CE JUMP JUMPDEST DUP1 PUSH1 0xE SSTORE DUP2 PUSH1 0xF SSTORE PUSH2 0xDCF PUSH1 0x40 MLOAD SWAP3 DUP4 SWAP3 DUP4 PUSH1 0x20 SWAP1 SWAP4 SWAP3 SWAP2 SWAP4 PUSH1 0x40 DUP2 ADD SWAP5 DUP2 MSTORE ADD MSTORE JUMP JUMPDEST SUB SWAP1 LOG1 STOP JUMPDEST PUSH4 0xD31B331D PUSH1 0xE0 SHL PUSH0 MSTORE PUSH1 0x4 PUSH0 REVERT JUMPDEST POP PUSH4 0x4D5A709 PUSH1 0xE4 SHL PUSH0 MSTORE PUSH1 0x4 MSTORE PUSH1 0x3C PUSH1 0x24 MSTORE PUSH1 0x44 PUSH0 REVERT JUMPDEST PUSH1 0x60 SWAP1 PUSH1 0x3 NOT ADD SLT PUSH2 0x342 JUMPI PUSH1 0x4 CALLDATALOAD PUSH1 0x1 PUSH1 0x1 PUSH1 0xA0 SHL SUB DUP2 AND DUP2 SUB PUSH2 0x342 JUMPI SWAP1 PUSH1 0x24 CALLDATALOAD PUSH1 0x1 PUSH1 0x1 PUSH1 0xA0 SHL SUB DUP2 AND DUP2 SUB PUSH2 0x342 JUMPI SWAP1 PUSH1 0x44 CALLDATALOAD SWAP1 JUMP JUMPDEST CALLVALUE PUSH2 0x342 JUMPI PUSH2 0x70E PUSH2 0xE46 CALLDATASIZE PUSH2 0xDFB JUMP JUMPDEST SWAP2 PUSH2 0x1A11 JUMP JUMPDEST CALLVALUE PUSH2 0x342 JUMPI PUSH1 0x20 CALLDATASIZE PUSH1 0x3 NOT ADD SLT PUSH2 0x342 JUMPI PUSH2 0x70E PUSH1 0x4 CALLDATALOAD PUSH2 0xE6B PUSH2 0x2512 JUMP JUMPDEST PUSH2 0xE78 PUSH1 0x8 SLOAD DUP3 LT PUSH2 0x19CE JUMP JUMPDEST DUP1 PUSH0 MSTORE PUSH1 0x10 PUSH1 0x20 MSTORE PUSH2 0xE8C PUSH1 0x40 PUSH0 KECCAK256 PUSH2 0xC35 JUMP JUMPDEST SWAP1 PUSH2 0x25F0 JUMP JUMPDEST CALLVALUE PUSH2 0x342 JUMPI PUSH0 CALLDATASIZE PUSH1 0x3 NOT ADD SLT PUSH2 0x342 JUMPI PUSH1 0x20 PUSH1 0xD SLOAD PUSH1 0x40 MLOAD SWAP1 DUP2 MSTORE RETURN JUMPDEST CALLVALUE PUSH2 0x342 JUMPI PUSH2 0x70E PUSH2 0xEC0 CALLDATASIZE PUSH2 0xDFB JUMP JUMPDEST SWAP1 PUSH1 0x40 MLOAD SWAP3 PUSH2 0xED0 PUSH1 0x20 DUP6 PUSH2 0x2C2 JUMP JUMPDEST PUSH0 DUP5 MSTORE PUSH2 0xEDE DUP4 DUP4 DUP4 PUSH2 0x1A11 JUMP JUMPDEST CALLER PUSH2 0x3E5E JUMP JUMPDEST SWAP1 PUSH1 0x20 PUSH1 0x3 NOT DUP4 ADD SLT PUSH2 0x342 JUMPI PUSH1 0x4 CALLDATALOAD PUSH1 0x1 PUSH1 0x1 PUSH1 0x40 SHL SUB DUP2 GT PUSH2 0x342 JUMPI DUP3 PUSH1 0x23 DUP3 ADD SLT ISZERO PUSH2 0x342 JUMPI DUP1 PUSH1 0x4 ADD CALLDATALOAD SWAP3 PUSH1 0x1 PUSH1 0x1 PUSH1 0x40 SHL SUB DUP5 GT PUSH2 0x342 JUMPI PUSH1 0x24 DUP5 DUP4 ADD ADD GT PUSH2 0x342 JUMPI PUSH1 0x24 ADD SWAP2 SWAP1 JUMP JUMPDEST CALLVALUE PUSH2 0x342 JUMPI PUSH2 0xF41 CALLDATASIZE PUSH2 0xEE4 JUMP JUMPDEST POP POP PUSH1 0xD SLOAD TIMESTAMP SUB TIMESTAMP DUP2 GT PUSH2 0xF7D JUMPI PUSH1 0xE SLOAD LT PUSH2 0xF59 JUMPI STOP JUMPDEST TIMESTAMP PUSH1 0xD SSTORE PUSH2 0x70E PUSH1 0xF SLOAD PUSH2 0xE8C PUSH2 0xF78 DUP3 PUSH0 MSTORE PUSH1 0x10 PUSH1 0x20 MSTORE PUSH1 0x40 PUSH0 KECCAK256 SWAP1 JUMP JUMPDEST PUSH2 0xC35 JUMP JUMPDEST PUSH2 0x1B3F JUMP JUMPDEST PUSH1 0x20 DUP2 MSTORE PUSH1 0xC0 PUSH1 0x1 PUSH1 0x1 PUSH1 0x40 SHL SUB PUSH1 0xA0 PUSH2 0xFC0 PUSH2 0xFAA DUP7 MLOAD DUP6 PUSH1 0x20 DUP9 ADD MSTORE PUSH1 0xE0 DUP8 ADD SWAP1 PUSH2 0x4F6 JUMP JUMPDEST PUSH1 0x20 DUP8 ADD MLOAD DUP7 DUP3 SUB PUSH1 0x1F NOT ADD PUSH1 0x40 DUP9 ADD MSTORE PUSH2 0x4F6 JUMP JUMPDEST SWAP5 DUP3 PUSH1 0x40 DUP3 ADD MLOAD AND PUSH1 0x60 DUP7 ADD MSTORE DUP3 PUSH1 0x60 DUP3 ADD MLOAD AND PUSH1 0x80 DUP7 ADD MSTORE DUP3 PUSH1 0x80 DUP3 ADD MLOAD AND DUP3 DUP7 ADD MSTORE ADD MLOAD AND SWAP2 ADD MSTORE SWAP1 JUMP JUMPDEST CALLVALUE PUSH2 0x342 JUMPI PUSH1 0x20 CALLDATASIZE PUSH1 0x3 NOT ADD SLT PUSH2 0x342 JUMPI PUSH1 0x4 CALLDATALOAD PUSH0 PUSH1 0xA0 PUSH1 0x40 MLOAD PUSH2 0x1010 DUP2 PUSH2 0x26C JUMP JUMPDEST PUSH1 0x60 DUP2 MSTORE PUSH1 0x60 PUSH1 0x20 DUP3 ADD MSTORE DUP3 PUSH1 0x40 DUP3 ADD MSTORE DUP3 PUSH1 0x60 DUP3 ADD MSTORE DUP3 PUSH1 0x80 DUP3 ADD MSTORE ADD MSTORE PUSH2 0x103C PUSH1 0x8 SLOAD DUP3 LT PUSH2 0x19CE JUMP JUMPDEST PUSH0 MSTORE PUSH1 0x10 PUSH1 0x20 MSTORE PUSH2 0x581 PUSH1 0x40 PUSH0 KECCAK256 PUSH2 0x10D0 PUSH2 0x10C0 PUSH1 0x2 PUSH1 0x40 MLOAD SWAP4 PUSH2 0x105F DUP6 PUSH2 0x26C JUMP JUMPDEST PUSH2 0x1068 DUP2 PUSH2 0xC35 JUMP JUMPDEST DUP6 MSTORE PUSH2 0x1076 PUSH1 0x1 DUP3 ADD PUSH2 0xC35 JUMP JUMPDEST PUSH1 0x20 DUP7 ADD MSTORE ADD SLOAD PUSH1 0x1 PUSH1 0x1 PUSH1 0x40 SHL SUB DUP2 AND PUSH1 0x40 DUP6 ADD MSTORE PUSH1 0x1 PUSH1 0x1 PUSH1 0x40 SHL SUB DUP2 PUSH1 0x40 SHR AND PUSH1 0x60 DUP6 ADD MSTORE PUSH2 0x967 PUSH1 0x1 PUSH1 0x1 PUSH1 0x40 SHL SUB DUP3 PUSH1 0x80 SHR AND PUSH1 0x80 DUP7 ADD SWAP1 PUSH1 0x1 PUSH1 0x1 PUSH1 0x40 SHL SUB AND SWAP1 MSTORE JUMP JUMPDEST PUSH1 0x1 PUSH1 0x1 PUSH1 0x40 SHL SUB AND PUSH1 0xA0 DUP4 ADD MSTORE JUMP JUMPDEST PUSH1 0x40 MLOAD SWAP2 DUP3 SWAP2 DUP3 PUSH2 0xF82 JUMP JUMPDEST CALLVALUE PUSH2 0x342 JUMPI PUSH1 0x20 CALLDATASIZE PUSH1 0x3 NOT ADD SLT PUSH2 0x342 JUMPI PUSH1 0x20 PUSH2 0x10FA PUSH1 0x4 CALLDATALOAD PUSH2 0x2539 JUMP JUMPDEST PUSH1 0x40 MLOAD PUSH1 0x1 PUSH1 0x1 PUSH1 0xA0 SHL SUB SWAP1 SWAP2 AND DUP2 MSTORE RETURN JUMPDEST CALLVALUE PUSH2 0x342 JUMPI PUSH1 0x20 CALLDATASIZE PUSH1 0x3 NOT ADD SLT PUSH2 0x342 JUMPI PUSH1 0x4 CALLDATALOAD PUSH0 MSTORE PUSH1 0x11 PUSH1 0x20 MSTORE PUSH1 0x20 PUSH1 0x40 PUSH0 KECCAK256 SLOAD PUSH1 0x40 MLOAD SWAP1 DUP2 MSTORE RETURN JUMPDEST CALLVALUE PUSH2 0x342 JUMPI PUSH1 0x20 CALLDATASIZE PUSH1 0x3 NOT ADD SLT PUSH2 0x342 JUMPI PUSH2 0x581 PUSH2 0xCEE PUSH1 0x4 CALLDATALOAD PUSH2 0x1D95 JUMP JUMPDEST CALLVALUE PUSH2 0x342 JUMPI PUSH2 0x1163 CALLDATASIZE PUSH2 0xEE4 JUMP JUMPDEST POP POP PUSH1 0xD SLOAD TIMESTAMP SUB TIMESTAMP DUP2 GT PUSH2 0xF7D JUMPI PUSH1 0xE SLOAD LT DUP1 PUSH2 0x11AB JUMPI JUMPDEST PUSH1 0x40 MLOAD SWAP1 PUSH2 0x118A PUSH1 0x20 DUP4 PUSH2 0x2C2 JUMP JUMPDEST PUSH0 DUP3 MSTORE PUSH2 0x581 PUSH1 0x40 MLOAD SWAP3 DUP4 SWAP3 ISZERO ISZERO DUP4 MSTORE PUSH1 0x40 PUSH1 0x20 DUP5 ADD MSTORE PUSH1 0x40 DUP4 ADD SWAP1 PUSH2 0x4F6 JUMP JUMPDEST POP PUSH1 0xF SLOAD PUSH1 0x8 SLOAD GT PUSH2 0x117B JUMP JUMPDEST CALLVALUE PUSH2 0x342 JUMPI PUSH1 0x20 CALLDATASIZE PUSH1 0x3 NOT ADD SLT PUSH2 0x342 JUMPI PUSH1 0x1 PUSH1 0x1 PUSH1 0xA0 SHL SUB PUSH2 0x11D9 PUSH2 0x641 JUMP JUMPDEST AND DUP1 ISZERO PUSH2 0x11F6 JUMPI PUSH0 MSTORE PUSH1 0x3 PUSH1 0x20 MSTORE PUSH1 0x20 PUSH1 0x40 PUSH0 KECCAK256 SLOAD PUSH1 0x40 MLOAD SWAP1 DUP2 MSTORE RETURN JUMPDEST PUSH4 0x22718AD9 PUSH1 0xE2 SHL PUSH0 MSTORE PUSH0 PUSH1 0x4 MSTORE PUSH1 0x24 PUSH0 REVERT JUMPDEST CALLVALUE PUSH2 0x342 JUMPI PUSH0 CALLDATASIZE PUSH1 0x3 NOT ADD SLT PUSH2 0x342 JUMPI PUSH2 0x1221 PUSH2 0x2512 JUMP JUMPDEST PUSH1 0x7 DUP1 SLOAD PUSH1 0x1 PUSH1 0x1 PUSH1 0xA0 SHL SUB NOT DUP2 AND SWAP1 SWAP2 SSTORE PUSH0 SWAP1 PUSH1 0x1 PUSH1 0x1 PUSH1 0xA0 SHL SUB AND PUSH32 0x8BE0079C531659141344CD1FD0A4F28419497F9722A3DAAFE3B4186F6B6457E0 DUP3 DUP1 LOG3 STOP JUMPDEST CALLVALUE PUSH2 0x342 JUMPI PUSH0 CALLDATASIZE PUSH1 0x3 NOT ADD SLT PUSH2 0x342 JUMPI PUSH1 0x7 SLOAD PUSH1 0x40 MLOAD PUSH1 0x1 PUSH1 0x1 PUSH1 0xA0 SHL SUB SWAP1 SWAP2 AND DUP2 MSTORE PUSH1 0x20 SWAP1 RETURN JUMPDEST CALLVALUE PUSH2 0x342 JUMPI PUSH0 CALLDATASIZE PUSH1 0x3 NOT ADD SLT PUSH2 0x342 JUMPI PUSH1 0x20 PUSH1 0xE SLOAD PUSH1 0x40 MLOAD SWAP1 DUP2 MSTORE RETURN JUMPDEST CALLVALUE PUSH2 0x342 JUMPI PUSH0 CALLDATASIZE PUSH1 0x3 NOT ADD SLT PUSH2 0x342 JUMPI PUSH1 0x20 PUSH1 0xF SLOAD PUSH1 0x40 MLOAD SWAP1 DUP2 MSTORE RETURN JUMPDEST CALLVALUE PUSH2 0x342 JUMPI PUSH0 CALLDATASIZE PUSH1 0x3 NOT ADD SLT PUSH2 0x342 JUMPI PUSH1 0x40 MLOAD PUSH0 PUSH1 0x1 SLOAD PUSH2 0x12E6 DUP2 PUSH2 0xB46 JUMP JUMPDEST DUP1 DUP5 MSTORE SWAP1 PUSH1 0x1 DUP2 AND SWAP1 DUP2 ISZERO PUSH2 0x5E1 JUMPI POP PUSH1 0x1 EQ PUSH2 0x130D JUMPI PUSH2 0x581 DUP4 PUSH2 0x575 DUP2 DUP6 SUB DUP3 PUSH2 0x2C2 JUMP JUMPDEST PUSH1 0x1 PUSH0 SWAP1 DUP2 MSTORE PUSH32 0xB10E2D527612073B26EECDFD717E6A320CF44B4AFAC2B0732D9FCBE2B7FA0CF6 SWAP4 SWAP3 POP SWAP1 JUMPDEST DUP1 DUP3 LT PUSH2 0x1351 JUMPI POP SWAP1 SWAP2 POP DUP2 ADD PUSH1 0x20 ADD PUSH2 0x575 PUSH2 0x565 JUMP JUMPDEST SWAP2 SWAP3 PUSH1 0x1 DUP2 PUSH1 0x20 SWAP3 SLOAD DUP4 DUP6 DUP9 ADD ADD MSTORE ADD SWAP2 ADD SWAP1 SWAP3 SWAP2 PUSH2 0x1339 JUMP JUMPDEST CALLVALUE PUSH2 0x342 JUMPI PUSH1 0x40 CALLDATASIZE PUSH1 0x3 NOT ADD SLT PUSH2 0x342 JUMPI PUSH2 0x1384 PUSH2 0x641 JUMP JUMPDEST PUSH1 0x24 CALLDATALOAD DUP1 ISZERO ISZERO DUP2 SUB PUSH2 0x342 JUMPI CALLER ISZERO PUSH2 0x1426 JUMPI PUSH1 0x1 PUSH1 0x1 PUSH1 0xA0 SHL SUB DUP3 AND SWAP2 DUP3 ISZERO PUSH2 0x1413 JUMPI DUP2 PUSH2 0x13D0 PUSH2 0x13E1 SWAP3 CALLER PUSH0 MSTORE PUSH1 0x5 PUSH1 0x20 MSTORE PUSH1 0x40 PUSH0 KECCAK256 SWAP1 PUSH1 0x1 DUP1 PUSH1 0xA0 SHL SUB AND PUSH0 MSTORE PUSH1 0x20 MSTORE PUSH1 0x40 PUSH0 KECCAK256 SWAP1 JUMP JUMPDEST SWAP1 PUSH1 0xFF DUP1 NOT DUP4 SLOAD AND SWAP2 ISZERO ISZERO AND OR SWAP1 SSTORE JUMP JUMPDEST PUSH1 0x40 MLOAD SWAP1 ISZERO ISZERO DUP2 MSTORE CALLER SWAP1 PUSH32 0x17307EAB39AB6107E8899845AD3D59BD9653F200F220920489CA2B5937696C31 SWAP1 PUSH1 0x20 SWAP1 LOG3 STOP JUMPDEST DUP3 PUSH4 0xB611743 PUSH1 0xE3 SHL PUSH0 MSTORE PUSH1 0x4 MSTORE PUSH1 0x24 PUSH0 REVERT JUMPDEST PUSH4 0xA9FBF51F PUSH1 0xE0 SHL PUSH0 MSTORE PUSH0 PUSH1 0x4 MSTORE PUSH1 0x24 PUSH0 REVERT JUMPDEST CALLVALUE PUSH2 0x342 JUMPI PUSH1 0x20 CALLDATASIZE PUSH1 0x3 NOT ADD SLT PUSH2 0x342 JUMPI PUSH1 0x4 CALLDATALOAD PUSH0 MSTORE PUSH1 0x10 PUSH1 0x20 MSTORE PUSH2 0x1496 PUSH1 0x40 PUSH0 KECCAK256 PUSH2 0x1464 DUP2 PUSH2 0xC35 JUMP JUMPDEST SWAP1 PUSH1 0x1 PUSH1 0x1 PUSH1 0x40 SHL SUB PUSH2 0x14A4 PUSH1 0x2 PUSH2 0x147E PUSH1 0x1 DUP6 ADD PUSH2 0xC35 JUMP JUMPDEST SWAP4 ADD SLOAD SWAP3 PUSH1 0x40 MLOAD SWAP6 DUP7 SWAP6 PUSH1 0xC0 DUP8 MSTORE PUSH1 0xC0 DUP8 ADD SWAP1 PUSH2 0x4F6 JUMP JUMPDEST SWAP1 DUP6 DUP3 SUB PUSH1 0x20 DUP8 ADD MSTORE PUSH2 0x4F6 JUMP JUMPDEST SWAP2 DUP2 DUP1 DUP3 AND AND PUSH1 0x40 DUP6 ADD MSTORE DUP2 DUP1 DUP3 PUSH1 0x40 SHR AND AND PUSH1 0x60 DUP6 ADD MSTORE DUP2 DUP1 DUP3 PUSH1 0x80 SHR AND AND PUSH1 0x80 DUP6 ADD MSTORE PUSH1 0xC0 SHR AND PUSH1 0xA0 DUP4 ADD MSTORE SUB SWAP1 RETURN JUMPDEST CALLVALUE PUSH2 0x342 JUMPI PUSH1 0x80 CALLDATASIZE PUSH1 0x3 NOT ADD SLT PUSH2 0x342 JUMPI PUSH2 0x14EF PUSH2 0x641 JUMP JUMPDEST PUSH2 0x14F7 PUSH2 0x657 JUMP JUMPDEST SWAP1 PUSH1 0x44 CALLDATALOAD PUSH1 0x64 CALLDATALOAD SWAP3 PUSH1 0x1 PUSH1 0x1 PUSH1 0x40 SHL SUB DUP5 GT PUSH2 0x342 JUMPI PUSH2 0x151E PUSH2 0x70E SWAP5 CALLDATASIZE SWAP1 PUSH1 0x4 ADD PUSH2 0x2FE JUMP JUMPDEST SWAP3 PUSH2 0xEDE DUP4 DUP4 DUP4 PUSH2 0x1A11 JUMP JUMPDEST CALLVALUE PUSH2 0x342 JUMPI PUSH1 0x20 CALLDATASIZE PUSH1 0x3 NOT ADD SLT PUSH2 0x342 JUMPI PUSH1 0xFF PUSH2 0x581 PUSH2 0x154B PUSH1 0x4 CALLDATALOAD PUSH2 0x1EB6 JUMP JUMPDEST PUSH1 0x40 SWAP3 SWAP2 SWAP3 MLOAD SWAP4 DUP5 SWAP4 AND DUP4 MSTORE PUSH1 0x40 PUSH1 0x20 DUP5 ADD MSTORE PUSH1 0x40 DUP4 ADD SWAP1 PUSH2 0x4F6 JUMP JUMPDEST CALLVALUE PUSH2 0x342 JUMPI PUSH1 0x20 CALLDATASIZE PUSH1 0x3 NOT ADD SLT PUSH2 0x342 JUMPI PUSH1 0x4 CALLDATALOAD DUP1 PUSH0 MSTORE PUSH1 0x10 PUSH1 0x20 MSTORE PUSH1 0x40 PUSH0 KECCAK256 SWAP1 PUSH1 0x40 MLOAD SWAP2 PUSH2 0x1596 DUP4 PUSH2 0x26C JUMP JUMPDEST PUSH2 0x159F DUP2 PUSH2 0xC35 JUMP JUMPDEST DUP4 MSTORE PUSH2 0x15AD PUSH1 0x1 DUP3 ADD PUSH2 0xC35 JUMP JUMPDEST SWAP1 PUSH1 0x20 DUP5 ADD SWAP2 DUP3 MSTORE PUSH1 0x2 ADD SLOAD PUSH1 0x40 DUP5 ADD SWAP1 PUSH1 0x1 PUSH1 0x1 PUSH1 0x40 SHL SUB DUP2 AND DUP3 MSTORE PUSH1 0x60 DUP6 ADD DUP2 PUSH1 0x40 SHR PUSH1 0x1 PUSH1 0x1 PUSH1 0x40 SHL SUB AND DUP2 MSTORE PUSH1 0x80 DUP7 ADD SWAP2 DUP1 PUSH1 0x80 SHR PUSH1 0x1 PUSH1 0x1 PUSH1 0x40 SHL SUB AND PUSH2 0x1602 SWAP1 DUP5 SWAP1 PUSH1 0x1 PUSH1 0x1 PUSH1 0x40 SHL SUB AND SWAP1 MSTORE JUMP JUMPDEST PUSH1 0xC0 SHR PUSH1 0xA0 DUP8 ADD SWAP1 DUP2 MSTORE SWAP3 PUSH2 0x1616 DUP7 PUSH2 0x1EB6 JUMP JUMPDEST SWAP2 SWAP1 POP PUSH2 0x1622 DUP8 PUSH2 0x1D95 JUMP JUMPDEST PUSH2 0x162B SWAP1 PUSH2 0x4BA1 JUMP JUMPDEST SWAP7 PUSH2 0x1635 SWAP1 PUSH2 0x2714 JUMP JUMPDEST SWAP8 MLOAD SWAP6 MLOAD SWAP1 MLOAD PUSH2 0x164D SWAP1 PUSH1 0x1 PUSH1 0x1 PUSH1 0x40 SHL SUB AND PUSH2 0x2714 JUMP JUMPDEST SWAP3 MLOAD PUSH2 0x1661 SWAP1 PUSH1 0x1 PUSH1 0x1 PUSH1 0x40 SHL SUB AND PUSH2 0x2714 JUMP JUMPDEST SWAP4 MLOAD PUSH2 0x1675 SWAP1 PUSH1 0x1 PUSH1 0x1 PUSH1 0x40 SHL SUB AND PUSH2 0x2714 JUMP JUMPDEST SWAP5 MLOAD PUSH2 0x1689 SWAP1 PUSH1 0x1 PUSH1 0x1 PUSH1 0x40 SHL SUB AND PUSH2 0x2714 JUMP JUMPDEST SWAP6 PUSH2 0x1693 SWAP9 PUSH2 0x1FB1 JUMP JUMPDEST PUSH2 0x169C SWAP1 PUSH2 0x4BA1 JUMP JUMPDEST PUSH2 0x16A5 SWAP1 PUSH2 0x22F9 JUMP JUMPDEST PUSH1 0x40 MLOAD PUSH2 0x581 DUP2 SWAP3 DUP3 PUSH2 0x51A JUMP JUMPDEST CALLVALUE PUSH2 0x342 JUMPI PUSH0 CALLDATASIZE PUSH1 0x3 NOT ADD SLT PUSH2 0x342 JUMPI PUSH1 0x20 PUSH1 0x40 MLOAD PUSH1 0x3C DUP2 MSTORE RETURN JUMPDEST CALLVALUE PUSH2 0x342 JUMPI PUSH1 0x40 CALLDATASIZE PUSH1 0x3 NOT ADD SLT PUSH2 0x342 JUMPI PUSH1 0x20 PUSH1 0xFF PUSH2 0x171E PUSH2 0x16EE PUSH2 0x641 JUMP JUMPDEST PUSH2 0x16F6 PUSH2 0x657 JUMP JUMPDEST PUSH1 0x1 PUSH1 0x1 PUSH1 0xA0 SHL SUB SWAP2 DUP3 AND PUSH0 SWAP1 DUP2 MSTORE PUSH1 0x5 DUP7 MSTORE PUSH1 0x40 DUP1 DUP3 KECCAK256 SWAP3 SWAP1 SWAP4 AND DUP2 MSTORE PUSH1 0x20 SWAP2 SWAP1 SWAP2 MSTORE KECCAK256 SWAP1 JUMP JUMPDEST SLOAD AND PUSH1 0x40 MLOAD SWAP1 ISZERO ISZERO DUP2 MSTORE RETURN JUMPDEST CALLVALUE PUSH2 0x342 JUMPI PUSH1 0x60 CALLDATASIZE PUSH1 0x3 NOT ADD SLT PUSH2 0x342 JUMPI PUSH2 0x1743 PUSH2 0x641 JUMP JUMPDEST PUSH1 0x24 CALLDATALOAD PUSH1 0x1 PUSH1 0x1 PUSH1 0x40 SHL SUB DUP2 GT PUSH2 0x342 JUMPI PUSH2 0x1762 SWAP1 CALLDATASIZE SWAP1 PUSH1 0x4 ADD PUSH2 0x2FE JUMP JUMPDEST PUSH1 0x44 CALLDATALOAD SWAP2 PUSH1 0x1 PUSH1 0x1 PUSH1 0x40 SHL SUB DUP4 GT PUSH2 0x342 JUMPI PUSH2 0x17D2 PUSH2 0x1788 PUSH2 0x17D7 SWAP5 CALLDATASIZE SWAP1 PUSH1 0x4 ADD PUSH2 0x2FE JUMP JUMPDEST SWAP3 PUSH2 0x1791 PUSH2 0x2512 JUMP JUMPDEST PUSH1 0x8 SLOAD SWAP4 PUSH1 0x40 MLOAD SWAP2 PUSH2 0x17A2 DUP4 PUSH2 0x26C JUMP JUMPDEST DUP3 MSTORE PUSH1 0x20 DUP3 ADD MSTORE PUSH0 PUSH1 0x40 DUP3 ADD MSTORE PUSH0 PUSH1 0x60 DUP3 ADD MSTORE PUSH0 PUSH1 0x80 DUP3 ADD MSTORE PUSH0 PUSH1 0xA0 DUP3 ADD MSTORE DUP4 PUSH0 MSTORE PUSH1 0x10 PUSH1 0x20 MSTORE PUSH1 0x40 PUSH0 KECCAK256 PUSH2 0x2337 JUMP JUMPDEST PUSH2 0x3FE9 JUMP JUMPDEST PUSH2 0x70E PUSH2 0x17E5 PUSH1 0x8 SLOAD PUSH2 0x2504 JUMP JUMPDEST PUSH1 0x8 SSTORE JUMP JUMPDEST CALLVALUE PUSH2 0x342 JUMPI PUSH1 0x20 CALLDATASIZE PUSH1 0x3 NOT ADD SLT PUSH2 0x342 JUMPI PUSH2 0x1803 PUSH2 0x641 JUMP JUMPDEST PUSH2 0x180B PUSH2 0x2512 JUMP JUMPDEST PUSH1 0x1 PUSH1 0x1 PUSH1 0xA0 SHL SUB AND DUP1 ISZERO PUSH2 0x185D JUMPI PUSH1 0x7 DUP1 SLOAD PUSH1 0x1 PUSH1 0x1 PUSH1 0xA0 SHL SUB NOT DUP2 AND DUP4 OR SWAP1 SWAP2 SSTORE PUSH1 0x1 PUSH1 0x1 PUSH1 0xA0 SHL SUB AND PUSH32 0x8BE0079C531659141344CD1FD0A4F28419497F9722A3DAAFE3B4186F6B6457E0 PUSH0 DUP1 LOG3 STOP JUMPDEST PUSH4 0x1E4FBDF7 PUSH1 0xE0 SHL PUSH0 MSTORE PUSH0 PUSH1 0x4 MSTORE PUSH1 0x24 PUSH0 REVERT JUMPDEST PUSH1 0x1F DUP2 GT PUSH2 0x187C JUMPI POP POP JUMP JUMPDEST PUSH1 0xC PUSH0 MSTORE PUSH1 0x20 PUSH0 KECCAK256 SWAP1 PUSH1 0x20 PUSH1 0x1F DUP5 ADD PUSH1 0x5 SHR DUP4 ADD SWAP4 LT PUSH2 0x18B6 JUMPI JUMPDEST PUSH1 0x1F ADD PUSH1 0x5 SHR ADD SWAP1 JUMPDEST DUP2 DUP2 LT PUSH2 0x18AB JUMPI POP POP JUMP JUMPDEST PUSH0 DUP2 SSTORE PUSH1 0x1 ADD PUSH2 0x18A0 JUMP JUMPDEST SWAP1 SWAP2 POP DUP2 SWAP1 PUSH2 0x1897 JUMP JUMPDEST PUSH1 0x1F DUP3 GT PUSH2 0x18CD JUMPI POP POP POP JUMP JUMPDEST PUSH0 MSTORE PUSH1 0x20 PUSH0 KECCAK256 SWAP1 PUSH1 0x20 PUSH1 0x1F DUP5 ADD PUSH1 0x5 SHR DUP4 ADD SWAP4 LT PUSH2 0x1905 JUMPI JUMPDEST PUSH1 0x1F ADD PUSH1 0x5 SHR ADD SWAP1 JUMPDEST DUP2 DUP2 LT PUSH2 0x18FA JUMPI POP POP JUMP JUMPDEST PUSH0 DUP2 SSTORE PUSH1 0x1 ADD PUSH2 0x18EF JUMP JUMPDEST SWAP1 SWAP2 POP DUP2 SWAP1 PUSH2 0x18E6 JUMP JUMPDEST SWAP2 SWAP1 SWAP2 DUP3 MLOAD PUSH1 0x1 PUSH1 0x1 PUSH1 0x40 SHL SUB DUP2 GT PUSH2 0x287 JUMPI PUSH2 0x1936 DUP2 PUSH2 0x1930 DUP5 SLOAD PUSH2 0xB46 JUMP JUMPDEST DUP5 PUSH2 0x18C0 JUMP JUMPDEST PUSH1 0x20 PUSH1 0x1F DUP3 GT PUSH1 0x1 EQ PUSH2 0x1969 JUMPI DUP2 SWAP1 PUSH2 0x1965 SWAP4 SWAP5 SWAP6 PUSH0 SWAP3 PUSH2 0x3D5 JUMPI POP POP DUP2 PUSH1 0x1 SHL SWAP2 PUSH0 NOT SWAP1 PUSH1 0x3 SHL SHR NOT AND OR SWAP1 JUMP JUMPDEST SWAP1 SSTORE JUMP JUMPDEST PUSH1 0x1F NOT DUP3 AND SWAP1 PUSH2 0x197C DUP5 PUSH0 MSTORE PUSH1 0x20 PUSH0 KECCAK256 SWAP1 JUMP JUMPDEST SWAP2 PUSH0 JUMPDEST DUP2 DUP2 LT PUSH2 0x19B6 JUMPI POP SWAP6 DUP4 PUSH1 0x1 SWAP6 SWAP7 SWAP8 LT PUSH2 0x199E JUMPI JUMPDEST POP POP POP DUP2 SHL ADD SWAP1 SSTORE JUMP JUMPDEST ADD MLOAD PUSH0 NOT PUSH1 0xF8 DUP5 PUSH1 0x3 SHL AND SHR NOT AND SWAP1 SSTORE PUSH0 DUP1 DUP1 PUSH2 0x1994 JUMP JUMPDEST SWAP2 SWAP3 PUSH1 0x20 PUSH1 0x1 DUP2 SWAP3 DUP7 DUP12 ADD MLOAD DUP2 SSTORE ADD SWAP5 ADD SWAP3 ADD PUSH2 0x197F JUMP JUMPDEST ISZERO PUSH2 0x19D5 JUMPI JUMP JUMPDEST PUSH1 0x40 MLOAD PUSH3 0x461BCD PUSH1 0xE5 SHL DUP2 MSTORE PUSH1 0x20 PUSH1 0x4 DUP3 ADD MSTORE PUSH1 0x14 PUSH1 0x24 DUP3 ADD MSTORE PUSH20 0x151BDAD95B881251081D1A59185AC81D985B1A59 PUSH1 0x62 SHL PUSH1 0x44 DUP3 ADD MSTORE PUSH1 0x64 SWAP1 REVERT JUMPDEST SWAP1 SWAP2 SWAP1 PUSH1 0x1 PUSH1 0x1 PUSH1 0xA0 SHL SUB DUP4 AND DUP1 ISZERO PUSH2 0x1B18 JUMPI PUSH0 DUP4 DUP2 MSTORE PUSH1 0x2 PUSH1 0x20 MSTORE PUSH1 0x40 SWAP1 KECCAK256 SLOAD DUP4 SWAP1 PUSH1 0x1 PUSH1 0x1 PUSH1 0xA0 SHL SUB AND SWAP2 CALLER PUSH2 0x1B08 JUMPI JUMPDEST PUSH1 0x1 PUSH1 0x1 PUSH1 0xA0 SHL SUB DUP4 AND SWAP6 PUSH2 0x1A89 SWAP1 DUP8 PUSH2 0x1ADC JUMPI JUMPDEST PUSH1 0x1 PUSH1 0x1 PUSH1 0xA0 SHL SUB DUP2 AND PUSH0 SWAP1 DUP2 MSTORE PUSH1 0x3 PUSH1 0x20 MSTORE PUSH1 0x40 SWAP1 KECCAK256 PUSH1 0x1 DUP2 SLOAD ADD SWAP1 SSTORE PUSH2 0x6EF DUP5 PUSH0 MSTORE PUSH1 0x2 PUSH1 0x20 MSTORE PUSH1 0x40 PUSH0 KECCAK256 SWAP1 JUMP JUMPDEST DUP6 PUSH32 0xDDF252AD1BE2C89B69C2B068FC378DAA952BA7F163C4A11628F55A4DF523B3EF PUSH0 DUP1 LOG4 POP PUSH1 0x1 PUSH1 0x1 PUSH1 0xA0 SHL SUB AND DUP1 DUP4 SUB PUSH2 0x1AC4 JUMPI POP POP POP JUMP JUMPDEST PUSH4 0x64283D7B PUSH1 0xE0 SHL PUSH0 MSTORE PUSH1 0x4 MSTORE PUSH1 0x24 MSTORE PUSH1 0x44 MSTORE PUSH1 0x64 PUSH0 REVERT JUMPDEST PUSH2 0x1AE5 DUP5 PUSH2 0x40D6 JUMP JUMPDEST PUSH1 0x1 PUSH1 0x1 PUSH1 0xA0 SHL SUB DUP6 AND PUSH0 SWAP1 DUP2 MSTORE PUSH1 0x3 PUSH1 0x20 MSTORE PUSH1 0x40 SWAP1 KECCAK256 DUP1 SLOAD PUSH0 NOT ADD SWAP1 SSTORE PUSH2 0x1A59 JUMP JUMPDEST PUSH2 0x1B13 DUP3 CALLER DUP6 PUSH2 0x40F8 JUMP JUMPDEST PUSH2 0x1A44 JUMP JUMPDEST PUSH4 0x32505749 PUSH1 0xE1 SHL PUSH0 MSTORE PUSH0 PUSH1 0x4 MSTORE PUSH1 0x24 PUSH0 REVERT JUMPDEST PUSH1 0x40 MLOAD SWAP1 PUSH2 0x1B3A PUSH1 0x20 DUP4 PUSH2 0x2C2 JUMP JUMPDEST PUSH0 DUP3 MSTORE JUMP JUMPDEST PUSH4 0x4E487B71 PUSH1 0xE0 SHL PUSH0 MSTORE PUSH1 0x11 PUSH1 0x4 MSTORE PUSH1 0x24 PUSH0 REVERT JUMPDEST PUSH1 0x1F NOT DUP2 ADD SWAP2 SWAP1 DUP3 GT PUSH2 0xF7D JUMPI JUMP JUMPDEST PUSH0 NOT DUP2 ADD SWAP2 SWAP1 DUP3 GT PUSH2 0xF7D JUMPI JUMP JUMPDEST SWAP1 PUSH1 0x40 MLOAD PUSH2 0x1B7D DUP2 PUSH2 0x26C JUMP JUMPDEST PUSH1 0xA0 PUSH1 0x1 PUSH1 0x1 PUSH1 0x40 SHL SUB PUSH1 0x2 DUP4 SWAP6 PUSH2 0x1B94 DUP2 PUSH2 0xC35 JUMP JUMPDEST DUP6 MSTORE PUSH2 0x1BA2 PUSH1 0x1 DUP3 ADD PUSH2 0xC35 JUMP JUMPDEST PUSH1 0x20 DUP7 ADD MSTORE ADD SLOAD DUP2 DUP2 AND PUSH1 0x40 DUP6 ADD MSTORE DUP2 DUP2 PUSH1 0x40 SHR AND PUSH1 0x60 DUP6 ADD MSTORE DUP2 DUP2 PUSH1 0x80 SHR AND PUSH1 0x80 DUP6 ADD MSTORE PUSH1 0xC0 SHR AND SWAP2 ADD MSTORE JUMP JUMPDEST SWAP1 PUSH1 0x2 DUP3 ADD DUP1 SWAP3 GT PUSH2 0xF7D JUMPI JUMP JUMPDEST SWAP1 PUSH1 0x20 DUP3 ADD DUP1 SWAP3 GT PUSH2 0xF7D JUMPI JUMP JUMPDEST SWAP2 SWAP1 DUP3 ADD DUP1 SWAP3 GT PUSH2 0xF7D JUMPI JUMP JUMPDEST SWAP1 PUSH1 0x64 DUP3 MUL SWAP2 DUP1 DUP4 DIV PUSH1 0x64 EQ SWAP1 ISZERO OR ISZERO PUSH2 0xF7D JUMPI JUMP JUMPDEST PUSH1 0x2 DUP2 SWAP1 SHL SWAP2 SWAP1 PUSH1 0x1 PUSH1 0x1 PUSH1 0xFE SHL SUB DUP2 AND SUB PUSH2 0xF7D JUMPI JUMP JUMPDEST SWAP1 DUP2 PUSH1 0x1 SHL SWAP2 DUP1 DUP4 DIV PUSH1 0x2 EQ SWAP1 ISZERO OR ISZERO PUSH2 0xF7D JUMPI JUMP JUMPDEST DUP2 ISZERO PUSH2 0x1C47 JUMPI DIV SWAP1 JUMP JUMPDEST PUSH4 0x4E487B71 PUSH1 0xE0 SHL PUSH0 MSTORE PUSH1 0x12 PUSH1 0x4 MSTORE PUSH1 0x24 PUSH0 REVERT JUMPDEST DUP1 MLOAD SWAP2 SWAP1 DUP3 SWAP1 PUSH1 0x20 ADD DUP3 MCOPY ADD PUSH0 DUP2 MSTORE SWAP1 JUMP JUMPDEST PUSH2 0xBB5 SWAP1 PUSH2 0x1C99 PUSH2 0x1C8B SWAP5 SWAP4 PUSH1 0x1 PUSH1 0x40 MLOAD SWAP7 DUP8 SWAP5 PUSH1 0x20 DUP7 ADD SWAP1 PUSH2 0x1C5B JUMP JUMPDEST PUSH1 0x17 PUSH1 0xF9 SHL DUP2 MSTORE ADD SWAP1 PUSH2 0x1C5B JUMP JUMPDEST SUB PUSH1 0x1F NOT DUP2 ADD DUP5 MSTORE DUP4 PUSH2 0x2C2 JUMP JUMPDEST PUSH1 0x6 SWAP1 PUSH2 0x1D7A PUSH2 0x1D63 SWAP6 SWAP5 PUSH2 0x1D74 PUSH2 0xBB5 SWAP6 PUSH1 0x4 PUSH1 0x40 MLOAD SWAP10 DUP11 SWAP7 PUSH32 0x3C7376672077696474683D2233323022206865696768743D2234303022207669 PUSH1 0x20 DUP10 ADD MSTORE PUSH32 0x6577426F783D2230203020333230203430302220786D6C6E733D22687474703A PUSH1 0x40 DUP10 ADD MSTORE PUSH32 0x2F2F7777772E77332E6F72672F323030302F737667223E000000000000000000 PUSH1 0x60 DUP10 ADD MSTORE PUSH32 0x3C672073686170652D72656E646572696E673D2263726973704564676573223E PUSH1 0x77 DUP10 ADD MSTORE PUSH1 0x97 DUP9 ADD SWAP1 PUSH2 0x1C5B JUMP JUMPDEST PUSH4 0x1E17B39F PUSH1 0xE1 SHL DUP2 MSTORE ADD SWAP1 PUSH2 0x1C5B JUMP JUMPDEST SWAP1 PUSH2 0x1C5B JUMP JUMPDEST PUSH6 0x1E17B9BB339F PUSH1 0xD1 SHL DUP2 MSTORE SUB PUSH1 0x19 NOT DUP2 ADD DUP6 MSTORE ADD DUP4 PUSH2 0x2C2 JUMP JUMPDEST PUSH2 0x1DAD PUSH2 0x9DF PUSH2 0x52B SWAP3 PUSH0 MSTORE PUSH1 0x10 PUSH1 0x20 MSTORE PUSH1 0x40 PUSH0 KECCAK256 SWAP1 JUMP JUMPDEST PUSH1 0x80 DUP2 ADD SWAP1 PUSH2 0x1DC3 DUP3 MLOAD PUSH1 0x1 PUSH1 0x1 PUSH1 0x40 SHL SUB AND SWAP1 JUMP JUMPDEST PUSH1 0x1 PUSH1 0x1 PUSH1 0x40 SHL SUB DUP2 AND PUSH2 0x1EAD JUMPI POP PUSH2 0x1EA7 PUSH1 0x1 JUMPDEST PUSH1 0x60 DUP4 ADD SWAP3 PUSH2 0x1E2F PUSH2 0x1DF4 PUSH2 0x8CE DUP7 MLOAD PUSH1 0x1 PUSH1 0x1 PUSH1 0x40 SHL SUB AND SWAP1 JUMP JUMPDEST SWAP3 PUSH1 0x1 PUSH1 0x1 PUSH1 0x40 SHL SUB PUSH2 0x1E27 PUSH2 0x1E22 PUSH1 0xA0 DUP7 ADD SWAP7 PUSH2 0x1E1C PUSH2 0x8CE DUP10 MLOAD PUSH1 0x1 PUSH1 0x1 PUSH1 0x40 SHL SUB AND SWAP1 JUMP JUMPDEST SWAP1 PUSH2 0x1BEC JUMP JUMPDEST PUSH2 0x1BF9 JUMP JUMPDEST SWAP2 AND SWAP1 PUSH2 0x1C3D JUMP JUMPDEST SWAP1 PUSH2 0x1E5A PUSH2 0x1E54 PUSH2 0x1E42 PUSH1 0x64 DUP6 DIV PUSH2 0x2714 JUMP JUMPDEST PUSH2 0x1E4E PUSH1 0x64 DUP7 MOD PUSH2 0x2714 JUMP JUMPDEST SWAP1 PUSH2 0x1C6D JUMP JUMPDEST SWAP3 PUSH2 0x286A JUMP JUMPDEST SWAP3 PUSH2 0x1E64 DUP5 PUSH2 0x2EF5 JUMP JUMPDEST SWAP7 PUSH2 0x1E6D PUSH2 0x2FEE JUMP JUMPDEST SWAP7 DUP4 MLOAD SWAP4 PUSH2 0x1EA1 PUSH2 0x1E93 PUSH2 0x1E93 PUSH2 0x1E93 PUSH1 0x40 PUSH1 0x20 DUP7 ADD MLOAD SWAP6 ADD MLOAD PUSH1 0x1 PUSH1 0x1 PUSH1 0x40 SHL SUB AND SWAP1 JUMP JUMPDEST SWAP5 MLOAD PUSH1 0x1 PUSH1 0x1 PUSH1 0x40 SHL SUB AND SWAP1 JUMP JUMPDEST SWAP5 PUSH2 0x3C5F JUMP JUMPDEST SWAP2 PUSH2 0x1CA7 JUMP JUMPDEST PUSH2 0x1EA7 SWAP1 PUSH2 0x1DD8 JUMP JUMPDEST PUSH0 MSTORE PUSH1 0x10 PUSH1 0x20 MSTORE PUSH2 0x1F94 PUSH2 0x1F8F PUSH1 0x40 PUSH0 KECCAK256 PUSH1 0x1 PUSH1 0x1 PUSH1 0x40 SHL SUB PUSH2 0x1E27 PUSH2 0x1E22 PUSH1 0x2 PUSH1 0x40 MLOAD SWAP5 PUSH2 0x1EE4 DUP7 PUSH2 0x26C JUMP JUMPDEST PUSH2 0x1EED DUP2 PUSH2 0xC35 JUMP JUMPDEST DUP7 MSTORE PUSH2 0x1EFB PUSH1 0x1 DUP3 ADD PUSH2 0xC35 JUMP JUMPDEST PUSH1 0x20 DUP8 ADD MSTORE ADD SLOAD SWAP4 DUP4 DUP6 AND PUSH1 0x40 DUP3 ADD MSTORE PUSH2 0x1F5D PUSH1 0x60 DUP3 ADD SWAP6 DUP6 DUP2 PUSH1 0x40 SHR AND DUP8 MSTORE PUSH2 0x1F50 PUSH1 0xA0 PUSH2 0x1F40 PUSH1 0x80 DUP7 ADD SWAP4 PUSH2 0x967 DUP11 DUP3 PUSH1 0x80 SHR AND DUP7 SWAP1 PUSH1 0x1 PUSH1 0x1 PUSH1 0x40 SHL SUB AND SWAP1 MSTORE JUMP JUMPDEST PUSH1 0x1 PUSH1 0x1 PUSH1 0x40 SHL SUB AND SWAP5 ADD SWAP4 DUP5 MSTORE JUMP JUMPDEST MLOAD PUSH1 0x1 PUSH1 0x1 PUSH1 0x40 SHL SUB AND SWAP1 JUMP JUMPDEST DUP1 DUP6 AND PUSH2 0x1F9E JUMPI POP PUSH2 0x1E1C PUSH2 0x8CE PUSH2 0x1F81 PUSH2 0x8CE PUSH1 0x1 SWAP9 MLOAD PUSH1 0x1 PUSH1 0x1 PUSH1 0x40 SHL SUB AND SWAP1 JUMP JUMPDEST SWAP3 MLOAD PUSH1 0x1 PUSH1 0x1 PUSH1 0x40 SHL SUB AND SWAP1 JUMP JUMPDEST PUSH2 0x286A JUMP JUMPDEST SWAP1 PUSH2 0x52B DUP3 PUSH2 0x3F66 JUMP JUMPDEST PUSH2 0x8CE PUSH2 0x1F81 PUSH2 0x8CE PUSH2 0x1E1C SWAP4 SWAP9 PUSH2 0x1F50 JUMP JUMPDEST SWAP7 SWAP5 SWAP3 SWAP1 SWAP9 SWAP8 SWAP6 SWAP4 SWAP2 PUSH1 0x40 MLOAD SWAP10 DUP11 SWAP9 PUSH1 0x20 DUP11 ADD PUSH2 0x1FED SWAP1 PUSH32 0x7B226E616D65223A20224B617274752050656D61696E204D504C204944202300 SWAP1 MSTORE JUMP JUMPDEST PUSH1 0x3F DUP11 ADD PUSH2 0x1FFA SWAP2 PUSH2 0x1C5B JUMP JUMPDEST PUSH3 0x11161 PUSH1 0xED SHL DUP2 MSTORE PUSH32 0x226465736372697074696F6E223A20224B6172747520644E4654204D504C2049 PUSH1 0x3 DUP3 ADD MSTORE PUSH32 0x6E646F6E657369612E2053746174697374696B2064616E2074616D70696C616E PUSH1 0x23 DUP3 ADD MSTORE PUSH32 0x206B617274752064697065726261727569206F746F6D61746973207669612043 PUSH1 0x43 DUP3 ADD MSTORE PUSH22 0x3430B4B73634B73590233AB731BA34B7B7399711161 PUSH1 0x55 SHL PUSH1 0x63 DUP3 ADD MSTORE PUSH1 0x79 ADD PUSH15 0x2261747472696275746573223A205B PUSH1 0x88 SHL DUP2 MSTORE PUSH32 0x7B2274726169745F74797065223A20224E69636B6E616D65222C202276616C75 PUSH1 0xF DUP3 ADD MSTORE PUSH5 0x32911D1011 PUSH1 0xD9 SHL PUSH1 0x2F DUP3 ADD MSTORE PUSH1 0x34 ADD PUSH2 0x20EC SWAP2 PUSH2 0x1C5B JUMP JUMPDEST PUSH3 0x89F4B PUSH1 0xEA SHL DUP2 MSTORE PUSH32 0x7B2274726169745F74797065223A20224C616E65222C202276616C7565223A20 PUSH1 0x3 DUP3 ADD MSTORE PUSH1 0x11 PUSH1 0xF9 SHL PUSH1 0x23 DUP3 ADD MSTORE PUSH1 0x24 ADD PUSH2 0x2131 SWAP2 PUSH2 0x1C5B JUMP JUMPDEST PUSH3 0x89F4B PUSH1 0xEA SHL DUP2 MSTORE PUSH32 0x7B2274726169745F74797065223A202254696572222C202276616C7565223A20 PUSH1 0x3 DUP3 ADD MSTORE PUSH1 0x11 PUSH1 0xF9 SHL PUSH1 0x23 DUP3 ADD MSTORE PUSH1 0x24 ADD PUSH2 0x2176 SWAP2 PUSH2 0x1C5B JUMP JUMPDEST PUSH3 0x89F4B PUSH1 0xEA SHL DUP2 MSTORE PUSH32 0x7B2274726169745F74797065223A202247616D6573222C202276616C7565223A PUSH1 0x3 DUP3 ADD MSTORE PUSH1 0x1 PUSH1 0xFD SHL PUSH1 0x23 DUP3 ADD MSTORE PUSH1 0x24 ADD PUSH2 0x21BB SWAP2 PUSH2 0x1C5B JUMP JUMPDEST PUSH2 0x1F4B PUSH1 0xF2 SHL DUP2 MSTORE PUSH32 0x7B2274726169745F74797065223A20224B696C6C73222C202276616C7565223A PUSH1 0x2 DUP3 ADD MSTORE PUSH1 0x1 PUSH1 0xFD SHL PUSH1 0x22 DUP3 ADD MSTORE PUSH1 0x23 ADD PUSH2 0x21FF SWAP2 PUSH2 0x1C5B JUMP JUMPDEST PUSH2 0x1F4B PUSH1 0xF2 SHL DUP2 MSTORE PUSH32 0x7B2274726169745F74797065223A2022446561746873222C202276616C756522 PUSH1 0x2 DUP3 ADD MSTORE PUSH2 0x1D1 PUSH1 0xF5 SHL PUSH1 0x22 DUP3 ADD MSTORE PUSH1 0x24 ADD PUSH2 0x2244 SWAP2 PUSH2 0x1C5B JUMP JUMPDEST PUSH2 0x1F4B PUSH1 0xF2 SHL DUP2 MSTORE PUSH32 0x7B2274726169745F74797065223A202241737369737473222C202276616C7565 PUSH1 0x2 DUP3 ADD MSTORE PUSH3 0x111D1 PUSH1 0xED SHL PUSH1 0x22 DUP3 ADD MSTORE PUSH1 0x25 ADD PUSH2 0x228A SWAP2 PUSH2 0x1C5B JUMP JUMPDEST PUSH1 0x7D PUSH1 0xF8 SHL DUP2 MSTORE PUSH3 0x2E961 PUSH1 0xED SHL PUSH1 0x1 DUP3 ADD MSTORE PUSH32 0x22696D616765223A2022646174613A696D6167652F7376672B786D6C3B626173 PUSH1 0x4 DUP3 ADD MSTORE PUSH4 0x194D8D0B PUSH1 0xE2 SHL PUSH1 0x24 DUP3 ADD MSTORE PUSH1 0x28 ADD PUSH2 0x22DC SWAP2 PUSH2 0x1C5B JUMP JUMPDEST PUSH2 0x227D PUSH1 0xF0 SHL DUP2 MSTORE SUB PUSH1 0x1D NOT DUP2 ADD DUP4 MSTORE PUSH1 0x2 ADD PUSH2 0xBB5 SWAP1 DUP4 PUSH2 0x2C2 JUMP JUMPDEST SWAP1 PUSH2 0xBB5 PUSH2 0x1C99 SWAP3 PUSH1 0x40 MLOAD SWAP4 DUP5 SWAP2 PUSH32 0x646174613A6170706C69636174696F6E2F6A736F6E3B6261736536342C000000 PUSH1 0x20 DUP5 ADD MSTORE PUSH1 0x3D DUP4 ADD SWAP1 PUSH2 0x1C5B JUMP JUMPDEST SWAP2 SWAP1 DUP1 MLOAD SWAP3 DUP4 MLOAD PUSH1 0x1 PUSH1 0x1 PUSH1 0x40 SHL SUB DUP2 GT PUSH2 0x287 JUMPI PUSH2 0x235A DUP2 PUSH2 0x1930 DUP5 SLOAD PUSH2 0xB46 JUMP JUMPDEST PUSH1 0x20 PUSH1 0x1F DUP3 GT PUSH1 0x1 EQ PUSH2 0x248F JUMPI PUSH2 0x246F SWAP3 PUSH2 0x2394 DUP4 PUSH1 0xA0 SWAP5 PUSH1 0x2 SWAP5 PUSH2 0xBB5 SWAP10 SWAP11 PUSH0 SWAP3 PUSH2 0x3D5 JUMPI POP POP DUP2 PUSH1 0x1 SHL SWAP2 PUSH0 NOT SWAP1 PUSH1 0x3 SHL SHR NOT AND OR SWAP1 JUMP JUMPDEST DUP2 SSTORE JUMPDEST PUSH2 0x23A8 PUSH1 0x20 DUP7 ADD MLOAD PUSH1 0x1 DUP4 ADD PUSH2 0x190F JUMP JUMPDEST ADD SWAP3 PUSH2 0x23DE PUSH2 0x23C1 PUSH1 0x40 DUP4 ADD MLOAD PUSH1 0x1 PUSH1 0x1 PUSH1 0x40 SHL SUB AND SWAP1 JUMP JUMPDEST DUP6 SLOAD PUSH8 0xFFFFFFFFFFFFFFFF NOT AND PUSH1 0x1 PUSH1 0x1 PUSH1 0x40 SHL SUB SWAP1 SWAP2 AND OR DUP6 SSTORE JUMP JUMPDEST PUSH2 0x2422 PUSH2 0x23F5 PUSH1 0x60 DUP4 ADD MLOAD PUSH1 0x1 PUSH1 0x1 PUSH1 0x40 SHL SUB AND SWAP1 JUMP JUMPDEST DUP6 SLOAD PUSH16 0xFFFFFFFFFFFFFFFF0000000000000000 NOT AND PUSH1 0x40 SWAP2 SWAP1 SWAP2 SHL PUSH8 0xFFFFFFFFFFFFFFFF PUSH1 0x40 SHL AND OR DUP6 SSTORE JUMP JUMPDEST PUSH2 0x2461 PUSH2 0x2439 PUSH1 0x80 DUP4 ADD MLOAD PUSH1 0x1 PUSH1 0x1 PUSH1 0x40 SHL SUB AND SWAP1 JUMP JUMPDEST DUP6 SLOAD PUSH8 0xFFFFFFFFFFFFFFFF PUSH1 0x80 SHL NOT AND PUSH1 0x80 SWAP2 SWAP1 SWAP2 SHL PUSH8 0xFFFFFFFFFFFFFFFF PUSH1 0x80 SHL AND OR DUP6 SSTORE JUMP JUMPDEST ADD MLOAD PUSH1 0x1 PUSH1 0x1 PUSH1 0x40 SHL SUB AND SWAP1 JUMP JUMPDEST DUP2 SLOAD PUSH1 0x1 PUSH1 0x1 PUSH1 0xC0 SHL SUB AND PUSH1 0xC0 SWAP2 SWAP1 SWAP2 SHL PUSH1 0x1 PUSH1 0x1 PUSH1 0xC0 SHL SUB NOT AND OR SWAP1 SSTORE JUMP JUMPDEST PUSH1 0x1F NOT DUP3 AND SWAP6 PUSH2 0x24A2 DUP5 PUSH0 MSTORE PUSH1 0x20 PUSH0 KECCAK256 SWAP1 JUMP JUMPDEST SWAP7 PUSH0 JUMPDEST DUP2 DUP2 LT PUSH2 0x24EC JUMPI POP DUP4 PUSH2 0xBB5 SWAP8 SWAP9 PUSH1 0x2 SWAP5 PUSH2 0x246F SWAP8 SWAP5 PUSH1 0xA0 SWAP8 PUSH1 0x1 SWAP6 LT PUSH2 0x24D4 JUMPI JUMPDEST POP POP POP DUP2 SHL ADD DUP2 SSTORE PUSH2 0x2397 JUMP JUMPDEST ADD MLOAD PUSH0 NOT PUSH1 0xF8 DUP5 PUSH1 0x3 SHL AND SHR NOT AND SWAP1 SSTORE PUSH0 DUP1 DUP1 PUSH2 0x24C7 JUMP JUMPDEST DUP4 DUP4 ADD MLOAD DUP10 SSTORE PUSH1 0x1 SWAP1 SWAP9 ADD SWAP8 PUSH1 0x20 SWAP4 DUP5 ADD SWAP4 ADD PUSH2 0x24A5 JUMP JUMPDEST PUSH0 NOT DUP2 EQ PUSH2 0xF7D JUMPI PUSH1 0x1 ADD SWAP1 JUMP JUMPDEST PUSH1 0x7 SLOAD PUSH1 0x1 PUSH1 0x1 PUSH1 0xA0 SHL SUB AND CALLER SUB PUSH2 0x2526 JUMPI JUMP JUMPDEST PUSH4 0x118CDAA7 PUSH1 0xE0 SHL PUSH0 MSTORE CALLER PUSH1 0x4 MSTORE PUSH1 0x24 PUSH0 REVERT JUMPDEST PUSH0 DUP2 DUP2 MSTORE PUSH1 0x2 PUSH1 0x20 MSTORE PUSH1 0x40 SWAP1 KECCAK256 SLOAD PUSH1 0x1 PUSH1 0x1 PUSH1 0xA0 SHL SUB AND SWAP1 DUP2 ISZERO PUSH2 0x255B JUMPI POP SWAP1 JUMP JUMPDEST PUSH4 0x7E273289 PUSH1 0xE0 SHL PUSH0 MSTORE PUSH1 0x4 MSTORE PUSH1 0x24 PUSH0 REVERT JUMPDEST SWAP1 DUP2 PUSH1 0x20 SWAP2 SUB SLT PUSH2 0x342 JUMPI MLOAD SWAP1 JUMP JUMPDEST PUSH1 0x40 DUP1 MLOAD SWAP1 SWAP2 SWAP1 PUSH2 0x258D DUP4 DUP3 PUSH2 0x2C2 JUMP JUMPDEST PUSH1 0x1 DUP2 MSTORE SWAP2 PUSH1 0x1F NOT ADD DUP3 PUSH0 JUMPDEST DUP3 DUP2 LT PUSH2 0x25A5 JUMPI POP POP POP JUMP JUMPDEST DUP1 PUSH1 0x60 PUSH1 0x20 DUP1 SWAP4 DUP6 ADD ADD MSTORE ADD PUSH2 0x2599 JUMP JUMPDEST PUSH4 0x4E487B71 PUSH1 0xE0 SHL PUSH0 MSTORE PUSH1 0x32 PUSH1 0x4 MSTORE PUSH1 0x24 PUSH0 REVERT JUMPDEST DUP1 MLOAD ISZERO PUSH2 0x25D7 JUMPI PUSH1 0x20 ADD SWAP1 JUMP JUMPDEST PUSH2 0x25B6 JUMP JUMPDEST DUP1 MLOAD DUP3 LT ISZERO PUSH2 0x25D7 JUMPI PUSH1 0x20 SWAP2 PUSH1 0x5 SHL ADD ADD SWAP1 JUMP JUMPDEST SWAP1 PUSH2 0x26DD SWAP3 SWAP2 PUSH32 0x36C447AD99DF7457C4F3D38DAD77DA717D67A685E3ED93297FEFC4601D9BEB25 PUSH2 0x26A4 PUSH2 0x268F PUSH1 0x40 MLOAD PUSH2 0x2629 DUP2 PUSH2 0x28C JUMP JUMPDEST PUSH0 DUP2 MSTORE PUSH0 PUSH1 0x20 DUP3 ADD MSTORE PUSH0 PUSH1 0x40 DUP3 ADD MSTORE PUSH1 0x60 DUP1 DUP3 ADD MSTORE PUSH1 0x60 PUSH1 0x80 DUP3 ADD MSTORE PUSH1 0x60 PUSH1 0xA0 DUP3 ADD MSTORE PUSH1 0x60 PUSH1 0xC0 DUP3 ADD MSTORE PUSH2 0x2664 PUSH2 0x265E PUSH2 0xB7E JUMP JUMPDEST DUP3 PUSH2 0x4CC0 JUMP JUMPDEST PUSH2 0x268A PUSH2 0x266F PUSH2 0x257C JUMP JUMPDEST DUP8 PUSH2 0x2679 DUP3 PUSH2 0x25CA JUMP JUMPDEST MSTORE PUSH2 0x2683 DUP2 PUSH2 0x25CA JUMP JUMPDEST POP DUP3 PUSH2 0x41D0 JUMP JUMPDEST PUSH2 0x4328 JUMP JUMPDEST PUSH1 0xB SLOAD PUSH1 0x1 PUSH1 0x1 PUSH1 0x40 SHL SUB AND PUSH1 0xA SLOAD SWAP2 PUSH2 0x44F1 JUMP JUMPDEST SWAP5 DUP6 SWAP4 DUP4 PUSH2 0x26BA DUP7 PUSH0 MSTORE PUSH1 0x11 PUSH1 0x20 MSTORE PUSH1 0x40 PUSH0 KECCAK256 SWAP1 JUMP JUMPDEST SSTORE PUSH2 0x575 PUSH2 0x26D0 DUP7 PUSH0 MSTORE PUSH1 0x12 PUSH1 0x20 MSTORE PUSH1 0x40 PUSH0 KECCAK256 SWAP1 JUMP JUMPDEST DUP1 SLOAD PUSH1 0xFF NOT AND PUSH1 0x1 OR SWAP1 SSTORE JUMP JUMPDEST SUB SWAP1 LOG3 JUMP JUMPDEST SWAP1 PUSH2 0x26EC DUP3 PUSH2 0x2E3 JUMP JUMPDEST PUSH2 0x26F9 PUSH1 0x40 MLOAD SWAP2 DUP3 PUSH2 0x2C2 JUMP JUMPDEST DUP3 DUP2 MSTORE DUP1 SWAP3 PUSH2 0x270A PUSH1 0x1F NOT SWAP2 PUSH2 0x2E3 JUMP JUMPDEST ADD SWAP1 PUSH1 0x20 CALLDATASIZE SWAP2 ADD CALLDATACOPY JUMP JUMPDEST DUP1 PUSH0 SWAP2 PUSH19 0x184F03E93FF9F4DAA797ED6E38ED64BF6A1F01 PUSH1 0x40 SHL DUP3 LT ISZERO PUSH2 0x2847 JUMPI JUMPDEST DUP1 PUSH14 0x4EE2D6D415B85ACEF8100000000 PUSH1 0xA SWAP3 LT ISZERO PUSH2 0x282B JUMPI JUMPDEST PUSH7 0x2386F26FC10000 DUP2 LT ISZERO PUSH2 0x2816 JUMPI JUMPDEST PUSH4 0x5F5E100 DUP2 LT ISZERO PUSH2 0x2804 JUMPI JUMPDEST PUSH2 0x2710 DUP2 LT ISZERO PUSH2 0x27F4 JUMPI JUMPDEST PUSH1 0x64 DUP2 LT ISZERO PUSH2 0x27E5 JUMPI JUMPDEST LT ISZERO PUSH2 0x27DA JUMPI JUMPDEST PUSH2 0x27C5 PUSH1 0x21 PUSH2 0x279A PUSH1 0x1 DUP6 ADD PUSH2 0x26E2 JUMP JUMPDEST SWAP4 DUP5 ADD ADD JUMPDEST PUSH0 NOT ADD SWAP2 PUSH16 0x181899199A1A9B1B9C1CB0B131B232B3 PUSH1 0x81 SHL PUSH1 0xA DUP3 MOD BYTE DUP4 MSTORE8 PUSH1 0xA SWAP1 DIV SWAP1 JUMP JUMPDEST DUP1 ISZERO PUSH2 0x27D5 JUMPI PUSH2 0x27C5 SWAP1 SWAP2 PUSH2 0x279F JUMP JUMPDEST POP POP SWAP1 JUMP JUMPDEST PUSH1 0x1 SWAP1 SWAP2 ADD SWAP1 PUSH2 0x2789 JUMP JUMPDEST PUSH1 0x2 SWAP1 PUSH1 0x64 SWAP1 DIV SWAP4 ADD SWAP3 PUSH2 0x2782 JUMP JUMPDEST PUSH1 0x4 SWAP1 PUSH2 0x2710 SWAP1 DIV SWAP4 ADD SWAP3 PUSH2 0x2778 JUMP JUMPDEST PUSH1 0x8 SWAP1 PUSH4 0x5F5E100 SWAP1 DIV SWAP4 ADD SWAP3 PUSH2 0x276D JUMP JUMPDEST PUSH1 0x10 SWAP1 PUSH7 0x2386F26FC10000 SWAP1 DIV SWAP4 ADD SWAP3 PUSH2 0x2760 JUMP JUMPDEST PUSH1 0x20 SWAP1 PUSH14 0x4EE2D6D415B85ACEF8100000000 SWAP1 DIV SWAP4 ADD SWAP3 PUSH2 0x2750 JUMP JUMPDEST POP PUSH1 0x40 SWAP2 POP PUSH19 0x184F03E93FF9F4DAA797ED6E38ED64BF6A1F01 PUSH1 0x40 SHL DUP2 DIV PUSH2 0x2736 JUMP JUMPDEST PUSH2 0x5DC DUP2 LT ISZERO PUSH2 0x28A5 JUMPI PUSH2 0x3E8 DUP2 LT ISZERO PUSH2 0x289F JUMPI PUSH2 0x1F4 DUP2 LT ISZERO PUSH2 0x2899 JUMPI PUSH1 0x64 GT ISZERO PUSH2 0x2894 JUMPI PUSH0 SWAP1 JUMP JUMPDEST PUSH1 0x1 SWAP1 JUMP JUMPDEST POP PUSH1 0x2 SWAP1 JUMP JUMPDEST POP PUSH1 0x3 SWAP1 JUMP JUMPDEST POP PUSH1 0x4 SWAP1 JUMP JUMPDEST PUSH1 0x40 MLOAD SWAP1 PUSH2 0x28BA PUSH1 0x40 DUP4 PUSH2 0x2C2 JUMP JUMPDEST PUSH1 0x7 DUP3 MSTORE PUSH7 0x23313531353135 PUSH1 0xC8 SHL PUSH1 0x20 DUP4 ADD MSTORE JUMP JUMPDEST PUSH1 0x40 MLOAD SWAP1 PUSH2 0x28DF PUSH1 0x40 DUP4 PUSH2 0x2C2 JUMP JUMPDEST PUSH1 0x7 DUP3 MSTORE PUSH7 0x11981919331A99 PUSH1 0xC9 SHL PUSH1 0x20 DUP4 ADD MSTORE JUMP JUMPDEST PUSH1 0x40 MLOAD SWAP1 PUSH2 0x2904 PUSH1 0x40 DUP4 PUSH2 0x2C2 JUMP JUMPDEST PUSH1 0x7 DUP3 MSTORE PUSH7 0x23656366306631 PUSH1 0xC8 SHL PUSH1 0x20 DUP4 ADD MSTORE JUMP JUMPDEST PUSH1 0x40 MLOAD SWAP1 PUSH2 0x2929 PUSH1 0x40 DUP4 PUSH2 0x2C2 JUMP JUMPDEST PUSH1 0x7 DUP3 MSTORE PUSH7 0x23353535353535 PUSH1 0xC8 SHL PUSH1 0x20 DUP4 ADD MSTORE JUMP JUMPDEST PUSH1 0x40 MLOAD SWAP1 PUSH2 0x294E PUSH1 0x40 DUP4 PUSH2 0x2C2 JUMP JUMPDEST PUSH1 0x7 DUP3 MSTORE PUSH7 0x2331613065303 PUSH1 0xCC SHL PUSH1 0x20 DUP4 ADD MSTORE JUMP JUMPDEST PUSH1 0x40 MLOAD SWAP1 PUSH2 0x2973 PUSH1 0x40 DUP4 PUSH2 0x2C2 JUMP JUMPDEST PUSH1 0x7 DUP3 MSTORE PUSH7 0x2332613138303 PUSH1 0xCC SHL PUSH1 0x20 DUP4 ADD MSTORE JUMP JUMPDEST PUSH1 0x40 MLOAD SWAP1 PUSH2 0x2998 PUSH1 0x40 DUP4 PUSH2 0x2C2 JUMP JUMPDEST PUSH1 0x7 DUP3 MSTORE PUSH7 0x11B1B21BB31999 PUSH1 0xC9 SHL PUSH1 0x20 DUP4 ADD MSTORE JUMP JUMPDEST PUSH1 0x40 MLOAD SWAP1 PUSH2 0x29BD PUSH1 0x40 DUP4 PUSH2 0x2C2 JUMP JUMPDEST PUSH1 0x7 DUP3 MSTORE PUSH7 0x23613036323261 PUSH1 0xC8 SHL PUSH1 0x20 DUP4 ADD MSTORE JUMP JUMPDEST PUSH1 0x40 MLOAD SWAP1 PUSH2 0x29E2 PUSH1 0x40 DUP4 PUSH2 0x2C2 JUMP JUMPDEST PUSH1 0x7 DUP3 MSTORE PUSH7 0x23316131613161 PUSH1 0xC8 SHL PUSH1 0x20 DUP4 ADD MSTORE JUMP JUMPDEST PUSH1 0x40 MLOAD SWAP1 PUSH2 0x2A07 PUSH1 0x40 DUP4 PUSH2 0x2C2 JUMP JUMPDEST PUSH1 0x7 DUP3 MSTORE PUSH7 0x23326132613261 PUSH1 0xC8 SHL PUSH1 0x20 DUP4 ADD MSTORE JUMP JUMPDEST PUSH1 0x40 MLOAD SWAP1 PUSH2 0x2A2C PUSH1 0x40 DUP4 PUSH2 0x2C2 JUMP JUMPDEST PUSH1 0x7 DUP3 MSTORE PUSH7 0x2363306330633 PUSH1 0xCC SHL PUSH1 0x20 DUP4 ADD MSTORE JUMP JUMPDEST PUSH1 0x40 MLOAD SWAP1 PUSH2 0x2A51 PUSH1 0x40 DUP4 PUSH2 0x2C2 JUMP JUMPDEST PUSH1 0x7 DUP3 MSTORE PUSH7 0x8D84E184E5859 PUSH1 0xCA SHL PUSH1 0x20 DUP4 ADD MSTORE JUMP JUMPDEST PUSH1 0x40 MLOAD SWAP1 PUSH2 0x2A76 PUSH1 0x40 DUP4 PUSH2 0x2C2 JUMP JUMPDEST PUSH1 0x7 DUP3 MSTORE PUSH7 0x2331613134303 PUSH1 0xCC SHL PUSH1 0x20 DUP4 ADD MSTORE JUMP JUMPDEST PUSH1 0x40 MLOAD SWAP1 PUSH2 0x2A9B PUSH1 0x40 DUP4 PUSH2 0x2C2 JUMP JUMPDEST PUSH1 0x7 DUP3 MSTORE PUSH7 0x2332613230303 PUSH1 0xCC SHL PUSH1 0x20 DUP4 ADD MSTORE JUMP JUMPDEST PUSH1 0x40 MLOAD SWAP1 PUSH2 0x2AC0 PUSH1 0x40 DUP4 PUSH2 0x2C2 JUMP JUMPDEST PUSH1 0x7 DUP3 MSTORE PUSH7 0x2366666437303 PUSH1 0xCC SHL PUSH1 0x20 DUP4 ADD MSTORE JUMP JUMPDEST PUSH1 0x40 MLOAD SWAP1 PUSH2 0x2AE5 PUSH1 0x40 DUP4 PUSH2 0x2C2 JUMP JUMPDEST PUSH1 0x7 DUP3 MSTORE PUSH7 0x2363386136303 PUSH1 0xCC SHL PUSH1 0x20 DUP4 ADD MSTORE JUMP JUMPDEST PUSH1 0x40 MLOAD SWAP1 PUSH2 0x2B0A PUSH1 0x40 DUP4 PUSH2 0x2C2 JUMP JUMPDEST PUSH1 0x7 DUP3 MSTORE PUSH7 0x2331613030333 PUSH1 0xCC SHL PUSH1 0x20 DUP4 ADD MSTORE JUMP JUMPDEST PUSH1 0x40 MLOAD SWAP1 PUSH2 0x2B2F PUSH1 0x40 DUP4 PUSH2 0x2C2 JUMP JUMPDEST PUSH1 0x7 DUP3 MSTORE PUSH7 0x2332643030353 PUSH1 0xCC SHL PUSH1 0x20 DUP4 ADD MSTORE JUMP JUMPDEST PUSH1 0x40 MLOAD SWAP1 PUSH2 0x2B54 PUSH1 0x40 DUP4 PUSH2 0x2C2 JUMP JUMPDEST PUSH1 0x7 DUP3 MSTORE PUSH7 0x11B1331BB33333 PUSH1 0xC9 SHL PUSH1 0x20 DUP4 ADD MSTORE JUMP JUMPDEST PUSH1 0x40 MLOAD SWAP1 PUSH2 0x2B79 PUSH1 0x40 DUP4 PUSH2 0x2C2 JUMP JUMPDEST PUSH1 0x7 DUP3 MSTORE PUSH7 0x2361303230663 PUSH1 0xCC SHL PUSH1 0x20 DUP4 ADD MSTORE JUMP JUMPDEST SWAP5 SWAP3 SWAP1 SWAP7 SWAP6 SWAP4 SWAP2 PUSH1 0x40 MLOAD SWAP8 DUP9 SWAP7 PUSH1 0x20 DUP9 ADD PUSH32 0x3C7265637420783D22302220793D2230222077696474683D2233323022206865 SWAP1 MSTORE PUSH17 0x34B3B43A1E911A181811103334B6361E91 PUSH1 0x79 SHL PUSH1 0x40 DUP10 ADD MSTORE PUSH1 0x51 DUP9 ADD PUSH2 0x2BEA SWAP2 PUSH2 0x1C5B JUMP JUMPDEST PUSH3 0x11179F PUSH1 0xE9 SHL DUP2 MSTORE PUSH32 0x3C7265637420783D22382220793D2238222077696474683D2233303422206865 PUSH1 0x3 DUP3 ADD MSTORE PUSH17 0x34B3B43A1E91199C1A11103334B6361E91 PUSH1 0x79 SHL PUSH1 0x23 DUP3 ADD MSTORE PUSH2 0x2C42 SWAP2 PUSH1 0x34 SWAP1 SWAP2 ADD SWAP1 PUSH2 0x1C5B JUMP JUMPDEST PUSH3 0x11179F PUSH1 0xE9 SHL DUP2 MSTORE PUSH32 0x3C7265637420783D22382220793D2238222077696474683D2233303422206865 PUSH1 0x3 DUP3 ADD MSTORE PUSH32 0x696768743D22333834222066696C6C3D226E6F6E6522207374726F6B653D2200 PUSH1 0x23 DUP3 ADD MSTORE PUSH1 0x42 ADD PUSH2 0x2CA3 SWAP2 PUSH2 0x1C5B JUMP JUMPDEST PUSH32 0x22207374726F6B652D77696474683D22312E35222072783D2232222F3E000000 DUP2 MSTORE PUSH32 0x3C7465787420783D223136302220793D223336222066696C6C3D220000000000 PUSH1 0x1D DUP3 ADD MSTORE PUSH1 0x38 ADD PUSH2 0x2CF8 SWAP2 PUSH2 0x1C5B JUMP JUMPDEST PUSH32 0x2220666F6E742D73697A653D2231362220746578742D616E63686F723D226D69 DUP2 MSTORE PUSH32 0x64646C652220666F6E742D7765696768743D22626F6C642220666F6E742D6661 PUSH1 0x20 DUP3 ADD MSTORE PUSH32 0x6D696C793D226D6F6E6F7370616365223E504C4159455220434152443C2F7465 PUSH1 0x40 DUP3 ADD MSTORE PUSH3 0x3C3A1F PUSH1 0xE9 SHL PUSH1 0x60 DUP3 ADD MSTORE PUSH1 0x63 ADD PUSH32 0x3C6C696E652078313D223230222079313D223530222078323D22333030222079 DUP2 MSTORE PUSH15 0x191E911A98111039BA3937B5B29E91 PUSH1 0x89 SHL PUSH1 0x20 DUP3 ADD MSTORE PUSH1 0x2F ADD PUSH2 0x2DBD SWAP2 PUSH2 0x1C5B JUMP JUMPDEST PUSH20 0x111039BA3937B5B296BBB4B23A341E911911179F PUSH1 0x61 SHL DUP2 MSTORE PUSH32 0x3C7265637420783D223233302220793D22333535222077696474683D22373822 PUSH1 0x14 DUP3 ADD MSTORE PUSH32 0x206865696768743D223232222072783D2234222066696C6C3D22000000000000 PUSH1 0x34 DUP3 ADD MSTORE PUSH1 0x4E ADD PUSH2 0x2E2F SWAP2 PUSH2 0x1C5B JUMP JUMPDEST PUSH3 0x11179F PUSH1 0xE9 SHL DUP2 MSTORE PUSH32 0x3C7465787420783D223236392220793D22333730222066696C6C3D2223666666 PUSH1 0x3 DUP3 ADD MSTORE PUSH32 0x6666662220666F6E742D73697A653D2231312220746578742D616E63686F723D PUSH1 0x23 DUP3 ADD MSTORE PUSH32 0x226D6964646C652220666F6E742D7765696768743D22626F6C642220666F6E74 PUSH1 0x43 DUP3 ADD MSTORE PUSH20 0x16B330B6B4B63C9E9136B7B737B9B830B1B2911F PUSH1 0x61 SHL PUSH1 0x63 DUP3 ADD MSTORE PUSH1 0x77 ADD PUSH2 0x2ED3 SWAP2 PUSH2 0x1C5B JUMP JUMPDEST PUSH7 0x1E17BA32BC3A1F PUSH1 0xC9 SHL DUP2 MSTORE SUB PUSH1 0x18 NOT DUP2 ADD DUP4 MSTORE PUSH1 0x7 ADD PUSH2 0xBB5 SWAP1 DUP4 PUSH2 0x2C2 JUMP JUMPDEST PUSH2 0x52B SWAP1 PUSH1 0xFF DUP2 AND PUSH1 0x4 DUP2 SUB PUSH2 0x2F39 JUMPI POP PUSH2 0x2F0E PUSH2 0x2AFB JUMP JUMPDEST SWAP1 PUSH2 0x2F17 PUSH2 0x2B20 JUMP JUMPDEST PUSH2 0x2F1F PUSH2 0x2B45 JUMP JUMPDEST DUP1 DUP1 SWAP3 PUSH2 0x2F33 PUSH2 0x2F2D PUSH2 0x2B6A JUMP JUMPDEST SWAP6 PUSH2 0x3F66 JUMP JUMPDEST SWAP6 PUSH2 0x2B8F JUMP JUMPDEST PUSH1 0x3 DUP2 SUB PUSH2 0x2F69 JUMPI POP PUSH2 0x2F4A PUSH2 0x2A67 JUMP JUMPDEST SWAP1 PUSH2 0x2F53 PUSH2 0x2A8C JUMP JUMPDEST PUSH2 0x2F5B PUSH2 0x2AB1 JUMP JUMPDEST DUP1 DUP1 SWAP3 PUSH2 0x2F33 PUSH2 0x2F2D PUSH2 0x2AD6 JUMP JUMPDEST PUSH1 0x2 DUP2 SUB PUSH2 0x2F99 JUMPI POP PUSH2 0x2F7A PUSH2 0x29D3 JUMP JUMPDEST SWAP1 PUSH2 0x2F83 PUSH2 0x29F8 JUMP JUMPDEST PUSH2 0x2F8B PUSH2 0x2A1D JUMP JUMPDEST DUP1 DUP1 SWAP3 PUSH2 0x2F33 PUSH2 0x2F2D PUSH2 0x2A42 JUMP JUMPDEST PUSH1 0x1 SUB PUSH2 0x2FC7 JUMPI PUSH2 0x2FA8 PUSH2 0x293F JUMP JUMPDEST SWAP1 PUSH2 0x2FB1 PUSH2 0x2964 JUMP JUMPDEST PUSH2 0x2FB9 PUSH2 0x2989 JUMP JUMPDEST DUP1 DUP1 SWAP3 PUSH2 0x2F33 PUSH2 0x2F2D PUSH2 0x29AE JUMP JUMPDEST PUSH2 0x2FCF PUSH2 0x28AB JUMP JUMPDEST SWAP1 PUSH2 0x2FD8 PUSH2 0x28D0 JUMP JUMPDEST PUSH2 0x2FE0 PUSH2 0x28F5 JUMP JUMPDEST DUP1 DUP1 SWAP3 PUSH2 0x2F33 PUSH2 0x2F2D PUSH2 0x291A JUMP JUMPDEST PUSH1 0x40 MLOAD SWAP1 PUSH2 0x2FFE PUSH2 0x8C0 DUP4 PUSH2 0x2C2 JUMP JUMPDEST PUSH2 0x894 DUP3 MSTORE PUSH32 0x3C73766720783D2231302220793D223330222077696474683D22313430222068 PUSH1 0x20 DUP4 ADD MSTORE PUSH32 0x65696768743D22333830222076696577426F783D223020302033322033322220 PUSH1 0x40 DUP4 ADD MSTORE PUSH32 0x73686170652D72656E646572696E673D2263726973704564676573223E3C6720 PUSH1 0x60 DUP4 ADD MSTORE PUSH32 0x7472616E73666F726D3D227472616E736C6174652833322C203029207363616C PUSH1 0x80 DUP4 ADD MSTORE PUSH32 0x65282D312C203129223E3C706174682066696C6C3D2223303030303030222064 PUSH1 0xA0 DUP4 ADD MSTORE PUSH32 0x3D224D3131203268313076314831317A204D3920336832763148397A204D3231 PUSH1 0xC0 DUP4 ADD MSTORE PUSH32 0x2033683276314832317A204D3820346831763148387A204D3233203468317631 PUSH1 0xE0 DUP4 ADD MSTORE PUSH32 0x4832337A204D3820356831763148387A204D32342035683176314832347A204D PUSH2 0x100 DUP4 ADD MSTORE PUSH32 0x3820366831763148387A204D32342036683176314832347A204D382037683176 PUSH2 0x120 DUP4 ADD MSTORE PUSH32 0x3148387A204D32342037683176314832347A204D3820386831763148387A204D PUSH2 0x140 DUP4 ADD MSTORE PUSH32 0x32342038683176314832347A204D3920396831763148397A204D323420396831 PUSH2 0x160 DUP4 ADD MSTORE PUSH32 0x76314832347A204D392031306831763148397A204D3233203130683176314832 PUSH2 0x180 DUP4 ADD MSTORE PUSH32 0x337A204D392031316831763148397A204D3132203131683276314831327A204D PUSH2 0x1A0 DUP4 ADD MSTORE PUSH32 0x3138203131683276314831387A204D3233203131683176314832337A204D3920 PUSH2 0x1C0 DUP4 ADD MSTORE PUSH32 0x31326831763148397A204D3233203132683176314832337A204D313020313368 PUSH2 0x1E0 DUP4 ADD MSTORE PUSH32 0x3176314831307A204D3232203133683176314832327A204D3130203134683176 PUSH2 0x200 DUP4 ADD MSTORE PUSH32 0x314831307A204D3232203134683176314832327A204D31302031356831763148 PUSH2 0x220 DUP4 ADD MSTORE PUSH32 0x31307A204D3232203135683176314832327A204D313120313668317631483131 PUSH2 0x240 DUP4 ADD MSTORE PUSH32 0x7A204D3231203136683176314832317A204D3131203137683176314831317A20 PUSH2 0x260 DUP4 ADD MSTORE PUSH32 0x4D3231203137683176314832317A204D3132203138683176314831327A204D32 PUSH2 0x280 DUP4 ADD MSTORE PUSH32 0x30203138683176314832307A204D3132203139683176314831327A204D323020 PUSH2 0x2A0 DUP4 ADD MSTORE PUSH32 0x3139683176314832307A204D3131203230683176314831317A204D3231203230 PUSH2 0x2C0 DUP4 ADD MSTORE PUSH32 0x683176314832317A204D392032316832763148397A204D323220323168327631 PUSH2 0x2E0 DUP4 ADD MSTORE PUSH32 0x4832327A204D372032326832763148377A204D3234203232683276314832347A PUSH2 0x300 DUP4 ADD MSTORE PUSH32 0x204D362032336831763148367A204D3236203233683176314832367A204D3520 PUSH2 0x320 DUP4 ADD MSTORE PUSH32 0x32346831763148357A204D3237203234683176314832377A204D342032356831 PUSH2 0x340 DUP4 ADD MSTORE PUSH32 0x763148347A204D3238203235683176314832387A204D33203236683176314833 PUSH2 0x360 DUP4 ADD MSTORE PUSH32 0x7A204D3239203236683176314832397A204D332032376831763148337A204D32 PUSH2 0x380 DUP4 ADD MSTORE PUSH32 0x39203237683176314832397A204D332032386831763148337A204D3239203238 PUSH2 0x3A0 DUP4 ADD MSTORE PUSH32 0x683176314832397A204D332032396831763148337A204D323920323968317631 PUSH2 0x3C0 DUP4 ADD MSTORE PUSH32 0x4832397A204D332033306831763148337A204D3239203330683176314832397A PUSH2 0x3E0 DUP4 ADD MSTORE PUSH32 0x204D33203331683237763148337A22202F3E3C706174682066696C6C3D222330 PUSH2 0x400 DUP4 ADD MSTORE PUSH32 0x30303030302220643D224D3131203368313076314831317A204D392034683134 PUSH2 0x420 DUP4 ADD MSTORE PUSH32 0x763148397A204D392035683135763148397A204D392036683135763148397A20 PUSH2 0x440 DUP4 ADD MSTORE PUSH32 0x4D392037683135763148397A204D3920386833763148397A204D323020386834 PUSH2 0x460 DUP4 ADD MSTORE PUSH32 0x76314832307A204D31302039683276314831307A204D32322039683276314832 PUSH2 0x480 DUP4 ADD MSTORE PUSH32 0x327A204D3130203130683176314831307A204D3232203130683176314832327A PUSH2 0x4A0 DUP4 ADD MSTORE PUSH32 0x22202F3E3C706174682066696C6C3D22236534623539302220643D224D313220 PUSH2 0x4C0 DUP4 ADD MSTORE PUSH32 0x38683876314831327A204D3132203968313076314831327A204D313120313068 PUSH2 0x4E0 DUP4 ADD MSTORE PUSH32 0x313176314831317A204D3130203131683276314831307A204D31342031316834 PUSH2 0x500 DUP4 ADD MSTORE PUSH32 0x76314831347A204D3230203131683376314832307A204D313020313268313376 PUSH2 0x520 DUP4 ADD MSTORE PUSH32 0x314831307A204D3131203133683476314831317A204D31372031336835763148 PUSH2 0x540 DUP4 ADD MSTORE PUSH32 0x31377A204D313120313468313176314831317A204D3131203135683376314831 PUSH2 0x560 DUP4 ADD MSTORE PUSH32 0x317A204D3138203135683476314831387A204D3132203136683976314831327A PUSH2 0x580 DUP4 ADD MSTORE PUSH32 0x204D3132203137683976314831327A204D3133203138683776314831337A2220 PUSH2 0x5A0 DUP4 ADD MSTORE PUSH32 0x2F3E3C706174682066696C6C3D22236335393437332220643D224D3135203133 PUSH2 0x5C0 DUP4 ADD MSTORE PUSH32 0x683276314831357A204D3133203139683776314831337A204D31342032306835 PUSH2 0x5E0 DUP4 ADD MSTORE PUSH32 0x76314831347A22202F3E3C706174682066696C6C3D2223626436613466222064 PUSH2 0x600 DUP4 ADD MSTORE PUSH32 0x3D224D3134203135683476314831347A22202F3E3C706174682066696C6C3D22 PUSH2 0x620 DUP4 ADD MSTORE PUSH32 0x236666666666662220643D224D3132203230683276314831327A204D31392032 PUSH2 0x640 DUP4 ADD MSTORE PUSH32 0x30683276314831397A204D3131203231683376314831317A204D313920323168 PUSH2 0x660 DUP4 ADD MSTORE PUSH32 0x3376314831397A204D392032326834763148397A204D32302032326834763148 PUSH2 0x680 DUP4 ADD MSTORE PUSH32 0x32307A204D372032336835763148377A204D3231203233683576314832317A20 PUSH2 0x6A0 DUP4 ADD MSTORE PUSH32 0x4D362032346835763148367A204D3232203234683576314832327A204D352032 PUSH2 0x6C0 DUP4 ADD MSTORE PUSH32 0x356835763148357A204D3133203235683276314831337A204D31362032356832 PUSH2 0x6E0 DUP4 ADD MSTORE PUSH32 0x76314831367A204D3139203235683276314831397A204D323320323568357631 PUSH2 0x700 DUP4 ADD MSTORE PUSH32 0x4832337A204D342032366835763148347A204D3234203236683576314832347A PUSH2 0x720 DUP4 ADD MSTORE PUSH32 0x204D342032376834763148347A204D3235203237683476314832357A204D3420 PUSH2 0x740 DUP4 ADD MSTORE PUSH32 0x32386834763148347A204D3235203238683476314832357A204D342032396834 PUSH2 0x760 DUP4 ADD MSTORE PUSH32 0x763148347A204D3235203239683476314832357A204D36203330683276314836 PUSH2 0x780 DUP4 ADD MSTORE PUSH32 0x7A204D3235203330683276314832357A22202F3E3C706174682066696C6C3D22 PUSH2 0x7A0 DUP4 ADD MSTORE PUSH32 0x236566383131352220643D224D3134203231683576314831347A204D31332032 PUSH2 0x7C0 DUP4 ADD MSTORE PUSH32 0x32683776314831337A204D3132203233683976314831327A204D313120323468 PUSH2 0x7E0 DUP4 ADD MSTORE PUSH32 0x313176314831317A204D3130203235683376314831307A204D31352032356831 PUSH2 0x800 DUP4 ADD MSTORE PUSH32 0x76314831357A204D3138203235683176314831387A204D323120323568327631 PUSH2 0x820 DUP4 ADD MSTORE PUSH32 0x4832317A204D39203236683135763148397A204D38203237683137763148387A PUSH2 0x840 DUP4 ADD MSTORE PUSH32 0x204D38203238683137763148387A204D38203239683137763148387A204D3420 PUSH2 0x860 DUP4 ADD MSTORE PUSH32 0x33306832763148347A204D38203330683137763148387A204D32372033306832 PUSH2 0x880 DUP4 ADD MSTORE PUSH20 0x3B18A4191BBD1110179F1E17B39F1E17B9BB339F PUSH1 0x61 SHL PUSH2 0x8A0 DUP4 ADD MSTORE JUMP JUMPDEST PUSH1 0x4 SWAP1 PUSH2 0x3C46 PUSH2 0x3B13 SWAP6 SWAP5 PUSH2 0x1D74 PUSH1 0x7 PUSH2 0x3BC2 PUSH2 0xBB5 SWAP8 PUSH1 0x9A PUSH1 0x40 MLOAD SWAP12 DUP13 SWAP9 PUSH32 0x3C67207472616E73666F726D3D227472616E736C617465283138302C20393529 PUSH1 0x20 DUP12 ADD MSTORE PUSH32 0x222073686170652D72656E646572696E673D2263726973704564676573223E00 PUSH1 0x40 DUP12 ADD MSTORE PUSH32 0x3C7465787420783D222D33302220793D223230222066696C6C3D220000000000 PUSH1 0x5F DUP12 ADD MSTORE PUSH1 0x7A DUP11 ADD SWAP1 PUSH2 0x1C5B JUMP JUMPDEST PUSH0 MLOAD PUSH1 0x20 PUSH2 0x5408 PUSH0 CODECOPY PUSH0 MLOAD SWAP1 PUSH0 MSTORE DUP2 MSTORE PUSH32 0x6E6F7370616365223E504C41594552204E414D453A3C2F746578743E00000000 PUSH1 0x20 DUP3 ADD MSTORE PUSH32 0x3C7465787420783D222D33302220793D223436222066696C6C3D222365636630 PUSH1 0x3C DUP3 ADD MSTORE PUSH32 0x66312220666F6E742D73697A653D2232302220666F6E742D7765696768743D22 PUSH1 0x5C DUP3 ADD MSTORE PUSH32 0x626F6C642220666F6E742D66616D696C793D226D6F6E6F7370616365223E0000 PUSH1 0x7C DUP3 ADD MSTORE ADD SWAP1 PUSH2 0x1C5B JUMP JUMPDEST PUSH7 0x1E17BA32BC3A1F PUSH1 0xC9 SHL DUP2 MSTORE ADD PUSH1 0x5F SWAP1 PUSH32 0x3C6C696E652078313D222D3235222079313D223638222078323D223132302220 DUP2 MSTORE PUSH32 0x79323D22363822207374726F6B653D222335353522207374726F6B652D776964 PUSH1 0x20 DUP3 ADD MSTORE PUSH32 0x74683D223322207374726F6B652D6461736861727261793D22382C36222F3E00 PUSH1 0x40 DUP3 ADD MSTORE ADD SWAP1 JUMP JUMPDEST PUSH4 0x1E17B39F PUSH1 0xE1 SHL DUP2 MSTORE SUB PUSH1 0x1B NOT DUP2 ADD DUP6 MSTORE ADD DUP4 PUSH2 0x2C2 JUMP JUMPDEST SWAP5 SWAP1 SWAP3 SWAP4 PUSH2 0x3C8C SWAP5 PUSH1 0xFF PUSH2 0x52B SWAP10 SWAP9 SWAP5 SWAP9 AND PUSH1 0x4 DUP2 EQ PUSH0 EQ PUSH2 0x3C92 JUMPI POP PUSH2 0x3C84 PUSH2 0x2B45 JUMP JUMPDEST SWAP8 DUP9 SWAP6 PUSH2 0x45DC JUMP JUMPDEST SWAP2 PUSH2 0x3A78 JUMP JUMPDEST PUSH1 0x3 DUP2 SUB PUSH2 0x3CA3 JUMPI POP PUSH2 0x3C84 PUSH2 0x2AB1 JUMP JUMPDEST PUSH1 0x2 DUP2 SUB PUSH2 0x3CB4 JUMPI POP PUSH2 0x3C84 PUSH2 0x2A1D JUMP JUMPDEST PUSH1 0x1 SUB PUSH2 0x3CC3 JUMPI PUSH2 0x3C84 PUSH2 0x2989 JUMP JUMPDEST PUSH1 0x40 MLOAD PUSH2 0x3CD1 PUSH1 0x40 DUP3 PUSH2 0x2C2 JUMP JUMPDEST PUSH1 0x7 DUP2 MSTORE PUSH7 0x11999A1C9C3231 PUSH1 0xC9 SHL PUSH1 0x20 DUP3 ADD MSTORE SWAP8 DUP9 SWAP6 PUSH2 0x45DC JUMP JUMPDEST SWAP1 DUP2 PUSH1 0x20 SWAP2 SUB SLT PUSH2 0x342 JUMPI MLOAD PUSH2 0x52B DUP2 PUSH2 0x45B JUMP JUMPDEST PUSH1 0x1 PUSH1 0x1 PUSH1 0xA0 SHL SUB SWAP2 DUP3 AND DUP2 MSTORE SWAP2 AND PUSH1 0x20 DUP3 ADD MSTORE PUSH1 0x40 DUP2 ADD SWAP2 SWAP1 SWAP2 MSTORE PUSH1 0x80 PUSH1 0x60 DUP3 ADD DUP2 SWAP1 MSTORE PUSH2 0x52B SWAP3 SWAP2 ADD SWAP1 PUSH2 0x4F6 JUMP JUMPDEST PUSH1 0x40 MLOAD RETURNDATASIZE PUSH0 DUP3 RETURNDATACOPY RETURNDATASIZE SWAP1 REVERT JUMPDEST RETURNDATASIZE ISZERO PUSH2 0x3D68 JUMPI RETURNDATASIZE SWAP1 PUSH2 0x3D4F DUP3 PUSH2 0x2E3 JUMP JUMPDEST SWAP2 PUSH2 0x3D5D PUSH1 0x40 MLOAD SWAP4 DUP5 PUSH2 0x2C2 JUMP JUMPDEST DUP3 MSTORE RETURNDATASIZE PUSH0 PUSH1 0x20 DUP5 ADD RETURNDATACOPY JUMP JUMPDEST PUSH1 0x60 SWAP1 JUMP JUMPDEST SWAP1 SWAP3 DUP4 EXTCODESIZE PUSH2 0x3D7C JUMPI JUMPDEST POP POP POP POP JUMP JUMPDEST PUSH1 0x40 MLOAD PUSH4 0xA85BD01 PUSH1 0xE1 SHL DUP2 MSTORE SWAP3 PUSH1 0x20 SWAP3 DUP5 SWAP3 DUP4 SWAP3 PUSH2 0x3DA0 SWAP3 PUSH0 SWAP1 PUSH1 0x4 DUP7 ADD PUSH2 0x3D02 JUMP JUMPDEST SUB DUP2 PUSH0 PUSH1 0x1 PUSH1 0x1 PUSH1 0xA0 SHL SUB DUP8 AND GAS CALL PUSH0 SWAP2 DUP2 PUSH2 0x3E2D JUMPI JUMPDEST POP PUSH2 0x3DF1 JUMPI POP PUSH2 0x3DC5 PUSH2 0x3D3E JUMP JUMPDEST DUP1 MLOAD SWAP2 SWAP1 DUP3 PUSH2 0x3DEA JUMPI PUSH4 0x32505749 PUSH1 0xE1 SHL PUSH0 MSTORE PUSH1 0x1 PUSH1 0x1 PUSH1 0xA0 SHL SUB DUP3 AND PUSH1 0x4 MSTORE PUSH1 0x24 PUSH0 REVERT JUMPDEST PUSH1 0x20 SWAP2 POP ADD REVERT JUMPDEST PUSH1 0x1 PUSH1 0x1 PUSH1 0xE0 SHL SUB NOT AND PUSH4 0x757A42FF PUSH1 0xE1 SHL ADD PUSH2 0x3E12 JUMPI POP PUSH0 DUP1 DUP1 DUP1 PUSH2 0x3D76 JUMP JUMPDEST PUSH4 0x32505749 PUSH1 0xE1 SHL PUSH0 MSTORE PUSH1 0x1 PUSH1 0x1 PUSH1 0xA0 SHL SUB AND PUSH1 0x4 MSTORE PUSH1 0x24 PUSH0 REVERT JUMPDEST PUSH2 0x3E50 SWAP2 SWAP3 POP PUSH1 0x20 RETURNDATASIZE PUSH1 0x20 GT PUSH2 0x3E57 JUMPI JUMPDEST PUSH2 0x3E48 DUP2 DUP4 PUSH2 0x2C2 JUMP JUMPDEST DUP2 ADD SWAP1 PUSH2 0x3CED JUMP JUMPDEST SWAP1 PUSH0 PUSH2 0x3DB7 JUMP JUMPDEST POP RETURNDATASIZE PUSH2 0x3E3E JUMP JUMPDEST SWAP4 SWAP2 SWAP4 DUP5 EXTCODESIZE PUSH2 0x3E6F JUMPI JUMPDEST POP POP POP POP POP JUMP JUMPDEST PUSH2 0x3E90 PUSH1 0x20 SWAP4 PUSH1 0x40 MLOAD SWAP6 DUP7 SWAP5 DUP6 SWAP5 PUSH4 0xA85BD01 PUSH1 0xE1 SHL DUP7 MSTORE PUSH1 0x4 DUP7 ADD PUSH2 0x3D02 JUMP JUMPDEST SUB DUP2 PUSH0 PUSH1 0x1 PUSH1 0x1 PUSH1 0xA0 SHL SUB DUP8 AND GAS CALL PUSH0 SWAP2 DUP2 PUSH2 0x3ED7 JUMPI JUMPDEST POP PUSH2 0x3EB5 JUMPI POP PUSH2 0x3DC5 PUSH2 0x3D3E JUMP JUMPDEST PUSH1 0x1 PUSH1 0x1 PUSH1 0xE0 SHL SUB NOT AND PUSH4 0x757A42FF PUSH1 0xE1 SHL ADD PUSH2 0x3E12 JUMPI POP PUSH0 DUP1 DUP1 DUP1 DUP1 PUSH2 0x3E68 JUMP JUMPDEST PUSH2 0x3EF1 SWAP2 SWAP3 POP PUSH1 0x20 RETURNDATASIZE PUSH1 0x20 GT PUSH2 0x3E57 JUMPI PUSH2 0x3E48 DUP2 DUP4 PUSH2 0x2C2 JUMP JUMPDEST SWAP1 PUSH0 PUSH2 0x3EA7 JUMP JUMPDEST PUSH1 0x40 MLOAD SWAP1 PUSH2 0x3F07 PUSH1 0x40 DUP4 PUSH2 0x2C2 JUMP JUMPDEST PUSH1 0x6 DUP3 MSTORE PUSH6 0x29A4A62B22A9 PUSH1 0xD1 SHL PUSH1 0x20 DUP4 ADD MSTORE JUMP JUMPDEST PUSH1 0x40 MLOAD SWAP1 PUSH2 0x3F2B PUSH1 0x40 DUP4 PUSH2 0x2C2 JUMP JUMPDEST PUSH1 0x6 DUP3 MSTORE PUSH6 0x42524F4E5A45 PUSH1 0xD0 SHL PUSH1 0x20 DUP4 ADD MSTORE JUMP JUMPDEST PUSH1 0x40 MLOAD SWAP1 PUSH2 0x3F4F PUSH1 0x40 DUP4 PUSH2 0x2C2 JUMP JUMPDEST PUSH1 0x8 DUP3 MSTORE PUSH8 0x155394905392D151 PUSH1 0xC2 SHL PUSH1 0x20 DUP4 ADD MSTORE JUMP JUMPDEST PUSH1 0xFF AND PUSH1 0x4 DUP2 EQ PUSH2 0x3FC4 JUMPI PUSH1 0x3 DUP2 EQ PUSH2 0x3FA1 JUMPI PUSH1 0x2 DUP2 EQ PUSH2 0x3F98 JUMPI PUSH1 0x1 EQ PUSH2 0x3F90 JUMPI PUSH2 0x52B PUSH2 0x3F40 JUMP JUMPDEST PUSH2 0x52B PUSH2 0x3F1C JUMP JUMPDEST POP PUSH2 0x52B PUSH2 0x3EF8 JUMP JUMPDEST POP PUSH1 0x40 MLOAD PUSH2 0x3FB0 PUSH1 0x40 DUP3 PUSH2 0x2C2 JUMP JUMPDEST PUSH1 0x4 DUP2 MSTORE PUSH4 0x11D3D311 PUSH1 0xE2 SHL PUSH1 0x20 DUP3 ADD MSTORE SWAP1 JUMP JUMPDEST POP PUSH1 0x40 MLOAD PUSH2 0x3FD3 PUSH1 0x40 DUP3 PUSH2 0x2C2 JUMP JUMPDEST PUSH1 0x6 DUP2 MSTORE PUSH6 0x131151D15391 PUSH1 0xD2 SHL PUSH1 0x20 DUP3 ADD MSTORE SWAP1 JUMP JUMPDEST SWAP1 PUSH1 0x40 MLOAD SWAP1 PUSH2 0x3FF9 PUSH1 0x20 DUP4 PUSH2 0x2C2 JUMP JUMPDEST PUSH0 DUP3 MSTORE PUSH1 0x1 PUSH1 0x1 PUSH1 0xA0 SHL SUB DUP4 AND DUP1 ISZERO PUSH2 0x1B18 JUMPI PUSH0 DUP3 DUP2 MSTORE PUSH1 0x2 PUSH1 0x20 MSTORE PUSH1 0x40 SWAP1 KECCAK256 SLOAD PUSH1 0x1 PUSH1 0x1 PUSH1 0xA0 SHL SUB AND DUP1 ISZERO ISZERO SWAP2 DUP4 SWAP1 DUP4 PUSH2 0x40AA JUMPI JUMPDEST PUSH1 0x1 PUSH1 0x1 PUSH1 0xA0 SHL SUB DUP8 AND PUSH0 SWAP1 DUP2 MSTORE PUSH1 0x3 PUSH1 0x20 MSTORE PUSH1 0x40 SWAP1 KECCAK256 PUSH1 0x1 DUP2 SLOAD ADD SWAP1 SSTORE PUSH2 0x4063 DUP8 PUSH2 0x6EF DUP5 PUSH0 MSTORE PUSH1 0x2 PUSH1 0x20 MSTORE PUSH1 0x40 PUSH0 KECCAK256 SWAP1 JUMP JUMPDEST DUP3 PUSH32 0xDDF252AD1BE2C89B69C2B068FC378DAA952BA7F163C4A11628F55A4DF523B3EF PUSH0 DUP1 LOG4 POP PUSH2 0x4097 JUMPI PUSH2 0xBB5 SWAP3 CALLER PUSH2 0x3D6D JUMP JUMPDEST PUSH4 0x39E35637 PUSH1 0xE1 SHL PUSH0 MSTORE PUSH0 PUSH1 0x4 MSTORE PUSH1 0x24 PUSH0 REVERT JUMPDEST PUSH2 0x40B3 DUP3 PUSH2 0x40D6 JUMP JUMPDEST PUSH1 0x1 PUSH1 0x1 PUSH1 0xA0 SHL SUB DUP4 AND PUSH0 SWAP1 DUP2 MSTORE PUSH1 0x3 PUSH1 0x20 MSTORE PUSH1 0x40 SWAP1 KECCAK256 DUP1 SLOAD PUSH0 NOT ADD SWAP1 SSTORE PUSH2 0x402F JUMP JUMPDEST PUSH2 0x40E8 SWAP1 PUSH0 MSTORE PUSH1 0x4 PUSH1 0x20 MSTORE PUSH1 0x40 PUSH0 KECCAK256 SWAP1 JUMP JUMPDEST DUP1 SLOAD PUSH1 0x1 PUSH1 0x1 PUSH1 0xA0 SHL SUB NOT AND SWAP1 SSTORE JUMP JUMPDEST SWAP1 SWAP2 SWAP1 PUSH2 0x4116 PUSH1 0x1 PUSH1 0x1 PUSH1 0xA0 SHL SUB DUP5 AND DUP1 ISZERO ISZERO SWAP1 DUP2 PUSH2 0x415E JUMPI POP ISZERO SWAP1 JUMP JUMPDEST PUSH2 0x411F JUMPI POP POP POP JUMP JUMPDEST PUSH1 0x1 PUSH1 0x1 PUSH1 0xA0 SHL SUB AND PUSH2 0x413E JUMPI PUSH4 0x7E273289 PUSH1 0xE0 SHL PUSH0 MSTORE PUSH1 0x4 MSTORE PUSH1 0x24 PUSH0 REVERT JUMPDEST PUSH4 0x177E802F PUSH1 0xE0 SHL PUSH0 MSTORE PUSH1 0x1 PUSH1 0x1 PUSH1 0xA0 SHL SUB SWAP1 SWAP2 AND PUSH1 0x4 MSTORE PUSH1 0x24 MSTORE PUSH1 0x44 PUSH0 REVERT JUMPDEST PUSH1 0x1 PUSH1 0x1 PUSH1 0xA0 SHL SUB DUP5 AND DUP1 DUP3 EQ SWAP3 POP DUP3 ISZERO PUSH2 0x419E JUMPI JUMPDEST POP DUP2 ISZERO PUSH2 0x4180 JUMPI POP ISZERO SWAP1 JUMP JUMPDEST PUSH0 DUP6 DUP2 MSTORE PUSH1 0x4 PUSH1 0x20 MSTORE PUSH1 0x40 SWAP1 KECCAK256 SLOAD PUSH1 0x1 PUSH1 0x1 PUSH1 0xA0 SHL SUB AND EQ ISZERO SWAP2 SWAP1 POP JUMP JUMPDEST SWAP1 SWAP2 POP PUSH0 MSTORE PUSH1 0x5 PUSH1 0x20 MSTORE PUSH1 0xFF PUSH2 0x41C7 DUP7 PUSH1 0x40 PUSH0 KECCAK256 SWAP1 PUSH1 0x1 DUP1 PUSH1 0xA0 SHL SUB AND PUSH0 MSTORE PUSH1 0x20 MSTORE PUSH1 0x40 PUSH0 KECCAK256 SWAP1 JUMP JUMPDEST SLOAD AND SWAP1 PUSH0 PUSH2 0x4174 JUMP JUMPDEST DUP2 MLOAD ISZERO PUSH2 0x41DD JUMPI PUSH1 0xA0 ADD MSTORE JUMP JUMPDEST PUSH4 0xFE936CB7 PUSH1 0xE0 SHL PUSH0 MSTORE PUSH1 0x4 PUSH0 REVERT JUMPDEST PUSH1 0x40 MLOAD SWAP1 PUSH2 0x41FB PUSH1 0x40 DUP4 PUSH2 0x2C2 JUMP JUMPDEST PUSH1 0xC DUP3 MSTORE PUSH12 0x31B7B232A637B1B0BA34B7B7 PUSH1 0xA1 SHL PUSH1 0x20 DUP4 ADD MSTORE JUMP JUMPDEST PUSH4 0x4E487B71 PUSH1 0xE0 SHL PUSH0 MSTORE PUSH1 0x21 PUSH1 0x4 MSTORE PUSH1 0x24 PUSH0 REVERT JUMPDEST PUSH1 0x3 GT ISZERO PUSH2 0x4234 JUMPI JUMP JUMPDEST PUSH2 0x4216 JUMP JUMPDEST PUSH1 0x40 MLOAD SWAP1 PUSH2 0x4248 PUSH1 0x40 DUP4 PUSH2 0x2C2 JUMP JUMPDEST PUSH1 0x8 DUP3 MSTORE PUSH8 0x6C616E6775616765 PUSH1 0xC0 SHL PUSH1 0x20 DUP4 ADD MSTORE JUMP JUMPDEST PUSH1 0x1 GT ISZERO PUSH2 0x4234 JUMPI JUMP JUMPDEST PUSH1 0x40 MLOAD SWAP1 PUSH2 0x4278 PUSH1 0x40 DUP4 PUSH2 0x2C2 JUMP JUMPDEST PUSH1 0x6 DUP3 MSTORE PUSH6 0x736F75726365 PUSH1 0xD0 SHL PUSH1 0x20 DUP4 ADD MSTORE JUMP JUMPDEST PUSH1 0x40 MLOAD SWAP1 PUSH2 0x429C PUSH1 0x40 DUP4 PUSH2 0x2C2 JUMP JUMPDEST PUSH1 0x4 DUP3 MSTORE PUSH4 0x61726773 PUSH1 0xE0 SHL PUSH1 0x20 DUP4 ADD MSTORE JUMP JUMPDEST PUSH1 0x40 MLOAD SWAP1 PUSH2 0x42BE PUSH1 0x40 DUP4 PUSH2 0x2C2 JUMP JUMPDEST PUSH1 0xF DUP3 MSTORE PUSH15 0x39B2B1B932BA39A637B1B0BA34B7B7 PUSH1 0x89 SHL PUSH1 0x20 DUP4 ADD MSTORE JUMP JUMPDEST PUSH1 0x40 MLOAD SWAP1 PUSH2 0x42EB PUSH1 0x40 DUP4 PUSH2 0x2C2 JUMP JUMPDEST PUSH1 0x7 DUP3 MSTORE PUSH7 0x73656372657473 PUSH1 0xC8 SHL PUSH1 0x20 DUP4 ADD MSTORE JUMP JUMPDEST PUSH1 0x40 MLOAD SWAP1 PUSH2 0x4310 PUSH1 0x40 DUP4 PUSH2 0x2C2 JUMP JUMPDEST PUSH1 0x9 DUP3 MSTORE PUSH9 0x627974657341726773 PUSH1 0xB8 SHL PUSH1 0x20 DUP4 ADD MSTORE JUMP JUMPDEST PUSH2 0x4330 PUSH2 0x4CFE JUMP JUMPDEST SWAP1 PUSH2 0x4342 PUSH2 0x433C PUSH2 0x41EC JUMP JUMPDEST DUP4 PUSH2 0x4D2E JUMP JUMPDEST PUSH2 0x435F DUP2 MLOAD PUSH2 0x4350 DUP2 PUSH2 0x422A JUMP JUMPDEST PUSH2 0x4359 DUP2 PUSH2 0x422A JUMP JUMPDEST DUP4 PUSH2 0x4E17 JUMP JUMPDEST PUSH2 0x436A PUSH2 0x433C PUSH2 0x4239 JUMP JUMPDEST PUSH2 0x4384 PUSH1 0x40 DUP3 ADD MLOAD PUSH2 0x437B DUP2 PUSH2 0x425F JUMP JUMPDEST PUSH2 0x4359 DUP2 PUSH2 0x425F JUMP JUMPDEST PUSH2 0x438F PUSH2 0x433C PUSH2 0x4269 JUMP JUMPDEST PUSH2 0x439D PUSH1 0x60 DUP3 ADD MLOAD DUP4 PUSH2 0x4D2E JUMP JUMPDEST PUSH1 0xA0 DUP2 ADD DUP1 MLOAD MLOAD PUSH2 0x4499 JUMPI JUMPDEST POP PUSH1 0x80 DUP2 ADD SWAP1 DUP2 MLOAD MLOAD PUSH2 0x441C JUMPI JUMPDEST PUSH1 0xC0 SWAP2 POP ADD DUP1 MLOAD MLOAD PUSH2 0x43CA JUMPI JUMPDEST POP MLOAD MLOAD SWAP1 JUMP JUMPDEST SWAP2 PUSH2 0x43D6 PUSH2 0x433C PUSH2 0x4301 JUMP JUMPDEST PUSH2 0x43DF DUP3 PUSH2 0x4E44 JUMP JUMPDEST PUSH0 JUMPDEST DUP4 MLOAD DUP1 MLOAD DUP3 LT ISZERO PUSH2 0x4409 JUMPI SWAP1 PUSH2 0x4403 PUSH2 0x43FC DUP3 PUSH1 0x1 SWAP5 PUSH2 0x25DC JUMP JUMPDEST MLOAD DUP6 PUSH2 0x4E88 JUMP JUMPDEST ADD PUSH2 0x43E1 JUMP JUMPDEST POP POP SWAP2 POP PUSH2 0x4416 DUP2 PUSH2 0x4E66 JUMP JUMPDEST PUSH0 PUSH2 0x43C4 JUMP JUMPDEST PUSH1 0x20 DUP2 ADD DUP1 MLOAD PUSH2 0x442B DUP2 PUSH2 0x422A JUMP JUMPDEST PUSH2 0x4434 DUP2 PUSH2 0x422A JUMP JUMPDEST ISZERO PUSH2 0x448A JUMPI PUSH1 0xC0 SWAP3 PUSH2 0x446D PUSH2 0x4485 SWAP3 PUSH2 0x4454 PUSH2 0x444E PUSH2 0x42AF JUMP JUMPDEST DUP9 PUSH2 0x4D2E JUMP JUMPDEST MLOAD PUSH2 0x445E DUP2 PUSH2 0x422A JUMP JUMPDEST PUSH2 0x4467 DUP2 PUSH2 0x422A JUMP JUMPDEST DUP7 PUSH2 0x4E17 JUMP JUMPDEST PUSH2 0x447E PUSH2 0x4478 PUSH2 0x42DC JUMP JUMPDEST DUP7 PUSH2 0x4D2E JUMP JUMPDEST MLOAD DUP5 PUSH2 0x4E88 JUMP JUMPDEST PUSH2 0x43B7 JUMP JUMPDEST PUSH4 0xA80D31F7 PUSH1 0xE0 SHL PUSH0 MSTORE PUSH1 0x4 PUSH0 REVERT JUMPDEST SWAP3 PUSH2 0x44AB PUSH2 0x44A5 PUSH2 0x428D JUMP JUMPDEST DUP5 PUSH2 0x4D2E JUMP JUMPDEST PUSH2 0x44B4 DUP4 PUSH2 0x4E44 JUMP JUMPDEST PUSH0 JUMPDEST DUP5 MLOAD DUP1 MLOAD DUP3 LT ISZERO PUSH2 0x44DE JUMPI SWAP1 PUSH2 0x44D8 PUSH2 0x44D1 DUP3 PUSH1 0x1 SWAP5 PUSH2 0x25DC JUMP JUMPDEST MLOAD DUP7 PUSH2 0x4D2E JUMP JUMPDEST ADD PUSH2 0x44B6 JUMP JUMPDEST POP POP SWAP3 POP PUSH2 0x44EB DUP3 PUSH2 0x4E66 JUMP JUMPDEST PUSH0 PUSH2 0x43A9 JUMP JUMPDEST SWAP2 PUSH1 0x20 SWAP2 PUSH1 0x1 PUSH1 0x1 PUSH1 0x40 SHL SUB SWAP2 PUSH2 0x452A PUSH1 0x40 MLOAD SWAP6 DUP7 SWAP5 DUP6 SWAP5 PUSH4 0x230E93B1 PUSH1 0xE1 SHL DUP7 MSTORE AND PUSH1 0x4 DUP6 ADD MSTORE PUSH1 0xA0 PUSH1 0x24 DUP6 ADD MSTORE PUSH1 0xA4 DUP5 ADD SWAP1 PUSH2 0x4F6 JUMP JUMPDEST PUSH1 0x1 PUSH1 0x44 DUP5 ADD MSTORE PUSH3 0x493E0 PUSH1 0x64 DUP5 ADD MSTORE PUSH1 0x84 DUP4 ADD SWAP2 SWAP1 SWAP2 MSTORE SUB DUP2 PUSH0 PUSH32 0x0 PUSH1 0x1 PUSH1 0x1 PUSH1 0xA0 SHL SUB AND GAS CALL SWAP1 DUP2 ISZERO PUSH2 0x45D7 JUMPI PUSH0 SWAP2 PUSH2 0x45A8 JUMPI JUMPDEST POP DUP1 PUSH32 0x1131472297A800FEE664D1D89CFA8F7676FF07189ECC53F80BBB5F4969099DB8 PUSH0 DUP1 LOG2 SWAP1 JUMP JUMPDEST PUSH2 0x45CA SWAP2 POP PUSH1 0x20 RETURNDATASIZE PUSH1 0x20 GT PUSH2 0x45D0 JUMPI JUMPDEST PUSH2 0x45C2 DUP2 DUP4 PUSH2 0x2C2 JUMP JUMPDEST DUP2 ADD SWAP1 PUSH2 0x256D JUMP JUMPDEST PUSH0 PUSH2 0x457F JUMP JUMPDEST POP RETURNDATASIZE PUSH2 0x45B8 JUMP JUMPDEST PUSH2 0x3D33 JUMP JUMPDEST SWAP5 SWAP4 SWAP1 PUSH1 0x1 PUSH1 0x1 PUSH1 0x40 SHL SUB SWAP1 SWAP7 SWAP4 SWAP3 SWAP7 AND PUSH2 0x45F6 SWAP1 PUSH2 0x2714 JUMP JUMPDEST SWAP6 PUSH1 0x1 PUSH1 0x1 PUSH1 0x40 SHL SUB AND PUSH2 0x4609 SWAP1 PUSH2 0x2714 JUMP JUMPDEST SWAP2 PUSH1 0x1 PUSH1 0x1 PUSH1 0x40 SHL SUB AND PUSH2 0x461C SWAP1 PUSH2 0x2714 JUMP JUMPDEST SWAP1 PUSH1 0x1 PUSH1 0x1 PUSH1 0x40 SHL SUB AND PUSH2 0x462F SWAP1 PUSH2 0x2714 JUMP JUMPDEST SWAP2 PUSH1 0x40 MLOAD SWAP7 DUP8 SWAP7 PUSH1 0x20 DUP9 ADD PUSH2 0x4663 SWAP1 PUSH32 0x3C7465787420783D222D33302220793D22393222202066696C6C3D2200000000 SWAP1 MSTORE JUMP JUMPDEST PUSH2 0x4670 PUSH1 0x3C DUP10 ADD DUP8 PUSH2 0x1C5B JUMP JUMPDEST PUSH0 MLOAD PUSH1 0x20 PUSH2 0x5408 PUSH0 CODECOPY PUSH0 MLOAD SWAP1 PUSH0 MSTORE DUP2 MSTORE PUSH32 0x6E6F7370616365223E4C414E452020203A3C2F746578743E0000000000000000 PUSH1 0x20 DUP3 ADD MSTORE PUSH1 0x38 ADD PUSH32 0x3C7465787420783D223132302220793D22393222202066696C6C3D2223656366 DUP2 MSTORE PUSH0 MLOAD PUSH1 0x20 PUSH2 0x53E8 PUSH0 CODECOPY PUSH0 MLOAD SWAP1 PUSH0 MSTORE PUSH1 0x20 DUP3 ADD MSTORE PUSH0 MLOAD PUSH1 0x20 PUSH2 0x53C8 PUSH0 CODECOPY PUSH0 MLOAD SWAP1 PUSH0 MSTORE PUSH1 0x40 DUP3 ADD MSTORE PUSH1 0x5E ADD PUSH2 0x46FE SWAP2 PUSH2 0x1C5B JUMP JUMPDEST PUSH7 0x1E17BA32BC3A1F PUSH1 0xC9 SHL DUP2 MSTORE PUSH32 0x3C7465787420783D222D33302220793D22313136222066696C6C3D2200000000 PUSH1 0x7 DUP3 ADD MSTORE PUSH1 0x23 ADD PUSH2 0x473E SWAP1 DUP7 PUSH2 0x1C5B JUMP JUMPDEST PUSH0 MLOAD PUSH1 0x20 PUSH2 0x5408 PUSH0 CODECOPY PUSH0 MLOAD SWAP1 PUSH0 MSTORE DUP2 MSTORE PUSH32 0x6E6F7370616365223E47414D455320203A3C2F746578743E0000000000000000 PUSH1 0x20 DUP3 ADD MSTORE PUSH1 0x38 ADD PUSH32 0x3C7465787420783D223132302220793D22313136222066696C6C3D2223656366 DUP2 MSTORE PUSH0 MLOAD PUSH1 0x20 PUSH2 0x53E8 PUSH0 CODECOPY PUSH0 MLOAD SWAP1 PUSH0 MSTORE PUSH1 0x20 DUP3 ADD MSTORE PUSH0 MLOAD PUSH1 0x20 PUSH2 0x53C8 PUSH0 CODECOPY PUSH0 MLOAD SWAP1 PUSH0 MSTORE PUSH1 0x40 DUP3 ADD MSTORE PUSH1 0x5E ADD PUSH2 0x47CC SWAP2 PUSH2 0x1C5B JUMP JUMPDEST PUSH7 0x1E17BA32BC3A1F PUSH1 0xC9 SHL DUP2 MSTORE PUSH32 0x3C7465787420783D222D33302220793D22313430222066696C6C3D2200000000 PUSH1 0x7 DUP3 ADD MSTORE PUSH1 0x23 ADD PUSH2 0x480C SWAP1 DUP6 PUSH2 0x1C5B JUMP JUMPDEST PUSH0 MLOAD PUSH1 0x20 PUSH2 0x5408 PUSH0 CODECOPY PUSH0 MLOAD SWAP1 PUSH0 MSTORE DUP2 MSTORE PUSH32 0x6E6F7370616365223E4B494C4C5320203A3C2F746578743E0000000000000000 PUSH1 0x20 DUP3 ADD MSTORE PUSH1 0x38 ADD PUSH32 0x3C7465787420783D223132302220793D22313430222066696C6C3D2223656366 DUP2 MSTORE PUSH0 MLOAD PUSH1 0x20 PUSH2 0x53E8 PUSH0 CODECOPY PUSH0 MLOAD SWAP1 PUSH0 MSTORE PUSH1 0x20 DUP3 ADD MSTORE PUSH0 MLOAD PUSH1 0x20 PUSH2 0x53C8 PUSH0 CODECOPY PUSH0 MLOAD SWAP1 PUSH0 MSTORE PUSH1 0x40 DUP3 ADD MSTORE PUSH1 0x5E ADD PUSH2 0x489A SWAP2 PUSH2 0x1C5B JUMP JUMPDEST PUSH7 0x1E17BA32BC3A1F PUSH1 0xC9 SHL DUP2 MSTORE PUSH32 0x3C7465787420783D222D33302220793D22313634222066696C6C3D2200000000 PUSH1 0x7 DUP3 ADD MSTORE PUSH1 0x23 ADD PUSH2 0x48DA SWAP1 DUP5 PUSH2 0x1C5B JUMP JUMPDEST PUSH0 MLOAD PUSH1 0x20 PUSH2 0x5408 PUSH0 CODECOPY PUSH0 MLOAD SWAP1 PUSH0 MSTORE DUP2 MSTORE PUSH32 0x6E6F7370616365223E444541544853203A3C2F746578743E0000000000000000 PUSH1 0x20 DUP3 ADD MSTORE PUSH1 0x38 ADD PUSH32 0x3C7465787420783D223132302220793D22313634222066696C6C3D2223656366 DUP2 MSTORE PUSH0 MLOAD PUSH1 0x20 PUSH2 0x53E8 PUSH0 CODECOPY PUSH0 MLOAD SWAP1 PUSH0 MSTORE PUSH1 0x20 DUP3 ADD MSTORE PUSH0 MLOAD PUSH1 0x20 PUSH2 0x53C8 PUSH0 CODECOPY PUSH0 MLOAD SWAP1 PUSH0 MSTORE PUSH1 0x40 DUP3 ADD MSTORE PUSH1 0x5E ADD PUSH2 0x4968 SWAP2 PUSH2 0x1C5B JUMP JUMPDEST PUSH7 0x1E17BA32BC3A1F PUSH1 0xC9 SHL DUP2 MSTORE PUSH32 0x3C7465787420783D222D33302220793D22313838222066696C6C3D2200000000 PUSH1 0x7 DUP3 ADD MSTORE PUSH1 0x23 ADD PUSH2 0x49A8 SWAP1 DUP4 PUSH2 0x1C5B JUMP JUMPDEST PUSH0 MLOAD PUSH1 0x20 PUSH2 0x5408 PUSH0 CODECOPY PUSH0 MLOAD SWAP1 PUSH0 MSTORE DUP2 MSTORE PUSH32 0x6E6F7370616365223E415353495354533A3C2F746578743E0000000000000000 PUSH1 0x20 DUP3 ADD MSTORE PUSH1 0x38 ADD PUSH32 0x3C7465787420783D223132302220793D22313838222066696C6C3D2223656366 DUP2 MSTORE PUSH0 MLOAD PUSH1 0x20 PUSH2 0x53E8 PUSH0 CODECOPY PUSH0 MLOAD SWAP1 PUSH0 MSTORE PUSH1 0x20 DUP3 ADD MSTORE PUSH0 MLOAD PUSH1 0x20 PUSH2 0x53C8 PUSH0 CODECOPY PUSH0 MLOAD SWAP1 PUSH0 MSTORE PUSH1 0x40 DUP3 ADD MSTORE PUSH1 0x5E ADD PUSH2 0x4A36 SWAP2 PUSH2 0x1C5B JUMP JUMPDEST PUSH7 0x1E17BA32BC3A1F PUSH1 0xC9 SHL DUP2 MSTORE PUSH32 0x3C7465787420783D222D33302220793D22323132222066696C6C3D2200000000 PUSH1 0x7 DUP3 ADD MSTORE PUSH1 0x23 ADD PUSH2 0x4A75 SWAP2 PUSH2 0x1C5B JUMP JUMPDEST PUSH0 MLOAD PUSH1 0x20 PUSH2 0x5408 PUSH0 CODECOPY PUSH0 MLOAD SWAP1 PUSH0 MSTORE DUP2 MSTORE PUSH32 0x6E6F7370616365223E4B4441202020203A3C2F746578743E0000000000000000 PUSH1 0x20 DUP3 ADD MSTORE PUSH1 0x38 ADD PUSH32 0x3C7465787420783D223132302220793D22323132222066696C6C3D2223656366 DUP2 MSTORE PUSH0 MLOAD PUSH1 0x20 PUSH2 0x53E8 PUSH0 CODECOPY PUSH0 MLOAD SWAP1 PUSH0 MSTORE PUSH1 0x20 DUP3 ADD MSTORE PUSH0 MLOAD PUSH1 0x20 PUSH2 0x53C8 PUSH0 CODECOPY PUSH0 MLOAD SWAP1 PUSH0 MSTORE PUSH1 0x40 DUP3 ADD MSTORE PUSH1 0x5E ADD PUSH2 0x4B03 SWAP2 PUSH2 0x1C5B JUMP JUMPDEST PUSH7 0x1E17BA32BC3A1F PUSH1 0xC9 SHL DUP2 MSTORE PUSH32 0x3C6C696E652078313D222D3330222079313D22323238222078323D2231323022 PUSH1 0x7 DUP3 ADD MSTORE PUSH32 0x2079323D2232323822207374726F6B653D222335353522207374726F6B652D77 PUSH1 0x27 DUP3 ADD MSTORE PUSH32 0x696474683D223322207374726F6B652D6461736861727261793D22382C36222F PUSH1 0x47 DUP3 ADD MSTORE PUSH1 0x1F PUSH1 0xF9 SHL PUSH1 0x67 DUP3 ADD MSTORE PUSH1 0x68 ADD SUB PUSH1 0x1F NOT DUP2 ADD DUP3 MSTORE PUSH2 0x52B SWAP1 DUP3 PUSH2 0x2C2 JUMP JUMPDEST SWAP1 DUP2 MLOAD ISZERO PUSH2 0x4CB6 JUMPI PUSH2 0x4BC5 PUSH2 0x4BC0 PUSH2 0x4BB9 DUP5 MLOAD PUSH2 0x1BD0 JUMP JUMPDEST PUSH1 0x3 SWAP1 DIV SWAP1 JUMP JUMPDEST PUSH2 0x1C0F JUMP JUMPDEST SWAP1 PUSH1 0x40 MLOAD SWAP2 PUSH32 0x4142434445464748494A4B4C4D4E4F505152535455565758595A616263646566 PUSH1 0x1F MSTORE PUSH32 0x6768696A6B6C6D6E6F707172737475767778797A303132333435363738392B2F PUSH1 0x3F MSTORE PUSH1 0x20 DUP4 ADD DUP5 DUP1 MLOAD DUP2 ADD PUSH1 0x20 DUP2 ADD DUP1 MLOAD SWAP2 PUSH0 DUP3 MSTORE JUMPDEST DUP1 DUP10 LT PUSH2 0x4C7A JUMPI POP PUSH1 0x20 SWAP6 SWAP7 SWAP8 POP SWAP1 PUSH1 0x3 SWAP3 SWAP2 MSTORE MLOAD MOD DUP1 PUSH1 0x1 EQ PUSH2 0x4C65 JUMPI PUSH1 0x2 EQ PUSH2 0x4C58 JUMPI JUMPDEST POP DUP1 DUP5 MSTORE DUP4 ADD ADD PUSH1 0x40 MSTORE JUMP JUMPDEST PUSH1 0x3D SWAP1 PUSH0 NOT ADD MSTORE8 PUSH0 PUSH2 0x4C4C JUMP JUMPDEST POP PUSH1 0x3D SWAP1 DUP2 PUSH0 NOT DUP3 ADD MSTORE8 PUSH1 0x1 NOT ADD MSTORE8 PUSH0 PUSH2 0x4C4C JUMP JUMPDEST SWAP4 SWAP8 PUSH1 0x3 PUSH1 0x4 SWAP2 ADD SWAP9 PUSH1 0x3F DUP11 MLOAD DUP2 DUP2 PUSH1 0x12 SHR AND MLOAD DUP4 MSTORE8 DUP2 DUP2 PUSH1 0xC SHR AND MLOAD PUSH1 0x1 DUP5 ADD MSTORE8 DUP2 DUP2 PUSH1 0x6 SHR AND MLOAD PUSH1 0x2 DUP5 ADD MSTORE8 AND MLOAD PUSH1 0x3 DUP3 ADD MSTORE8 ADD SWAP4 PUSH2 0x4C26 JUMP JUMPDEST SWAP1 POP PUSH2 0x52B PUSH2 0x1B2B JUMP JUMPDEST DUP2 MLOAD ISZERO PUSH2 0x4CD6 JUMPI PUSH0 DUP1 DUP3 MSTORE PUSH1 0x40 DUP3 ADD MSTORE PUSH1 0x60 ADD MSTORE JUMP JUMPDEST PUSH4 0x22CE3EDD PUSH1 0xE0 SHL PUSH0 MSTORE PUSH1 0x4 PUSH0 REVERT JUMPDEST PUSH1 0x40 MLOAD SWAP1 PUSH2 0x4CF2 DUP3 PUSH2 0x2A7 JUMP JUMPDEST PUSH0 PUSH1 0x20 DUP4 PUSH1 0x60 DUP2 MSTORE ADD MSTORE JUMP JUMPDEST PUSH1 0x40 MLOAD PUSH2 0x4D0A DUP2 PUSH2 0x2A7 JUMP JUMPDEST PUSH0 PUSH2 0x4D13 PUSH2 0x4CE5 JUMP JUMPDEST DUP1 DUP4 MSTORE PUSH2 0x4D29 PUSH2 0x100 PUSH1 0x20 DUP6 ADD SWAP3 DUP5 DUP5 MSTORE PUSH2 0x4F21 JUMP JUMPDEST POP MSTORE SWAP1 JUMP JUMPDEST DUP2 MLOAD PUSH2 0x4D7F SWAP3 SWAP2 SWAP1 PUSH1 0x1 PUSH1 0x1 PUSH1 0x40 SHL SUB AND PUSH1 0x17 DUP2 GT PUSH2 0x4D82 JUMPI DUP2 MLOAD PUSH2 0x4D6A SWAP2 PUSH2 0x4D64 SWAP1 PUSH2 0x4D5D PUSH1 0x60 JUMPDEST PUSH1 0xFF AND SWAP1 JUMP JUMPDEST OR PUSH1 0xFF AND SWAP1 JUMP JUMPDEST SWAP1 PUSH2 0x50A1 JUMP JUMPDEST POP JUMPDEST MLOAD SWAP1 PUSH2 0x4D76 PUSH2 0x4CE5 JUMP JUMPDEST POP DUP1 MLOAD SWAP2 PUSH2 0x530B JUMP JUMPDEST POP JUMP JUMPDEST PUSH1 0xFF DUP2 GT PUSH2 0x4DAF JUMPI DUP2 MLOAD PUSH2 0x4DA9 SWAP2 SWAP1 PUSH2 0x4DA1 SWAP1 PUSH1 0x18 PUSH1 0x60 JUMPDEST OR SWAP1 PUSH2 0x50A1 JUMP JUMPDEST POP DUP3 MLOAD PUSH2 0x528B JUMP JUMPDEST POP PUSH2 0x4D6C JUMP JUMPDEST PUSH2 0xFFFF DUP2 GT PUSH2 0x4DD4 JUMPI DUP2 MLOAD PUSH2 0x4DA9 SWAP2 SWAP1 PUSH2 0x4DCC SWAP1 PUSH1 0x19 PUSH1 0x60 PUSH2 0x4D9A JUMP JUMPDEST POP DUP3 MLOAD PUSH2 0x5212 JUMP JUMPDEST PUSH4 0xFFFFFFFF DUP2 GT PUSH2 0x4DFB JUMPI DUP2 MLOAD PUSH2 0x4DA9 SWAP2 SWAP1 PUSH2 0x4DF3 SWAP1 PUSH1 0x1A PUSH1 0x60 PUSH2 0x4D9A JUMP JUMPDEST POP DUP3 MLOAD PUSH2 0x5199 JUMP JUMPDEST DUP2 MLOAD PUSH2 0x4DA9 SWAP2 SWAP1 PUSH2 0x4E0F SWAP1 PUSH1 0x1B PUSH1 0x60 PUSH2 0x4D9A JUMP JUMPDEST POP DUP3 MLOAD PUSH2 0x511B JUMP JUMPDEST SWAP1 PUSH2 0xBB5 SWAP2 PUSH2 0x4E26 DUP2 MLOAD PUSH2 0x5031 JUMP JUMPDEST POP PUSH1 0x40 MLOAD SWAP2 PUSH1 0x20 DUP4 ADD MSTORE PUSH1 0x20 DUP3 MSTORE PUSH2 0x4E3F PUSH1 0x40 DUP4 PUSH2 0x2C2 JUMP JUMPDEST PUSH2 0x4E88 JUMP JUMPDEST PUSH1 0x20 SWAP1 PUSH2 0x4E53 PUSH1 0x9F DUP3 MLOAD PUSH2 0x50A1 JUMP JUMPDEST POP ADD DUP1 MLOAD SWAP1 PUSH1 0x1 DUP3 ADD DUP1 SWAP3 GT PUSH2 0xF7D JUMPI MSTORE JUMP JUMPDEST PUSH1 0x20 SWAP1 PUSH2 0x4E75 PUSH1 0xFF DUP3 MLOAD PUSH2 0x50A1 JUMP JUMPDEST POP ADD DUP1 MLOAD PUSH0 NOT DUP2 ADD SWAP2 SWAP1 DUP3 GT PUSH2 0xF7D JUMPI MSTORE JUMP JUMPDEST DUP2 MLOAD PUSH2 0x4D7F SWAP3 SWAP2 SWAP1 PUSH1 0x1 PUSH1 0x1 PUSH1 0x40 SHL SUB AND PUSH1 0x17 DUP2 GT PUSH2 0x4EB5 JUMPI DUP2 MLOAD PUSH2 0x4D6A SWAP2 PUSH2 0x4D64 SWAP1 PUSH2 0x4D5D PUSH1 0x40 PUSH2 0x4D57 JUMP JUMPDEST PUSH1 0xFF DUP2 GT PUSH2 0x4ED1 JUMPI DUP2 MLOAD PUSH2 0x4DA9 SWAP2 SWAP1 PUSH2 0x4DA1 SWAP1 PUSH1 0x18 PUSH1 0x40 PUSH2 0x4D9A JUMP JUMPDEST PUSH2 0xFFFF DUP2 GT PUSH2 0x4EEE JUMPI DUP2 MLOAD PUSH2 0x4DA9 SWAP2 SWAP1 PUSH2 0x4DCC SWAP1 PUSH1 0x19 PUSH1 0x40 PUSH2 0x4D9A JUMP JUMPDEST PUSH4 0xFFFFFFFF DUP2 GT PUSH2 0x4F0D JUMPI DUP2 MLOAD PUSH2 0x4DA9 SWAP2 SWAP1 PUSH2 0x4DF3 SWAP1 PUSH1 0x1A PUSH1 0x40 PUSH2 0x4D9A JUMP JUMPDEST DUP2 MLOAD PUSH2 0x4DA9 SWAP2 SWAP1 PUSH2 0x4E0F SWAP1 PUSH1 0x1B PUSH1 0x40 PUSH2 0x4D9A JUMP JUMPDEST SWAP1 PUSH2 0x4F2A PUSH2 0x4CE5 JUMP JUMPDEST POP PUSH1 0x1F DUP2 AND DUP1 PUSH2 0x4F58 JUMPI JUMPDEST POP DUP1 PUSH1 0x20 DUP4 ADD MSTORE PUSH1 0x40 MLOAD SWAP1 DUP2 DUP4 MSTORE PUSH0 DUP3 MSTORE DUP2 ADD PUSH1 0x20 ADD SWAP1 DUP2 LT PUSH2 0x342 JUMPI PUSH1 0x40 MSTORE SWAP1 JUMP JUMPDEST PUSH1 0x20 SUB PUSH1 0x20 DUP2 GT PUSH2 0xF7D JUMPI DUP2 ADD DUP1 SWAP2 GT PUSH2 0xF7D JUMPI PUSH0 PUSH2 0x4F35 JUMP JUMPDEST SWAP1 PUSH2 0x4F7B PUSH2 0x4CE5 JUMP JUMPDEST POP DUP1 MLOAD PUSH2 0x4F86 PUSH2 0x4CE5 JUMP JUMPDEST POP PUSH2 0x4F94 DUP3 MLOAD DUP3 GT ISZERO PUSH2 0x5304 JUMP JUMPDEST DUP3 MLOAD MLOAD SWAP2 PUSH2 0x4FA2 DUP3 DUP5 PUSH2 0x1BEC JUMP JUMPDEST SWAP1 PUSH1 0x20 DUP6 ADD MLOAD DUP3 GT PUSH2 0x501A JUMPI JUMPDEST PUSH1 0x20 SWAP2 DUP6 MLOAD DUP4 DUP2 MLOAD SWAP7 DUP3 ADD ADD SWAP6 DUP3 GT PUSH2 0x5012 JUMPI JUMPDEST POP POP ADD SWAP1 JUMPDEST PUSH1 0x20 DUP2 LT ISZERO PUSH2 0x4FEC JUMPI PUSH0 NOT SWAP1 PUSH1 0x20 SUB PUSH2 0x100 EXP ADD SWAP1 DUP2 NOT SWAP1 MLOAD AND SWAP1 DUP3 MLOAD AND OR SWAP1 MSTORE SWAP1 JUMP JUMPDEST SWAP1 SWAP2 PUSH2 0x5007 PUSH2 0x5001 PUSH2 0x500D SWAP3 DUP6 MLOAD DUP2 MSTORE PUSH2 0x1BDE JUMP JUMPDEST SWAP4 PUSH2 0x1BDE JUMP JUMPDEST SWAP2 PUSH2 0x1B53 JUMP JUMPDEST PUSH2 0x4FC8 JUMP JUMPDEST MSTORE PUSH0 DUP1 PUSH2 0x4FC3 JUMP JUMPDEST PUSH2 0x502C PUSH2 0x5026 DUP4 PUSH2 0x1C27 JUMP JUMPDEST DUP7 PUSH2 0x53B0 JUMP JUMPDEST PUSH2 0x4FAF JUMP JUMPDEST PUSH2 0x5039 PUSH2 0x4CE5 JUMP JUMPDEST POP DUP1 MLOAD MLOAD PUSH1 0x1 DUP2 ADD SWAP1 DUP2 DUP2 GT PUSH2 0xF7D JUMPI PUSH1 0x20 DUP4 ADD MLOAD DUP2 LT ISZERO PUSH2 0x5072 JUMPI JUMPDEST PUSH1 0xC2 PUSH1 0x20 DUP5 MLOAD SWAP3 DUP4 ADD ADD MSTORE8 DUP1 MLOAD DUP3 GT PUSH2 0x506E JUMPI POP POP SWAP1 JUMP JUMPDEST MSTORE SWAP1 JUMP JUMPDEST DUP2 PUSH1 0x1 SHL DUP3 DUP2 DIV PUSH1 0x2 EQ DUP4 ISZERO OR ISZERO PUSH2 0xF7D JUMPI PUSH2 0x509B SWAP1 PUSH2 0x5094 DUP6 MLOAD SWAP2 DUP7 PUSH2 0x4F21 JUMP JUMPDEST POP DUP5 PUSH2 0x4F72 JUMP JUMPDEST POP PUSH2 0x5056 JUMP JUMPDEST SWAP1 PUSH2 0x50AA PUSH2 0x4CE5 JUMP JUMPDEST POP DUP2 MLOAD MLOAD PUSH1 0x1 DUP2 ADD SWAP2 DUP3 DUP3 GT PUSH2 0xF7D JUMPI PUSH1 0x20 DUP5 ADD MLOAD DUP3 LT ISZERO PUSH2 0x50DD JUMPI JUMPDEST PUSH1 0x20 DUP5 MLOAD SWAP3 DUP4 ADD ADD MSTORE8 DUP1 MLOAD DUP3 GT PUSH2 0x506E JUMPI POP POP SWAP1 JUMP JUMPDEST DUP3 PUSH1 0x1 SHL DUP4 DUP2 DIV PUSH1 0x2 EQ DUP5 ISZERO OR ISZERO PUSH2 0xF7D JUMPI PUSH2 0x5106 SWAP1 PUSH2 0x50FF DUP7 MLOAD SWAP2 DUP8 PUSH2 0x4F21 JUMP JUMPDEST POP DUP6 PUSH2 0x4F72 JUMP JUMPDEST POP PUSH2 0x50C7 JUMP JUMPDEST PUSH1 0x1F DUP2 GT PUSH2 0xF7D JUMPI PUSH2 0x100 EXP SWAP1 JUMP JUMPDEST SWAP1 PUSH2 0x5124 PUSH2 0x4CE5 JUMP JUMPDEST POP DUP2 MLOAD MLOAD DUP1 PUSH1 0x8 ADD SWAP2 DUP3 PUSH1 0x8 GT PUSH2 0xF7D JUMPI PUSH1 0x20 DUP5 ADD MLOAD DUP4 GT PUSH2 0x5171 JUMPI JUMPDEST PUSH2 0x5153 PUSH2 0x514E PUSH1 0x8 PUSH2 0x510C JUMP JUMPDEST PUSH2 0x1B62 JUMP JUMPDEST SWAP1 PUSH1 0x8 DUP6 MLOAD SWAP4 DUP5 ADD ADD SWAP2 NOT DUP3 MLOAD AND OR SWAP1 MSTORE DUP1 MLOAD DUP3 GT PUSH2 0x506E JUMPI POP POP SWAP1 JUMP JUMPDEST DUP3 PUSH1 0x1 SHL DUP4 DUP2 DIV PUSH1 0x2 EQ DUP5 ISZERO OR ISZERO PUSH2 0xF7D JUMPI PUSH2 0x5193 SWAP1 PUSH2 0x50FF DUP7 MLOAD SWAP2 DUP8 PUSH2 0x4F21 JUMP JUMPDEST POP PUSH2 0x5141 JUMP JUMPDEST SWAP1 PUSH2 0x51A2 PUSH2 0x4CE5 JUMP JUMPDEST POP DUP2 MLOAD MLOAD DUP1 PUSH1 0x4 ADD SWAP2 DUP3 PUSH1 0x4 GT PUSH2 0xF7D JUMPI PUSH1 0x20 DUP5 ADD MLOAD DUP4 GT PUSH2 0x51EA JUMPI JUMPDEST PUSH2 0x51CC PUSH2 0x514E PUSH1 0x4 PUSH2 0x510C JUMP JUMPDEST SWAP1 PUSH1 0x4 DUP6 MLOAD SWAP4 DUP5 ADD ADD SWAP2 NOT DUP3 MLOAD AND OR SWAP1 MSTORE DUP1 MLOAD DUP3 GT PUSH2 0x506E JUMPI POP POP SWAP1 JUMP JUMPDEST DUP3 PUSH1 0x1 SHL DUP4 DUP2 DIV PUSH1 0x2 EQ DUP5 ISZERO OR ISZERO PUSH2 0xF7D JUMPI PUSH2 0x520C SWAP1 PUSH2 0x50FF DUP7 MLOAD SWAP2 DUP8 PUSH2 0x4F21 JUMP JUMPDEST POP PUSH2 0x51BF JUMP JUMPDEST SWAP1 PUSH2 0x521B PUSH2 0x4CE5 JUMP JUMPDEST POP DUP2 MLOAD MLOAD DUP1 PUSH1 0x2 ADD SWAP2 DUP3 PUSH1 0x2 GT PUSH2 0xF7D JUMPI PUSH1 0x20 DUP5 ADD MLOAD DUP4 GT PUSH2 0x5263 JUMPI JUMPDEST PUSH2 0x5245 PUSH2 0x514E PUSH1 0x2 PUSH2 0x510C JUMP JUMPDEST SWAP1 PUSH1 0x2 DUP6 MLOAD SWAP4 DUP5 ADD ADD SWAP2 NOT DUP3 MLOAD AND OR SWAP1 MSTORE DUP1 MLOAD DUP3 GT PUSH2 0x506E JUMPI POP POP SWAP1 JUMP JUMPDEST DUP3 PUSH1 0x1 SHL DUP4 DUP2 DIV PUSH1 0x2 EQ DUP5 ISZERO OR ISZERO PUSH2 0xF7D JUMPI PUSH2 0x5285 SWAP1 PUSH2 0x50FF DUP7 MLOAD SWAP2 DUP8 PUSH2 0x4F21 JUMP JUMPDEST POP PUSH2 0x5238 JUMP JUMPDEST SWAP1 PUSH2 0x5294 PUSH2 0x4CE5 JUMP JUMPDEST POP DUP2 MLOAD MLOAD DUP1 PUSH1 0x1 ADD SWAP2 DUP3 PUSH1 0x1 GT PUSH2 0xF7D JUMPI PUSH1 0x20 DUP5 ADD MLOAD DUP4 GT PUSH2 0x52DC JUMPI JUMPDEST PUSH2 0x52BE PUSH2 0x514E PUSH1 0x1 PUSH2 0x510C JUMP JUMPDEST SWAP1 PUSH1 0x1 DUP6 MLOAD SWAP4 DUP5 ADD ADD SWAP2 NOT DUP3 MLOAD AND OR SWAP1 MSTORE DUP1 MLOAD DUP3 GT PUSH2 0x506E JUMPI POP POP SWAP1 JUMP JUMPDEST DUP3 PUSH1 0x1 SHL DUP4 DUP2 DIV PUSH1 0x2 EQ DUP5 ISZERO OR ISZERO PUSH2 0xF7D JUMPI PUSH2 0x52FE SWAP1 PUSH2 0x50FF DUP7 MLOAD SWAP2 DUP8 PUSH2 0x4F21 JUMP JUMPDEST POP PUSH2 0x52B1 JUMP JUMPDEST ISZERO PUSH2 0x342 JUMPI JUMP JUMPDEST SWAP2 PUSH2 0x5314 PUSH2 0x4CE5 JUMP JUMPDEST POP PUSH2 0x5322 DUP3 MLOAD DUP3 GT ISZERO PUSH2 0x5304 JUMP JUMPDEST PUSH1 0x20 DUP4 MLOAD MLOAD SWAP3 PUSH2 0x5332 DUP4 DUP6 PUSH2 0x1BEC JUMP JUMPDEST DUP3 DUP7 ADD MLOAD DUP2 GT PUSH2 0x5399 JUMPI JUMPDEST DUP6 MLOAD DUP4 DUP2 MLOAD SWAP7 DUP3 ADD ADD SWAP6 DUP3 GT PUSH2 0x5391 JUMPI JUMPDEST POP POP ADD SWAP1 JUMPDEST PUSH1 0x20 DUP2 LT ISZERO PUSH2 0x5377 JUMPI PUSH0 NOT SWAP1 PUSH1 0x20 SUB PUSH2 0x100 EXP ADD SWAP1 DUP2 NOT SWAP1 MLOAD AND SWAP1 DUP3 MLOAD AND OR SWAP1 MSTORE SWAP1 JUMP JUMPDEST SWAP1 SWAP2 PUSH2 0x5007 PUSH2 0x5001 PUSH2 0x538C SWAP3 DUP6 MLOAD DUP2 MSTORE PUSH2 0x1BDE JUMP JUMPDEST PUSH2 0x5353 JUMP JUMPDEST MSTORE PUSH0 DUP1 PUSH2 0x534E JUMP JUMPDEST PUSH2 0x53AB PUSH2 0x53A5 DUP3 PUSH2 0x1C27 JUMP JUMPDEST DUP8 PUSH2 0x53B0 JUMP JUMPDEST PUSH2 0x533D JUMP JUMPDEST SWAP1 PUSH2 0x4D7F SWAP2 PUSH2 0x53C1 DUP2 MLOAD SWAP3 DUP3 PUSH2 0x4F21 JUMP JUMPDEST POP PUSH2 0x4F72 JUMP INVALID 0x22 PUSH6 0x6E642220666F PUSH15 0x742D66616D696C793D226D6F6E6F73 PUSH17 0x616365223E00003066312220666F6E742D PUSH20 0x697A653D2231332220746578742D616E63686F72 RETURNDATASIZE 0x22 KECCAK256 PUSH7 0x6F6E742D73697A PUSH6 0x3D2231332220 PUSH7 0x6F6E742D66616D PUSH10 0x6C793D226D6FA2646970 PUSH7 0x73582212202212 LOG1 0x4E GAS 0xED 0xDD 0x26 BLOBBASEFEE ORIGIN 0x29 SWAP11 EQ 0xC5 0x2C PREVRANDAO BLOBHASH LOG3 MCOPY 0xB1 MSTORE PUSH21 0x1102490884A6DF34B1FB64736F6C634300081E0033 "
		},
		"gasEstimates": {
			"creation": {
				"codeDepositCost": "4319400",
				"executionCost": "infinite",
				"totalCost": "infinite"
			},
			"external": {
				"MINIMUM_INTERVAL()": "861",
				"approve(address,uint256)": "31234",
				"balanceOf(address)": "2891",
				"checkUpkeep(bytes)": "9566",
				"generateSVG(uint256)": "infinite",
				"getApproved(uint256)": "4651",
				"getPlayerData(uint256)": "infinite",
				"getTokenTier(uint256)": "infinite",
				"handleOracleFulfillment(bytes32,bytes,bytes)": "infinite",
				"interval()": "2788",
				"isApprovedForAll(address,address)": "3327",
				"lastTimeStamp()": "2546",
				"name()": "infinite",
				"owner()": "2790",
				"ownerOf(uint256)": "2796",
				"performUpkeep(bytes)": "infinite",
				"renounceOwnership()": "28548",
				"requestStatsUpdate(uint256)": "infinite",
				"s_playerData(uint256)": "infinite",
				"s_requestExists(bytes32)": "2535",
				"s_requestToTokenId(bytes32)": "2721",
				"safeMint(address,string,string)": "infinite",
				"safeTransferFrom(address,address,uint256)": "infinite",
				"safeTransferFrom(address,address,uint256,bytes)": "infinite",
				"setApprovalForAll(address,bool)": "27107",
				"setAutomationSettings(uint256,uint256)": "50289",
				"setSourceCode(string)": "infinite",
				"sourceCode()": "infinite",
				"subscriptionId()": "2388",
				"supportsInterface(bytes4)": "453",
				"symbol()": "infinite",
				"targetTokenIdToUpdate()": "2810",
				"tokenURI(uint256)": "infinite",
				"totalSupply()": "2436",
				"transferFrom(address,address,uint256)": "106804",
				"transferOwnership(address)": "28942"
			},
			"internal": {
				"_requestStatsInternal(uint256,string memory)": "infinite",
				"fulfillRequest(bytes32,bytes memory,bytes memory)": "infinite"
			}
		},
		"methodIdentifiers": {
			"MINIMUM_INTERVAL()": "e049d709",
			"approve(address,uint256)": "095ea7b3",
			"balanceOf(address)": "70a08231",
			"checkUpkeep(bytes)": "6e04ff0d",
			"generateSVG(uint256)": "6dcee4ca",
			"getApproved(uint256)": "081812fc",
			"getPlayerData(uint256)": "5c2adf6a",
			"getTokenTier(uint256)": "c26b265f",
			"handleOracleFulfillment(bytes32,bytes,bytes)": "0ca76175",
			"interval()": "947a36fb",
			"isApprovedForAll(address,address)": "e985e9c5",
			"lastTimeStamp()": "3f3b3b27",
			"name()": "06fdde03",
			"owner()": "8da5cb5b",
			"ownerOf(uint256)": "6352211e",
			"performUpkeep(bytes)": "4585e33b",
			"renounceOwnership()": "715018a6",
			"requestStatsUpdate(uint256)": "2839b78f",
			"s_playerData(uint256)": "b4cfae44",
			"s_requestExists(bytes32)": "20457fb6",
			"s_requestToTokenId(bytes32)": "68015a4b",
			"safeMint(address,string,string)": "eca81d42",
			"safeTransferFrom(address,address,uint256)": "42842e0e",
			"safeTransferFrom(address,address,uint256,bytes)": "b88d4fde",
			"setApprovalForAll(address,bool)": "a22cb465",
			"setAutomationSettings(uint256,uint256)": "22e817e2",
			"setSourceCode(string)": "00b46767",
			"sourceCode()": "13c60177",
			"subscriptionId()": "09c1ba2e",
			"supportsInterface(bytes4)": "01ffc9a7",
			"symbol()": "95d89b41",
			"targetTokenIdToUpdate()": "94881476",
			"tokenURI(uint256)": "c87b56dd",
			"totalSupply()": "18160ddd",
			"transferFrom(address,address,uint256)": "23b872dd",
			"transferOwnership(address)": "f2fde38b"
		}
	},
	"abi": [
		{
			"inputs": [
				{
					"internalType": "uint64",
					"name": "_subscriptionId",
					"type": "uint64"
				}
			],
			"stateMutability": "nonpayable",
			"type": "constructor"
		},
		{
			"inputs": [
				{
					"internalType": "address",
					"name": "sender",
					"type": "address"
				},
				{
					"internalType": "uint256",
					"name": "tokenId",
					"type": "uint256"
				},
				{
					"internalType": "address",
					"name": "owner",
					"type": "address"
				}
			],
			"name": "ERC721IncorrectOwner",
			"type": "error"
		},
		{
			"inputs": [
				{
					"internalType": "address",
					"name": "operator",
					"type": "address"
				},
				{
					"internalType": "uint256",
					"name": "tokenId",
					"type": "uint256"
				}
			],
			"name": "ERC721InsufficientApproval",
			"type": "error"
		},
		{
			"inputs": [
				{
					"internalType": "address",
					"name": "approver",
					"type": "address"
				}
			],
			"name": "ERC721InvalidApprover",
			"type": "error"
		},
		{
			"inputs": [
				{
					"internalType": "address",
					"name": "operator",
					"type": "address"
				}
			],
			"name": "ERC721InvalidOperator",
			"type": "error"
		},
		{
			"inputs": [
				{
					"internalType": "address",
					"name": "owner",
					"type": "address"
				}
			],
			"name": "ERC721InvalidOwner",
			"type": "error"
		},
		{
			"inputs": [
				{
					"internalType": "address",
					"name": "receiver",
					"type": "address"
				}
			],
			"name": "ERC721InvalidReceiver",
			"type": "error"
		},
		{
			"inputs": [
				{
					"internalType": "address",
					"name": "sender",
					"type": "address"
				}
			],
			"name": "ERC721InvalidSender",
			"type": "error"
		},
		{
			"inputs": [
				{
					"internalType": "uint256",
					"name": "tokenId",
					"type": "uint256"
				}
			],
			"name": "ERC721NonexistentToken",
			"type": "error"
		},
		{
			"inputs": [],
			"name": "EmptyArgs",
			"type": "error"
		},
		{
			"inputs": [],
			"name": "EmptySource",
			"type": "error"
		},
		{
			"inputs": [
				{
					"internalType": "uint256",
					"name": "provided",
					"type": "uint256"
				},
				{
					"internalType": "uint256",
					"name": "minimum",
					"type": "uint256"
				}
			],
			"name": "IntervalTooShort",
			"type": "error"
		},
		{
			"inputs": [],
			"name": "NoInlineSecrets",
			"type": "error"
		},
		{
			"inputs": [],
			"name": "NoTokensMinted",
			"type": "error"
		},
		{
			"inputs": [],
			"name": "OnlyRouterCanFulfill",
			"type": "error"
		},
		{
			"inputs": [
				{
					"internalType": "bytes",
					"name": "err",
					"type": "bytes"
				}
			],
			"name": "OracleError",
			"type": "error"
		},
		{
			"inputs": [
				{
					"internalType": "address",
					"name": "owner",
					"type": "address"
				}
			],
			"name": "OwnableInvalidOwner",
			"type": "error"
		},
		{
			"inputs": [
				{
					"internalType": "address",
					"name": "account",
					"type": "address"
				}
			],
			"name": "OwnableUnauthorizedAccount",
			"type": "error"
		},
		{
			"inputs": [
				{
					"internalType": "bytes32",
					"name": "requestId",
					"type": "bytes32"
				}
			],
			"name": "UnknownRequestId",
			"type": "error"
		},
		{
			"anonymous": false,
			"inputs": [
				{
					"indexed": true,
					"internalType": "address",
					"name": "owner",
					"type": "address"
				},
				{
					"indexed": true,
					"internalType": "address",
					"name": "approved",
					"type": "address"
				},
				{
					"indexed": true,
					"internalType": "uint256",
					"name": "tokenId",
					"type": "uint256"
				}
			],
			"name": "Approval",
			"type": "event"
		},
		{
			"anonymous": false,
			"inputs": [
				{
					"indexed": true,
					"internalType": "address",
					"name": "owner",
					"type": "address"
				},
				{
					"indexed": true,
					"internalType": "address",
					"name": "operator",
					"type": "address"
				},
				{
					"indexed": false,
					"internalType": "bool",
					"name": "approved",
					"type": "bool"
				}
			],
			"name": "ApprovalForAll",
			"type": "event"
		},
		{
			"anonymous": false,
			"inputs": [
				{
					"indexed": false,
					"internalType": "uint256",
					"name": "newInterval",
					"type": "uint256"
				},
				{
					"indexed": false,
					"internalType": "uint256",
					"name": "newTargetTokenId",
					"type": "uint256"
				}
			],
			"name": "AutomationSettingsChanged",
			"type": "event"
		},
		{
			"anonymous": false,
			"inputs": [
				{
					"indexed": false,
					"internalType": "uint256",
					"name": "_fromTokenId",
					"type": "uint256"
				},
				{
					"indexed": false,
					"internalType": "uint256",
					"name": "_toTokenId",
					"type": "uint256"
				}
			],
			"name": "BatchMetadataUpdate",
			"type": "event"
		},
		{
			"anonymous": false,
			"inputs": [
				{
					"indexed": false,
					"internalType": "uint256",
					"name": "_tokenId",
					"type": "uint256"
				}
			],
			"name": "MetadataUpdate",
			"type": "event"
		},
		{
			"anonymous": false,
			"inputs": [
				{
					"indexed": true,
					"internalType": "address",
					"name": "previousOwner",
					"type": "address"
				},
				{
					"indexed": true,
					"internalType": "address",
					"name": "newOwner",
					"type": "address"
				}
			],
			"name": "OwnershipTransferred",
			"type": "event"
		},
		{
			"anonymous": false,
			"inputs": [
				{
					"indexed": true,
					"internalType": "uint256",
					"name": "tokenId",
					"type": "uint256"
				},
				{
					"indexed": false,
					"internalType": "uint64",
					"name": "games",
					"type": "uint64"
				},
				{
					"indexed": false,
					"internalType": "uint64",
					"name": "kills",
					"type": "uint64"
				},
				{
					"indexed": false,
					"internalType": "uint64",
					"name": "deaths",
					"type": "uint64"
				},
				{
					"indexed": false,
					"internalType": "uint64",
					"name": "assists",
					"type": "uint64"
				},
				{
					"indexed": false,
					"internalType": "uint8",
					"name": "tierIndex",
					"type": "uint8"
				},
				{
					"indexed": false,
					"internalType": "uint256",
					"name": "timestamp",
					"type": "uint256"
				}
			],
			"name": "PlayerStatsUpdated",
			"type": "event"
		},
		{
			"anonymous": false,
			"inputs": [
				{
					"indexed": true,
					"internalType": "bytes32",
					"name": "id",
					"type": "bytes32"
				}
			],
			"name": "RequestFulfilled",
			"type": "event"
		},
		{
			"anonymous": false,
			"inputs": [
				{
					"indexed": true,
					"internalType": "bytes32",
					"name": "id",
					"type": "bytes32"
				}
			],
			"name": "RequestSent",
			"type": "event"
		},
		{
			"anonymous": false,
			"inputs": [
				{
					"indexed": true,
					"internalType": "uint256",
					"name": "tokenId",
					"type": "uint256"
				},
				{
					"indexed": true,
					"internalType": "bytes32",
					"name": "requestId",
					"type": "bytes32"
				},
				{
					"indexed": false,
					"internalType": "string",
					"name": "nickname",
					"type": "string"
				}
			],
			"name": "StatsRequested",
			"type": "event"
		},
		{
			"anonymous": false,
			"inputs": [
				{
					"indexed": true,
					"internalType": "address",
					"name": "from",
					"type": "address"
				},
				{
					"indexed": true,
					"internalType": "address",
					"name": "to",
					"type": "address"
				},
				{
					"indexed": true,
					"internalType": "uint256",
					"name": "tokenId",
					"type": "uint256"
				}
			],
			"name": "Transfer",
			"type": "event"
		},
		{
			"inputs": [],
			"name": "MINIMUM_INTERVAL",
			"outputs": [
				{
					"internalType": "uint256",
					"name": "",
					"type": "uint256"
				}
			],
			"stateMutability": "view",
			"type": "function"
		},
		{
			"inputs": [
				{
					"internalType": "address",
					"name": "to",
					"type": "address"
				},
				{
					"internalType": "uint256",
					"name": "tokenId",
					"type": "uint256"
				}
			],
			"name": "approve",
			"outputs": [],
			"stateMutability": "nonpayable",
			"type": "function"
		},
		{
			"inputs": [
				{
					"internalType": "address",
					"name": "owner",
					"type": "address"
				}
			],
			"name": "balanceOf",
			"outputs": [
				{
					"internalType": "uint256",
					"name": "",
					"type": "uint256"
				}
			],
			"stateMutability": "view",
			"type": "function"
		},
		{
			"inputs": [
				{
					"internalType": "bytes",
					"name": "",
					"type": "bytes"
				}
			],
			"name": "checkUpkeep",
			"outputs": [
				{
					"internalType": "bool",
					"name": "upkeepNeeded",
					"type": "bool"
				},
				{
					"internalType": "bytes",
					"name": "performData",
					"type": "bytes"
				}
			],
			"stateMutability": "view",
			"type": "function"
		},
		{
			"inputs": [
				{
					"internalType": "uint256",
					"name": "tokenId",
					"type": "uint256"
				}
			],
			"name": "generateSVG",
			"outputs": [
				{
					"internalType": "string",
					"name": "",
					"type": "string"
				}
			],
			"stateMutability": "view",
			"type": "function"
		},
		{
			"inputs": [
				{
					"internalType": "uint256",
					"name": "tokenId",
					"type": "uint256"
				}
			],
			"name": "getApproved",
			"outputs": [
				{
					"internalType": "address",
					"name": "",
					"type": "address"
				}
			],
			"stateMutability": "view",
			"type": "function"
		},
		{
			"inputs": [
				{
					"internalType": "uint256",
					"name": "tokenId",
					"type": "uint256"
				}
			],
			"name": "getPlayerData",
			"outputs": [
				{
					"components": [
						{
							"internalType": "string",
							"name": "nickname",
							"type": "string"
						},
						{
							"internalType": "string",
							"name": "lane",
							"type": "string"
						},
						{
							"internalType": "uint64",
							"name": "games",
							"type": "uint64"
						},
						{
							"internalType": "uint64",
							"name": "kills",
							"type": "uint64"
						},
						{
							"internalType": "uint64",
							"name": "deaths",
							"type": "uint64"
						},
						{
							"internalType": "uint64",
							"name": "assists",
							"type": "uint64"
						}
					],
					"internalType": "struct MplPlayerCard_A.PlayerData",
					"name": "",
					"type": "tuple"
				}
			],
			"stateMutability": "view",
			"type": "function"
		},
		{
			"inputs": [
				{
					"internalType": "uint256",
					"name": "tokenId",
					"type": "uint256"
				}
			],
			"name": "getTokenTier",
			"outputs": [
				{
					"internalType": "uint8",
					"name": "tierIndex",
					"type": "uint8"
				},
				{
					"internalType": "string",
					"name": "tierName",
					"type": "string"
				}
			],
			"stateMutability": "view",
			"type": "function"
		},
		{
			"inputs": [
				{
					"internalType": "bytes32",
					"name": "requestId",
					"type": "bytes32"
				},
				{
					"internalType": "bytes",
					"name": "response",
					"type": "bytes"
				},
				{
					"internalType": "bytes",
					"name": "err",
					"type": "bytes"
				}
			],
			"name": "handleOracleFulfillment",
			"outputs": [],
			"stateMutability": "nonpayable",
			"type": "function"
		},
		{
			"inputs": [],
			"name": "interval",
			"outputs": [
				{
					"internalType": "uint256",
					"name": "",
					"type": "uint256"
				}
			],
			"stateMutability": "view",
			"type": "function"
		},
		{
			"inputs": [
				{
					"internalType": "address",
					"name": "owner",
					"type": "address"
				},
				{
					"internalType": "address",
					"name": "operator",
					"type": "address"
				}
			],
			"name": "isApprovedForAll",
			"outputs": [
				{
					"internalType": "bool",
					"name": "",
					"type": "bool"
				}
			],
			"stateMutability": "view",
			"type": "function"
		},
		{
			"inputs": [],
			"name": "lastTimeStamp",
			"outputs": [
				{
					"internalType": "uint256",
					"name": "",
					"type": "uint256"
				}
			],
			"stateMutability": "view",
			"type": "function"
		},
		{
			"inputs": [],
			"name": "name",
			"outputs": [
				{
					"internalType": "string",
					"name": "",
					"type": "string"
				}
			],
			"stateMutability": "view",
			"type": "function"
		},
		{
			"inputs": [],
			"name": "owner",
			"outputs": [
				{
					"internalType": "address",
					"name": "",
					"type": "address"
				}
			],
			"stateMutability": "view",
			"type": "function"
		},
		{
			"inputs": [
				{
					"internalType": "uint256",
					"name": "tokenId",
					"type": "uint256"
				}
			],
			"name": "ownerOf",
			"outputs": [
				{
					"internalType": "address",
					"name": "",
					"type": "address"
				}
			],
			"stateMutability": "view",
			"type": "function"
		},
		{
			"inputs": [
				{
					"internalType": "bytes",
					"name": "",
					"type": "bytes"
				}
			],
			"name": "performUpkeep",
			"outputs": [],
			"stateMutability": "nonpayable",
			"type": "function"
		},
		{
			"inputs": [],
			"name": "renounceOwnership",
			"outputs": [],
			"stateMutability": "nonpayable",
			"type": "function"
		},
		{
			"inputs": [
				{
					"internalType": "uint256",
					"name": "tokenId",
					"type": "uint256"
				}
			],
			"name": "requestStatsUpdate",
			"outputs": [],
			"stateMutability": "nonpayable",
			"type": "function"
		},
		{
			"inputs": [
				{
					"internalType": "uint256",
					"name": "",
					"type": "uint256"
				}
			],
			"name": "s_playerData",
			"outputs": [
				{
					"internalType": "string",
					"name": "nickname",
					"type": "string"
				},
				{
					"internalType": "string",
					"name": "lane",
					"type": "string"
				},
				{
					"internalType": "uint64",
					"name": "games",
					"type": "uint64"
				},
				{
					"internalType": "uint64",
					"name": "kills",
					"type": "uint64"
				},
				{
					"internalType": "uint64",
					"name": "deaths",
					"type": "uint64"
				},
				{
					"internalType": "uint64",
					"name": "assists",
					"type": "uint64"
				}
			],
			"stateMutability": "view",
			"type": "function"
		},
		{
			"inputs": [
				{
					"internalType": "bytes32",
					"name": "",
					"type": "bytes32"
				}
			],
			"name": "s_requestExists",
			"outputs": [
				{
					"internalType": "bool",
					"name": "",
					"type": "bool"
				}
			],
			"stateMutability": "view",
			"type": "function"
		},
		{
			"inputs": [
				{
					"internalType": "bytes32",
					"name": "",
					"type": "bytes32"
				}
			],
			"name": "s_requestToTokenId",
			"outputs": [
				{
					"internalType": "uint256",
					"name": "",
					"type": "uint256"
				}
			],
			"stateMutability": "view",
			"type": "function"
		},
		{
			"inputs": [
				{
					"internalType": "address",
					"name": "to",
					"type": "address"
				},
				{
					"internalType": "string",
					"name": "_nickname",
					"type": "string"
				},
				{
					"internalType": "string",
					"name": "_lane",
					"type": "string"
				}
			],
			"name": "safeMint",
			"outputs": [],
			"stateMutability": "nonpayable",
			"type": "function"
		},
		{
			"inputs": [
				{
					"internalType": "address",
					"name": "from",
					"type": "address"
				},
				{
					"internalType": "address",
					"name": "to",
					"type": "address"
				},
				{
					"internalType": "uint256",
					"name": "tokenId",
					"type": "uint256"
				}
			],
			"name": "safeTransferFrom",
			"outputs": [],
			"stateMutability": "nonpayable",
			"type": "function"
		},
		{
			"inputs": [
				{
					"internalType": "address",
					"name": "from",
					"type": "address"
				},
				{
					"internalType": "address",
					"name": "to",
					"type": "address"
				},
				{
					"internalType": "uint256",
					"name": "tokenId",
					"type": "uint256"
				},
				{
					"internalType": "bytes",
					"name": "data",
					"type": "bytes"
				}
			],
			"name": "safeTransferFrom",
			"outputs": [],
			"stateMutability": "nonpayable",
			"type": "function"
		},
		{
			"inputs": [
				{
					"internalType": "address",
					"name": "operator",
					"type": "address"
				},
				{
					"internalType": "bool",
					"name": "approved",
					"type": "bool"
				}
			],
			"name": "setApprovalForAll",
			"outputs": [],
			"stateMutability": "nonpayable",
			"type": "function"
		},
		{
			"inputs": [
				{
					"internalType": "uint256",
					"name": "_intervalSeconds",
					"type": "uint256"
				},
				{
					"internalType": "uint256",
					"name": "_targetTokenId",
					"type": "uint256"
				}
			],
			"name": "setAutomationSettings",
			"outputs": [],
			"stateMutability": "nonpayable",
			"type": "function"
		},
		{
			"inputs": [
				{
					"internalType": "string",
					"name": "_sourceCode",
					"type": "string"
				}
			],
			"name": "setSourceCode",
			"outputs": [],
			"stateMutability": "nonpayable",
			"type": "function"
		},
		{
			"inputs": [],
			"name": "sourceCode",
			"outputs": [
				{
					"internalType": "string",
					"name": "",
					"type": "string"
				}
			],
			"stateMutability": "view",
			"type": "function"
		},
		{
			"inputs": [],
			"name": "subscriptionId",
			"outputs": [
				{
					"internalType": "uint64",
					"name": "",
					"type": "uint64"
				}
			],
			"stateMutability": "view",
			"type": "function"
		},
		{
			"inputs": [
				{
					"internalType": "bytes4",
					"name": "interfaceId",
					"type": "bytes4"
				}
			],
			"name": "supportsInterface",
			"outputs": [
				{
					"internalType": "bool",
					"name": "",
					"type": "bool"
				}
			],
			"stateMutability": "view",
			"type": "function"
		},
		{
			"inputs": [],
			"name": "symbol",
			"outputs": [
				{
					"internalType": "string",
					"name": "",
					"type": "string"
				}
			],
			"stateMutability": "view",
			"type": "function"
		},
		{
			"inputs": [],
			"name": "targetTokenIdToUpdate",
			"outputs": [
				{
					"internalType": "uint256",
					"name": "",
					"type": "uint256"
				}
			],
			"stateMutability": "view",
			"type": "function"
		},
		{
			"inputs": [
				{
					"internalType": "uint256",
					"name": "tokenId",
					"type": "uint256"
				}
			],
			"name": "tokenURI",
			"outputs": [
				{
					"internalType": "string",
					"name": "",
					"type": "string"
				}
			],
			"stateMutability": "view",
			"type": "function"
		},
		{
			"inputs": [],
			"name": "totalSupply",
			"outputs": [
				{
					"internalType": "uint256",
					"name": "",
					"type": "uint256"
				}
			],
			"stateMutability": "view",
			"type": "function"
		},
		{
			"inputs": [
				{
					"internalType": "address",
					"name": "from",
					"type": "address"
				},
				{
					"internalType": "address",
					"name": "to",
					"type": "address"
				},
				{
					"internalType": "uint256",
					"name": "tokenId",
					"type": "uint256"
				}
			],
			"name": "transferFrom",
			"outputs": [],
			"stateMutability": "nonpayable",
			"type": "function"
		},
		{
			"inputs": [
				{
					"internalType": "address",
					"name": "newOwner",
					"type": "address"
				}
			],
			"name": "transferOwnership",
			"outputs": [],
			"stateMutability": "nonpayable",
			"type": "function"
		}
	]
}