{
	"data": {
		"bytecode": {
			"linkReferences": {
				"TA_fix/Modular Testing/PlayerCardRenderer.sol": {
					"PlayerCardRenderer": [
						{
							"length": 20,
							"start": 4344
						},
						{
							"length": 20,
							"start": 4453
						},
						{
							"length": 20,
							"start": 4575
						}
					]
				}
			},
			"object": "60a0604052600980546001600160a01b03191673b83e47c2bc239b3bf370bc41e1459a34b41238d01790557f66756e2d657468657265756d2d7365706f6c69612d3100000000000000000000600a5562015180600e55348015610060575f5ffd5b50604051613e15380380613e1583398101604081905261007f916101aa565b600954604080518082018252600f81526e13541308141b185e595c8810d85c99608a1b602080830191909152825180840190935260058352644d504c504360d81b908301526001600160a01b039092169133915f6100dd838261026f565b5060016100ea828261026f565b5050506001600160a01b03811661011a57604051631e4fbdf760e01b81525f600482015260240160405180910390fd5b61012381610159565b506001600160a01b0316608052600b80546001600160401b0319166001600160401b039290921691909117905542600d55610329565b600780546001600160a01b038381166001600160a01b0319831681179093556040519116919082907f8be0079c531659141344cd1fd0a4f28419497f9722a3daafe3b4186f6b6457e0905f90a35050565b5f602082840312156101ba575f5ffd5b81516001600160401b03811681146101d0575f5ffd5b9392505050565b634e487b7160e01b5f52604160045260245ffd5b600181811c908216806101ff57607f821691505b60208210810361021d57634e487b7160e01b5f52602260045260245ffd5b50919050565b601f82111561026a57805f5260205f20601f840160051c810160208510156102485750805b601f840160051c820191505b81811015610267575f8155600101610254565b50505b505050565b81516001600160401b03811115610288576102886101d7565b61029c8161029684546101eb565b84610223565b6020601f8211600181146102ce575f83156102b75750848201515b5f19600385901b1c1916600184901b178455610267565b5f84815260208120601f198516915b828110156102fd57878501518255602094850194600190920191016102dd565b508482101561031a57868401515f19600387901b60f8161c191681555b50505050600190811b01905550565b608051613acd6103485f395f81816105f701526123320152613acd5ff3fe608060405234801561000f575f5ffd5b5060043610610207575f3560e01c80636352211e1161011f57806395d89b41116100a9578063c87b56dd11610079578063c87b56dd14610494578063e049d709146104a7578063e985e9c5146104b0578063eca81d42146104c3578063f2fde38b146104d6575f5ffd5b806395d89b4114610441578063a22cb46514610449578063b4cfae441461045c578063b88d4fde14610481575f5ffd5b806370a08231116100ef57806370a0823114610403578063715018a6146104165780638da5cb5b1461041e578063947a36fb1461042f5780639488147614610438575f5ffd5b80636352211e1461039d57806368015a4b146103b05780636dcee4ca146103cf5780636e04ff0d146103e2575f5ffd5b806318160ddd116101a05780632839b78f116101705780632839b78f1461033b5780633f3b3b271461034e57806342842e0e146103575780634585e33b1461036a5780635c2adf6a1461037d575f5ffd5b806318160ddd146102e157806320457fb6146102f357806322e817e21461031557806323b872dd14610328575f5ffd5b8063095ea7b3116101db578063095ea7b31461028857806309c1ba2e1461029b5780630ca76175146102c657806313c60177146102d9575f5ffd5b8062b467671461020b57806301ffc9a71461022057806306fdde0314610248578063081812fc1461025d575b5f5ffd5b61021e610219366004612cf3565b6104e9565b005b61023361022e366004612d39565b610501565b60405190151581526020015b60405180910390f35b61025061052b565b60405161023f9190612d82565b61027061026b366004612d94565b6105ba565b6040516001600160a01b03909116815260200161023f565b61021e610296366004612dc6565b6105e1565b600b546102ae906001600160401b031681565b6040516001600160401b03909116815260200161023f565b61021e6102d4366004612dee565b6105ec565b61025061066f565b6008545b60405190815260200161023f565b610233610301366004612d94565b60126020525f908152604090205460ff1681565b61021e610323366004612e59565b6106fb565b61021e610336366004612e79565b6107c0565b61021e610349366004612d94565b610849565b6102e5600d5481565b61021e610365366004612e79565b610911565b61021e610378366004612eb3565b610930565b61039061038b366004612d94565b61096b565b60405161023f9190612f1f565b6102706103ab366004612d94565b610b3b565b6102e56103be366004612d94565b60116020525f908152604090205481565b6102506103dd366004612d94565b610b45565b6103f56103f0366004612eb3565b610f2f565b60405161023f929190612fb0565b6102e5610411366004612fca565b610f6d565b61021e610fb2565b6007546001600160a01b0316610270565b6102e5600e5481565b6102e5600f5481565b610250610fc5565b61021e610457366004612fe3565b610fd4565b61046f61046a366004612d94565b610fdf565b60405161023f9695949392919061301c565b61021e61048f366004613074565b611134565b6102506104a2366004612d94565b61114c565b6102e5610e1081565b6102336104be3660046130d7565b6113d4565b61021e6104d1366004613108565b611401565b61021e6104e4366004612fca565b611504565b6104f1611541565b600c6104fd82826131b9565b5050565b5f6001600160e01b03198216632483248360e11b148061052557506105258261156e565b92915050565b60605f80546105399061313d565b80601f01602080910402602001604051908101604052809291908181526020018280546105659061313d565b80156105b05780601f10610587576101008083540402835291602001916105b0565b820191905f5260205f20905b81548152906001019060200180831161059357829003601f168201915b5050505050905090565b5f6105c4826115bd565b505f828152600460205260409020546001600160a01b0316610525565b6104fd8282336115f5565b336001600160a01b037f000000000000000000000000000000000000000000000000000000000000000016146106355760405163c6829f8360e01b815260040160405180910390fd5b610640838383611602565b60405183907f85e1543bf2f84fe80c6badbce3648c8539ad1df4d2b3d822938ca0538be727e6905f90a2505050565b600c805461067c9061313d565b80601f01602080910402602001604051908101604052809291908181526020018280546106a89061313d565b80156106f35780601f106106ca576101008083540402835291602001916106f3565b820191905f5260205f20905b8154815290600101906020018083116106d657829003601f168201915b505050505081565b610703611541565b610e10821015610736576040516304d5a70960e41b815260048101839052610e1060248201526044015b60405180910390fd5b6008545f036107585760405163d31b331d60e01b815260040160405180910390fd5b60085481106107795760405162461bcd60e51b815260040161072d90613273565b600e829055600f81905560408051838152602081018390527f64586acd58623513aac74e3f48f97302b3e5020b31c103c3254eb9ea68bc49f2910160405180910390a15050565b6001600160a01b0382166107e957604051633250574960e11b81525f600482015260240161072d565b5f6107f5838333611924565b9050836001600160a01b0316816001600160a01b031614610843576040516364283d7b60e01b81526001600160a01b038086166004830152602482018490528216604482015260640161072d565b50505050565b610851611541565b60085481106108725760405162461bcd60e51b815260040161072d90613273565b5f81815260106020526040902080546104fd9183916108909061313d565b80601f01602080910402602001604051908101604052809291908181526020018280546108bc9061313d565b80156109075780601f106108de57610100808354040283529160200191610907565b820191905f5260205f20905b8154815290600101906020018083116108ea57829003601f168201915b5050505050611a16565b61092b83838360405180602001604052805f815250611134565b505050565b600e54600d5461094090426132b5565b11156104fd5742600d55600f545f818152601060205260409020805461092b9291906108909061313d565b6040805160c0810182526060808252602082018190525f92820183905281018290526080810182905260a081019190915260085482106109bd5760405162461bcd60e51b815260040161072d90613273565b5f8281526010602052604090819020815160c081019092528054829082906109e49061313d565b80601f0160208091040260200160405190810160405280929190818152602001828054610a109061313d565b8015610a5b5780601f10610a3257610100808354040283529160200191610a5b565b820191905f5260205f20905b815481529060010190602001808311610a3e57829003601f168201915b50505050508152602001600182018054610a749061313d565b80601f0160208091040260200160405190810160405280929190818152602001828054610aa09061313d565b8015610aeb5780601f10610ac257610100808354040283529160200191610aeb565b820191905f5260205f20905b815481529060010190602001808311610ace57829003601f168201915b5050509183525050600291909101546001600160401b038082166020840152600160401b820481166040840152600160801b820481166060840152600160c01b9091041660809091015292915050565b5f610525826115bd565b60605f60105f8481526020019081526020015f206040518060c00160405290815f82018054610b739061313d565b80601f0160208091040260200160405190810160405280929190818152602001828054610b9f9061313d565b8015610bea5780601f10610bc157610100808354040283529160200191610bea565b820191905f5260205f20905b815481529060010190602001808311610bcd57829003601f168201915b50505050508152602001600182018054610c039061313d565b80601f0160208091040260200160405190810160405280929190818152602001828054610c2f9061313d565b8015610c7a5780601f10610c5157610100808354040283529160200191610c7a565b820191905f5260205f20905b815481529060010190602001808311610c5d57829003601f168201915b5050509183525050600291909101546001600160401b038082166020840152600160401b820481166040840152600160801b820481166060840152600160c01b9091048116608092830152908201519192505f911615610cde578160800151610ce1565b60015b90505f816001600160401b03168360a001516001600160401b031684606001516001600160401b0316610d1491906132c8565b610d1f9060646132db565b610d299190613306565b90505f610d37606483613319565b90505f610d4d610d48606485613306565b611bd9565b600a8310610d6357610d5e83611bd9565b610d8c565b610d6c83611bd9565b604051602001610d7c9190613343565b6040516020818303038152906040525b604051602001610d9d929190613358565b604051602081830303815290604052905073__$dd2d27e9ff89d6f0e89879dd84472fed71$__63c440354f6040518163ffffffff1660e01b81526004015f60405180830381865af4158015610df4573d5f5f3e3d5ffd5b505050506040513d5f823e601f3d908101601f19168201604052610e1b9190810190613380565b73__$dd2d27e9ff89d6f0e89879dd84472fed71$__63fe22a5dc6040518163ffffffff1660e01b81526004015f60405180830381865af4158015610e61573d5f5f3e3d5ffd5b505050506040513d5f823e601f3d908101601f19168201604052610e889190810190613380565b6040516370d7f5eb60e01b815273__$dd2d27e9ff89d6f0e89879dd84472fed71$__906370d7f5eb90610ec1908a9087906004016133f4565b5f60405180830381865af4158015610edb573d5f5f3e3d5ffd5b505050506040513d5f823e601f3d908101601f19168201604052610f029190810190613380565b604051602001610f149392919061348e565b60405160208183030381529060405295505050505050919050565b5f6060600e54600d5442610f4391906132b5565b118015610f535750600854600f54105b915060405180602001604052805f81525090509250929050565b5f6001600160a01b038216610f97576040516322718ad960e21b81525f600482015260240161072d565b506001600160a01b03165f9081526003602052604090205490565b610fba611541565b610fc35f611c68565b565b6060600180546105399061313d565b6104fd338383611cb9565b60106020525f9081526040902080548190610ff99061313d565b80601f01602080910402602001604051908101604052809291908181526020018280546110259061313d565b80156110705780601f1061104757610100808354040283529160200191611070565b820191905f5260205f20905b81548152906001019060200180831161105357829003601f168201915b5050505050908060010180546110859061313d565b80601f01602080910402602001604051908101604052809291908181526020018280546110b19061313d565b80156110fc5780601f106110d3576101008083540402835291602001916110fc565b820191905f5260205f20905b8154815290600101906020018083116110df57829003601f168201915b505050600290930154919250506001600160401b0380821691600160401b8104821691600160801b8204811691600160c01b90041686565b61113f8484846107c0565b6108433385858585611d80565b60605f60105f8481526020019081526020015f206040518060c00160405290815f8201805461117a9061313d565b80601f01602080910402602001604051908101604052809291908181526020018280546111a69061313d565b80156111f15780601f106111c8576101008083540402835291602001916111f1565b820191905f5260205f20905b8154815290600101906020018083116111d457829003601f168201915b5050505050815260200160018201805461120a9061313d565b80601f01602080910402602001604051908101604052809291908181526020018280546112369061313d565b80156112815780601f1061125857610100808354040283529160200191611281565b820191905f5260205f20905b81548152906001019060200180831161126457829003601f168201915b5050509183525050600291909101546001600160401b038082166020840152600160401b820481166040840152600160801b820481166060840152600160c01b9091041660809091015290505f6112df6112da85610b45565b611ea8565b90505f825f0151836020015161130185604001516001600160401b0316611bd9565b6040516020016113139392919061356a565b60405160208183030381529060405290505f61133b84606001516001600160401b0316611bd9565b61135185608001516001600160401b0316611bd9565b6113678660a001516001600160401b0316611bd9565b6040516020016113799392919061364c565b60405160208183030381529060405290505f6113c161139788611bd9565b8484876040516020016113ad949392919061372a565b604051602081830303815290604052611ea8565b905080604051602001610f149190613882565b6001600160a01b039182165f90815260056020908152604080832093909416825291909152205460ff1690565b611409611541565b6008546040805160c08101825284815260208082018590525f828401819052606083018190526080830181905260a083018190528481526010909152919091208151819061145790826131b9565b506020820151600182019061146c90826131b9565b506040820151600290910180546060840151608085015160a0909501516001600160401b03908116600160c01b026001600160c01b03968216600160801b02969096166001600160801b03928216600160401b026001600160801b031990941691909516179190911716919091179190911790556114ea8482611eb4565b60088054905f6114f9836138b3565b919050555050505050565b61150c611541565b6001600160a01b03811661153557604051631e4fbdf760e01b81525f600482015260240161072d565b61153e81611c68565b50565b6007546001600160a01b03163314610fc35760405163118cdaa760e01b815233600482015260240161072d565b5f6001600160e01b031982166380ac58cd60e01b148061159e57506001600160e01b03198216635b5e139f60e01b145b8061052557506301ffc9a760e01b6001600160e01b0319831614610525565b5f818152600260205260408120546001600160a01b03168061052557604051637e27328960e01b81526004810184905260240161072d565b61092b8383836001611ecd565b5f8381526012602052604090205460ff166116335760405163f6a8d1c960e01b81526004810184905260240161072d565b8051156116555780604051631de77ff960e11b815260040161072d9190612d82565b5f838152601160209081526040822054845190929161167a91860181019086016138cb565b5f83815260106020818152604080842060028101805460c088811c6001600160801b03909216600160c01b6001600160401b03808c169190910267ffffffffffffffff60801b191691909117600160801b8b881c831602176001600160801b031916600160401b60808c901c929092169190910267ffffffffffffffff191617919091179091558b865260128452828620805460ff1916905560118452828620869055888652939092528051928301905280549394509192909190829082906117429061313d565b80601f016020809104026020016040519081016040528092919081815260200182805461176e9061313d565b80156117b95780601f10611790576101008083540402835291602001916117b9565b820191905f5260205f20905b81548152906001019060200180831161179c57829003601f168201915b505050505081526020016001820180546117d29061313d565b80601f01602080910402602001604051908101604052809291908181526020018280546117fe9061313d565b80156118495780601f1061182057610100808354040283529160200191611849565b820191905f5260205f20905b81548152906001019060200180831161182c57829003601f168201915b5050509183525050600291909101546001600160401b038082166020840152600160401b82048116604080850191909152600160801b83048216606080860191909152600160c01b90930490911660809384015283810151918401519284015160a0850151915194955087947f9f86cfe46669ecf4ca86f93ef7ffc30082e4a755d2ee82226e1d556fd63407ee94611914949390929142906001600160401b039586168152938516602085015291841660408401529092166060820152608081019190915260a00190565b60405180910390a2505050505050565b5f828152600260205260408120546001600160a01b039081169083161561195057611950818486611fd1565b6001600160a01b0381161561198a5761196b5f855f5f611ecd565b6001600160a01b0381165f90815260036020526040902080545f190190555b6001600160a01b038516156119b8576001600160a01b0385165f908152600360205260409020805460010190555b5f8481526002602052604080822080546001600160a01b0319166001600160a01b0389811691821790925591518793918516917fddf252ad1be2c89b69c2b068fc378daa952ba7f163c4a11628f55a4df523b3ef91a4949350505050565b5f611a556040805160e08101909152805f81526020015f81526020015f8152602001606081526020016060815260200160608152602001606081525090565b611af0600c8054611a659061313d565b80601f0160208091040260200160405190810160405280929190818152602001828054611a919061313d565b8015611adc5780601f10611ab357610100808354040283529160200191611adc565b820191905f5260205f20905b815481529060010190602001808311611abf57829003601f168201915b50505050508261203590919063ffffffff16565b6040805160018082528183019092525f91816020015b6060815260200190600190039081611b0657905050905083815f81518110611b3057611b306138e2565b6020908102919091010152611b458282612041565b611b6d611b518361206a565b600b54600a546001600160401b0390911690620493e09061232e565b5f818152601160209081526040808320899055601290915290819020805460ff1916600117905551909350839086907f36c447ad99df7457c4f3d38dad77da717d67a685e3ed93297fefc4601d9beb2590611bc9908890612d82565b60405180910390a3505092915050565b60605f611be5836123fb565b60010190505f816001600160401b03811115611c0357611c03612c35565b6040519080825280601f01601f191660200182016040528015611c2d576020820181803683370190505b5090508181016020015b5f19016f181899199a1a9b1b9c1cb0b131b232b360811b600a86061a8153600a8504945084611c3757509392505050565b600780546001600160a01b038381166001600160a01b0319831681179093556040519116919082907f8be0079c531659141344cd1fd0a4f28419497f9722a3daafe3b4186f6b6457e0905f90a35050565b6001600160a01b038316611ce25760405163a9fbf51f60e01b81525f600482015260240161072d565b6001600160a01b038216611d1457604051630b61174360e31b81526001600160a01b038316600482015260240161072d565b6001600160a01b038381165f81815260056020908152604080832094871680845294825291829020805460ff191686151590811790915591519182527f17307eab39ab6107e8899845ad3d59bd9653f200f220920489ca2b5937696c31910160405180910390a3505050565b6001600160a01b0383163b15611ea157604051630a85bd0160e11b81526001600160a01b0384169063150b7a0290611dc29088908890879087906004016138f6565b6020604051808303815f875af1925050508015611dfc575060408051601f3d908101601f19168201909252611df991810190613932565b60015b611e63573d808015611e29576040519150601f19603f3d011682016040523d82523d5f602084013e611e2e565b606091505b5080515f03611e5b57604051633250574960e11b81526001600160a01b038516600482015260240161072d565b805160208201fd5b6001600160e01b03198116630a85bd0160e11b14611e9f57604051633250574960e11b81526001600160a01b038516600482015260240161072d565b505b5050505050565b6060610525825f6124d2565b6104fd828260405180602001604052805f815250612651565b8080611ee157506001600160a01b03821615155b15611fa2575f611ef0846115bd565b90506001600160a01b03831615801590611f1c5750826001600160a01b0316816001600160a01b031614155b8015611f2f5750611f2d81846113d4565b155b15611f585760405163a9fbf51f60e01b81526001600160a01b038416600482015260240161072d565b8115611fa05783856001600160a01b0316826001600160a01b03167f8c5be1e5ebec7d5bd14f71427d1e84f3dd0314c0f7b2291e5b200ac8c7c3b92560405160405180910390a45b505b50505f90815260046020526040902080546001600160a01b0319166001600160a01b0392909216919091179055565b611fdc838383612668565b61092b576001600160a01b03831661200a57604051637e27328960e01b81526004810182905260240161072d565b60405163177e802f60e01b81526001600160a01b03831660048201526024810182905260440161072d565b6104fd825f5f846126cc565b80515f036120625760405163fe936cb760e01b815260040160405180910390fd5b60a090910152565b60605f612078610100612749565b90506120b16040518060400160405280600c81526020016b31b7b232a637b1b0ba34b7b760a11b8152508261276990919063ffffffff16565b82516120cf9060028111156120c8576120c861394d565b8290612782565b6040805180820190915260088152676c616e677561676560c01b60208201526120f9908290612769565b60408301516121109080156120c8576120c861394d565b604080518082019091526006815265736f7572636560d01b6020820152612138908290612769565b6060830151612148908290612769565b60a083015151156121d3576040805180820190915260048152636172677360e01b6020820152612179908290612769565b612182816127bb565b5f5b8360a00151518110156121c9576121c18460a0015182815181106121aa576121aa6138e2565b60200260200101518361276990919063ffffffff16565b600101612184565b506121d3816127df565b60808301515115612296575f836020015160028111156121f5576121f561394d565b036122135760405163a80d31f760e01b815260040160405180910390fd5b60408051808201909152600f81526e39b2b1b932ba39a637b1b0ba34b7b760891b6020820152612244908290612769565b61225d836020015160028111156120c8576120c861394d565b6040805180820190915260078152667365637265747360c81b6020820152612286908290612769565b60808301516122969082906127fd565b60c083015151156123265760408051808201909152600981526862797465734172677360b81b60208201526122cc908290612769565b6122d5816127bb565b5f5b8360c001515181101561231c576123148460c0015182815181106122fd576122fd6138e2565b6020026020010151836127fd90919063ffffffff16565b6001016122d7565b50612326816127df565b515192915050565b5f5f7f00000000000000000000000000000000000000000000000000000000000000006001600160a01b031663461d27628688600188886040518663ffffffff1660e01b8152600401612385959493929190613961565b6020604051808303815f875af11580156123a1573d5f5f3e3d5ffd5b505050506040513d601f19601f820116820180604052508101906123c591906138cb565b60405190915081907f1131472297a800fee664d1d89cfa8f7676ff07189ecc53f80bbb5f4969099db8905f90a295945050505050565b5f8072184f03e93ff9f4daa797ed6e38ed64bf6a1f0160401b83106124395772184f03e93ff9f4daa797ed6e38ed64bf6a1f0160401b830492506040015b6d04ee2d6d415b85acef81000000008310612465576d04ee2d6d415b85acef8100000000830492506020015b662386f26fc10000831061248357662386f26fc10000830492506010015b6305f5e100831061249b576305f5e100830492506008015b61271083106124af57612710830492506004015b606483106124c1576064830492506002015b600a83106105255760010192915050565b606082515f036124f0575060408051602081019091525f8152610525565b5f826125205760038451600261250691906132c8565b6125109190613306565b61251b9060046132db565b612545565b60038451600461253091906132db565b61253b9060026132c8565b6125459190613306565b905060405191507f4142434445464748494a4b4c4d4e4f505152535455565758595a616263646566601f5261067083027f6768696a6b6c6d6e6f707172737475767778797a303132333435363738392b2f18603f526020820181810185865187016020810180515f82525b82841015612603576003840193508351603f8160121c16518753600187019650603f81600c1c16518753600187019650603f8160061c16518753600187019650603f8116518753506001860195506125b0565b90525085905061264457600386510660018114612627576002811461263a57612642565b603d6001840353603d6002840353612642565b603d60018403535b505b9183525060405292915050565b61265b838361280a565b61092b335f858585611d80565b5f6001600160a01b038316158015906126c45750826001600160a01b0316846001600160a01b031614806126a157506126a184846113d4565b806126c457505f828152600460205260409020546001600160a01b038481169116145b949350505050565b80515f036126ed576040516322ce3edd60e01b815260040160405180910390fd5b838360028111156127005761270061394d565b908160028111156127135761271361394d565b905250604084018280156127295761272961394d565b908180156127395761273961394d565b9052506060909301929092525050565b612751612c02565b805161275d908361286b565b505f6020820152919050565b61277682600383516128df565b815161092b90826129f8565b815161278f9060c2612a1f565b506104fd82826040516020016127a791815260200190565b6040516020818303038152906040526127fd565b6127c6816004612a86565b6001816020018181516127d991906132c8565b90525050565b6127ea816007612a86565b6001816020018181516127d991906132b5565b61277682600283516128df565b6001600160a01b03821661283357604051633250574960e11b81525f600482015260240161072d565b5f61283f83835f611924565b90506001600160a01b0381161561092b576040516339e3563760e11b81525f600482015260240161072d565b60408051808201909152606081525f602082015261288a602083613319565b156128b25761289a602083613319565b6128a59060206132b5565b6128af90836132c8565b91505b60208084018390526040518085525f81529081840101818110156128d4575f5ffd5b604052509192915050565b6017816001600160401b0316116129055782516108439060e0600585901b168317612a1f565b60ff816001600160401b03161161294557825161292d906018611fe0600586901b1617612a1f565b508251610843906001600160401b0383166001612a9d565b61ffff816001600160401b03161161298657825161296e906019611fe0600586901b1617612a1f565b508251610843906001600160401b0383166002612a9d565b63ffffffff816001600160401b0316116129c95782516129b190601a611fe0600586901b1617612a1f565b508251610843906001600160401b0383166004612a9d565b82516129e090601b611fe0600586901b1617612a1f565b508251610843906001600160401b0383166008612a9d565b60408051808201909152606081525f6020820152612a1883838451612b1f565b9392505050565b60408051808201909152606081525f60208201528251515f612a428260016132c8565b905084602001518210612a6357612a6385612a5e8360026132db565b612beb565b8451602083820101858153508051821115612a7c578181525b5093949350505050565b815161092b90601f611fe0600585901b1617612a1f565b60408051808201909152606081525f60208201528351515f612abf82856132c8565b90508560200151811115612adc57612adc86612a5e8360026132db565b5f6001612aeb86610100613a8c565b612af591906132b5565b90508651828101878319825116178152508051831115612b13578281525b50959695505050505050565b60408051808201909152606081525f60208201528251821115612b40575f5ffd5b8351515f612b4e84836132c8565b90508560200151811115612b6b57612b6b86612a5e8360026132db565b85518051838201602001915f9180851115612b84578482525b505050602086015b60208610612bc45780518252612ba36020836132c8565b9150612bb06020826132c8565b9050612bbd6020876132b5565b9550612b8c565b5181515f1960208890036101000a0190811690199190911617905250849150509392505050565b8151612bf7838361286b565b5061084383826129f8565b6040518060400160405280612c296040518060400160405280606081526020015f81525090565b81526020015f81525090565b634e487b7160e01b5f52604160045260245ffd5b604051601f8201601f191681016001600160401b0381118282101715612c7157612c71612c35565b604052919050565b5f6001600160401b03821115612c9157612c91612c35565b50601f01601f191660200190565b5f82601f830112612cae575f5ffd5b8135602083015f612cc6612cc184612c79565b612c49565b9050828152858383011115612cd9575f5ffd5b828260208301375f92810160200192909252509392505050565b5f60208284031215612d03575f5ffd5b81356001600160401b03811115612d18575f5ffd5b6126c484828501612c9f565b6001600160e01b03198116811461153e575f5ffd5b5f60208284031215612d49575f5ffd5b8135612a1881612d24565b5f81518084528060208401602086015e5f602082860101526020601f19601f83011685010191505092915050565b602081525f612a186020830184612d54565b5f60208284031215612da4575f5ffd5b5035919050565b80356001600160a01b0381168114612dc1575f5ffd5b919050565b5f5f60408385031215612dd7575f5ffd5b612de083612dab565b946020939093013593505050565b5f5f5f60608486031215612e00575f5ffd5b8335925060208401356001600160401b03811115612e1c575f5ffd5b612e2886828701612c9f565b92505060408401356001600160401b03811115612e43575f5ffd5b612e4f86828701612c9f565b9150509250925092565b5f5f60408385031215612e6a575f5ffd5b50508035926020909101359150565b5f5f5f60608486031215612e8b575f5ffd5b612e9484612dab565b9250612ea260208501612dab565b929592945050506040919091013590565b5f5f60208385031215612ec4575f5ffd5b82356001600160401b03811115612ed9575f5ffd5b8301601f81018513612ee9575f5ffd5b80356001600160401b03811115612efe575f5ffd5b856020828401011115612f0f575f5ffd5b6020919091019590945092505050565b602081525f825160c06020840152612f3a60e0840182612d54565b90506020840151601f19848303016040850152612f578282612d54565b9150506001600160401b0360408501511660608401526001600160401b0360608501511660808401526001600160401b0360808501511660a08401526001600160401b0360a08501511660c08401528091505092915050565b8215158152604060208201525f6126c46040830184612d54565b5f60208284031215612fda575f5ffd5b612a1882612dab565b5f5f60408385031215612ff4575f5ffd5b612ffd83612dab565b915060208301358015158114613011575f5ffd5b809150509250929050565b60c081525f61302e60c0830189612d54565b82810360208401526130408189612d54565b6001600160401b03978816604085015295871660608401525050918416608083015290921660a09092019190915292915050565b5f5f5f5f60808587031215613087575f5ffd5b61309085612dab565b935061309e60208601612dab565b92506040850135915060608501356001600160401b038111156130bf575f5ffd5b6130cb87828801612c9f565b91505092959194509250565b5f5f604083850312156130e8575f5ffd5b6130f183612dab565b91506130ff60208401612dab565b90509250929050565b5f5f5f6060848603121561311a575f5ffd5b61312384612dab565b925060208401356001600160401b03811115612e1c575f5ffd5b600181811c9082168061315157607f821691505b60208210810361316f57634e487b7160e01b5f52602260045260245ffd5b50919050565b601f82111561092b57805f5260205f20601f840160051c8101602085101561319a5750805b601f840160051c820191505b81811015611ea1575f81556001016131a6565b81516001600160401b038111156131d2576131d2612c35565b6131e6816131e0845461313d565b84613175565b6020601f821160018114613218575f83156132015750848201515b5f19600385901b1c1916600184901b178455611ea1565b5f84815260208120601f198516915b828110156132475787850151825560209485019460019092019101613227565b508482101561326457868401515f19600387901b60f8161c191681555b50505050600190811b01905550565b602080825260149082015273151bdad95b881251081d1a59185ac81d985b1a5960621b604082015260600190565b634e487b7160e01b5f52601160045260245ffd5b81810381811115610525576105256132a1565b80820180821115610525576105256132a1565b8082028115828204841417610525576105256132a1565b634e487b7160e01b5f52601260045260245ffd5b5f82613314576133146132f2565b500490565b5f82613327576133276132f2565b500690565b5f81518060208401855e5f93019283525090919050565b600360fc1b81525f612a18600183018461332c565b5f613363828561332c565b601760f91b8152613377600182018561332c565b95945050505050565b5f60208284031215613390575f5ffd5b81516001600160401b038111156133a5575f5ffd5b8201601f810184136133b5575f5ffd5b80516133c3612cc182612c79565b8181528560208385010111156133d7575f5ffd5b8160208401602083015e5f91810160200191909152949350505050565b604081525f835160c06040840152613410610100840182612d54565b90506020850151603f1984830301606085015261342d8282612d54565b9150506001600160401b0360408601511660808401526001600160401b0360608601511660a08401526001600160401b0360808601511660c08401526001600160401b0360a08601511660e084015282810360208401526133778185612d54565b7f3c7376672077696474683d2233323022206865696768743d223430302220766981527f6577426f783d2230203020333230203430302220786d6c6e733d22687474703a60208201527f2f2f7777772e77332e6f72672f323030302f737667223e00000000000000000060408201527f3c672073686170652d72656e646572696e673d2263726973704564676573223e60578201525f613531607783018661332c565b631e17b39f60e11b815261355161354b600483018761332c565b8561332c565b651e17b9bb339f60d11b81526006019695505050505050565b7f7b2274726169745f74797065223a20224e69636b6e616d65222c202276616c7581526432911d101160d91b60208201525f6135a9602583018661332c565b62089f4b60ea1b81527f7b2274726169745f74797065223a20224c616e65222c202276616c7565223a206003820152601160f91b60238201526135ef602482018661332c565b62089f4b60ea1b81527f7b2274726169745f74797065223a202247616d6573222c202276616c7565223a6003820152600160fd1b60238201529050613637602482018561332c565b611f4b60f21b81526002019695505050505050565b7f7b2274726169745f74797065223a20224b696c6c73222c202276616c7565223a8152600160fd1b60208201525f613687602183018661332c565b611f4b60f21b81527f7b2274726169745f74797065223a2022446561746873222c202276616c75652260028201526101d160f51b60228201526136cd602482018661332c565b611f4b60f21b81527f7b2274726169745f74797065223a202241737369737473222c202276616c75656002820152620111d160ed1b60228201529050613716602582018561332c565b607d60f81b81526001019695505050505050565b737b226e616d65223a20224d504c2043617264202360601b81525f613752601483018761332c565b6201116160ed1b81527f226465736372697074696f6e223a20224b6172747520644e4654204d504c204960038201527f6e646f6e657369612e2053746174697374696b2070656d61696e20646970657260238201527f626172756920736563617261207265616c2d74696d652064617269204150492060438201527f6d656c616c756920436861696e6c696e6b2046756e6374696f6e732e222c200060638201526e2261747472696275746573223a205b60881b608282015261382161381b609183018861332c565b8661332c565b90506202e96160ed1b81527f22696d616765223a2022646174613a696d6167652f7376672b786d6c3b626173600382015263194d8d0b60e21b602382015261386c602782018561332c565b61227d60f01b8152600201979650505050505050565b7f646174613a6170706c69636174696f6e2f6a736f6e3b6261736536342c00000081525f612a18601d83018461332c565b5f600182016138c4576138c46132a1565b5060010190565b5f602082840312156138db575f5ffd5b5051919050565b634e487b7160e01b5f52603260045260245ffd5b6001600160a01b03858116825284166020820152604081018390526080606082018190525f9061392890830184612d54565b9695505050505050565b5f60208284031215613942575f5ffd5b8151612a1881612d24565b634e487b7160e01b5f52602160045260245ffd5b6001600160401b038616815260a060208201525f61398260a0830187612d54565b61ffff9590951660408301525063ffffffff92909216606083015260809091015292915050565b6001815b60018411156139e4578085048111156139c8576139c86132a1565b60018416156139d657908102905b60019390931c9280026139ad565b935093915050565b5f826139fa57506001610525565b81613a0657505f610525565b8160018114613a1c5760028114613a2657613a42565b6001915050610525565b60ff841115613a3757613a376132a1565b50506001821b610525565b5060208310610133831016604e8410600b8410161715613a65575081810a610525565b613a715f1984846139a9565b805f1904821115613a8457613a846132a1565b029392505050565b5f612a1883836139ec56fea2646970667358221220b32e7e2433ff0d01529a0af6803627521b094187552e96484d028f9ecae86c9d64736f6c634300081e0033",
			"opcodes": "PUSH1 0xA0 PUSH1 0x40 MSTORE PUSH1 0x9 DUP1 SLOAD PUSH1 0x1 PUSH1 0x1 PUSH1 0xA0 SHL SUB NOT AND PUSH20 0xB83E47C2BC239B3BF370BC41E1459A34B41238D0 OR SWAP1 SSTORE PUSH32 0x66756E2D657468657265756D2D7365706F6C69612D3100000000000000000000 PUSH1 0xA SSTORE PUSH3 0x15180 PUSH1 0xE SSTORE CALLVALUE DUP1 ISZERO PUSH2 0x60 JUMPI PUSH0 PUSH0 REVERT JUMPDEST POP PUSH1 0x40 MLOAD PUSH2 0x3E15 CODESIZE SUB DUP1 PUSH2 0x3E15 DUP4 CODECOPY DUP2 ADD PUSH1 0x40 DUP2 SWAP1 MSTORE PUSH2 0x7F SWAP2 PUSH2 0x1AA JUMP JUMPDEST PUSH1 0x9 SLOAD PUSH1 0x40 DUP1 MLOAD DUP1 DUP3 ADD DUP3 MSTORE PUSH1 0xF DUP2 MSTORE PUSH15 0x13541308141B185E595C8810D85C99 PUSH1 0x8A SHL PUSH1 0x20 DUP1 DUP4 ADD SWAP2 SWAP1 SWAP2 MSTORE DUP3 MLOAD DUP1 DUP5 ADD SWAP1 SWAP4 MSTORE PUSH1 0x5 DUP4 MSTORE PUSH5 0x4D504C5043 PUSH1 0xD8 SHL SWAP1 DUP4 ADD MSTORE PUSH1 0x1 PUSH1 0x1 PUSH1 0xA0 SHL SUB SWAP1 SWAP3 AND SWAP2 CALLER SWAP2 PUSH0 PUSH2 0xDD DUP4 DUP3 PUSH2 0x26F JUMP JUMPDEST POP PUSH1 0x1 PUSH2 0xEA DUP3 DUP3 PUSH2 0x26F JUMP JUMPDEST POP POP POP PUSH1 0x1 PUSH1 0x1 PUSH1 0xA0 SHL SUB DUP2 AND PUSH2 0x11A JUMPI PUSH1 0x40 MLOAD PUSH4 0x1E4FBDF7 PUSH1 0xE0 SHL DUP2 MSTORE PUSH0 PUSH1 0x4 DUP3 ADD MSTORE PUSH1 0x24 ADD PUSH1 0x40 MLOAD DUP1 SWAP2 SUB SWAP1 REVERT JUMPDEST PUSH2 0x123 DUP2 PUSH2 0x159 JUMP JUMPDEST POP PUSH1 0x1 PUSH1 0x1 PUSH1 0xA0 SHL SUB AND PUSH1 0x80 MSTORE PUSH1 0xB DUP1 SLOAD PUSH1 0x1 PUSH1 0x1 PUSH1 0x40 SHL SUB NOT AND PUSH1 0x1 PUSH1 0x1 PUSH1 0x40 SHL SUB SWAP3 SWAP1 SWAP3 AND SWAP2 SWAP1 SWAP2 OR SWAP1 SSTORE TIMESTAMP PUSH1 0xD SSTORE PUSH2 0x329 JUMP JUMPDEST PUSH1 0x7 DUP1 SLOAD PUSH1 0x1 PUSH1 0x1 PUSH1 0xA0 SHL SUB DUP4 DUP2 AND PUSH1 0x1 PUSH1 0x1 PUSH1 0xA0 SHL SUB NOT DUP4 AND DUP2 OR SWAP1 SWAP4 SSTORE PUSH1 0x40 MLOAD SWAP2 AND SWAP2 SWAP1 DUP3 SWAP1 PUSH32 0x8BE0079C531659141344CD1FD0A4F28419497F9722A3DAAFE3B4186F6B6457E0 SWAP1 PUSH0 SWAP1 LOG3 POP POP JUMP JUMPDEST PUSH0 PUSH1 0x20 DUP3 DUP5 SUB SLT ISZERO PUSH2 0x1BA JUMPI PUSH0 PUSH0 REVERT JUMPDEST DUP2 MLOAD PUSH1 0x1 PUSH1 0x1 PUSH1 0x40 SHL SUB DUP2 AND DUP2 EQ PUSH2 0x1D0 JUMPI PUSH0 PUSH0 REVERT JUMPDEST SWAP4 SWAP3 POP POP POP JUMP JUMPDEST PUSH4 0x4E487B71 PUSH1 0xE0 SHL PUSH0 MSTORE PUSH1 0x41 PUSH1 0x4 MSTORE PUSH1 0x24 PUSH0 REVERT JUMPDEST PUSH1 0x1 DUP2 DUP2 SHR SWAP1 DUP3 AND DUP1 PUSH2 0x1FF JUMPI PUSH1 0x7F DUP3 AND SWAP2 POP JUMPDEST PUSH1 0x20 DUP3 LT DUP2 SUB PUSH2 0x21D JUMPI PUSH4 0x4E487B71 PUSH1 0xE0 SHL PUSH0 MSTORE PUSH1 0x22 PUSH1 0x4 MSTORE PUSH1 0x24 PUSH0 REVERT JUMPDEST POP SWAP2 SWAP1 POP JUMP JUMPDEST PUSH1 0x1F DUP3 GT ISZERO PUSH2 0x26A JUMPI DUP1 PUSH0 MSTORE PUSH1 0x20 PUSH0 KECCAK256 PUSH1 0x1F DUP5 ADD PUSH1 0x5 SHR DUP2 ADD PUSH1 0x20 DUP6 LT ISZERO PUSH2 0x248 JUMPI POP DUP1 JUMPDEST PUSH1 0x1F DUP5 ADD PUSH1 0x5 SHR DUP3 ADD SWAP2 POP JUMPDEST DUP2 DUP2 LT ISZERO PUSH2 0x267 JUMPI PUSH0 DUP2 SSTORE PUSH1 0x1 ADD PUSH2 0x254 JUMP JUMPDEST POP POP JUMPDEST POP POP POP JUMP JUMPDEST DUP2 MLOAD PUSH1 0x1 PUSH1 0x1 PUSH1 0x40 SHL SUB DUP2 GT ISZERO PUSH2 0x288 JUMPI PUSH2 0x288 PUSH2 0x1D7 JUMP JUMPDEST PUSH2 0x29C DUP2 PUSH2 0x296 DUP5 SLOAD PUSH2 0x1EB JUMP JUMPDEST DUP5 PUSH2 0x223 JUMP JUMPDEST PUSH1 0x20 PUSH1 0x1F DUP3 GT PUSH1 0x1 DUP2 EQ PUSH2 0x2CE JUMPI PUSH0 DUP4 ISZERO PUSH2 0x2B7 JUMPI POP DUP5 DUP3 ADD MLOAD JUMPDEST PUSH0 NOT PUSH1 0x3 DUP6 SWAP1 SHL SHR NOT AND PUSH1 0x1 DUP5 SWAP1 SHL OR DUP5 SSTORE PUSH2 0x267 JUMP JUMPDEST PUSH0 DUP5 DUP2 MSTORE PUSH1 0x20 DUP2 KECCAK256 PUSH1 0x1F NOT DUP6 AND SWAP2 JUMPDEST DUP3 DUP2 LT ISZERO PUSH2 0x2FD JUMPI DUP8 DUP6 ADD MLOAD DUP3 SSTORE PUSH1 0x20 SWAP5 DUP6 ADD SWAP5 PUSH1 0x1 SWAP1 SWAP3 ADD SWAP2 ADD PUSH2 0x2DD JUMP JUMPDEST POP DUP5 DUP3 LT ISZERO PUSH2 0x31A JUMPI DUP7 DUP5 ADD MLOAD PUSH0 NOT PUSH1 0x3 DUP8 SWAP1 SHL PUSH1 0xF8 AND SHR NOT AND DUP2 SSTORE JUMPDEST POP POP POP POP PUSH1 0x1 SWAP1 DUP2 SHL ADD SWAP1 SSTORE POP JUMP JUMPDEST PUSH1 0x80 MLOAD PUSH2 0x3ACD PUSH2 0x348 PUSH0 CODECOPY PUSH0 DUP2 DUP2 PUSH2 0x5F7 ADD MSTORE PUSH2 0x2332 ADD MSTORE PUSH2 0x3ACD PUSH0 RETURN INVALID PUSH1 0x80 PUSH1 0x40 MSTORE CALLVALUE DUP1 ISZERO PUSH2 0xF JUMPI PUSH0 PUSH0 REVERT JUMPDEST POP PUSH1 0x4 CALLDATASIZE LT PUSH2 0x207 JUMPI PUSH0 CALLDATALOAD PUSH1 0xE0 SHR DUP1 PUSH4 0x6352211E GT PUSH2 0x11F JUMPI DUP1 PUSH4 0x95D89B41 GT PUSH2 0xA9 JUMPI DUP1 PUSH4 0xC87B56DD GT PUSH2 0x79 JUMPI DUP1 PUSH4 0xC87B56DD EQ PUSH2 0x494 JUMPI DUP1 PUSH4 0xE049D709 EQ PUSH2 0x4A7 JUMPI DUP1 PUSH4 0xE985E9C5 EQ PUSH2 0x4B0 JUMPI DUP1 PUSH4 0xECA81D42 EQ PUSH2 0x4C3 JUMPI DUP1 PUSH4 0xF2FDE38B EQ PUSH2 0x4D6 JUMPI PUSH0 PUSH0 REVERT JUMPDEST DUP1 PUSH4 0x95D89B41 EQ PUSH2 0x441 JUMPI DUP1 PUSH4 0xA22CB465 EQ PUSH2 0x449 JUMPI DUP1 PUSH4 0xB4CFAE44 EQ PUSH2 0x45C JUMPI DUP1 PUSH4 0xB88D4FDE EQ PUSH2 0x481 JUMPI PUSH0 PUSH0 REVERT JUMPDEST DUP1 PUSH4 0x70A08231 GT PUSH2 0xEF JUMPI DUP1 PUSH4 0x70A08231 EQ PUSH2 0x403 JUMPI DUP1 PUSH4 0x715018A6 EQ PUSH2 0x416 JUMPI DUP1 PUSH4 0x8DA5CB5B EQ PUSH2 0x41E JUMPI DUP1 PUSH4 0x947A36FB EQ PUSH2 0x42F JUMPI DUP1 PUSH4 0x94881476 EQ PUSH2 0x438 JUMPI PUSH0 PUSH0 REVERT JUMPDEST DUP1 PUSH4 0x6352211E EQ PUSH2 0x39D JUMPI DUP1 PUSH4 0x68015A4B EQ PUSH2 0x3B0 JUMPI DUP1 PUSH4 0x6DCEE4CA EQ PUSH2 0x3CF JUMPI DUP1 PUSH4 0x6E04FF0D EQ PUSH2 0x3E2 JUMPI PUSH0 PUSH0 REVERT JUMPDEST DUP1 PUSH4 0x18160DDD GT PUSH2 0x1A0 JUMPI DUP1 PUSH4 0x2839B78F GT PUSH2 0x170 JUMPI DUP1 PUSH4 0x2839B78F EQ PUSH2 0x33B JUMPI DUP1 PUSH4 0x3F3B3B27 EQ PUSH2 0x34E JUMPI DUP1 PUSH4 0x42842E0E EQ PUSH2 0x357 JUMPI DUP1 PUSH4 0x4585E33B EQ PUSH2 0x36A JUMPI DUP1 PUSH4 0x5C2ADF6A EQ PUSH2 0x37D JUMPI PUSH0 PUSH0 REVERT JUMPDEST DUP1 PUSH4 0x18160DDD EQ PUSH2 0x2E1 JUMPI DUP1 PUSH4 0x20457FB6 EQ PUSH2 0x2F3 JUMPI DUP1 PUSH4 0x22E817E2 EQ PUSH2 0x315 JUMPI DUP1 PUSH4 0x23B872DD EQ PUSH2 0x328 JUMPI PUSH0 PUSH0 REVERT JUMPDEST DUP1 PUSH4 0x95EA7B3 GT PUSH2 0x1DB JUMPI DUP1 PUSH4 0x95EA7B3 EQ PUSH2 0x288 JUMPI DUP1 PUSH4 0x9C1BA2E EQ PUSH2 0x29B JUMPI DUP1 PUSH4 0xCA76175 EQ PUSH2 0x2C6 JUMPI DUP1 PUSH4 0x13C60177 EQ PUSH2 0x2D9 JUMPI PUSH0 PUSH0 REVERT JUMPDEST DUP1 PUSH3 0xB46767 EQ PUSH2 0x20B JUMPI DUP1 PUSH4 0x1FFC9A7 EQ PUSH2 0x220 JUMPI DUP1 PUSH4 0x6FDDE03 EQ PUSH2 0x248 JUMPI DUP1 PUSH4 0x81812FC EQ PUSH2 0x25D JUMPI JUMPDEST PUSH0 PUSH0 REVERT JUMPDEST PUSH2 0x21E PUSH2 0x219 CALLDATASIZE PUSH1 0x4 PUSH2 0x2CF3 JUMP JUMPDEST PUSH2 0x4E9 JUMP JUMPDEST STOP JUMPDEST PUSH2 0x233 PUSH2 0x22E CALLDATASIZE PUSH1 0x4 PUSH2 0x2D39 JUMP JUMPDEST PUSH2 0x501 JUMP JUMPDEST PUSH1 0x40 MLOAD SWAP1 ISZERO ISZERO DUP2 MSTORE PUSH1 0x20 ADD JUMPDEST PUSH1 0x40 MLOAD DUP1 SWAP2 SUB SWAP1 RETURN JUMPDEST PUSH2 0x250 PUSH2 0x52B JUMP JUMPDEST PUSH1 0x40 MLOAD PUSH2 0x23F SWAP2 SWAP1 PUSH2 0x2D82 JUMP JUMPDEST PUSH2 0x270 PUSH2 0x26B CALLDATASIZE PUSH1 0x4 PUSH2 0x2D94 JUMP JUMPDEST PUSH2 0x5BA JUMP JUMPDEST PUSH1 0x40 MLOAD PUSH1 0x1 PUSH1 0x1 PUSH1 0xA0 SHL SUB SWAP1 SWAP2 AND DUP2 MSTORE PUSH1 0x20 ADD PUSH2 0x23F JUMP JUMPDEST PUSH2 0x21E PUSH2 0x296 CALLDATASIZE PUSH1 0x4 PUSH2 0x2DC6 JUMP JUMPDEST PUSH2 0x5E1 JUMP JUMPDEST PUSH1 0xB SLOAD PUSH2 0x2AE SWAP1 PUSH1 0x1 PUSH1 0x1 PUSH1 0x40 SHL SUB AND DUP2 JUMP JUMPDEST PUSH1 0x40 MLOAD PUSH1 0x1 PUSH1 0x1 PUSH1 0x40 SHL SUB SWAP1 SWAP2 AND DUP2 MSTORE PUSH1 0x20 ADD PUSH2 0x23F JUMP JUMPDEST PUSH2 0x21E PUSH2 0x2D4 CALLDATASIZE PUSH1 0x4 PUSH2 0x2DEE JUMP JUMPDEST PUSH2 0x5EC JUMP JUMPDEST PUSH2 0x250 PUSH2 0x66F JUMP JUMPDEST PUSH1 0x8 SLOAD JUMPDEST PUSH1 0x40 MLOAD SWAP1 DUP2 MSTORE PUSH1 0x20 ADD PUSH2 0x23F JUMP JUMPDEST PUSH2 0x233 PUSH2 0x301 CALLDATASIZE PUSH1 0x4 PUSH2 0x2D94 JUMP JUMPDEST PUSH1 0x12 PUSH1 0x20 MSTORE PUSH0 SWAP1 DUP2 MSTORE PUSH1 0x40 SWAP1 KECCAK256 SLOAD PUSH1 0xFF AND DUP2 JUMP JUMPDEST PUSH2 0x21E PUSH2 0x323 CALLDATASIZE PUSH1 0x4 PUSH2 0x2E59 JUMP JUMPDEST PUSH2 0x6FB JUMP JUMPDEST PUSH2 0x21E PUSH2 0x336 CALLDATASIZE PUSH1 0x4 PUSH2 0x2E79 JUMP JUMPDEST PUSH2 0x7C0 JUMP JUMPDEST PUSH2 0x21E PUSH2 0x349 CALLDATASIZE PUSH1 0x4 PUSH2 0x2D94 JUMP JUMPDEST PUSH2 0x849 JUMP JUMPDEST PUSH2 0x2E5 PUSH1 0xD SLOAD DUP2 JUMP JUMPDEST PUSH2 0x21E PUSH2 0x365 CALLDATASIZE PUSH1 0x4 PUSH2 0x2E79 JUMP JUMPDEST PUSH2 0x911 JUMP JUMPDEST PUSH2 0x21E PUSH2 0x378 CALLDATASIZE PUSH1 0x4 PUSH2 0x2EB3 JUMP JUMPDEST PUSH2 0x930 JUMP JUMPDEST PUSH2 0x390 PUSH2 0x38B CALLDATASIZE PUSH1 0x4 PUSH2 0x2D94 JUMP JUMPDEST PUSH2 0x96B JUMP JUMPDEST PUSH1 0x40 MLOAD PUSH2 0x23F SWAP2 SWAP1 PUSH2 0x2F1F JUMP JUMPDEST PUSH2 0x270 PUSH2 0x3AB CALLDATASIZE PUSH1 0x4 PUSH2 0x2D94 JUMP JUMPDEST PUSH2 0xB3B JUMP JUMPDEST PUSH2 0x2E5 PUSH2 0x3BE CALLDATASIZE PUSH1 0x4 PUSH2 0x2D94 JUMP JUMPDEST PUSH1 0x11 PUSH1 0x20 MSTORE PUSH0 SWAP1 DUP2 MSTORE PUSH1 0x40 SWAP1 KECCAK256 SLOAD DUP2 JUMP JUMPDEST PUSH2 0x250 PUSH2 0x3DD CALLDATASIZE PUSH1 0x4 PUSH2 0x2D94 JUMP JUMPDEST PUSH2 0xB45 JUMP JUMPDEST PUSH2 0x3F5 PUSH2 0x3F0 CALLDATASIZE PUSH1 0x4 PUSH2 0x2EB3 JUMP JUMPDEST PUSH2 0xF2F JUMP JUMPDEST PUSH1 0x40 MLOAD PUSH2 0x23F SWAP3 SWAP2 SWAP1 PUSH2 0x2FB0 JUMP JUMPDEST PUSH2 0x2E5 PUSH2 0x411 CALLDATASIZE PUSH1 0x4 PUSH2 0x2FCA JUMP JUMPDEST PUSH2 0xF6D JUMP JUMPDEST PUSH2 0x21E PUSH2 0xFB2 JUMP JUMPDEST PUSH1 0x7 SLOAD PUSH1 0x1 PUSH1 0x1 PUSH1 0xA0 SHL SUB AND PUSH2 0x270 JUMP JUMPDEST PUSH2 0x2E5 PUSH1 0xE SLOAD DUP2 JUMP JUMPDEST PUSH2 0x2E5 PUSH1 0xF SLOAD DUP2 JUMP JUMPDEST PUSH2 0x250 PUSH2 0xFC5 JUMP JUMPDEST PUSH2 0x21E PUSH2 0x457 CALLDATASIZE PUSH1 0x4 PUSH2 0x2FE3 JUMP JUMPDEST PUSH2 0xFD4 JUMP JUMPDEST PUSH2 0x46F PUSH2 0x46A CALLDATASIZE PUSH1 0x4 PUSH2 0x2D94 JUMP JUMPDEST PUSH2 0xFDF JUMP JUMPDEST PUSH1 0x40 MLOAD PUSH2 0x23F SWAP7 SWAP6 SWAP5 SWAP4 SWAP3 SWAP2 SWAP1 PUSH2 0x301C JUMP JUMPDEST PUSH2 0x21E PUSH2 0x48F CALLDATASIZE PUSH1 0x4 PUSH2 0x3074 JUMP JUMPDEST PUSH2 0x1134 JUMP JUMPDEST PUSH2 0x250 PUSH2 0x4A2 CALLDATASIZE PUSH1 0x4 PUSH2 0x2D94 JUMP JUMPDEST PUSH2 0x114C JUMP JUMPDEST PUSH2 0x2E5 PUSH2 0xE10 DUP2 JUMP JUMPDEST PUSH2 0x233 PUSH2 0x4BE CALLDATASIZE PUSH1 0x4 PUSH2 0x30D7 JUMP JUMPDEST PUSH2 0x13D4 JUMP JUMPDEST PUSH2 0x21E PUSH2 0x4D1 CALLDATASIZE PUSH1 0x4 PUSH2 0x3108 JUMP JUMPDEST PUSH2 0x1401 JUMP JUMPDEST PUSH2 0x21E PUSH2 0x4E4 CALLDATASIZE PUSH1 0x4 PUSH2 0x2FCA JUMP JUMPDEST PUSH2 0x1504 JUMP JUMPDEST PUSH2 0x4F1 PUSH2 0x1541 JUMP JUMPDEST PUSH1 0xC PUSH2 0x4FD DUP3 DUP3 PUSH2 0x31B9 JUMP JUMPDEST POP POP JUMP JUMPDEST PUSH0 PUSH1 0x1 PUSH1 0x1 PUSH1 0xE0 SHL SUB NOT DUP3 AND PUSH4 0x24832483 PUSH1 0xE1 SHL EQ DUP1 PUSH2 0x525 JUMPI POP PUSH2 0x525 DUP3 PUSH2 0x156E JUMP JUMPDEST SWAP3 SWAP2 POP POP JUMP JUMPDEST PUSH1 0x60 PUSH0 DUP1 SLOAD PUSH2 0x539 SWAP1 PUSH2 0x313D JUMP JUMPDEST DUP1 PUSH1 0x1F ADD PUSH1 0x20 DUP1 SWAP2 DIV MUL PUSH1 0x20 ADD PUSH1 0x40 MLOAD SWAP1 DUP2 ADD PUSH1 0x40 MSTORE DUP1 SWAP3 SWAP2 SWAP1 DUP2 DUP2 MSTORE PUSH1 0x20 ADD DUP3 DUP1 SLOAD PUSH2 0x565 SWAP1 PUSH2 0x313D JUMP JUMPDEST DUP1 ISZERO PUSH2 0x5B0 JUMPI DUP1 PUSH1 0x1F LT PUSH2 0x587 JUMPI PUSH2 0x100 DUP1 DUP4 SLOAD DIV MUL DUP4 MSTORE SWAP2 PUSH1 0x20 ADD SWAP2 PUSH2 0x5B0 JUMP JUMPDEST DUP3 ADD SWAP2 SWAP1 PUSH0 MSTORE PUSH1 0x20 PUSH0 KECCAK256 SWAP1 JUMPDEST DUP2 SLOAD DUP2 MSTORE SWAP1 PUSH1 0x1 ADD SWAP1 PUSH1 0x20 ADD DUP1 DUP4 GT PUSH2 0x593 JUMPI DUP3 SWAP1 SUB PUSH1 0x1F AND DUP3 ADD SWAP2 JUMPDEST POP POP POP POP POP SWAP1 POP SWAP1 JUMP JUMPDEST PUSH0 PUSH2 0x5C4 DUP3 PUSH2 0x15BD JUMP JUMPDEST POP PUSH0 DUP3 DUP2 MSTORE PUSH1 0x4 PUSH1 0x20 MSTORE PUSH1 0x40 SWAP1 KECCAK256 SLOAD PUSH1 0x1 PUSH1 0x1 PUSH1 0xA0 SHL SUB AND PUSH2 0x525 JUMP JUMPDEST PUSH2 0x4FD DUP3 DUP3 CALLER PUSH2 0x15F5 JUMP JUMPDEST CALLER PUSH1 0x1 PUSH1 0x1 PUSH1 0xA0 SHL SUB PUSH32 0x0 AND EQ PUSH2 0x635 JUMPI PUSH1 0x40 MLOAD PUSH4 0xC6829F83 PUSH1 0xE0 SHL DUP2 MSTORE PUSH1 0x4 ADD PUSH1 0x40 MLOAD DUP1 SWAP2 SUB SWAP1 REVERT JUMPDEST PUSH2 0x640 DUP4 DUP4 DUP4 PUSH2 0x1602 JUMP JUMPDEST PUSH1 0x40 MLOAD DUP4 SWAP1 PUSH32 0x85E1543BF2F84FE80C6BADBCE3648C8539AD1DF4D2B3D822938CA0538BE727E6 SWAP1 PUSH0 SWAP1 LOG2 POP POP POP JUMP JUMPDEST PUSH1 0xC DUP1 SLOAD PUSH2 0x67C SWAP1 PUSH2 0x313D JUMP JUMPDEST DUP1 PUSH1 0x1F ADD PUSH1 0x20 DUP1 SWAP2 DIV MUL PUSH1 0x20 ADD PUSH1 0x40 MLOAD SWAP1 DUP2 ADD PUSH1 0x40 MSTORE DUP1 SWAP3 SWAP2 SWAP1 DUP2 DUP2 MSTORE PUSH1 0x20 ADD DUP3 DUP1 SLOAD PUSH2 0x6A8 SWAP1 PUSH2 0x313D JUMP JUMPDEST DUP1 ISZERO PUSH2 0x6F3 JUMPI DUP1 PUSH1 0x1F LT PUSH2 0x6CA JUMPI PUSH2 0x100 DUP1 DUP4 SLOAD DIV MUL DUP4 MSTORE SWAP2 PUSH1 0x20 ADD SWAP2 PUSH2 0x6F3 JUMP JUMPDEST DUP3 ADD SWAP2 SWAP1 PUSH0 MSTORE PUSH1 0x20 PUSH0 KECCAK256 SWAP1 JUMPDEST DUP2 SLOAD DUP2 MSTORE SWAP1 PUSH1 0x1 ADD SWAP1 PUSH1 0x20 ADD DUP1 DUP4 GT PUSH2 0x6D6 JUMPI DUP3 SWAP1 SUB PUSH1 0x1F AND DUP3 ADD SWAP2 JUMPDEST POP POP POP POP POP DUP2 JUMP JUMPDEST PUSH2 0x703 PUSH2 0x1541 JUMP JUMPDEST PUSH2 0xE10 DUP3 LT ISZERO PUSH2 0x736 JUMPI PUSH1 0x40 MLOAD PUSH4 0x4D5A709 PUSH1 0xE4 SHL DUP2 MSTORE PUSH1 0x4 DUP2 ADD DUP4 SWAP1 MSTORE PUSH2 0xE10 PUSH1 0x24 DUP3 ADD MSTORE PUSH1 0x44 ADD JUMPDEST PUSH1 0x40 MLOAD DUP1 SWAP2 SUB SWAP1 REVERT JUMPDEST PUSH1 0x8 SLOAD PUSH0 SUB PUSH2 0x758 JUMPI PUSH1 0x40 MLOAD PUSH4 0xD31B331D PUSH1 0xE0 SHL DUP2 MSTORE PUSH1 0x4 ADD PUSH1 0x40 MLOAD DUP1 SWAP2 SUB SWAP1 REVERT JUMPDEST PUSH1 0x8 SLOAD DUP2 LT PUSH2 0x779 JUMPI PUSH1 0x40 MLOAD PUSH3 0x461BCD PUSH1 0xE5 SHL DUP2 MSTORE PUSH1 0x4 ADD PUSH2 0x72D SWAP1 PUSH2 0x3273 JUMP JUMPDEST PUSH1 0xE DUP3 SWAP1 SSTORE PUSH1 0xF DUP2 SWAP1 SSTORE PUSH1 0x40 DUP1 MLOAD DUP4 DUP2 MSTORE PUSH1 0x20 DUP2 ADD DUP4 SWAP1 MSTORE PUSH32 0x64586ACD58623513AAC74E3F48F97302B3E5020B31C103C3254EB9EA68BC49F2 SWAP2 ADD PUSH1 0x40 MLOAD DUP1 SWAP2 SUB SWAP1 LOG1 POP POP JUMP JUMPDEST PUSH1 0x1 PUSH1 0x1 PUSH1 0xA0 SHL SUB DUP3 AND PUSH2 0x7E9 JUMPI PUSH1 0x40 MLOAD PUSH4 0x32505749 PUSH1 0xE1 SHL DUP2 MSTORE PUSH0 PUSH1 0x4 DUP3 ADD MSTORE PUSH1 0x24 ADD PUSH2 0x72D JUMP JUMPDEST PUSH0 PUSH2 0x7F5 DUP4 DUP4 CALLER PUSH2 0x1924 JUMP JUMPDEST SWAP1 POP DUP4 PUSH1 0x1 PUSH1 0x1 PUSH1 0xA0 SHL SUB AND DUP2 PUSH1 0x1 PUSH1 0x1 PUSH1 0xA0 SHL SUB AND EQ PUSH2 0x843 JUMPI PUSH1 0x40 MLOAD PUSH4 0x64283D7B PUSH1 0xE0 SHL DUP2 MSTORE PUSH1 0x1 PUSH1 0x1 PUSH1 0xA0 SHL SUB DUP1 DUP7 AND PUSH1 0x4 DUP4 ADD MSTORE PUSH1 0x24 DUP3 ADD DUP5 SWAP1 MSTORE DUP3 AND PUSH1 0x44 DUP3 ADD MSTORE PUSH1 0x64 ADD PUSH2 0x72D JUMP JUMPDEST POP POP POP POP JUMP JUMPDEST PUSH2 0x851 PUSH2 0x1541 JUMP JUMPDEST PUSH1 0x8 SLOAD DUP2 LT PUSH2 0x872 JUMPI PUSH1 0x40 MLOAD PUSH3 0x461BCD PUSH1 0xE5 SHL DUP2 MSTORE PUSH1 0x4 ADD PUSH2 0x72D SWAP1 PUSH2 0x3273 JUMP JUMPDEST PUSH0 DUP2 DUP2 MSTORE PUSH1 0x10 PUSH1 0x20 MSTORE PUSH1 0x40 SWAP1 KECCAK256 DUP1 SLOAD PUSH2 0x4FD SWAP2 DUP4 SWAP2 PUSH2 0x890 SWAP1 PUSH2 0x313D JUMP JUMPDEST DUP1 PUSH1 0x1F ADD PUSH1 0x20 DUP1 SWAP2 DIV MUL PUSH1 0x20 ADD PUSH1 0x40 MLOAD SWAP1 DUP2 ADD PUSH1 0x40 MSTORE DUP1 SWAP3 SWAP2 SWAP1 DUP2 DUP2 MSTORE PUSH1 0x20 ADD DUP3 DUP1 SLOAD PUSH2 0x8BC SWAP1 PUSH2 0x313D JUMP JUMPDEST DUP1 ISZERO PUSH2 0x907 JUMPI DUP1 PUSH1 0x1F LT PUSH2 0x8DE JUMPI PUSH2 0x100 DUP1 DUP4 SLOAD DIV MUL DUP4 MSTORE SWAP2 PUSH1 0x20 ADD SWAP2 PUSH2 0x907 JUMP JUMPDEST DUP3 ADD SWAP2 SWAP1 PUSH0 MSTORE PUSH1 0x20 PUSH0 KECCAK256 SWAP1 JUMPDEST DUP2 SLOAD DUP2 MSTORE SWAP1 PUSH1 0x1 ADD SWAP1 PUSH1 0x20 ADD DUP1 DUP4 GT PUSH2 0x8EA JUMPI DUP3 SWAP1 SUB PUSH1 0x1F AND DUP3 ADD SWAP2 JUMPDEST POP POP POP POP POP PUSH2 0x1A16 JUMP JUMPDEST PUSH2 0x92B DUP4 DUP4 DUP4 PUSH1 0x40 MLOAD DUP1 PUSH1 0x20 ADD PUSH1 0x40 MSTORE DUP1 PUSH0 DUP2 MSTORE POP PUSH2 0x1134 JUMP JUMPDEST POP POP POP JUMP JUMPDEST PUSH1 0xE SLOAD PUSH1 0xD SLOAD PUSH2 0x940 SWAP1 TIMESTAMP PUSH2 0x32B5 JUMP JUMPDEST GT ISZERO PUSH2 0x4FD JUMPI TIMESTAMP PUSH1 0xD SSTORE PUSH1 0xF SLOAD PUSH0 DUP2 DUP2 MSTORE PUSH1 0x10 PUSH1 0x20 MSTORE PUSH1 0x40 SWAP1 KECCAK256 DUP1 SLOAD PUSH2 0x92B SWAP3 SWAP2 SWAP1 PUSH2 0x890 SWAP1 PUSH2 0x313D JUMP JUMPDEST PUSH1 0x40 DUP1 MLOAD PUSH1 0xC0 DUP2 ADD DUP3 MSTORE PUSH1 0x60 DUP1 DUP3 MSTORE PUSH1 0x20 DUP3 ADD DUP2 SWAP1 MSTORE PUSH0 SWAP3 DUP3 ADD DUP4 SWAP1 MSTORE DUP2 ADD DUP3 SWAP1 MSTORE PUSH1 0x80 DUP2 ADD DUP3 SWAP1 MSTORE PUSH1 0xA0 DUP2 ADD SWAP2 SWAP1 SWAP2 MSTORE PUSH1 0x8 SLOAD DUP3 LT PUSH2 0x9BD JUMPI PUSH1 0x40 MLOAD PUSH3 0x461BCD PUSH1 0xE5 SHL DUP2 MSTORE PUSH1 0x4 ADD PUSH2 0x72D SWAP1 PUSH2 0x3273 JUMP JUMPDEST PUSH0 DUP3 DUP2 MSTORE PUSH1 0x10 PUSH1 0x20 MSTORE PUSH1 0x40 SWAP1 DUP2 SWAP1 KECCAK256 DUP2 MLOAD PUSH1 0xC0 DUP2 ADD SWAP1 SWAP3 MSTORE DUP1 SLOAD DUP3 SWAP1 DUP3 SWAP1 PUSH2 0x9E4 SWAP1 PUSH2 0x313D JUMP JUMPDEST DUP1 PUSH1 0x1F ADD PUSH1 0x20 DUP1 SWAP2 DIV MUL PUSH1 0x20 ADD PUSH1 0x40 MLOAD SWAP1 DUP2 ADD PUSH1 0x40 MSTORE DUP1 SWAP3 SWAP2 SWAP1 DUP2 DUP2 MSTORE PUSH1 0x20 ADD DUP3 DUP1 SLOAD PUSH2 0xA10 SWAP1 PUSH2 0x313D JUMP JUMPDEST DUP1 ISZERO PUSH2 0xA5B JUMPI DUP1 PUSH1 0x1F LT PUSH2 0xA32 JUMPI PUSH2 0x100 DUP1 DUP4 SLOAD DIV MUL DUP4 MSTORE SWAP2 PUSH1 0x20 ADD SWAP2 PUSH2 0xA5B JUMP JUMPDEST DUP3 ADD SWAP2 SWAP1 PUSH0 MSTORE PUSH1 0x20 PUSH0 KECCAK256 SWAP1 JUMPDEST DUP2 SLOAD DUP2 MSTORE SWAP1 PUSH1 0x1 ADD SWAP1 PUSH1 0x20 ADD DUP1 DUP4 GT PUSH2 0xA3E JUMPI DUP3 SWAP1 SUB PUSH1 0x1F AND DUP3 ADD SWAP2 JUMPDEST POP POP POP POP POP DUP2 MSTORE PUSH1 0x20 ADD PUSH1 0x1 DUP3 ADD DUP1 SLOAD PUSH2 0xA74 SWAP1 PUSH2 0x313D JUMP JUMPDEST DUP1 PUSH1 0x1F ADD PUSH1 0x20 DUP1 SWAP2 DIV MUL PUSH1 0x20 ADD PUSH1 0x40 MLOAD SWAP1 DUP2 ADD PUSH1 0x40 MSTORE DUP1 SWAP3 SWAP2 SWAP1 DUP2 DUP2 MSTORE PUSH1 0x20 ADD DUP3 DUP1 SLOAD PUSH2 0xAA0 SWAP1 PUSH2 0x313D JUMP JUMPDEST DUP1 ISZERO PUSH2 0xAEB JUMPI DUP1 PUSH1 0x1F LT PUSH2 0xAC2 JUMPI PUSH2 0x100 DUP1 DUP4 SLOAD DIV MUL DUP4 MSTORE SWAP2 PUSH1 0x20 ADD SWAP2 PUSH2 0xAEB JUMP JUMPDEST DUP3 ADD SWAP2 SWAP1 PUSH0 MSTORE PUSH1 0x20 PUSH0 KECCAK256 SWAP1 JUMPDEST DUP2 SLOAD DUP2 MSTORE SWAP1 PUSH1 0x1 ADD SWAP1 PUSH1 0x20 ADD DUP1 DUP4 GT PUSH2 0xACE JUMPI DUP3 SWAP1 SUB PUSH1 0x1F AND DUP3 ADD SWAP2 JUMPDEST POP POP POP SWAP2 DUP4 MSTORE POP POP PUSH1 0x2 SWAP2 SWAP1 SWAP2 ADD SLOAD PUSH1 0x1 PUSH1 0x1 PUSH1 0x40 SHL SUB DUP1 DUP3 AND PUSH1 0x20 DUP5 ADD MSTORE PUSH1 0x1 PUSH1 0x40 SHL DUP3 DIV DUP2 AND PUSH1 0x40 DUP5 ADD MSTORE PUSH1 0x1 PUSH1 0x80 SHL DUP3 DIV DUP2 AND PUSH1 0x60 DUP5 ADD MSTORE PUSH1 0x1 PUSH1 0xC0 SHL SWAP1 SWAP2 DIV AND PUSH1 0x80 SWAP1 SWAP2 ADD MSTORE SWAP3 SWAP2 POP POP JUMP JUMPDEST PUSH0 PUSH2 0x525 DUP3 PUSH2 0x15BD JUMP JUMPDEST PUSH1 0x60 PUSH0 PUSH1 0x10 PUSH0 DUP5 DUP2 MSTORE PUSH1 0x20 ADD SWAP1 DUP2 MSTORE PUSH1 0x20 ADD PUSH0 KECCAK256 PUSH1 0x40 MLOAD DUP1 PUSH1 0xC0 ADD PUSH1 0x40 MSTORE SWAP1 DUP2 PUSH0 DUP3 ADD DUP1 SLOAD PUSH2 0xB73 SWAP1 PUSH2 0x313D JUMP JUMPDEST DUP1 PUSH1 0x1F ADD PUSH1 0x20 DUP1 SWAP2 DIV MUL PUSH1 0x20 ADD PUSH1 0x40 MLOAD SWAP1 DUP2 ADD PUSH1 0x40 MSTORE DUP1 SWAP3 SWAP2 SWAP1 DUP2 DUP2 MSTORE PUSH1 0x20 ADD DUP3 DUP1 SLOAD PUSH2 0xB9F SWAP1 PUSH2 0x313D JUMP JUMPDEST DUP1 ISZERO PUSH2 0xBEA JUMPI DUP1 PUSH1 0x1F LT PUSH2 0xBC1 JUMPI PUSH2 0x100 DUP1 DUP4 SLOAD DIV MUL DUP4 MSTORE SWAP2 PUSH1 0x20 ADD SWAP2 PUSH2 0xBEA JUMP JUMPDEST DUP3 ADD SWAP2 SWAP1 PUSH0 MSTORE PUSH1 0x20 PUSH0 KECCAK256 SWAP1 JUMPDEST DUP2 SLOAD DUP2 MSTORE SWAP1 PUSH1 0x1 ADD SWAP1 PUSH1 0x20 ADD DUP1 DUP4 GT PUSH2 0xBCD JUMPI DUP3 SWAP1 SUB PUSH1 0x1F AND DUP3 ADD SWAP2 JUMPDEST POP POP POP POP POP DUP2 MSTORE PUSH1 0x20 ADD PUSH1 0x1 DUP3 ADD DUP1 SLOAD PUSH2 0xC03 SWAP1 PUSH2 0x313D JUMP JUMPDEST DUP1 PUSH1 0x1F ADD PUSH1 0x20 DUP1 SWAP2 DIV MUL PUSH1 0x20 ADD PUSH1 0x40 MLOAD SWAP1 DUP2 ADD PUSH1 0x40 MSTORE DUP1 SWAP3 SWAP2 SWAP1 DUP2 DUP2 MSTORE PUSH1 0x20 ADD DUP3 DUP1 SLOAD PUSH2 0xC2F SWAP1 PUSH2 0x313D JUMP JUMPDEST DUP1 ISZERO PUSH2 0xC7A JUMPI DUP1 PUSH1 0x1F LT PUSH2 0xC51 JUMPI PUSH2 0x100 DUP1 DUP4 SLOAD DIV MUL DUP4 MSTORE SWAP2 PUSH1 0x20 ADD SWAP2 PUSH2 0xC7A JUMP JUMPDEST DUP3 ADD SWAP2 SWAP1 PUSH0 MSTORE PUSH1 0x20 PUSH0 KECCAK256 SWAP1 JUMPDEST DUP2 SLOAD DUP2 MSTORE SWAP1 PUSH1 0x1 ADD SWAP1 PUSH1 0x20 ADD DUP1 DUP4 GT PUSH2 0xC5D JUMPI DUP3 SWAP1 SUB PUSH1 0x1F AND DUP3 ADD SWAP2 JUMPDEST POP POP POP SWAP2 DUP4 MSTORE POP POP PUSH1 0x2 SWAP2 SWAP1 SWAP2 ADD SLOAD PUSH1 0x1 PUSH1 0x1 PUSH1 0x40 SHL SUB DUP1 DUP3 AND PUSH1 0x20 DUP5 ADD MSTORE PUSH1 0x1 PUSH1 0x40 SHL DUP3 DIV DUP2 AND PUSH1 0x40 DUP5 ADD MSTORE PUSH1 0x1 PUSH1 0x80 SHL DUP3 DIV DUP2 AND PUSH1 0x60 DUP5 ADD MSTORE PUSH1 0x1 PUSH1 0xC0 SHL SWAP1 SWAP2 DIV DUP2 AND PUSH1 0x80 SWAP3 DUP4 ADD MSTORE SWAP1 DUP3 ADD MLOAD SWAP2 SWAP3 POP PUSH0 SWAP2 AND ISZERO PUSH2 0xCDE JUMPI DUP2 PUSH1 0x80 ADD MLOAD PUSH2 0xCE1 JUMP JUMPDEST PUSH1 0x1 JUMPDEST SWAP1 POP PUSH0 DUP2 PUSH1 0x1 PUSH1 0x1 PUSH1 0x40 SHL SUB AND DUP4 PUSH1 0xA0 ADD MLOAD PUSH1 0x1 PUSH1 0x1 PUSH1 0x40 SHL SUB AND DUP5 PUSH1 0x60 ADD MLOAD PUSH1 0x1 PUSH1 0x1 PUSH1 0x40 SHL SUB AND PUSH2 0xD14 SWAP2 SWAP1 PUSH2 0x32C8 JUMP JUMPDEST PUSH2 0xD1F SWAP1 PUSH1 0x64 PUSH2 0x32DB JUMP JUMPDEST PUSH2 0xD29 SWAP2 SWAP1 PUSH2 0x3306 JUMP JUMPDEST SWAP1 POP PUSH0 PUSH2 0xD37 PUSH1 0x64 DUP4 PUSH2 0x3319 JUMP JUMPDEST SWAP1 POP PUSH0 PUSH2 0xD4D PUSH2 0xD48 PUSH1 0x64 DUP6 PUSH2 0x3306 JUMP JUMPDEST PUSH2 0x1BD9 JUMP JUMPDEST PUSH1 0xA DUP4 LT PUSH2 0xD63 JUMPI PUSH2 0xD5E DUP4 PUSH2 0x1BD9 JUMP JUMPDEST PUSH2 0xD8C JUMP JUMPDEST PUSH2 0xD6C DUP4 PUSH2 0x1BD9 JUMP JUMPDEST PUSH1 0x40 MLOAD PUSH1 0x20 ADD PUSH2 0xD7C SWAP2 SWAP1 PUSH2 0x3343 JUMP JUMPDEST PUSH1 0x40 MLOAD PUSH1 0x20 DUP2 DUP4 SUB SUB DUP2 MSTORE SWAP1 PUSH1 0x40 MSTORE JUMPDEST PUSH1 0x40 MLOAD PUSH1 0x20 ADD PUSH2 0xD9D SWAP3 SWAP2 SWAP1 PUSH2 0x3358 JUMP JUMPDEST PUSH1 0x40 MLOAD PUSH1 0x20 DUP2 DUP4 SUB SUB DUP2 MSTORE SWAP1 PUSH1 0x40 MSTORE SWAP1 POP PUSH20 0x0 PUSH4 0xC440354F PUSH1 0x40 MLOAD DUP2 PUSH4 0xFFFFFFFF AND PUSH1 0xE0 SHL DUP2 MSTORE PUSH1 0x4 ADD PUSH0 PUSH1 0x40 MLOAD DUP1 DUP4 SUB DUP2 DUP7 GAS DELEGATECALL ISZERO DUP1 ISZERO PUSH2 0xDF4 JUMPI RETURNDATASIZE PUSH0 PUSH0 RETURNDATACOPY RETURNDATASIZE PUSH0 REVERT JUMPDEST POP POP POP POP PUSH1 0x40 MLOAD RETURNDATASIZE PUSH0 DUP3 RETURNDATACOPY PUSH1 0x1F RETURNDATASIZE SWAP1 DUP2 ADD PUSH1 0x1F NOT AND DUP3 ADD PUSH1 0x40 MSTORE PUSH2 0xE1B SWAP2 SWAP1 DUP2 ADD SWAP1 PUSH2 0x3380 JUMP JUMPDEST PUSH20 0x0 PUSH4 0xFE22A5DC PUSH1 0x40 MLOAD DUP2 PUSH4 0xFFFFFFFF AND PUSH1 0xE0 SHL DUP2 MSTORE PUSH1 0x4 ADD PUSH0 PUSH1 0x40 MLOAD DUP1 DUP4 SUB DUP2 DUP7 GAS DELEGATECALL ISZERO DUP1 ISZERO PUSH2 0xE61 JUMPI RETURNDATASIZE PUSH0 PUSH0 RETURNDATACOPY RETURNDATASIZE PUSH0 REVERT JUMPDEST POP POP POP POP PUSH1 0x40 MLOAD RETURNDATASIZE PUSH0 DUP3 RETURNDATACOPY PUSH1 0x1F RETURNDATASIZE SWAP1 DUP2 ADD PUSH1 0x1F NOT AND DUP3 ADD PUSH1 0x40 MSTORE PUSH2 0xE88 SWAP2 SWAP1 DUP2 ADD SWAP1 PUSH2 0x3380 JUMP JUMPDEST PUSH1 0x40 MLOAD PUSH4 0x70D7F5EB PUSH1 0xE0 SHL DUP2 MSTORE PUSH20 0x0 SWAP1 PUSH4 0x70D7F5EB SWAP1 PUSH2 0xEC1 SWAP1 DUP11 SWAP1 DUP8 SWAP1 PUSH1 0x4 ADD PUSH2 0x33F4 JUMP JUMPDEST PUSH0 PUSH1 0x40 MLOAD DUP1 DUP4 SUB DUP2 DUP7 GAS DELEGATECALL ISZERO DUP1 ISZERO PUSH2 0xEDB JUMPI RETURNDATASIZE PUSH0 PUSH0 RETURNDATACOPY RETURNDATASIZE PUSH0 REVERT JUMPDEST POP POP POP POP PUSH1 0x40 MLOAD RETURNDATASIZE PUSH0 DUP3 RETURNDATACOPY PUSH1 0x1F RETURNDATASIZE SWAP1 DUP2 ADD PUSH1 0x1F NOT AND DUP3 ADD PUSH1 0x40 MSTORE PUSH2 0xF02 SWAP2 SWAP1 DUP2 ADD SWAP1 PUSH2 0x3380 JUMP JUMPDEST PUSH1 0x40 MLOAD PUSH1 0x20 ADD PUSH2 0xF14 SWAP4 SWAP3 SWAP2 SWAP1 PUSH2 0x348E JUMP JUMPDEST PUSH1 0x40 MLOAD PUSH1 0x20 DUP2 DUP4 SUB SUB DUP2 MSTORE SWAP1 PUSH1 0x40 MSTORE SWAP6 POP POP POP POP POP POP SWAP2 SWAP1 POP JUMP JUMPDEST PUSH0 PUSH1 0x60 PUSH1 0xE SLOAD PUSH1 0xD SLOAD TIMESTAMP PUSH2 0xF43 SWAP2 SWAP1 PUSH2 0x32B5 JUMP JUMPDEST GT DUP1 ISZERO PUSH2 0xF53 JUMPI POP PUSH1 0x8 SLOAD PUSH1 0xF SLOAD LT JUMPDEST SWAP2 POP PUSH1 0x40 MLOAD DUP1 PUSH1 0x20 ADD PUSH1 0x40 MSTORE DUP1 PUSH0 DUP2 MSTORE POP SWAP1 POP SWAP3 POP SWAP3 SWAP1 POP JUMP JUMPDEST PUSH0 PUSH1 0x1 PUSH1 0x1 PUSH1 0xA0 SHL SUB DUP3 AND PUSH2 0xF97 JUMPI PUSH1 0x40 MLOAD PUSH4 0x22718AD9 PUSH1 0xE2 SHL DUP2 MSTORE PUSH0 PUSH1 0x4 DUP3 ADD MSTORE PUSH1 0x24 ADD PUSH2 0x72D JUMP JUMPDEST POP PUSH1 0x1 PUSH1 0x1 PUSH1 0xA0 SHL SUB AND PUSH0 SWAP1 DUP2 MSTORE PUSH1 0x3 PUSH1 0x20 MSTORE PUSH1 0x40 SWAP1 KECCAK256 SLOAD SWAP1 JUMP JUMPDEST PUSH2 0xFBA PUSH2 0x1541 JUMP JUMPDEST PUSH2 0xFC3 PUSH0 PUSH2 0x1C68 JUMP JUMPDEST JUMP JUMPDEST PUSH1 0x60 PUSH1 0x1 DUP1 SLOAD PUSH2 0x539 SWAP1 PUSH2 0x313D JUMP JUMPDEST PUSH2 0x4FD CALLER DUP4 DUP4 PUSH2 0x1CB9 JUMP JUMPDEST PUSH1 0x10 PUSH1 0x20 MSTORE PUSH0 SWAP1 DUP2 MSTORE PUSH1 0x40 SWAP1 KECCAK256 DUP1 SLOAD DUP2 SWAP1 PUSH2 0xFF9 SWAP1 PUSH2 0x313D JUMP JUMPDEST DUP1 PUSH1 0x1F ADD PUSH1 0x20 DUP1 SWAP2 DIV MUL PUSH1 0x20 ADD PUSH1 0x40 MLOAD SWAP1 DUP2 ADD PUSH1 0x40 MSTORE DUP1 SWAP3 SWAP2 SWAP1 DUP2 DUP2 MSTORE PUSH1 0x20 ADD DUP3 DUP1 SLOAD PUSH2 0x1025 SWAP1 PUSH2 0x313D JUMP JUMPDEST DUP1 ISZERO PUSH2 0x1070 JUMPI DUP1 PUSH1 0x1F LT PUSH2 0x1047 JUMPI PUSH2 0x100 DUP1 DUP4 SLOAD DIV MUL DUP4 MSTORE SWAP2 PUSH1 0x20 ADD SWAP2 PUSH2 0x1070 JUMP JUMPDEST DUP3 ADD SWAP2 SWAP1 PUSH0 MSTORE PUSH1 0x20 PUSH0 KECCAK256 SWAP1 JUMPDEST DUP2 SLOAD DUP2 MSTORE SWAP1 PUSH1 0x1 ADD SWAP1 PUSH1 0x20 ADD DUP1 DUP4 GT PUSH2 0x1053 JUMPI DUP3 SWAP1 SUB PUSH1 0x1F AND DUP3 ADD SWAP2 JUMPDEST POP POP POP POP POP SWAP1 DUP1 PUSH1 0x1 ADD DUP1 SLOAD PUSH2 0x1085 SWAP1 PUSH2 0x313D JUMP JUMPDEST DUP1 PUSH1 0x1F ADD PUSH1 0x20 DUP1 SWAP2 DIV MUL PUSH1 0x20 ADD PUSH1 0x40 MLOAD SWAP1 DUP2 ADD PUSH1 0x40 MSTORE DUP1 SWAP3 SWAP2 SWAP1 DUP2 DUP2 MSTORE PUSH1 0x20 ADD DUP3 DUP1 SLOAD PUSH2 0x10B1 SWAP1 PUSH2 0x313D JUMP JUMPDEST DUP1 ISZERO PUSH2 0x10FC JUMPI DUP1 PUSH1 0x1F LT PUSH2 0x10D3 JUMPI PUSH2 0x100 DUP1 DUP4 SLOAD DIV MUL DUP4 MSTORE SWAP2 PUSH1 0x20 ADD SWAP2 PUSH2 0x10FC JUMP JUMPDEST DUP3 ADD SWAP2 SWAP1 PUSH0 MSTORE PUSH1 0x20 PUSH0 KECCAK256 SWAP1 JUMPDEST DUP2 SLOAD DUP2 MSTORE SWAP1 PUSH1 0x1 ADD SWAP1 PUSH1 0x20 ADD DUP1 DUP4 GT PUSH2 0x10DF JUMPI DUP3 SWAP1 SUB PUSH1 0x1F AND DUP3 ADD SWAP2 JUMPDEST POP POP POP PUSH1 0x2 SWAP1 SWAP4 ADD SLOAD SWAP2 SWAP3 POP POP PUSH1 0x1 PUSH1 0x1 PUSH1 0x40 SHL SUB DUP1 DUP3 AND SWAP2 PUSH1 0x1 PUSH1 0x40 SHL DUP2 DIV DUP3 AND SWAP2 PUSH1 0x1 PUSH1 0x80 SHL DUP3 DIV DUP2 AND SWAP2 PUSH1 0x1 PUSH1 0xC0 SHL SWAP1 DIV AND DUP7 JUMP JUMPDEST PUSH2 0x113F DUP5 DUP5 DUP5 PUSH2 0x7C0 JUMP JUMPDEST PUSH2 0x843 CALLER DUP6 DUP6 DUP6 DUP6 PUSH2 0x1D80 JUMP JUMPDEST PUSH1 0x60 PUSH0 PUSH1 0x10 PUSH0 DUP5 DUP2 MSTORE PUSH1 0x20 ADD SWAP1 DUP2 MSTORE PUSH1 0x20 ADD PUSH0 KECCAK256 PUSH1 0x40 MLOAD DUP1 PUSH1 0xC0 ADD PUSH1 0x40 MSTORE SWAP1 DUP2 PUSH0 DUP3 ADD DUP1 SLOAD PUSH2 0x117A SWAP1 PUSH2 0x313D JUMP JUMPDEST DUP1 PUSH1 0x1F ADD PUSH1 0x20 DUP1 SWAP2 DIV MUL PUSH1 0x20 ADD PUSH1 0x40 MLOAD SWAP1 DUP2 ADD PUSH1 0x40 MSTORE DUP1 SWAP3 SWAP2 SWAP1 DUP2 DUP2 MSTORE PUSH1 0x20 ADD DUP3 DUP1 SLOAD PUSH2 0x11A6 SWAP1 PUSH2 0x313D JUMP JUMPDEST DUP1 ISZERO PUSH2 0x11F1 JUMPI DUP1 PUSH1 0x1F LT PUSH2 0x11C8 JUMPI PUSH2 0x100 DUP1 DUP4 SLOAD DIV MUL DUP4 MSTORE SWAP2 PUSH1 0x20 ADD SWAP2 PUSH2 0x11F1 JUMP JUMPDEST DUP3 ADD SWAP2 SWAP1 PUSH0 MSTORE PUSH1 0x20 PUSH0 KECCAK256 SWAP1 JUMPDEST DUP2 SLOAD DUP2 MSTORE SWAP1 PUSH1 0x1 ADD SWAP1 PUSH1 0x20 ADD DUP1 DUP4 GT PUSH2 0x11D4 JUMPI DUP3 SWAP1 SUB PUSH1 0x1F AND DUP3 ADD SWAP2 JUMPDEST POP POP POP POP POP DUP2 MSTORE PUSH1 0x20 ADD PUSH1 0x1 DUP3 ADD DUP1 SLOAD PUSH2 0x120A SWAP1 PUSH2 0x313D JUMP JUMPDEST DUP1 PUSH1 0x1F ADD PUSH1 0x20 DUP1 SWAP2 DIV MUL PUSH1 0x20 ADD PUSH1 0x40 MLOAD SWAP1 DUP2 ADD PUSH1 0x40 MSTORE DUP1 SWAP3 SWAP2 SWAP1 DUP2 DUP2 MSTORE PUSH1 0x20 ADD DUP3 DUP1 SLOAD PUSH2 0x1236 SWAP1 PUSH2 0x313D JUMP JUMPDEST DUP1 ISZERO PUSH2 0x1281 JUMPI DUP1 PUSH1 0x1F LT PUSH2 0x1258 JUMPI PUSH2 0x100 DUP1 DUP4 SLOAD DIV MUL DUP4 MSTORE SWAP2 PUSH1 0x20 ADD SWAP2 PUSH2 0x1281 JUMP JUMPDEST DUP3 ADD SWAP2 SWAP1 PUSH0 MSTORE PUSH1 0x20 PUSH0 KECCAK256 SWAP1 JUMPDEST DUP2 SLOAD DUP2 MSTORE SWAP1 PUSH1 0x1 ADD SWAP1 PUSH1 0x20 ADD DUP1 DUP4 GT PUSH2 0x1264 JUMPI DUP3 SWAP1 SUB PUSH1 0x1F AND DUP3 ADD SWAP2 JUMPDEST POP POP POP SWAP2 DUP4 MSTORE POP POP PUSH1 0x2 SWAP2 SWAP1 SWAP2 ADD SLOAD PUSH1 0x1 PUSH1 0x1 PUSH1 0x40 SHL SUB DUP1 DUP3 AND PUSH1 0x20 DUP5 ADD MSTORE PUSH1 0x1 PUSH1 0x40 SHL DUP3 DIV DUP2 AND PUSH1 0x40 DUP5 ADD MSTORE PUSH1 0x1 PUSH1 0x80 SHL DUP3 DIV DUP2 AND PUSH1 0x60 DUP5 ADD MSTORE PUSH1 0x1 PUSH1 0xC0 SHL SWAP1 SWAP2 DIV AND PUSH1 0x80 SWAP1 SWAP2 ADD MSTORE SWAP1 POP PUSH0 PUSH2 0x12DF PUSH2 0x12DA DUP6 PUSH2 0xB45 JUMP JUMPDEST PUSH2 0x1EA8 JUMP JUMPDEST SWAP1 POP PUSH0 DUP3 PUSH0 ADD MLOAD DUP4 PUSH1 0x20 ADD MLOAD PUSH2 0x1301 DUP6 PUSH1 0x40 ADD MLOAD PUSH1 0x1 PUSH1 0x1 PUSH1 0x40 SHL SUB AND PUSH2 0x1BD9 JUMP JUMPDEST PUSH1 0x40 MLOAD PUSH1 0x20 ADD PUSH2 0x1313 SWAP4 SWAP3 SWAP2 SWAP1 PUSH2 0x356A JUMP JUMPDEST PUSH1 0x40 MLOAD PUSH1 0x20 DUP2 DUP4 SUB SUB DUP2 MSTORE SWAP1 PUSH1 0x40 MSTORE SWAP1 POP PUSH0 PUSH2 0x133B DUP5 PUSH1 0x60 ADD MLOAD PUSH1 0x1 PUSH1 0x1 PUSH1 0x40 SHL SUB AND PUSH2 0x1BD9 JUMP JUMPDEST PUSH2 0x1351 DUP6 PUSH1 0x80 ADD MLOAD PUSH1 0x1 PUSH1 0x1 PUSH1 0x40 SHL SUB AND PUSH2 0x1BD9 JUMP JUMPDEST PUSH2 0x1367 DUP7 PUSH1 0xA0 ADD MLOAD PUSH1 0x1 PUSH1 0x1 PUSH1 0x40 SHL SUB AND PUSH2 0x1BD9 JUMP JUMPDEST PUSH1 0x40 MLOAD PUSH1 0x20 ADD PUSH2 0x1379 SWAP4 SWAP3 SWAP2 SWAP1 PUSH2 0x364C JUMP JUMPDEST PUSH1 0x40 MLOAD PUSH1 0x20 DUP2 DUP4 SUB SUB DUP2 MSTORE SWAP1 PUSH1 0x40 MSTORE SWAP1 POP PUSH0 PUSH2 0x13C1 PUSH2 0x1397 DUP9 PUSH2 0x1BD9 JUMP JUMPDEST DUP5 DUP5 DUP8 PUSH1 0x40 MLOAD PUSH1 0x20 ADD PUSH2 0x13AD SWAP5 SWAP4 SWAP3 SWAP2 SWAP1 PUSH2 0x372A JUMP JUMPDEST PUSH1 0x40 MLOAD PUSH1 0x20 DUP2 DUP4 SUB SUB DUP2 MSTORE SWAP1 PUSH1 0x40 MSTORE PUSH2 0x1EA8 JUMP JUMPDEST SWAP1 POP DUP1 PUSH1 0x40 MLOAD PUSH1 0x20 ADD PUSH2 0xF14 SWAP2 SWAP1 PUSH2 0x3882 JUMP JUMPDEST PUSH1 0x1 PUSH1 0x1 PUSH1 0xA0 SHL SUB SWAP2 DUP3 AND PUSH0 SWAP1 DUP2 MSTORE PUSH1 0x5 PUSH1 0x20 SWAP1 DUP2 MSTORE PUSH1 0x40 DUP1 DUP4 KECCAK256 SWAP4 SWAP1 SWAP5 AND DUP3 MSTORE SWAP2 SWAP1 SWAP2 MSTORE KECCAK256 SLOAD PUSH1 0xFF AND SWAP1 JUMP JUMPDEST PUSH2 0x1409 PUSH2 0x1541 JUMP JUMPDEST PUSH1 0x8 SLOAD PUSH1 0x40 DUP1 MLOAD PUSH1 0xC0 DUP2 ADD DUP3 MSTORE DUP5 DUP2 MSTORE PUSH1 0x20 DUP1 DUP3 ADD DUP6 SWAP1 MSTORE PUSH0 DUP3 DUP5 ADD DUP2 SWAP1 MSTORE PUSH1 0x60 DUP4 ADD DUP2 SWAP1 MSTORE PUSH1 0x80 DUP4 ADD DUP2 SWAP1 MSTORE PUSH1 0xA0 DUP4 ADD DUP2 SWAP1 MSTORE DUP5 DUP2 MSTORE PUSH1 0x10 SWAP1 SWAP2 MSTORE SWAP2 SWAP1 SWAP2 KECCAK256 DUP2 MLOAD DUP2 SWAP1 PUSH2 0x1457 SWAP1 DUP3 PUSH2 0x31B9 JUMP JUMPDEST POP PUSH1 0x20 DUP3 ADD MLOAD PUSH1 0x1 DUP3 ADD SWAP1 PUSH2 0x146C SWAP1 DUP3 PUSH2 0x31B9 JUMP JUMPDEST POP PUSH1 0x40 DUP3 ADD MLOAD PUSH1 0x2 SWAP1 SWAP2 ADD DUP1 SLOAD PUSH1 0x60 DUP5 ADD MLOAD PUSH1 0x80 DUP6 ADD MLOAD PUSH1 0xA0 SWAP1 SWAP6 ADD MLOAD PUSH1 0x1 PUSH1 0x1 PUSH1 0x40 SHL SUB SWAP1 DUP2 AND PUSH1 0x1 PUSH1 0xC0 SHL MUL PUSH1 0x1 PUSH1 0x1 PUSH1 0xC0 SHL SUB SWAP7 DUP3 AND PUSH1 0x1 PUSH1 0x80 SHL MUL SWAP7 SWAP1 SWAP7 AND PUSH1 0x1 PUSH1 0x1 PUSH1 0x80 SHL SUB SWAP3 DUP3 AND PUSH1 0x1 PUSH1 0x40 SHL MUL PUSH1 0x1 PUSH1 0x1 PUSH1 0x80 SHL SUB NOT SWAP1 SWAP5 AND SWAP2 SWAP1 SWAP6 AND OR SWAP2 SWAP1 SWAP2 OR AND SWAP2 SWAP1 SWAP2 OR SWAP2 SWAP1 SWAP2 OR SWAP1 SSTORE PUSH2 0x14EA DUP5 DUP3 PUSH2 0x1EB4 JUMP JUMPDEST PUSH1 0x8 DUP1 SLOAD SWAP1 PUSH0 PUSH2 0x14F9 DUP4 PUSH2 0x38B3 JUMP JUMPDEST SWAP2 SWAP1 POP SSTORE POP POP POP POP POP JUMP JUMPDEST PUSH2 0x150C PUSH2 0x1541 JUMP JUMPDEST PUSH1 0x1 PUSH1 0x1 PUSH1 0xA0 SHL SUB DUP2 AND PUSH2 0x1535 JUMPI PUSH1 0x40 MLOAD PUSH4 0x1E4FBDF7 PUSH1 0xE0 SHL DUP2 MSTORE PUSH0 PUSH1 0x4 DUP3 ADD MSTORE PUSH1 0x24 ADD PUSH2 0x72D JUMP JUMPDEST PUSH2 0x153E DUP2 PUSH2 0x1C68 JUMP JUMPDEST POP JUMP JUMPDEST PUSH1 0x7 SLOAD PUSH1 0x1 PUSH1 0x1 PUSH1 0xA0 SHL SUB AND CALLER EQ PUSH2 0xFC3 JUMPI PUSH1 0x40 MLOAD PUSH4 0x118CDAA7 PUSH1 0xE0 SHL DUP2 MSTORE CALLER PUSH1 0x4 DUP3 ADD MSTORE PUSH1 0x24 ADD PUSH2 0x72D JUMP JUMPDEST PUSH0 PUSH1 0x1 PUSH1 0x1 PUSH1 0xE0 SHL SUB NOT DUP3 AND PUSH4 0x80AC58CD PUSH1 0xE0 SHL EQ DUP1 PUSH2 0x159E JUMPI POP PUSH1 0x1 PUSH1 0x1 PUSH1 0xE0 SHL SUB NOT DUP3 AND PUSH4 0x5B5E139F PUSH1 0xE0 SHL EQ JUMPDEST DUP1 PUSH2 0x525 JUMPI POP PUSH4 0x1FFC9A7 PUSH1 0xE0 SHL PUSH1 0x1 PUSH1 0x1 PUSH1 0xE0 SHL SUB NOT DUP4 AND EQ PUSH2 0x525 JUMP JUMPDEST PUSH0 DUP2 DUP2 MSTORE PUSH1 0x2 PUSH1 0x20 MSTORE PUSH1 0x40 DUP2 KECCAK256 SLOAD PUSH1 0x1 PUSH1 0x1 PUSH1 0xA0 SHL SUB AND DUP1 PUSH2 0x525 JUMPI PUSH1 0x40 MLOAD PUSH4 0x7E273289 PUSH1 0xE0 SHL DUP2 MSTORE PUSH1 0x4 DUP2 ADD DUP5 SWAP1 MSTORE PUSH1 0x24 ADD PUSH2 0x72D JUMP JUMPDEST PUSH2 0x92B DUP4 DUP4 DUP4 PUSH1 0x1 PUSH2 0x1ECD JUMP JUMPDEST PUSH0 DUP4 DUP2 MSTORE PUSH1 0x12 PUSH1 0x20 MSTORE PUSH1 0x40 SWAP1 KECCAK256 SLOAD PUSH1 0xFF AND PUSH2 0x1633 JUMPI PUSH1 0x40 MLOAD PUSH4 0xF6A8D1C9 PUSH1 0xE0 SHL DUP2 MSTORE PUSH1 0x4 DUP2 ADD DUP5 SWAP1 MSTORE PUSH1 0x24 ADD PUSH2 0x72D JUMP JUMPDEST DUP1 MLOAD ISZERO PUSH2 0x1655 JUMPI DUP1 PUSH1 0x40 MLOAD PUSH4 0x1DE77FF9 PUSH1 0xE1 SHL DUP2 MSTORE PUSH1 0x4 ADD PUSH2 0x72D SWAP2 SWAP1 PUSH2 0x2D82 JUMP JUMPDEST PUSH0 DUP4 DUP2 MSTORE PUSH1 0x11 PUSH1 0x20 SWAP1 DUP2 MSTORE PUSH1 0x40 DUP3 KECCAK256 SLOAD DUP5 MLOAD SWAP1 SWAP3 SWAP2 PUSH2 0x167A SWAP2 DUP7 ADD DUP2 ADD SWAP1 DUP7 ADD PUSH2 0x38CB JUMP JUMPDEST PUSH0 DUP4 DUP2 MSTORE PUSH1 0x10 PUSH1 0x20 DUP2 DUP2 MSTORE PUSH1 0x40 DUP1 DUP5 KECCAK256 PUSH1 0x2 DUP2 ADD DUP1 SLOAD PUSH1 0xC0 DUP9 DUP2 SHR PUSH1 0x1 PUSH1 0x1 PUSH1 0x80 SHL SUB SWAP1 SWAP3 AND PUSH1 0x1 PUSH1 0xC0 SHL PUSH1 0x1 PUSH1 0x1 PUSH1 0x40 SHL SUB DUP1 DUP13 AND SWAP2 SWAP1 SWAP2 MUL PUSH8 0xFFFFFFFFFFFFFFFF PUSH1 0x80 SHL NOT AND SWAP2 SWAP1 SWAP2 OR PUSH1 0x1 PUSH1 0x80 SHL DUP12 DUP9 SHR DUP4 AND MUL OR PUSH1 0x1 PUSH1 0x1 PUSH1 0x80 SHL SUB NOT AND PUSH1 0x1 PUSH1 0x40 SHL PUSH1 0x80 DUP13 SWAP1 SHR SWAP3 SWAP1 SWAP3 AND SWAP2 SWAP1 SWAP2 MUL PUSH8 0xFFFFFFFFFFFFFFFF NOT AND OR SWAP2 SWAP1 SWAP2 OR SWAP1 SWAP2 SSTORE DUP12 DUP7 MSTORE PUSH1 0x12 DUP5 MSTORE DUP3 DUP7 KECCAK256 DUP1 SLOAD PUSH1 0xFF NOT AND SWAP1 SSTORE PUSH1 0x11 DUP5 MSTORE DUP3 DUP7 KECCAK256 DUP7 SWAP1 SSTORE DUP9 DUP7 MSTORE SWAP4 SWAP1 SWAP3 MSTORE DUP1 MLOAD SWAP3 DUP4 ADD SWAP1 MSTORE DUP1 SLOAD SWAP4 SWAP5 POP SWAP2 SWAP3 SWAP1 SWAP2 SWAP1 DUP3 SWAP1 DUP3 SWAP1 PUSH2 0x1742 SWAP1 PUSH2 0x313D JUMP JUMPDEST DUP1 PUSH1 0x1F ADD PUSH1 0x20 DUP1 SWAP2 DIV MUL PUSH1 0x20 ADD PUSH1 0x40 MLOAD SWAP1 DUP2 ADD PUSH1 0x40 MSTORE DUP1 SWAP3 SWAP2 SWAP1 DUP2 DUP2 MSTORE PUSH1 0x20 ADD DUP3 DUP1 SLOAD PUSH2 0x176E SWAP1 PUSH2 0x313D JUMP JUMPDEST DUP1 ISZERO PUSH2 0x17B9 JUMPI DUP1 PUSH1 0x1F LT PUSH2 0x1790 JUMPI PUSH2 0x100 DUP1 DUP4 SLOAD DIV MUL DUP4 MSTORE SWAP2 PUSH1 0x20 ADD SWAP2 PUSH2 0x17B9 JUMP JUMPDEST DUP3 ADD SWAP2 SWAP1 PUSH0 MSTORE PUSH1 0x20 PUSH0 KECCAK256 SWAP1 JUMPDEST DUP2 SLOAD DUP2 MSTORE SWAP1 PUSH1 0x1 ADD SWAP1 PUSH1 0x20 ADD DUP1 DUP4 GT PUSH2 0x179C JUMPI DUP3 SWAP1 SUB PUSH1 0x1F AND DUP3 ADD SWAP2 JUMPDEST POP POP POP POP POP DUP2 MSTORE PUSH1 0x20 ADD PUSH1 0x1 DUP3 ADD DUP1 SLOAD PUSH2 0x17D2 SWAP1 PUSH2 0x313D JUMP JUMPDEST DUP1 PUSH1 0x1F ADD PUSH1 0x20 DUP1 SWAP2 DIV MUL PUSH1 0x20 ADD PUSH1 0x40 MLOAD SWAP1 DUP2 ADD PUSH1 0x40 MSTORE DUP1 SWAP3 SWAP2 SWAP1 DUP2 DUP2 MSTORE PUSH1 0x20 ADD DUP3 DUP1 SLOAD PUSH2 0x17FE SWAP1 PUSH2 0x313D JUMP JUMPDEST DUP1 ISZERO PUSH2 0x1849 JUMPI DUP1 PUSH1 0x1F LT PUSH2 0x1820 JUMPI PUSH2 0x100 DUP1 DUP4 SLOAD DIV MUL DUP4 MSTORE SWAP2 PUSH1 0x20 ADD SWAP2 PUSH2 0x1849 JUMP JUMPDEST DUP3 ADD SWAP2 SWAP1 PUSH0 MSTORE PUSH1 0x20 PUSH0 KECCAK256 SWAP1 JUMPDEST DUP2 SLOAD DUP2 MSTORE SWAP1 PUSH1 0x1 ADD SWAP1 PUSH1 0x20 ADD DUP1 DUP4 GT PUSH2 0x182C JUMPI DUP3 SWAP1 SUB PUSH1 0x1F AND DUP3 ADD SWAP2 JUMPDEST POP POP POP SWAP2 DUP4 MSTORE POP POP PUSH1 0x2 SWAP2 SWAP1 SWAP2 ADD SLOAD PUSH1 0x1 PUSH1 0x1 PUSH1 0x40 SHL SUB DUP1 DUP3 AND PUSH1 0x20 DUP5 ADD MSTORE PUSH1 0x1 PUSH1 0x40 SHL DUP3 DIV DUP2 AND PUSH1 0x40 DUP1 DUP6 ADD SWAP2 SWAP1 SWAP2 MSTORE PUSH1 0x1 PUSH1 0x80 SHL DUP4 DIV DUP3 AND PUSH1 0x60 DUP1 DUP7 ADD SWAP2 SWAP1 SWAP2 MSTORE PUSH1 0x1 PUSH1 0xC0 SHL SWAP1 SWAP4 DIV SWAP1 SWAP2 AND PUSH1 0x80 SWAP4 DUP5 ADD MSTORE DUP4 DUP2 ADD MLOAD SWAP2 DUP5 ADD MLOAD SWAP3 DUP5 ADD MLOAD PUSH1 0xA0 DUP6 ADD MLOAD SWAP2 MLOAD SWAP5 SWAP6 POP DUP8 SWAP5 PUSH32 0x9F86CFE46669ECF4CA86F93EF7FFC30082E4A755D2EE82226E1D556FD63407EE SWAP5 PUSH2 0x1914 SWAP5 SWAP4 SWAP1 SWAP3 SWAP2 TIMESTAMP SWAP1 PUSH1 0x1 PUSH1 0x1 PUSH1 0x40 SHL SUB SWAP6 DUP7 AND DUP2 MSTORE SWAP4 DUP6 AND PUSH1 0x20 DUP6 ADD MSTORE SWAP2 DUP5 AND PUSH1 0x40 DUP5 ADD MSTORE SWAP1 SWAP3 AND PUSH1 0x60 DUP3 ADD MSTORE PUSH1 0x80 DUP2 ADD SWAP2 SWAP1 SWAP2 MSTORE PUSH1 0xA0 ADD SWAP1 JUMP JUMPDEST PUSH1 0x40 MLOAD DUP1 SWAP2 SUB SWAP1 LOG2 POP POP POP POP POP POP JUMP JUMPDEST PUSH0 DUP3 DUP2 MSTORE PUSH1 0x2 PUSH1 0x20 MSTORE PUSH1 0x40 DUP2 KECCAK256 SLOAD PUSH1 0x1 PUSH1 0x1 PUSH1 0xA0 SHL SUB SWAP1 DUP2 AND SWAP1 DUP4 AND ISZERO PUSH2 0x1950 JUMPI PUSH2 0x1950 DUP2 DUP5 DUP7 PUSH2 0x1FD1 JUMP JUMPDEST PUSH1 0x1 PUSH1 0x1 PUSH1 0xA0 SHL SUB DUP2 AND ISZERO PUSH2 0x198A JUMPI PUSH2 0x196B PUSH0 DUP6 PUSH0 PUSH0 PUSH2 0x1ECD JUMP JUMPDEST PUSH1 0x1 PUSH1 0x1 PUSH1 0xA0 SHL SUB DUP2 AND PUSH0 SWAP1 DUP2 MSTORE PUSH1 0x3 PUSH1 0x20 MSTORE PUSH1 0x40 SWAP1 KECCAK256 DUP1 SLOAD PUSH0 NOT ADD SWAP1 SSTORE JUMPDEST PUSH1 0x1 PUSH1 0x1 PUSH1 0xA0 SHL SUB DUP6 AND ISZERO PUSH2 0x19B8 JUMPI PUSH1 0x1 PUSH1 0x1 PUSH1 0xA0 SHL SUB DUP6 AND PUSH0 SWAP1 DUP2 MSTORE PUSH1 0x3 PUSH1 0x20 MSTORE PUSH1 0x40 SWAP1 KECCAK256 DUP1 SLOAD PUSH1 0x1 ADD SWAP1 SSTORE JUMPDEST PUSH0 DUP5 DUP2 MSTORE PUSH1 0x2 PUSH1 0x20 MSTORE PUSH1 0x40 DUP1 DUP3 KECCAK256 DUP1 SLOAD PUSH1 0x1 PUSH1 0x1 PUSH1 0xA0 SHL SUB NOT AND PUSH1 0x1 PUSH1 0x1 PUSH1 0xA0 SHL SUB DUP10 DUP2 AND SWAP2 DUP3 OR SWAP1 SWAP3 SSTORE SWAP2 MLOAD DUP8 SWAP4 SWAP2 DUP6 AND SWAP2 PUSH32 0xDDF252AD1BE2C89B69C2B068FC378DAA952BA7F163C4A11628F55A4DF523B3EF SWAP2 LOG4 SWAP5 SWAP4 POP POP POP POP JUMP JUMPDEST PUSH0 PUSH2 0x1A55 PUSH1 0x40 DUP1 MLOAD PUSH1 0xE0 DUP2 ADD SWAP1 SWAP2 MSTORE DUP1 PUSH0 DUP2 MSTORE PUSH1 0x20 ADD PUSH0 DUP2 MSTORE PUSH1 0x20 ADD PUSH0 DUP2 MSTORE PUSH1 0x20 ADD PUSH1 0x60 DUP2 MSTORE PUSH1 0x20 ADD PUSH1 0x60 DUP2 MSTORE PUSH1 0x20 ADD PUSH1 0x60 DUP2 MSTORE PUSH1 0x20 ADD PUSH1 0x60 DUP2 MSTORE POP SWAP1 JUMP JUMPDEST PUSH2 0x1AF0 PUSH1 0xC DUP1 SLOAD PUSH2 0x1A65 SWAP1 PUSH2 0x313D JUMP JUMPDEST DUP1 PUSH1 0x1F ADD PUSH1 0x20 DUP1 SWAP2 DIV MUL PUSH1 0x20 ADD PUSH1 0x40 MLOAD SWAP1 DUP2 ADD PUSH1 0x40 MSTORE DUP1 SWAP3 SWAP2 SWAP1 DUP2 DUP2 MSTORE PUSH1 0x20 ADD DUP3 DUP1 SLOAD PUSH2 0x1A91 SWAP1 PUSH2 0x313D JUMP JUMPDEST DUP1 ISZERO PUSH2 0x1ADC JUMPI DUP1 PUSH1 0x1F LT PUSH2 0x1AB3 JUMPI PUSH2 0x100 DUP1 DUP4 SLOAD DIV MUL DUP4 MSTORE SWAP2 PUSH1 0x20 ADD SWAP2 PUSH2 0x1ADC JUMP JUMPDEST DUP3 ADD SWAP2 SWAP1 PUSH0 MSTORE PUSH1 0x20 PUSH0 KECCAK256 SWAP1 JUMPDEST DUP2 SLOAD DUP2 MSTORE SWAP1 PUSH1 0x1 ADD SWAP1 PUSH1 0x20 ADD DUP1 DUP4 GT PUSH2 0x1ABF JUMPI DUP3 SWAP1 SUB PUSH1 0x1F AND DUP3 ADD SWAP2 JUMPDEST POP POP POP POP POP DUP3 PUSH2 0x2035 SWAP1 SWAP2 SWAP1 PUSH4 0xFFFFFFFF AND JUMP JUMPDEST PUSH1 0x40 DUP1 MLOAD PUSH1 0x1 DUP1 DUP3 MSTORE DUP2 DUP4 ADD SWAP1 SWAP3 MSTORE PUSH0 SWAP2 DUP2 PUSH1 0x20 ADD JUMPDEST PUSH1 0x60 DUP2 MSTORE PUSH1 0x20 ADD SWAP1 PUSH1 0x1 SWAP1 SUB SWAP1 DUP2 PUSH2 0x1B06 JUMPI SWAP1 POP POP SWAP1 POP DUP4 DUP2 PUSH0 DUP2 MLOAD DUP2 LT PUSH2 0x1B30 JUMPI PUSH2 0x1B30 PUSH2 0x38E2 JUMP JUMPDEST PUSH1 0x20 SWAP1 DUP2 MUL SWAP2 SWAP1 SWAP2 ADD ADD MSTORE PUSH2 0x1B45 DUP3 DUP3 PUSH2 0x2041 JUMP JUMPDEST PUSH2 0x1B6D PUSH2 0x1B51 DUP4 PUSH2 0x206A JUMP JUMPDEST PUSH1 0xB SLOAD PUSH1 0xA SLOAD PUSH1 0x1 PUSH1 0x1 PUSH1 0x40 SHL SUB SWAP1 SWAP2 AND SWAP1 PUSH3 0x493E0 SWAP1 PUSH2 0x232E JUMP JUMPDEST PUSH0 DUP2 DUP2 MSTORE PUSH1 0x11 PUSH1 0x20 SWAP1 DUP2 MSTORE PUSH1 0x40 DUP1 DUP4 KECCAK256 DUP10 SWAP1 SSTORE PUSH1 0x12 SWAP1 SWAP2 MSTORE SWAP1 DUP2 SWAP1 KECCAK256 DUP1 SLOAD PUSH1 0xFF NOT AND PUSH1 0x1 OR SWAP1 SSTORE MLOAD SWAP1 SWAP4 POP DUP4 SWAP1 DUP7 SWAP1 PUSH32 0x36C447AD99DF7457C4F3D38DAD77DA717D67A685E3ED93297FEFC4601D9BEB25 SWAP1 PUSH2 0x1BC9 SWAP1 DUP9 SWAP1 PUSH2 0x2D82 JUMP JUMPDEST PUSH1 0x40 MLOAD DUP1 SWAP2 SUB SWAP1 LOG3 POP POP SWAP3 SWAP2 POP POP JUMP JUMPDEST PUSH1 0x60 PUSH0 PUSH2 0x1BE5 DUP4 PUSH2 0x23FB JUMP JUMPDEST PUSH1 0x1 ADD SWAP1 POP PUSH0 DUP2 PUSH1 0x1 PUSH1 0x1 PUSH1 0x40 SHL SUB DUP2 GT ISZERO PUSH2 0x1C03 JUMPI PUSH2 0x1C03 PUSH2 0x2C35 JUMP JUMPDEST PUSH1 0x40 MLOAD SWAP1 DUP1 DUP3 MSTORE DUP1 PUSH1 0x1F ADD PUSH1 0x1F NOT AND PUSH1 0x20 ADD DUP3 ADD PUSH1 0x40 MSTORE DUP1 ISZERO PUSH2 0x1C2D JUMPI PUSH1 0x20 DUP3 ADD DUP2 DUP1 CALLDATASIZE DUP4 CALLDATACOPY ADD SWAP1 POP JUMPDEST POP SWAP1 POP DUP2 DUP2 ADD PUSH1 0x20 ADD JUMPDEST PUSH0 NOT ADD PUSH16 0x181899199A1A9B1B9C1CB0B131B232B3 PUSH1 0x81 SHL PUSH1 0xA DUP7 MOD BYTE DUP2 MSTORE8 PUSH1 0xA DUP6 DIV SWAP5 POP DUP5 PUSH2 0x1C37 JUMPI POP SWAP4 SWAP3 POP POP POP JUMP JUMPDEST PUSH1 0x7 DUP1 SLOAD PUSH1 0x1 PUSH1 0x1 PUSH1 0xA0 SHL SUB DUP4 DUP2 AND PUSH1 0x1 PUSH1 0x1 PUSH1 0xA0 SHL SUB NOT DUP4 AND DUP2 OR SWAP1 SWAP4 SSTORE PUSH1 0x40 MLOAD SWAP2 AND SWAP2 SWAP1 DUP3 SWAP1 PUSH32 0x8BE0079C531659141344CD1FD0A4F28419497F9722A3DAAFE3B4186F6B6457E0 SWAP1 PUSH0 SWAP1 LOG3 POP POP JUMP JUMPDEST PUSH1 0x1 PUSH1 0x1 PUSH1 0xA0 SHL SUB DUP4 AND PUSH2 0x1CE2 JUMPI PUSH1 0x40 MLOAD PUSH4 0xA9FBF51F PUSH1 0xE0 SHL DUP2 MSTORE PUSH0 PUSH1 0x4 DUP3 ADD MSTORE PUSH1 0x24 ADD PUSH2 0x72D JUMP JUMPDEST PUSH1 0x1 PUSH1 0x1 PUSH1 0xA0 SHL SUB DUP3 AND PUSH2 0x1D14 JUMPI PUSH1 0x40 MLOAD PUSH4 0xB611743 PUSH1 0xE3 SHL DUP2 MSTORE PUSH1 0x1 PUSH1 0x1 PUSH1 0xA0 SHL SUB DUP4 AND PUSH1 0x4 DUP3 ADD MSTORE PUSH1 0x24 ADD PUSH2 0x72D JUMP JUMPDEST PUSH1 0x1 PUSH1 0x1 PUSH1 0xA0 SHL SUB DUP4 DUP2 AND PUSH0 DUP2 DUP2 MSTORE PUSH1 0x5 PUSH1 0x20 SWAP1 DUP2 MSTORE PUSH1 0x40 DUP1 DUP4 KECCAK256 SWAP5 DUP8 AND DUP1 DUP5 MSTORE SWAP5 DUP3 MSTORE SWAP2 DUP3 SWAP1 KECCAK256 DUP1 SLOAD PUSH1 0xFF NOT AND DUP7 ISZERO ISZERO SWAP1 DUP2 OR SWAP1 SWAP2 SSTORE SWAP2 MLOAD SWAP2 DUP3 MSTORE PUSH32 0x17307EAB39AB6107E8899845AD3D59BD9653F200F220920489CA2B5937696C31 SWAP2 ADD PUSH1 0x40 MLOAD DUP1 SWAP2 SUB SWAP1 LOG3 POP POP POP JUMP JUMPDEST PUSH1 0x1 PUSH1 0x1 PUSH1 0xA0 SHL SUB DUP4 AND EXTCODESIZE ISZERO PUSH2 0x1EA1 JUMPI PUSH1 0x40 MLOAD PUSH4 0xA85BD01 PUSH1 0xE1 SHL DUP2 MSTORE PUSH1 0x1 PUSH1 0x1 PUSH1 0xA0 SHL SUB DUP5 AND SWAP1 PUSH4 0x150B7A02 SWAP1 PUSH2 0x1DC2 SWAP1 DUP9 SWAP1 DUP9 SWAP1 DUP8 SWAP1 DUP8 SWAP1 PUSH1 0x4 ADD PUSH2 0x38F6 JUMP JUMPDEST PUSH1 0x20 PUSH1 0x40 MLOAD DUP1 DUP4 SUB DUP2 PUSH0 DUP8 GAS CALL SWAP3 POP POP POP DUP1 ISZERO PUSH2 0x1DFC JUMPI POP PUSH1 0x40 DUP1 MLOAD PUSH1 0x1F RETURNDATASIZE SWAP1 DUP2 ADD PUSH1 0x1F NOT AND DUP3 ADD SWAP1 SWAP3 MSTORE PUSH2 0x1DF9 SWAP2 DUP2 ADD SWAP1 PUSH2 0x3932 JUMP JUMPDEST PUSH1 0x1 JUMPDEST PUSH2 0x1E63 JUMPI RETURNDATASIZE DUP1 DUP1 ISZERO PUSH2 0x1E29 JUMPI PUSH1 0x40 MLOAD SWAP2 POP PUSH1 0x1F NOT PUSH1 0x3F RETURNDATASIZE ADD AND DUP3 ADD PUSH1 0x40 MSTORE RETURNDATASIZE DUP3 MSTORE RETURNDATASIZE PUSH0 PUSH1 0x20 DUP5 ADD RETURNDATACOPY PUSH2 0x1E2E JUMP JUMPDEST PUSH1 0x60 SWAP2 POP JUMPDEST POP DUP1 MLOAD PUSH0 SUB PUSH2 0x1E5B JUMPI PUSH1 0x40 MLOAD PUSH4 0x32505749 PUSH1 0xE1 SHL DUP2 MSTORE PUSH1 0x1 PUSH1 0x1 PUSH1 0xA0 SHL SUB DUP6 AND PUSH1 0x4 DUP3 ADD MSTORE PUSH1 0x24 ADD PUSH2 0x72D JUMP JUMPDEST DUP1 MLOAD PUSH1 0x20 DUP3 ADD REVERT JUMPDEST PUSH1 0x1 PUSH1 0x1 PUSH1 0xE0 SHL SUB NOT DUP2 AND PUSH4 0xA85BD01 PUSH1 0xE1 SHL EQ PUSH2 0x1E9F JUMPI PUSH1 0x40 MLOAD PUSH4 0x32505749 PUSH1 0xE1 SHL DUP2 MSTORE PUSH1 0x1 PUSH1 0x1 PUSH1 0xA0 SHL SUB DUP6 AND PUSH1 0x4 DUP3 ADD MSTORE PUSH1 0x24 ADD PUSH2 0x72D JUMP JUMPDEST POP JUMPDEST POP POP POP POP POP JUMP JUMPDEST PUSH1 0x60 PUSH2 0x525 DUP3 PUSH0 PUSH2 0x24D2 JUMP JUMPDEST PUSH2 0x4FD DUP3 DUP3 PUSH1 0x40 MLOAD DUP1 PUSH1 0x20 ADD PUSH1 0x40 MSTORE DUP1 PUSH0 DUP2 MSTORE POP PUSH2 0x2651 JUMP JUMPDEST DUP1 DUP1 PUSH2 0x1EE1 JUMPI POP PUSH1 0x1 PUSH1 0x1 PUSH1 0xA0 SHL SUB DUP3 AND ISZERO ISZERO JUMPDEST ISZERO PUSH2 0x1FA2 JUMPI PUSH0 PUSH2 0x1EF0 DUP5 PUSH2 0x15BD JUMP JUMPDEST SWAP1 POP PUSH1 0x1 PUSH1 0x1 PUSH1 0xA0 SHL SUB DUP4 AND ISZERO DUP1 ISZERO SWAP1 PUSH2 0x1F1C JUMPI POP DUP3 PUSH1 0x1 PUSH1 0x1 PUSH1 0xA0 SHL SUB AND DUP2 PUSH1 0x1 PUSH1 0x1 PUSH1 0xA0 SHL SUB AND EQ ISZERO JUMPDEST DUP1 ISZERO PUSH2 0x1F2F JUMPI POP PUSH2 0x1F2D DUP2 DUP5 PUSH2 0x13D4 JUMP JUMPDEST ISZERO JUMPDEST ISZERO PUSH2 0x1F58 JUMPI PUSH1 0x40 MLOAD PUSH4 0xA9FBF51F PUSH1 0xE0 SHL DUP2 MSTORE PUSH1 0x1 PUSH1 0x1 PUSH1 0xA0 SHL SUB DUP5 AND PUSH1 0x4 DUP3 ADD MSTORE PUSH1 0x24 ADD PUSH2 0x72D JUMP JUMPDEST DUP2 ISZERO PUSH2 0x1FA0 JUMPI DUP4 DUP6 PUSH1 0x1 PUSH1 0x1 PUSH1 0xA0 SHL SUB AND DUP3 PUSH1 0x1 PUSH1 0x1 PUSH1 0xA0 SHL SUB AND PUSH32 0x8C5BE1E5EBEC7D5BD14F71427D1E84F3DD0314C0F7B2291E5B200AC8C7C3B925 PUSH1 0x40 MLOAD PUSH1 0x40 MLOAD DUP1 SWAP2 SUB SWAP1 LOG4 JUMPDEST POP JUMPDEST POP POP PUSH0 SWAP1 DUP2 MSTORE PUSH1 0x4 PUSH1 0x20 MSTORE PUSH1 0x40 SWAP1 KECCAK256 DUP1 SLOAD PUSH1 0x1 PUSH1 0x1 PUSH1 0xA0 SHL SUB NOT AND PUSH1 0x1 PUSH1 0x1 PUSH1 0xA0 SHL SUB SWAP3 SWAP1 SWAP3 AND SWAP2 SWAP1 SWAP2 OR SWAP1 SSTORE JUMP JUMPDEST PUSH2 0x1FDC DUP4 DUP4 DUP4 PUSH2 0x2668 JUMP JUMPDEST PUSH2 0x92B JUMPI PUSH1 0x1 PUSH1 0x1 PUSH1 0xA0 SHL SUB DUP4 AND PUSH2 0x200A JUMPI PUSH1 0x40 MLOAD PUSH4 0x7E273289 PUSH1 0xE0 SHL DUP2 MSTORE PUSH1 0x4 DUP2 ADD DUP3 SWAP1 MSTORE PUSH1 0x24 ADD PUSH2 0x72D JUMP JUMPDEST PUSH1 0x40 MLOAD PUSH4 0x177E802F PUSH1 0xE0 SHL DUP2 MSTORE PUSH1 0x1 PUSH1 0x1 PUSH1 0xA0 SHL SUB DUP4 AND PUSH1 0x4 DUP3 ADD MSTORE PUSH1 0x24 DUP2 ADD DUP3 SWAP1 MSTORE PUSH1 0x44 ADD PUSH2 0x72D JUMP JUMPDEST PUSH2 0x4FD DUP3 PUSH0 PUSH0 DUP5 PUSH2 0x26CC JUMP JUMPDEST DUP1 MLOAD PUSH0 SUB PUSH2 0x2062 JUMPI PUSH1 0x40 MLOAD PUSH4 0xFE936CB7 PUSH1 0xE0 SHL DUP2 MSTORE PUSH1 0x4 ADD PUSH1 0x40 MLOAD DUP1 SWAP2 SUB SWAP1 REVERT JUMPDEST PUSH1 0xA0 SWAP1 SWAP2 ADD MSTORE JUMP JUMPDEST PUSH1 0x60 PUSH0 PUSH2 0x2078 PUSH2 0x100 PUSH2 0x2749 JUMP JUMPDEST SWAP1 POP PUSH2 0x20B1 PUSH1 0x40 MLOAD DUP1 PUSH1 0x40 ADD PUSH1 0x40 MSTORE DUP1 PUSH1 0xC DUP2 MSTORE PUSH1 0x20 ADD PUSH12 0x31B7B232A637B1B0BA34B7B7 PUSH1 0xA1 SHL DUP2 MSTORE POP DUP3 PUSH2 0x2769 SWAP1 SWAP2 SWAP1 PUSH4 0xFFFFFFFF AND JUMP JUMPDEST DUP3 MLOAD PUSH2 0x20CF SWAP1 PUSH1 0x2 DUP2 GT ISZERO PUSH2 0x20C8 JUMPI PUSH2 0x20C8 PUSH2 0x394D JUMP JUMPDEST DUP3 SWAP1 PUSH2 0x2782 JUMP JUMPDEST PUSH1 0x40 DUP1 MLOAD DUP1 DUP3 ADD SWAP1 SWAP2 MSTORE PUSH1 0x8 DUP2 MSTORE PUSH8 0x6C616E6775616765 PUSH1 0xC0 SHL PUSH1 0x20 DUP3 ADD MSTORE PUSH2 0x20F9 SWAP1 DUP3 SWAP1 PUSH2 0x2769 JUMP JUMPDEST PUSH1 0x40 DUP4 ADD MLOAD PUSH2 0x2110 SWAP1 DUP1 ISZERO PUSH2 0x20C8 JUMPI PUSH2 0x20C8 PUSH2 0x394D JUMP JUMPDEST PUSH1 0x40 DUP1 MLOAD DUP1 DUP3 ADD SWAP1 SWAP2 MSTORE PUSH1 0x6 DUP2 MSTORE PUSH6 0x736F75726365 PUSH1 0xD0 SHL PUSH1 0x20 DUP3 ADD MSTORE PUSH2 0x2138 SWAP1 DUP3 SWAP1 PUSH2 0x2769 JUMP JUMPDEST PUSH1 0x60 DUP4 ADD MLOAD PUSH2 0x2148 SWAP1 DUP3 SWAP1 PUSH2 0x2769 JUMP JUMPDEST PUSH1 0xA0 DUP4 ADD MLOAD MLOAD ISZERO PUSH2 0x21D3 JUMPI PUSH1 0x40 DUP1 MLOAD DUP1 DUP3 ADD SWAP1 SWAP2 MSTORE PUSH1 0x4 DUP2 MSTORE PUSH4 0x61726773 PUSH1 0xE0 SHL PUSH1 0x20 DUP3 ADD MSTORE PUSH2 0x2179 SWAP1 DUP3 SWAP1 PUSH2 0x2769 JUMP JUMPDEST PUSH2 0x2182 DUP2 PUSH2 0x27BB JUMP JUMPDEST PUSH0 JUMPDEST DUP4 PUSH1 0xA0 ADD MLOAD MLOAD DUP2 LT ISZERO PUSH2 0x21C9 JUMPI PUSH2 0x21C1 DUP5 PUSH1 0xA0 ADD MLOAD DUP3 DUP2 MLOAD DUP2 LT PUSH2 0x21AA JUMPI PUSH2 0x21AA PUSH2 0x38E2 JUMP JUMPDEST PUSH1 0x20 MUL PUSH1 0x20 ADD ADD MLOAD DUP4 PUSH2 0x2769 SWAP1 SWAP2 SWAP1 PUSH4 0xFFFFFFFF AND JUMP JUMPDEST PUSH1 0x1 ADD PUSH2 0x2184 JUMP JUMPDEST POP PUSH2 0x21D3 DUP2 PUSH2 0x27DF JUMP JUMPDEST PUSH1 0x80 DUP4 ADD MLOAD MLOAD ISZERO PUSH2 0x2296 JUMPI PUSH0 DUP4 PUSH1 0x20 ADD MLOAD PUSH1 0x2 DUP2 GT ISZERO PUSH2 0x21F5 JUMPI PUSH2 0x21F5 PUSH2 0x394D JUMP JUMPDEST SUB PUSH2 0x2213 JUMPI PUSH1 0x40 MLOAD PUSH4 0xA80D31F7 PUSH1 0xE0 SHL DUP2 MSTORE PUSH1 0x4 ADD PUSH1 0x40 MLOAD DUP1 SWAP2 SUB SWAP1 REVERT JUMPDEST PUSH1 0x40 DUP1 MLOAD DUP1 DUP3 ADD SWAP1 SWAP2 MSTORE PUSH1 0xF DUP2 MSTORE PUSH15 0x39B2B1B932BA39A637B1B0BA34B7B7 PUSH1 0x89 SHL PUSH1 0x20 DUP3 ADD MSTORE PUSH2 0x2244 SWAP1 DUP3 SWAP1 PUSH2 0x2769 JUMP JUMPDEST PUSH2 0x225D DUP4 PUSH1 0x20 ADD MLOAD PUSH1 0x2 DUP2 GT ISZERO PUSH2 0x20C8 JUMPI PUSH2 0x20C8 PUSH2 0x394D JUMP JUMPDEST PUSH1 0x40 DUP1 MLOAD DUP1 DUP3 ADD SWAP1 SWAP2 MSTORE PUSH1 0x7 DUP2 MSTORE PUSH7 0x73656372657473 PUSH1 0xC8 SHL PUSH1 0x20 DUP3 ADD MSTORE PUSH2 0x2286 SWAP1 DUP3 SWAP1 PUSH2 0x2769 JUMP JUMPDEST PUSH1 0x80 DUP4 ADD MLOAD PUSH2 0x2296 SWAP1 DUP3 SWAP1 PUSH2 0x27FD JUMP JUMPDEST PUSH1 0xC0 DUP4 ADD MLOAD MLOAD ISZERO PUSH2 0x2326 JUMPI PUSH1 0x40 DUP1 MLOAD DUP1 DUP3 ADD SWAP1 SWAP2 MSTORE PUSH1 0x9 DUP2 MSTORE PUSH9 0x627974657341726773 PUSH1 0xB8 SHL PUSH1 0x20 DUP3 ADD MSTORE PUSH2 0x22CC SWAP1 DUP3 SWAP1 PUSH2 0x2769 JUMP JUMPDEST PUSH2 0x22D5 DUP2 PUSH2 0x27BB JUMP JUMPDEST PUSH0 JUMPDEST DUP4 PUSH1 0xC0 ADD MLOAD MLOAD DUP2 LT ISZERO PUSH2 0x231C JUMPI PUSH2 0x2314 DUP5 PUSH1 0xC0 ADD MLOAD DUP3 DUP2 MLOAD DUP2 LT PUSH2 0x22FD JUMPI PUSH2 0x22FD PUSH2 0x38E2 JUMP JUMPDEST PUSH1 0x20 MUL PUSH1 0x20 ADD ADD MLOAD DUP4 PUSH2 0x27FD SWAP1 SWAP2 SWAP1 PUSH4 0xFFFFFFFF AND JUMP JUMPDEST PUSH1 0x1 ADD PUSH2 0x22D7 JUMP JUMPDEST POP PUSH2 0x2326 DUP2 PUSH2 0x27DF JUMP JUMPDEST MLOAD MLOAD SWAP3 SWAP2 POP POP JUMP JUMPDEST PUSH0 PUSH0 PUSH32 0x0 PUSH1 0x1 PUSH1 0x1 PUSH1 0xA0 SHL SUB AND PUSH4 0x461D2762 DUP7 DUP9 PUSH1 0x1 DUP9 DUP9 PUSH1 0x40 MLOAD DUP7 PUSH4 0xFFFFFFFF AND PUSH1 0xE0 SHL DUP2 MSTORE PUSH1 0x4 ADD PUSH2 0x2385 SWAP6 SWAP5 SWAP4 SWAP3 SWAP2 SWAP1 PUSH2 0x3961 JUMP JUMPDEST PUSH1 0x20 PUSH1 0x40 MLOAD DUP1 DUP4 SUB DUP2 PUSH0 DUP8 GAS CALL ISZERO DUP1 ISZERO PUSH2 0x23A1 JUMPI RETURNDATASIZE PUSH0 PUSH0 RETURNDATACOPY RETURNDATASIZE PUSH0 REVERT JUMPDEST POP POP POP POP PUSH1 0x40 MLOAD RETURNDATASIZE PUSH1 0x1F NOT PUSH1 0x1F DUP3 ADD AND DUP3 ADD DUP1 PUSH1 0x40 MSTORE POP DUP2 ADD SWAP1 PUSH2 0x23C5 SWAP2 SWAP1 PUSH2 0x38CB JUMP JUMPDEST PUSH1 0x40 MLOAD SWAP1 SWAP2 POP DUP2 SWAP1 PUSH32 0x1131472297A800FEE664D1D89CFA8F7676FF07189ECC53F80BBB5F4969099DB8 SWAP1 PUSH0 SWAP1 LOG2 SWAP6 SWAP5 POP POP POP POP POP JUMP JUMPDEST PUSH0 DUP1 PUSH19 0x184F03E93FF9F4DAA797ED6E38ED64BF6A1F01 PUSH1 0x40 SHL DUP4 LT PUSH2 0x2439 JUMPI PUSH19 0x184F03E93FF9F4DAA797ED6E38ED64BF6A1F01 PUSH1 0x40 SHL DUP4 DIV SWAP3 POP PUSH1 0x40 ADD JUMPDEST PUSH14 0x4EE2D6D415B85ACEF8100000000 DUP4 LT PUSH2 0x2465 JUMPI PUSH14 0x4EE2D6D415B85ACEF8100000000 DUP4 DIV SWAP3 POP PUSH1 0x20 ADD JUMPDEST PUSH7 0x2386F26FC10000 DUP4 LT PUSH2 0x2483 JUMPI PUSH7 0x2386F26FC10000 DUP4 DIV SWAP3 POP PUSH1 0x10 ADD JUMPDEST PUSH4 0x5F5E100 DUP4 LT PUSH2 0x249B JUMPI PUSH4 0x5F5E100 DUP4 DIV SWAP3 POP PUSH1 0x8 ADD JUMPDEST PUSH2 0x2710 DUP4 LT PUSH2 0x24AF JUMPI PUSH2 0x2710 DUP4 DIV SWAP3 POP PUSH1 0x4 ADD JUMPDEST PUSH1 0x64 DUP4 LT PUSH2 0x24C1 JUMPI PUSH1 0x64 DUP4 DIV SWAP3 POP PUSH1 0x2 ADD JUMPDEST PUSH1 0xA DUP4 LT PUSH2 0x525 JUMPI PUSH1 0x1 ADD SWAP3 SWAP2 POP POP JUMP JUMPDEST PUSH1 0x60 DUP3 MLOAD PUSH0 SUB PUSH2 0x24F0 JUMPI POP PUSH1 0x40 DUP1 MLOAD PUSH1 0x20 DUP2 ADD SWAP1 SWAP2 MSTORE PUSH0 DUP2 MSTORE PUSH2 0x525 JUMP JUMPDEST PUSH0 DUP3 PUSH2 0x2520 JUMPI PUSH1 0x3 DUP5 MLOAD PUSH1 0x2 PUSH2 0x2506 SWAP2 SWAP1 PUSH2 0x32C8 JUMP JUMPDEST PUSH2 0x2510 SWAP2 SWAP1 PUSH2 0x3306 JUMP JUMPDEST PUSH2 0x251B SWAP1 PUSH1 0x4 PUSH2 0x32DB JUMP JUMPDEST PUSH2 0x2545 JUMP JUMPDEST PUSH1 0x3 DUP5 MLOAD PUSH1 0x4 PUSH2 0x2530 SWAP2 SWAP1 PUSH2 0x32DB JUMP JUMPDEST PUSH2 0x253B SWAP1 PUSH1 0x2 PUSH2 0x32C8 JUMP JUMPDEST PUSH2 0x2545 SWAP2 SWAP1 PUSH2 0x3306 JUMP JUMPDEST SWAP1 POP PUSH1 0x40 MLOAD SWAP2 POP PUSH32 0x4142434445464748494A4B4C4D4E4F505152535455565758595A616263646566 PUSH1 0x1F MSTORE PUSH2 0x670 DUP4 MUL PUSH32 0x6768696A6B6C6D6E6F707172737475767778797A303132333435363738392B2F XOR PUSH1 0x3F MSTORE PUSH1 0x20 DUP3 ADD DUP2 DUP2 ADD DUP6 DUP7 MLOAD DUP8 ADD PUSH1 0x20 DUP2 ADD DUP1 MLOAD PUSH0 DUP3 MSTORE JUMPDEST DUP3 DUP5 LT ISZERO PUSH2 0x2603 JUMPI PUSH1 0x3 DUP5 ADD SWAP4 POP DUP4 MLOAD PUSH1 0x3F DUP2 PUSH1 0x12 SHR AND MLOAD DUP8 MSTORE8 PUSH1 0x1 DUP8 ADD SWAP7 POP PUSH1 0x3F DUP2 PUSH1 0xC SHR AND MLOAD DUP8 MSTORE8 PUSH1 0x1 DUP8 ADD SWAP7 POP PUSH1 0x3F DUP2 PUSH1 0x6 SHR AND MLOAD DUP8 MSTORE8 PUSH1 0x1 DUP8 ADD SWAP7 POP PUSH1 0x3F DUP2 AND MLOAD DUP8 MSTORE8 POP PUSH1 0x1 DUP7 ADD SWAP6 POP PUSH2 0x25B0 JUMP JUMPDEST SWAP1 MSTORE POP DUP6 SWAP1 POP PUSH2 0x2644 JUMPI PUSH1 0x3 DUP7 MLOAD MOD PUSH1 0x1 DUP2 EQ PUSH2 0x2627 JUMPI PUSH1 0x2 DUP2 EQ PUSH2 0x263A JUMPI PUSH2 0x2642 JUMP JUMPDEST PUSH1 0x3D PUSH1 0x1 DUP5 SUB MSTORE8 PUSH1 0x3D PUSH1 0x2 DUP5 SUB MSTORE8 PUSH2 0x2642 JUMP JUMPDEST PUSH1 0x3D PUSH1 0x1 DUP5 SUB MSTORE8 JUMPDEST POP JUMPDEST SWAP2 DUP4 MSTORE POP PUSH1 0x40 MSTORE SWAP3 SWAP2 POP POP JUMP JUMPDEST PUSH2 0x265B DUP4 DUP4 PUSH2 0x280A JUMP JUMPDEST PUSH2 0x92B CALLER PUSH0 DUP6 DUP6 DUP6 PUSH2 0x1D80 JUMP JUMPDEST PUSH0 PUSH1 0x1 PUSH1 0x1 PUSH1 0xA0 SHL SUB DUP4 AND ISZERO DUP1 ISZERO SWAP1 PUSH2 0x26C4 JUMPI POP DUP3 PUSH1 0x1 PUSH1 0x1 PUSH1 0xA0 SHL SUB AND DUP5 PUSH1 0x1 PUSH1 0x1 PUSH1 0xA0 SHL SUB AND EQ DUP1 PUSH2 0x26A1 JUMPI POP PUSH2 0x26A1 DUP5 DUP5 PUSH2 0x13D4 JUMP JUMPDEST DUP1 PUSH2 0x26C4 JUMPI POP PUSH0 DUP3 DUP2 MSTORE PUSH1 0x4 PUSH1 0x20 MSTORE PUSH1 0x40 SWAP1 KECCAK256 SLOAD PUSH1 0x1 PUSH1 0x1 PUSH1 0xA0 SHL SUB DUP5 DUP2 AND SWAP2 AND EQ JUMPDEST SWAP5 SWAP4 POP POP POP POP JUMP JUMPDEST DUP1 MLOAD PUSH0 SUB PUSH2 0x26ED JUMPI PUSH1 0x40 MLOAD PUSH4 0x22CE3EDD PUSH1 0xE0 SHL DUP2 MSTORE PUSH1 0x4 ADD PUSH1 0x40 MLOAD DUP1 SWAP2 SUB SWAP1 REVERT JUMPDEST DUP4 DUP4 PUSH1 0x2 DUP2 GT ISZERO PUSH2 0x2700 JUMPI PUSH2 0x2700 PUSH2 0x394D JUMP JUMPDEST SWAP1 DUP2 PUSH1 0x2 DUP2 GT ISZERO PUSH2 0x2713 JUMPI PUSH2 0x2713 PUSH2 0x394D JUMP JUMPDEST SWAP1 MSTORE POP PUSH1 0x40 DUP5 ADD DUP3 DUP1 ISZERO PUSH2 0x2729 JUMPI PUSH2 0x2729 PUSH2 0x394D JUMP JUMPDEST SWAP1 DUP2 DUP1 ISZERO PUSH2 0x2739 JUMPI PUSH2 0x2739 PUSH2 0x394D JUMP JUMPDEST SWAP1 MSTORE POP PUSH1 0x60 SWAP1 SWAP4 ADD SWAP3 SWAP1 SWAP3 MSTORE POP POP JUMP JUMPDEST PUSH2 0x2751 PUSH2 0x2C02 JUMP JUMPDEST DUP1 MLOAD PUSH2 0x275D SWAP1 DUP4 PUSH2 0x286B JUMP JUMPDEST POP PUSH0 PUSH1 0x20 DUP3 ADD MSTORE SWAP2 SWAP1 POP JUMP JUMPDEST PUSH2 0x2776 DUP3 PUSH1 0x3 DUP4 MLOAD PUSH2 0x28DF JUMP JUMPDEST DUP2 MLOAD PUSH2 0x92B SWAP1 DUP3 PUSH2 0x29F8 JUMP JUMPDEST DUP2 MLOAD PUSH2 0x278F SWAP1 PUSH1 0xC2 PUSH2 0x2A1F JUMP JUMPDEST POP PUSH2 0x4FD DUP3 DUP3 PUSH1 0x40 MLOAD PUSH1 0x20 ADD PUSH2 0x27A7 SWAP2 DUP2 MSTORE PUSH1 0x20 ADD SWAP1 JUMP JUMPDEST PUSH1 0x40 MLOAD PUSH1 0x20 DUP2 DUP4 SUB SUB DUP2 MSTORE SWAP1 PUSH1 0x40 MSTORE PUSH2 0x27FD JUMP JUMPDEST PUSH2 0x27C6 DUP2 PUSH1 0x4 PUSH2 0x2A86 JUMP JUMPDEST PUSH1 0x1 DUP2 PUSH1 0x20 ADD DUP2 DUP2 MLOAD PUSH2 0x27D9 SWAP2 SWAP1 PUSH2 0x32C8 JUMP JUMPDEST SWAP1 MSTORE POP POP JUMP JUMPDEST PUSH2 0x27EA DUP2 PUSH1 0x7 PUSH2 0x2A86 JUMP JUMPDEST PUSH1 0x1 DUP2 PUSH1 0x20 ADD DUP2 DUP2 MLOAD PUSH2 0x27D9 SWAP2 SWAP1 PUSH2 0x32B5 JUMP JUMPDEST PUSH2 0x2776 DUP3 PUSH1 0x2 DUP4 MLOAD PUSH2 0x28DF JUMP JUMPDEST PUSH1 0x1 PUSH1 0x1 PUSH1 0xA0 SHL SUB DUP3 AND PUSH2 0x2833 JUMPI PUSH1 0x40 MLOAD PUSH4 0x32505749 PUSH1 0xE1 SHL DUP2 MSTORE PUSH0 PUSH1 0x4 DUP3 ADD MSTORE PUSH1 0x24 ADD PUSH2 0x72D JUMP JUMPDEST PUSH0 PUSH2 0x283F DUP4 DUP4 PUSH0 PUSH2 0x1924 JUMP JUMPDEST SWAP1 POP PUSH1 0x1 PUSH1 0x1 PUSH1 0xA0 SHL SUB DUP2 AND ISZERO PUSH2 0x92B JUMPI PUSH1 0x40 MLOAD PUSH4 0x39E35637 PUSH1 0xE1 SHL DUP2 MSTORE PUSH0 PUSH1 0x4 DUP3 ADD MSTORE PUSH1 0x24 ADD PUSH2 0x72D JUMP JUMPDEST PUSH1 0x40 DUP1 MLOAD DUP1 DUP3 ADD SWAP1 SWAP2 MSTORE PUSH1 0x60 DUP2 MSTORE PUSH0 PUSH1 0x20 DUP3 ADD MSTORE PUSH2 0x288A PUSH1 0x20 DUP4 PUSH2 0x3319 JUMP JUMPDEST ISZERO PUSH2 0x28B2 JUMPI PUSH2 0x289A PUSH1 0x20 DUP4 PUSH2 0x3319 JUMP JUMPDEST PUSH2 0x28A5 SWAP1 PUSH1 0x20 PUSH2 0x32B5 JUMP JUMPDEST PUSH2 0x28AF SWAP1 DUP4 PUSH2 0x32C8 JUMP JUMPDEST SWAP2 POP JUMPDEST PUSH1 0x20 DUP1 DUP5 ADD DUP4 SWAP1 MSTORE PUSH1 0x40 MLOAD DUP1 DUP6 MSTORE PUSH0 DUP2 MSTORE SWAP1 DUP2 DUP5 ADD ADD DUP2 DUP2 LT ISZERO PUSH2 0x28D4 JUMPI PUSH0 PUSH0 REVERT JUMPDEST PUSH1 0x40 MSTORE POP SWAP2 SWAP3 SWAP2 POP POP JUMP JUMPDEST PUSH1 0x17 DUP2 PUSH1 0x1 PUSH1 0x1 PUSH1 0x40 SHL SUB AND GT PUSH2 0x2905 JUMPI DUP3 MLOAD PUSH2 0x843 SWAP1 PUSH1 0xE0 PUSH1 0x5 DUP6 SWAP1 SHL AND DUP4 OR PUSH2 0x2A1F JUMP JUMPDEST PUSH1 0xFF DUP2 PUSH1 0x1 PUSH1 0x1 PUSH1 0x40 SHL SUB AND GT PUSH2 0x2945 JUMPI DUP3 MLOAD PUSH2 0x292D SWAP1 PUSH1 0x18 PUSH2 0x1FE0 PUSH1 0x5 DUP7 SWAP1 SHL AND OR PUSH2 0x2A1F JUMP JUMPDEST POP DUP3 MLOAD PUSH2 0x843 SWAP1 PUSH1 0x1 PUSH1 0x1 PUSH1 0x40 SHL SUB DUP4 AND PUSH1 0x1 PUSH2 0x2A9D JUMP JUMPDEST PUSH2 0xFFFF DUP2 PUSH1 0x1 PUSH1 0x1 PUSH1 0x40 SHL SUB AND GT PUSH2 0x2986 JUMPI DUP3 MLOAD PUSH2 0x296E SWAP1 PUSH1 0x19 PUSH2 0x1FE0 PUSH1 0x5 DUP7 SWAP1 SHL AND OR PUSH2 0x2A1F JUMP JUMPDEST POP DUP3 MLOAD PUSH2 0x843 SWAP1 PUSH1 0x1 PUSH1 0x1 PUSH1 0x40 SHL SUB DUP4 AND PUSH1 0x2 PUSH2 0x2A9D JUMP JUMPDEST PUSH4 0xFFFFFFFF DUP2 PUSH1 0x1 PUSH1 0x1 PUSH1 0x40 SHL SUB AND GT PUSH2 0x29C9 JUMPI DUP3 MLOAD PUSH2 0x29B1 SWAP1 PUSH1 0x1A PUSH2 0x1FE0 PUSH1 0x5 DUP7 SWAP1 SHL AND OR PUSH2 0x2A1F JUMP JUMPDEST POP DUP3 MLOAD PUSH2 0x843 SWAP1 PUSH1 0x1 PUSH1 0x1 PUSH1 0x40 SHL SUB DUP4 AND PUSH1 0x4 PUSH2 0x2A9D JUMP JUMPDEST DUP3 MLOAD PUSH2 0x29E0 SWAP1 PUSH1 0x1B PUSH2 0x1FE0 PUSH1 0x5 DUP7 SWAP1 SHL AND OR PUSH2 0x2A1F JUMP JUMPDEST POP DUP3 MLOAD PUSH2 0x843 SWAP1 PUSH1 0x1 PUSH1 0x1 PUSH1 0x40 SHL SUB DUP4 AND PUSH1 0x8 PUSH2 0x2A9D JUMP JUMPDEST PUSH1 0x40 DUP1 MLOAD DUP1 DUP3 ADD SWAP1 SWAP2 MSTORE PUSH1 0x60 DUP2 MSTORE PUSH0 PUSH1 0x20 DUP3 ADD MSTORE PUSH2 0x2A18 DUP4 DUP4 DUP5 MLOAD PUSH2 0x2B1F JUMP JUMPDEST SWAP4 SWAP3 POP POP POP JUMP JUMPDEST PUSH1 0x40 DUP1 MLOAD DUP1 DUP3 ADD SWAP1 SWAP2 MSTORE PUSH1 0x60 DUP2 MSTORE PUSH0 PUSH1 0x20 DUP3 ADD MSTORE DUP3 MLOAD MLOAD PUSH0 PUSH2 0x2A42 DUP3 PUSH1 0x1 PUSH2 0x32C8 JUMP JUMPDEST SWAP1 POP DUP5 PUSH1 0x20 ADD MLOAD DUP3 LT PUSH2 0x2A63 JUMPI PUSH2 0x2A63 DUP6 PUSH2 0x2A5E DUP4 PUSH1 0x2 PUSH2 0x32DB JUMP JUMPDEST PUSH2 0x2BEB JUMP JUMPDEST DUP5 MLOAD PUSH1 0x20 DUP4 DUP3 ADD ADD DUP6 DUP2 MSTORE8 POP DUP1 MLOAD DUP3 GT ISZERO PUSH2 0x2A7C JUMPI DUP2 DUP2 MSTORE JUMPDEST POP SWAP4 SWAP5 SWAP4 POP POP POP POP JUMP JUMPDEST DUP2 MLOAD PUSH2 0x92B SWAP1 PUSH1 0x1F PUSH2 0x1FE0 PUSH1 0x5 DUP6 SWAP1 SHL AND OR PUSH2 0x2A1F JUMP JUMPDEST PUSH1 0x40 DUP1 MLOAD DUP1 DUP3 ADD SWAP1 SWAP2 MSTORE PUSH1 0x60 DUP2 MSTORE PUSH0 PUSH1 0x20 DUP3 ADD MSTORE DUP4 MLOAD MLOAD PUSH0 PUSH2 0x2ABF DUP3 DUP6 PUSH2 0x32C8 JUMP JUMPDEST SWAP1 POP DUP6 PUSH1 0x20 ADD MLOAD DUP2 GT ISZERO PUSH2 0x2ADC JUMPI PUSH2 0x2ADC DUP7 PUSH2 0x2A5E DUP4 PUSH1 0x2 PUSH2 0x32DB JUMP JUMPDEST PUSH0 PUSH1 0x1 PUSH2 0x2AEB DUP7 PUSH2 0x100 PUSH2 0x3A8C JUMP JUMPDEST PUSH2 0x2AF5 SWAP2 SWAP1 PUSH2 0x32B5 JUMP JUMPDEST SWAP1 POP DUP7 MLOAD DUP3 DUP2 ADD DUP8 DUP4 NOT DUP3 MLOAD AND OR DUP2 MSTORE POP DUP1 MLOAD DUP4 GT ISZERO PUSH2 0x2B13 JUMPI DUP3 DUP2 MSTORE JUMPDEST POP SWAP6 SWAP7 SWAP6 POP POP POP POP POP POP JUMP JUMPDEST PUSH1 0x40 DUP1 MLOAD DUP1 DUP3 ADD SWAP1 SWAP2 MSTORE PUSH1 0x60 DUP2 MSTORE PUSH0 PUSH1 0x20 DUP3 ADD MSTORE DUP3 MLOAD DUP3 GT ISZERO PUSH2 0x2B40 JUMPI PUSH0 PUSH0 REVERT JUMPDEST DUP4 MLOAD MLOAD PUSH0 PUSH2 0x2B4E DUP5 DUP4 PUSH2 0x32C8 JUMP JUMPDEST SWAP1 POP DUP6 PUSH1 0x20 ADD MLOAD DUP2 GT ISZERO PUSH2 0x2B6B JUMPI PUSH2 0x2B6B DUP7 PUSH2 0x2A5E DUP4 PUSH1 0x2 PUSH2 0x32DB JUMP JUMPDEST DUP6 MLOAD DUP1 MLOAD DUP4 DUP3 ADD PUSH1 0x20 ADD SWAP2 PUSH0 SWAP2 DUP1 DUP6 GT ISZERO PUSH2 0x2B84 JUMPI DUP5 DUP3 MSTORE JUMPDEST POP POP POP PUSH1 0x20 DUP7 ADD JUMPDEST PUSH1 0x20 DUP7 LT PUSH2 0x2BC4 JUMPI DUP1 MLOAD DUP3 MSTORE PUSH2 0x2BA3 PUSH1 0x20 DUP4 PUSH2 0x32C8 JUMP JUMPDEST SWAP2 POP PUSH2 0x2BB0 PUSH1 0x20 DUP3 PUSH2 0x32C8 JUMP JUMPDEST SWAP1 POP PUSH2 0x2BBD PUSH1 0x20 DUP8 PUSH2 0x32B5 JUMP JUMPDEST SWAP6 POP PUSH2 0x2B8C JUMP JUMPDEST MLOAD DUP2 MLOAD PUSH0 NOT PUSH1 0x20 DUP9 SWAP1 SUB PUSH2 0x100 EXP ADD SWAP1 DUP2 AND SWAP1 NOT SWAP2 SWAP1 SWAP2 AND OR SWAP1 MSTORE POP DUP5 SWAP2 POP POP SWAP4 SWAP3 POP POP POP JUMP JUMPDEST DUP2 MLOAD PUSH2 0x2BF7 DUP4 DUP4 PUSH2 0x286B JUMP JUMPDEST POP PUSH2 0x843 DUP4 DUP3 PUSH2 0x29F8 JUMP JUMPDEST PUSH1 0x40 MLOAD DUP1 PUSH1 0x40 ADD PUSH1 0x40 MSTORE DUP1 PUSH2 0x2C29 PUSH1 0x40 MLOAD DUP1 PUSH1 0x40 ADD PUSH1 0x40 MSTORE DUP1 PUSH1 0x60 DUP2 MSTORE PUSH1 0x20 ADD PUSH0 DUP2 MSTORE POP SWAP1 JUMP JUMPDEST DUP2 MSTORE PUSH1 0x20 ADD PUSH0 DUP2 MSTORE POP SWAP1 JUMP JUMPDEST PUSH4 0x4E487B71 PUSH1 0xE0 SHL PUSH0 MSTORE PUSH1 0x41 PUSH1 0x4 MSTORE PUSH1 0x24 PUSH0 REVERT JUMPDEST PUSH1 0x40 MLOAD PUSH1 0x1F DUP3 ADD PUSH1 0x1F NOT AND DUP2 ADD PUSH1 0x1 PUSH1 0x1 PUSH1 0x40 SHL SUB DUP2 GT DUP3 DUP3 LT OR ISZERO PUSH2 0x2C71 JUMPI PUSH2 0x2C71 PUSH2 0x2C35 JUMP JUMPDEST PUSH1 0x40 MSTORE SWAP2 SWAP1 POP JUMP JUMPDEST PUSH0 PUSH1 0x1 PUSH1 0x1 PUSH1 0x40 SHL SUB DUP3 GT ISZERO PUSH2 0x2C91 JUMPI PUSH2 0x2C91 PUSH2 0x2C35 JUMP JUMPDEST POP PUSH1 0x1F ADD PUSH1 0x1F NOT AND PUSH1 0x20 ADD SWAP1 JUMP JUMPDEST PUSH0 DUP3 PUSH1 0x1F DUP4 ADD SLT PUSH2 0x2CAE JUMPI PUSH0 PUSH0 REVERT JUMPDEST DUP2 CALLDATALOAD PUSH1 0x20 DUP4 ADD PUSH0 PUSH2 0x2CC6 PUSH2 0x2CC1 DUP5 PUSH2 0x2C79 JUMP JUMPDEST PUSH2 0x2C49 JUMP JUMPDEST SWAP1 POP DUP3 DUP2 MSTORE DUP6 DUP4 DUP4 ADD GT ISZERO PUSH2 0x2CD9 JUMPI PUSH0 PUSH0 REVERT JUMPDEST DUP3 DUP3 PUSH1 0x20 DUP4 ADD CALLDATACOPY PUSH0 SWAP3 DUP2 ADD PUSH1 0x20 ADD SWAP3 SWAP1 SWAP3 MSTORE POP SWAP4 SWAP3 POP POP POP JUMP JUMPDEST PUSH0 PUSH1 0x20 DUP3 DUP5 SUB SLT ISZERO PUSH2 0x2D03 JUMPI PUSH0 PUSH0 REVERT JUMPDEST DUP2 CALLDATALOAD PUSH1 0x1 PUSH1 0x1 PUSH1 0x40 SHL SUB DUP2 GT ISZERO PUSH2 0x2D18 JUMPI PUSH0 PUSH0 REVERT JUMPDEST PUSH2 0x26C4 DUP5 DUP3 DUP6 ADD PUSH2 0x2C9F JUMP JUMPDEST PUSH1 0x1 PUSH1 0x1 PUSH1 0xE0 SHL SUB NOT DUP2 AND DUP2 EQ PUSH2 0x153E JUMPI PUSH0 PUSH0 REVERT JUMPDEST PUSH0 PUSH1 0x20 DUP3 DUP5 SUB SLT ISZERO PUSH2 0x2D49 JUMPI PUSH0 PUSH0 REVERT JUMPDEST DUP2 CALLDATALOAD PUSH2 0x2A18 DUP2 PUSH2 0x2D24 JUMP JUMPDEST PUSH0 DUP2 MLOAD DUP1 DUP5 MSTORE DUP1 PUSH1 0x20 DUP5 ADD PUSH1 0x20 DUP7 ADD MCOPY PUSH0 PUSH1 0x20 DUP3 DUP7 ADD ADD MSTORE PUSH1 0x20 PUSH1 0x1F NOT PUSH1 0x1F DUP4 ADD AND DUP6 ADD ADD SWAP2 POP POP SWAP3 SWAP2 POP POP JUMP JUMPDEST PUSH1 0x20 DUP2 MSTORE PUSH0 PUSH2 0x2A18 PUSH1 0x20 DUP4 ADD DUP5 PUSH2 0x2D54 JUMP JUMPDEST PUSH0 PUSH1 0x20 DUP3 DUP5 SUB SLT ISZERO PUSH2 0x2DA4 JUMPI PUSH0 PUSH0 REVERT JUMPDEST POP CALLDATALOAD SWAP2 SWAP1 POP JUMP JUMPDEST DUP1 CALLDATALOAD PUSH1 0x1 PUSH1 0x1 PUSH1 0xA0 SHL SUB DUP2 AND DUP2 EQ PUSH2 0x2DC1 JUMPI PUSH0 PUSH0 REVERT JUMPDEST SWAP2 SWAP1 POP JUMP JUMPDEST PUSH0 PUSH0 PUSH1 0x40 DUP4 DUP6 SUB SLT ISZERO PUSH2 0x2DD7 JUMPI PUSH0 PUSH0 REVERT JUMPDEST PUSH2 0x2DE0 DUP4 PUSH2 0x2DAB JUMP JUMPDEST SWAP5 PUSH1 0x20 SWAP4 SWAP1 SWAP4 ADD CALLDATALOAD SWAP4 POP POP POP JUMP JUMPDEST PUSH0 PUSH0 PUSH0 PUSH1 0x60 DUP5 DUP7 SUB SLT ISZERO PUSH2 0x2E00 JUMPI PUSH0 PUSH0 REVERT JUMPDEST DUP4 CALLDATALOAD SWAP3 POP PUSH1 0x20 DUP5 ADD CALLDATALOAD PUSH1 0x1 PUSH1 0x1 PUSH1 0x40 SHL SUB DUP2 GT ISZERO PUSH2 0x2E1C JUMPI PUSH0 PUSH0 REVERT JUMPDEST PUSH2 0x2E28 DUP7 DUP3 DUP8 ADD PUSH2 0x2C9F JUMP JUMPDEST SWAP3 POP POP PUSH1 0x40 DUP5 ADD CALLDATALOAD PUSH1 0x1 PUSH1 0x1 PUSH1 0x40 SHL SUB DUP2 GT ISZERO PUSH2 0x2E43 JUMPI PUSH0 PUSH0 REVERT JUMPDEST PUSH2 0x2E4F DUP7 DUP3 DUP8 ADD PUSH2 0x2C9F JUMP JUMPDEST SWAP2 POP POP SWAP3 POP SWAP3 POP SWAP3 JUMP JUMPDEST PUSH0 PUSH0 PUSH1 0x40 DUP4 DUP6 SUB SLT ISZERO PUSH2 0x2E6A JUMPI PUSH0 PUSH0 REVERT JUMPDEST POP POP DUP1 CALLDATALOAD SWAP3 PUSH1 0x20 SWAP1 SWAP2 ADD CALLDATALOAD SWAP2 POP JUMP JUMPDEST PUSH0 PUSH0 PUSH0 PUSH1 0x60 DUP5 DUP7 SUB SLT ISZERO PUSH2 0x2E8B JUMPI PUSH0 PUSH0 REVERT JUMPDEST PUSH2 0x2E94 DUP5 PUSH2 0x2DAB JUMP JUMPDEST SWAP3 POP PUSH2 0x2EA2 PUSH1 0x20 DUP6 ADD PUSH2 0x2DAB JUMP JUMPDEST SWAP3 SWAP6 SWAP3 SWAP5 POP POP POP PUSH1 0x40 SWAP2 SWAP1 SWAP2 ADD CALLDATALOAD SWAP1 JUMP JUMPDEST PUSH0 PUSH0 PUSH1 0x20 DUP4 DUP6 SUB SLT ISZERO PUSH2 0x2EC4 JUMPI PUSH0 PUSH0 REVERT JUMPDEST DUP3 CALLDATALOAD PUSH1 0x1 PUSH1 0x1 PUSH1 0x40 SHL SUB DUP2 GT ISZERO PUSH2 0x2ED9 JUMPI PUSH0 PUSH0 REVERT JUMPDEST DUP4 ADD PUSH1 0x1F DUP2 ADD DUP6 SGT PUSH2 0x2EE9 JUMPI PUSH0 PUSH0 REVERT JUMPDEST DUP1 CALLDATALOAD PUSH1 0x1 PUSH1 0x1 PUSH1 0x40 SHL SUB DUP2 GT ISZERO PUSH2 0x2EFE JUMPI PUSH0 PUSH0 REVERT JUMPDEST DUP6 PUSH1 0x20 DUP3 DUP5 ADD ADD GT ISZERO PUSH2 0x2F0F JUMPI PUSH0 PUSH0 REVERT JUMPDEST PUSH1 0x20 SWAP2 SWAP1 SWAP2 ADD SWAP6 SWAP1 SWAP5 POP SWAP3 POP POP POP JUMP JUMPDEST PUSH1 0x20 DUP2 MSTORE PUSH0 DUP3 MLOAD PUSH1 0xC0 PUSH1 0x20 DUP5 ADD MSTORE PUSH2 0x2F3A PUSH1 0xE0 DUP5 ADD DUP3 PUSH2 0x2D54 JUMP JUMPDEST SWAP1 POP PUSH1 0x20 DUP5 ADD MLOAD PUSH1 0x1F NOT DUP5 DUP4 SUB ADD PUSH1 0x40 DUP6 ADD MSTORE PUSH2 0x2F57 DUP3 DUP3 PUSH2 0x2D54 JUMP JUMPDEST SWAP2 POP POP PUSH1 0x1 PUSH1 0x1 PUSH1 0x40 SHL SUB PUSH1 0x40 DUP6 ADD MLOAD AND PUSH1 0x60 DUP5 ADD MSTORE PUSH1 0x1 PUSH1 0x1 PUSH1 0x40 SHL SUB PUSH1 0x60 DUP6 ADD MLOAD AND PUSH1 0x80 DUP5 ADD MSTORE PUSH1 0x1 PUSH1 0x1 PUSH1 0x40 SHL SUB PUSH1 0x80 DUP6 ADD MLOAD AND PUSH1 0xA0 DUP5 ADD MSTORE PUSH1 0x1 PUSH1 0x1 PUSH1 0x40 SHL SUB PUSH1 0xA0 DUP6 ADD MLOAD AND PUSH1 0xC0 DUP5 ADD MSTORE DUP1 SWAP2 POP POP SWAP3 SWAP2 POP POP JUMP JUMPDEST DUP3 ISZERO ISZERO DUP2 MSTORE PUSH1 0x40 PUSH1 0x20 DUP3 ADD MSTORE PUSH0 PUSH2 0x26C4 PUSH1 0x40 DUP4 ADD DUP5 PUSH2 0x2D54 JUMP JUMPDEST PUSH0 PUSH1 0x20 DUP3 DUP5 SUB SLT ISZERO PUSH2 0x2FDA JUMPI PUSH0 PUSH0 REVERT JUMPDEST PUSH2 0x2A18 DUP3 PUSH2 0x2DAB JUMP JUMPDEST PUSH0 PUSH0 PUSH1 0x40 DUP4 DUP6 SUB SLT ISZERO PUSH2 0x2FF4 JUMPI PUSH0 PUSH0 REVERT JUMPDEST PUSH2 0x2FFD DUP4 PUSH2 0x2DAB JUMP JUMPDEST SWAP2 POP PUSH1 0x20 DUP4 ADD CALLDATALOAD DUP1 ISZERO ISZERO DUP2 EQ PUSH2 0x3011 JUMPI PUSH0 PUSH0 REVERT JUMPDEST DUP1 SWAP2 POP POP SWAP3 POP SWAP3 SWAP1 POP JUMP JUMPDEST PUSH1 0xC0 DUP2 MSTORE PUSH0 PUSH2 0x302E PUSH1 0xC0 DUP4 ADD DUP10 PUSH2 0x2D54 JUMP JUMPDEST DUP3 DUP2 SUB PUSH1 0x20 DUP5 ADD MSTORE PUSH2 0x3040 DUP2 DUP10 PUSH2 0x2D54 JUMP JUMPDEST PUSH1 0x1 PUSH1 0x1 PUSH1 0x40 SHL SUB SWAP8 DUP9 AND PUSH1 0x40 DUP6 ADD MSTORE SWAP6 DUP8 AND PUSH1 0x60 DUP5 ADD MSTORE POP POP SWAP2 DUP5 AND PUSH1 0x80 DUP4 ADD MSTORE SWAP1 SWAP3 AND PUSH1 0xA0 SWAP1 SWAP3 ADD SWAP2 SWAP1 SWAP2 MSTORE SWAP3 SWAP2 POP POP JUMP JUMPDEST PUSH0 PUSH0 PUSH0 PUSH0 PUSH1 0x80 DUP6 DUP8 SUB SLT ISZERO PUSH2 0x3087 JUMPI PUSH0 PUSH0 REVERT JUMPDEST PUSH2 0x3090 DUP6 PUSH2 0x2DAB JUMP JUMPDEST SWAP4 POP PUSH2 0x309E PUSH1 0x20 DUP7 ADD PUSH2 0x2DAB JUMP JUMPDEST SWAP3 POP PUSH1 0x40 DUP6 ADD CALLDATALOAD SWAP2 POP PUSH1 0x60 DUP6 ADD CALLDATALOAD PUSH1 0x1 PUSH1 0x1 PUSH1 0x40 SHL SUB DUP2 GT ISZERO PUSH2 0x30BF JUMPI PUSH0 PUSH0 REVERT JUMPDEST PUSH2 0x30CB DUP8 DUP3 DUP9 ADD PUSH2 0x2C9F JUMP JUMPDEST SWAP2 POP POP SWAP3 SWAP6 SWAP2 SWAP5 POP SWAP3 POP JUMP JUMPDEST PUSH0 PUSH0 PUSH1 0x40 DUP4 DUP6 SUB SLT ISZERO PUSH2 0x30E8 JUMPI PUSH0 PUSH0 REVERT JUMPDEST PUSH2 0x30F1 DUP4 PUSH2 0x2DAB JUMP JUMPDEST SWAP2 POP PUSH2 0x30FF PUSH1 0x20 DUP5 ADD PUSH2 0x2DAB JUMP JUMPDEST SWAP1 POP SWAP3 POP SWAP3 SWAP1 POP JUMP JUMPDEST PUSH0 PUSH0 PUSH0 PUSH1 0x60 DUP5 DUP7 SUB SLT ISZERO PUSH2 0x311A JUMPI PUSH0 PUSH0 REVERT JUMPDEST PUSH2 0x3123 DUP5 PUSH2 0x2DAB JUMP JUMPDEST SWAP3 POP PUSH1 0x20 DUP5 ADD CALLDATALOAD PUSH1 0x1 PUSH1 0x1 PUSH1 0x40 SHL SUB DUP2 GT ISZERO PUSH2 0x2E1C JUMPI PUSH0 PUSH0 REVERT JUMPDEST PUSH1 0x1 DUP2 DUP2 SHR SWAP1 DUP3 AND DUP1 PUSH2 0x3151 JUMPI PUSH1 0x7F DUP3 AND SWAP2 POP JUMPDEST PUSH1 0x20 DUP3 LT DUP2 SUB PUSH2 0x316F JUMPI PUSH4 0x4E487B71 PUSH1 0xE0 SHL PUSH0 MSTORE PUSH1 0x22 PUSH1 0x4 MSTORE PUSH1 0x24 PUSH0 REVERT JUMPDEST POP SWAP2 SWAP1 POP JUMP JUMPDEST PUSH1 0x1F DUP3 GT ISZERO PUSH2 0x92B JUMPI DUP1 PUSH0 MSTORE PUSH1 0x20 PUSH0 KECCAK256 PUSH1 0x1F DUP5 ADD PUSH1 0x5 SHR DUP2 ADD PUSH1 0x20 DUP6 LT ISZERO PUSH2 0x319A JUMPI POP DUP1 JUMPDEST PUSH1 0x1F DUP5 ADD PUSH1 0x5 SHR DUP3 ADD SWAP2 POP JUMPDEST DUP2 DUP2 LT ISZERO PUSH2 0x1EA1 JUMPI PUSH0 DUP2 SSTORE PUSH1 0x1 ADD PUSH2 0x31A6 JUMP JUMPDEST DUP2 MLOAD PUSH1 0x1 PUSH1 0x1 PUSH1 0x40 SHL SUB DUP2 GT ISZERO PUSH2 0x31D2 JUMPI PUSH2 0x31D2 PUSH2 0x2C35 JUMP JUMPDEST PUSH2 0x31E6 DUP2 PUSH2 0x31E0 DUP5 SLOAD PUSH2 0x313D JUMP JUMPDEST DUP5 PUSH2 0x3175 JUMP JUMPDEST PUSH1 0x20 PUSH1 0x1F DUP3 GT PUSH1 0x1 DUP2 EQ PUSH2 0x3218 JUMPI PUSH0 DUP4 ISZERO PUSH2 0x3201 JUMPI POP DUP5 DUP3 ADD MLOAD JUMPDEST PUSH0 NOT PUSH1 0x3 DUP6 SWAP1 SHL SHR NOT AND PUSH1 0x1 DUP5 SWAP1 SHL OR DUP5 SSTORE PUSH2 0x1EA1 JUMP JUMPDEST PUSH0 DUP5 DUP2 MSTORE PUSH1 0x20 DUP2 KECCAK256 PUSH1 0x1F NOT DUP6 AND SWAP2 JUMPDEST DUP3 DUP2 LT ISZERO PUSH2 0x3247 JUMPI DUP8 DUP6 ADD MLOAD DUP3 SSTORE PUSH1 0x20 SWAP5 DUP6 ADD SWAP5 PUSH1 0x1 SWAP1 SWAP3 ADD SWAP2 ADD PUSH2 0x3227 JUMP JUMPDEST POP DUP5 DUP3 LT ISZERO PUSH2 0x3264 JUMPI DUP7 DUP5 ADD MLOAD PUSH0 NOT PUSH1 0x3 DUP8 SWAP1 SHL PUSH1 0xF8 AND SHR NOT AND DUP2 SSTORE JUMPDEST POP POP POP POP PUSH1 0x1 SWAP1 DUP2 SHL ADD SWAP1 SSTORE POP JUMP JUMPDEST PUSH1 0x20 DUP1 DUP3 MSTORE PUSH1 0x14 SWAP1 DUP3 ADD MSTORE PUSH20 0x151BDAD95B881251081D1A59185AC81D985B1A59 PUSH1 0x62 SHL PUSH1 0x40 DUP3 ADD MSTORE PUSH1 0x60 ADD SWAP1 JUMP JUMPDEST PUSH4 0x4E487B71 PUSH1 0xE0 SHL PUSH0 MSTORE PUSH1 0x11 PUSH1 0x4 MSTORE PUSH1 0x24 PUSH0 REVERT JUMPDEST DUP2 DUP2 SUB DUP2 DUP2 GT ISZERO PUSH2 0x525 JUMPI PUSH2 0x525 PUSH2 0x32A1 JUMP JUMPDEST DUP1 DUP3 ADD DUP1 DUP3 GT ISZERO PUSH2 0x525 JUMPI PUSH2 0x525 PUSH2 0x32A1 JUMP JUMPDEST DUP1 DUP3 MUL DUP2 ISZERO DUP3 DUP3 DIV DUP5 EQ OR PUSH2 0x525 JUMPI PUSH2 0x525 PUSH2 0x32A1 JUMP JUMPDEST PUSH4 0x4E487B71 PUSH1 0xE0 SHL PUSH0 MSTORE PUSH1 0x12 PUSH1 0x4 MSTORE PUSH1 0x24 PUSH0 REVERT JUMPDEST PUSH0 DUP3 PUSH2 0x3314 JUMPI PUSH2 0x3314 PUSH2 0x32F2 JUMP JUMPDEST POP DIV SWAP1 JUMP JUMPDEST PUSH0 DUP3 PUSH2 0x3327 JUMPI PUSH2 0x3327 PUSH2 0x32F2 JUMP JUMPDEST POP MOD SWAP1 JUMP JUMPDEST PUSH0 DUP2 MLOAD DUP1 PUSH1 0x20 DUP5 ADD DUP6 MCOPY PUSH0 SWAP4 ADD SWAP3 DUP4 MSTORE POP SWAP1 SWAP2 SWAP1 POP JUMP JUMPDEST PUSH1 0x3 PUSH1 0xFC SHL DUP2 MSTORE PUSH0 PUSH2 0x2A18 PUSH1 0x1 DUP4 ADD DUP5 PUSH2 0x332C JUMP JUMPDEST PUSH0 PUSH2 0x3363 DUP3 DUP6 PUSH2 0x332C JUMP JUMPDEST PUSH1 0x17 PUSH1 0xF9 SHL DUP2 MSTORE PUSH2 0x3377 PUSH1 0x1 DUP3 ADD DUP6 PUSH2 0x332C JUMP JUMPDEST SWAP6 SWAP5 POP POP POP POP POP JUMP JUMPDEST PUSH0 PUSH1 0x20 DUP3 DUP5 SUB SLT ISZERO PUSH2 0x3390 JUMPI PUSH0 PUSH0 REVERT JUMPDEST DUP2 MLOAD PUSH1 0x1 PUSH1 0x1 PUSH1 0x40 SHL SUB DUP2 GT ISZERO PUSH2 0x33A5 JUMPI PUSH0 PUSH0 REVERT JUMPDEST DUP3 ADD PUSH1 0x1F DUP2 ADD DUP5 SGT PUSH2 0x33B5 JUMPI PUSH0 PUSH0 REVERT JUMPDEST DUP1 MLOAD PUSH2 0x33C3 PUSH2 0x2CC1 DUP3 PUSH2 0x2C79 JUMP JUMPDEST DUP2 DUP2 MSTORE DUP6 PUSH1 0x20 DUP4 DUP6 ADD ADD GT ISZERO PUSH2 0x33D7 JUMPI PUSH0 PUSH0 REVERT JUMPDEST DUP2 PUSH1 0x20 DUP5 ADD PUSH1 0x20 DUP4 ADD MCOPY PUSH0 SWAP2 DUP2 ADD PUSH1 0x20 ADD SWAP2 SWAP1 SWAP2 MSTORE SWAP5 SWAP4 POP POP POP POP JUMP JUMPDEST PUSH1 0x40 DUP2 MSTORE PUSH0 DUP4 MLOAD PUSH1 0xC0 PUSH1 0x40 DUP5 ADD MSTORE PUSH2 0x3410 PUSH2 0x100 DUP5 ADD DUP3 PUSH2 0x2D54 JUMP JUMPDEST SWAP1 POP PUSH1 0x20 DUP6 ADD MLOAD PUSH1 0x3F NOT DUP5 DUP4 SUB ADD PUSH1 0x60 DUP6 ADD MSTORE PUSH2 0x342D DUP3 DUP3 PUSH2 0x2D54 JUMP JUMPDEST SWAP2 POP POP PUSH1 0x1 PUSH1 0x1 PUSH1 0x40 SHL SUB PUSH1 0x40 DUP7 ADD MLOAD AND PUSH1 0x80 DUP5 ADD MSTORE PUSH1 0x1 PUSH1 0x1 PUSH1 0x40 SHL SUB PUSH1 0x60 DUP7 ADD MLOAD AND PUSH1 0xA0 DUP5 ADD MSTORE PUSH1 0x1 PUSH1 0x1 PUSH1 0x40 SHL SUB PUSH1 0x80 DUP7 ADD MLOAD AND PUSH1 0xC0 DUP5 ADD MSTORE PUSH1 0x1 PUSH1 0x1 PUSH1 0x40 SHL SUB PUSH1 0xA0 DUP7 ADD MLOAD AND PUSH1 0xE0 DUP5 ADD MSTORE DUP3 DUP2 SUB PUSH1 0x20 DUP5 ADD MSTORE PUSH2 0x3377 DUP2 DUP6 PUSH2 0x2D54 JUMP JUMPDEST PUSH32 0x3C7376672077696474683D2233323022206865696768743D2234303022207669 DUP2 MSTORE PUSH32 0x6577426F783D2230203020333230203430302220786D6C6E733D22687474703A PUSH1 0x20 DUP3 ADD MSTORE PUSH32 0x2F2F7777772E77332E6F72672F323030302F737667223E000000000000000000 PUSH1 0x40 DUP3 ADD MSTORE PUSH32 0x3C672073686170652D72656E646572696E673D2263726973704564676573223E PUSH1 0x57 DUP3 ADD MSTORE PUSH0 PUSH2 0x3531 PUSH1 0x77 DUP4 ADD DUP7 PUSH2 0x332C JUMP JUMPDEST PUSH4 0x1E17B39F PUSH1 0xE1 SHL DUP2 MSTORE PUSH2 0x3551 PUSH2 0x354B PUSH1 0x4 DUP4 ADD DUP8 PUSH2 0x332C JUMP JUMPDEST DUP6 PUSH2 0x332C JUMP JUMPDEST PUSH6 0x1E17B9BB339F PUSH1 0xD1 SHL DUP2 MSTORE PUSH1 0x6 ADD SWAP7 SWAP6 POP POP POP POP POP POP JUMP JUMPDEST PUSH32 0x7B2274726169745F74797065223A20224E69636B6E616D65222C202276616C75 DUP2 MSTORE PUSH5 0x32911D1011 PUSH1 0xD9 SHL PUSH1 0x20 DUP3 ADD MSTORE PUSH0 PUSH2 0x35A9 PUSH1 0x25 DUP4 ADD DUP7 PUSH2 0x332C JUMP JUMPDEST PUSH3 0x89F4B PUSH1 0xEA SHL DUP2 MSTORE PUSH32 0x7B2274726169745F74797065223A20224C616E65222C202276616C7565223A20 PUSH1 0x3 DUP3 ADD MSTORE PUSH1 0x11 PUSH1 0xF9 SHL PUSH1 0x23 DUP3 ADD MSTORE PUSH2 0x35EF PUSH1 0x24 DUP3 ADD DUP7 PUSH2 0x332C JUMP JUMPDEST PUSH3 0x89F4B PUSH1 0xEA SHL DUP2 MSTORE PUSH32 0x7B2274726169745F74797065223A202247616D6573222C202276616C7565223A PUSH1 0x3 DUP3 ADD MSTORE PUSH1 0x1 PUSH1 0xFD SHL PUSH1 0x23 DUP3 ADD MSTORE SWAP1 POP PUSH2 0x3637 PUSH1 0x24 DUP3 ADD DUP6 PUSH2 0x332C JUMP JUMPDEST PUSH2 0x1F4B PUSH1 0xF2 SHL DUP2 MSTORE PUSH1 0x2 ADD SWAP7 SWAP6 POP POP POP POP POP POP JUMP JUMPDEST PUSH32 0x7B2274726169745F74797065223A20224B696C6C73222C202276616C7565223A DUP2 MSTORE PUSH1 0x1 PUSH1 0xFD SHL PUSH1 0x20 DUP3 ADD MSTORE PUSH0 PUSH2 0x3687 PUSH1 0x21 DUP4 ADD DUP7 PUSH2 0x332C JUMP JUMPDEST PUSH2 0x1F4B PUSH1 0xF2 SHL DUP2 MSTORE PUSH32 0x7B2274726169745F74797065223A2022446561746873222C202276616C756522 PUSH1 0x2 DUP3 ADD MSTORE PUSH2 0x1D1 PUSH1 0xF5 SHL PUSH1 0x22 DUP3 ADD MSTORE PUSH2 0x36CD PUSH1 0x24 DUP3 ADD DUP7 PUSH2 0x332C JUMP JUMPDEST PUSH2 0x1F4B PUSH1 0xF2 SHL DUP2 MSTORE PUSH32 0x7B2274726169745F74797065223A202241737369737473222C202276616C7565 PUSH1 0x2 DUP3 ADD MSTORE PUSH3 0x111D1 PUSH1 0xED SHL PUSH1 0x22 DUP3 ADD MSTORE SWAP1 POP PUSH2 0x3716 PUSH1 0x25 DUP3 ADD DUP6 PUSH2 0x332C JUMP JUMPDEST PUSH1 0x7D PUSH1 0xF8 SHL DUP2 MSTORE PUSH1 0x1 ADD SWAP7 SWAP6 POP POP POP POP POP POP JUMP JUMPDEST PUSH20 0x7B226E616D65223A20224D504C20436172642023 PUSH1 0x60 SHL DUP2 MSTORE PUSH0 PUSH2 0x3752 PUSH1 0x14 DUP4 ADD DUP8 PUSH2 0x332C JUMP JUMPDEST PUSH3 0x11161 PUSH1 0xED SHL DUP2 MSTORE PUSH32 0x226465736372697074696F6E223A20224B6172747520644E4654204D504C2049 PUSH1 0x3 DUP3 ADD MSTORE PUSH32 0x6E646F6E657369612E2053746174697374696B2070656D61696E206469706572 PUSH1 0x23 DUP3 ADD MSTORE PUSH32 0x626172756920736563617261207265616C2D74696D6520646172692041504920 PUSH1 0x43 DUP3 ADD MSTORE PUSH32 0x6D656C616C756920436861696E6C696E6B2046756E6374696F6E732E222C2000 PUSH1 0x63 DUP3 ADD MSTORE PUSH15 0x2261747472696275746573223A205B PUSH1 0x88 SHL PUSH1 0x82 DUP3 ADD MSTORE PUSH2 0x3821 PUSH2 0x381B PUSH1 0x91 DUP4 ADD DUP9 PUSH2 0x332C JUMP JUMPDEST DUP7 PUSH2 0x332C JUMP JUMPDEST SWAP1 POP PUSH3 0x2E961 PUSH1 0xED SHL DUP2 MSTORE PUSH32 0x22696D616765223A2022646174613A696D6167652F7376672B786D6C3B626173 PUSH1 0x3 DUP3 ADD MSTORE PUSH4 0x194D8D0B PUSH1 0xE2 SHL PUSH1 0x23 DUP3 ADD MSTORE PUSH2 0x386C PUSH1 0x27 DUP3 ADD DUP6 PUSH2 0x332C JUMP JUMPDEST PUSH2 0x227D PUSH1 0xF0 SHL DUP2 MSTORE PUSH1 0x2 ADD SWAP8 SWAP7 POP POP POP POP POP POP POP JUMP JUMPDEST PUSH32 0x646174613A6170706C69636174696F6E2F6A736F6E3B6261736536342C000000 DUP2 MSTORE PUSH0 PUSH2 0x2A18 PUSH1 0x1D DUP4 ADD DUP5 PUSH2 0x332C JUMP JUMPDEST PUSH0 PUSH1 0x1 DUP3 ADD PUSH2 0x38C4 JUMPI PUSH2 0x38C4 PUSH2 0x32A1 JUMP JUMPDEST POP PUSH1 0x1 ADD SWAP1 JUMP JUMPDEST PUSH0 PUSH1 0x20 DUP3 DUP5 SUB SLT ISZERO PUSH2 0x38DB JUMPI PUSH0 PUSH0 REVERT JUMPDEST POP MLOAD SWAP2 SWAP1 POP JUMP JUMPDEST PUSH4 0x4E487B71 PUSH1 0xE0 SHL PUSH0 MSTORE PUSH1 0x32 PUSH1 0x4 MSTORE PUSH1 0x24 PUSH0 REVERT JUMPDEST PUSH1 0x1 PUSH1 0x1 PUSH1 0xA0 SHL SUB DUP6 DUP2 AND DUP3 MSTORE DUP5 AND PUSH1 0x20 DUP3 ADD MSTORE PUSH1 0x40 DUP2 ADD DUP4 SWAP1 MSTORE PUSH1 0x80 PUSH1 0x60 DUP3 ADD DUP2 SWAP1 MSTORE PUSH0 SWAP1 PUSH2 0x3928 SWAP1 DUP4 ADD DUP5 PUSH2 0x2D54 JUMP JUMPDEST SWAP7 SWAP6 POP POP POP POP POP POP JUMP JUMPDEST PUSH0 PUSH1 0x20 DUP3 DUP5 SUB SLT ISZERO PUSH2 0x3942 JUMPI PUSH0 PUSH0 REVERT JUMPDEST DUP2 MLOAD PUSH2 0x2A18 DUP2 PUSH2 0x2D24 JUMP JUMPDEST PUSH4 0x4E487B71 PUSH1 0xE0 SHL PUSH0 MSTORE PUSH1 0x21 PUSH1 0x4 MSTORE PUSH1 0x24 PUSH0 REVERT JUMPDEST PUSH1 0x1 PUSH1 0x1 PUSH1 0x40 SHL SUB DUP7 AND DUP2 MSTORE PUSH1 0xA0 PUSH1 0x20 DUP3 ADD MSTORE PUSH0 PUSH2 0x3982 PUSH1 0xA0 DUP4 ADD DUP8 PUSH2 0x2D54 JUMP JUMPDEST PUSH2 0xFFFF SWAP6 SWAP1 SWAP6 AND PUSH1 0x40 DUP4 ADD MSTORE POP PUSH4 0xFFFFFFFF SWAP3 SWAP1 SWAP3 AND PUSH1 0x60 DUP4 ADD MSTORE PUSH1 0x80 SWAP1 SWAP2 ADD MSTORE SWAP3 SWAP2 POP POP JUMP JUMPDEST PUSH1 0x1 DUP2 JUMPDEST PUSH1 0x1 DUP5 GT ISZERO PUSH2 0x39E4 JUMPI DUP1 DUP6 DIV DUP2 GT ISZERO PUSH2 0x39C8 JUMPI PUSH2 0x39C8 PUSH2 0x32A1 JUMP JUMPDEST PUSH1 0x1 DUP5 AND ISZERO PUSH2 0x39D6 JUMPI SWAP1 DUP2 MUL SWAP1 JUMPDEST PUSH1 0x1 SWAP4 SWAP1 SWAP4 SHR SWAP3 DUP1 MUL PUSH2 0x39AD JUMP JUMPDEST SWAP4 POP SWAP4 SWAP2 POP POP JUMP JUMPDEST PUSH0 DUP3 PUSH2 0x39FA JUMPI POP PUSH1 0x1 PUSH2 0x525 JUMP JUMPDEST DUP2 PUSH2 0x3A06 JUMPI POP PUSH0 PUSH2 0x525 JUMP JUMPDEST DUP2 PUSH1 0x1 DUP2 EQ PUSH2 0x3A1C JUMPI PUSH1 0x2 DUP2 EQ PUSH2 0x3A26 JUMPI PUSH2 0x3A42 JUMP JUMPDEST PUSH1 0x1 SWAP2 POP POP PUSH2 0x525 JUMP JUMPDEST PUSH1 0xFF DUP5 GT ISZERO PUSH2 0x3A37 JUMPI PUSH2 0x3A37 PUSH2 0x32A1 JUMP JUMPDEST POP POP PUSH1 0x1 DUP3 SHL PUSH2 0x525 JUMP JUMPDEST POP PUSH1 0x20 DUP4 LT PUSH2 0x133 DUP4 LT AND PUSH1 0x4E DUP5 LT PUSH1 0xB DUP5 LT AND OR ISZERO PUSH2 0x3A65 JUMPI POP DUP2 DUP2 EXP PUSH2 0x525 JUMP JUMPDEST PUSH2 0x3A71 PUSH0 NOT DUP5 DUP5 PUSH2 0x39A9 JUMP JUMPDEST DUP1 PUSH0 NOT DIV DUP3 GT ISZERO PUSH2 0x3A84 JUMPI PUSH2 0x3A84 PUSH2 0x32A1 JUMP JUMPDEST MUL SWAP4 SWAP3 POP POP POP JUMP JUMPDEST PUSH0 PUSH2 0x2A18 DUP4 DUP4 PUSH2 0x39EC JUMP INVALID LOG2 PUSH5 0x6970667358 0x22 SLT KECCAK256 0xB3 0x2E PUSH31 0x2433FF0D01529A0AF6803627521B094187552E96484D028F9ECAE86C9D6473 PUSH16 0x6C634300081E00330000000000000000 "
		},
		"gasEstimates": {
			"creation": {
				"codeDepositCost": "3010600",
				"executionCost": "infinite",
				"totalCost": "infinite"
			},
			"external": {
				"MINIMUM_INTERVAL()": "260",
				"approve(address,uint256)": "31486",
				"balanceOf(address)": "2630",
				"checkUpkeep(bytes)": "infinite",
				"generateSVG(uint256)": "infinite",
				"getApproved(uint256)": "infinite",
				"getPlayerData(uint256)": "infinite",
				"handleOracleFulfillment(bytes32,bytes,bytes)": "infinite",
				"interval()": "2405",
				"isApprovedForAll(address,address)": "infinite",
				"lastTimeStamp()": "2361",
				"name()": "infinite",
				"owner()": "2419",
				"ownerOf(uint256)": "infinite",
				"performUpkeep(bytes)": "infinite",
				"renounceOwnership()": "infinite",
				"requestStatsUpdate(uint256)": "infinite",
				"s_playerData(uint256)": "infinite",
				"s_requestExists(bytes32)": "2504",
				"s_requestToTokenId(bytes32)": "2503",
				"safeMint(address,string,string)": "infinite",
				"safeTransferFrom(address,address,uint256)": "infinite",
				"safeTransferFrom(address,address,uint256,bytes)": "infinite",
				"setApprovalForAll(address,bool)": "26757",
				"setAutomationSettings(uint256,uint256)": "52322",
				"setSourceCode(string)": "infinite",
				"sourceCode()": "infinite",
				"subscriptionId()": "2404",
				"supportsInterface(bytes4)": "infinite",
				"symbol()": "infinite",
				"targetTokenIdToUpdate()": "2427",
				"tokenURI(uint256)": "infinite",
				"totalSupply()": "2326",
				"transferFrom(address,address,uint256)": "infinite",
				"transferOwnership(address)": "28465"
			},
			"internal": {
				"_requestStatsInternal(uint256,string memory)": "infinite",
				"fulfillRequest(bytes32,bytes memory,bytes memory)": "infinite"
			}
		},
		"methodIdentifiers": {
			"MINIMUM_INTERVAL()": "e049d709",
			"approve(address,uint256)": "095ea7b3",
			"balanceOf(address)": "70a08231",
			"checkUpkeep(bytes)": "6e04ff0d",
			"generateSVG(uint256)": "6dcee4ca",
			"getApproved(uint256)": "081812fc",
			"getPlayerData(uint256)": "5c2adf6a",
			"handleOracleFulfillment(bytes32,bytes,bytes)": "0ca76175",
			"interval()": "947a36fb",
			"isApprovedForAll(address,address)": "e985e9c5",
			"lastTimeStamp()": "3f3b3b27",
			"name()": "06fdde03",
			"owner()": "8da5cb5b",
			"ownerOf(uint256)": "6352211e",
			"performUpkeep(bytes)": "4585e33b",
			"renounceOwnership()": "715018a6",
			"requestStatsUpdate(uint256)": "2839b78f",
			"s_playerData(uint256)": "b4cfae44",
			"s_requestExists(bytes32)": "20457fb6",
			"s_requestToTokenId(bytes32)": "68015a4b",
			"safeMint(address,string,string)": "eca81d42",
			"safeTransferFrom(address,address,uint256)": "42842e0e",
			"safeTransferFrom(address,address,uint256,bytes)": "b88d4fde",
			"setApprovalForAll(address,bool)": "a22cb465",
			"setAutomationSettings(uint256,uint256)": "22e817e2",
			"setSourceCode(string)": "00b46767",
			"sourceCode()": "13c60177",
			"subscriptionId()": "09c1ba2e",
			"supportsInterface(bytes4)": "01ffc9a7",
			"symbol()": "95d89b41",
			"targetTokenIdToUpdate()": "94881476",
			"tokenURI(uint256)": "c87b56dd",
			"totalSupply()": "18160ddd",
			"transferFrom(address,address,uint256)": "23b872dd",
			"transferOwnership(address)": "f2fde38b"
		}
	},
	"abi": [
		{
			"inputs": [
				{
					"internalType": "uint64",
					"name": "_subscriptionId",
					"type": "uint64"
				}
			],
			"stateMutability": "nonpayable",
			"type": "constructor"
		},
		{
			"inputs": [
				{
					"internalType": "address",
					"name": "sender",
					"type": "address"
				},
				{
					"internalType": "uint256",
					"name": "tokenId",
					"type": "uint256"
				},
				{
					"internalType": "address",
					"name": "owner",
					"type": "address"
				}
			],
			"name": "ERC721IncorrectOwner",
			"type": "error"
		},
		{
			"inputs": [
				{
					"internalType": "address",
					"name": "operator",
					"type": "address"
				},
				{
					"internalType": "uint256",
					"name": "tokenId",
					"type": "uint256"
				}
			],
			"name": "ERC721InsufficientApproval",
			"type": "error"
		},
		{
			"inputs": [
				{
					"internalType": "address",
					"name": "approver",
					"type": "address"
				}
			],
			"name": "ERC721InvalidApprover",
			"type": "error"
		},
		{
			"inputs": [
				{
					"internalType": "address",
					"name": "operator",
					"type": "address"
				}
			],
			"name": "ERC721InvalidOperator",
			"type": "error"
		},
		{
			"inputs": [
				{
					"internalType": "address",
					"name": "owner",
					"type": "address"
				}
			],
			"name": "ERC721InvalidOwner",
			"type": "error"
		},
		{
			"inputs": [
				{
					"internalType": "address",
					"name": "receiver",
					"type": "address"
				}
			],
			"name": "ERC721InvalidReceiver",
			"type": "error"
		},
		{
			"inputs": [
				{
					"internalType": "address",
					"name": "sender",
					"type": "address"
				}
			],
			"name": "ERC721InvalidSender",
			"type": "error"
		},
		{
			"inputs": [
				{
					"internalType": "uint256",
					"name": "tokenId",
					"type": "uint256"
				}
			],
			"name": "ERC721NonexistentToken",
			"type": "error"
		},
		{
			"inputs": [],
			"name": "EmptyArgs",
			"type": "error"
		},
		{
			"inputs": [],
			"name": "EmptySource",
			"type": "error"
		},
		{
			"inputs": [
				{
					"internalType": "uint256",
					"name": "provided",
					"type": "uint256"
				},
				{
					"internalType": "uint256",
					"name": "minimum",
					"type": "uint256"
				}
			],
			"name": "IntervalTooShort",
			"type": "error"
		},
		{
			"inputs": [],
			"name": "NoInlineSecrets",
			"type": "error"
		},
		{
			"inputs": [],
			"name": "NoTokensMinted",
			"type": "error"
		},
		{
			"inputs": [],
			"name": "OnlyRouterCanFulfill",
			"type": "error"
		},
		{
			"inputs": [
				{
					"internalType": "bytes",
					"name": "err",
					"type": "bytes"
				}
			],
			"name": "OracleError",
			"type": "error"
		},
		{
			"inputs": [
				{
					"internalType": "address",
					"name": "owner",
					"type": "address"
				}
			],
			"name": "OwnableInvalidOwner",
			"type": "error"
		},
		{
			"inputs": [
				{
					"internalType": "address",
					"name": "account",
					"type": "address"
				}
			],
			"name": "OwnableUnauthorizedAccount",
			"type": "error"
		},
		{
			"inputs": [
				{
					"internalType": "bytes32",
					"name": "requestId",
					"type": "bytes32"
				}
			],
			"name": "UnknownRequestId",
			"type": "error"
		},
		{
			"anonymous": false,
			"inputs": [
				{
					"indexed": true,
					"internalType": "address",
					"name": "owner",
					"type": "address"
				},
				{
					"indexed": true,
					"internalType": "address",
					"name": "approved",
					"type": "address"
				},
				{
					"indexed": true,
					"internalType": "uint256",
					"name": "tokenId",
					"type": "uint256"
				}
			],
			"name": "Approval",
			"type": "event"
		},
		{
			"anonymous": false,
			"inputs": [
				{
					"indexed": true,
					"internalType": "address",
					"name": "owner",
					"type": "address"
				},
				{
					"indexed": true,
					"internalType": "address",
					"name": "operator",
					"type": "address"
				},
				{
					"indexed": false,
					"internalType": "bool",
					"name": "approved",
					"type": "bool"
				}
			],
			"name": "ApprovalForAll",
			"type": "event"
		},
		{
			"anonymous": false,
			"inputs": [
				{
					"indexed": false,
					"internalType": "uint256",
					"name": "newInterval",
					"type": "uint256"
				},
				{
					"indexed": false,
					"internalType": "uint256",
					"name": "newTargetTokenId",
					"type": "uint256"
				}
			],
			"name": "AutomationSettingsChanged",
			"type": "event"
		},
		{
			"anonymous": false,
			"inputs": [
				{
					"indexed": false,
					"internalType": "uint256",
					"name": "_fromTokenId",
					"type": "uint256"
				},
				{
					"indexed": false,
					"internalType": "uint256",
					"name": "_toTokenId",
					"type": "uint256"
				}
			],
			"name": "BatchMetadataUpdate",
			"type": "event"
		},
		{
			"anonymous": false,
			"inputs": [
				{
					"indexed": false,
					"internalType": "uint256",
					"name": "_tokenId",
					"type": "uint256"
				}
			],
			"name": "MetadataUpdate",
			"type": "event"
		},
		{
			"anonymous": false,
			"inputs": [
				{
					"indexed": true,
					"internalType": "address",
					"name": "previousOwner",
					"type": "address"
				},
				{
					"indexed": true,
					"internalType": "address",
					"name": "newOwner",
					"type": "address"
				}
			],
			"name": "OwnershipTransferred",
			"type": "event"
		},
		{
			"anonymous": false,
			"inputs": [
				{
					"indexed": true,
					"internalType": "uint256",
					"name": "tokenId",
					"type": "uint256"
				},
				{
					"indexed": false,
					"internalType": "uint64",
					"name": "games",
					"type": "uint64"
				},
				{
					"indexed": false,
					"internalType": "uint64",
					"name": "kills",
					"type": "uint64"
				},
				{
					"indexed": false,
					"internalType": "uint64",
					"name": "deaths",
					"type": "uint64"
				},
				{
					"indexed": false,
					"internalType": "uint64",
					"name": "assists",
					"type": "uint64"
				},
				{
					"indexed": false,
					"internalType": "uint256",
					"name": "timestamp",
					"type": "uint256"
				}
			],
			"name": "PlayerStatsUpdated",
			"type": "event"
		},
		{
			"anonymous": false,
			"inputs": [
				{
					"indexed": true,
					"internalType": "bytes32",
					"name": "id",
					"type": "bytes32"
				}
			],
			"name": "RequestFulfilled",
			"type": "event"
		},
		{
			"anonymous": false,
			"inputs": [
				{
					"indexed": true,
					"internalType": "bytes32",
					"name": "id",
					"type": "bytes32"
				}
			],
			"name": "RequestSent",
			"type": "event"
		},
		{
			"anonymous": false,
			"inputs": [
				{
					"indexed": true,
					"internalType": "uint256",
					"name": "tokenId",
					"type": "uint256"
				},
				{
					"indexed": true,
					"internalType": "bytes32",
					"name": "requestId",
					"type": "bytes32"
				},
				{
					"indexed": false,
					"internalType": "string",
					"name": "nickname",
					"type": "string"
				}
			],
			"name": "StatsRequested",
			"type": "event"
		},
		{
			"anonymous": false,
			"inputs": [
				{
					"indexed": true,
					"internalType": "address",
					"name": "from",
					"type": "address"
				},
				{
					"indexed": true,
					"internalType": "address",
					"name": "to",
					"type": "address"
				},
				{
					"indexed": true,
					"internalType": "uint256",
					"name": "tokenId",
					"type": "uint256"
				}
			],
			"name": "Transfer",
			"type": "event"
		},
		{
			"inputs": [],
			"name": "MINIMUM_INTERVAL",
			"outputs": [
				{
					"internalType": "uint256",
					"name": "",
					"type": "uint256"
				}
			],
			"stateMutability": "view",
			"type": "function"
		},
		{
			"inputs": [
				{
					"internalType": "address",
					"name": "to",
					"type": "address"
				},
				{
					"internalType": "uint256",
					"name": "tokenId",
					"type": "uint256"
				}
			],
			"name": "approve",
			"outputs": [],
			"stateMutability": "nonpayable",
			"type": "function"
		},
		{
			"inputs": [
				{
					"internalType": "address",
					"name": "owner",
					"type": "address"
				}
			],
			"name": "balanceOf",
			"outputs": [
				{
					"internalType": "uint256",
					"name": "",
					"type": "uint256"
				}
			],
			"stateMutability": "view",
			"type": "function"
		},
		{
			"inputs": [
				{
					"internalType": "bytes",
					"name": "",
					"type": "bytes"
				}
			],
			"name": "checkUpkeep",
			"outputs": [
				{
					"internalType": "bool",
					"name": "upkeepNeeded",
					"type": "bool"
				},
				{
					"internalType": "bytes",
					"name": "performData",
					"type": "bytes"
				}
			],
			"stateMutability": "view",
			"type": "function"
		},
		{
			"inputs": [
				{
					"internalType": "uint256",
					"name": "tokenId",
					"type": "uint256"
				}
			],
			"name": "generateSVG",
			"outputs": [
				{
					"internalType": "string",
					"name": "",
					"type": "string"
				}
			],
			"stateMutability": "view",
			"type": "function"
		},
		{
			"inputs": [
				{
					"internalType": "uint256",
					"name": "tokenId",
					"type": "uint256"
				}
			],
			"name": "getApproved",
			"outputs": [
				{
					"internalType": "address",
					"name": "",
					"type": "address"
				}
			],
			"stateMutability": "view",
			"type": "function"
		},
		{
			"inputs": [
				{
					"internalType": "uint256",
					"name": "tokenId",
					"type": "uint256"
				}
			],
			"name": "getPlayerData",
			"outputs": [
				{
					"components": [
						{
							"internalType": "string",
							"name": "nickname",
							"type": "string"
						},
						{
							"internalType": "string",
							"name": "lane",
							"type": "string"
						},
						{
							"internalType": "uint64",
							"name": "games",
							"type": "uint64"
						},
						{
							"internalType": "uint64",
							"name": "kills",
							"type": "uint64"
						},
						{
							"internalType": "uint64",
							"name": "deaths",
							"type": "uint64"
						},
						{
							"internalType": "uint64",
							"name": "assists",
							"type": "uint64"
						}
					],
					"internalType": "struct PlayerData",
					"name": "",
					"type": "tuple"
				}
			],
			"stateMutability": "view",
			"type": "function"
		},
		{
			"inputs": [
				{
					"internalType": "bytes32",
					"name": "requestId",
					"type": "bytes32"
				},
				{
					"internalType": "bytes",
					"name": "response",
					"type": "bytes"
				},
				{
					"internalType": "bytes",
					"name": "err",
					"type": "bytes"
				}
			],
			"name": "handleOracleFulfillment",
			"outputs": [],
			"stateMutability": "nonpayable",
			"type": "function"
		},
		{
			"inputs": [],
			"name": "interval",
			"outputs": [
				{
					"internalType": "uint256",
					"name": "",
					"type": "uint256"
				}
			],
			"stateMutability": "view",
			"type": "function"
		},
		{
			"inputs": [
				{
					"internalType": "address",
					"name": "owner",
					"type": "address"
				},
				{
					"internalType": "address",
					"name": "operator",
					"type": "address"
				}
			],
			"name": "isApprovedForAll",
			"outputs": [
				{
					"internalType": "bool",
					"name": "",
					"type": "bool"
				}
			],
			"stateMutability": "view",
			"type": "function"
		},
		{
			"inputs": [],
			"name": "lastTimeStamp",
			"outputs": [
				{
					"internalType": "uint256",
					"name": "",
					"type": "uint256"
				}
			],
			"stateMutability": "view",
			"type": "function"
		},
		{
			"inputs": [],
			"name": "name",
			"outputs": [
				{
					"internalType": "string",
					"name": "",
					"type": "string"
				}
			],
			"stateMutability": "view",
			"type": "function"
		},
		{
			"inputs": [],
			"name": "owner",
			"outputs": [
				{
					"internalType": "address",
					"name": "",
					"type": "address"
				}
			],
			"stateMutability": "view",
			"type": "function"
		},
		{
			"inputs": [
				{
					"internalType": "uint256",
					"name": "tokenId",
					"type": "uint256"
				}
			],
			"name": "ownerOf",
			"outputs": [
				{
					"internalType": "address",
					"name": "",
					"type": "address"
				}
			],
			"stateMutability": "view",
			"type": "function"
		},
		{
			"inputs": [
				{
					"internalType": "bytes",
					"name": "",
					"type": "bytes"
				}
			],
			"name": "performUpkeep",
			"outputs": [],
			"stateMutability": "nonpayable",
			"type": "function"
		},
		{
			"inputs": [],
			"name": "renounceOwnership",
			"outputs": [],
			"stateMutability": "nonpayable",
			"type": "function"
		},
		{
			"inputs": [
				{
					"internalType": "uint256",
					"name": "tokenId",
					"type": "uint256"
				}
			],
			"name": "requestStatsUpdate",
			"outputs": [],
			"stateMutability": "nonpayable",
			"type": "function"
		},
		{
			"inputs": [
				{
					"internalType": "uint256",
					"name": "",
					"type": "uint256"
				}
			],
			"name": "s_playerData",
			"outputs": [
				{
					"internalType": "string",
					"name": "nickname",
					"type": "string"
				},
				{
					"internalType": "string",
					"name": "lane",
					"type": "string"
				},
				{
					"internalType": "uint64",
					"name": "games",
					"type": "uint64"
				},
				{
					"internalType": "uint64",
					"name": "kills",
					"type": "uint64"
				},
				{
					"internalType": "uint64",
					"name": "deaths",
					"type": "uint64"
				},
				{
					"internalType": "uint64",
					"name": "assists",
					"type": "uint64"
				}
			],
			"stateMutability": "view",
			"type": "function"
		},
		{
			"inputs": [
				{
					"internalType": "bytes32",
					"name": "",
					"type": "bytes32"
				}
			],
			"name": "s_requestExists",
			"outputs": [
				{
					"internalType": "bool",
					"name": "",
					"type": "bool"
				}
			],
			"stateMutability": "view",
			"type": "function"
		},
		{
			"inputs": [
				{
					"internalType": "bytes32",
					"name": "",
					"type": "bytes32"
				}
			],
			"name": "s_requestToTokenId",
			"outputs": [
				{
					"internalType": "uint256",
					"name": "",
					"type": "uint256"
				}
			],
			"stateMutability": "view",
			"type": "function"
		},
		{
			"inputs": [
				{
					"internalType": "address",
					"name": "to",
					"type": "address"
				},
				{
					"internalType": "string",
					"name": "_nickname",
					"type": "string"
				},
				{
					"internalType": "string",
					"name": "_lane",
					"type": "string"
				}
			],
			"name": "safeMint",
			"outputs": [],
			"stateMutability": "nonpayable",
			"type": "function"
		},
		{
			"inputs": [
				{
					"internalType": "address",
					"name": "from",
					"type": "address"
				},
				{
					"internalType": "address",
					"name": "to",
					"type": "address"
				},
				{
					"internalType": "uint256",
					"name": "tokenId",
					"type": "uint256"
				}
			],
			"name": "safeTransferFrom",
			"outputs": [],
			"stateMutability": "nonpayable",
			"type": "function"
		},
		{
			"inputs": [
				{
					"internalType": "address",
					"name": "from",
					"type": "address"
				},
				{
					"internalType": "address",
					"name": "to",
					"type": "address"
				},
				{
					"internalType": "uint256",
					"name": "tokenId",
					"type": "uint256"
				},
				{
					"internalType": "bytes",
					"name": "data",
					"type": "bytes"
				}
			],
			"name": "safeTransferFrom",
			"outputs": [],
			"stateMutability": "nonpayable",
			"type": "function"
		},
		{
			"inputs": [
				{
					"internalType": "address",
					"name": "operator",
					"type": "address"
				},
				{
					"internalType": "bool",
					"name": "approved",
					"type": "bool"
				}
			],
			"name": "setApprovalForAll",
			"outputs": [],
			"stateMutability": "nonpayable",
			"type": "function"
		},
		{
			"inputs": [
				{
					"internalType": "uint256",
					"name": "_intervalSeconds",
					"type": "uint256"
				},
				{
					"internalType": "uint256",
					"name": "_targetTokenId",
					"type": "uint256"
				}
			],
			"name": "setAutomationSettings",
			"outputs": [],
			"stateMutability": "nonpayable",
			"type": "function"
		},
		{
			"inputs": [
				{
					"internalType": "string",
					"name": "_sourceCode",
					"type": "string"
				}
			],
			"name": "setSourceCode",
			"outputs": [],
			"stateMutability": "nonpayable",
			"type": "function"
		},
		{
			"inputs": [],
			"name": "sourceCode",
			"outputs": [
				{
					"internalType": "string",
					"name": "",
					"type": "string"
				}
			],
			"stateMutability": "view",
			"type": "function"
		},
		{
			"inputs": [],
			"name": "subscriptionId",
			"outputs": [
				{
					"internalType": "uint64",
					"name": "",
					"type": "uint64"
				}
			],
			"stateMutability": "view",
			"type": "function"
		},
		{
			"inputs": [
				{
					"internalType": "bytes4",
					"name": "interfaceId",
					"type": "bytes4"
				}
			],
			"name": "supportsInterface",
			"outputs": [
				{
					"internalType": "bool",
					"name": "",
					"type": "bool"
				}
			],
			"stateMutability": "view",
			"type": "function"
		},
		{
			"inputs": [],
			"name": "symbol",
			"outputs": [
				{
					"internalType": "string",
					"name": "",
					"type": "string"
				}
			],
			"stateMutability": "view",
			"type": "function"
		},
		{
			"inputs": [],
			"name": "targetTokenIdToUpdate",
			"outputs": [
				{
					"internalType": "uint256",
					"name": "",
					"type": "uint256"
				}
			],
			"stateMutability": "view",
			"type": "function"
		},
		{
			"inputs": [
				{
					"internalType": "uint256",
					"name": "tokenId",
					"type": "uint256"
				}
			],
			"name": "tokenURI",
			"outputs": [
				{
					"internalType": "string",
					"name": "",
					"type": "string"
				}
			],
			"stateMutability": "view",
			"type": "function"
		},
		{
			"inputs": [],
			"name": "totalSupply",
			"outputs": [
				{
					"internalType": "uint256",
					"name": "",
					"type": "uint256"
				}
			],
			"stateMutability": "view",
			"type": "function"
		},
		{
			"inputs": [
				{
					"internalType": "address",
					"name": "from",
					"type": "address"
				},
				{
					"internalType": "address",
					"name": "to",
					"type": "address"
				},
				{
					"internalType": "uint256",
					"name": "tokenId",
					"type": "uint256"
				}
			],
			"name": "transferFrom",
			"outputs": [],
			"stateMutability": "nonpayable",
			"type": "function"
		},
		{
			"inputs": [
				{
					"internalType": "address",
					"name": "newOwner",
					"type": "address"
				}
			],
			"name": "transferOwnership",
			"outputs": [],
			"stateMutability": "nonpayable",
			"type": "function"
		}
	]
}