{
	"data": {
		"bytecode": {
			"linkReferences": {},
			"object": "60a0604052600980546001600160a01b03191673b83e47c2bc239b3bf370bc41e1459a34b41238d01790557f66756e2d657468657265756d2d7365706f6c69612d3100000000000000000000600a5562015180600e55348015610060575f5ffd5b5060405161478e38038061478e83398101604081905261007f916101b8565b600954604080518082018252601b81527f4d504c20506c617965722043617264204e6f6e2d4c617965726564000000000060208083019190915282518084019093526005835264135413139360da1b908301526001600160a01b039092169133915f6100eb838261027d565b5060016100f8828261027d565b5050506001600160a01b03811661012857604051631e4fbdf760e01b81525f600482015260240160405180910390fd5b61013181610167565b506001600160a01b0316608052600b80546001600160401b0319166001600160401b039290921691909117905542600d55610337565b600780546001600160a01b038381166001600160a01b0319831681179093556040519116919082907f8be0079c531659141344cd1fd0a4f28419497f9722a3daafe3b4186f6b6457e0905f90a35050565b5f602082840312156101c8575f5ffd5b81516001600160401b03811681146101de575f5ffd5b9392505050565b634e487b7160e01b5f52604160045260245ffd5b600181811c9082168061020d57607f821691505b60208210810361022b57634e487b7160e01b5f52602260045260245ffd5b50919050565b601f82111561027857805f5260205f20601f840160051c810160208510156102565750805b601f840160051c820191505b81811015610275575f8155600101610262565b50505b505050565b81516001600160401b03811115610296576102966101e5565b6102aa816102a484546101f9565b84610231565b6020601f8211600181146102dc575f83156102c55750848201515b5f19600385901b1c1916600184901b178455610275565b5f84815260208120601f198516915b8281101561030b57878501518255602094850194600190920191016102eb565b508482101561032857868401515f19600387901b60f8161c191681555b50505050600190811b01905550565b6080516144386103565f395f81816105f7015261231f01526144385ff3fe608060405234801561000f575f5ffd5b5060043610610207575f3560e01c80636352211e1161011f57806395d89b41116100a9578063c87b56dd11610079578063c87b56dd14610494578063e049d709146104a7578063e985e9c5146104b0578063eca81d42146104c3578063f2fde38b146104d6575f5ffd5b806395d89b4114610441578063a22cb46514610449578063b4cfae441461045c578063b88d4fde14610481575f5ffd5b806370a08231116100ef57806370a0823114610403578063715018a6146104165780638da5cb5b1461041e578063947a36fb1461042f5780639488147614610438575f5ffd5b80636352211e1461039d57806368015a4b146103b05780636dcee4ca146103cf5780636e04ff0d146103e2575f5ffd5b806318160ddd116101a05780632839b78f116101705780632839b78f1461033b5780633f3b3b271461034e57806342842e0e146103575780634585e33b1461036a5780635c2adf6a1461037d575f5ffd5b806318160ddd146102e157806320457fb6146102f357806322e817e21461031557806323b872dd14610328575f5ffd5b8063095ea7b3116101db578063095ea7b31461028857806309c1ba2e1461029b5780630ca76175146102c657806313c60177146102d9575f5ffd5b8062b467671461020b57806301ffc9a71461022057806306fdde0314610248578063081812fc1461025d575b5f5ffd5b61021e610219366004612cc5565b6104e9565b005b61023361022e366004612d0b565b610501565b60405190151581526020015b60405180910390f35b61025061052b565b60405161023f9190612d54565b61027061026b366004612d66565b6105ba565b6040516001600160a01b03909116815260200161023f565b61021e610296366004612d98565b6105e1565b600b546102ae906001600160401b031681565b6040516001600160401b03909116815260200161023f565b61021e6102d4366004612dc0565b6105ec565b61025061066f565b6008545b60405190815260200161023f565b610233610301366004612d66565b60126020525f908152604090205460ff1681565b61021e610323366004612e2b565b6106fb565b61021e610336366004612e4b565b6107c0565b61021e610349366004612d66565b610849565b6102e5600d5481565b61021e610365366004612e4b565b610911565b61021e610378366004612e85565b610930565b61039061038b366004612d66565b61096b565b60405161023f9190612ef1565b6102706103ab366004612d66565b610b3b565b6102e56103be366004612d66565b60116020525f908152604090205481565b6102506103dd366004612d66565b610b45565b6103f56103f0366004612e85565b610dec565b60405161023f929190612f82565b6102e5610411366004612f9c565b610e2a565b61021e610e6f565b6007546001600160a01b0316610270565b6102e5600e5481565b6102e5600f5481565b610250610e82565b61021e610457366004612fb5565b610e91565b61046f61046a366004612d66565b610e9c565b60405161023f96959493929190612fee565b61021e61048f366004613046565b610ff1565b6102506104a2366004612d66565b611009565b6102e5610e1081565b6102336104be3660046130a9565b611291565b61021e6104d13660046130da565b6112be565b61021e6104e4366004612f9c565b6113c1565b6104f16113fe565b600c6104fd828261318b565b5050565b5f6001600160e01b03198216632483248360e11b148061052557506105258261142b565b92915050565b60605f80546105399061310f565b80601f01602080910402602001604051908101604052809291908181526020018280546105659061310f565b80156105b05780601f10610587576101008083540402835291602001916105b0565b820191905f5260205f20905b81548152906001019060200180831161059357829003601f168201915b5050505050905090565b5f6105c48261147a565b505f828152600460205260409020546001600160a01b0316610525565b6104fd8282336114b2565b336001600160a01b037f000000000000000000000000000000000000000000000000000000000000000016146106355760405163c6829f8360e01b815260040160405180910390fd5b6106408383836114bf565b60405183907f85e1543bf2f84fe80c6badbce3648c8539ad1df4d2b3d822938ca0538be727e6905f90a2505050565b600c805461067c9061310f565b80601f01602080910402602001604051908101604052809291908181526020018280546106a89061310f565b80156106f35780601f106106ca576101008083540402835291602001916106f3565b820191905f5260205f20905b8154815290600101906020018083116106d657829003601f168201915b505050505081565b6107036113fe565b610e10821015610736576040516304d5a70960e41b815260048101839052610e1060248201526044015b60405180910390fd5b6008545f036107585760405163d31b331d60e01b815260040160405180910390fd5b60085481106107795760405162461bcd60e51b815260040161072d90613245565b600e829055600f81905560408051838152602081018390527f64586acd58623513aac74e3f48f97302b3e5020b31c103c3254eb9ea68bc49f2910160405180910390a15050565b6001600160a01b0382166107e957604051633250574960e11b81525f600482015260240161072d565b5f6107f58383336117e1565b9050836001600160a01b0316816001600160a01b031614610843576040516364283d7b60e01b81526001600160a01b038086166004830152602482018490528216604482015260640161072d565b50505050565b6108516113fe565b60085481106108725760405162461bcd60e51b815260040161072d90613245565b5f81815260106020526040902080546104fd9183916108909061310f565b80601f01602080910402602001604051908101604052809291908181526020018280546108bc9061310f565b80156109075780601f106108de57610100808354040283529160200191610907565b820191905f5260205f20905b8154815290600101906020018083116108ea57829003601f168201915b50505050506118d3565b61092b83838360405180602001604052805f815250610ff1565b505050565b600e54600d546109409042613287565b11156104fd5742600d55600f545f818152601060205260409020805461092b9291906108909061310f565b6040805160c0810182526060808252602082018190525f92820183905281018290526080810182905260a081019190915260085482106109bd5760405162461bcd60e51b815260040161072d90613245565b5f8281526010602052604090819020815160c081019092528054829082906109e49061310f565b80601f0160208091040260200160405190810160405280929190818152602001828054610a109061310f565b8015610a5b5780601f10610a3257610100808354040283529160200191610a5b565b820191905f5260205f20905b815481529060010190602001808311610a3e57829003601f168201915b50505050508152602001600182018054610a749061310f565b80601f0160208091040260200160405190810160405280929190818152602001828054610aa09061310f565b8015610aeb5780601f10610ac257610100808354040283529160200191610aeb565b820191905f5260205f20905b815481529060010190602001808311610ace57829003601f168201915b5050509183525050600291909101546001600160401b038082166020840152600160401b820481166040840152600160801b820481166060840152600160c01b9091041660809091015292915050565b5f6105258261147a565b60605f60105f8481526020019081526020015f206040518060c00160405290815f82018054610b739061310f565b80601f0160208091040260200160405190810160405280929190818152602001828054610b9f9061310f565b8015610bea5780601f10610bc157610100808354040283529160200191610bea565b820191905f5260205f20905b815481529060010190602001808311610bcd57829003601f168201915b50505050508152602001600182018054610c039061310f565b80601f0160208091040260200160405190810160405280929190818152602001828054610c2f9061310f565b8015610c7a5780601f10610c5157610100808354040283529160200191610c7a565b820191905f5260205f20905b815481529060010190602001808311610c5d57829003601f168201915b5050509183525050600291909101546001600160401b038082166020840152600160401b820481166040840152600160801b820481166060840152600160c01b9091048116608092830152908201519192505f911615610cde578160800151610ce1565b60015b90505f816001600160401b03168360a001516001600160401b031684606001516001600160401b0316610d14919061329a565b610d1f9060646132ad565b610d2991906132d8565b90505f610d376064836132eb565b90505f610d4d610d486064856132d8565b611a96565b600a8310610d6357610d5e83611a96565b610d8c565b610d6c83611a96565b604051602001610d7c9190613315565b6040516020818303038152906040525b604051602001610d9d92919061332a565b6040516020818303038152906040529050610db6611b25565b610dc08683611b4a565b604051602001610dd1929190613352565b60405160208183030381529060405295505050505050919050565b5f6060600e54600d5442610e009190613287565b118015610e105750600854600f54105b915060405180602001604052805f81525090509250929050565b5f6001600160a01b038216610e54576040516322718ad960e21b81525f600482015260240161072d565b506001600160a01b03165f9081526003602052604090205490565b610e776113fe565b610e805f611c55565b565b6060600180546105399061310f565b6104fd338383611ca6565b60106020525f9081526040902080548190610eb69061310f565b80601f0160208091040260200160405190810160405280929190818152602001828054610ee29061310f565b8015610f2d5780601f10610f0457610100808354040283529160200191610f2d565b820191905f5260205f20905b815481529060010190602001808311610f1057829003601f168201915b505050505090806001018054610f429061310f565b80601f0160208091040260200160405190810160405280929190818152602001828054610f6e9061310f565b8015610fb95780601f10610f9057610100808354040283529160200191610fb9565b820191905f5260205f20905b815481529060010190602001808311610f9c57829003601f168201915b505050600290930154919250506001600160401b0380821691600160401b8104821691600160801b8204811691600160c01b90041686565b610ffc8484846107c0565b6108433385858585611d6d565b60605f60105f8481526020019081526020015f206040518060c00160405290815f820180546110379061310f565b80601f01602080910402602001604051908101604052809291908181526020018280546110639061310f565b80156110ae5780601f10611085576101008083540402835291602001916110ae565b820191905f5260205f20905b81548152906001019060200180831161109157829003601f168201915b505050505081526020016001820180546110c79061310f565b80601f01602080910402602001604051908101604052809291908181526020018280546110f39061310f565b801561113e5780601f106111155761010080835404028352916020019161113e565b820191905f5260205f20905b81548152906001019060200180831161112157829003601f168201915b5050509183525050600291909101546001600160401b038082166020840152600160401b820481166040840152600160801b820481166060840152600160c01b9091041660809091015290505f61119c61119785610b45565b611e95565b90505f825f015183602001516111be85604001516001600160401b0316611a96565b6040516020016111d0939291906133ef565b60405160208183030381529060405290505f6111f884606001516001600160401b0316611a96565b61120e85608001516001600160401b0316611a96565b6112248660a001516001600160401b0316611a96565b604051602001611236939291906134d8565b60405160208183030381529060405290505f61127e61125488611a96565b84848760405160200161126a94939291906135b9565b604051602081830303815290604052611e95565b905080604051602001610dd1919061374a565b6001600160a01b039182165f90815260056020908152604080832093909416825291909152205460ff1690565b6112c66113fe565b6008546040805160c08101825284815260208082018590525f828401819052606083018190526080830181905260a0830181905284815260109091529190912081518190611314908261318b565b5060208201516001820190611329908261318b565b506040820151600290910180546060840151608085015160a0909501516001600160401b03908116600160c01b026001600160c01b03968216600160801b02969096166001600160801b03928216600160401b026001600160801b031990941691909516179190911716919091179190911790556113a78482611ea1565b60088054905f6113b68361377b565b919050555050505050565b6113c96113fe565b6001600160a01b0381166113f257604051631e4fbdf760e01b81525f600482015260240161072d565b6113fb81611c55565b50565b6007546001600160a01b03163314610e805760405163118cdaa760e01b815233600482015260240161072d565b5f6001600160e01b031982166380ac58cd60e01b148061145b57506001600160e01b03198216635b5e139f60e01b145b8061052557506301ffc9a760e01b6001600160e01b0319831614610525565b5f818152600260205260408120546001600160a01b03168061052557604051637e27328960e01b81526004810184905260240161072d565b61092b8383836001611eba565b5f8381526012602052604090205460ff166114f05760405163f6a8d1c960e01b81526004810184905260240161072d565b8051156115125780604051631de77ff960e11b815260040161072d9190612d54565b5f83815260116020908152604082205484519092916115379186018101908601613793565b5f83815260106020818152604080842060028101805460c088811c6001600160801b03909216600160c01b6001600160401b03808c169190910267ffffffffffffffff60801b191691909117600160801b8b881c831602176001600160801b031916600160401b60808c901c929092169190910267ffffffffffffffff191617919091179091558b865260128452828620805460ff1916905560118452828620869055888652939092528051928301905280549394509192909190829082906115ff9061310f565b80601f016020809104026020016040519081016040528092919081815260200182805461162b9061310f565b80156116765780601f1061164d57610100808354040283529160200191611676565b820191905f5260205f20905b81548152906001019060200180831161165957829003601f168201915b5050505050815260200160018201805461168f9061310f565b80601f01602080910402602001604051908101604052809291908181526020018280546116bb9061310f565b80156117065780601f106116dd57610100808354040283529160200191611706565b820191905f5260205f20905b8154815290600101906020018083116116e957829003601f168201915b5050509183525050600291909101546001600160401b038082166020840152600160401b82048116604080850191909152600160801b83048216606080860191909152600160c01b90930490911660809384015283810151918401519284015160a0850151915194955087947f9f86cfe46669ecf4ca86f93ef7ffc30082e4a755d2ee82226e1d556fd63407ee946117d1949390929142906001600160401b039586168152938516602085015291841660408401529092166060820152608081019190915260a00190565b60405180910390a2505050505050565b5f828152600260205260408120546001600160a01b039081169083161561180d5761180d818486611fbe565b6001600160a01b03811615611847576118285f855f5f611eba565b6001600160a01b0381165f90815260036020526040902080545f190190555b6001600160a01b03851615611875576001600160a01b0385165f908152600360205260409020805460010190555b5f8481526002602052604080822080546001600160a01b0319166001600160a01b0389811691821790925591518793918516917fddf252ad1be2c89b69c2b068fc378daa952ba7f163c4a11628f55a4df523b3ef91a4949350505050565b5f6119126040805160e08101909152805f81526020015f81526020015f8152602001606081526020016060815260200160608152602001606081525090565b6119ad600c80546119229061310f565b80601f016020809104026020016040519081016040528092919081815260200182805461194e9061310f565b80156119995780601f1061197057610100808354040283529160200191611999565b820191905f5260205f20905b81548152906001019060200180831161197c57829003601f168201915b50505050508261202290919063ffffffff16565b6040805160018082528183019092525f91816020015b60608152602001906001900390816119c357905050905083815f815181106119ed576119ed6137aa565b6020908102919091010152611a02828261202e565b611a2a611a0e83612057565b600b54600a546001600160401b0390911690620493e09061231b565b5f818152601160209081526040808320899055601290915290819020805460ff1916600117905551909350839086907f36c447ad99df7457c4f3d38dad77da717d67a685e3ed93297fefc4601d9beb2590611a86908890612d54565b60405180910390a3505092915050565b60605f611aa2836123e8565b60010190505f816001600160401b03811115611ac057611ac0612c22565b6040519080825280601f01601f191660200182016040528015611aea576020820181803683370190505b5090508181016020015b5f19016f181899199a1a9b1b9c1cb0b131b232b360811b600a86061a8153600a8504945084611af457509392505050565b6060604051602001611b36906137be565b604051602081830303815290604052905090565b60605f6040518060400160405280600781526020016611999a1c9c323160c91b81525090505f81855f015183876020015185611b928a604001516001600160401b0316611a96565b604051602001611ba796959493929190613a92565b60405160208183030381529060405290505f82611bd087606001516001600160401b0316611a96565b84611be789608001516001600160401b0316611a96565b86611bfe8b60a001516001600160401b0316611a96565b888b604051602001611c17989796959493929190613e09565b60405160208183030381529060405290508181604051602001611c3b9291906141f3565b604051602081830303815290604052935050505092915050565b600780546001600160a01b038381166001600160a01b0319831681179093556040519116919082907f8be0079c531659141344cd1fd0a4f28419497f9722a3daafe3b4186f6b6457e0905f90a35050565b6001600160a01b038316611ccf5760405163a9fbf51f60e01b81525f600482015260240161072d565b6001600160a01b038216611d0157604051630b61174360e31b81526001600160a01b038316600482015260240161072d565b6001600160a01b038381165f81815260056020908152604080832094871680845294825291829020805460ff191686151590811790915591519182527f17307eab39ab6107e8899845ad3d59bd9653f200f220920489ca2b5937696c31910160405180910390a3505050565b6001600160a01b0383163b15611e8e57604051630a85bd0160e11b81526001600160a01b0384169063150b7a0290611daf908890889087908790600401614201565b6020604051808303815f875af1925050508015611de9575060408051601f3d908101601f19168201909252611de69181019061423d565b60015b611e50573d808015611e16576040519150601f19603f3d011682016040523d82523d5f602084013e611e1b565b606091505b5080515f03611e4857604051633250574960e11b81526001600160a01b038516600482015260240161072d565b805160208201fd5b6001600160e01b03198116630a85bd0160e11b14611e8c57604051633250574960e11b81526001600160a01b038516600482015260240161072d565b505b5050505050565b6060610525825f6124bf565b6104fd828260405180602001604052805f81525061263e565b8080611ece57506001600160a01b03821615155b15611f8f575f611edd8461147a565b90506001600160a01b03831615801590611f095750826001600160a01b0316816001600160a01b031614155b8015611f1c5750611f1a8184611291565b155b15611f455760405163a9fbf51f60e01b81526001600160a01b038416600482015260240161072d565b8115611f8d5783856001600160a01b0316826001600160a01b03167f8c5be1e5ebec7d5bd14f71427d1e84f3dd0314c0f7b2291e5b200ac8c7c3b92560405160405180910390a45b505b50505f90815260046020526040902080546001600160a01b0319166001600160a01b0392909216919091179055565b611fc9838383612655565b61092b576001600160a01b038316611ff757604051637e27328960e01b81526004810182905260240161072d565b60405163177e802f60e01b81526001600160a01b03831660048201526024810182905260440161072d565b6104fd825f5f846126b9565b80515f0361204f5760405163fe936cb760e01b815260040160405180910390fd5b60a090910152565b60605f612065610100612736565b905061209e6040518060400160405280600c81526020016b31b7b232a637b1b0ba34b7b760a11b8152508261275690919063ffffffff16565b82516120bc9060028111156120b5576120b5614258565b829061276f565b6040805180820190915260088152676c616e677561676560c01b60208201526120e6908290612756565b60408301516120fd9080156120b5576120b5614258565b604080518082019091526006815265736f7572636560d01b6020820152612125908290612756565b6060830151612135908290612756565b60a083015151156121c0576040805180820190915260048152636172677360e01b6020820152612166908290612756565b61216f816127a8565b5f5b8360a00151518110156121b6576121ae8460a001518281518110612197576121976137aa565b60200260200101518361275690919063ffffffff16565b600101612171565b506121c0816127cc565b60808301515115612283575f836020015160028111156121e2576121e2614258565b036122005760405163a80d31f760e01b815260040160405180910390fd5b60408051808201909152600f81526e39b2b1b932ba39a637b1b0ba34b7b760891b6020820152612231908290612756565b61224a836020015160028111156120b5576120b5614258565b6040805180820190915260078152667365637265747360c81b6020820152612273908290612756565b60808301516122839082906127ea565b60c083015151156123135760408051808201909152600981526862797465734172677360b81b60208201526122b9908290612756565b6122c2816127a8565b5f5b8360c0015151811015612309576123018460c0015182815181106122ea576122ea6137aa565b6020026020010151836127ea90919063ffffffff16565b6001016122c4565b50612313816127cc565b515192915050565b5f5f7f00000000000000000000000000000000000000000000000000000000000000006001600160a01b031663461d27628688600188886040518663ffffffff1660e01b815260040161237295949392919061426c565b6020604051808303815f875af115801561238e573d5f5f3e3d5ffd5b505050506040513d601f19601f820116820180604052508101906123b29190613793565b60405190915081907f1131472297a800fee664d1d89cfa8f7676ff07189ecc53f80bbb5f4969099db8905f90a295945050505050565b5f8072184f03e93ff9f4daa797ed6e38ed64bf6a1f0160401b83106124265772184f03e93ff9f4daa797ed6e38ed64bf6a1f0160401b830492506040015b6d04ee2d6d415b85acef81000000008310612452576d04ee2d6d415b85acef8100000000830492506020015b662386f26fc10000831061247057662386f26fc10000830492506010015b6305f5e1008310612488576305f5e100830492506008015b612710831061249c57612710830492506004015b606483106124ae576064830492506002015b600a83106105255760010192915050565b606082515f036124dd575060408051602081019091525f8152610525565b5f8261250d576003845160026124f3919061329a565b6124fd91906132d8565b6125089060046132ad565b612532565b60038451600461251d91906132ad565b61252890600261329a565b61253291906132d8565b905060405191507f4142434445464748494a4b4c4d4e4f505152535455565758595a616263646566601f5261067083027f6768696a6b6c6d6e6f707172737475767778797a303132333435363738392b2f18603f526020820181810185865187016020810180515f82525b828410156125f0576003840193508351603f8160121c16518753600187019650603f81600c1c16518753600187019650603f8160061c16518753600187019650603f81165187535060018601955061259d565b9052508590506126315760038651066001811461261457600281146126275761262f565b603d6001840353603d600284035361262f565b603d60018403535b505b9183525060405292915050565b61264883836127f7565b61092b335f858585611d6d565b5f6001600160a01b038316158015906126b15750826001600160a01b0316846001600160a01b0316148061268e575061268e8484611291565b806126b157505f828152600460205260409020546001600160a01b038481169116145b949350505050565b80515f036126da576040516322ce3edd60e01b815260040160405180910390fd5b838360028111156126ed576126ed614258565b9081600281111561270057612700614258565b9052506040840182801561271657612716614258565b9081801561272657612726614258565b9052506060909301929092525050565b61273e612bef565b805161274a9083612858565b505f6020820152919050565b61276382600383516128cc565b815161092b90826129e5565b815161277c9060c2612a0c565b506104fd828260405160200161279491815260200190565b6040516020818303038152906040526127ea565b6127b3816004612a73565b6001816020018181516127c6919061329a565b90525050565b6127d7816007612a73565b6001816020018181516127c69190613287565b61276382600283516128cc565b6001600160a01b03821661282057604051633250574960e11b81525f600482015260240161072d565b5f61282c83835f6117e1565b90506001600160a01b0381161561092b576040516339e3563760e11b81525f600482015260240161072d565b60408051808201909152606081525f60208201526128776020836132eb565b1561289f576128876020836132eb565b612892906020613287565b61289c908361329a565b91505b60208084018390526040518085525f81529081840101818110156128c1575f5ffd5b604052509192915050565b6017816001600160401b0316116128f25782516108439060e0600585901b168317612a0c565b60ff816001600160401b03161161293257825161291a906018611fe0600586901b1617612a0c565b508251610843906001600160401b0383166001612a8a565b61ffff816001600160401b03161161297357825161295b906019611fe0600586901b1617612a0c565b508251610843906001600160401b0383166002612a8a565b63ffffffff816001600160401b0316116129b657825161299e90601a611fe0600586901b1617612a0c565b508251610843906001600160401b0383166004612a8a565b82516129cd90601b611fe0600586901b1617612a0c565b508251610843906001600160401b0383166008612a8a565b60408051808201909152606081525f6020820152612a0583838451612b0c565b9392505050565b60408051808201909152606081525f60208201528251515f612a2f82600161329a565b905084602001518210612a5057612a5085612a4b8360026132ad565b612bd8565b8451602083820101858153508051821115612a69578181525b5093949350505050565b815161092b90601f611fe0600585901b1617612a0c565b60408051808201909152606081525f60208201528351515f612aac828561329a565b90508560200151811115612ac957612ac986612a4b8360026132ad565b5f6001612ad886610100614397565b612ae29190613287565b90508651828101878319825116178152508051831115612b00578281525b50959695505050505050565b60408051808201909152606081525f60208201528251821115612b2d575f5ffd5b8351515f612b3b848361329a565b90508560200151811115612b5857612b5886612a4b8360026132ad565b85518051838201602001915f9180851115612b71578482525b505050602086015b60208610612bb15780518252612b9060208361329a565b9150612b9d60208261329a565b9050612baa602087613287565b9550612b79565b5181515f1960208890036101000a0190811690199190911617905250849150509392505050565b8151612be48383612858565b5061084383826129e5565b6040518060400160405280612c166040518060400160405280606081526020015f81525090565b81526020015f81525090565b634e487b7160e01b5f52604160045260245ffd5b5f82601f830112612c45575f5ffd5b8135602083015f5f6001600160401b03841115612c6457612c64612c22565b50604051601f19601f85018116603f011681018181106001600160401b0382111715612c9257612c92612c22565b604052838152905080828401871015612ca9575f5ffd5b838360208301375f602085830101528094505050505092915050565b5f60208284031215612cd5575f5ffd5b81356001600160401b03811115612cea575f5ffd5b6126b184828501612c36565b6001600160e01b0319811681146113fb575f5ffd5b5f60208284031215612d1b575f5ffd5b8135612a0581612cf6565b5f81518084528060208401602086015e5f602082860101526020601f19601f83011685010191505092915050565b602081525f612a056020830184612d26565b5f60208284031215612d76575f5ffd5b5035919050565b80356001600160a01b0381168114612d93575f5ffd5b919050565b5f5f60408385031215612da9575f5ffd5b612db283612d7d565b946020939093013593505050565b5f5f5f60608486031215612dd2575f5ffd5b8335925060208401356001600160401b03811115612dee575f5ffd5b612dfa86828701612c36565b92505060408401356001600160401b03811115612e15575f5ffd5b612e2186828701612c36565b9150509250925092565b5f5f60408385031215612e3c575f5ffd5b50508035926020909101359150565b5f5f5f60608486031215612e5d575f5ffd5b612e6684612d7d565b9250612e7460208501612d7d565b929592945050506040919091013590565b5f5f60208385031215612e96575f5ffd5b82356001600160401b03811115612eab575f5ffd5b8301601f81018513612ebb575f5ffd5b80356001600160401b03811115612ed0575f5ffd5b856020828401011115612ee1575f5ffd5b6020919091019590945092505050565b602081525f825160c06020840152612f0c60e0840182612d26565b90506020840151601f19848303016040850152612f298282612d26565b9150506001600160401b0360408501511660608401526001600160401b0360608501511660808401526001600160401b0360808501511660a08401526001600160401b0360a08501511660c08401528091505092915050565b8215158152604060208201525f6126b16040830184612d26565b5f60208284031215612fac575f5ffd5b612a0582612d7d565b5f5f60408385031215612fc6575f5ffd5b612fcf83612d7d565b915060208301358015158114612fe3575f5ffd5b809150509250929050565b60c081525f61300060c0830189612d26565b82810360208401526130128189612d26565b6001600160401b03978816604085015295871660608401525050918416608083015290921660a09092019190915292915050565b5f5f5f5f60808587031215613059575f5ffd5b61306285612d7d565b935061307060208601612d7d565b92506040850135915060608501356001600160401b03811115613091575f5ffd5b61309d87828801612c36565b91505092959194509250565b5f5f604083850312156130ba575f5ffd5b6130c383612d7d565b91506130d160208401612d7d565b90509250929050565b5f5f5f606084860312156130ec575f5ffd5b6130f584612d7d565b925060208401356001600160401b03811115612dee575f5ffd5b600181811c9082168061312357607f821691505b60208210810361314157634e487b7160e01b5f52602260045260245ffd5b50919050565b601f82111561092b57805f5260205f20601f840160051c8101602085101561316c5750805b601f840160051c820191505b81811015611e8e575f8155600101613178565b81516001600160401b038111156131a4576131a4612c22565b6131b8816131b2845461310f565b84613147565b6020601f8211600181146131ea575f83156131d35750848201515b5f19600385901b1c1916600184901b178455611e8e565b5f84815260208120601f198516915b8281101561321957878501518255602094850194600190920191016131f9565b508482101561323657868401515f19600387901b60f8161c191681555b50505050600190811b01905550565b602080825260149082015273151bdad95b881251081d1a59185ac81d985b1a5960621b604082015260600190565b634e487b7160e01b5f52601160045260245ffd5b8181038181111561052557610525613273565b8082018082111561052557610525613273565b808202811582820484141761052557610525613273565b634e487b7160e01b5f52601260045260245ffd5b5f826132e6576132e66132c4565b500490565b5f826132f9576132f96132c4565b500690565b5f81518060208401855e5f93019283525090919050565b600360fc1b81525f612a0560018301846132fe565b5f61333582856132fe565b601760f91b815261334960018201856132fe565b95945050505050565b7f3c7376672077696474683d2233323022206865696768743d223430302220766981527f6577426f783d2230203020333230203430302220786d6c6e733d22687474703a60208201527f2f2f7777772e77332e6f72672f323030302f737667223e00000000000000000060408201525f6133d86133d260578401866132fe565b846132fe565b651e17b9bb339f60d11b8152600601949350505050565b7f7b2274726169745f74797065223a20224e69636b6e616d65222c202276616c7581526432911d101160d91b60208201525f61342e60258301866132fe565b62089f4b60ea1b81527f7b2274726169745f74797065223a20224c616e65222c20202020202276616c7560038201526432911d101160d91b602382015261347860288201866132fe565b62089f4b60ea1b81527f7b2274726169745f74797065223a202247616d6573222c202020202276616c75600382015263032911d160e51b602382015290506134c360278201856132fe565b611f4b60f21b81526002019695505050505050565b7f7b2274726169745f74797065223a20224b696c6c73222c2020202276616c75658152620111d160ed1b60208201525f61351560238301866132fe565b611f4b60f21b81527f7b2274726169745f74797065223a2022446561746873222c20202276616c75656002820152620111d160ed1b602282015261355c60258201866132fe565b611f4b60f21b81527f7b2274726169745f74797065223a202241737369737473222c202276616c75656002820152620111d160ed1b602282015290506135a560258201856132fe565b607d60f81b81526001019695505050505050565b737b226e616d65223a20224d504c2043617264202360601b81525f6135e160148301876132fe565b6201116160ed1b81527f226465736372697074696f6e223a20224b6172747520644e4654204d504c204960038201527f6e646f6e657369612e2053746174697374696b2070656d61696e20646970657260238201527f626172756920736563617261207265616c2d74696d652064617269204150492060438201527f6d656c616c756920436861696e6c696e6b2046756e6374696f6e732e2056657260638201527f73692070656d62616e64696e6720756e74756b20616e616c697369732067617360838201526801031b7b9ba171116160bd1b60a38201526e2261747472696275746573223a205b60881b60ac8201526136e86136e260bb8301886132fe565b866132fe565b6202e96160ed1b815290507f22696d616765223a2022646174613a696d6167652f7376672b786d6c3b626173600382015263194d8d0b60e21b6023820152613734602782015b856132fe565b61227d60f01b8152600201979650505050505050565b7f646174613a6170706c69636174696f6e2f6a736f6e3b6261736536342c00000081525f612a05601d8301846132fe565b5f6001820161378c5761378c613273565b5060010190565b5f602082840312156137a3575f5ffd5b5051919050565b634e487b7160e01b5f52603260045260245ffd5b7f3c672073686170652d72656e646572696e673d2263726973704564676573223e81527f3c7265637420783d22302220793d2230222077696474683d223332302220686560208201527f696768743d22343030222066696c6c3d2223306231303165222f3e000000000060408201527f3c7265637420783d22382220793d2238222077696474683d2233303422206865605b82018190527f696768743d22333834222066696c6c3d2223313431653333222f3e0000000000607b83015260968201527f696768743d22333834222066696c6c3d226e6f6e6522207374726f6b653d222360b68201527f30306630666622207374726f6b652d77696474683d22312e35222072783d223260d68201526211179f60e91b60f68201527f3c7465787420783d223136302220793d223336222066696c6c3d22233030663060f982019081527f66662220666f6e742d73697a653d2231362220746578742d616e63686f723d226101198301527f6d6964646c652220666f6e742d7765696768743d22626f6c642220666f6e742d6101398301527f66616d696c793d226d6f6e6f7370616365223e4d504c20504c415945522043416101598301526829221e17ba32bc3a1f60b91b6101798301525f9061018283016139f5817f3c6c696e652078313d223230222079313d223530222078323d2233303022207981527f323d22353022207374726f6b653d222330306630666622207374726f6b652d7760208201526934b23a341e911911179f60b11b6040820152604a0190565b915050613a0881631e17b39f60e11b9052565b7f3c73766720783d2231302220793d223330222077696474683d2231343022206860048201527f65696768743d22333830222076696577426f783d22302030203332203332222060248201527f73686170652d72656e646572696e673d2263726973704564676573223e2e2e2e6044820152651e17b9bb339f60d11b6064820152606a8101612a05565b7f3c67207472616e73666f726d3d227472616e736c617465283138302c2039352981527f222073686170652d72656e646572696e673d2263726973704564676573223e0060208201527f3c7465787420783d222d33302220793d223230222066696c6c3d220000000000603f8201525f613b0f605a8301896132fe565b5f5160206143e35f395f51905f5281527f6e6f7370616365223e504c41594552204e414d453a3c2f746578743e0000000060208201527f3c7465787420783d222d33302220793d223436222066696c6c3d222365636630603c8201527f66312220666f6e742d73697a653d2232302220666f6e742d7765696768743d22605c8201527f626f6c642220666f6e742d66616d696c793d226d6f6e6f7370616365223e0000607c820152613bc5609a82015b896132fe565b661e17ba32bc3a1f60c91b815290507f3c6c696e652078313d222d3235222079313d223638222078323d22313230222060078201527f79323d22363822207374726f6b653d222335353522207374726f6b652d77696460278201527f74683d223322207374726f6b652d6461736861727261793d22382c36222f3e006047820152606681017f3c7465787420783d222d33302220793d22393222202066696c6c3d220000000081529050613d16613d10613cc1613c85601c85018b6132fe565b5f5160206143e35f395f51905f5281527f6e6f7370616365223e4c414e452020203a3c2f746578743e0000000000000000602082015260380190565b7f3c7465787420783d223132302220793d22393222202066696c6c3d222365636681525f5160206143c35f395f51905f5260208201525f5160206143a35f395f51905f526040820152605e0190565b876132fe565b661e17ba32bc3a1f60c91b815290507f3c7465787420783d222d33302220793d22313136222066696c6c3d22000000006007820152613dec61372e613d9d613d6160238501896132fe565b5f5160206143e35f395f51905f5281527f6e6f7370616365223e47414d455320203a3c2f746578743e0000000000000000602082015260380190565b7f3c7465787420783d223132302220793d22313136222066696c6c3d222365636681525f5160206143c35f395f51905f5260208201525f5160206143a35f395f51905f526040820152605e0190565b661e17ba32bc3a1f60c91b81526007019998505050505050505050565b7f3c7465787420783d222d33302220793d22313430222066696c6c3d220000000081525f613e3a601c83018b6132fe565b5f5160206143e35f395f51905f5281527f6e6f7370616365223e4b494c4c5320203a3c2f746578743e000000000000000060208201527f3c7465787420783d223132302220793d22313430222066696c6c3d222365636660388201525f5160206143c35f395f51905f5260588201525f5160206143a35f395f51905f526078820152613ec9609682018b6132fe565b661e17ba32bc3a1f60c91b815290507f3c7465787420783d222d33302220793d22313634222066696c6c3d22000000006007820152613f9f613bbf613f50613f14602385018d6132fe565b5f5160206143e35f395f51905f5281527f6e6f7370616365223e444541544853203a3c2f746578743e0000000000000000602082015260380190565b7f3c7465787420783d223132302220793d22313634222066696c6c3d222365636681525f5160206143c35f395f51905f5260208201525f5160206143a35f395f51905f526040820152605e0190565b661e17ba32bc3a1f60c91b815290507f3c7465787420783d222d33302220793d22313838222066696c6c3d22000000006007820152614075613d10614026613fea602385018b6132fe565b5f5160206143e35f395f51905f5281527f6e6f7370616365223e415353495354533a3c2f746578743e0000000000000000602082015260380190565b7f3c7465787420783d223132302220793d22313838222066696c6c3d222365636681525f5160206143c35f395f51905f5260208201525f5160206143a35f395f51905f526040820152605e0190565b661e17ba32bc3a1f60c91b815290507f3c7465787420783d222d33302220793d22323132222066696c6c3d2200000000600782015261414b61372e6140fc6140c060238501896132fe565b5f5160206143e35f395f51905f5281527f6e6f7370616365223e4b4441202020203a3c2f746578743e0000000000000000602082015260380190565b7f3c7465787420783d223132302220793d22323132222066696c6c3d222365636681525f5160206143c35f395f51905f5260208201525f5160206143a35f395f51905f526040820152605e0190565b661e17ba32bc3a1f60c91b81527f3c6c696e652078313d222d3330222079313d22323238222078323d223132302260078201527f2079323d2232323822207374726f6b653d222335353522207374726f6b652d7760278201527f696474683d223322207374726f6b652d6461736861727261793d22382c36222f6047820152601f60f91b6067820152631e17b39f60e11b6068820152606c019b9a5050505050505050505050565b5f6126b16133d283866132fe565b6001600160a01b03858116825284166020820152604081018390526080606082018190525f9061423390830184612d26565b9695505050505050565b5f6020828403121561424d575f5ffd5b8151612a0581612cf6565b634e487b7160e01b5f52602160045260245ffd5b6001600160401b038616815260a060208201525f61428d60a0830187612d26565b61ffff9590951660408301525063ffffffff92909216606083015260809091015292915050565b6001815b60018411156142ef578085048111156142d3576142d3613273565b60018416156142e157908102905b60019390931c9280026142b8565b935093915050565b5f8261430557506001610525565b8161431157505f610525565b816001811461432757600281146143315761434d565b6001915050610525565b60ff84111561434257614342613273565b50506001821b610525565b5060208310610133831016604e8410600b8410161715614370575081810a610525565b61437c5f1984846142b4565b805f190482111561438f5761438f613273565b029392505050565b5f612a0583836142f756fe22656e642220666f6e742d66616d696c793d226d6f6e6f7370616365223e00003066312220666f6e742d73697a653d2231332220746578742d616e63686f723d2220666f6e742d73697a653d2231332220666f6e742d66616d696c793d226d6fa26469706673582212204930a1588f061cdf8da0dd33e1856fdc00097752555e9341d9c2d6e38772a5f464736f6c634300081e0033",
			"opcodes": "PUSH1 0xA0 PUSH1 0x40 MSTORE PUSH1 0x9 DUP1 SLOAD PUSH1 0x1 PUSH1 0x1 PUSH1 0xA0 SHL SUB NOT AND PUSH20 0xB83E47C2BC239B3BF370BC41E1459A34B41238D0 OR SWAP1 SSTORE PUSH32 0x66756E2D657468657265756D2D7365706F6C69612D3100000000000000000000 PUSH1 0xA SSTORE PUSH3 0x15180 PUSH1 0xE SSTORE CALLVALUE DUP1 ISZERO PUSH2 0x60 JUMPI PUSH0 PUSH0 REVERT JUMPDEST POP PUSH1 0x40 MLOAD PUSH2 0x478E CODESIZE SUB DUP1 PUSH2 0x478E DUP4 CODECOPY DUP2 ADD PUSH1 0x40 DUP2 SWAP1 MSTORE PUSH2 0x7F SWAP2 PUSH2 0x1B8 JUMP JUMPDEST PUSH1 0x9 SLOAD PUSH1 0x40 DUP1 MLOAD DUP1 DUP3 ADD DUP3 MSTORE PUSH1 0x1B DUP2 MSTORE PUSH32 0x4D504C20506C617965722043617264204E6F6E2D4C6179657265640000000000 PUSH1 0x20 DUP1 DUP4 ADD SWAP2 SWAP1 SWAP2 MSTORE DUP3 MLOAD DUP1 DUP5 ADD SWAP1 SWAP4 MSTORE PUSH1 0x5 DUP4 MSTORE PUSH5 0x1354131393 PUSH1 0xDA SHL SWAP1 DUP4 ADD MSTORE PUSH1 0x1 PUSH1 0x1 PUSH1 0xA0 SHL SUB SWAP1 SWAP3 AND SWAP2 CALLER SWAP2 PUSH0 PUSH2 0xEB DUP4 DUP3 PUSH2 0x27D JUMP JUMPDEST POP PUSH1 0x1 PUSH2 0xF8 DUP3 DUP3 PUSH2 0x27D JUMP JUMPDEST POP POP POP PUSH1 0x1 PUSH1 0x1 PUSH1 0xA0 SHL SUB DUP2 AND PUSH2 0x128 JUMPI PUSH1 0x40 MLOAD PUSH4 0x1E4FBDF7 PUSH1 0xE0 SHL DUP2 MSTORE PUSH0 PUSH1 0x4 DUP3 ADD MSTORE PUSH1 0x24 ADD PUSH1 0x40 MLOAD DUP1 SWAP2 SUB SWAP1 REVERT JUMPDEST PUSH2 0x131 DUP2 PUSH2 0x167 JUMP JUMPDEST POP PUSH1 0x1 PUSH1 0x1 PUSH1 0xA0 SHL SUB AND PUSH1 0x80 MSTORE PUSH1 0xB DUP1 SLOAD PUSH1 0x1 PUSH1 0x1 PUSH1 0x40 SHL SUB NOT AND PUSH1 0x1 PUSH1 0x1 PUSH1 0x40 SHL SUB SWAP3 SWAP1 SWAP3 AND SWAP2 SWAP1 SWAP2 OR SWAP1 SSTORE TIMESTAMP PUSH1 0xD SSTORE PUSH2 0x337 JUMP JUMPDEST PUSH1 0x7 DUP1 SLOAD PUSH1 0x1 PUSH1 0x1 PUSH1 0xA0 SHL SUB DUP4 DUP2 AND PUSH1 0x1 PUSH1 0x1 PUSH1 0xA0 SHL SUB NOT DUP4 AND DUP2 OR SWAP1 SWAP4 SSTORE PUSH1 0x40 MLOAD SWAP2 AND SWAP2 SWAP1 DUP3 SWAP1 PUSH32 0x8BE0079C531659141344CD1FD0A4F28419497F9722A3DAAFE3B4186F6B6457E0 SWAP1 PUSH0 SWAP1 LOG3 POP POP JUMP JUMPDEST PUSH0 PUSH1 0x20 DUP3 DUP5 SUB SLT ISZERO PUSH2 0x1C8 JUMPI PUSH0 PUSH0 REVERT JUMPDEST DUP2 MLOAD PUSH1 0x1 PUSH1 0x1 PUSH1 0x40 SHL SUB DUP2 AND DUP2 EQ PUSH2 0x1DE JUMPI PUSH0 PUSH0 REVERT JUMPDEST SWAP4 SWAP3 POP POP POP JUMP JUMPDEST PUSH4 0x4E487B71 PUSH1 0xE0 SHL PUSH0 MSTORE PUSH1 0x41 PUSH1 0x4 MSTORE PUSH1 0x24 PUSH0 REVERT JUMPDEST PUSH1 0x1 DUP2 DUP2 SHR SWAP1 DUP3 AND DUP1 PUSH2 0x20D JUMPI PUSH1 0x7F DUP3 AND SWAP2 POP JUMPDEST PUSH1 0x20 DUP3 LT DUP2 SUB PUSH2 0x22B JUMPI PUSH4 0x4E487B71 PUSH1 0xE0 SHL PUSH0 MSTORE PUSH1 0x22 PUSH1 0x4 MSTORE PUSH1 0x24 PUSH0 REVERT JUMPDEST POP SWAP2 SWAP1 POP JUMP JUMPDEST PUSH1 0x1F DUP3 GT ISZERO PUSH2 0x278 JUMPI DUP1 PUSH0 MSTORE PUSH1 0x20 PUSH0 KECCAK256 PUSH1 0x1F DUP5 ADD PUSH1 0x5 SHR DUP2 ADD PUSH1 0x20 DUP6 LT ISZERO PUSH2 0x256 JUMPI POP DUP1 JUMPDEST PUSH1 0x1F DUP5 ADD PUSH1 0x5 SHR DUP3 ADD SWAP2 POP JUMPDEST DUP2 DUP2 LT ISZERO PUSH2 0x275 JUMPI PUSH0 DUP2 SSTORE PUSH1 0x1 ADD PUSH2 0x262 JUMP JUMPDEST POP POP JUMPDEST POP POP POP JUMP JUMPDEST DUP2 MLOAD PUSH1 0x1 PUSH1 0x1 PUSH1 0x40 SHL SUB DUP2 GT ISZERO PUSH2 0x296 JUMPI PUSH2 0x296 PUSH2 0x1E5 JUMP JUMPDEST PUSH2 0x2AA DUP2 PUSH2 0x2A4 DUP5 SLOAD PUSH2 0x1F9 JUMP JUMPDEST DUP5 PUSH2 0x231 JUMP JUMPDEST PUSH1 0x20 PUSH1 0x1F DUP3 GT PUSH1 0x1 DUP2 EQ PUSH2 0x2DC JUMPI PUSH0 DUP4 ISZERO PUSH2 0x2C5 JUMPI POP DUP5 DUP3 ADD MLOAD JUMPDEST PUSH0 NOT PUSH1 0x3 DUP6 SWAP1 SHL SHR NOT AND PUSH1 0x1 DUP5 SWAP1 SHL OR DUP5 SSTORE PUSH2 0x275 JUMP JUMPDEST PUSH0 DUP5 DUP2 MSTORE PUSH1 0x20 DUP2 KECCAK256 PUSH1 0x1F NOT DUP6 AND SWAP2 JUMPDEST DUP3 DUP2 LT ISZERO PUSH2 0x30B JUMPI DUP8 DUP6 ADD MLOAD DUP3 SSTORE PUSH1 0x20 SWAP5 DUP6 ADD SWAP5 PUSH1 0x1 SWAP1 SWAP3 ADD SWAP2 ADD PUSH2 0x2EB JUMP JUMPDEST POP DUP5 DUP3 LT ISZERO PUSH2 0x328 JUMPI DUP7 DUP5 ADD MLOAD PUSH0 NOT PUSH1 0x3 DUP8 SWAP1 SHL PUSH1 0xF8 AND SHR NOT AND DUP2 SSTORE JUMPDEST POP POP POP POP PUSH1 0x1 SWAP1 DUP2 SHL ADD SWAP1 SSTORE POP JUMP JUMPDEST PUSH1 0x80 MLOAD PUSH2 0x4438 PUSH2 0x356 PUSH0 CODECOPY PUSH0 DUP2 DUP2 PUSH2 0x5F7 ADD MSTORE PUSH2 0x231F ADD MSTORE PUSH2 0x4438 PUSH0 RETURN INVALID PUSH1 0x80 PUSH1 0x40 MSTORE CALLVALUE DUP1 ISZERO PUSH2 0xF JUMPI PUSH0 PUSH0 REVERT JUMPDEST POP PUSH1 0x4 CALLDATASIZE LT PUSH2 0x207 JUMPI PUSH0 CALLDATALOAD PUSH1 0xE0 SHR DUP1 PUSH4 0x6352211E GT PUSH2 0x11F JUMPI DUP1 PUSH4 0x95D89B41 GT PUSH2 0xA9 JUMPI DUP1 PUSH4 0xC87B56DD GT PUSH2 0x79 JUMPI DUP1 PUSH4 0xC87B56DD EQ PUSH2 0x494 JUMPI DUP1 PUSH4 0xE049D709 EQ PUSH2 0x4A7 JUMPI DUP1 PUSH4 0xE985E9C5 EQ PUSH2 0x4B0 JUMPI DUP1 PUSH4 0xECA81D42 EQ PUSH2 0x4C3 JUMPI DUP1 PUSH4 0xF2FDE38B EQ PUSH2 0x4D6 JUMPI PUSH0 PUSH0 REVERT JUMPDEST DUP1 PUSH4 0x95D89B41 EQ PUSH2 0x441 JUMPI DUP1 PUSH4 0xA22CB465 EQ PUSH2 0x449 JUMPI DUP1 PUSH4 0xB4CFAE44 EQ PUSH2 0x45C JUMPI DUP1 PUSH4 0xB88D4FDE EQ PUSH2 0x481 JUMPI PUSH0 PUSH0 REVERT JUMPDEST DUP1 PUSH4 0x70A08231 GT PUSH2 0xEF JUMPI DUP1 PUSH4 0x70A08231 EQ PUSH2 0x403 JUMPI DUP1 PUSH4 0x715018A6 EQ PUSH2 0x416 JUMPI DUP1 PUSH4 0x8DA5CB5B EQ PUSH2 0x41E JUMPI DUP1 PUSH4 0x947A36FB EQ PUSH2 0x42F JUMPI DUP1 PUSH4 0x94881476 EQ PUSH2 0x438 JUMPI PUSH0 PUSH0 REVERT JUMPDEST DUP1 PUSH4 0x6352211E EQ PUSH2 0x39D JUMPI DUP1 PUSH4 0x68015A4B EQ PUSH2 0x3B0 JUMPI DUP1 PUSH4 0x6DCEE4CA EQ PUSH2 0x3CF JUMPI DUP1 PUSH4 0x6E04FF0D EQ PUSH2 0x3E2 JUMPI PUSH0 PUSH0 REVERT JUMPDEST DUP1 PUSH4 0x18160DDD GT PUSH2 0x1A0 JUMPI DUP1 PUSH4 0x2839B78F GT PUSH2 0x170 JUMPI DUP1 PUSH4 0x2839B78F EQ PUSH2 0x33B JUMPI DUP1 PUSH4 0x3F3B3B27 EQ PUSH2 0x34E JUMPI DUP1 PUSH4 0x42842E0E EQ PUSH2 0x357 JUMPI DUP1 PUSH4 0x4585E33B EQ PUSH2 0x36A JUMPI DUP1 PUSH4 0x5C2ADF6A EQ PUSH2 0x37D JUMPI PUSH0 PUSH0 REVERT JUMPDEST DUP1 PUSH4 0x18160DDD EQ PUSH2 0x2E1 JUMPI DUP1 PUSH4 0x20457FB6 EQ PUSH2 0x2F3 JUMPI DUP1 PUSH4 0x22E817E2 EQ PUSH2 0x315 JUMPI DUP1 PUSH4 0x23B872DD EQ PUSH2 0x328 JUMPI PUSH0 PUSH0 REVERT JUMPDEST DUP1 PUSH4 0x95EA7B3 GT PUSH2 0x1DB JUMPI DUP1 PUSH4 0x95EA7B3 EQ PUSH2 0x288 JUMPI DUP1 PUSH4 0x9C1BA2E EQ PUSH2 0x29B JUMPI DUP1 PUSH4 0xCA76175 EQ PUSH2 0x2C6 JUMPI DUP1 PUSH4 0x13C60177 EQ PUSH2 0x2D9 JUMPI PUSH0 PUSH0 REVERT JUMPDEST DUP1 PUSH3 0xB46767 EQ PUSH2 0x20B JUMPI DUP1 PUSH4 0x1FFC9A7 EQ PUSH2 0x220 JUMPI DUP1 PUSH4 0x6FDDE03 EQ PUSH2 0x248 JUMPI DUP1 PUSH4 0x81812FC EQ PUSH2 0x25D JUMPI JUMPDEST PUSH0 PUSH0 REVERT JUMPDEST PUSH2 0x21E PUSH2 0x219 CALLDATASIZE PUSH1 0x4 PUSH2 0x2CC5 JUMP JUMPDEST PUSH2 0x4E9 JUMP JUMPDEST STOP JUMPDEST PUSH2 0x233 PUSH2 0x22E CALLDATASIZE PUSH1 0x4 PUSH2 0x2D0B JUMP JUMPDEST PUSH2 0x501 JUMP JUMPDEST PUSH1 0x40 MLOAD SWAP1 ISZERO ISZERO DUP2 MSTORE PUSH1 0x20 ADD JUMPDEST PUSH1 0x40 MLOAD DUP1 SWAP2 SUB SWAP1 RETURN JUMPDEST PUSH2 0x250 PUSH2 0x52B JUMP JUMPDEST PUSH1 0x40 MLOAD PUSH2 0x23F SWAP2 SWAP1 PUSH2 0x2D54 JUMP JUMPDEST PUSH2 0x270 PUSH2 0x26B CALLDATASIZE PUSH1 0x4 PUSH2 0x2D66 JUMP JUMPDEST PUSH2 0x5BA JUMP JUMPDEST PUSH1 0x40 MLOAD PUSH1 0x1 PUSH1 0x1 PUSH1 0xA0 SHL SUB SWAP1 SWAP2 AND DUP2 MSTORE PUSH1 0x20 ADD PUSH2 0x23F JUMP JUMPDEST PUSH2 0x21E PUSH2 0x296 CALLDATASIZE PUSH1 0x4 PUSH2 0x2D98 JUMP JUMPDEST PUSH2 0x5E1 JUMP JUMPDEST PUSH1 0xB SLOAD PUSH2 0x2AE SWAP1 PUSH1 0x1 PUSH1 0x1 PUSH1 0x40 SHL SUB AND DUP2 JUMP JUMPDEST PUSH1 0x40 MLOAD PUSH1 0x1 PUSH1 0x1 PUSH1 0x40 SHL SUB SWAP1 SWAP2 AND DUP2 MSTORE PUSH1 0x20 ADD PUSH2 0x23F JUMP JUMPDEST PUSH2 0x21E PUSH2 0x2D4 CALLDATASIZE PUSH1 0x4 PUSH2 0x2DC0 JUMP JUMPDEST PUSH2 0x5EC JUMP JUMPDEST PUSH2 0x250 PUSH2 0x66F JUMP JUMPDEST PUSH1 0x8 SLOAD JUMPDEST PUSH1 0x40 MLOAD SWAP1 DUP2 MSTORE PUSH1 0x20 ADD PUSH2 0x23F JUMP JUMPDEST PUSH2 0x233 PUSH2 0x301 CALLDATASIZE PUSH1 0x4 PUSH2 0x2D66 JUMP JUMPDEST PUSH1 0x12 PUSH1 0x20 MSTORE PUSH0 SWAP1 DUP2 MSTORE PUSH1 0x40 SWAP1 KECCAK256 SLOAD PUSH1 0xFF AND DUP2 JUMP JUMPDEST PUSH2 0x21E PUSH2 0x323 CALLDATASIZE PUSH1 0x4 PUSH2 0x2E2B JUMP JUMPDEST PUSH2 0x6FB JUMP JUMPDEST PUSH2 0x21E PUSH2 0x336 CALLDATASIZE PUSH1 0x4 PUSH2 0x2E4B JUMP JUMPDEST PUSH2 0x7C0 JUMP JUMPDEST PUSH2 0x21E PUSH2 0x349 CALLDATASIZE PUSH1 0x4 PUSH2 0x2D66 JUMP JUMPDEST PUSH2 0x849 JUMP JUMPDEST PUSH2 0x2E5 PUSH1 0xD SLOAD DUP2 JUMP JUMPDEST PUSH2 0x21E PUSH2 0x365 CALLDATASIZE PUSH1 0x4 PUSH2 0x2E4B JUMP JUMPDEST PUSH2 0x911 JUMP JUMPDEST PUSH2 0x21E PUSH2 0x378 CALLDATASIZE PUSH1 0x4 PUSH2 0x2E85 JUMP JUMPDEST PUSH2 0x930 JUMP JUMPDEST PUSH2 0x390 PUSH2 0x38B CALLDATASIZE PUSH1 0x4 PUSH2 0x2D66 JUMP JUMPDEST PUSH2 0x96B JUMP JUMPDEST PUSH1 0x40 MLOAD PUSH2 0x23F SWAP2 SWAP1 PUSH2 0x2EF1 JUMP JUMPDEST PUSH2 0x270 PUSH2 0x3AB CALLDATASIZE PUSH1 0x4 PUSH2 0x2D66 JUMP JUMPDEST PUSH2 0xB3B JUMP JUMPDEST PUSH2 0x2E5 PUSH2 0x3BE CALLDATASIZE PUSH1 0x4 PUSH2 0x2D66 JUMP JUMPDEST PUSH1 0x11 PUSH1 0x20 MSTORE PUSH0 SWAP1 DUP2 MSTORE PUSH1 0x40 SWAP1 KECCAK256 SLOAD DUP2 JUMP JUMPDEST PUSH2 0x250 PUSH2 0x3DD CALLDATASIZE PUSH1 0x4 PUSH2 0x2D66 JUMP JUMPDEST PUSH2 0xB45 JUMP JUMPDEST PUSH2 0x3F5 PUSH2 0x3F0 CALLDATASIZE PUSH1 0x4 PUSH2 0x2E85 JUMP JUMPDEST PUSH2 0xDEC JUMP JUMPDEST PUSH1 0x40 MLOAD PUSH2 0x23F SWAP3 SWAP2 SWAP1 PUSH2 0x2F82 JUMP JUMPDEST PUSH2 0x2E5 PUSH2 0x411 CALLDATASIZE PUSH1 0x4 PUSH2 0x2F9C JUMP JUMPDEST PUSH2 0xE2A JUMP JUMPDEST PUSH2 0x21E PUSH2 0xE6F JUMP JUMPDEST PUSH1 0x7 SLOAD PUSH1 0x1 PUSH1 0x1 PUSH1 0xA0 SHL SUB AND PUSH2 0x270 JUMP JUMPDEST PUSH2 0x2E5 PUSH1 0xE SLOAD DUP2 JUMP JUMPDEST PUSH2 0x2E5 PUSH1 0xF SLOAD DUP2 JUMP JUMPDEST PUSH2 0x250 PUSH2 0xE82 JUMP JUMPDEST PUSH2 0x21E PUSH2 0x457 CALLDATASIZE PUSH1 0x4 PUSH2 0x2FB5 JUMP JUMPDEST PUSH2 0xE91 JUMP JUMPDEST PUSH2 0x46F PUSH2 0x46A CALLDATASIZE PUSH1 0x4 PUSH2 0x2D66 JUMP JUMPDEST PUSH2 0xE9C JUMP JUMPDEST PUSH1 0x40 MLOAD PUSH2 0x23F SWAP7 SWAP6 SWAP5 SWAP4 SWAP3 SWAP2 SWAP1 PUSH2 0x2FEE JUMP JUMPDEST PUSH2 0x21E PUSH2 0x48F CALLDATASIZE PUSH1 0x4 PUSH2 0x3046 JUMP JUMPDEST PUSH2 0xFF1 JUMP JUMPDEST PUSH2 0x250 PUSH2 0x4A2 CALLDATASIZE PUSH1 0x4 PUSH2 0x2D66 JUMP JUMPDEST PUSH2 0x1009 JUMP JUMPDEST PUSH2 0x2E5 PUSH2 0xE10 DUP2 JUMP JUMPDEST PUSH2 0x233 PUSH2 0x4BE CALLDATASIZE PUSH1 0x4 PUSH2 0x30A9 JUMP JUMPDEST PUSH2 0x1291 JUMP JUMPDEST PUSH2 0x21E PUSH2 0x4D1 CALLDATASIZE PUSH1 0x4 PUSH2 0x30DA JUMP JUMPDEST PUSH2 0x12BE JUMP JUMPDEST PUSH2 0x21E PUSH2 0x4E4 CALLDATASIZE PUSH1 0x4 PUSH2 0x2F9C JUMP JUMPDEST PUSH2 0x13C1 JUMP JUMPDEST PUSH2 0x4F1 PUSH2 0x13FE JUMP JUMPDEST PUSH1 0xC PUSH2 0x4FD DUP3 DUP3 PUSH2 0x318B JUMP JUMPDEST POP POP JUMP JUMPDEST PUSH0 PUSH1 0x1 PUSH1 0x1 PUSH1 0xE0 SHL SUB NOT DUP3 AND PUSH4 0x24832483 PUSH1 0xE1 SHL EQ DUP1 PUSH2 0x525 JUMPI POP PUSH2 0x525 DUP3 PUSH2 0x142B JUMP JUMPDEST SWAP3 SWAP2 POP POP JUMP JUMPDEST PUSH1 0x60 PUSH0 DUP1 SLOAD PUSH2 0x539 SWAP1 PUSH2 0x310F JUMP JUMPDEST DUP1 PUSH1 0x1F ADD PUSH1 0x20 DUP1 SWAP2 DIV MUL PUSH1 0x20 ADD PUSH1 0x40 MLOAD SWAP1 DUP2 ADD PUSH1 0x40 MSTORE DUP1 SWAP3 SWAP2 SWAP1 DUP2 DUP2 MSTORE PUSH1 0x20 ADD DUP3 DUP1 SLOAD PUSH2 0x565 SWAP1 PUSH2 0x310F JUMP JUMPDEST DUP1 ISZERO PUSH2 0x5B0 JUMPI DUP1 PUSH1 0x1F LT PUSH2 0x587 JUMPI PUSH2 0x100 DUP1 DUP4 SLOAD DIV MUL DUP4 MSTORE SWAP2 PUSH1 0x20 ADD SWAP2 PUSH2 0x5B0 JUMP JUMPDEST DUP3 ADD SWAP2 SWAP1 PUSH0 MSTORE PUSH1 0x20 PUSH0 KECCAK256 SWAP1 JUMPDEST DUP2 SLOAD DUP2 MSTORE SWAP1 PUSH1 0x1 ADD SWAP1 PUSH1 0x20 ADD DUP1 DUP4 GT PUSH2 0x593 JUMPI DUP3 SWAP1 SUB PUSH1 0x1F AND DUP3 ADD SWAP2 JUMPDEST POP POP POP POP POP SWAP1 POP SWAP1 JUMP JUMPDEST PUSH0 PUSH2 0x5C4 DUP3 PUSH2 0x147A JUMP JUMPDEST POP PUSH0 DUP3 DUP2 MSTORE PUSH1 0x4 PUSH1 0x20 MSTORE PUSH1 0x40 SWAP1 KECCAK256 SLOAD PUSH1 0x1 PUSH1 0x1 PUSH1 0xA0 SHL SUB AND PUSH2 0x525 JUMP JUMPDEST PUSH2 0x4FD DUP3 DUP3 CALLER PUSH2 0x14B2 JUMP JUMPDEST CALLER PUSH1 0x1 PUSH1 0x1 PUSH1 0xA0 SHL SUB PUSH32 0x0 AND EQ PUSH2 0x635 JUMPI PUSH1 0x40 MLOAD PUSH4 0xC6829F83 PUSH1 0xE0 SHL DUP2 MSTORE PUSH1 0x4 ADD PUSH1 0x40 MLOAD DUP1 SWAP2 SUB SWAP1 REVERT JUMPDEST PUSH2 0x640 DUP4 DUP4 DUP4 PUSH2 0x14BF JUMP JUMPDEST PUSH1 0x40 MLOAD DUP4 SWAP1 PUSH32 0x85E1543BF2F84FE80C6BADBCE3648C8539AD1DF4D2B3D822938CA0538BE727E6 SWAP1 PUSH0 SWAP1 LOG2 POP POP POP JUMP JUMPDEST PUSH1 0xC DUP1 SLOAD PUSH2 0x67C SWAP1 PUSH2 0x310F JUMP JUMPDEST DUP1 PUSH1 0x1F ADD PUSH1 0x20 DUP1 SWAP2 DIV MUL PUSH1 0x20 ADD PUSH1 0x40 MLOAD SWAP1 DUP2 ADD PUSH1 0x40 MSTORE DUP1 SWAP3 SWAP2 SWAP1 DUP2 DUP2 MSTORE PUSH1 0x20 ADD DUP3 DUP1 SLOAD PUSH2 0x6A8 SWAP1 PUSH2 0x310F JUMP JUMPDEST DUP1 ISZERO PUSH2 0x6F3 JUMPI DUP1 PUSH1 0x1F LT PUSH2 0x6CA JUMPI PUSH2 0x100 DUP1 DUP4 SLOAD DIV MUL DUP4 MSTORE SWAP2 PUSH1 0x20 ADD SWAP2 PUSH2 0x6F3 JUMP JUMPDEST DUP3 ADD SWAP2 SWAP1 PUSH0 MSTORE PUSH1 0x20 PUSH0 KECCAK256 SWAP1 JUMPDEST DUP2 SLOAD DUP2 MSTORE SWAP1 PUSH1 0x1 ADD SWAP1 PUSH1 0x20 ADD DUP1 DUP4 GT PUSH2 0x6D6 JUMPI DUP3 SWAP1 SUB PUSH1 0x1F AND DUP3 ADD SWAP2 JUMPDEST POP POP POP POP POP DUP2 JUMP JUMPDEST PUSH2 0x703 PUSH2 0x13FE JUMP JUMPDEST PUSH2 0xE10 DUP3 LT ISZERO PUSH2 0x736 JUMPI PUSH1 0x40 MLOAD PUSH4 0x4D5A709 PUSH1 0xE4 SHL DUP2 MSTORE PUSH1 0x4 DUP2 ADD DUP4 SWAP1 MSTORE PUSH2 0xE10 PUSH1 0x24 DUP3 ADD MSTORE PUSH1 0x44 ADD JUMPDEST PUSH1 0x40 MLOAD DUP1 SWAP2 SUB SWAP1 REVERT JUMPDEST PUSH1 0x8 SLOAD PUSH0 SUB PUSH2 0x758 JUMPI PUSH1 0x40 MLOAD PUSH4 0xD31B331D PUSH1 0xE0 SHL DUP2 MSTORE PUSH1 0x4 ADD PUSH1 0x40 MLOAD DUP1 SWAP2 SUB SWAP1 REVERT JUMPDEST PUSH1 0x8 SLOAD DUP2 LT PUSH2 0x779 JUMPI PUSH1 0x40 MLOAD PUSH3 0x461BCD PUSH1 0xE5 SHL DUP2 MSTORE PUSH1 0x4 ADD PUSH2 0x72D SWAP1 PUSH2 0x3245 JUMP JUMPDEST PUSH1 0xE DUP3 SWAP1 SSTORE PUSH1 0xF DUP2 SWAP1 SSTORE PUSH1 0x40 DUP1 MLOAD DUP4 DUP2 MSTORE PUSH1 0x20 DUP2 ADD DUP4 SWAP1 MSTORE PUSH32 0x64586ACD58623513AAC74E3F48F97302B3E5020B31C103C3254EB9EA68BC49F2 SWAP2 ADD PUSH1 0x40 MLOAD DUP1 SWAP2 SUB SWAP1 LOG1 POP POP JUMP JUMPDEST PUSH1 0x1 PUSH1 0x1 PUSH1 0xA0 SHL SUB DUP3 AND PUSH2 0x7E9 JUMPI PUSH1 0x40 MLOAD PUSH4 0x32505749 PUSH1 0xE1 SHL DUP2 MSTORE PUSH0 PUSH1 0x4 DUP3 ADD MSTORE PUSH1 0x24 ADD PUSH2 0x72D JUMP JUMPDEST PUSH0 PUSH2 0x7F5 DUP4 DUP4 CALLER PUSH2 0x17E1 JUMP JUMPDEST SWAP1 POP DUP4 PUSH1 0x1 PUSH1 0x1 PUSH1 0xA0 SHL SUB AND DUP2 PUSH1 0x1 PUSH1 0x1 PUSH1 0xA0 SHL SUB AND EQ PUSH2 0x843 JUMPI PUSH1 0x40 MLOAD PUSH4 0x64283D7B PUSH1 0xE0 SHL DUP2 MSTORE PUSH1 0x1 PUSH1 0x1 PUSH1 0xA0 SHL SUB DUP1 DUP7 AND PUSH1 0x4 DUP4 ADD MSTORE PUSH1 0x24 DUP3 ADD DUP5 SWAP1 MSTORE DUP3 AND PUSH1 0x44 DUP3 ADD MSTORE PUSH1 0x64 ADD PUSH2 0x72D JUMP JUMPDEST POP POP POP POP JUMP JUMPDEST PUSH2 0x851 PUSH2 0x13FE JUMP JUMPDEST PUSH1 0x8 SLOAD DUP2 LT PUSH2 0x872 JUMPI PUSH1 0x40 MLOAD PUSH3 0x461BCD PUSH1 0xE5 SHL DUP2 MSTORE PUSH1 0x4 ADD PUSH2 0x72D SWAP1 PUSH2 0x3245 JUMP JUMPDEST PUSH0 DUP2 DUP2 MSTORE PUSH1 0x10 PUSH1 0x20 MSTORE PUSH1 0x40 SWAP1 KECCAK256 DUP1 SLOAD PUSH2 0x4FD SWAP2 DUP4 SWAP2 PUSH2 0x890 SWAP1 PUSH2 0x310F JUMP JUMPDEST DUP1 PUSH1 0x1F ADD PUSH1 0x20 DUP1 SWAP2 DIV MUL PUSH1 0x20 ADD PUSH1 0x40 MLOAD SWAP1 DUP2 ADD PUSH1 0x40 MSTORE DUP1 SWAP3 SWAP2 SWAP1 DUP2 DUP2 MSTORE PUSH1 0x20 ADD DUP3 DUP1 SLOAD PUSH2 0x8BC SWAP1 PUSH2 0x310F JUMP JUMPDEST DUP1 ISZERO PUSH2 0x907 JUMPI DUP1 PUSH1 0x1F LT PUSH2 0x8DE JUMPI PUSH2 0x100 DUP1 DUP4 SLOAD DIV MUL DUP4 MSTORE SWAP2 PUSH1 0x20 ADD SWAP2 PUSH2 0x907 JUMP JUMPDEST DUP3 ADD SWAP2 SWAP1 PUSH0 MSTORE PUSH1 0x20 PUSH0 KECCAK256 SWAP1 JUMPDEST DUP2 SLOAD DUP2 MSTORE SWAP1 PUSH1 0x1 ADD SWAP1 PUSH1 0x20 ADD DUP1 DUP4 GT PUSH2 0x8EA JUMPI DUP3 SWAP1 SUB PUSH1 0x1F AND DUP3 ADD SWAP2 JUMPDEST POP POP POP POP POP PUSH2 0x18D3 JUMP JUMPDEST PUSH2 0x92B DUP4 DUP4 DUP4 PUSH1 0x40 MLOAD DUP1 PUSH1 0x20 ADD PUSH1 0x40 MSTORE DUP1 PUSH0 DUP2 MSTORE POP PUSH2 0xFF1 JUMP JUMPDEST POP POP POP JUMP JUMPDEST PUSH1 0xE SLOAD PUSH1 0xD SLOAD PUSH2 0x940 SWAP1 TIMESTAMP PUSH2 0x3287 JUMP JUMPDEST GT ISZERO PUSH2 0x4FD JUMPI TIMESTAMP PUSH1 0xD SSTORE PUSH1 0xF SLOAD PUSH0 DUP2 DUP2 MSTORE PUSH1 0x10 PUSH1 0x20 MSTORE PUSH1 0x40 SWAP1 KECCAK256 DUP1 SLOAD PUSH2 0x92B SWAP3 SWAP2 SWAP1 PUSH2 0x890 SWAP1 PUSH2 0x310F JUMP JUMPDEST PUSH1 0x40 DUP1 MLOAD PUSH1 0xC0 DUP2 ADD DUP3 MSTORE PUSH1 0x60 DUP1 DUP3 MSTORE PUSH1 0x20 DUP3 ADD DUP2 SWAP1 MSTORE PUSH0 SWAP3 DUP3 ADD DUP4 SWAP1 MSTORE DUP2 ADD DUP3 SWAP1 MSTORE PUSH1 0x80 DUP2 ADD DUP3 SWAP1 MSTORE PUSH1 0xA0 DUP2 ADD SWAP2 SWAP1 SWAP2 MSTORE PUSH1 0x8 SLOAD DUP3 LT PUSH2 0x9BD JUMPI PUSH1 0x40 MLOAD PUSH3 0x461BCD PUSH1 0xE5 SHL DUP2 MSTORE PUSH1 0x4 ADD PUSH2 0x72D SWAP1 PUSH2 0x3245 JUMP JUMPDEST PUSH0 DUP3 DUP2 MSTORE PUSH1 0x10 PUSH1 0x20 MSTORE PUSH1 0x40 SWAP1 DUP2 SWAP1 KECCAK256 DUP2 MLOAD PUSH1 0xC0 DUP2 ADD SWAP1 SWAP3 MSTORE DUP1 SLOAD DUP3 SWAP1 DUP3 SWAP1 PUSH2 0x9E4 SWAP1 PUSH2 0x310F JUMP JUMPDEST DUP1 PUSH1 0x1F ADD PUSH1 0x20 DUP1 SWAP2 DIV MUL PUSH1 0x20 ADD PUSH1 0x40 MLOAD SWAP1 DUP2 ADD PUSH1 0x40 MSTORE DUP1 SWAP3 SWAP2 SWAP1 DUP2 DUP2 MSTORE PUSH1 0x20 ADD DUP3 DUP1 SLOAD PUSH2 0xA10 SWAP1 PUSH2 0x310F JUMP JUMPDEST DUP1 ISZERO PUSH2 0xA5B JUMPI DUP1 PUSH1 0x1F LT PUSH2 0xA32 JUMPI PUSH2 0x100 DUP1 DUP4 SLOAD DIV MUL DUP4 MSTORE SWAP2 PUSH1 0x20 ADD SWAP2 PUSH2 0xA5B JUMP JUMPDEST DUP3 ADD SWAP2 SWAP1 PUSH0 MSTORE PUSH1 0x20 PUSH0 KECCAK256 SWAP1 JUMPDEST DUP2 SLOAD DUP2 MSTORE SWAP1 PUSH1 0x1 ADD SWAP1 PUSH1 0x20 ADD DUP1 DUP4 GT PUSH2 0xA3E JUMPI DUP3 SWAP1 SUB PUSH1 0x1F AND DUP3 ADD SWAP2 JUMPDEST POP POP POP POP POP DUP2 MSTORE PUSH1 0x20 ADD PUSH1 0x1 DUP3 ADD DUP1 SLOAD PUSH2 0xA74 SWAP1 PUSH2 0x310F JUMP JUMPDEST DUP1 PUSH1 0x1F ADD PUSH1 0x20 DUP1 SWAP2 DIV MUL PUSH1 0x20 ADD PUSH1 0x40 MLOAD SWAP1 DUP2 ADD PUSH1 0x40 MSTORE DUP1 SWAP3 SWAP2 SWAP1 DUP2 DUP2 MSTORE PUSH1 0x20 ADD DUP3 DUP1 SLOAD PUSH2 0xAA0 SWAP1 PUSH2 0x310F JUMP JUMPDEST DUP1 ISZERO PUSH2 0xAEB JUMPI DUP1 PUSH1 0x1F LT PUSH2 0xAC2 JUMPI PUSH2 0x100 DUP1 DUP4 SLOAD DIV MUL DUP4 MSTORE SWAP2 PUSH1 0x20 ADD SWAP2 PUSH2 0xAEB JUMP JUMPDEST DUP3 ADD SWAP2 SWAP1 PUSH0 MSTORE PUSH1 0x20 PUSH0 KECCAK256 SWAP1 JUMPDEST DUP2 SLOAD DUP2 MSTORE SWAP1 PUSH1 0x1 ADD SWAP1 PUSH1 0x20 ADD DUP1 DUP4 GT PUSH2 0xACE JUMPI DUP3 SWAP1 SUB PUSH1 0x1F AND DUP3 ADD SWAP2 JUMPDEST POP POP POP SWAP2 DUP4 MSTORE POP POP PUSH1 0x2 SWAP2 SWAP1 SWAP2 ADD SLOAD PUSH1 0x1 PUSH1 0x1 PUSH1 0x40 SHL SUB DUP1 DUP3 AND PUSH1 0x20 DUP5 ADD MSTORE PUSH1 0x1 PUSH1 0x40 SHL DUP3 DIV DUP2 AND PUSH1 0x40 DUP5 ADD MSTORE PUSH1 0x1 PUSH1 0x80 SHL DUP3 DIV DUP2 AND PUSH1 0x60 DUP5 ADD MSTORE PUSH1 0x1 PUSH1 0xC0 SHL SWAP1 SWAP2 DIV AND PUSH1 0x80 SWAP1 SWAP2 ADD MSTORE SWAP3 SWAP2 POP POP JUMP JUMPDEST PUSH0 PUSH2 0x525 DUP3 PUSH2 0x147A JUMP JUMPDEST PUSH1 0x60 PUSH0 PUSH1 0x10 PUSH0 DUP5 DUP2 MSTORE PUSH1 0x20 ADD SWAP1 DUP2 MSTORE PUSH1 0x20 ADD PUSH0 KECCAK256 PUSH1 0x40 MLOAD DUP1 PUSH1 0xC0 ADD PUSH1 0x40 MSTORE SWAP1 DUP2 PUSH0 DUP3 ADD DUP1 SLOAD PUSH2 0xB73 SWAP1 PUSH2 0x310F JUMP JUMPDEST DUP1 PUSH1 0x1F ADD PUSH1 0x20 DUP1 SWAP2 DIV MUL PUSH1 0x20 ADD PUSH1 0x40 MLOAD SWAP1 DUP2 ADD PUSH1 0x40 MSTORE DUP1 SWAP3 SWAP2 SWAP1 DUP2 DUP2 MSTORE PUSH1 0x20 ADD DUP3 DUP1 SLOAD PUSH2 0xB9F SWAP1 PUSH2 0x310F JUMP JUMPDEST DUP1 ISZERO PUSH2 0xBEA JUMPI DUP1 PUSH1 0x1F LT PUSH2 0xBC1 JUMPI PUSH2 0x100 DUP1 DUP4 SLOAD DIV MUL DUP4 MSTORE SWAP2 PUSH1 0x20 ADD SWAP2 PUSH2 0xBEA JUMP JUMPDEST DUP3 ADD SWAP2 SWAP1 PUSH0 MSTORE PUSH1 0x20 PUSH0 KECCAK256 SWAP1 JUMPDEST DUP2 SLOAD DUP2 MSTORE SWAP1 PUSH1 0x1 ADD SWAP1 PUSH1 0x20 ADD DUP1 DUP4 GT PUSH2 0xBCD JUMPI DUP3 SWAP1 SUB PUSH1 0x1F AND DUP3 ADD SWAP2 JUMPDEST POP POP POP POP POP DUP2 MSTORE PUSH1 0x20 ADD PUSH1 0x1 DUP3 ADD DUP1 SLOAD PUSH2 0xC03 SWAP1 PUSH2 0x310F JUMP JUMPDEST DUP1 PUSH1 0x1F ADD PUSH1 0x20 DUP1 SWAP2 DIV MUL PUSH1 0x20 ADD PUSH1 0x40 MLOAD SWAP1 DUP2 ADD PUSH1 0x40 MSTORE DUP1 SWAP3 SWAP2 SWAP1 DUP2 DUP2 MSTORE PUSH1 0x20 ADD DUP3 DUP1 SLOAD PUSH2 0xC2F SWAP1 PUSH2 0x310F JUMP JUMPDEST DUP1 ISZERO PUSH2 0xC7A JUMPI DUP1 PUSH1 0x1F LT PUSH2 0xC51 JUMPI PUSH2 0x100 DUP1 DUP4 SLOAD DIV MUL DUP4 MSTORE SWAP2 PUSH1 0x20 ADD SWAP2 PUSH2 0xC7A JUMP JUMPDEST DUP3 ADD SWAP2 SWAP1 PUSH0 MSTORE PUSH1 0x20 PUSH0 KECCAK256 SWAP1 JUMPDEST DUP2 SLOAD DUP2 MSTORE SWAP1 PUSH1 0x1 ADD SWAP1 PUSH1 0x20 ADD DUP1 DUP4 GT PUSH2 0xC5D JUMPI DUP3 SWAP1 SUB PUSH1 0x1F AND DUP3 ADD SWAP2 JUMPDEST POP POP POP SWAP2 DUP4 MSTORE POP POP PUSH1 0x2 SWAP2 SWAP1 SWAP2 ADD SLOAD PUSH1 0x1 PUSH1 0x1 PUSH1 0x40 SHL SUB DUP1 DUP3 AND PUSH1 0x20 DUP5 ADD MSTORE PUSH1 0x1 PUSH1 0x40 SHL DUP3 DIV DUP2 AND PUSH1 0x40 DUP5 ADD MSTORE PUSH1 0x1 PUSH1 0x80 SHL DUP3 DIV DUP2 AND PUSH1 0x60 DUP5 ADD MSTORE PUSH1 0x1 PUSH1 0xC0 SHL SWAP1 SWAP2 DIV DUP2 AND PUSH1 0x80 SWAP3 DUP4 ADD MSTORE SWAP1 DUP3 ADD MLOAD SWAP2 SWAP3 POP PUSH0 SWAP2 AND ISZERO PUSH2 0xCDE JUMPI DUP2 PUSH1 0x80 ADD MLOAD PUSH2 0xCE1 JUMP JUMPDEST PUSH1 0x1 JUMPDEST SWAP1 POP PUSH0 DUP2 PUSH1 0x1 PUSH1 0x1 PUSH1 0x40 SHL SUB AND DUP4 PUSH1 0xA0 ADD MLOAD PUSH1 0x1 PUSH1 0x1 PUSH1 0x40 SHL SUB AND DUP5 PUSH1 0x60 ADD MLOAD PUSH1 0x1 PUSH1 0x1 PUSH1 0x40 SHL SUB AND PUSH2 0xD14 SWAP2 SWAP1 PUSH2 0x329A JUMP JUMPDEST PUSH2 0xD1F SWAP1 PUSH1 0x64 PUSH2 0x32AD JUMP JUMPDEST PUSH2 0xD29 SWAP2 SWAP1 PUSH2 0x32D8 JUMP JUMPDEST SWAP1 POP PUSH0 PUSH2 0xD37 PUSH1 0x64 DUP4 PUSH2 0x32EB JUMP JUMPDEST SWAP1 POP PUSH0 PUSH2 0xD4D PUSH2 0xD48 PUSH1 0x64 DUP6 PUSH2 0x32D8 JUMP JUMPDEST PUSH2 0x1A96 JUMP JUMPDEST PUSH1 0xA DUP4 LT PUSH2 0xD63 JUMPI PUSH2 0xD5E DUP4 PUSH2 0x1A96 JUMP JUMPDEST PUSH2 0xD8C JUMP JUMPDEST PUSH2 0xD6C DUP4 PUSH2 0x1A96 JUMP JUMPDEST PUSH1 0x40 MLOAD PUSH1 0x20 ADD PUSH2 0xD7C SWAP2 SWAP1 PUSH2 0x3315 JUMP JUMPDEST PUSH1 0x40 MLOAD PUSH1 0x20 DUP2 DUP4 SUB SUB DUP2 MSTORE SWAP1 PUSH1 0x40 MSTORE JUMPDEST PUSH1 0x40 MLOAD PUSH1 0x20 ADD PUSH2 0xD9D SWAP3 SWAP2 SWAP1 PUSH2 0x332A JUMP JUMPDEST PUSH1 0x40 MLOAD PUSH1 0x20 DUP2 DUP4 SUB SUB DUP2 MSTORE SWAP1 PUSH1 0x40 MSTORE SWAP1 POP PUSH2 0xDB6 PUSH2 0x1B25 JUMP JUMPDEST PUSH2 0xDC0 DUP7 DUP4 PUSH2 0x1B4A JUMP JUMPDEST PUSH1 0x40 MLOAD PUSH1 0x20 ADD PUSH2 0xDD1 SWAP3 SWAP2 SWAP1 PUSH2 0x3352 JUMP JUMPDEST PUSH1 0x40 MLOAD PUSH1 0x20 DUP2 DUP4 SUB SUB DUP2 MSTORE SWAP1 PUSH1 0x40 MSTORE SWAP6 POP POP POP POP POP POP SWAP2 SWAP1 POP JUMP JUMPDEST PUSH0 PUSH1 0x60 PUSH1 0xE SLOAD PUSH1 0xD SLOAD TIMESTAMP PUSH2 0xE00 SWAP2 SWAP1 PUSH2 0x3287 JUMP JUMPDEST GT DUP1 ISZERO PUSH2 0xE10 JUMPI POP PUSH1 0x8 SLOAD PUSH1 0xF SLOAD LT JUMPDEST SWAP2 POP PUSH1 0x40 MLOAD DUP1 PUSH1 0x20 ADD PUSH1 0x40 MSTORE DUP1 PUSH0 DUP2 MSTORE POP SWAP1 POP SWAP3 POP SWAP3 SWAP1 POP JUMP JUMPDEST PUSH0 PUSH1 0x1 PUSH1 0x1 PUSH1 0xA0 SHL SUB DUP3 AND PUSH2 0xE54 JUMPI PUSH1 0x40 MLOAD PUSH4 0x22718AD9 PUSH1 0xE2 SHL DUP2 MSTORE PUSH0 PUSH1 0x4 DUP3 ADD MSTORE PUSH1 0x24 ADD PUSH2 0x72D JUMP JUMPDEST POP PUSH1 0x1 PUSH1 0x1 PUSH1 0xA0 SHL SUB AND PUSH0 SWAP1 DUP2 MSTORE PUSH1 0x3 PUSH1 0x20 MSTORE PUSH1 0x40 SWAP1 KECCAK256 SLOAD SWAP1 JUMP JUMPDEST PUSH2 0xE77 PUSH2 0x13FE JUMP JUMPDEST PUSH2 0xE80 PUSH0 PUSH2 0x1C55 JUMP JUMPDEST JUMP JUMPDEST PUSH1 0x60 PUSH1 0x1 DUP1 SLOAD PUSH2 0x539 SWAP1 PUSH2 0x310F JUMP JUMPDEST PUSH2 0x4FD CALLER DUP4 DUP4 PUSH2 0x1CA6 JUMP JUMPDEST PUSH1 0x10 PUSH1 0x20 MSTORE PUSH0 SWAP1 DUP2 MSTORE PUSH1 0x40 SWAP1 KECCAK256 DUP1 SLOAD DUP2 SWAP1 PUSH2 0xEB6 SWAP1 PUSH2 0x310F JUMP JUMPDEST DUP1 PUSH1 0x1F ADD PUSH1 0x20 DUP1 SWAP2 DIV MUL PUSH1 0x20 ADD PUSH1 0x40 MLOAD SWAP1 DUP2 ADD PUSH1 0x40 MSTORE DUP1 SWAP3 SWAP2 SWAP1 DUP2 DUP2 MSTORE PUSH1 0x20 ADD DUP3 DUP1 SLOAD PUSH2 0xEE2 SWAP1 PUSH2 0x310F JUMP JUMPDEST DUP1 ISZERO PUSH2 0xF2D JUMPI DUP1 PUSH1 0x1F LT PUSH2 0xF04 JUMPI PUSH2 0x100 DUP1 DUP4 SLOAD DIV MUL DUP4 MSTORE SWAP2 PUSH1 0x20 ADD SWAP2 PUSH2 0xF2D JUMP JUMPDEST DUP3 ADD SWAP2 SWAP1 PUSH0 MSTORE PUSH1 0x20 PUSH0 KECCAK256 SWAP1 JUMPDEST DUP2 SLOAD DUP2 MSTORE SWAP1 PUSH1 0x1 ADD SWAP1 PUSH1 0x20 ADD DUP1 DUP4 GT PUSH2 0xF10 JUMPI DUP3 SWAP1 SUB PUSH1 0x1F AND DUP3 ADD SWAP2 JUMPDEST POP POP POP POP POP SWAP1 DUP1 PUSH1 0x1 ADD DUP1 SLOAD PUSH2 0xF42 SWAP1 PUSH2 0x310F JUMP JUMPDEST DUP1 PUSH1 0x1F ADD PUSH1 0x20 DUP1 SWAP2 DIV MUL PUSH1 0x20 ADD PUSH1 0x40 MLOAD SWAP1 DUP2 ADD PUSH1 0x40 MSTORE DUP1 SWAP3 SWAP2 SWAP1 DUP2 DUP2 MSTORE PUSH1 0x20 ADD DUP3 DUP1 SLOAD PUSH2 0xF6E SWAP1 PUSH2 0x310F JUMP JUMPDEST DUP1 ISZERO PUSH2 0xFB9 JUMPI DUP1 PUSH1 0x1F LT PUSH2 0xF90 JUMPI PUSH2 0x100 DUP1 DUP4 SLOAD DIV MUL DUP4 MSTORE SWAP2 PUSH1 0x20 ADD SWAP2 PUSH2 0xFB9 JUMP JUMPDEST DUP3 ADD SWAP2 SWAP1 PUSH0 MSTORE PUSH1 0x20 PUSH0 KECCAK256 SWAP1 JUMPDEST DUP2 SLOAD DUP2 MSTORE SWAP1 PUSH1 0x1 ADD SWAP1 PUSH1 0x20 ADD DUP1 DUP4 GT PUSH2 0xF9C JUMPI DUP3 SWAP1 SUB PUSH1 0x1F AND DUP3 ADD SWAP2 JUMPDEST POP POP POP PUSH1 0x2 SWAP1 SWAP4 ADD SLOAD SWAP2 SWAP3 POP POP PUSH1 0x1 PUSH1 0x1 PUSH1 0x40 SHL SUB DUP1 DUP3 AND SWAP2 PUSH1 0x1 PUSH1 0x40 SHL DUP2 DIV DUP3 AND SWAP2 PUSH1 0x1 PUSH1 0x80 SHL DUP3 DIV DUP2 AND SWAP2 PUSH1 0x1 PUSH1 0xC0 SHL SWAP1 DIV AND DUP7 JUMP JUMPDEST PUSH2 0xFFC DUP5 DUP5 DUP5 PUSH2 0x7C0 JUMP JUMPDEST PUSH2 0x843 CALLER DUP6 DUP6 DUP6 DUP6 PUSH2 0x1D6D JUMP JUMPDEST PUSH1 0x60 PUSH0 PUSH1 0x10 PUSH0 DUP5 DUP2 MSTORE PUSH1 0x20 ADD SWAP1 DUP2 MSTORE PUSH1 0x20 ADD PUSH0 KECCAK256 PUSH1 0x40 MLOAD DUP1 PUSH1 0xC0 ADD PUSH1 0x40 MSTORE SWAP1 DUP2 PUSH0 DUP3 ADD DUP1 SLOAD PUSH2 0x1037 SWAP1 PUSH2 0x310F JUMP JUMPDEST DUP1 PUSH1 0x1F ADD PUSH1 0x20 DUP1 SWAP2 DIV MUL PUSH1 0x20 ADD PUSH1 0x40 MLOAD SWAP1 DUP2 ADD PUSH1 0x40 MSTORE DUP1 SWAP3 SWAP2 SWAP1 DUP2 DUP2 MSTORE PUSH1 0x20 ADD DUP3 DUP1 SLOAD PUSH2 0x1063 SWAP1 PUSH2 0x310F JUMP JUMPDEST DUP1 ISZERO PUSH2 0x10AE JUMPI DUP1 PUSH1 0x1F LT PUSH2 0x1085 JUMPI PUSH2 0x100 DUP1 DUP4 SLOAD DIV MUL DUP4 MSTORE SWAP2 PUSH1 0x20 ADD SWAP2 PUSH2 0x10AE JUMP JUMPDEST DUP3 ADD SWAP2 SWAP1 PUSH0 MSTORE PUSH1 0x20 PUSH0 KECCAK256 SWAP1 JUMPDEST DUP2 SLOAD DUP2 MSTORE SWAP1 PUSH1 0x1 ADD SWAP1 PUSH1 0x20 ADD DUP1 DUP4 GT PUSH2 0x1091 JUMPI DUP3 SWAP1 SUB PUSH1 0x1F AND DUP3 ADD SWAP2 JUMPDEST POP POP POP POP POP DUP2 MSTORE PUSH1 0x20 ADD PUSH1 0x1 DUP3 ADD DUP1 SLOAD PUSH2 0x10C7 SWAP1 PUSH2 0x310F JUMP JUMPDEST DUP1 PUSH1 0x1F ADD PUSH1 0x20 DUP1 SWAP2 DIV MUL PUSH1 0x20 ADD PUSH1 0x40 MLOAD SWAP1 DUP2 ADD PUSH1 0x40 MSTORE DUP1 SWAP3 SWAP2 SWAP1 DUP2 DUP2 MSTORE PUSH1 0x20 ADD DUP3 DUP1 SLOAD PUSH2 0x10F3 SWAP1 PUSH2 0x310F JUMP JUMPDEST DUP1 ISZERO PUSH2 0x113E JUMPI DUP1 PUSH1 0x1F LT PUSH2 0x1115 JUMPI PUSH2 0x100 DUP1 DUP4 SLOAD DIV MUL DUP4 MSTORE SWAP2 PUSH1 0x20 ADD SWAP2 PUSH2 0x113E JUMP JUMPDEST DUP3 ADD SWAP2 SWAP1 PUSH0 MSTORE PUSH1 0x20 PUSH0 KECCAK256 SWAP1 JUMPDEST DUP2 SLOAD DUP2 MSTORE SWAP1 PUSH1 0x1 ADD SWAP1 PUSH1 0x20 ADD DUP1 DUP4 GT PUSH2 0x1121 JUMPI DUP3 SWAP1 SUB PUSH1 0x1F AND DUP3 ADD SWAP2 JUMPDEST POP POP POP SWAP2 DUP4 MSTORE POP POP PUSH1 0x2 SWAP2 SWAP1 SWAP2 ADD SLOAD PUSH1 0x1 PUSH1 0x1 PUSH1 0x40 SHL SUB DUP1 DUP3 AND PUSH1 0x20 DUP5 ADD MSTORE PUSH1 0x1 PUSH1 0x40 SHL DUP3 DIV DUP2 AND PUSH1 0x40 DUP5 ADD MSTORE PUSH1 0x1 PUSH1 0x80 SHL DUP3 DIV DUP2 AND PUSH1 0x60 DUP5 ADD MSTORE PUSH1 0x1 PUSH1 0xC0 SHL SWAP1 SWAP2 DIV AND PUSH1 0x80 SWAP1 SWAP2 ADD MSTORE SWAP1 POP PUSH0 PUSH2 0x119C PUSH2 0x1197 DUP6 PUSH2 0xB45 JUMP JUMPDEST PUSH2 0x1E95 JUMP JUMPDEST SWAP1 POP PUSH0 DUP3 PUSH0 ADD MLOAD DUP4 PUSH1 0x20 ADD MLOAD PUSH2 0x11BE DUP6 PUSH1 0x40 ADD MLOAD PUSH1 0x1 PUSH1 0x1 PUSH1 0x40 SHL SUB AND PUSH2 0x1A96 JUMP JUMPDEST PUSH1 0x40 MLOAD PUSH1 0x20 ADD PUSH2 0x11D0 SWAP4 SWAP3 SWAP2 SWAP1 PUSH2 0x33EF JUMP JUMPDEST PUSH1 0x40 MLOAD PUSH1 0x20 DUP2 DUP4 SUB SUB DUP2 MSTORE SWAP1 PUSH1 0x40 MSTORE SWAP1 POP PUSH0 PUSH2 0x11F8 DUP5 PUSH1 0x60 ADD MLOAD PUSH1 0x1 PUSH1 0x1 PUSH1 0x40 SHL SUB AND PUSH2 0x1A96 JUMP JUMPDEST PUSH2 0x120E DUP6 PUSH1 0x80 ADD MLOAD PUSH1 0x1 PUSH1 0x1 PUSH1 0x40 SHL SUB AND PUSH2 0x1A96 JUMP JUMPDEST PUSH2 0x1224 DUP7 PUSH1 0xA0 ADD MLOAD PUSH1 0x1 PUSH1 0x1 PUSH1 0x40 SHL SUB AND PUSH2 0x1A96 JUMP JUMPDEST PUSH1 0x40 MLOAD PUSH1 0x20 ADD PUSH2 0x1236 SWAP4 SWAP3 SWAP2 SWAP1 PUSH2 0x34D8 JUMP JUMPDEST PUSH1 0x40 MLOAD PUSH1 0x20 DUP2 DUP4 SUB SUB DUP2 MSTORE SWAP1 PUSH1 0x40 MSTORE SWAP1 POP PUSH0 PUSH2 0x127E PUSH2 0x1254 DUP9 PUSH2 0x1A96 JUMP JUMPDEST DUP5 DUP5 DUP8 PUSH1 0x40 MLOAD PUSH1 0x20 ADD PUSH2 0x126A SWAP5 SWAP4 SWAP3 SWAP2 SWAP1 PUSH2 0x35B9 JUMP JUMPDEST PUSH1 0x40 MLOAD PUSH1 0x20 DUP2 DUP4 SUB SUB DUP2 MSTORE SWAP1 PUSH1 0x40 MSTORE PUSH2 0x1E95 JUMP JUMPDEST SWAP1 POP DUP1 PUSH1 0x40 MLOAD PUSH1 0x20 ADD PUSH2 0xDD1 SWAP2 SWAP1 PUSH2 0x374A JUMP JUMPDEST PUSH1 0x1 PUSH1 0x1 PUSH1 0xA0 SHL SUB SWAP2 DUP3 AND PUSH0 SWAP1 DUP2 MSTORE PUSH1 0x5 PUSH1 0x20 SWAP1 DUP2 MSTORE PUSH1 0x40 DUP1 DUP4 KECCAK256 SWAP4 SWAP1 SWAP5 AND DUP3 MSTORE SWAP2 SWAP1 SWAP2 MSTORE KECCAK256 SLOAD PUSH1 0xFF AND SWAP1 JUMP JUMPDEST PUSH2 0x12C6 PUSH2 0x13FE JUMP JUMPDEST PUSH1 0x8 SLOAD PUSH1 0x40 DUP1 MLOAD PUSH1 0xC0 DUP2 ADD DUP3 MSTORE DUP5 DUP2 MSTORE PUSH1 0x20 DUP1 DUP3 ADD DUP6 SWAP1 MSTORE PUSH0 DUP3 DUP5 ADD DUP2 SWAP1 MSTORE PUSH1 0x60 DUP4 ADD DUP2 SWAP1 MSTORE PUSH1 0x80 DUP4 ADD DUP2 SWAP1 MSTORE PUSH1 0xA0 DUP4 ADD DUP2 SWAP1 MSTORE DUP5 DUP2 MSTORE PUSH1 0x10 SWAP1 SWAP2 MSTORE SWAP2 SWAP1 SWAP2 KECCAK256 DUP2 MLOAD DUP2 SWAP1 PUSH2 0x1314 SWAP1 DUP3 PUSH2 0x318B JUMP JUMPDEST POP PUSH1 0x20 DUP3 ADD MLOAD PUSH1 0x1 DUP3 ADD SWAP1 PUSH2 0x1329 SWAP1 DUP3 PUSH2 0x318B JUMP JUMPDEST POP PUSH1 0x40 DUP3 ADD MLOAD PUSH1 0x2 SWAP1 SWAP2 ADD DUP1 SLOAD PUSH1 0x60 DUP5 ADD MLOAD PUSH1 0x80 DUP6 ADD MLOAD PUSH1 0xA0 SWAP1 SWAP6 ADD MLOAD PUSH1 0x1 PUSH1 0x1 PUSH1 0x40 SHL SUB SWAP1 DUP2 AND PUSH1 0x1 PUSH1 0xC0 SHL MUL PUSH1 0x1 PUSH1 0x1 PUSH1 0xC0 SHL SUB SWAP7 DUP3 AND PUSH1 0x1 PUSH1 0x80 SHL MUL SWAP7 SWAP1 SWAP7 AND PUSH1 0x1 PUSH1 0x1 PUSH1 0x80 SHL SUB SWAP3 DUP3 AND PUSH1 0x1 PUSH1 0x40 SHL MUL PUSH1 0x1 PUSH1 0x1 PUSH1 0x80 SHL SUB NOT SWAP1 SWAP5 AND SWAP2 SWAP1 SWAP6 AND OR SWAP2 SWAP1 SWAP2 OR AND SWAP2 SWAP1 SWAP2 OR SWAP2 SWAP1 SWAP2 OR SWAP1 SSTORE PUSH2 0x13A7 DUP5 DUP3 PUSH2 0x1EA1 JUMP JUMPDEST PUSH1 0x8 DUP1 SLOAD SWAP1 PUSH0 PUSH2 0x13B6 DUP4 PUSH2 0x377B JUMP JUMPDEST SWAP2 SWAP1 POP SSTORE POP POP POP POP POP JUMP JUMPDEST PUSH2 0x13C9 PUSH2 0x13FE JUMP JUMPDEST PUSH1 0x1 PUSH1 0x1 PUSH1 0xA0 SHL SUB DUP2 AND PUSH2 0x13F2 JUMPI PUSH1 0x40 MLOAD PUSH4 0x1E4FBDF7 PUSH1 0xE0 SHL DUP2 MSTORE PUSH0 PUSH1 0x4 DUP3 ADD MSTORE PUSH1 0x24 ADD PUSH2 0x72D JUMP JUMPDEST PUSH2 0x13FB DUP2 PUSH2 0x1C55 JUMP JUMPDEST POP JUMP JUMPDEST PUSH1 0x7 SLOAD PUSH1 0x1 PUSH1 0x1 PUSH1 0xA0 SHL SUB AND CALLER EQ PUSH2 0xE80 JUMPI PUSH1 0x40 MLOAD PUSH4 0x118CDAA7 PUSH1 0xE0 SHL DUP2 MSTORE CALLER PUSH1 0x4 DUP3 ADD MSTORE PUSH1 0x24 ADD PUSH2 0x72D JUMP JUMPDEST PUSH0 PUSH1 0x1 PUSH1 0x1 PUSH1 0xE0 SHL SUB NOT DUP3 AND PUSH4 0x80AC58CD PUSH1 0xE0 SHL EQ DUP1 PUSH2 0x145B JUMPI POP PUSH1 0x1 PUSH1 0x1 PUSH1 0xE0 SHL SUB NOT DUP3 AND PUSH4 0x5B5E139F PUSH1 0xE0 SHL EQ JUMPDEST DUP1 PUSH2 0x525 JUMPI POP PUSH4 0x1FFC9A7 PUSH1 0xE0 SHL PUSH1 0x1 PUSH1 0x1 PUSH1 0xE0 SHL SUB NOT DUP4 AND EQ PUSH2 0x525 JUMP JUMPDEST PUSH0 DUP2 DUP2 MSTORE PUSH1 0x2 PUSH1 0x20 MSTORE PUSH1 0x40 DUP2 KECCAK256 SLOAD PUSH1 0x1 PUSH1 0x1 PUSH1 0xA0 SHL SUB AND DUP1 PUSH2 0x525 JUMPI PUSH1 0x40 MLOAD PUSH4 0x7E273289 PUSH1 0xE0 SHL DUP2 MSTORE PUSH1 0x4 DUP2 ADD DUP5 SWAP1 MSTORE PUSH1 0x24 ADD PUSH2 0x72D JUMP JUMPDEST PUSH2 0x92B DUP4 DUP4 DUP4 PUSH1 0x1 PUSH2 0x1EBA JUMP JUMPDEST PUSH0 DUP4 DUP2 MSTORE PUSH1 0x12 PUSH1 0x20 MSTORE PUSH1 0x40 SWAP1 KECCAK256 SLOAD PUSH1 0xFF AND PUSH2 0x14F0 JUMPI PUSH1 0x40 MLOAD PUSH4 0xF6A8D1C9 PUSH1 0xE0 SHL DUP2 MSTORE PUSH1 0x4 DUP2 ADD DUP5 SWAP1 MSTORE PUSH1 0x24 ADD PUSH2 0x72D JUMP JUMPDEST DUP1 MLOAD ISZERO PUSH2 0x1512 JUMPI DUP1 PUSH1 0x40 MLOAD PUSH4 0x1DE77FF9 PUSH1 0xE1 SHL DUP2 MSTORE PUSH1 0x4 ADD PUSH2 0x72D SWAP2 SWAP1 PUSH2 0x2D54 JUMP JUMPDEST PUSH0 DUP4 DUP2 MSTORE PUSH1 0x11 PUSH1 0x20 SWAP1 DUP2 MSTORE PUSH1 0x40 DUP3 KECCAK256 SLOAD DUP5 MLOAD SWAP1 SWAP3 SWAP2 PUSH2 0x1537 SWAP2 DUP7 ADD DUP2 ADD SWAP1 DUP7 ADD PUSH2 0x3793 JUMP JUMPDEST PUSH0 DUP4 DUP2 MSTORE PUSH1 0x10 PUSH1 0x20 DUP2 DUP2 MSTORE PUSH1 0x40 DUP1 DUP5 KECCAK256 PUSH1 0x2 DUP2 ADD DUP1 SLOAD PUSH1 0xC0 DUP9 DUP2 SHR PUSH1 0x1 PUSH1 0x1 PUSH1 0x80 SHL SUB SWAP1 SWAP3 AND PUSH1 0x1 PUSH1 0xC0 SHL PUSH1 0x1 PUSH1 0x1 PUSH1 0x40 SHL SUB DUP1 DUP13 AND SWAP2 SWAP1 SWAP2 MUL PUSH8 0xFFFFFFFFFFFFFFFF PUSH1 0x80 SHL NOT AND SWAP2 SWAP1 SWAP2 OR PUSH1 0x1 PUSH1 0x80 SHL DUP12 DUP9 SHR DUP4 AND MUL OR PUSH1 0x1 PUSH1 0x1 PUSH1 0x80 SHL SUB NOT AND PUSH1 0x1 PUSH1 0x40 SHL PUSH1 0x80 DUP13 SWAP1 SHR SWAP3 SWAP1 SWAP3 AND SWAP2 SWAP1 SWAP2 MUL PUSH8 0xFFFFFFFFFFFFFFFF NOT AND OR SWAP2 SWAP1 SWAP2 OR SWAP1 SWAP2 SSTORE DUP12 DUP7 MSTORE PUSH1 0x12 DUP5 MSTORE DUP3 DUP7 KECCAK256 DUP1 SLOAD PUSH1 0xFF NOT AND SWAP1 SSTORE PUSH1 0x11 DUP5 MSTORE DUP3 DUP7 KECCAK256 DUP7 SWAP1 SSTORE DUP9 DUP7 MSTORE SWAP4 SWAP1 SWAP3 MSTORE DUP1 MLOAD SWAP3 DUP4 ADD SWAP1 MSTORE DUP1 SLOAD SWAP4 SWAP5 POP SWAP2 SWAP3 SWAP1 SWAP2 SWAP1 DUP3 SWAP1 DUP3 SWAP1 PUSH2 0x15FF SWAP1 PUSH2 0x310F JUMP JUMPDEST DUP1 PUSH1 0x1F ADD PUSH1 0x20 DUP1 SWAP2 DIV MUL PUSH1 0x20 ADD PUSH1 0x40 MLOAD SWAP1 DUP2 ADD PUSH1 0x40 MSTORE DUP1 SWAP3 SWAP2 SWAP1 DUP2 DUP2 MSTORE PUSH1 0x20 ADD DUP3 DUP1 SLOAD PUSH2 0x162B SWAP1 PUSH2 0x310F JUMP JUMPDEST DUP1 ISZERO PUSH2 0x1676 JUMPI DUP1 PUSH1 0x1F LT PUSH2 0x164D JUMPI PUSH2 0x100 DUP1 DUP4 SLOAD DIV MUL DUP4 MSTORE SWAP2 PUSH1 0x20 ADD SWAP2 PUSH2 0x1676 JUMP JUMPDEST DUP3 ADD SWAP2 SWAP1 PUSH0 MSTORE PUSH1 0x20 PUSH0 KECCAK256 SWAP1 JUMPDEST DUP2 SLOAD DUP2 MSTORE SWAP1 PUSH1 0x1 ADD SWAP1 PUSH1 0x20 ADD DUP1 DUP4 GT PUSH2 0x1659 JUMPI DUP3 SWAP1 SUB PUSH1 0x1F AND DUP3 ADD SWAP2 JUMPDEST POP POP POP POP POP DUP2 MSTORE PUSH1 0x20 ADD PUSH1 0x1 DUP3 ADD DUP1 SLOAD PUSH2 0x168F SWAP1 PUSH2 0x310F JUMP JUMPDEST DUP1 PUSH1 0x1F ADD PUSH1 0x20 DUP1 SWAP2 DIV MUL PUSH1 0x20 ADD PUSH1 0x40 MLOAD SWAP1 DUP2 ADD PUSH1 0x40 MSTORE DUP1 SWAP3 SWAP2 SWAP1 DUP2 DUP2 MSTORE PUSH1 0x20 ADD DUP3 DUP1 SLOAD PUSH2 0x16BB SWAP1 PUSH2 0x310F JUMP JUMPDEST DUP1 ISZERO PUSH2 0x1706 JUMPI DUP1 PUSH1 0x1F LT PUSH2 0x16DD JUMPI PUSH2 0x100 DUP1 DUP4 SLOAD DIV MUL DUP4 MSTORE SWAP2 PUSH1 0x20 ADD SWAP2 PUSH2 0x1706 JUMP JUMPDEST DUP3 ADD SWAP2 SWAP1 PUSH0 MSTORE PUSH1 0x20 PUSH0 KECCAK256 SWAP1 JUMPDEST DUP2 SLOAD DUP2 MSTORE SWAP1 PUSH1 0x1 ADD SWAP1 PUSH1 0x20 ADD DUP1 DUP4 GT PUSH2 0x16E9 JUMPI DUP3 SWAP1 SUB PUSH1 0x1F AND DUP3 ADD SWAP2 JUMPDEST POP POP POP SWAP2 DUP4 MSTORE POP POP PUSH1 0x2 SWAP2 SWAP1 SWAP2 ADD SLOAD PUSH1 0x1 PUSH1 0x1 PUSH1 0x40 SHL SUB DUP1 DUP3 AND PUSH1 0x20 DUP5 ADD MSTORE PUSH1 0x1 PUSH1 0x40 SHL DUP3 DIV DUP2 AND PUSH1 0x40 DUP1 DUP6 ADD SWAP2 SWAP1 SWAP2 MSTORE PUSH1 0x1 PUSH1 0x80 SHL DUP4 DIV DUP3 AND PUSH1 0x60 DUP1 DUP7 ADD SWAP2 SWAP1 SWAP2 MSTORE PUSH1 0x1 PUSH1 0xC0 SHL SWAP1 SWAP4 DIV SWAP1 SWAP2 AND PUSH1 0x80 SWAP4 DUP5 ADD MSTORE DUP4 DUP2 ADD MLOAD SWAP2 DUP5 ADD MLOAD SWAP3 DUP5 ADD MLOAD PUSH1 0xA0 DUP6 ADD MLOAD SWAP2 MLOAD SWAP5 SWAP6 POP DUP8 SWAP5 PUSH32 0x9F86CFE46669ECF4CA86F93EF7FFC30082E4A755D2EE82226E1D556FD63407EE SWAP5 PUSH2 0x17D1 SWAP5 SWAP4 SWAP1 SWAP3 SWAP2 TIMESTAMP SWAP1 PUSH1 0x1 PUSH1 0x1 PUSH1 0x40 SHL SUB SWAP6 DUP7 AND DUP2 MSTORE SWAP4 DUP6 AND PUSH1 0x20 DUP6 ADD MSTORE SWAP2 DUP5 AND PUSH1 0x40 DUP5 ADD MSTORE SWAP1 SWAP3 AND PUSH1 0x60 DUP3 ADD MSTORE PUSH1 0x80 DUP2 ADD SWAP2 SWAP1 SWAP2 MSTORE PUSH1 0xA0 ADD SWAP1 JUMP JUMPDEST PUSH1 0x40 MLOAD DUP1 SWAP2 SUB SWAP1 LOG2 POP POP POP POP POP POP JUMP JUMPDEST PUSH0 DUP3 DUP2 MSTORE PUSH1 0x2 PUSH1 0x20 MSTORE PUSH1 0x40 DUP2 KECCAK256 SLOAD PUSH1 0x1 PUSH1 0x1 PUSH1 0xA0 SHL SUB SWAP1 DUP2 AND SWAP1 DUP4 AND ISZERO PUSH2 0x180D JUMPI PUSH2 0x180D DUP2 DUP5 DUP7 PUSH2 0x1FBE JUMP JUMPDEST PUSH1 0x1 PUSH1 0x1 PUSH1 0xA0 SHL SUB DUP2 AND ISZERO PUSH2 0x1847 JUMPI PUSH2 0x1828 PUSH0 DUP6 PUSH0 PUSH0 PUSH2 0x1EBA JUMP JUMPDEST PUSH1 0x1 PUSH1 0x1 PUSH1 0xA0 SHL SUB DUP2 AND PUSH0 SWAP1 DUP2 MSTORE PUSH1 0x3 PUSH1 0x20 MSTORE PUSH1 0x40 SWAP1 KECCAK256 DUP1 SLOAD PUSH0 NOT ADD SWAP1 SSTORE JUMPDEST PUSH1 0x1 PUSH1 0x1 PUSH1 0xA0 SHL SUB DUP6 AND ISZERO PUSH2 0x1875 JUMPI PUSH1 0x1 PUSH1 0x1 PUSH1 0xA0 SHL SUB DUP6 AND PUSH0 SWAP1 DUP2 MSTORE PUSH1 0x3 PUSH1 0x20 MSTORE PUSH1 0x40 SWAP1 KECCAK256 DUP1 SLOAD PUSH1 0x1 ADD SWAP1 SSTORE JUMPDEST PUSH0 DUP5 DUP2 MSTORE PUSH1 0x2 PUSH1 0x20 MSTORE PUSH1 0x40 DUP1 DUP3 KECCAK256 DUP1 SLOAD PUSH1 0x1 PUSH1 0x1 PUSH1 0xA0 SHL SUB NOT AND PUSH1 0x1 PUSH1 0x1 PUSH1 0xA0 SHL SUB DUP10 DUP2 AND SWAP2 DUP3 OR SWAP1 SWAP3 SSTORE SWAP2 MLOAD DUP8 SWAP4 SWAP2 DUP6 AND SWAP2 PUSH32 0xDDF252AD1BE2C89B69C2B068FC378DAA952BA7F163C4A11628F55A4DF523B3EF SWAP2 LOG4 SWAP5 SWAP4 POP POP POP POP JUMP JUMPDEST PUSH0 PUSH2 0x1912 PUSH1 0x40 DUP1 MLOAD PUSH1 0xE0 DUP2 ADD SWAP1 SWAP2 MSTORE DUP1 PUSH0 DUP2 MSTORE PUSH1 0x20 ADD PUSH0 DUP2 MSTORE PUSH1 0x20 ADD PUSH0 DUP2 MSTORE PUSH1 0x20 ADD PUSH1 0x60 DUP2 MSTORE PUSH1 0x20 ADD PUSH1 0x60 DUP2 MSTORE PUSH1 0x20 ADD PUSH1 0x60 DUP2 MSTORE PUSH1 0x20 ADD PUSH1 0x60 DUP2 MSTORE POP SWAP1 JUMP JUMPDEST PUSH2 0x19AD PUSH1 0xC DUP1 SLOAD PUSH2 0x1922 SWAP1 PUSH2 0x310F JUMP JUMPDEST DUP1 PUSH1 0x1F ADD PUSH1 0x20 DUP1 SWAP2 DIV MUL PUSH1 0x20 ADD PUSH1 0x40 MLOAD SWAP1 DUP2 ADD PUSH1 0x40 MSTORE DUP1 SWAP3 SWAP2 SWAP1 DUP2 DUP2 MSTORE PUSH1 0x20 ADD DUP3 DUP1 SLOAD PUSH2 0x194E SWAP1 PUSH2 0x310F JUMP JUMPDEST DUP1 ISZERO PUSH2 0x1999 JUMPI DUP1 PUSH1 0x1F LT PUSH2 0x1970 JUMPI PUSH2 0x100 DUP1 DUP4 SLOAD DIV MUL DUP4 MSTORE SWAP2 PUSH1 0x20 ADD SWAP2 PUSH2 0x1999 JUMP JUMPDEST DUP3 ADD SWAP2 SWAP1 PUSH0 MSTORE PUSH1 0x20 PUSH0 KECCAK256 SWAP1 JUMPDEST DUP2 SLOAD DUP2 MSTORE SWAP1 PUSH1 0x1 ADD SWAP1 PUSH1 0x20 ADD DUP1 DUP4 GT PUSH2 0x197C JUMPI DUP3 SWAP1 SUB PUSH1 0x1F AND DUP3 ADD SWAP2 JUMPDEST POP POP POP POP POP DUP3 PUSH2 0x2022 SWAP1 SWAP2 SWAP1 PUSH4 0xFFFFFFFF AND JUMP JUMPDEST PUSH1 0x40 DUP1 MLOAD PUSH1 0x1 DUP1 DUP3 MSTORE DUP2 DUP4 ADD SWAP1 SWAP3 MSTORE PUSH0 SWAP2 DUP2 PUSH1 0x20 ADD JUMPDEST PUSH1 0x60 DUP2 MSTORE PUSH1 0x20 ADD SWAP1 PUSH1 0x1 SWAP1 SUB SWAP1 DUP2 PUSH2 0x19C3 JUMPI SWAP1 POP POP SWAP1 POP DUP4 DUP2 PUSH0 DUP2 MLOAD DUP2 LT PUSH2 0x19ED JUMPI PUSH2 0x19ED PUSH2 0x37AA JUMP JUMPDEST PUSH1 0x20 SWAP1 DUP2 MUL SWAP2 SWAP1 SWAP2 ADD ADD MSTORE PUSH2 0x1A02 DUP3 DUP3 PUSH2 0x202E JUMP JUMPDEST PUSH2 0x1A2A PUSH2 0x1A0E DUP4 PUSH2 0x2057 JUMP JUMPDEST PUSH1 0xB SLOAD PUSH1 0xA SLOAD PUSH1 0x1 PUSH1 0x1 PUSH1 0x40 SHL SUB SWAP1 SWAP2 AND SWAP1 PUSH3 0x493E0 SWAP1 PUSH2 0x231B JUMP JUMPDEST PUSH0 DUP2 DUP2 MSTORE PUSH1 0x11 PUSH1 0x20 SWAP1 DUP2 MSTORE PUSH1 0x40 DUP1 DUP4 KECCAK256 DUP10 SWAP1 SSTORE PUSH1 0x12 SWAP1 SWAP2 MSTORE SWAP1 DUP2 SWAP1 KECCAK256 DUP1 SLOAD PUSH1 0xFF NOT AND PUSH1 0x1 OR SWAP1 SSTORE MLOAD SWAP1 SWAP4 POP DUP4 SWAP1 DUP7 SWAP1 PUSH32 0x36C447AD99DF7457C4F3D38DAD77DA717D67A685E3ED93297FEFC4601D9BEB25 SWAP1 PUSH2 0x1A86 SWAP1 DUP9 SWAP1 PUSH2 0x2D54 JUMP JUMPDEST PUSH1 0x40 MLOAD DUP1 SWAP2 SUB SWAP1 LOG3 POP POP SWAP3 SWAP2 POP POP JUMP JUMPDEST PUSH1 0x60 PUSH0 PUSH2 0x1AA2 DUP4 PUSH2 0x23E8 JUMP JUMPDEST PUSH1 0x1 ADD SWAP1 POP PUSH0 DUP2 PUSH1 0x1 PUSH1 0x1 PUSH1 0x40 SHL SUB DUP2 GT ISZERO PUSH2 0x1AC0 JUMPI PUSH2 0x1AC0 PUSH2 0x2C22 JUMP JUMPDEST PUSH1 0x40 MLOAD SWAP1 DUP1 DUP3 MSTORE DUP1 PUSH1 0x1F ADD PUSH1 0x1F NOT AND PUSH1 0x20 ADD DUP3 ADD PUSH1 0x40 MSTORE DUP1 ISZERO PUSH2 0x1AEA JUMPI PUSH1 0x20 DUP3 ADD DUP2 DUP1 CALLDATASIZE DUP4 CALLDATACOPY ADD SWAP1 POP JUMPDEST POP SWAP1 POP DUP2 DUP2 ADD PUSH1 0x20 ADD JUMPDEST PUSH0 NOT ADD PUSH16 0x181899199A1A9B1B9C1CB0B131B232B3 PUSH1 0x81 SHL PUSH1 0xA DUP7 MOD BYTE DUP2 MSTORE8 PUSH1 0xA DUP6 DIV SWAP5 POP DUP5 PUSH2 0x1AF4 JUMPI POP SWAP4 SWAP3 POP POP POP JUMP JUMPDEST PUSH1 0x60 PUSH1 0x40 MLOAD PUSH1 0x20 ADD PUSH2 0x1B36 SWAP1 PUSH2 0x37BE JUMP JUMPDEST PUSH1 0x40 MLOAD PUSH1 0x20 DUP2 DUP4 SUB SUB DUP2 MSTORE SWAP1 PUSH1 0x40 MSTORE SWAP1 POP SWAP1 JUMP JUMPDEST PUSH1 0x60 PUSH0 PUSH1 0x40 MLOAD DUP1 PUSH1 0x40 ADD PUSH1 0x40 MSTORE DUP1 PUSH1 0x7 DUP2 MSTORE PUSH1 0x20 ADD PUSH7 0x11999A1C9C3231 PUSH1 0xC9 SHL DUP2 MSTORE POP SWAP1 POP PUSH0 DUP2 DUP6 PUSH0 ADD MLOAD DUP4 DUP8 PUSH1 0x20 ADD MLOAD DUP6 PUSH2 0x1B92 DUP11 PUSH1 0x40 ADD MLOAD PUSH1 0x1 PUSH1 0x1 PUSH1 0x40 SHL SUB AND PUSH2 0x1A96 JUMP JUMPDEST PUSH1 0x40 MLOAD PUSH1 0x20 ADD PUSH2 0x1BA7 SWAP7 SWAP6 SWAP5 SWAP4 SWAP3 SWAP2 SWAP1 PUSH2 0x3A92 JUMP JUMPDEST PUSH1 0x40 MLOAD PUSH1 0x20 DUP2 DUP4 SUB SUB DUP2 MSTORE SWAP1 PUSH1 0x40 MSTORE SWAP1 POP PUSH0 DUP3 PUSH2 0x1BD0 DUP8 PUSH1 0x60 ADD MLOAD PUSH1 0x1 PUSH1 0x1 PUSH1 0x40 SHL SUB AND PUSH2 0x1A96 JUMP JUMPDEST DUP5 PUSH2 0x1BE7 DUP10 PUSH1 0x80 ADD MLOAD PUSH1 0x1 PUSH1 0x1 PUSH1 0x40 SHL SUB AND PUSH2 0x1A96 JUMP JUMPDEST DUP7 PUSH2 0x1BFE DUP12 PUSH1 0xA0 ADD MLOAD PUSH1 0x1 PUSH1 0x1 PUSH1 0x40 SHL SUB AND PUSH2 0x1A96 JUMP JUMPDEST DUP9 DUP12 PUSH1 0x40 MLOAD PUSH1 0x20 ADD PUSH2 0x1C17 SWAP9 SWAP8 SWAP7 SWAP6 SWAP5 SWAP4 SWAP3 SWAP2 SWAP1 PUSH2 0x3E09 JUMP JUMPDEST PUSH1 0x40 MLOAD PUSH1 0x20 DUP2 DUP4 SUB SUB DUP2 MSTORE SWAP1 PUSH1 0x40 MSTORE SWAP1 POP DUP2 DUP2 PUSH1 0x40 MLOAD PUSH1 0x20 ADD PUSH2 0x1C3B SWAP3 SWAP2 SWAP1 PUSH2 0x41F3 JUMP JUMPDEST PUSH1 0x40 MLOAD PUSH1 0x20 DUP2 DUP4 SUB SUB DUP2 MSTORE SWAP1 PUSH1 0x40 MSTORE SWAP4 POP POP POP POP SWAP3 SWAP2 POP POP JUMP JUMPDEST PUSH1 0x7 DUP1 SLOAD PUSH1 0x1 PUSH1 0x1 PUSH1 0xA0 SHL SUB DUP4 DUP2 AND PUSH1 0x1 PUSH1 0x1 PUSH1 0xA0 SHL SUB NOT DUP4 AND DUP2 OR SWAP1 SWAP4 SSTORE PUSH1 0x40 MLOAD SWAP2 AND SWAP2 SWAP1 DUP3 SWAP1 PUSH32 0x8BE0079C531659141344CD1FD0A4F28419497F9722A3DAAFE3B4186F6B6457E0 SWAP1 PUSH0 SWAP1 LOG3 POP POP JUMP JUMPDEST PUSH1 0x1 PUSH1 0x1 PUSH1 0xA0 SHL SUB DUP4 AND PUSH2 0x1CCF JUMPI PUSH1 0x40 MLOAD PUSH4 0xA9FBF51F PUSH1 0xE0 SHL DUP2 MSTORE PUSH0 PUSH1 0x4 DUP3 ADD MSTORE PUSH1 0x24 ADD PUSH2 0x72D JUMP JUMPDEST PUSH1 0x1 PUSH1 0x1 PUSH1 0xA0 SHL SUB DUP3 AND PUSH2 0x1D01 JUMPI PUSH1 0x40 MLOAD PUSH4 0xB611743 PUSH1 0xE3 SHL DUP2 MSTORE PUSH1 0x1 PUSH1 0x1 PUSH1 0xA0 SHL SUB DUP4 AND PUSH1 0x4 DUP3 ADD MSTORE PUSH1 0x24 ADD PUSH2 0x72D JUMP JUMPDEST PUSH1 0x1 PUSH1 0x1 PUSH1 0xA0 SHL SUB DUP4 DUP2 AND PUSH0 DUP2 DUP2 MSTORE PUSH1 0x5 PUSH1 0x20 SWAP1 DUP2 MSTORE PUSH1 0x40 DUP1 DUP4 KECCAK256 SWAP5 DUP8 AND DUP1 DUP5 MSTORE SWAP5 DUP3 MSTORE SWAP2 DUP3 SWAP1 KECCAK256 DUP1 SLOAD PUSH1 0xFF NOT AND DUP7 ISZERO ISZERO SWAP1 DUP2 OR SWAP1 SWAP2 SSTORE SWAP2 MLOAD SWAP2 DUP3 MSTORE PUSH32 0x17307EAB39AB6107E8899845AD3D59BD9653F200F220920489CA2B5937696C31 SWAP2 ADD PUSH1 0x40 MLOAD DUP1 SWAP2 SUB SWAP1 LOG3 POP POP POP JUMP JUMPDEST PUSH1 0x1 PUSH1 0x1 PUSH1 0xA0 SHL SUB DUP4 AND EXTCODESIZE ISZERO PUSH2 0x1E8E JUMPI PUSH1 0x40 MLOAD PUSH4 0xA85BD01 PUSH1 0xE1 SHL DUP2 MSTORE PUSH1 0x1 PUSH1 0x1 PUSH1 0xA0 SHL SUB DUP5 AND SWAP1 PUSH4 0x150B7A02 SWAP1 PUSH2 0x1DAF SWAP1 DUP9 SWAP1 DUP9 SWAP1 DUP8 SWAP1 DUP8 SWAP1 PUSH1 0x4 ADD PUSH2 0x4201 JUMP JUMPDEST PUSH1 0x20 PUSH1 0x40 MLOAD DUP1 DUP4 SUB DUP2 PUSH0 DUP8 GAS CALL SWAP3 POP POP POP DUP1 ISZERO PUSH2 0x1DE9 JUMPI POP PUSH1 0x40 DUP1 MLOAD PUSH1 0x1F RETURNDATASIZE SWAP1 DUP2 ADD PUSH1 0x1F NOT AND DUP3 ADD SWAP1 SWAP3 MSTORE PUSH2 0x1DE6 SWAP2 DUP2 ADD SWAP1 PUSH2 0x423D JUMP JUMPDEST PUSH1 0x1 JUMPDEST PUSH2 0x1E50 JUMPI RETURNDATASIZE DUP1 DUP1 ISZERO PUSH2 0x1E16 JUMPI PUSH1 0x40 MLOAD SWAP2 POP PUSH1 0x1F NOT PUSH1 0x3F RETURNDATASIZE ADD AND DUP3 ADD PUSH1 0x40 MSTORE RETURNDATASIZE DUP3 MSTORE RETURNDATASIZE PUSH0 PUSH1 0x20 DUP5 ADD RETURNDATACOPY PUSH2 0x1E1B JUMP JUMPDEST PUSH1 0x60 SWAP2 POP JUMPDEST POP DUP1 MLOAD PUSH0 SUB PUSH2 0x1E48 JUMPI PUSH1 0x40 MLOAD PUSH4 0x32505749 PUSH1 0xE1 SHL DUP2 MSTORE PUSH1 0x1 PUSH1 0x1 PUSH1 0xA0 SHL SUB DUP6 AND PUSH1 0x4 DUP3 ADD MSTORE PUSH1 0x24 ADD PUSH2 0x72D JUMP JUMPDEST DUP1 MLOAD PUSH1 0x20 DUP3 ADD REVERT JUMPDEST PUSH1 0x1 PUSH1 0x1 PUSH1 0xE0 SHL SUB NOT DUP2 AND PUSH4 0xA85BD01 PUSH1 0xE1 SHL EQ PUSH2 0x1E8C JUMPI PUSH1 0x40 MLOAD PUSH4 0x32505749 PUSH1 0xE1 SHL DUP2 MSTORE PUSH1 0x1 PUSH1 0x1 PUSH1 0xA0 SHL SUB DUP6 AND PUSH1 0x4 DUP3 ADD MSTORE PUSH1 0x24 ADD PUSH2 0x72D JUMP JUMPDEST POP JUMPDEST POP POP POP POP POP JUMP JUMPDEST PUSH1 0x60 PUSH2 0x525 DUP3 PUSH0 PUSH2 0x24BF JUMP JUMPDEST PUSH2 0x4FD DUP3 DUP3 PUSH1 0x40 MLOAD DUP1 PUSH1 0x20 ADD PUSH1 0x40 MSTORE DUP1 PUSH0 DUP2 MSTORE POP PUSH2 0x263E JUMP JUMPDEST DUP1 DUP1 PUSH2 0x1ECE JUMPI POP PUSH1 0x1 PUSH1 0x1 PUSH1 0xA0 SHL SUB DUP3 AND ISZERO ISZERO JUMPDEST ISZERO PUSH2 0x1F8F JUMPI PUSH0 PUSH2 0x1EDD DUP5 PUSH2 0x147A JUMP JUMPDEST SWAP1 POP PUSH1 0x1 PUSH1 0x1 PUSH1 0xA0 SHL SUB DUP4 AND ISZERO DUP1 ISZERO SWAP1 PUSH2 0x1F09 JUMPI POP DUP3 PUSH1 0x1 PUSH1 0x1 PUSH1 0xA0 SHL SUB AND DUP2 PUSH1 0x1 PUSH1 0x1 PUSH1 0xA0 SHL SUB AND EQ ISZERO JUMPDEST DUP1 ISZERO PUSH2 0x1F1C JUMPI POP PUSH2 0x1F1A DUP2 DUP5 PUSH2 0x1291 JUMP JUMPDEST ISZERO JUMPDEST ISZERO PUSH2 0x1F45 JUMPI PUSH1 0x40 MLOAD PUSH4 0xA9FBF51F PUSH1 0xE0 SHL DUP2 MSTORE PUSH1 0x1 PUSH1 0x1 PUSH1 0xA0 SHL SUB DUP5 AND PUSH1 0x4 DUP3 ADD MSTORE PUSH1 0x24 ADD PUSH2 0x72D JUMP JUMPDEST DUP2 ISZERO PUSH2 0x1F8D JUMPI DUP4 DUP6 PUSH1 0x1 PUSH1 0x1 PUSH1 0xA0 SHL SUB AND DUP3 PUSH1 0x1 PUSH1 0x1 PUSH1 0xA0 SHL SUB AND PUSH32 0x8C5BE1E5EBEC7D5BD14F71427D1E84F3DD0314C0F7B2291E5B200AC8C7C3B925 PUSH1 0x40 MLOAD PUSH1 0x40 MLOAD DUP1 SWAP2 SUB SWAP1 LOG4 JUMPDEST POP JUMPDEST POP POP PUSH0 SWAP1 DUP2 MSTORE PUSH1 0x4 PUSH1 0x20 MSTORE PUSH1 0x40 SWAP1 KECCAK256 DUP1 SLOAD PUSH1 0x1 PUSH1 0x1 PUSH1 0xA0 SHL SUB NOT AND PUSH1 0x1 PUSH1 0x1 PUSH1 0xA0 SHL SUB SWAP3 SWAP1 SWAP3 AND SWAP2 SWAP1 SWAP2 OR SWAP1 SSTORE JUMP JUMPDEST PUSH2 0x1FC9 DUP4 DUP4 DUP4 PUSH2 0x2655 JUMP JUMPDEST PUSH2 0x92B JUMPI PUSH1 0x1 PUSH1 0x1 PUSH1 0xA0 SHL SUB DUP4 AND PUSH2 0x1FF7 JUMPI PUSH1 0x40 MLOAD PUSH4 0x7E273289 PUSH1 0xE0 SHL DUP2 MSTORE PUSH1 0x4 DUP2 ADD DUP3 SWAP1 MSTORE PUSH1 0x24 ADD PUSH2 0x72D JUMP JUMPDEST PUSH1 0x40 MLOAD PUSH4 0x177E802F PUSH1 0xE0 SHL DUP2 MSTORE PUSH1 0x1 PUSH1 0x1 PUSH1 0xA0 SHL SUB DUP4 AND PUSH1 0x4 DUP3 ADD MSTORE PUSH1 0x24 DUP2 ADD DUP3 SWAP1 MSTORE PUSH1 0x44 ADD PUSH2 0x72D JUMP JUMPDEST PUSH2 0x4FD DUP3 PUSH0 PUSH0 DUP5 PUSH2 0x26B9 JUMP JUMPDEST DUP1 MLOAD PUSH0 SUB PUSH2 0x204F JUMPI PUSH1 0x40 MLOAD PUSH4 0xFE936CB7 PUSH1 0xE0 SHL DUP2 MSTORE PUSH1 0x4 ADD PUSH1 0x40 MLOAD DUP1 SWAP2 SUB SWAP1 REVERT JUMPDEST PUSH1 0xA0 SWAP1 SWAP2 ADD MSTORE JUMP JUMPDEST PUSH1 0x60 PUSH0 PUSH2 0x2065 PUSH2 0x100 PUSH2 0x2736 JUMP JUMPDEST SWAP1 POP PUSH2 0x209E PUSH1 0x40 MLOAD DUP1 PUSH1 0x40 ADD PUSH1 0x40 MSTORE DUP1 PUSH1 0xC DUP2 MSTORE PUSH1 0x20 ADD PUSH12 0x31B7B232A637B1B0BA34B7B7 PUSH1 0xA1 SHL DUP2 MSTORE POP DUP3 PUSH2 0x2756 SWAP1 SWAP2 SWAP1 PUSH4 0xFFFFFFFF AND JUMP JUMPDEST DUP3 MLOAD PUSH2 0x20BC SWAP1 PUSH1 0x2 DUP2 GT ISZERO PUSH2 0x20B5 JUMPI PUSH2 0x20B5 PUSH2 0x4258 JUMP JUMPDEST DUP3 SWAP1 PUSH2 0x276F JUMP JUMPDEST PUSH1 0x40 DUP1 MLOAD DUP1 DUP3 ADD SWAP1 SWAP2 MSTORE PUSH1 0x8 DUP2 MSTORE PUSH8 0x6C616E6775616765 PUSH1 0xC0 SHL PUSH1 0x20 DUP3 ADD MSTORE PUSH2 0x20E6 SWAP1 DUP3 SWAP1 PUSH2 0x2756 JUMP JUMPDEST PUSH1 0x40 DUP4 ADD MLOAD PUSH2 0x20FD SWAP1 DUP1 ISZERO PUSH2 0x20B5 JUMPI PUSH2 0x20B5 PUSH2 0x4258 JUMP JUMPDEST PUSH1 0x40 DUP1 MLOAD DUP1 DUP3 ADD SWAP1 SWAP2 MSTORE PUSH1 0x6 DUP2 MSTORE PUSH6 0x736F75726365 PUSH1 0xD0 SHL PUSH1 0x20 DUP3 ADD MSTORE PUSH2 0x2125 SWAP1 DUP3 SWAP1 PUSH2 0x2756 JUMP JUMPDEST PUSH1 0x60 DUP4 ADD MLOAD PUSH2 0x2135 SWAP1 DUP3 SWAP1 PUSH2 0x2756 JUMP JUMPDEST PUSH1 0xA0 DUP4 ADD MLOAD MLOAD ISZERO PUSH2 0x21C0 JUMPI PUSH1 0x40 DUP1 MLOAD DUP1 DUP3 ADD SWAP1 SWAP2 MSTORE PUSH1 0x4 DUP2 MSTORE PUSH4 0x61726773 PUSH1 0xE0 SHL PUSH1 0x20 DUP3 ADD MSTORE PUSH2 0x2166 SWAP1 DUP3 SWAP1 PUSH2 0x2756 JUMP JUMPDEST PUSH2 0x216F DUP2 PUSH2 0x27A8 JUMP JUMPDEST PUSH0 JUMPDEST DUP4 PUSH1 0xA0 ADD MLOAD MLOAD DUP2 LT ISZERO PUSH2 0x21B6 JUMPI PUSH2 0x21AE DUP5 PUSH1 0xA0 ADD MLOAD DUP3 DUP2 MLOAD DUP2 LT PUSH2 0x2197 JUMPI PUSH2 0x2197 PUSH2 0x37AA JUMP JUMPDEST PUSH1 0x20 MUL PUSH1 0x20 ADD ADD MLOAD DUP4 PUSH2 0x2756 SWAP1 SWAP2 SWAP1 PUSH4 0xFFFFFFFF AND JUMP JUMPDEST PUSH1 0x1 ADD PUSH2 0x2171 JUMP JUMPDEST POP PUSH2 0x21C0 DUP2 PUSH2 0x27CC JUMP JUMPDEST PUSH1 0x80 DUP4 ADD MLOAD MLOAD ISZERO PUSH2 0x2283 JUMPI PUSH0 DUP4 PUSH1 0x20 ADD MLOAD PUSH1 0x2 DUP2 GT ISZERO PUSH2 0x21E2 JUMPI PUSH2 0x21E2 PUSH2 0x4258 JUMP JUMPDEST SUB PUSH2 0x2200 JUMPI PUSH1 0x40 MLOAD PUSH4 0xA80D31F7 PUSH1 0xE0 SHL DUP2 MSTORE PUSH1 0x4 ADD PUSH1 0x40 MLOAD DUP1 SWAP2 SUB SWAP1 REVERT JUMPDEST PUSH1 0x40 DUP1 MLOAD DUP1 DUP3 ADD SWAP1 SWAP2 MSTORE PUSH1 0xF DUP2 MSTORE PUSH15 0x39B2B1B932BA39A637B1B0BA34B7B7 PUSH1 0x89 SHL PUSH1 0x20 DUP3 ADD MSTORE PUSH2 0x2231 SWAP1 DUP3 SWAP1 PUSH2 0x2756 JUMP JUMPDEST PUSH2 0x224A DUP4 PUSH1 0x20 ADD MLOAD PUSH1 0x2 DUP2 GT ISZERO PUSH2 0x20B5 JUMPI PUSH2 0x20B5 PUSH2 0x4258 JUMP JUMPDEST PUSH1 0x40 DUP1 MLOAD DUP1 DUP3 ADD SWAP1 SWAP2 MSTORE PUSH1 0x7 DUP2 MSTORE PUSH7 0x73656372657473 PUSH1 0xC8 SHL PUSH1 0x20 DUP3 ADD MSTORE PUSH2 0x2273 SWAP1 DUP3 SWAP1 PUSH2 0x2756 JUMP JUMPDEST PUSH1 0x80 DUP4 ADD MLOAD PUSH2 0x2283 SWAP1 DUP3 SWAP1 PUSH2 0x27EA JUMP JUMPDEST PUSH1 0xC0 DUP4 ADD MLOAD MLOAD ISZERO PUSH2 0x2313 JUMPI PUSH1 0x40 DUP1 MLOAD DUP1 DUP3 ADD SWAP1 SWAP2 MSTORE PUSH1 0x9 DUP2 MSTORE PUSH9 0x627974657341726773 PUSH1 0xB8 SHL PUSH1 0x20 DUP3 ADD MSTORE PUSH2 0x22B9 SWAP1 DUP3 SWAP1 PUSH2 0x2756 JUMP JUMPDEST PUSH2 0x22C2 DUP2 PUSH2 0x27A8 JUMP JUMPDEST PUSH0 JUMPDEST DUP4 PUSH1 0xC0 ADD MLOAD MLOAD DUP2 LT ISZERO PUSH2 0x2309 JUMPI PUSH2 0x2301 DUP5 PUSH1 0xC0 ADD MLOAD DUP3 DUP2 MLOAD DUP2 LT PUSH2 0x22EA JUMPI PUSH2 0x22EA PUSH2 0x37AA JUMP JUMPDEST PUSH1 0x20 MUL PUSH1 0x20 ADD ADD MLOAD DUP4 PUSH2 0x27EA SWAP1 SWAP2 SWAP1 PUSH4 0xFFFFFFFF AND JUMP JUMPDEST PUSH1 0x1 ADD PUSH2 0x22C4 JUMP JUMPDEST POP PUSH2 0x2313 DUP2 PUSH2 0x27CC JUMP JUMPDEST MLOAD MLOAD SWAP3 SWAP2 POP POP JUMP JUMPDEST PUSH0 PUSH0 PUSH32 0x0 PUSH1 0x1 PUSH1 0x1 PUSH1 0xA0 SHL SUB AND PUSH4 0x461D2762 DUP7 DUP9 PUSH1 0x1 DUP9 DUP9 PUSH1 0x40 MLOAD DUP7 PUSH4 0xFFFFFFFF AND PUSH1 0xE0 SHL DUP2 MSTORE PUSH1 0x4 ADD PUSH2 0x2372 SWAP6 SWAP5 SWAP4 SWAP3 SWAP2 SWAP1 PUSH2 0x426C JUMP JUMPDEST PUSH1 0x20 PUSH1 0x40 MLOAD DUP1 DUP4 SUB DUP2 PUSH0 DUP8 GAS CALL ISZERO DUP1 ISZERO PUSH2 0x238E JUMPI RETURNDATASIZE PUSH0 PUSH0 RETURNDATACOPY RETURNDATASIZE PUSH0 REVERT JUMPDEST POP POP POP POP PUSH1 0x40 MLOAD RETURNDATASIZE PUSH1 0x1F NOT PUSH1 0x1F DUP3 ADD AND DUP3 ADD DUP1 PUSH1 0x40 MSTORE POP DUP2 ADD SWAP1 PUSH2 0x23B2 SWAP2 SWAP1 PUSH2 0x3793 JUMP JUMPDEST PUSH1 0x40 MLOAD SWAP1 SWAP2 POP DUP2 SWAP1 PUSH32 0x1131472297A800FEE664D1D89CFA8F7676FF07189ECC53F80BBB5F4969099DB8 SWAP1 PUSH0 SWAP1 LOG2 SWAP6 SWAP5 POP POP POP POP POP JUMP JUMPDEST PUSH0 DUP1 PUSH19 0x184F03E93FF9F4DAA797ED6E38ED64BF6A1F01 PUSH1 0x40 SHL DUP4 LT PUSH2 0x2426 JUMPI PUSH19 0x184F03E93FF9F4DAA797ED6E38ED64BF6A1F01 PUSH1 0x40 SHL DUP4 DIV SWAP3 POP PUSH1 0x40 ADD JUMPDEST PUSH14 0x4EE2D6D415B85ACEF8100000000 DUP4 LT PUSH2 0x2452 JUMPI PUSH14 0x4EE2D6D415B85ACEF8100000000 DUP4 DIV SWAP3 POP PUSH1 0x20 ADD JUMPDEST PUSH7 0x2386F26FC10000 DUP4 LT PUSH2 0x2470 JUMPI PUSH7 0x2386F26FC10000 DUP4 DIV SWAP3 POP PUSH1 0x10 ADD JUMPDEST PUSH4 0x5F5E100 DUP4 LT PUSH2 0x2488 JUMPI PUSH4 0x5F5E100 DUP4 DIV SWAP3 POP PUSH1 0x8 ADD JUMPDEST PUSH2 0x2710 DUP4 LT PUSH2 0x249C JUMPI PUSH2 0x2710 DUP4 DIV SWAP3 POP PUSH1 0x4 ADD JUMPDEST PUSH1 0x64 DUP4 LT PUSH2 0x24AE JUMPI PUSH1 0x64 DUP4 DIV SWAP3 POP PUSH1 0x2 ADD JUMPDEST PUSH1 0xA DUP4 LT PUSH2 0x525 JUMPI PUSH1 0x1 ADD SWAP3 SWAP2 POP POP JUMP JUMPDEST PUSH1 0x60 DUP3 MLOAD PUSH0 SUB PUSH2 0x24DD JUMPI POP PUSH1 0x40 DUP1 MLOAD PUSH1 0x20 DUP2 ADD SWAP1 SWAP2 MSTORE PUSH0 DUP2 MSTORE PUSH2 0x525 JUMP JUMPDEST PUSH0 DUP3 PUSH2 0x250D JUMPI PUSH1 0x3 DUP5 MLOAD PUSH1 0x2 PUSH2 0x24F3 SWAP2 SWAP1 PUSH2 0x329A JUMP JUMPDEST PUSH2 0x24FD SWAP2 SWAP1 PUSH2 0x32D8 JUMP JUMPDEST PUSH2 0x2508 SWAP1 PUSH1 0x4 PUSH2 0x32AD JUMP JUMPDEST PUSH2 0x2532 JUMP JUMPDEST PUSH1 0x3 DUP5 MLOAD PUSH1 0x4 PUSH2 0x251D SWAP2 SWAP1 PUSH2 0x32AD JUMP JUMPDEST PUSH2 0x2528 SWAP1 PUSH1 0x2 PUSH2 0x329A JUMP JUMPDEST PUSH2 0x2532 SWAP2 SWAP1 PUSH2 0x32D8 JUMP JUMPDEST SWAP1 POP PUSH1 0x40 MLOAD SWAP2 POP PUSH32 0x4142434445464748494A4B4C4D4E4F505152535455565758595A616263646566 PUSH1 0x1F MSTORE PUSH2 0x670 DUP4 MUL PUSH32 0x6768696A6B6C6D6E6F707172737475767778797A303132333435363738392B2F XOR PUSH1 0x3F MSTORE PUSH1 0x20 DUP3 ADD DUP2 DUP2 ADD DUP6 DUP7 MLOAD DUP8 ADD PUSH1 0x20 DUP2 ADD DUP1 MLOAD PUSH0 DUP3 MSTORE JUMPDEST DUP3 DUP5 LT ISZERO PUSH2 0x25F0 JUMPI PUSH1 0x3 DUP5 ADD SWAP4 POP DUP4 MLOAD PUSH1 0x3F DUP2 PUSH1 0x12 SHR AND MLOAD DUP8 MSTORE8 PUSH1 0x1 DUP8 ADD SWAP7 POP PUSH1 0x3F DUP2 PUSH1 0xC SHR AND MLOAD DUP8 MSTORE8 PUSH1 0x1 DUP8 ADD SWAP7 POP PUSH1 0x3F DUP2 PUSH1 0x6 SHR AND MLOAD DUP8 MSTORE8 PUSH1 0x1 DUP8 ADD SWAP7 POP PUSH1 0x3F DUP2 AND MLOAD DUP8 MSTORE8 POP PUSH1 0x1 DUP7 ADD SWAP6 POP PUSH2 0x259D JUMP JUMPDEST SWAP1 MSTORE POP DUP6 SWAP1 POP PUSH2 0x2631 JUMPI PUSH1 0x3 DUP7 MLOAD MOD PUSH1 0x1 DUP2 EQ PUSH2 0x2614 JUMPI PUSH1 0x2 DUP2 EQ PUSH2 0x2627 JUMPI PUSH2 0x262F JUMP JUMPDEST PUSH1 0x3D PUSH1 0x1 DUP5 SUB MSTORE8 PUSH1 0x3D PUSH1 0x2 DUP5 SUB MSTORE8 PUSH2 0x262F JUMP JUMPDEST PUSH1 0x3D PUSH1 0x1 DUP5 SUB MSTORE8 JUMPDEST POP JUMPDEST SWAP2 DUP4 MSTORE POP PUSH1 0x40 MSTORE SWAP3 SWAP2 POP POP JUMP JUMPDEST PUSH2 0x2648 DUP4 DUP4 PUSH2 0x27F7 JUMP JUMPDEST PUSH2 0x92B CALLER PUSH0 DUP6 DUP6 DUP6 PUSH2 0x1D6D JUMP JUMPDEST PUSH0 PUSH1 0x1 PUSH1 0x1 PUSH1 0xA0 SHL SUB DUP4 AND ISZERO DUP1 ISZERO SWAP1 PUSH2 0x26B1 JUMPI POP DUP3 PUSH1 0x1 PUSH1 0x1 PUSH1 0xA0 SHL SUB AND DUP5 PUSH1 0x1 PUSH1 0x1 PUSH1 0xA0 SHL SUB AND EQ DUP1 PUSH2 0x268E JUMPI POP PUSH2 0x268E DUP5 DUP5 PUSH2 0x1291 JUMP JUMPDEST DUP1 PUSH2 0x26B1 JUMPI POP PUSH0 DUP3 DUP2 MSTORE PUSH1 0x4 PUSH1 0x20 MSTORE PUSH1 0x40 SWAP1 KECCAK256 SLOAD PUSH1 0x1 PUSH1 0x1 PUSH1 0xA0 SHL SUB DUP5 DUP2 AND SWAP2 AND EQ JUMPDEST SWAP5 SWAP4 POP POP POP POP JUMP JUMPDEST DUP1 MLOAD PUSH0 SUB PUSH2 0x26DA JUMPI PUSH1 0x40 MLOAD PUSH4 0x22CE3EDD PUSH1 0xE0 SHL DUP2 MSTORE PUSH1 0x4 ADD PUSH1 0x40 MLOAD DUP1 SWAP2 SUB SWAP1 REVERT JUMPDEST DUP4 DUP4 PUSH1 0x2 DUP2 GT ISZERO PUSH2 0x26ED JUMPI PUSH2 0x26ED PUSH2 0x4258 JUMP JUMPDEST SWAP1 DUP2 PUSH1 0x2 DUP2 GT ISZERO PUSH2 0x2700 JUMPI PUSH2 0x2700 PUSH2 0x4258 JUMP JUMPDEST SWAP1 MSTORE POP PUSH1 0x40 DUP5 ADD DUP3 DUP1 ISZERO PUSH2 0x2716 JUMPI PUSH2 0x2716 PUSH2 0x4258 JUMP JUMPDEST SWAP1 DUP2 DUP1 ISZERO PUSH2 0x2726 JUMPI PUSH2 0x2726 PUSH2 0x4258 JUMP JUMPDEST SWAP1 MSTORE POP PUSH1 0x60 SWAP1 SWAP4 ADD SWAP3 SWAP1 SWAP3 MSTORE POP POP JUMP JUMPDEST PUSH2 0x273E PUSH2 0x2BEF JUMP JUMPDEST DUP1 MLOAD PUSH2 0x274A SWAP1 DUP4 PUSH2 0x2858 JUMP JUMPDEST POP PUSH0 PUSH1 0x20 DUP3 ADD MSTORE SWAP2 SWAP1 POP JUMP JUMPDEST PUSH2 0x2763 DUP3 PUSH1 0x3 DUP4 MLOAD PUSH2 0x28CC JUMP JUMPDEST DUP2 MLOAD PUSH2 0x92B SWAP1 DUP3 PUSH2 0x29E5 JUMP JUMPDEST DUP2 MLOAD PUSH2 0x277C SWAP1 PUSH1 0xC2 PUSH2 0x2A0C JUMP JUMPDEST POP PUSH2 0x4FD DUP3 DUP3 PUSH1 0x40 MLOAD PUSH1 0x20 ADD PUSH2 0x2794 SWAP2 DUP2 MSTORE PUSH1 0x20 ADD SWAP1 JUMP JUMPDEST PUSH1 0x40 MLOAD PUSH1 0x20 DUP2 DUP4 SUB SUB DUP2 MSTORE SWAP1 PUSH1 0x40 MSTORE PUSH2 0x27EA JUMP JUMPDEST PUSH2 0x27B3 DUP2 PUSH1 0x4 PUSH2 0x2A73 JUMP JUMPDEST PUSH1 0x1 DUP2 PUSH1 0x20 ADD DUP2 DUP2 MLOAD PUSH2 0x27C6 SWAP2 SWAP1 PUSH2 0x329A JUMP JUMPDEST SWAP1 MSTORE POP POP JUMP JUMPDEST PUSH2 0x27D7 DUP2 PUSH1 0x7 PUSH2 0x2A73 JUMP JUMPDEST PUSH1 0x1 DUP2 PUSH1 0x20 ADD DUP2 DUP2 MLOAD PUSH2 0x27C6 SWAP2 SWAP1 PUSH2 0x3287 JUMP JUMPDEST PUSH2 0x2763 DUP3 PUSH1 0x2 DUP4 MLOAD PUSH2 0x28CC JUMP JUMPDEST PUSH1 0x1 PUSH1 0x1 PUSH1 0xA0 SHL SUB DUP3 AND PUSH2 0x2820 JUMPI PUSH1 0x40 MLOAD PUSH4 0x32505749 PUSH1 0xE1 SHL DUP2 MSTORE PUSH0 PUSH1 0x4 DUP3 ADD MSTORE PUSH1 0x24 ADD PUSH2 0x72D JUMP JUMPDEST PUSH0 PUSH2 0x282C DUP4 DUP4 PUSH0 PUSH2 0x17E1 JUMP JUMPDEST SWAP1 POP PUSH1 0x1 PUSH1 0x1 PUSH1 0xA0 SHL SUB DUP2 AND ISZERO PUSH2 0x92B JUMPI PUSH1 0x40 MLOAD PUSH4 0x39E35637 PUSH1 0xE1 SHL DUP2 MSTORE PUSH0 PUSH1 0x4 DUP3 ADD MSTORE PUSH1 0x24 ADD PUSH2 0x72D JUMP JUMPDEST PUSH1 0x40 DUP1 MLOAD DUP1 DUP3 ADD SWAP1 SWAP2 MSTORE PUSH1 0x60 DUP2 MSTORE PUSH0 PUSH1 0x20 DUP3 ADD MSTORE PUSH2 0x2877 PUSH1 0x20 DUP4 PUSH2 0x32EB JUMP JUMPDEST ISZERO PUSH2 0x289F JUMPI PUSH2 0x2887 PUSH1 0x20 DUP4 PUSH2 0x32EB JUMP JUMPDEST PUSH2 0x2892 SWAP1 PUSH1 0x20 PUSH2 0x3287 JUMP JUMPDEST PUSH2 0x289C SWAP1 DUP4 PUSH2 0x329A JUMP JUMPDEST SWAP2 POP JUMPDEST PUSH1 0x20 DUP1 DUP5 ADD DUP4 SWAP1 MSTORE PUSH1 0x40 MLOAD DUP1 DUP6 MSTORE PUSH0 DUP2 MSTORE SWAP1 DUP2 DUP5 ADD ADD DUP2 DUP2 LT ISZERO PUSH2 0x28C1 JUMPI PUSH0 PUSH0 REVERT JUMPDEST PUSH1 0x40 MSTORE POP SWAP2 SWAP3 SWAP2 POP POP JUMP JUMPDEST PUSH1 0x17 DUP2 PUSH1 0x1 PUSH1 0x1 PUSH1 0x40 SHL SUB AND GT PUSH2 0x28F2 JUMPI DUP3 MLOAD PUSH2 0x843 SWAP1 PUSH1 0xE0 PUSH1 0x5 DUP6 SWAP1 SHL AND DUP4 OR PUSH2 0x2A0C JUMP JUMPDEST PUSH1 0xFF DUP2 PUSH1 0x1 PUSH1 0x1 PUSH1 0x40 SHL SUB AND GT PUSH2 0x2932 JUMPI DUP3 MLOAD PUSH2 0x291A SWAP1 PUSH1 0x18 PUSH2 0x1FE0 PUSH1 0x5 DUP7 SWAP1 SHL AND OR PUSH2 0x2A0C JUMP JUMPDEST POP DUP3 MLOAD PUSH2 0x843 SWAP1 PUSH1 0x1 PUSH1 0x1 PUSH1 0x40 SHL SUB DUP4 AND PUSH1 0x1 PUSH2 0x2A8A JUMP JUMPDEST PUSH2 0xFFFF DUP2 PUSH1 0x1 PUSH1 0x1 PUSH1 0x40 SHL SUB AND GT PUSH2 0x2973 JUMPI DUP3 MLOAD PUSH2 0x295B SWAP1 PUSH1 0x19 PUSH2 0x1FE0 PUSH1 0x5 DUP7 SWAP1 SHL AND OR PUSH2 0x2A0C JUMP JUMPDEST POP DUP3 MLOAD PUSH2 0x843 SWAP1 PUSH1 0x1 PUSH1 0x1 PUSH1 0x40 SHL SUB DUP4 AND PUSH1 0x2 PUSH2 0x2A8A JUMP JUMPDEST PUSH4 0xFFFFFFFF DUP2 PUSH1 0x1 PUSH1 0x1 PUSH1 0x40 SHL SUB AND GT PUSH2 0x29B6 JUMPI DUP3 MLOAD PUSH2 0x299E SWAP1 PUSH1 0x1A PUSH2 0x1FE0 PUSH1 0x5 DUP7 SWAP1 SHL AND OR PUSH2 0x2A0C JUMP JUMPDEST POP DUP3 MLOAD PUSH2 0x843 SWAP1 PUSH1 0x1 PUSH1 0x1 PUSH1 0x40 SHL SUB DUP4 AND PUSH1 0x4 PUSH2 0x2A8A JUMP JUMPDEST DUP3 MLOAD PUSH2 0x29CD SWAP1 PUSH1 0x1B PUSH2 0x1FE0 PUSH1 0x5 DUP7 SWAP1 SHL AND OR PUSH2 0x2A0C JUMP JUMPDEST POP DUP3 MLOAD PUSH2 0x843 SWAP1 PUSH1 0x1 PUSH1 0x1 PUSH1 0x40 SHL SUB DUP4 AND PUSH1 0x8 PUSH2 0x2A8A JUMP JUMPDEST PUSH1 0x40 DUP1 MLOAD DUP1 DUP3 ADD SWAP1 SWAP2 MSTORE PUSH1 0x60 DUP2 MSTORE PUSH0 PUSH1 0x20 DUP3 ADD MSTORE PUSH2 0x2A05 DUP4 DUP4 DUP5 MLOAD PUSH2 0x2B0C JUMP JUMPDEST SWAP4 SWAP3 POP POP POP JUMP JUMPDEST PUSH1 0x40 DUP1 MLOAD DUP1 DUP3 ADD SWAP1 SWAP2 MSTORE PUSH1 0x60 DUP2 MSTORE PUSH0 PUSH1 0x20 DUP3 ADD MSTORE DUP3 MLOAD MLOAD PUSH0 PUSH2 0x2A2F DUP3 PUSH1 0x1 PUSH2 0x329A JUMP JUMPDEST SWAP1 POP DUP5 PUSH1 0x20 ADD MLOAD DUP3 LT PUSH2 0x2A50 JUMPI PUSH2 0x2A50 DUP6 PUSH2 0x2A4B DUP4 PUSH1 0x2 PUSH2 0x32AD JUMP JUMPDEST PUSH2 0x2BD8 JUMP JUMPDEST DUP5 MLOAD PUSH1 0x20 DUP4 DUP3 ADD ADD DUP6 DUP2 MSTORE8 POP DUP1 MLOAD DUP3 GT ISZERO PUSH2 0x2A69 JUMPI DUP2 DUP2 MSTORE JUMPDEST POP SWAP4 SWAP5 SWAP4 POP POP POP POP JUMP JUMPDEST DUP2 MLOAD PUSH2 0x92B SWAP1 PUSH1 0x1F PUSH2 0x1FE0 PUSH1 0x5 DUP6 SWAP1 SHL AND OR PUSH2 0x2A0C JUMP JUMPDEST PUSH1 0x40 DUP1 MLOAD DUP1 DUP3 ADD SWAP1 SWAP2 MSTORE PUSH1 0x60 DUP2 MSTORE PUSH0 PUSH1 0x20 DUP3 ADD MSTORE DUP4 MLOAD MLOAD PUSH0 PUSH2 0x2AAC DUP3 DUP6 PUSH2 0x329A JUMP JUMPDEST SWAP1 POP DUP6 PUSH1 0x20 ADD MLOAD DUP2 GT ISZERO PUSH2 0x2AC9 JUMPI PUSH2 0x2AC9 DUP7 PUSH2 0x2A4B DUP4 PUSH1 0x2 PUSH2 0x32AD JUMP JUMPDEST PUSH0 PUSH1 0x1 PUSH2 0x2AD8 DUP7 PUSH2 0x100 PUSH2 0x4397 JUMP JUMPDEST PUSH2 0x2AE2 SWAP2 SWAP1 PUSH2 0x3287 JUMP JUMPDEST SWAP1 POP DUP7 MLOAD DUP3 DUP2 ADD DUP8 DUP4 NOT DUP3 MLOAD AND OR DUP2 MSTORE POP DUP1 MLOAD DUP4 GT ISZERO PUSH2 0x2B00 JUMPI DUP3 DUP2 MSTORE JUMPDEST POP SWAP6 SWAP7 SWAP6 POP POP POP POP POP POP JUMP JUMPDEST PUSH1 0x40 DUP1 MLOAD DUP1 DUP3 ADD SWAP1 SWAP2 MSTORE PUSH1 0x60 DUP2 MSTORE PUSH0 PUSH1 0x20 DUP3 ADD MSTORE DUP3 MLOAD DUP3 GT ISZERO PUSH2 0x2B2D JUMPI PUSH0 PUSH0 REVERT JUMPDEST DUP4 MLOAD MLOAD PUSH0 PUSH2 0x2B3B DUP5 DUP4 PUSH2 0x329A JUMP JUMPDEST SWAP1 POP DUP6 PUSH1 0x20 ADD MLOAD DUP2 GT ISZERO PUSH2 0x2B58 JUMPI PUSH2 0x2B58 DUP7 PUSH2 0x2A4B DUP4 PUSH1 0x2 PUSH2 0x32AD JUMP JUMPDEST DUP6 MLOAD DUP1 MLOAD DUP4 DUP3 ADD PUSH1 0x20 ADD SWAP2 PUSH0 SWAP2 DUP1 DUP6 GT ISZERO PUSH2 0x2B71 JUMPI DUP5 DUP3 MSTORE JUMPDEST POP POP POP PUSH1 0x20 DUP7 ADD JUMPDEST PUSH1 0x20 DUP7 LT PUSH2 0x2BB1 JUMPI DUP1 MLOAD DUP3 MSTORE PUSH2 0x2B90 PUSH1 0x20 DUP4 PUSH2 0x329A JUMP JUMPDEST SWAP2 POP PUSH2 0x2B9D PUSH1 0x20 DUP3 PUSH2 0x329A JUMP JUMPDEST SWAP1 POP PUSH2 0x2BAA PUSH1 0x20 DUP8 PUSH2 0x3287 JUMP JUMPDEST SWAP6 POP PUSH2 0x2B79 JUMP JUMPDEST MLOAD DUP2 MLOAD PUSH0 NOT PUSH1 0x20 DUP9 SWAP1 SUB PUSH2 0x100 EXP ADD SWAP1 DUP2 AND SWAP1 NOT SWAP2 SWAP1 SWAP2 AND OR SWAP1 MSTORE POP DUP5 SWAP2 POP POP SWAP4 SWAP3 POP POP POP JUMP JUMPDEST DUP2 MLOAD PUSH2 0x2BE4 DUP4 DUP4 PUSH2 0x2858 JUMP JUMPDEST POP PUSH2 0x843 DUP4 DUP3 PUSH2 0x29E5 JUMP JUMPDEST PUSH1 0x40 MLOAD DUP1 PUSH1 0x40 ADD PUSH1 0x40 MSTORE DUP1 PUSH2 0x2C16 PUSH1 0x40 MLOAD DUP1 PUSH1 0x40 ADD PUSH1 0x40 MSTORE DUP1 PUSH1 0x60 DUP2 MSTORE PUSH1 0x20 ADD PUSH0 DUP2 MSTORE POP SWAP1 JUMP JUMPDEST DUP2 MSTORE PUSH1 0x20 ADD PUSH0 DUP2 MSTORE POP SWAP1 JUMP JUMPDEST PUSH4 0x4E487B71 PUSH1 0xE0 SHL PUSH0 MSTORE PUSH1 0x41 PUSH1 0x4 MSTORE PUSH1 0x24 PUSH0 REVERT JUMPDEST PUSH0 DUP3 PUSH1 0x1F DUP4 ADD SLT PUSH2 0x2C45 JUMPI PUSH0 PUSH0 REVERT JUMPDEST DUP2 CALLDATALOAD PUSH1 0x20 DUP4 ADD PUSH0 PUSH0 PUSH1 0x1 PUSH1 0x1 PUSH1 0x40 SHL SUB DUP5 GT ISZERO PUSH2 0x2C64 JUMPI PUSH2 0x2C64 PUSH2 0x2C22 JUMP JUMPDEST POP PUSH1 0x40 MLOAD PUSH1 0x1F NOT PUSH1 0x1F DUP6 ADD DUP2 AND PUSH1 0x3F ADD AND DUP2 ADD DUP2 DUP2 LT PUSH1 0x1 PUSH1 0x1 PUSH1 0x40 SHL SUB DUP3 GT OR ISZERO PUSH2 0x2C92 JUMPI PUSH2 0x2C92 PUSH2 0x2C22 JUMP JUMPDEST PUSH1 0x40 MSTORE DUP4 DUP2 MSTORE SWAP1 POP DUP1 DUP3 DUP5 ADD DUP8 LT ISZERO PUSH2 0x2CA9 JUMPI PUSH0 PUSH0 REVERT JUMPDEST DUP4 DUP4 PUSH1 0x20 DUP4 ADD CALLDATACOPY PUSH0 PUSH1 0x20 DUP6 DUP4 ADD ADD MSTORE DUP1 SWAP5 POP POP POP POP POP SWAP3 SWAP2 POP POP JUMP JUMPDEST PUSH0 PUSH1 0x20 DUP3 DUP5 SUB SLT ISZERO PUSH2 0x2CD5 JUMPI PUSH0 PUSH0 REVERT JUMPDEST DUP2 CALLDATALOAD PUSH1 0x1 PUSH1 0x1 PUSH1 0x40 SHL SUB DUP2 GT ISZERO PUSH2 0x2CEA JUMPI PUSH0 PUSH0 REVERT JUMPDEST PUSH2 0x26B1 DUP5 DUP3 DUP6 ADD PUSH2 0x2C36 JUMP JUMPDEST PUSH1 0x1 PUSH1 0x1 PUSH1 0xE0 SHL SUB NOT DUP2 AND DUP2 EQ PUSH2 0x13FB JUMPI PUSH0 PUSH0 REVERT JUMPDEST PUSH0 PUSH1 0x20 DUP3 DUP5 SUB SLT ISZERO PUSH2 0x2D1B JUMPI PUSH0 PUSH0 REVERT JUMPDEST DUP2 CALLDATALOAD PUSH2 0x2A05 DUP2 PUSH2 0x2CF6 JUMP JUMPDEST PUSH0 DUP2 MLOAD DUP1 DUP5 MSTORE DUP1 PUSH1 0x20 DUP5 ADD PUSH1 0x20 DUP7 ADD MCOPY PUSH0 PUSH1 0x20 DUP3 DUP7 ADD ADD MSTORE PUSH1 0x20 PUSH1 0x1F NOT PUSH1 0x1F DUP4 ADD AND DUP6 ADD ADD SWAP2 POP POP SWAP3 SWAP2 POP POP JUMP JUMPDEST PUSH1 0x20 DUP2 MSTORE PUSH0 PUSH2 0x2A05 PUSH1 0x20 DUP4 ADD DUP5 PUSH2 0x2D26 JUMP JUMPDEST PUSH0 PUSH1 0x20 DUP3 DUP5 SUB SLT ISZERO PUSH2 0x2D76 JUMPI PUSH0 PUSH0 REVERT JUMPDEST POP CALLDATALOAD SWAP2 SWAP1 POP JUMP JUMPDEST DUP1 CALLDATALOAD PUSH1 0x1 PUSH1 0x1 PUSH1 0xA0 SHL SUB DUP2 AND DUP2 EQ PUSH2 0x2D93 JUMPI PUSH0 PUSH0 REVERT JUMPDEST SWAP2 SWAP1 POP JUMP JUMPDEST PUSH0 PUSH0 PUSH1 0x40 DUP4 DUP6 SUB SLT ISZERO PUSH2 0x2DA9 JUMPI PUSH0 PUSH0 REVERT JUMPDEST PUSH2 0x2DB2 DUP4 PUSH2 0x2D7D JUMP JUMPDEST SWAP5 PUSH1 0x20 SWAP4 SWAP1 SWAP4 ADD CALLDATALOAD SWAP4 POP POP POP JUMP JUMPDEST PUSH0 PUSH0 PUSH0 PUSH1 0x60 DUP5 DUP7 SUB SLT ISZERO PUSH2 0x2DD2 JUMPI PUSH0 PUSH0 REVERT JUMPDEST DUP4 CALLDATALOAD SWAP3 POP PUSH1 0x20 DUP5 ADD CALLDATALOAD PUSH1 0x1 PUSH1 0x1 PUSH1 0x40 SHL SUB DUP2 GT ISZERO PUSH2 0x2DEE JUMPI PUSH0 PUSH0 REVERT JUMPDEST PUSH2 0x2DFA DUP7 DUP3 DUP8 ADD PUSH2 0x2C36 JUMP JUMPDEST SWAP3 POP POP PUSH1 0x40 DUP5 ADD CALLDATALOAD PUSH1 0x1 PUSH1 0x1 PUSH1 0x40 SHL SUB DUP2 GT ISZERO PUSH2 0x2E15 JUMPI PUSH0 PUSH0 REVERT JUMPDEST PUSH2 0x2E21 DUP7 DUP3 DUP8 ADD PUSH2 0x2C36 JUMP JUMPDEST SWAP2 POP POP SWAP3 POP SWAP3 POP SWAP3 JUMP JUMPDEST PUSH0 PUSH0 PUSH1 0x40 DUP4 DUP6 SUB SLT ISZERO PUSH2 0x2E3C JUMPI PUSH0 PUSH0 REVERT JUMPDEST POP POP DUP1 CALLDATALOAD SWAP3 PUSH1 0x20 SWAP1 SWAP2 ADD CALLDATALOAD SWAP2 POP JUMP JUMPDEST PUSH0 PUSH0 PUSH0 PUSH1 0x60 DUP5 DUP7 SUB SLT ISZERO PUSH2 0x2E5D JUMPI PUSH0 PUSH0 REVERT JUMPDEST PUSH2 0x2E66 DUP5 PUSH2 0x2D7D JUMP JUMPDEST SWAP3 POP PUSH2 0x2E74 PUSH1 0x20 DUP6 ADD PUSH2 0x2D7D JUMP JUMPDEST SWAP3 SWAP6 SWAP3 SWAP5 POP POP POP PUSH1 0x40 SWAP2 SWAP1 SWAP2 ADD CALLDATALOAD SWAP1 JUMP JUMPDEST PUSH0 PUSH0 PUSH1 0x20 DUP4 DUP6 SUB SLT ISZERO PUSH2 0x2E96 JUMPI PUSH0 PUSH0 REVERT JUMPDEST DUP3 CALLDATALOAD PUSH1 0x1 PUSH1 0x1 PUSH1 0x40 SHL SUB DUP2 GT ISZERO PUSH2 0x2EAB JUMPI PUSH0 PUSH0 REVERT JUMPDEST DUP4 ADD PUSH1 0x1F DUP2 ADD DUP6 SGT PUSH2 0x2EBB JUMPI PUSH0 PUSH0 REVERT JUMPDEST DUP1 CALLDATALOAD PUSH1 0x1 PUSH1 0x1 PUSH1 0x40 SHL SUB DUP2 GT ISZERO PUSH2 0x2ED0 JUMPI PUSH0 PUSH0 REVERT JUMPDEST DUP6 PUSH1 0x20 DUP3 DUP5 ADD ADD GT ISZERO PUSH2 0x2EE1 JUMPI PUSH0 PUSH0 REVERT JUMPDEST PUSH1 0x20 SWAP2 SWAP1 SWAP2 ADD SWAP6 SWAP1 SWAP5 POP SWAP3 POP POP POP JUMP JUMPDEST PUSH1 0x20 DUP2 MSTORE PUSH0 DUP3 MLOAD PUSH1 0xC0 PUSH1 0x20 DUP5 ADD MSTORE PUSH2 0x2F0C PUSH1 0xE0 DUP5 ADD DUP3 PUSH2 0x2D26 JUMP JUMPDEST SWAP1 POP PUSH1 0x20 DUP5 ADD MLOAD PUSH1 0x1F NOT DUP5 DUP4 SUB ADD PUSH1 0x40 DUP6 ADD MSTORE PUSH2 0x2F29 DUP3 DUP3 PUSH2 0x2D26 JUMP JUMPDEST SWAP2 POP POP PUSH1 0x1 PUSH1 0x1 PUSH1 0x40 SHL SUB PUSH1 0x40 DUP6 ADD MLOAD AND PUSH1 0x60 DUP5 ADD MSTORE PUSH1 0x1 PUSH1 0x1 PUSH1 0x40 SHL SUB PUSH1 0x60 DUP6 ADD MLOAD AND PUSH1 0x80 DUP5 ADD MSTORE PUSH1 0x1 PUSH1 0x1 PUSH1 0x40 SHL SUB PUSH1 0x80 DUP6 ADD MLOAD AND PUSH1 0xA0 DUP5 ADD MSTORE PUSH1 0x1 PUSH1 0x1 PUSH1 0x40 SHL SUB PUSH1 0xA0 DUP6 ADD MLOAD AND PUSH1 0xC0 DUP5 ADD MSTORE DUP1 SWAP2 POP POP SWAP3 SWAP2 POP POP JUMP JUMPDEST DUP3 ISZERO ISZERO DUP2 MSTORE PUSH1 0x40 PUSH1 0x20 DUP3 ADD MSTORE PUSH0 PUSH2 0x26B1 PUSH1 0x40 DUP4 ADD DUP5 PUSH2 0x2D26 JUMP JUMPDEST PUSH0 PUSH1 0x20 DUP3 DUP5 SUB SLT ISZERO PUSH2 0x2FAC JUMPI PUSH0 PUSH0 REVERT JUMPDEST PUSH2 0x2A05 DUP3 PUSH2 0x2D7D JUMP JUMPDEST PUSH0 PUSH0 PUSH1 0x40 DUP4 DUP6 SUB SLT ISZERO PUSH2 0x2FC6 JUMPI PUSH0 PUSH0 REVERT JUMPDEST PUSH2 0x2FCF DUP4 PUSH2 0x2D7D JUMP JUMPDEST SWAP2 POP PUSH1 0x20 DUP4 ADD CALLDATALOAD DUP1 ISZERO ISZERO DUP2 EQ PUSH2 0x2FE3 JUMPI PUSH0 PUSH0 REVERT JUMPDEST DUP1 SWAP2 POP POP SWAP3 POP SWAP3 SWAP1 POP JUMP JUMPDEST PUSH1 0xC0 DUP2 MSTORE PUSH0 PUSH2 0x3000 PUSH1 0xC0 DUP4 ADD DUP10 PUSH2 0x2D26 JUMP JUMPDEST DUP3 DUP2 SUB PUSH1 0x20 DUP5 ADD MSTORE PUSH2 0x3012 DUP2 DUP10 PUSH2 0x2D26 JUMP JUMPDEST PUSH1 0x1 PUSH1 0x1 PUSH1 0x40 SHL SUB SWAP8 DUP9 AND PUSH1 0x40 DUP6 ADD MSTORE SWAP6 DUP8 AND PUSH1 0x60 DUP5 ADD MSTORE POP POP SWAP2 DUP5 AND PUSH1 0x80 DUP4 ADD MSTORE SWAP1 SWAP3 AND PUSH1 0xA0 SWAP1 SWAP3 ADD SWAP2 SWAP1 SWAP2 MSTORE SWAP3 SWAP2 POP POP JUMP JUMPDEST PUSH0 PUSH0 PUSH0 PUSH0 PUSH1 0x80 DUP6 DUP8 SUB SLT ISZERO PUSH2 0x3059 JUMPI PUSH0 PUSH0 REVERT JUMPDEST PUSH2 0x3062 DUP6 PUSH2 0x2D7D JUMP JUMPDEST SWAP4 POP PUSH2 0x3070 PUSH1 0x20 DUP7 ADD PUSH2 0x2D7D JUMP JUMPDEST SWAP3 POP PUSH1 0x40 DUP6 ADD CALLDATALOAD SWAP2 POP PUSH1 0x60 DUP6 ADD CALLDATALOAD PUSH1 0x1 PUSH1 0x1 PUSH1 0x40 SHL SUB DUP2 GT ISZERO PUSH2 0x3091 JUMPI PUSH0 PUSH0 REVERT JUMPDEST PUSH2 0x309D DUP8 DUP3 DUP9 ADD PUSH2 0x2C36 JUMP JUMPDEST SWAP2 POP POP SWAP3 SWAP6 SWAP2 SWAP5 POP SWAP3 POP JUMP JUMPDEST PUSH0 PUSH0 PUSH1 0x40 DUP4 DUP6 SUB SLT ISZERO PUSH2 0x30BA JUMPI PUSH0 PUSH0 REVERT JUMPDEST PUSH2 0x30C3 DUP4 PUSH2 0x2D7D JUMP JUMPDEST SWAP2 POP PUSH2 0x30D1 PUSH1 0x20 DUP5 ADD PUSH2 0x2D7D JUMP JUMPDEST SWAP1 POP SWAP3 POP SWAP3 SWAP1 POP JUMP JUMPDEST PUSH0 PUSH0 PUSH0 PUSH1 0x60 DUP5 DUP7 SUB SLT ISZERO PUSH2 0x30EC JUMPI PUSH0 PUSH0 REVERT JUMPDEST PUSH2 0x30F5 DUP5 PUSH2 0x2D7D JUMP JUMPDEST SWAP3 POP PUSH1 0x20 DUP5 ADD CALLDATALOAD PUSH1 0x1 PUSH1 0x1 PUSH1 0x40 SHL SUB DUP2 GT ISZERO PUSH2 0x2DEE JUMPI PUSH0 PUSH0 REVERT JUMPDEST PUSH1 0x1 DUP2 DUP2 SHR SWAP1 DUP3 AND DUP1 PUSH2 0x3123 JUMPI PUSH1 0x7F DUP3 AND SWAP2 POP JUMPDEST PUSH1 0x20 DUP3 LT DUP2 SUB PUSH2 0x3141 JUMPI PUSH4 0x4E487B71 PUSH1 0xE0 SHL PUSH0 MSTORE PUSH1 0x22 PUSH1 0x4 MSTORE PUSH1 0x24 PUSH0 REVERT JUMPDEST POP SWAP2 SWAP1 POP JUMP JUMPDEST PUSH1 0x1F DUP3 GT ISZERO PUSH2 0x92B JUMPI DUP1 PUSH0 MSTORE PUSH1 0x20 PUSH0 KECCAK256 PUSH1 0x1F DUP5 ADD PUSH1 0x5 SHR DUP2 ADD PUSH1 0x20 DUP6 LT ISZERO PUSH2 0x316C JUMPI POP DUP1 JUMPDEST PUSH1 0x1F DUP5 ADD PUSH1 0x5 SHR DUP3 ADD SWAP2 POP JUMPDEST DUP2 DUP2 LT ISZERO PUSH2 0x1E8E JUMPI PUSH0 DUP2 SSTORE PUSH1 0x1 ADD PUSH2 0x3178 JUMP JUMPDEST DUP2 MLOAD PUSH1 0x1 PUSH1 0x1 PUSH1 0x40 SHL SUB DUP2 GT ISZERO PUSH2 0x31A4 JUMPI PUSH2 0x31A4 PUSH2 0x2C22 JUMP JUMPDEST PUSH2 0x31B8 DUP2 PUSH2 0x31B2 DUP5 SLOAD PUSH2 0x310F JUMP JUMPDEST DUP5 PUSH2 0x3147 JUMP JUMPDEST PUSH1 0x20 PUSH1 0x1F DUP3 GT PUSH1 0x1 DUP2 EQ PUSH2 0x31EA JUMPI PUSH0 DUP4 ISZERO PUSH2 0x31D3 JUMPI POP DUP5 DUP3 ADD MLOAD JUMPDEST PUSH0 NOT PUSH1 0x3 DUP6 SWAP1 SHL SHR NOT AND PUSH1 0x1 DUP5 SWAP1 SHL OR DUP5 SSTORE PUSH2 0x1E8E JUMP JUMPDEST PUSH0 DUP5 DUP2 MSTORE PUSH1 0x20 DUP2 KECCAK256 PUSH1 0x1F NOT DUP6 AND SWAP2 JUMPDEST DUP3 DUP2 LT ISZERO PUSH2 0x3219 JUMPI DUP8 DUP6 ADD MLOAD DUP3 SSTORE PUSH1 0x20 SWAP5 DUP6 ADD SWAP5 PUSH1 0x1 SWAP1 SWAP3 ADD SWAP2 ADD PUSH2 0x31F9 JUMP JUMPDEST POP DUP5 DUP3 LT ISZERO PUSH2 0x3236 JUMPI DUP7 DUP5 ADD MLOAD PUSH0 NOT PUSH1 0x3 DUP8 SWAP1 SHL PUSH1 0xF8 AND SHR NOT AND DUP2 SSTORE JUMPDEST POP POP POP POP PUSH1 0x1 SWAP1 DUP2 SHL ADD SWAP1 SSTORE POP JUMP JUMPDEST PUSH1 0x20 DUP1 DUP3 MSTORE PUSH1 0x14 SWAP1 DUP3 ADD MSTORE PUSH20 0x151BDAD95B881251081D1A59185AC81D985B1A59 PUSH1 0x62 SHL PUSH1 0x40 DUP3 ADD MSTORE PUSH1 0x60 ADD SWAP1 JUMP JUMPDEST PUSH4 0x4E487B71 PUSH1 0xE0 SHL PUSH0 MSTORE PUSH1 0x11 PUSH1 0x4 MSTORE PUSH1 0x24 PUSH0 REVERT JUMPDEST DUP2 DUP2 SUB DUP2 DUP2 GT ISZERO PUSH2 0x525 JUMPI PUSH2 0x525 PUSH2 0x3273 JUMP JUMPDEST DUP1 DUP3 ADD DUP1 DUP3 GT ISZERO PUSH2 0x525 JUMPI PUSH2 0x525 PUSH2 0x3273 JUMP JUMPDEST DUP1 DUP3 MUL DUP2 ISZERO DUP3 DUP3 DIV DUP5 EQ OR PUSH2 0x525 JUMPI PUSH2 0x525 PUSH2 0x3273 JUMP JUMPDEST PUSH4 0x4E487B71 PUSH1 0xE0 SHL PUSH0 MSTORE PUSH1 0x12 PUSH1 0x4 MSTORE PUSH1 0x24 PUSH0 REVERT JUMPDEST PUSH0 DUP3 PUSH2 0x32E6 JUMPI PUSH2 0x32E6 PUSH2 0x32C4 JUMP JUMPDEST POP DIV SWAP1 JUMP JUMPDEST PUSH0 DUP3 PUSH2 0x32F9 JUMPI PUSH2 0x32F9 PUSH2 0x32C4 JUMP JUMPDEST POP MOD SWAP1 JUMP JUMPDEST PUSH0 DUP2 MLOAD DUP1 PUSH1 0x20 DUP5 ADD DUP6 MCOPY PUSH0 SWAP4 ADD SWAP3 DUP4 MSTORE POP SWAP1 SWAP2 SWAP1 POP JUMP JUMPDEST PUSH1 0x3 PUSH1 0xFC SHL DUP2 MSTORE PUSH0 PUSH2 0x2A05 PUSH1 0x1 DUP4 ADD DUP5 PUSH2 0x32FE JUMP JUMPDEST PUSH0 PUSH2 0x3335 DUP3 DUP6 PUSH2 0x32FE JUMP JUMPDEST PUSH1 0x17 PUSH1 0xF9 SHL DUP2 MSTORE PUSH2 0x3349 PUSH1 0x1 DUP3 ADD DUP6 PUSH2 0x32FE JUMP JUMPDEST SWAP6 SWAP5 POP POP POP POP POP JUMP JUMPDEST PUSH32 0x3C7376672077696474683D2233323022206865696768743D2234303022207669 DUP2 MSTORE PUSH32 0x6577426F783D2230203020333230203430302220786D6C6E733D22687474703A PUSH1 0x20 DUP3 ADD MSTORE PUSH32 0x2F2F7777772E77332E6F72672F323030302F737667223E000000000000000000 PUSH1 0x40 DUP3 ADD MSTORE PUSH0 PUSH2 0x33D8 PUSH2 0x33D2 PUSH1 0x57 DUP5 ADD DUP7 PUSH2 0x32FE JUMP JUMPDEST DUP5 PUSH2 0x32FE JUMP JUMPDEST PUSH6 0x1E17B9BB339F PUSH1 0xD1 SHL DUP2 MSTORE PUSH1 0x6 ADD SWAP5 SWAP4 POP POP POP POP JUMP JUMPDEST PUSH32 0x7B2274726169745F74797065223A20224E69636B6E616D65222C202276616C75 DUP2 MSTORE PUSH5 0x32911D1011 PUSH1 0xD9 SHL PUSH1 0x20 DUP3 ADD MSTORE PUSH0 PUSH2 0x342E PUSH1 0x25 DUP4 ADD DUP7 PUSH2 0x32FE JUMP JUMPDEST PUSH3 0x89F4B PUSH1 0xEA SHL DUP2 MSTORE PUSH32 0x7B2274726169745F74797065223A20224C616E65222C20202020202276616C75 PUSH1 0x3 DUP3 ADD MSTORE PUSH5 0x32911D1011 PUSH1 0xD9 SHL PUSH1 0x23 DUP3 ADD MSTORE PUSH2 0x3478 PUSH1 0x28 DUP3 ADD DUP7 PUSH2 0x32FE JUMP JUMPDEST PUSH3 0x89F4B PUSH1 0xEA SHL DUP2 MSTORE PUSH32 0x7B2274726169745F74797065223A202247616D6573222C202020202276616C75 PUSH1 0x3 DUP3 ADD MSTORE PUSH4 0x32911D1 PUSH1 0xE5 SHL PUSH1 0x23 DUP3 ADD MSTORE SWAP1 POP PUSH2 0x34C3 PUSH1 0x27 DUP3 ADD DUP6 PUSH2 0x32FE JUMP JUMPDEST PUSH2 0x1F4B PUSH1 0xF2 SHL DUP2 MSTORE PUSH1 0x2 ADD SWAP7 SWAP6 POP POP POP POP POP POP JUMP JUMPDEST PUSH32 0x7B2274726169745F74797065223A20224B696C6C73222C2020202276616C7565 DUP2 MSTORE PUSH3 0x111D1 PUSH1 0xED SHL PUSH1 0x20 DUP3 ADD MSTORE PUSH0 PUSH2 0x3515 PUSH1 0x23 DUP4 ADD DUP7 PUSH2 0x32FE JUMP JUMPDEST PUSH2 0x1F4B PUSH1 0xF2 SHL DUP2 MSTORE PUSH32 0x7B2274726169745F74797065223A2022446561746873222C20202276616C7565 PUSH1 0x2 DUP3 ADD MSTORE PUSH3 0x111D1 PUSH1 0xED SHL PUSH1 0x22 DUP3 ADD MSTORE PUSH2 0x355C PUSH1 0x25 DUP3 ADD DUP7 PUSH2 0x32FE JUMP JUMPDEST PUSH2 0x1F4B PUSH1 0xF2 SHL DUP2 MSTORE PUSH32 0x7B2274726169745F74797065223A202241737369737473222C202276616C7565 PUSH1 0x2 DUP3 ADD MSTORE PUSH3 0x111D1 PUSH1 0xED SHL PUSH1 0x22 DUP3 ADD MSTORE SWAP1 POP PUSH2 0x35A5 PUSH1 0x25 DUP3 ADD DUP6 PUSH2 0x32FE JUMP JUMPDEST PUSH1 0x7D PUSH1 0xF8 SHL DUP2 MSTORE PUSH1 0x1 ADD SWAP7 SWAP6 POP POP POP POP POP POP JUMP JUMPDEST PUSH20 0x7B226E616D65223A20224D504C20436172642023 PUSH1 0x60 SHL DUP2 MSTORE PUSH0 PUSH2 0x35E1 PUSH1 0x14 DUP4 ADD DUP8 PUSH2 0x32FE JUMP JUMPDEST PUSH3 0x11161 PUSH1 0xED SHL DUP2 MSTORE PUSH32 0x226465736372697074696F6E223A20224B6172747520644E4654204D504C2049 PUSH1 0x3 DUP3 ADD MSTORE PUSH32 0x6E646F6E657369612E2053746174697374696B2070656D61696E206469706572 PUSH1 0x23 DUP3 ADD MSTORE PUSH32 0x626172756920736563617261207265616C2D74696D6520646172692041504920 PUSH1 0x43 DUP3 ADD MSTORE PUSH32 0x6D656C616C756920436861696E6C696E6B2046756E6374696F6E732E20566572 PUSH1 0x63 DUP3 ADD MSTORE PUSH32 0x73692070656D62616E64696E6720756E74756B20616E616C6973697320676173 PUSH1 0x83 DUP3 ADD MSTORE PUSH9 0x1031B7B9BA1711161 PUSH1 0xBD SHL PUSH1 0xA3 DUP3 ADD MSTORE PUSH15 0x2261747472696275746573223A205B PUSH1 0x88 SHL PUSH1 0xAC DUP3 ADD MSTORE PUSH2 0x36E8 PUSH2 0x36E2 PUSH1 0xBB DUP4 ADD DUP9 PUSH2 0x32FE JUMP JUMPDEST DUP7 PUSH2 0x32FE JUMP JUMPDEST PUSH3 0x2E961 PUSH1 0xED SHL DUP2 MSTORE SWAP1 POP PUSH32 0x22696D616765223A2022646174613A696D6167652F7376672B786D6C3B626173 PUSH1 0x3 DUP3 ADD MSTORE PUSH4 0x194D8D0B PUSH1 0xE2 SHL PUSH1 0x23 DUP3 ADD MSTORE PUSH2 0x3734 PUSH1 0x27 DUP3 ADD JUMPDEST DUP6 PUSH2 0x32FE JUMP JUMPDEST PUSH2 0x227D PUSH1 0xF0 SHL DUP2 MSTORE PUSH1 0x2 ADD SWAP8 SWAP7 POP POP POP POP POP POP POP JUMP JUMPDEST PUSH32 0x646174613A6170706C69636174696F6E2F6A736F6E3B6261736536342C000000 DUP2 MSTORE PUSH0 PUSH2 0x2A05 PUSH1 0x1D DUP4 ADD DUP5 PUSH2 0x32FE JUMP JUMPDEST PUSH0 PUSH1 0x1 DUP3 ADD PUSH2 0x378C JUMPI PUSH2 0x378C PUSH2 0x3273 JUMP JUMPDEST POP PUSH1 0x1 ADD SWAP1 JUMP JUMPDEST PUSH0 PUSH1 0x20 DUP3 DUP5 SUB SLT ISZERO PUSH2 0x37A3 JUMPI PUSH0 PUSH0 REVERT JUMPDEST POP MLOAD SWAP2 SWAP1 POP JUMP JUMPDEST PUSH4 0x4E487B71 PUSH1 0xE0 SHL PUSH0 MSTORE PUSH1 0x32 PUSH1 0x4 MSTORE PUSH1 0x24 PUSH0 REVERT JUMPDEST PUSH32 0x3C672073686170652D72656E646572696E673D2263726973704564676573223E DUP2 MSTORE PUSH32 0x3C7265637420783D22302220793D2230222077696474683D2233323022206865 PUSH1 0x20 DUP3 ADD MSTORE PUSH32 0x696768743D22343030222066696C6C3D2223306231303165222F3E0000000000 PUSH1 0x40 DUP3 ADD MSTORE PUSH32 0x3C7265637420783D22382220793D2238222077696474683D2233303422206865 PUSH1 0x5B DUP3 ADD DUP2 SWAP1 MSTORE PUSH32 0x696768743D22333834222066696C6C3D2223313431653333222F3E0000000000 PUSH1 0x7B DUP4 ADD MSTORE PUSH1 0x96 DUP3 ADD MSTORE PUSH32 0x696768743D22333834222066696C6C3D226E6F6E6522207374726F6B653D2223 PUSH1 0xB6 DUP3 ADD MSTORE PUSH32 0x30306630666622207374726F6B652D77696474683D22312E35222072783D2232 PUSH1 0xD6 DUP3 ADD MSTORE PUSH3 0x11179F PUSH1 0xE9 SHL PUSH1 0xF6 DUP3 ADD MSTORE PUSH32 0x3C7465787420783D223136302220793D223336222066696C6C3D222330306630 PUSH1 0xF9 DUP3 ADD SWAP1 DUP2 MSTORE PUSH32 0x66662220666F6E742D73697A653D2231362220746578742D616E63686F723D22 PUSH2 0x119 DUP4 ADD MSTORE PUSH32 0x6D6964646C652220666F6E742D7765696768743D22626F6C642220666F6E742D PUSH2 0x139 DUP4 ADD MSTORE PUSH32 0x66616D696C793D226D6F6E6F7370616365223E4D504C20504C41594552204341 PUSH2 0x159 DUP4 ADD MSTORE PUSH9 0x29221E17BA32BC3A1F PUSH1 0xB9 SHL PUSH2 0x179 DUP4 ADD MSTORE PUSH0 SWAP1 PUSH2 0x182 DUP4 ADD PUSH2 0x39F5 DUP2 PUSH32 0x3C6C696E652078313D223230222079313D223530222078323D22333030222079 DUP2 MSTORE PUSH32 0x323D22353022207374726F6B653D222330306630666622207374726F6B652D77 PUSH1 0x20 DUP3 ADD MSTORE PUSH10 0x34B23A341E911911179F PUSH1 0xB1 SHL PUSH1 0x40 DUP3 ADD MSTORE PUSH1 0x4A ADD SWAP1 JUMP JUMPDEST SWAP2 POP POP PUSH2 0x3A08 DUP2 PUSH4 0x1E17B39F PUSH1 0xE1 SHL SWAP1 MSTORE JUMP JUMPDEST PUSH32 0x3C73766720783D2231302220793D223330222077696474683D22313430222068 PUSH1 0x4 DUP3 ADD MSTORE PUSH32 0x65696768743D22333830222076696577426F783D223020302033322033322220 PUSH1 0x24 DUP3 ADD MSTORE PUSH32 0x73686170652D72656E646572696E673D2263726973704564676573223E2E2E2E PUSH1 0x44 DUP3 ADD MSTORE PUSH6 0x1E17B9BB339F PUSH1 0xD1 SHL PUSH1 0x64 DUP3 ADD MSTORE PUSH1 0x6A DUP2 ADD PUSH2 0x2A05 JUMP JUMPDEST PUSH32 0x3C67207472616E73666F726D3D227472616E736C617465283138302C20393529 DUP2 MSTORE PUSH32 0x222073686170652D72656E646572696E673D2263726973704564676573223E00 PUSH1 0x20 DUP3 ADD MSTORE PUSH32 0x3C7465787420783D222D33302220793D223230222066696C6C3D220000000000 PUSH1 0x3F DUP3 ADD MSTORE PUSH0 PUSH2 0x3B0F PUSH1 0x5A DUP4 ADD DUP10 PUSH2 0x32FE JUMP JUMPDEST PUSH0 MLOAD PUSH1 0x20 PUSH2 0x43E3 PUSH0 CODECOPY PUSH0 MLOAD SWAP1 PUSH0 MSTORE DUP2 MSTORE PUSH32 0x6E6F7370616365223E504C41594552204E414D453A3C2F746578743E00000000 PUSH1 0x20 DUP3 ADD MSTORE PUSH32 0x3C7465787420783D222D33302220793D223436222066696C6C3D222365636630 PUSH1 0x3C DUP3 ADD MSTORE PUSH32 0x66312220666F6E742D73697A653D2232302220666F6E742D7765696768743D22 PUSH1 0x5C DUP3 ADD MSTORE PUSH32 0x626F6C642220666F6E742D66616D696C793D226D6F6E6F7370616365223E0000 PUSH1 0x7C DUP3 ADD MSTORE PUSH2 0x3BC5 PUSH1 0x9A DUP3 ADD JUMPDEST DUP10 PUSH2 0x32FE JUMP JUMPDEST PUSH7 0x1E17BA32BC3A1F PUSH1 0xC9 SHL DUP2 MSTORE SWAP1 POP PUSH32 0x3C6C696E652078313D222D3235222079313D223638222078323D223132302220 PUSH1 0x7 DUP3 ADD MSTORE PUSH32 0x79323D22363822207374726F6B653D222335353522207374726F6B652D776964 PUSH1 0x27 DUP3 ADD MSTORE PUSH32 0x74683D223322207374726F6B652D6461736861727261793D22382C36222F3E00 PUSH1 0x47 DUP3 ADD MSTORE PUSH1 0x66 DUP2 ADD PUSH32 0x3C7465787420783D222D33302220793D22393222202066696C6C3D2200000000 DUP2 MSTORE SWAP1 POP PUSH2 0x3D16 PUSH2 0x3D10 PUSH2 0x3CC1 PUSH2 0x3C85 PUSH1 0x1C DUP6 ADD DUP12 PUSH2 0x32FE JUMP JUMPDEST PUSH0 MLOAD PUSH1 0x20 PUSH2 0x43E3 PUSH0 CODECOPY PUSH0 MLOAD SWAP1 PUSH0 MSTORE DUP2 MSTORE PUSH32 0x6E6F7370616365223E4C414E452020203A3C2F746578743E0000000000000000 PUSH1 0x20 DUP3 ADD MSTORE PUSH1 0x38 ADD SWAP1 JUMP JUMPDEST PUSH32 0x3C7465787420783D223132302220793D22393222202066696C6C3D2223656366 DUP2 MSTORE PUSH0 MLOAD PUSH1 0x20 PUSH2 0x43C3 PUSH0 CODECOPY PUSH0 MLOAD SWAP1 PUSH0 MSTORE PUSH1 0x20 DUP3 ADD MSTORE PUSH0 MLOAD PUSH1 0x20 PUSH2 0x43A3 PUSH0 CODECOPY PUSH0 MLOAD SWAP1 PUSH0 MSTORE PUSH1 0x40 DUP3 ADD MSTORE PUSH1 0x5E ADD SWAP1 JUMP JUMPDEST DUP8 PUSH2 0x32FE JUMP JUMPDEST PUSH7 0x1E17BA32BC3A1F PUSH1 0xC9 SHL DUP2 MSTORE SWAP1 POP PUSH32 0x3C7465787420783D222D33302220793D22313136222066696C6C3D2200000000 PUSH1 0x7 DUP3 ADD MSTORE PUSH2 0x3DEC PUSH2 0x372E PUSH2 0x3D9D PUSH2 0x3D61 PUSH1 0x23 DUP6 ADD DUP10 PUSH2 0x32FE JUMP JUMPDEST PUSH0 MLOAD PUSH1 0x20 PUSH2 0x43E3 PUSH0 CODECOPY PUSH0 MLOAD SWAP1 PUSH0 MSTORE DUP2 MSTORE PUSH32 0x6E6F7370616365223E47414D455320203A3C2F746578743E0000000000000000 PUSH1 0x20 DUP3 ADD MSTORE PUSH1 0x38 ADD SWAP1 JUMP JUMPDEST PUSH32 0x3C7465787420783D223132302220793D22313136222066696C6C3D2223656366 DUP2 MSTORE PUSH0 MLOAD PUSH1 0x20 PUSH2 0x43C3 PUSH0 CODECOPY PUSH0 MLOAD SWAP1 PUSH0 MSTORE PUSH1 0x20 DUP3 ADD MSTORE PUSH0 MLOAD PUSH1 0x20 PUSH2 0x43A3 PUSH0 CODECOPY PUSH0 MLOAD SWAP1 PUSH0 MSTORE PUSH1 0x40 DUP3 ADD MSTORE PUSH1 0x5E ADD SWAP1 JUMP JUMPDEST PUSH7 0x1E17BA32BC3A1F PUSH1 0xC9 SHL DUP2 MSTORE PUSH1 0x7 ADD SWAP10 SWAP9 POP POP POP POP POP POP POP POP POP JUMP JUMPDEST PUSH32 0x3C7465787420783D222D33302220793D22313430222066696C6C3D2200000000 DUP2 MSTORE PUSH0 PUSH2 0x3E3A PUSH1 0x1C DUP4 ADD DUP12 PUSH2 0x32FE JUMP JUMPDEST PUSH0 MLOAD PUSH1 0x20 PUSH2 0x43E3 PUSH0 CODECOPY PUSH0 MLOAD SWAP1 PUSH0 MSTORE DUP2 MSTORE PUSH32 0x6E6F7370616365223E4B494C4C5320203A3C2F746578743E0000000000000000 PUSH1 0x20 DUP3 ADD MSTORE PUSH32 0x3C7465787420783D223132302220793D22313430222066696C6C3D2223656366 PUSH1 0x38 DUP3 ADD MSTORE PUSH0 MLOAD PUSH1 0x20 PUSH2 0x43C3 PUSH0 CODECOPY PUSH0 MLOAD SWAP1 PUSH0 MSTORE PUSH1 0x58 DUP3 ADD MSTORE PUSH0 MLOAD PUSH1 0x20 PUSH2 0x43A3 PUSH0 CODECOPY PUSH0 MLOAD SWAP1 PUSH0 MSTORE PUSH1 0x78 DUP3 ADD MSTORE PUSH2 0x3EC9 PUSH1 0x96 DUP3 ADD DUP12 PUSH2 0x32FE JUMP JUMPDEST PUSH7 0x1E17BA32BC3A1F PUSH1 0xC9 SHL DUP2 MSTORE SWAP1 POP PUSH32 0x3C7465787420783D222D33302220793D22313634222066696C6C3D2200000000 PUSH1 0x7 DUP3 ADD MSTORE PUSH2 0x3F9F PUSH2 0x3BBF PUSH2 0x3F50 PUSH2 0x3F14 PUSH1 0x23 DUP6 ADD DUP14 PUSH2 0x32FE JUMP JUMPDEST PUSH0 MLOAD PUSH1 0x20 PUSH2 0x43E3 PUSH0 CODECOPY PUSH0 MLOAD SWAP1 PUSH0 MSTORE DUP2 MSTORE PUSH32 0x6E6F7370616365223E444541544853203A3C2F746578743E0000000000000000 PUSH1 0x20 DUP3 ADD MSTORE PUSH1 0x38 ADD SWAP1 JUMP JUMPDEST PUSH32 0x3C7465787420783D223132302220793D22313634222066696C6C3D2223656366 DUP2 MSTORE PUSH0 MLOAD PUSH1 0x20 PUSH2 0x43C3 PUSH0 CODECOPY PUSH0 MLOAD SWAP1 PUSH0 MSTORE PUSH1 0x20 DUP3 ADD MSTORE PUSH0 MLOAD PUSH1 0x20 PUSH2 0x43A3 PUSH0 CODECOPY PUSH0 MLOAD SWAP1 PUSH0 MSTORE PUSH1 0x40 DUP3 ADD MSTORE PUSH1 0x5E ADD SWAP1 JUMP JUMPDEST PUSH7 0x1E17BA32BC3A1F PUSH1 0xC9 SHL DUP2 MSTORE SWAP1 POP PUSH32 0x3C7465787420783D222D33302220793D22313838222066696C6C3D2200000000 PUSH1 0x7 DUP3 ADD MSTORE PUSH2 0x4075 PUSH2 0x3D10 PUSH2 0x4026 PUSH2 0x3FEA PUSH1 0x23 DUP6 ADD DUP12 PUSH2 0x32FE JUMP JUMPDEST PUSH0 MLOAD PUSH1 0x20 PUSH2 0x43E3 PUSH0 CODECOPY PUSH0 MLOAD SWAP1 PUSH0 MSTORE DUP2 MSTORE PUSH32 0x6E6F7370616365223E415353495354533A3C2F746578743E0000000000000000 PUSH1 0x20 DUP3 ADD MSTORE PUSH1 0x38 ADD SWAP1 JUMP JUMPDEST PUSH32 0x3C7465787420783D223132302220793D22313838222066696C6C3D2223656366 DUP2 MSTORE PUSH0 MLOAD PUSH1 0x20 PUSH2 0x43C3 PUSH0 CODECOPY PUSH0 MLOAD SWAP1 PUSH0 MSTORE PUSH1 0x20 DUP3 ADD MSTORE PUSH0 MLOAD PUSH1 0x20 PUSH2 0x43A3 PUSH0 CODECOPY PUSH0 MLOAD SWAP1 PUSH0 MSTORE PUSH1 0x40 DUP3 ADD MSTORE PUSH1 0x5E ADD SWAP1 JUMP JUMPDEST PUSH7 0x1E17BA32BC3A1F PUSH1 0xC9 SHL DUP2 MSTORE SWAP1 POP PUSH32 0x3C7465787420783D222D33302220793D22323132222066696C6C3D2200000000 PUSH1 0x7 DUP3 ADD MSTORE PUSH2 0x414B PUSH2 0x372E PUSH2 0x40FC PUSH2 0x40C0 PUSH1 0x23 DUP6 ADD DUP10 PUSH2 0x32FE JUMP JUMPDEST PUSH0 MLOAD PUSH1 0x20 PUSH2 0x43E3 PUSH0 CODECOPY PUSH0 MLOAD SWAP1 PUSH0 MSTORE DUP2 MSTORE PUSH32 0x6E6F7370616365223E4B4441202020203A3C2F746578743E0000000000000000 PUSH1 0x20 DUP3 ADD MSTORE PUSH1 0x38 ADD SWAP1 JUMP JUMPDEST PUSH32 0x3C7465787420783D223132302220793D22323132222066696C6C3D2223656366 DUP2 MSTORE PUSH0 MLOAD PUSH1 0x20 PUSH2 0x43C3 PUSH0 CODECOPY PUSH0 MLOAD SWAP1 PUSH0 MSTORE PUSH1 0x20 DUP3 ADD MSTORE PUSH0 MLOAD PUSH1 0x20 PUSH2 0x43A3 PUSH0 CODECOPY PUSH0 MLOAD SWAP1 PUSH0 MSTORE PUSH1 0x40 DUP3 ADD MSTORE PUSH1 0x5E ADD SWAP1 JUMP JUMPDEST PUSH7 0x1E17BA32BC3A1F PUSH1 0xC9 SHL DUP2 MSTORE PUSH32 0x3C6C696E652078313D222D3330222079313D22323238222078323D2231323022 PUSH1 0x7 DUP3 ADD MSTORE PUSH32 0x2079323D2232323822207374726F6B653D222335353522207374726F6B652D77 PUSH1 0x27 DUP3 ADD MSTORE PUSH32 0x696474683D223322207374726F6B652D6461736861727261793D22382C36222F PUSH1 0x47 DUP3 ADD MSTORE PUSH1 0x1F PUSH1 0xF9 SHL PUSH1 0x67 DUP3 ADD MSTORE PUSH4 0x1E17B39F PUSH1 0xE1 SHL PUSH1 0x68 DUP3 ADD MSTORE PUSH1 0x6C ADD SWAP12 SWAP11 POP POP POP POP POP POP POP POP POP POP POP JUMP JUMPDEST PUSH0 PUSH2 0x26B1 PUSH2 0x33D2 DUP4 DUP7 PUSH2 0x32FE JUMP JUMPDEST PUSH1 0x1 PUSH1 0x1 PUSH1 0xA0 SHL SUB DUP6 DUP2 AND DUP3 MSTORE DUP5 AND PUSH1 0x20 DUP3 ADD MSTORE PUSH1 0x40 DUP2 ADD DUP4 SWAP1 MSTORE PUSH1 0x80 PUSH1 0x60 DUP3 ADD DUP2 SWAP1 MSTORE PUSH0 SWAP1 PUSH2 0x4233 SWAP1 DUP4 ADD DUP5 PUSH2 0x2D26 JUMP JUMPDEST SWAP7 SWAP6 POP POP POP POP POP POP JUMP JUMPDEST PUSH0 PUSH1 0x20 DUP3 DUP5 SUB SLT ISZERO PUSH2 0x424D JUMPI PUSH0 PUSH0 REVERT JUMPDEST DUP2 MLOAD PUSH2 0x2A05 DUP2 PUSH2 0x2CF6 JUMP JUMPDEST PUSH4 0x4E487B71 PUSH1 0xE0 SHL PUSH0 MSTORE PUSH1 0x21 PUSH1 0x4 MSTORE PUSH1 0x24 PUSH0 REVERT JUMPDEST PUSH1 0x1 PUSH1 0x1 PUSH1 0x40 SHL SUB DUP7 AND DUP2 MSTORE PUSH1 0xA0 PUSH1 0x20 DUP3 ADD MSTORE PUSH0 PUSH2 0x428D PUSH1 0xA0 DUP4 ADD DUP8 PUSH2 0x2D26 JUMP JUMPDEST PUSH2 0xFFFF SWAP6 SWAP1 SWAP6 AND PUSH1 0x40 DUP4 ADD MSTORE POP PUSH4 0xFFFFFFFF SWAP3 SWAP1 SWAP3 AND PUSH1 0x60 DUP4 ADD MSTORE PUSH1 0x80 SWAP1 SWAP2 ADD MSTORE SWAP3 SWAP2 POP POP JUMP JUMPDEST PUSH1 0x1 DUP2 JUMPDEST PUSH1 0x1 DUP5 GT ISZERO PUSH2 0x42EF JUMPI DUP1 DUP6 DIV DUP2 GT ISZERO PUSH2 0x42D3 JUMPI PUSH2 0x42D3 PUSH2 0x3273 JUMP JUMPDEST PUSH1 0x1 DUP5 AND ISZERO PUSH2 0x42E1 JUMPI SWAP1 DUP2 MUL SWAP1 JUMPDEST PUSH1 0x1 SWAP4 SWAP1 SWAP4 SHR SWAP3 DUP1 MUL PUSH2 0x42B8 JUMP JUMPDEST SWAP4 POP SWAP4 SWAP2 POP POP JUMP JUMPDEST PUSH0 DUP3 PUSH2 0x4305 JUMPI POP PUSH1 0x1 PUSH2 0x525 JUMP JUMPDEST DUP2 PUSH2 0x4311 JUMPI POP PUSH0 PUSH2 0x525 JUMP JUMPDEST DUP2 PUSH1 0x1 DUP2 EQ PUSH2 0x4327 JUMPI PUSH1 0x2 DUP2 EQ PUSH2 0x4331 JUMPI PUSH2 0x434D JUMP JUMPDEST PUSH1 0x1 SWAP2 POP POP PUSH2 0x525 JUMP JUMPDEST PUSH1 0xFF DUP5 GT ISZERO PUSH2 0x4342 JUMPI PUSH2 0x4342 PUSH2 0x3273 JUMP JUMPDEST POP POP PUSH1 0x1 DUP3 SHL PUSH2 0x525 JUMP JUMPDEST POP PUSH1 0x20 DUP4 LT PUSH2 0x133 DUP4 LT AND PUSH1 0x4E DUP5 LT PUSH1 0xB DUP5 LT AND OR ISZERO PUSH2 0x4370 JUMPI POP DUP2 DUP2 EXP PUSH2 0x525 JUMP JUMPDEST PUSH2 0x437C PUSH0 NOT DUP5 DUP5 PUSH2 0x42B4 JUMP JUMPDEST DUP1 PUSH0 NOT DIV DUP3 GT ISZERO PUSH2 0x438F JUMPI PUSH2 0x438F PUSH2 0x3273 JUMP JUMPDEST MUL SWAP4 SWAP3 POP POP POP JUMP JUMPDEST PUSH0 PUSH2 0x2A05 DUP4 DUP4 PUSH2 0x42F7 JUMP INVALID 0x22 PUSH6 0x6E642220666F PUSH15 0x742D66616D696C793D226D6F6E6F73 PUSH17 0x616365223E00003066312220666F6E742D PUSH20 0x697A653D2231332220746578742D616E63686F72 RETURNDATASIZE 0x22 KECCAK256 PUSH7 0x6F6E742D73697A PUSH6 0x3D2231332220 PUSH7 0x6F6E742D66616D PUSH10 0x6C793D226D6FA2646970 PUSH7 0x73582212204930 LOG1 PC DUP16 MOD SHR 0xDF DUP14 LOG0 0xDD CALLER RJUMPI 0x856F 0xDC STOP MULMOD PUSH24 0x52555E9341D9C2D6E38772A5F464736F6C634300081E0033 "
		},
		"gasEstimates": {
			"creation": {
				"codeDepositCost": "3492800",
				"executionCost": "infinite",
				"totalCost": "infinite"
			},
			"external": {
				"MINIMUM_INTERVAL()": "260",
				"approve(address,uint256)": "31486",
				"balanceOf(address)": "2630",
				"checkUpkeep(bytes)": "infinite",
				"generateSVG(uint256)": "infinite",
				"getApproved(uint256)": "infinite",
				"getPlayerData(uint256)": "infinite",
				"handleOracleFulfillment(bytes32,bytes,bytes)": "infinite",
				"interval()": "2405",
				"isApprovedForAll(address,address)": "infinite",
				"lastTimeStamp()": "2361",
				"name()": "infinite",
				"owner()": "2419",
				"ownerOf(uint256)": "infinite",
				"performUpkeep(bytes)": "infinite",
				"renounceOwnership()": "infinite",
				"requestStatsUpdate(uint256)": "infinite",
				"s_playerData(uint256)": "infinite",
				"s_requestExists(bytes32)": "2504",
				"s_requestToTokenId(bytes32)": "2503",
				"safeMint(address,string,string)": "infinite",
				"safeTransferFrom(address,address,uint256)": "infinite",
				"safeTransferFrom(address,address,uint256,bytes)": "infinite",
				"setApprovalForAll(address,bool)": "26757",
				"setAutomationSettings(uint256,uint256)": "52322",
				"setSourceCode(string)": "infinite",
				"sourceCode()": "infinite",
				"subscriptionId()": "2404",
				"supportsInterface(bytes4)": "infinite",
				"symbol()": "infinite",
				"targetTokenIdToUpdate()": "2427",
				"tokenURI(uint256)": "infinite",
				"totalSupply()": "2326",
				"transferFrom(address,address,uint256)": "infinite",
				"transferOwnership(address)": "28465"
			},
			"internal": {
				"_requestStatsInternal(uint256,string memory)": "infinite",
				"_svgPart1()": "infinite",
				"_svgPart2(struct PlayerCard_NonLayered.PlayerData memory,string memory)": "infinite",
				"fulfillRequest(bytes32,bytes memory,bytes memory)": "infinite"
			}
		},
		"methodIdentifiers": {
			"MINIMUM_INTERVAL()": "e049d709",
			"approve(address,uint256)": "095ea7b3",
			"balanceOf(address)": "70a08231",
			"checkUpkeep(bytes)": "6e04ff0d",
			"generateSVG(uint256)": "6dcee4ca",
			"getApproved(uint256)": "081812fc",
			"getPlayerData(uint256)": "5c2adf6a",
			"handleOracleFulfillment(bytes32,bytes,bytes)": "0ca76175",
			"interval()": "947a36fb",
			"isApprovedForAll(address,address)": "e985e9c5",
			"lastTimeStamp()": "3f3b3b27",
			"name()": "06fdde03",
			"owner()": "8da5cb5b",
			"ownerOf(uint256)": "6352211e",
			"performUpkeep(bytes)": "4585e33b",
			"renounceOwnership()": "715018a6",
			"requestStatsUpdate(uint256)": "2839b78f",
			"s_playerData(uint256)": "b4cfae44",
			"s_requestExists(bytes32)": "20457fb6",
			"s_requestToTokenId(bytes32)": "68015a4b",
			"safeMint(address,string,string)": "eca81d42",
			"safeTransferFrom(address,address,uint256)": "42842e0e",
			"safeTransferFrom(address,address,uint256,bytes)": "b88d4fde",
			"setApprovalForAll(address,bool)": "a22cb465",
			"setAutomationSettings(uint256,uint256)": "22e817e2",
			"setSourceCode(string)": "00b46767",
			"sourceCode()": "13c60177",
			"subscriptionId()": "09c1ba2e",
			"supportsInterface(bytes4)": "01ffc9a7",
			"symbol()": "95d89b41",
			"targetTokenIdToUpdate()": "94881476",
			"tokenURI(uint256)": "c87b56dd",
			"totalSupply()": "18160ddd",
			"transferFrom(address,address,uint256)": "23b872dd",
			"transferOwnership(address)": "f2fde38b"
		}
	},
	"abi": [
		{
			"inputs": [
				{
					"internalType": "uint64",
					"name": "_subscriptionId",
					"type": "uint64"
				}
			],
			"stateMutability": "nonpayable",
			"type": "constructor"
		},
		{
			"inputs": [
				{
					"internalType": "address",
					"name": "sender",
					"type": "address"
				},
				{
					"internalType": "uint256",
					"name": "tokenId",
					"type": "uint256"
				},
				{
					"internalType": "address",
					"name": "owner",
					"type": "address"
				}
			],
			"name": "ERC721IncorrectOwner",
			"type": "error"
		},
		{
			"inputs": [
				{
					"internalType": "address",
					"name": "operator",
					"type": "address"
				},
				{
					"internalType": "uint256",
					"name": "tokenId",
					"type": "uint256"
				}
			],
			"name": "ERC721InsufficientApproval",
			"type": "error"
		},
		{
			"inputs": [
				{
					"internalType": "address",
					"name": "approver",
					"type": "address"
				}
			],
			"name": "ERC721InvalidApprover",
			"type": "error"
		},
		{
			"inputs": [
				{
					"internalType": "address",
					"name": "operator",
					"type": "address"
				}
			],
			"name": "ERC721InvalidOperator",
			"type": "error"
		},
		{
			"inputs": [
				{
					"internalType": "address",
					"name": "owner",
					"type": "address"
				}
			],
			"name": "ERC721InvalidOwner",
			"type": "error"
		},
		{
			"inputs": [
				{
					"internalType": "address",
					"name": "receiver",
					"type": "address"
				}
			],
			"name": "ERC721InvalidReceiver",
			"type": "error"
		},
		{
			"inputs": [
				{
					"internalType": "address",
					"name": "sender",
					"type": "address"
				}
			],
			"name": "ERC721InvalidSender",
			"type": "error"
		},
		{
			"inputs": [
				{
					"internalType": "uint256",
					"name": "tokenId",
					"type": "uint256"
				}
			],
			"name": "ERC721NonexistentToken",
			"type": "error"
		},
		{
			"inputs": [],
			"name": "EmptyArgs",
			"type": "error"
		},
		{
			"inputs": [],
			"name": "EmptySource",
			"type": "error"
		},
		{
			"inputs": [
				{
					"internalType": "uint256",
					"name": "provided",
					"type": "uint256"
				},
				{
					"internalType": "uint256",
					"name": "minimum",
					"type": "uint256"
				}
			],
			"name": "IntervalTooShort",
			"type": "error"
		},
		{
			"inputs": [],
			"name": "NoInlineSecrets",
			"type": "error"
		},
		{
			"inputs": [],
			"name": "NoTokensMinted",
			"type": "error"
		},
		{
			"inputs": [],
			"name": "OnlyRouterCanFulfill",
			"type": "error"
		},
		{
			"inputs": [
				{
					"internalType": "bytes",
					"name": "err",
					"type": "bytes"
				}
			],
			"name": "OracleError",
			"type": "error"
		},
		{
			"inputs": [
				{
					"internalType": "address",
					"name": "owner",
					"type": "address"
				}
			],
			"name": "OwnableInvalidOwner",
			"type": "error"
		},
		{
			"inputs": [
				{
					"internalType": "address",
					"name": "account",
					"type": "address"
				}
			],
			"name": "OwnableUnauthorizedAccount",
			"type": "error"
		},
		{
			"inputs": [
				{
					"internalType": "bytes32",
					"name": "requestId",
					"type": "bytes32"
				}
			],
			"name": "UnknownRequestId",
			"type": "error"
		},
		{
			"anonymous": false,
			"inputs": [
				{
					"indexed": true,
					"internalType": "address",
					"name": "owner",
					"type": "address"
				},
				{
					"indexed": true,
					"internalType": "address",
					"name": "approved",
					"type": "address"
				},
				{
					"indexed": true,
					"internalType": "uint256",
					"name": "tokenId",
					"type": "uint256"
				}
			],
			"name": "Approval",
			"type": "event"
		},
		{
			"anonymous": false,
			"inputs": [
				{
					"indexed": true,
					"internalType": "address",
					"name": "owner",
					"type": "address"
				},
				{
					"indexed": true,
					"internalType": "address",
					"name": "operator",
					"type": "address"
				},
				{
					"indexed": false,
					"internalType": "bool",
					"name": "approved",
					"type": "bool"
				}
			],
			"name": "ApprovalForAll",
			"type": "event"
		},
		{
			"anonymous": false,
			"inputs": [
				{
					"indexed": false,
					"internalType": "uint256",
					"name": "newInterval",
					"type": "uint256"
				},
				{
					"indexed": false,
					"internalType": "uint256",
					"name": "newTargetTokenId",
					"type": "uint256"
				}
			],
			"name": "AutomationSettingsChanged",
			"type": "event"
		},
		{
			"anonymous": false,
			"inputs": [
				{
					"indexed": false,
					"internalType": "uint256",
					"name": "_fromTokenId",
					"type": "uint256"
				},
				{
					"indexed": false,
					"internalType": "uint256",
					"name": "_toTokenId",
					"type": "uint256"
				}
			],
			"name": "BatchMetadataUpdate",
			"type": "event"
		},
		{
			"anonymous": false,
			"inputs": [
				{
					"indexed": false,
					"internalType": "uint256",
					"name": "_tokenId",
					"type": "uint256"
				}
			],
			"name": "MetadataUpdate",
			"type": "event"
		},
		{
			"anonymous": false,
			"inputs": [
				{
					"indexed": true,
					"internalType": "address",
					"name": "previousOwner",
					"type": "address"
				},
				{
					"indexed": true,
					"internalType": "address",
					"name": "newOwner",
					"type": "address"
				}
			],
			"name": "OwnershipTransferred",
			"type": "event"
		},
		{
			"anonymous": false,
			"inputs": [
				{
					"indexed": true,
					"internalType": "uint256",
					"name": "tokenId",
					"type": "uint256"
				},
				{
					"indexed": false,
					"internalType": "uint64",
					"name": "games",
					"type": "uint64"
				},
				{
					"indexed": false,
					"internalType": "uint64",
					"name": "kills",
					"type": "uint64"
				},
				{
					"indexed": false,
					"internalType": "uint64",
					"name": "deaths",
					"type": "uint64"
				},
				{
					"indexed": false,
					"internalType": "uint64",
					"name": "assists",
					"type": "uint64"
				},
				{
					"indexed": false,
					"internalType": "uint256",
					"name": "timestamp",
					"type": "uint256"
				}
			],
			"name": "PlayerStatsUpdated",
			"type": "event"
		},
		{
			"anonymous": false,
			"inputs": [
				{
					"indexed": true,
					"internalType": "bytes32",
					"name": "id",
					"type": "bytes32"
				}
			],
			"name": "RequestFulfilled",
			"type": "event"
		},
		{
			"anonymous": false,
			"inputs": [
				{
					"indexed": true,
					"internalType": "bytes32",
					"name": "id",
					"type": "bytes32"
				}
			],
			"name": "RequestSent",
			"type": "event"
		},
		{
			"anonymous": false,
			"inputs": [
				{
					"indexed": true,
					"internalType": "uint256",
					"name": "tokenId",
					"type": "uint256"
				},
				{
					"indexed": true,
					"internalType": "bytes32",
					"name": "requestId",
					"type": "bytes32"
				},
				{
					"indexed": false,
					"internalType": "string",
					"name": "nickname",
					"type": "string"
				}
			],
			"name": "StatsRequested",
			"type": "event"
		},
		{
			"anonymous": false,
			"inputs": [
				{
					"indexed": true,
					"internalType": "address",
					"name": "from",
					"type": "address"
				},
				{
					"indexed": true,
					"internalType": "address",
					"name": "to",
					"type": "address"
				},
				{
					"indexed": true,
					"internalType": "uint256",
					"name": "tokenId",
					"type": "uint256"
				}
			],
			"name": "Transfer",
			"type": "event"
		},
		{
			"inputs": [],
			"name": "MINIMUM_INTERVAL",
			"outputs": [
				{
					"internalType": "uint256",
					"name": "",
					"type": "uint256"
				}
			],
			"stateMutability": "view",
			"type": "function"
		},
		{
			"inputs": [
				{
					"internalType": "address",
					"name": "to",
					"type": "address"
				},
				{
					"internalType": "uint256",
					"name": "tokenId",
					"type": "uint256"
				}
			],
			"name": "approve",
			"outputs": [],
			"stateMutability": "nonpayable",
			"type": "function"
		},
		{
			"inputs": [
				{
					"internalType": "address",
					"name": "owner",
					"type": "address"
				}
			],
			"name": "balanceOf",
			"outputs": [
				{
					"internalType": "uint256",
					"name": "",
					"type": "uint256"
				}
			],
			"stateMutability": "view",
			"type": "function"
		},
		{
			"inputs": [
				{
					"internalType": "bytes",
					"name": "",
					"type": "bytes"
				}
			],
			"name": "checkUpkeep",
			"outputs": [
				{
					"internalType": "bool",
					"name": "upkeepNeeded",
					"type": "bool"
				},
				{
					"internalType": "bytes",
					"name": "performData",
					"type": "bytes"
				}
			],
			"stateMutability": "view",
			"type": "function"
		},
		{
			"inputs": [
				{
					"internalType": "uint256",
					"name": "tokenId",
					"type": "uint256"
				}
			],
			"name": "generateSVG",
			"outputs": [
				{
					"internalType": "string",
					"name": "",
					"type": "string"
				}
			],
			"stateMutability": "view",
			"type": "function"
		},
		{
			"inputs": [
				{
					"internalType": "uint256",
					"name": "tokenId",
					"type": "uint256"
				}
			],
			"name": "getApproved",
			"outputs": [
				{
					"internalType": "address",
					"name": "",
					"type": "address"
				}
			],
			"stateMutability": "view",
			"type": "function"
		},
		{
			"inputs": [
				{
					"internalType": "uint256",
					"name": "tokenId",
					"type": "uint256"
				}
			],
			"name": "getPlayerData",
			"outputs": [
				{
					"components": [
						{
							"internalType": "string",
							"name": "nickname",
							"type": "string"
						},
						{
							"internalType": "string",
							"name": "lane",
							"type": "string"
						},
						{
							"internalType": "uint64",
							"name": "games",
							"type": "uint64"
						},
						{
							"internalType": "uint64",
							"name": "kills",
							"type": "uint64"
						},
						{
							"internalType": "uint64",
							"name": "deaths",
							"type": "uint64"
						},
						{
							"internalType": "uint64",
							"name": "assists",
							"type": "uint64"
						}
					],
					"internalType": "struct PlayerCard_NonLayered.PlayerData",
					"name": "",
					"type": "tuple"
				}
			],
			"stateMutability": "view",
			"type": "function"
		},
		{
			"inputs": [
				{
					"internalType": "bytes32",
					"name": "requestId",
					"type": "bytes32"
				},
				{
					"internalType": "bytes",
					"name": "response",
					"type": "bytes"
				},
				{
					"internalType": "bytes",
					"name": "err",
					"type": "bytes"
				}
			],
			"name": "handleOracleFulfillment",
			"outputs": [],
			"stateMutability": "nonpayable",
			"type": "function"
		},
		{
			"inputs": [],
			"name": "interval",
			"outputs": [
				{
					"internalType": "uint256",
					"name": "",
					"type": "uint256"
				}
			],
			"stateMutability": "view",
			"type": "function"
		},
		{
			"inputs": [
				{
					"internalType": "address",
					"name": "owner",
					"type": "address"
				},
				{
					"internalType": "address",
					"name": "operator",
					"type": "address"
				}
			],
			"name": "isApprovedForAll",
			"outputs": [
				{
					"internalType": "bool",
					"name": "",
					"type": "bool"
				}
			],
			"stateMutability": "view",
			"type": "function"
		},
		{
			"inputs": [],
			"name": "lastTimeStamp",
			"outputs": [
				{
					"internalType": "uint256",
					"name": "",
					"type": "uint256"
				}
			],
			"stateMutability": "view",
			"type": "function"
		},
		{
			"inputs": [],
			"name": "name",
			"outputs": [
				{
					"internalType": "string",
					"name": "",
					"type": "string"
				}
			],
			"stateMutability": "view",
			"type": "function"
		},
		{
			"inputs": [],
			"name": "owner",
			"outputs": [
				{
					"internalType": "address",
					"name": "",
					"type": "address"
				}
			],
			"stateMutability": "view",
			"type": "function"
		},
		{
			"inputs": [
				{
					"internalType": "uint256",
					"name": "tokenId",
					"type": "uint256"
				}
			],
			"name": "ownerOf",
			"outputs": [
				{
					"internalType": "address",
					"name": "",
					"type": "address"
				}
			],
			"stateMutability": "view",
			"type": "function"
		},
		{
			"inputs": [
				{
					"internalType": "bytes",
					"name": "",
					"type": "bytes"
				}
			],
			"name": "performUpkeep",
			"outputs": [],
			"stateMutability": "nonpayable",
			"type": "function"
		},
		{
			"inputs": [],
			"name": "renounceOwnership",
			"outputs": [],
			"stateMutability": "nonpayable",
			"type": "function"
		},
		{
			"inputs": [
				{
					"internalType": "uint256",
					"name": "tokenId",
					"type": "uint256"
				}
			],
			"name": "requestStatsUpdate",
			"outputs": [],
			"stateMutability": "nonpayable",
			"type": "function"
		},
		{
			"inputs": [
				{
					"internalType": "uint256",
					"name": "",
					"type": "uint256"
				}
			],
			"name": "s_playerData",
			"outputs": [
				{
					"internalType": "string",
					"name": "nickname",
					"type": "string"
				},
				{
					"internalType": "string",
					"name": "lane",
					"type": "string"
				},
				{
					"internalType": "uint64",
					"name": "games",
					"type": "uint64"
				},
				{
					"internalType": "uint64",
					"name": "kills",
					"type": "uint64"
				},
				{
					"internalType": "uint64",
					"name": "deaths",
					"type": "uint64"
				},
				{
					"internalType": "uint64",
					"name": "assists",
					"type": "uint64"
				}
			],
			"stateMutability": "view",
			"type": "function"
		},
		{
			"inputs": [
				{
					"internalType": "bytes32",
					"name": "",
					"type": "bytes32"
				}
			],
			"name": "s_requestExists",
			"outputs": [
				{
					"internalType": "bool",
					"name": "",
					"type": "bool"
				}
			],
			"stateMutability": "view",
			"type": "function"
		},
		{
			"inputs": [
				{
					"internalType": "bytes32",
					"name": "",
					"type": "bytes32"
				}
			],
			"name": "s_requestToTokenId",
			"outputs": [
				{
					"internalType": "uint256",
					"name": "",
					"type": "uint256"
				}
			],
			"stateMutability": "view",
			"type": "function"
		},
		{
			"inputs": [
				{
					"internalType": "address",
					"name": "to",
					"type": "address"
				},
				{
					"internalType": "string",
					"name": "_nickname",
					"type": "string"
				},
				{
					"internalType": "string",
					"name": "_lane",
					"type": "string"
				}
			],
			"name": "safeMint",
			"outputs": [],
			"stateMutability": "nonpayable",
			"type": "function"
		},
		{
			"inputs": [
				{
					"internalType": "address",
					"name": "from",
					"type": "address"
				},
				{
					"internalType": "address",
					"name": "to",
					"type": "address"
				},
				{
					"internalType": "uint256",
					"name": "tokenId",
					"type": "uint256"
				}
			],
			"name": "safeTransferFrom",
			"outputs": [],
			"stateMutability": "nonpayable",
			"type": "function"
		},
		{
			"inputs": [
				{
					"internalType": "address",
					"name": "from",
					"type": "address"
				},
				{
					"internalType": "address",
					"name": "to",
					"type": "address"
				},
				{
					"internalType": "uint256",
					"name": "tokenId",
					"type": "uint256"
				},
				{
					"internalType": "bytes",
					"name": "data",
					"type": "bytes"
				}
			],
			"name": "safeTransferFrom",
			"outputs": [],
			"stateMutability": "nonpayable",
			"type": "function"
		},
		{
			"inputs": [
				{
					"internalType": "address",
					"name": "operator",
					"type": "address"
				},
				{
					"internalType": "bool",
					"name": "approved",
					"type": "bool"
				}
			],
			"name": "setApprovalForAll",
			"outputs": [],
			"stateMutability": "nonpayable",
			"type": "function"
		},
		{
			"inputs": [
				{
					"internalType": "uint256",
					"name": "_intervalSeconds",
					"type": "uint256"
				},
				{
					"internalType": "uint256",
					"name": "_targetTokenId",
					"type": "uint256"
				}
			],
			"name": "setAutomationSettings",
			"outputs": [],
			"stateMutability": "nonpayable",
			"type": "function"
		},
		{
			"inputs": [
				{
					"internalType": "string",
					"name": "_sourceCode",
					"type": "string"
				}
			],
			"name": "setSourceCode",
			"outputs": [],
			"stateMutability": "nonpayable",
			"type": "function"
		},
		{
			"inputs": [],
			"name": "sourceCode",
			"outputs": [
				{
					"internalType": "string",
					"name": "",
					"type": "string"
				}
			],
			"stateMutability": "view",
			"type": "function"
		},
		{
			"inputs": [],
			"name": "subscriptionId",
			"outputs": [
				{
					"internalType": "uint64",
					"name": "",
					"type": "uint64"
				}
			],
			"stateMutability": "view",
			"type": "function"
		},
		{
			"inputs": [
				{
					"internalType": "bytes4",
					"name": "interfaceId",
					"type": "bytes4"
				}
			],
			"name": "supportsInterface",
			"outputs": [
				{
					"internalType": "bool",
					"name": "",
					"type": "bool"
				}
			],
			"stateMutability": "view",
			"type": "function"
		},
		{
			"inputs": [],
			"name": "symbol",
			"outputs": [
				{
					"internalType": "string",
					"name": "",
					"type": "string"
				}
			],
			"stateMutability": "view",
			"type": "function"
		},
		{
			"inputs": [],
			"name": "targetTokenIdToUpdate",
			"outputs": [
				{
					"internalType": "uint256",
					"name": "",
					"type": "uint256"
				}
			],
			"stateMutability": "view",
			"type": "function"
		},
		{
			"inputs": [
				{
					"internalType": "uint256",
					"name": "tokenId",
					"type": "uint256"
				}
			],
			"name": "tokenURI",
			"outputs": [
				{
					"internalType": "string",
					"name": "",
					"type": "string"
				}
			],
			"stateMutability": "view",
			"type": "function"
		},
		{
			"inputs": [],
			"name": "totalSupply",
			"outputs": [
				{
					"internalType": "uint256",
					"name": "",
					"type": "uint256"
				}
			],
			"stateMutability": "view",
			"type": "function"
		},
		{
			"inputs": [
				{
					"internalType": "address",
					"name": "from",
					"type": "address"
				},
				{
					"internalType": "address",
					"name": "to",
					"type": "address"
				},
				{
					"internalType": "uint256",
					"name": "tokenId",
					"type": "uint256"
				}
			],
			"name": "transferFrom",
			"outputs": [],
			"stateMutability": "nonpayable",
			"type": "function"
		},
		{
			"inputs": [
				{
					"internalType": "address",
					"name": "newOwner",
					"type": "address"
				}
			],
			"name": "transferOwnership",
			"outputs": [],
			"stateMutability": "nonpayable",
			"type": "function"
		}
	]
}